{
  "_format": "hh-sol-artifact-1",
  "contractName": "OrderBook",
  "sourceName": "contracts/OrderBook.sol",
  "abi": [
    {
      "inputs": [
        {
          "internalType": "address",
          "name": "_baseAssetAddress",
          "type": "address"
        },
        {
          "internalType": "uint256",
          "name": "_baseAssetDecimals",
          "type": "uint256"
        },
        {
          "internalType": "address",
          "name": "_quoteAssetAddress",
          "type": "address"
        },
        {
          "internalType": "uint256",
          "name": "_quoteAssetDecimals",
          "type": "uint256"
        },
        {
          "internalType": "address",
          "name": "_marginAccountAddress",
          "type": "address"
        },
        {
          "internalType": "uint96",
          "name": "_sizePrecision",
          "type": "uint96"
        },
        {
          "internalType": "uint24",
          "name": "_pricePrecision",
          "type": "uint24"
        },
        {
          "internalType": "uint96",
          "name": "_tickSize",
          "type": "uint96"
        },
        {
          "internalType": "uint96",
          "name": "_minSize",
          "type": "uint96"
        },
        {
          "internalType": "uint96",
          "name": "_maxSize",
          "type": "uint96"
        },
        {
          "internalType": "uint256",
          "name": "_takerFeeBps",
          "type": "uint256"
        }
      ],
      "stateMutability": "nonpayable",
      "type": "constructor"
    },
    {
      "anonymous": false,
      "inputs": [
        {
          "indexed": false,
          "internalType": "address",
          "name": "takerAddress",
          "type": "address"
        },
        {
          "indexed": false,
          "internalType": "uint96",
          "name": "orderSize",
          "type": "uint96"
        }
      ],
      "name": "BuyIOC",
      "type": "event"
    },
    {
      "anonymous": false,
      "inputs": [
        {
          "indexed": false,
          "internalType": "uint8",
          "name": "version",
          "type": "uint8"
        }
      ],
      "name": "Initialized",
      "type": "event"
    },
    {
      "anonymous": false,
      "inputs": [
        {
          "indexed": false,
          "internalType": "uint40",
          "name": "orderId",
          "type": "uint40"
        },
        {
          "indexed": false,
          "internalType": "address",
          "name": "owner",
          "type": "address"
        },
        {
          "indexed": false,
          "internalType": "uint96",
          "name": "size",
          "type": "uint96"
        },
        {
          "indexed": false,
          "internalType": "uint24",
          "name": "price",
          "type": "uint24"
        },
        {
          "indexed": false,
          "internalType": "bool",
          "name": "isBuy",
          "type": "bool"
        }
      ],
      "name": "OrderCreated",
      "type": "event"
    },
    {
      "anonymous": false,
      "inputs": [
        {
          "indexed": false,
          "internalType": "uint40",
          "name": "orderId",
          "type": "uint40"
        },
        {
          "indexed": false,
          "internalType": "uint96",
          "name": "updatedSize",
          "type": "uint96"
        },
        {
          "indexed": false,
          "internalType": "address",
          "name": "takerAddress",
          "type": "address"
        },
        {
          "indexed": false,
          "internalType": "uint96",
          "name": "filledSize",
          "type": "uint96"
        }
      ],
      "name": "OrderUpdated",
      "type": "event"
    },
    {
      "anonymous": false,
      "inputs": [
        {
          "indexed": false,
          "internalType": "uint40[]",
          "name": "orderId",
          "type": "uint40[]"
        }
      ],
      "name": "OrdersCanceled",
      "type": "event"
    },
    {
      "anonymous": false,
      "inputs": [
        {
          "indexed": false,
          "internalType": "uint40[]",
          "name": "orderIds",
          "type": "uint40[]"
        },
        {
          "indexed": false,
          "internalType": "uint96[]",
          "name": "updatedSizes",
          "type": "uint96[]"
        }
      ],
      "name": "OrdersUpdated",
      "type": "event"
    },
    {
      "anonymous": false,
      "inputs": [
        {
          "indexed": true,
          "internalType": "address",
          "name": "previousOwner",
          "type": "address"
        },
        {
          "indexed": true,
          "internalType": "address",
          "name": "newOwner",
          "type": "address"
        }
      ],
      "name": "OwnershipTransferred",
      "type": "event"
    },
    {
      "anonymous": false,
      "inputs": [
        {
          "indexed": false,
          "internalType": "address",
          "name": "takerAddress",
          "type": "address"
        },
        {
          "indexed": false,
          "internalType": "uint96",
          "name": "orderSize",
          "type": "uint96"
        }
      ],
      "name": "SellIOC",
      "type": "event"
    },
    {
      "inputs": [
        {
          "internalType": "uint24",
          "name": "_price",
          "type": "uint24"
        },
        {
          "internalType": "uint96",
          "name": "size",
          "type": "uint96"
        }
      ],
      "name": "addBuyOrder",
      "outputs": [],
      "stateMutability": "nonpayable",
      "type": "function"
    },
    {
      "inputs": [
        {
          "internalType": "uint24",
          "name": "_price",
          "type": "uint24"
        },
        {
          "internalType": "uint96",
          "name": "size",
          "type": "uint96"
        }
      ],
      "name": "addSellOrder",
      "outputs": [],
      "stateMutability": "nonpayable",
      "type": "function"
    },
    {
      "inputs": [
        {
          "internalType": "uint40[]",
          "name": "_orderIds",
          "type": "uint40[]"
        }
      ],
      "name": "batchCancelOrders",
      "outputs": [],
      "stateMutability": "nonpayable",
      "type": "function"
    },
    {
      "inputs": [
        {
          "internalType": "uint40[]",
          "name": "_orderIds",
          "type": "uint40[]"
        },
        {
          "internalType": "uint96[]",
          "name": "_updatedSizes",
          "type": "uint96[]"
        },
        {
          "internalType": "bool",
          "name": "_useMargin",
          "type": "bool"
        }
      ],
      "name": "decreaseOrders",
      "outputs": [],
      "stateMutability": "nonpayable",
      "type": "function"
    },
    {
      "inputs": [],
      "name": "getBaseAssetDecimals",
      "outputs": [
        {
          "internalType": "uint256",
          "name": "",
          "type": "uint256"
        }
      ],
      "stateMutability": "view",
      "type": "function"
    },
    {
      "inputs": [],
      "name": "getL2Book",
      "outputs": [
        {
          "internalType": "bytes",
          "name": "",
          "type": "bytes"
        }
      ],
      "stateMutability": "view",
      "type": "function"
    },
    {
      "inputs": [],
      "name": "getPricePrecision",
      "outputs": [
        {
          "internalType": "uint24",
          "name": "",
          "type": "uint24"
        }
      ],
      "stateMutability": "view",
      "type": "function"
    },
    {
      "inputs": [],
      "name": "getQuoteAssetDecimals",
      "outputs": [
        {
          "internalType": "uint256",
          "name": "",
          "type": "uint256"
        }
      ],
      "stateMutability": "view",
      "type": "function"
    },
    {
      "inputs": [],
      "name": "getSizePrecision",
      "outputs": [
        {
          "internalType": "uint96",
          "name": "",
          "type": "uint96"
        }
      ],
      "stateMutability": "view",
      "type": "function"
    },
    {
      "inputs": [
        {
          "internalType": "address",
          "name": "_owner",
          "type": "address"
        }
      ],
      "name": "initialize",
      "outputs": [],
      "stateMutability": "nonpayable",
      "type": "function"
    },
    {
      "inputs": [],
      "name": "owner",
      "outputs": [
        {
          "internalType": "address",
          "name": "",
          "type": "address"
        }
      ],
      "stateMutability": "view",
      "type": "function"
    },
    {
      "inputs": [],
      "name": "pauseMarkets",
      "outputs": [],
      "stateMutability": "nonpayable",
      "type": "function"
    },
    {
      "inputs": [
        {
          "internalType": "uint24",
          "name": "_quoteSize",
          "type": "uint24"
        },
        {
          "internalType": "bool",
          "name": "_isFillOrKill",
          "type": "bool"
        }
      ],
      "name": "placeAndExecuteMarketBuy",
      "outputs": [],
      "stateMutability": "nonpayable",
      "type": "function"
    },
    {
      "inputs": [
        {
          "internalType": "uint96",
          "name": "_size",
          "type": "uint96"
        },
        {
          "internalType": "bool",
          "name": "_isFillOrKill",
          "type": "bool"
        }
      ],
      "name": "placeAndExecuteMarketSell",
      "outputs": [],
      "stateMutability": "nonpayable",
      "type": "function"
    },
    {
      "inputs": [
        {
          "internalType": "uint24[]",
          "name": "_prices",
          "type": "uint24[]"
        },
        {
          "internalType": "uint96[]",
          "name": "_sizes",
          "type": "uint96[]"
        }
      ],
      "name": "placeMultipleBuyOrders",
      "outputs": [],
      "stateMutability": "nonpayable",
      "type": "function"
    },
    {
      "inputs": [
        {
          "internalType": "uint24[]",
          "name": "_prices",
          "type": "uint24[]"
        },
        {
          "internalType": "uint96[]",
          "name": "_sizes",
          "type": "uint96[]"
        }
      ],
      "name": "placeMultipleSellOrders",
      "outputs": [],
      "stateMutability": "nonpayable",
      "type": "function"
    },
    {
      "inputs": [],
      "name": "renounceOwnership",
      "outputs": [],
      "stateMutability": "nonpayable",
      "type": "function"
    },
    {
      "inputs": [
        {
          "internalType": "uint256",
          "name": "",
          "type": "uint256"
        }
      ],
      "name": "s_buyPricePoints",
      "outputs": [
        {
          "internalType": "uint40",
          "name": "head",
          "type": "uint40"
        },
        {
          "internalType": "uint40",
          "name": "tail",
          "type": "uint40"
        }
      ],
      "stateMutability": "view",
      "type": "function"
    },
    {
      "inputs": [],
      "name": "s_buyTree",
      "outputs": [
        {
          "internalType": "bytes32",
          "name": "level0",
          "type": "bytes32"
        }
      ],
      "stateMutability": "view",
      "type": "function"
    },
    {
      "inputs": [],
      "name": "s_orderIdCounter",
      "outputs": [
        {
          "internalType": "uint40",
          "name": "",
          "type": "uint40"
        }
      ],
      "stateMutability": "view",
      "type": "function"
    },
    {
      "inputs": [
        {
          "internalType": "uint40",
          "name": "",
          "type": "uint40"
        }
      ],
      "name": "s_orders",
      "outputs": [
        {
          "internalType": "address",
          "name": "ownerAddress",
          "type": "address"
        },
        {
          "internalType": "uint96",
          "name": "size",
          "type": "uint96"
        },
        {
          "internalType": "uint40",
          "name": "prev",
          "type": "uint40"
        },
        {
          "internalType": "uint40",
          "name": "next",
          "type": "uint40"
        },
        {
          "internalType": "uint24",
          "name": "price",
          "type": "uint24"
        },
        {
          "internalType": "bool",
          "name": "isBuy",
          "type": "bool"
        }
      ],
      "stateMutability": "view",
      "type": "function"
    },
    {
      "inputs": [
        {
          "internalType": "uint256",
          "name": "",
          "type": "uint256"
        }
      ],
      "name": "s_sellPricePoints",
      "outputs": [
        {
          "internalType": "uint40",
          "name": "head",
          "type": "uint40"
        },
        {
          "internalType": "uint40",
          "name": "tail",
          "type": "uint40"
        }
      ],
      "stateMutability": "view",
      "type": "function"
    },
    {
      "inputs": [],
      "name": "s_sellTree",
      "outputs": [
        {
          "internalType": "bytes32",
          "name": "level0",
          "type": "bytes32"
        }
      ],
      "stateMutability": "view",
      "type": "function"
    },
    {
      "inputs": [
        {
          "internalType": "address",
          "name": "newOwner",
          "type": "address"
        }
      ],
      "name": "transferOwnership",
      "outputs": [],
      "stateMutability": "nonpayable",
      "type": "function"
    }
  ],
  "bytecode": "0x6101e06040523480156200001257600080fd5b5060405162004cb738038062004cb78339810160408190526200003591620000c8565b6001600160a01b039a8b1661014052978a16610160526101a0989098526101c09590955292909616610180526001600160601b0390811660805262ffffff90951660a052841660c052831660e0529116610100526101205262000199565b80516001600160a01b0381168114620000ab57600080fd5b919050565b80516001600160601b0381168114620000ab57600080fd5b60008060008060008060008060008060006101608c8e031215620000eb57600080fd5b620000f68c62000093565b9a5060208c015199506200010d60408d0162000093565b985060608c015197506200012460808d0162000093565b96506200013460a08d01620000b0565b955060c08c015162ffffff811681146200014d57600080fd5b94506200015d60e08d01620000b0565b93506200016e6101008d01620000b0565b92506200017f6101208d01620000b0565b91506101408c015190509295989b509295989b9093969950565b60805160a05160c05160e05161010051610120516101405161016051610180516101a0516101c0516148bb620003fc600039600081816103d001528181610669015281816108160152818161194601528181611fb3015281816124b201528181612f9801528181613459015261415f01526000818161041101528181610f88015281816113f0015281816115a7015281816121d001528181613102015261402f01526000818161061f015281816107a4015281816113a20152818161153101528181611f160152818161215901528181612404015281816125de01528181612862015281816129c601528181612efb0152818161308b015281816133ab01526135840152600081816105f7015281816107cc015281816118fc01528181611f3f015281816129ef01528181612f240152613fd7015260008181610f3a0152818161137a01528181611559015281816121820152818161242d015281816130b4015281816133d40152613fb1015260008181612486015261342d015260008181610e31015261179b015260008181610db00152818161171a0152612e2c015260008181610eb5015261181f0152600081816101fa01528181610644015281816107f10152818161192101528181611f8e01528181612a1a01528181612f73015261412c0152600081816101c701528181610f63015281816113cb01528181611582015281816118b301528181611f68015281816121ab015281816122f70152818161239c0152818161245c01528181612a3c01528181612f4d015281816130dd01528181613314015281816134030152818161400a015261410701526148bb6000f3fe608060405234801561001057600080fd5b50600436106101985760003560e01c80637a919ec7116100e3578063c4d66de81161008c578063e6d29b5111610066578063e6d29b511461048b578063f2fde38b146104bd578063f7fe884f146104d057600080fd5b8063c4d66de814610452578063cae22ee614610465578063d94d04321461047857600080fd5b8063962f7f91116100bd578063962f7f911461040f5780639cb1e4ab14610435578063badc92d11461044857600080fd5b80637a919ec7146103bb5780637b6966cb146103ce5780638da5cb5b146103f457600080fd5b806323afbff31161014557806346fdfbb11161011f57806346fdfbb11461038b57806364e5220a146103a0578063715018a6146103b357600080fd5b806323afbff31461033e5780632aa9fbdc146103515780632bf1360e1461036457600080fd5b80630e2e2ffe116101765780630e2e2ffe146102245780631c0d9c22146102745780631c4f3f311461033457600080fd5b806302b90c651461019d57806308c8120e146101ba57806308ea5bee146101f1575b600080fd5b606b546101a79081565b6040519081526020015b60405180910390f35b6040516001600160601b037f00000000000000000000000000000000000000000000000000000000000000001681526020016101b1565b60405162ffffff7f00000000000000000000000000000000000000000000000000000000000000001681526020016101b1565b6102566102323660046141ac565b60676020526000908152604090205464ffffffffff80821691600160281b90041682565b6040805164ffffffffff9384168152929091166020830152016101b1565b6102e36102823660046141da565b606560205260009081526040902080546001909101546001600160a01b03821691600160a01b90046001600160601b03169064ffffffffff80821691600160281b810490911690600160501b810462ffffff1690600160681b900460ff1686565b604080516001600160a01b0390971687526001600160601b03909516602087015264ffffffffff938416948601949094529116606084015262ffffff166080830152151560a082015260c0016101b1565b61033c6104e3565b005b61033c61034c36600461423a565b610502565b61033c61035f36600461429d565b61058d565b606e546103759064ffffffffff1681565b60405164ffffffffff90911681526020016101b1565b61039361092e565b6040516101b191906142f8565b61033c6103ae36600461432b565b610bfc565b61033c610d40565b61033c6103c93660046143ae565b610d54565b7f00000000000000000000000000000000000000000000000000000000000000006101a7565b6033546040516001600160a01b0390911681526020016101b1565b7f00000000000000000000000000000000000000000000000000000000000000006101a7565b61033c6104433660046143e1565b6110e0565b6068546101a79081565b61033c610460366004614465565b6111f3565b61033c61047336600461448e565b611315565b61033c6104863660046143ae565b6116be565b6102566104993660046141ac565b60666020526000908152604090205464ffffffffff80821691600160281b90041682565b61033c6104cb366004614465565b611a79565b61033c6104de36600461432b565b611b09565b6104eb611c46565b606e805465ff00000000001916600160281b179055565b60005b8181101561054f5761053c838383818110610522576105226144aa565b905060200201602081019061053791906141da565b611ca0565b5080610547816144d6565b915050610505565b507fff827a141969be714c9574985077e0a90f4a3b4cc9bd4219c7beedbc1fdfc41b8282604051610581929190614534565b60405180910390a15050565b606e54600160281b900460ff16156105ec5760405162461bcd60e51b815260206004820152601b60248201527f4f72646572426f6f6b3a206d61726b657420697320706175736564000000000060448201526064015b60405180910390fd5b816001600160a01b037f0000000000000000000000000000000000000000000000000000000000000000166323b872dd337f000000000000000000000000000000000000000000000000000000000000000062ffffff7f00000000000000000000000000000000000000000000000000000000000000001661068f7f0000000000000000000000000000000000000000000000000000000000000000600a61462c565b61069e9062ffffff8a16614638565b6106a89190614665565b6040516001600160e01b031960e086901b1681526001600160a01b03938416600482015292909116602483015260448201526064016020604051808303816000875af11580156106fc573d6000803e3d6000fd5b505050506040513d601f19601f820116820180604052508101906107209190614679565b5061073062ffffff8460006122a3565b925062ffffff8316156108d657811561079a5760405162461bcd60e51b815260206004820152602660248201527f4f72646572426f6f6b3a20696e73756666696369656e7420766f6c756d65206f6044820152656e20626f6f6b60d01b60648201526084016105e3565b6001600160a01b037f0000000000000000000000000000000000000000000000000000000000000000166375eab98e337f000000000000000000000000000000000000000000000000000000000000000062ffffff7f00000000000000000000000000000000000000000000000000000000000000001661083c7f0000000000000000000000000000000000000000000000000000000000000000600a61462c565b61084b9062ffffff8a16614638565b6108559190614665565b6040516001600160e01b031960e086901b1681526001600160a01b0393841660048201529290911660248301526044820152600060648201526084016020604051808303816000875af11580156108b0573d6000803e3d6000fd5b505050506040513d601f19601f820116820180604052508101906108d49190614679565b505b7ff15bed7b22d33d11444ca3aec04422c1b414c5c2a67b1a6b33f2dd44d32f98d2336109028584614696565b604080516001600160a01b03909316835262ffffff9091166020830152015b60405180910390a1505050565b606060004360405160200161094591815260200190565b6040516020818303038152906040529050600061096460686000612663565b90505b62ffffff81811614158061097e575062ffffff8116155b15610a8b5762ffffff811660009081526066602052604081205464ffffffffff16905b64ffffffffff821615610a0c5764ffffffffff82166000908152606560205260409020546109df90600160a01b90046001600160601b0316826146b9565b64ffffffffff928316600090815260656020526040902060010154600160281b90049092169190506109a1565b6040805162ffffff851660208201526001600160601b0383168183015281518082038301815260608201909252610a479186916080016146d9565b60408051601f198184030181529190529350610a6e6068610a69856001614708565b612663565b92508262ffffff16600003610a84575050610a8b565b5050610967565b604080516000602082015283910160408051601f1981840301815290829052610ab792916020016146d9565b6040516020818303038152906040529150610ad4606b6000612663565b90505b62ffffff818116141580610aee575062ffffff8116155b15610bf65762ffffff811660009081526067602052604081205464ffffffffff16905b64ffffffffff821615610b7c5764ffffffffff8216600090815260656020526040902054610b4f90600160a01b90046001600160601b0316826146b9565b64ffffffffff928316600090815260656020526040902060010154600160281b9004909216919050610b11565b6040805162ffffff851660208201526001600160601b0383168183015281518082038301815260608201909252610bb79186916080016146d9565b60408051601f198184030181529190529350610bd9606b610a69856001614708565b92508262ffffff16600003610bef575050610bf6565b5050610ad7565b50919050565b606e54600160281b900460ff1615610c565760405162461bcd60e51b815260206004820152601b60248201527f4f72646572426f6f6b3a206d61726b657420697320706175736564000000000060448201526064016105e3565b828114610ccb5760405162461bcd60e51b815260206004820152603360248201527f4f72646572426f6f6b3a2050726963657320616e642073697a6573206172726160448201527f79206c656e677468206d757374206d617463680000000000000000000000000060648201526084016105e3565b60005b83811015610d3957610d27858583818110610ceb57610ceb6144aa565b9050602002016020810190610d009190614724565b848484818110610d1257610d126144aa565b9050602002016020810190610486919061473f565b80610d31816144d6565b915050610cce565b5050505050565b610d48611c46565b610d5260006127b1565b565b606e54600160281b900460ff1615610dae5760405162461bcd60e51b815260206004820152601b60248201527f4f72646572426f6f6b3a206d61726b657420697320706175736564000000000060448201526064016105e3565b7f00000000000000000000000000000000000000000000000000000000000000006001600160601b0316816001600160601b031611610e2f5760405162461bcd60e51b815260206004820152601760248201527f4f72646572426f6f6b3a2053697a6520746f6f206c6f7700000000000000000060448201526064016105e3565b7f00000000000000000000000000000000000000000000000000000000000000006001600160601b0316816001600160601b031610610eb05760405162461bcd60e51b815260206004820152601960248201527f4f72646572426f6f6b3a2053697a6520746f6f206c617267650000000000000060448201526064016105e3565b610edf7f000000000000000000000000000000000000000000000000000000000000000062ffffff841661475a565b6001600160601b031615610f355760405162461bcd60e51b815260206004820152601460248201527f4f72646572426f6f6b3a205469636b2053697a6500000000000000000000000060448201526064016105e3565b610fd17f00000000000000000000000000000000000000000000000000000000000000006001600160601b037f000000000000000000000000000000000000000000000000000000000000000016610fae7f0000000000000000000000000000000000000000000000000000000000000000600a61462c565b610fc1906001600160601b038616614638565b610fcb9190614665565b3361281b565b610fdd828260016128cf565b90506001600160601b038116156110dc57606e5464ffffffffff16611003816001614780565b606e805464ffffffffff191664ffffffffff9290921691909117905561102a606b84612a73565b5062ffffff831660009081526067602052604081206110539061104e846001614780565b612b0e565b905061106d8484611065856001614780565b600085612b78565b7fde65ec26e567cef1936a693231b33b08ce40fca66ce0e78b38d938048c7a0891611099836001614780565b6040805164ffffffffff90921682523360208301526001600160601b0386169082015262ffffff861660608201526000608082015260a00160405180910390a150505b5050565b606e54600160281b900460ff161561113a5760405162461bcd60e51b815260206004820152601b60248201527f4f72646572426f6f6b3a206d61726b657420697320706175736564000000000060448201526064016105e3565b60005b848110156111ae5761119c86868381811061115a5761115a6144aa565b905060200201602081019061116f91906141da565b858584818110611181576111816144aa565b9050602002016020810190611196919061473f565b84612c90565b806111a6816144d6565b91505061113d565b507f54fa92f8d95172a75a6a6a4c181ac0e1ecfa38b90bb7761b761cbafde7056b5a858585856040516111e4949392919061479e565b60405180910390a15050505050565b600054610100900460ff16158080156112135750600054600160ff909116105b8061122d5750303b15801561122d575060005460ff166001145b61129f5760405162461bcd60e51b815260206004820152602e60248201527f496e697469616c697a61626c653a20636f6e747261637420697320616c72656160448201527f647920696e697469616c697a656400000000000000000000000000000000000060648201526084016105e3565b6000805460ff1916600117905580156112c2576000805461ff0019166101001790555b6112ca613207565b6112d3826127b1565b80156110dc576000805461ff0019169055604051600181527f7f26b83ff96e1f2b6a682f133852f6798a09c465da95921460cefb384740249890602001610581565b606e54600160281b900460ff161561136f5760405162461bcd60e51b815260206004820152601b60248201527f4f72646572426f6f6b3a206d61726b657420697320706175736564000000000060448201526064016105e3565b816001600160a01b037f0000000000000000000000000000000000000000000000000000000000000000166323b872dd337f00000000000000000000000000000000000000000000000000000000000000006001600160601b037f0000000000000000000000000000000000000000000000000000000000000000166114167f0000000000000000000000000000000000000000000000000000000000000000600a61462c565b611429906001600160601b038a16614638565b6114339190614665565b6040516001600160e01b031960e086901b1681526001600160a01b03938416600482015292909116602483015260448201526064016020604051808303816000875af1158015611487573d6000803e3d6000fd5b505050506040513d601f19601f820116820180604052508101906114ab9190614679565b506114b960008460006128cf565b92506001600160601b0383161561166b5781156115275760405162461bcd60e51b815260206004820152602660248201527f4f72646572426f6f6b3a20696e73756666696369656e7420766f6c756d65206f6044820152656e20626f6f6b60d01b60648201526084016105e3565b6001600160a01b037f0000000000000000000000000000000000000000000000000000000000000000166375eab98e337f00000000000000000000000000000000000000000000000000000000000000006001600160601b037f0000000000000000000000000000000000000000000000000000000000000000166115cd7f0000000000000000000000000000000000000000000000000000000000000000600a61462c565b6115e0906001600160601b038a16614638565b6115ea9190614665565b6040516001600160e01b031960e086901b1681526001600160a01b0393841660048201529290911660248301526044820152600060648201526084016020604051808303816000875af1158015611645573d6000803e3d6000fd5b505050506040513d601f19601f820116820180604052508101906116699190614679565b505b7fb871c4d9973a47651e045c6d6da5062136613f3314954f747ebe0b679b3d4c52336116978584614801565b604080516001600160a01b0390931683526001600160601b03909116602083015201610921565b606e54600160281b900460ff16156117185760405162461bcd60e51b815260206004820152601b60248201527f4f72646572426f6f6b3a206d61726b657420697320706175736564000000000060448201526064016105e3565b7f00000000000000000000000000000000000000000000000000000000000000006001600160601b0316816001600160601b0316116117995760405162461bcd60e51b815260206004820152601760248201527f4f72646572426f6f6b3a2053697a6520746f6f206c6f7700000000000000000060448201526064016105e3565b7f00000000000000000000000000000000000000000000000000000000000000006001600160601b0316816001600160601b03161061181a5760405162461bcd60e51b815260206004820152601960248201527f4f72646572426f6f6b3a2053697a6520746f6f206c617267650000000000000060448201526064016105e3565b6118497f000000000000000000000000000000000000000000000000000000000000000062ffffff841661475a565b6001600160601b03161561189f5760405162461bcd60e51b815260206004820152601460248201527f4f72646572426f6f6b3a205469636b2053697a6500000000000000000000000060448201526064016105e3565b6000806118ac848461327a565b90925090507f00000000000000000000000000000000000000000000000000000000000000006118e162ffffff861684614821565b6118eb919061484c565b6118f59082614708565b905061197b7f000000000000000000000000000000000000000000000000000000000000000062ffffff7f00000000000000000000000000000000000000000000000000000000000000001661196c7f0000000000000000000000000000000000000000000000000000000000000000600a61462c565b610fc19062ffffff8616614638565b6001600160601b03821615611a7357606e5464ffffffffff1661199f816001614780565b606e805464ffffffffff191664ffffffffff929092169190911790556119c6606886612a73565b5062ffffff851660009081526066602052604081206119ea9061104e846001614780565b9050611a0486856119fc856001614780565b600185612b78565b7fde65ec26e567cef1936a693231b33b08ce40fca66ce0e78b38d938048c7a0891611a30836001614780565b6040805164ffffffffff90921682523360208301526001600160601b0387169082015262ffffff881660608201526001608082015260a00160405180910390a150505b50505050565b611a81611c46565b6001600160a01b038116611afd5760405162461bcd60e51b815260206004820152602660248201527f4f776e61626c653a206e6577206f776e657220697320746865207a65726f206160448201527f646472657373000000000000000000000000000000000000000000000000000060648201526084016105e3565b611b06816127b1565b50565b606e54600160281b900460ff1615611b635760405162461bcd60e51b815260206004820152601b60248201527f4f72646572426f6f6b3a206d61726b657420697320706175736564000000000060448201526064016105e3565b828114611bd85760405162461bcd60e51b815260206004820152603360248201527f4f72646572426f6f6b3a2050726963657320616e642073697a6573206172726160448201527f79206c656e677468206d757374206d617463680000000000000000000000000060648201526084016105e3565b60005b83811015610d3957611c34858583818110611bf857611bf86144aa565b9050602002016020810190611c0d9190614724565b848484818110611c1f57611c1f6144aa565b90506020020160208101906103c9919061473f565b80611c3e816144d6565b915050611bdb565b6033546001600160a01b03163314610d525760405162461bcd60e51b815260206004820181905260248201527f4f776e61626c653a2063616c6c6572206973206e6f7420746865206f776e657260448201526064016105e3565b64ffffffffff8181166000908152606560209081526040808320815160c08101835281546001600160a01b0381168252600160a01b90046001600160601b0316938101939093526001015480851691830191909152600160281b81049093166060820152600160501b830462ffffff166080820152600160681b90920460ff16151560a083015290611d32838261360e565b80516001600160a01b03163314611db15760405162461bcd60e51b815260206004820152602c60248201527f4f72646572426f6f6b3a204f6e6c79206f72646572206f776e65722063616e2060448201527f63616e63656c206f72646572000000000000000000000000000000000000000060648201526084016105e3565b604081015164ffffffffff1615611e0657606081015160408083015164ffffffffff9081166000908152606560205291909120600101805491909216600160281b0269ffffffffff0000000000199091161790555b606081015164ffffffffff1615611e5157604081810151606083015164ffffffffff9081166000908152606560205292909220600101805464ffffffffff1916929091169190911790555b8060a001511561209e57608081015162ffffff1660009081526066602052604090205464ffffffffff90811690841603611eae57608081015162ffffff1660009081526066602052604090206060820151611eac9190613894565b505b611edc60666000836080015162ffffff168152602001908152602001600020826040015183606001516138d8565b806060015164ffffffffff16816040015164ffffffffff1603611f0a57611f086068826080015161392c565b505b80516001600160a01b037f000000000000000000000000000000000000000000000000000000000000000016906375eab98e907f00000000000000000000000000000000000000000000000000000000000000006001600160601b037f00000000000000000000000000000000000000000000000000000000000000001662ffffff7f000000000000000000000000000000000000000000000000000000000000000016611fd97f0000000000000000000000000000000000000000000000000000000000000000600a61462c565b876080015162ffffff168860200151611ff29190614821565b6001600160601b03166120059190614638565b61200f9190614665565b6120199190614665565b6040516001600160e01b031960e086901b1681526001600160a01b0393841660048201529290911660248301526044820152600160648201526084016020604051808303816000875af1158015612074573d6000803e3d6000fd5b505050506040513d601f19601f820116820180604052508101906120989190614679565b50612299565b608081015162ffffff1660009081526067602052604090205464ffffffffff908116908416036120f157608081015162ffffff16600090815260676020526040902060608201516120ef9190613894565b505b61211f60676000836080015162ffffff168152602001908152602001600020826040015183606001516138d8565b806060015164ffffffffff16816040015164ffffffffff160361214d5761214b606b826080015161392c565b505b80516001600160a01b037f000000000000000000000000000000000000000000000000000000000000000016906375eab98e907f00000000000000000000000000000000000000000000000000000000000000006001600160601b037f0000000000000000000000000000000000000000000000000000000000000000166121f67f0000000000000000000000000000000000000000000000000000000000000000600a61462c565b86602001516001600160601b031661220e9190614638565b6122189190614665565b6040516001600160e01b031960e086901b1681526001600160a01b0393841660048201529290911660248301526044820152600160648201526084016020604051808303816000875af1158015612273573d6000803e3d6000fd5b505050506040513d601f19601f820116820180604052508101906122979190614679565b505b60a0015192915050565b60008060006122b4606b6000612663565b905060605b60008662ffffff161180156122d857508662ffffff168262ffffff1611155b80156122e8575062ffffff821615155b156123eb5760008262ffffff167f00000000000000000000000000000000000000000000000000000000000000008862ffffff166123269190614821565b612330919061484c565b9050606061233e82866146b9565b9450612364606b85606760008862ffffff168152602001908152602001600020856139c0565b90925090506123738286614801565b945082816040516020016123889291906146d9565b60408051601f1981840301815291905292507f00000000000000000000000000000000000000000000000000000000000000006123ca62ffffff861684614821565b6123d4919061484c565b97506123e2606b6000612663565b935050506122b9565b6001600160601b038316156125c0576001600160a01b037f000000000000000000000000000000000000000000000000000000000000000016636f5b601e82337f00000000000000000000000000000000000000000000000000000000000000006124816127106001600160601b037f000000000000000000000000000000000000000000000000000000000000000016614638565b6124ad7f0000000000000000000000000000000000000000000000000000000000000000612710614872565b6124d87f0000000000000000000000000000000000000000000000000000000000000000600a61462c565b6124eb906001600160601b038c16614638565b6124f59190614638565b6124ff9190614665565b604080516001600160a01b03948516602082015293909216918301919091526060820152881515608082015260a00160408051601f198184030181529082905261254c92916020016146d9565b6040516020818303038152906040526040518263ffffffff1660e01b815260040161257791906142f8565b6020604051808303816000875af1158015612596573d6000803e3d6000fd5b505050506040513d601f19601f820116820180604052508101906125ba9190614679565b50612658565b805115612658576040516337adb00f60e11b81526001600160a01b037f00000000000000000000000000000000000000000000000000000000000000001690636f5b601e906126139084906004016142f8565b6020604051808303816000875af1158015612632573d6000803e3d6000fd5b505050506040513d601f19601f820116820180604052508101906126569190614679565b505b509395945050505050565b60008061ffff600884901c1660ff8085169081146126b857600082815260028701602052604081205493506126988483613a5e565b905060001981146126b65760089290921b90911792506127ab915050565b505b5060ff80821690600883901c90821461273257600081815260018801602052604081205494506126e88584613a5e565b9050600019811461273057600882901b8117600081815260028a0160205260409020549550935061271885613a6d565b60ff1660088560001c901b17955050505050506127ab565b505b60ff818116925082146127a25786549350600061274f8584613a5e565b905060001981146127a0576000818152600189016020526040902054945090508061277985613a6d565b60ff16600883901b17600081815260028a0160205260409020549550935061271885613a6d565b505b60009450505050505b92915050565b603380546001600160a01b038381167fffffffffffffffffffffffff0000000000000000000000000000000000000000831681179093556040519116919082907f8be0079c531659141344cd1fd0a4f28419497f9722a3daafe3b4186f6b6457e090600090a35050565b6040517f6c1392520000000000000000000000000000000000000000000000000000000081526001600160a01b0382811660048301528481166024830152604482018490527f00000000000000000000000000000000000000000000000000000000000000001690636c139252906064016020604051808303816000875af11580156128ab573d6000803e3d6000fd5b505050506040513d601f19601f82011682018060405250810190611a739190614679565b600080806128e1606862ffffff613b09565b905060605b6000866001600160601b031611801561290957508662ffffff168262ffffff1610155b801561291a575062ffffff82811614155b156129ad5762ffffff821660009081526066602052604090208690606090612947906068908690856139c0565b909850905062ffffff841661295c8984614801565b6129669190614821565b61297090866146b9565b945082816040516020016129859291906146d9565b60405160208183030381529060405292506129a4606862ffffff613b09565b935050506128e6565b6001600160601b038316156125c0576001600160a01b037f000000000000000000000000000000000000000000000000000000000000000016636f5b601e82337f0000000000000000000000000000000000000000000000000000000000000000612710612a6062ffffff7f0000000000000000000000000000000000000000000000000000000000000000167f0000000000000000000000000000000000000000000000000000000000000000614821565b6001600160601b03166124819190614638565b61ffff600882901c166000818152600284016020526040812054909190600160ff85161b8117808214612b025760008381526002870160205260408120829055829003612af657600883901c6000818152600180890160205260408220805460ff88169290921b821790559350839003612af4578654600160ff83161b1787555b505b600193505050506127ab565b50600095945050505050565b8154600090600160281b900464ffffffffff1680612b50578354600160281b64ffffffffff851690810269ffffffffffffffffffff1990921617178455612b71565b835469ffffffffff00000000001916600160281b64ffffffffff8516021784555b9392505050565b6040805160c0810182523381526001600160601b03958616602080830191825264ffffffffff94851683850181815260006060860181815262ffffff9c8d166080880190815299151560a088019081529a8916808352606590955287822096519551909b16600160a01b026001600160a01b0390951694909417855551600194850180549a51985199511515600160681b026dff00000000000000000000000000199a909c16600160501b02999099166dffffffff0000000000000000000019988816600160281b90810269ffffffffffffffffffff19909c1692909816919091179990991796909616979097179790971790945591855293200180549290910269ffffffffff000000000019909216919091179055565b64ffffffffff838116600090815260656020908152604091829020825160c08101845281546001600160a01b0381168252600160a01b90046001600160601b0316928101929092526001015480841692820192909252600160281b82049092166060830152600160501b810462ffffff166080830152600160681b900460ff16151560a0820152612d21848261360e565b80516001600160a01b03163314612da05760405162461bcd60e51b815260206004820152602c60248201527f4f72646572426f6f6b3a204f6e6c79206f72646572206f776e65722063616e2060448201527f757064617465206f72646572000000000000000000000000000000000000000060648201526084016105e3565b826001600160601b031681602001516001600160601b031611612e2a5760405162461bcd60e51b8152602060048201526024808201527f4f72646572426f6f6b3a2063616e277420696e637265617365206f726465722060448201527f73697a650000000000000000000000000000000000000000000000000000000060648201526084016105e3565b7f00000000000000000000000000000000000000000000000000000000000000006001600160601b0316836001600160601b031611612ed15760405162461bcd60e51b815260206004820152602e60248201527f4f72646572626f6f6b3a2073697a652068617320746f2062652067726561746560448201527f72207468616e206d696e696d756d00000000000000000000000000000000000060648201526084016105e3565b6000838260200151612ee39190614801565b90508160a001511561307f5781516001600160a01b037f000000000000000000000000000000000000000000000000000000000000000016906375eab98e907f00000000000000000000000000000000000000000000000000000000000000006001600160601b037f00000000000000000000000000000000000000000000000000000000000000001662ffffff7f000000000000000000000000000000000000000000000000000000000000000016612fbe7f0000000000000000000000000000000000000000000000000000000000000000600a61462c565b6080890151612fd29062ffffff1689614821565b6001600160601b0316612fe59190614638565b612fef9190614665565b612ff99190614665565b6040516001600160e01b031960e086901b1681526001600160a01b039384166004820152929091166024830152604482015285151560648201526084016020604051808303816000875af1158015613055573d6000803e3d6000fd5b505050506040513d601f19601f820116820180604052508101906130799190614679565b506131c7565b81516001600160a01b037f000000000000000000000000000000000000000000000000000000000000000016906375eab98e907f00000000000000000000000000000000000000000000000000000000000000006001600160601b037f0000000000000000000000000000000000000000000000000000000000000000166131287f0000000000000000000000000000000000000000000000000000000000000000600a61462c565b61313b906001600160601b038816614638565b6131459190614665565b6040516001600160e01b031960e086901b1681526001600160a01b039384166004820152929091166024830152604482015285151560648201526084016020604051808303816000875af11580156131a1573d6000803e3d6000fd5b505050506040513d601f19601f820116820180604052508101906131c59190614679565b505b50505064ffffffffff909116600090815260656020526040902080546001600160601b03909216600160a01b026001600160a01b03909216919091179055565b600054610100900460ff166132725760405162461bcd60e51b815260206004820152602b60248201527f496e697469616c697a61626c653a20636f6e7472616374206973206e6f74206960448201526a6e697469616c697a696e6760a81b60648201526084016105e3565b610d52613c39565b60008060008061328c606b6000612663565b9050600060605b6000876001600160601b03161180156132b657508762ffffff168362ffffff1611155b80156132c6575062ffffff831615155b156133925762ffffff8316600090815260676020526040902060609088906132f390606b908790846139c0565b909950915060006133048a83614801565b905061331081886146b9565b96507f000000000000000000000000000000000000000000000000000000000000000061334262ffffff881683614821565b61334c919061484c565b6133569086614708565b9450838360405160200161336b9291906146d9565b6040516020818303038152906040529350613388606b6000612663565b9550505050613293565b6001600160601b03841615613566576001600160a01b037f000000000000000000000000000000000000000000000000000000000000000016636f5b601e82337f00000000000000000000000000000000000000000000000000000000000000006134286127106001600160601b037f000000000000000000000000000000000000000000000000000000000000000016614638565b6134547f0000000000000000000000000000000000000000000000000000000000000000612710614872565b61347f7f0000000000000000000000000000000000000000000000000000000000000000600a61462c565b613492906001600160601b038d16614638565b61349c9190614638565b6134a69190614665565b604080516001600160a01b039485166020820152939092169183019190915260608201526001608082015260a00160408051601f19818403018152908290526134f292916020016146d9565b6040516020818303038152906040526040518263ffffffff1660e01b815260040161351d91906142f8565b6020604051808303816000875af115801561353c573d6000803e3d6000fd5b505050506040513d601f19601f820116820180604052508101906135609190614679565b506135fe565b8051156135fe576040516337adb00f60e11b81526001600160a01b037f00000000000000000000000000000000000000000000000000000000000000001690636f5b601e906135b99084906004016142f8565b6020604051808303816000875af11580156135d8573d6000803e3d6000fd5b505050506040513d601f19601f820116820180604052508101906135fc9190614679565b505b50859450925050505b9250929050565b604081015164ffffffffff16156137925760408082015164ffffffffff908116600090815260656020529190912060010154600160281b90048116908316146136a45760405162461bcd60e51b815260206004820152602260248201527f4f72646572426f6f6b3a204f7264657220616c72656164792063616e63656c6c604482015261195960f21b60648201526084016105e3565b8060a001511561372057608081015162ffffff1660009081526066602052604090205464ffffffffff808416911611156110dc5760405162461bcd60e51b815260206004820152600f60248201527f416c72656164792066696c6c656421000000000000000000000000000000000060448201526064016105e3565b608081015162ffffff1660009081526067602052604090205464ffffffffff808416911611156110dc5760405162461bcd60e51b815260206004820152600f60248201527f416c72656164792066696c6c656421000000000000000000000000000000000060448201526064016105e3565b8060a001511561381857608081015162ffffff1660009081526066602052604090205464ffffffffff8381169116146110dc5760405162461bcd60e51b815260206004820152602260248201527f4f72646572426f6f6b3a204f7264657220616c72656164792063616e63656c6c604482015261195960f21b60648201526084016105e3565b608081015162ffffff1660009081526067602052604090205464ffffffffff8381169116146110dc5760405162461bcd60e51b815260206004820152602260248201527f4f72646572426f6f6b3a204f7264657220616c72656164792063616e63656c6c604482015261195960f21b60648201526084016105e3565b600064ffffffffff82166138bb5750815469ffffffffffffffffffff1916825560016127ab565b50815464ffffffffff191664ffffffffff91909116179055600090565b64ffffffffff82166138fa57825464ffffffffff191664ffffffffff82161783555b64ffffffffff811661392757825469ffffffffff00000000001916600160281b64ffffffffff8416021783555b505050565b61ffff600882901c166000818152600284016020526040812054909190600160ff85161b198116808214612b025760008381526002870160205260408120829055819003612af65750600882901c6000818152600187810160205260408220805460ff87169290921b19909116908190559190829003612af4578654600160ff83161b1916875550600193505050506127ab565b8154819060609064ffffffffff165b6000836001600160601b03161180156139ee575064ffffffffff811615155b15613a315760606139ff8285613cad565b6040519296509093509150613a1a90849083906020016146d9565b6040516020818303038152906040529250506139cf565b613a3b8582613894565b5064ffffffffff8116613a5457613a52878761392c565b505b5094509492505050565b6000612b718360018401613ec3565b60008160801b8015613a8157608091508092505b8260401b90508015613a94579150604001815b8260201b90508015613aa7579150602001815b8260101b90508015613aba579150601001815b8260081b90508015613acd579150600801815b8260041b90508015613ae0579150600401815b8260021b90508015613af3579150600201815b508160011b15613b01576001015b60ff03919050565b60008061ffff600884901c1660ff84168015613b5c5760008281526002870160205260408120549350613b3c8483613ef1565b90506000198114613b5a5760089290921b90911792506127ab915050565b505b5060ff8116600882901c8115613bbb5760008181526001880160205260408120549450613b898584613ef1565b90506000198114613bb957600882901b8117600081815260028a0160205260409020549550935061271885613f01565b505b60ff811691508115613c2a57865493506000613bd78584613ef1565b90506000198114613c285760008181526001890160205260409020549450905080613c0185613f01565b60ff16600883901b17600081815260028a0160205260409020549550935061271885613f01565b505b5062ffffff9695505050505050565b600054610100900460ff16613ca45760405162461bcd60e51b815260206004820152602b60248201527f496e697469616c697a61626c653a20636f6e7472616374206973206e6f74206960448201526a6e697469616c697a696e6760a81b60648201526084016105e3565b610d52336127b1565b64ffffffffff8083166000908152606560205260408120600181015490549192600160281b90910416906060906001600160601b03600160a01b90910481169085168110613cfc576000613d06565b613d068186614801565b93506000846001600160601b0316600003613d2857613d258683614801565b90505b64ffffffffff8716600090815260656020526040902060018101549054613dc691600160681b900460ff1615906001600160a01b03166001600160601b03881615613d995764ffffffffff8a16600090815260656020526040902054600160a01b90046001600160601b0316613d9b565b885b64ffffffffff8b16600090815260656020526040902060010154600160501b900462ffffff16613fa6565b9250846001600160601b0316600003613e4a576001600160601b03811615613dec578693505b64ffffffffff871660009081526065602052604090208054879190601490613e25908490600160a01b90046001600160601b0316614801565b92506101000a8154816001600160601b0302191690836001600160601b031602179055505b7f0f776687bcbfcd4c7f07f579514e8cc3f18b23ff7ff3ecf2be693a02e4dedc21878233613e78898b614801565b6040805164ffffffffff90951685526001600160601b0393841660208601526001600160a01b039092169184019190915216606082015260800160405180910390a150509250925092565b60ff81169190911c9060008215613ee75781613ede84613a6d565b0160ff16612b71565b5060001992915050565b6000612b718360001984016140ce565b60006fffffffffffffffffffffffffffffffff821115613f235750608090811c905b67ffffffffffffffff821115613f3b57604091821c91015b63ffffffff821115613f4f57602091821c91015b61ffff821115613f6157601091821c91015b60ff821115613f7257600891821c91015b600f821115613f8357600491821c91015b6003821115613f9457600291821c91015b6001821115613fa1576001015b919050565b6060600085613fd5577f0000000000000000000000000000000000000000000000000000000000000000613ff7565b7f00000000000000000000000000000000000000000000000000000000000000005b9050600086614077576001600160601b037f0000000000000000000000000000000000000000000000000000000000000000166140557f0000000000000000000000000000000000000000000000000000000000000000600a61462c565b614068906001600160601b038816614638565b6140729190614665565b614086565b614086858562ffffff16614100565b604080516001600160a01b039889166020820152939097168388015260608301525060016080808301919091528551808303909101815260a090910190945250919392505050565b60ff8181031691821b9160009083156140f457806140eb85613f01565b60ff16036140f8565b6000195b949350505050565b60006141517f000000000000000000000000000000000000000000000000000000000000000062ffffff7f000000000000000000000000000000000000000000000000000000000000000016614821565b6001600160601b03166141857f0000000000000000000000000000000000000000000000000000000000000000600a61462c565b61418f8486614821565b6001600160601b03166141a29190614638565b612b719190614665565b6000602082840312156141be57600080fd5b5035919050565b803564ffffffffff81168114613fa157600080fd5b6000602082840312156141ec57600080fd5b612b71826141c5565b60008083601f84011261420757600080fd5b50813567ffffffffffffffff81111561421f57600080fd5b6020830191508360208260051b850101111561360757600080fd5b6000806020838503121561424d57600080fd5b823567ffffffffffffffff81111561426457600080fd5b614270858286016141f5565b90969095509350505050565b803562ffffff81168114613fa157600080fd5b8015158114611b0657600080fd5b600080604083850312156142b057600080fd5b6142b98361427c565b915060208301356142c98161428f565b809150509250929050565b60005b838110156142ef5781810151838201526020016142d7565b50506000910152565b60208152600082518060208401526143178160408501602087016142d4565b601f01601f19169190910160400192915050565b6000806000806040858703121561434157600080fd5b843567ffffffffffffffff8082111561435957600080fd5b614365888389016141f5565b9096509450602087013591508082111561437e57600080fd5b5061438b878288016141f5565b95989497509550505050565b80356001600160601b0381168114613fa157600080fd5b600080604083850312156143c157600080fd5b6143ca8361427c565b91506143d860208401614397565b90509250929050565b6000806000806000606086880312156143f957600080fd5b853567ffffffffffffffff8082111561441157600080fd5b61441d89838a016141f5565b9097509550602088013591508082111561443657600080fd5b50614443888289016141f5565b90945092505060408601356144578161428f565b809150509295509295909350565b60006020828403121561447757600080fd5b81356001600160a01b0381168114612b7157600080fd5b600080604083850312156144a157600080fd5b6142b983614397565b634e487b7160e01b600052603260045260246000fd5b634e487b7160e01b600052601160045260246000fd5b6000600182016144e8576144e86144c0565b5060010190565b8183526000602080850194508260005b858110156145295764ffffffffff614516836141c5565b16875295820195908201906001016144ff565b509495945050505050565b6020815260006140f86020830184866144ef565b600181815b80851115614583578160001904821115614569576145696144c0565b8085161561457657918102915b93841c939080029061454d565b509250929050565b60008261459a575060016127ab565b816145a7575060006127ab565b81600181146145bd57600281146145c7576145e3565b60019150506127ab565b60ff8411156145d8576145d86144c0565b50506001821b6127ab565b5060208310610133831016604e8410600b8410161715614606575081810a6127ab565b6146108383614548565b8060001904821115614624576146246144c0565b029392505050565b6000612b71838361458b565b80820281158282048414176127ab576127ab6144c0565b634e487b7160e01b600052601260045260246000fd5b6000826146745761467461464f565b500490565b60006020828403121561468b57600080fd5b8151612b718161428f565b62ffffff8281168282160390808211156146b2576146b26144c0565b5092915050565b6001600160601b038181168382160190808211156146b2576146b26144c0565b600083516146eb8184602088016142d4565b8351908301906146ff8183602088016142d4565b01949350505050565b62ffffff8181168382160190808211156146b2576146b26144c0565b60006020828403121561473657600080fd5b612b718261427c565b60006020828403121561475157600080fd5b612b7182614397565b60006001600160601b03808416806147745761477461464f565b92169190910692915050565b64ffffffffff8181168382160190808211156146b2576146b26144c0565b6040815260006147b26040830186886144ef565b8281036020848101919091528482528591810160005b868110156147f4576001600160601b036147e185614397565b16825292820192908201906001016147c8565b5098975050505050505050565b6001600160601b038281168282160390808211156146b2576146b26144c0565b6001600160601b03818116838216028082169190828114614844576148446144c0565b505092915050565b60006001600160601b03808416806148665761486661464f565b92169190910492915050565b818103818111156127ab576127ab6144c056fea264697066735822122051e4c994be83688346b198c8f59f7a98a88e1a4f38174292b255f68d3181e5ac64736f6c63430008110033",
  "linkReferences": {},
  "deployedLinkReferences": {}
}