{
  "_format": "hh-sol-artifact-1",
  "contractName": "CranklessOrderBook",
  "sourceName": "contracts/CranklessOrderBook.sol",
  "abi": [
    {
      "inputs": [
        {
          "internalType": "address",
          "name": "_baseAssetAddress",
          "type": "address"
        },
        {
          "internalType": "uint256",
          "name": "_baseAssetDecimals",
          "type": "uint256"
        },
        {
          "internalType": "address",
          "name": "_quoteAssetAddress",
          "type": "address"
        },
        {
          "internalType": "uint256",
          "name": "_quoteAssetDecimals",
          "type": "uint256"
        },
        {
          "internalType": "uint96",
          "name": "_sizePrecision",
          "type": "uint96"
        },
        {
          "internalType": "uint96",
          "name": "_pricePrecision",
          "type": "uint96"
        },
        {
          "internalType": "uint96",
          "name": "_tickSize",
          "type": "uint96"
        },
        {
          "internalType": "uint96",
          "name": "_minSize",
          "type": "uint96"
        },
        {
          "internalType": "uint96",
          "name": "_maxSize",
          "type": "uint96"
        },
        {
          "internalType": "uint256",
          "name": "_takerFeeBps",
          "type": "uint256"
        }
      ],
      "stateMutability": "nonpayable",
      "type": "constructor"
    },
    {
      "anonymous": false,
      "inputs": [
        {
          "indexed": false,
          "internalType": "address",
          "name": "takerAddress",
          "type": "address"
        },
        {
          "indexed": false,
          "internalType": "uint96",
          "name": "orderSize",
          "type": "uint96"
        },
        {
          "indexed": false,
          "internalType": "uint256[]",
          "name": "orderIds",
          "type": "uint256[]"
        },
        {
          "indexed": false,
          "internalType": "uint96[]",
          "name": "updatedSizes",
          "type": "uint96[]"
        }
      ],
      "name": "BuyIOC",
      "type": "event"
    },
    {
      "anonymous": false,
      "inputs": [
        {
          "indexed": false,
          "internalType": "uint8",
          "name": "version",
          "type": "uint8"
        }
      ],
      "name": "Initialized",
      "type": "event"
    },
    {
      "anonymous": false,
      "inputs": [
        {
          "indexed": false,
          "internalType": "uint256",
          "name": "orderId",
          "type": "uint256"
        },
        {
          "indexed": false,
          "internalType": "address",
          "name": "owner",
          "type": "address"
        },
        {
          "indexed": false,
          "internalType": "uint96",
          "name": "price",
          "type": "uint96"
        },
        {
          "indexed": false,
          "internalType": "uint96",
          "name": "size",
          "type": "uint96"
        },
        {
          "indexed": false,
          "internalType": "uint96",
          "name": "acceptableRange",
          "type": "uint96"
        },
        {
          "indexed": false,
          "internalType": "bool",
          "name": "isBuy",
          "type": "bool"
        }
      ],
      "name": "OrderCreated",
      "type": "event"
    },
    {
      "anonymous": false,
      "inputs": [
        {
          "indexed": false,
          "internalType": "uint256[]",
          "name": "orderId",
          "type": "uint256[]"
        }
      ],
      "name": "OrdersCanceled",
      "type": "event"
    },
    {
      "anonymous": false,
      "inputs": [
        {
          "indexed": false,
          "internalType": "uint256[]",
          "name": "orderIds",
          "type": "uint256[]"
        },
        {
          "indexed": false,
          "internalType": "uint96[]",
          "name": "updatedSizes",
          "type": "uint96[]"
        }
      ],
      "name": "OrdersUpdated",
      "type": "event"
    },
    {
      "anonymous": false,
      "inputs": [
        {
          "indexed": true,
          "internalType": "address",
          "name": "previousOwner",
          "type": "address"
        },
        {
          "indexed": true,
          "internalType": "address",
          "name": "newOwner",
          "type": "address"
        }
      ],
      "name": "OwnershipTransferred",
      "type": "event"
    },
    {
      "anonymous": false,
      "inputs": [
        {
          "indexed": false,
          "internalType": "address",
          "name": "takerAddress",
          "type": "address"
        },
        {
          "indexed": false,
          "internalType": "uint96",
          "name": "orderSize",
          "type": "uint96"
        },
        {
          "indexed": false,
          "internalType": "uint256[]",
          "name": "orderIds",
          "type": "uint256[]"
        },
        {
          "indexed": false,
          "internalType": "uint96[]",
          "name": "updatedSizes",
          "type": "uint96[]"
        }
      ],
      "name": "SellIOC",
      "type": "event"
    },
    {
      "inputs": [
        {
          "internalType": "uint96",
          "name": "_price",
          "type": "uint96"
        },
        {
          "internalType": "uint96",
          "name": "size",
          "type": "uint96"
        }
      ],
      "name": "addBuyOrder",
      "outputs": [],
      "stateMutability": "nonpayable",
      "type": "function"
    },
    {
      "inputs": [
        {
          "internalType": "uint96",
          "name": "_price",
          "type": "uint96"
        },
        {
          "internalType": "uint96",
          "name": "size",
          "type": "uint96"
        }
      ],
      "name": "addSellOrder",
      "outputs": [],
      "stateMutability": "nonpayable",
      "type": "function"
    },
    {
      "inputs": [
        {
          "internalType": "uint256[]",
          "name": "_orderIds",
          "type": "uint256[]"
        }
      ],
      "name": "batchCancelOrders",
      "outputs": [],
      "stateMutability": "nonpayable",
      "type": "function"
    },
    {
      "inputs": [
        {
          "internalType": "uint256[]",
          "name": "_orderIds",
          "type": "uint256[]"
        },
        {
          "internalType": "uint96[]",
          "name": "_updatedSizes",
          "type": "uint96[]"
        }
      ],
      "name": "decreaseOrders",
      "outputs": [],
      "stateMutability": "nonpayable",
      "type": "function"
    },
    {
      "inputs": [
        {
          "internalType": "address",
          "name": "_owner",
          "type": "address"
        }
      ],
      "name": "initialize",
      "outputs": [],
      "stateMutability": "nonpayable",
      "type": "function"
    },
    {
      "inputs": [],
      "name": "owner",
      "outputs": [
        {
          "internalType": "address",
          "name": "",
          "type": "address"
        }
      ],
      "stateMutability": "view",
      "type": "function"
    },
    {
      "inputs": [],
      "name": "pauseMarkets",
      "outputs": [],
      "stateMutability": "nonpayable",
      "type": "function"
    },
    {
      "inputs": [
        {
          "internalType": "uint256[]",
          "name": "c_order_ids",
          "type": "uint256[]"
        },
        {
          "internalType": "uint96",
          "name": "_quoteSize",
          "type": "uint96"
        },
        {
          "internalType": "uint96",
          "name": "_price",
          "type": "uint96"
        }
      ],
      "name": "placeAggressivelimitBuy",
      "outputs": [],
      "stateMutability": "nonpayable",
      "type": "function"
    },
    {
      "inputs": [
        {
          "internalType": "uint256[]",
          "name": "c_order_ids",
          "type": "uint256[]"
        },
        {
          "internalType": "uint96",
          "name": "_size",
          "type": "uint96"
        },
        {
          "internalType": "uint96",
          "name": "_price",
          "type": "uint96"
        }
      ],
      "name": "placeAggressivelimitSell",
      "outputs": [],
      "stateMutability": "nonpayable",
      "type": "function"
    },
    {
      "inputs": [
        {
          "internalType": "uint256[]",
          "name": "c_order_ids",
          "type": "uint256[]"
        },
        {
          "internalType": "uint96",
          "name": "_quoteSize",
          "type": "uint96"
        },
        {
          "internalType": "bool",
          "name": "_isFillOrKill",
          "type": "bool"
        }
      ],
      "name": "placeAndExecuteMarketBuy",
      "outputs": [
        {
          "internalType": "uint96",
          "name": "",
          "type": "uint96"
        }
      ],
      "stateMutability": "nonpayable",
      "type": "function"
    },
    {
      "inputs": [
        {
          "internalType": "uint256[]",
          "name": "c_order_ids",
          "type": "uint256[]"
        },
        {
          "internalType": "uint96",
          "name": "_size",
          "type": "uint96"
        },
        {
          "internalType": "bool",
          "name": "_isFillOrKill",
          "type": "bool"
        }
      ],
      "name": "placeAndExecuteMarketSell",
      "outputs": [
        {
          "internalType": "uint96",
          "name": "",
          "type": "uint96"
        }
      ],
      "stateMutability": "nonpayable",
      "type": "function"
    },
    {
      "inputs": [
        {
          "internalType": "uint96[]",
          "name": "_prices",
          "type": "uint96[]"
        },
        {
          "internalType": "uint96[]",
          "name": "_sizes",
          "type": "uint96[]"
        }
      ],
      "name": "placeMultipleBuyOrders",
      "outputs": [],
      "stateMutability": "nonpayable",
      "type": "function"
    },
    {
      "inputs": [
        {
          "internalType": "uint96[]",
          "name": "_prices",
          "type": "uint96[]"
        },
        {
          "internalType": "uint96[]",
          "name": "_sizes",
          "type": "uint96[]"
        }
      ],
      "name": "placeMultipleSellOrders",
      "outputs": [],
      "stateMutability": "nonpayable",
      "type": "function"
    },
    {
      "inputs": [],
      "name": "renounceOwnership",
      "outputs": [],
      "stateMutability": "nonpayable",
      "type": "function"
    },
    {
      "inputs": [
        {
          "internalType": "uint256[]",
          "name": "_orderIds",
          "type": "uint256[]"
        },
        {
          "internalType": "uint96[]",
          "name": "_prices",
          "type": "uint96[]"
        },
        {
          "internalType": "uint96[]",
          "name": "_sizes",
          "type": "uint96[]"
        }
      ],
      "name": "replaceOrders",
      "outputs": [],
      "stateMutability": "nonpayable",
      "type": "function"
    },
    {
      "inputs": [
        {
          "internalType": "uint256",
          "name": "",
          "type": "uint256"
        }
      ],
      "name": "s_buyPricePoints",
      "outputs": [
        {
          "internalType": "uint96",
          "name": "totalCompletedOrCanceledOrders",
          "type": "uint96"
        },
        {
          "internalType": "uint96",
          "name": "totalOrdersAtPrice",
          "type": "uint96"
        }
      ],
      "stateMutability": "view",
      "type": "function"
    },
    {
      "inputs": [],
      "name": "s_orderIdCounter",
      "outputs": [
        {
          "internalType": "uint256",
          "name": "",
          "type": "uint256"
        }
      ],
      "stateMutability": "view",
      "type": "function"
    },
    {
      "inputs": [
        {
          "internalType": "uint256",
          "name": "",
          "type": "uint256"
        }
      ],
      "name": "s_orders",
      "outputs": [
        {
          "internalType": "address",
          "name": "ownerAddress",
          "type": "address"
        },
        {
          "internalType": "uint96",
          "name": "price",
          "type": "uint96"
        },
        {
          "internalType": "uint96",
          "name": "size",
          "type": "uint96"
        },
        {
          "internalType": "uint96",
          "name": "acceptableRange",
          "type": "uint96"
        },
        {
          "internalType": "bool",
          "name": "isBuy",
          "type": "bool"
        }
      ],
      "stateMutability": "view",
      "type": "function"
    },
    {
      "inputs": [
        {
          "internalType": "uint256",
          "name": "",
          "type": "uint256"
        }
      ],
      "name": "s_sellPricePoints",
      "outputs": [
        {
          "internalType": "uint96",
          "name": "totalCompletedOrCanceledOrders",
          "type": "uint96"
        },
        {
          "internalType": "uint96",
          "name": "totalOrdersAtPrice",
          "type": "uint96"
        }
      ],
      "stateMutability": "view",
      "type": "function"
    },
    {
      "inputs": [
        {
          "internalType": "address",
          "name": "newOwner",
          "type": "address"
        }
      ],
      "name": "transferOwnership",
      "outputs": [],
      "stateMutability": "nonpayable",
      "type": "function"
    }
  ],
  "bytecode": "0x6101c06040523480156200001257600080fd5b506040516200595c3803806200595c833981810160405281019062000038919062000284565b898989898989898989898973ffffffffffffffffffffffffffffffffffffffff166101408173ffffffffffffffffffffffffffffffffffffffff16815250508773ffffffffffffffffffffffffffffffffffffffff166101608173ffffffffffffffffffffffffffffffffffffffff1681525050886101808181525050866101a08181525050856bffffffffffffffffffffffff166080816bffffffffffffffffffffffff1681525050846bffffffffffffffffffffffff1660a0816bffffffffffffffffffffffff1681525050836bffffffffffffffffffffffff1660c0816bffffffffffffffffffffffff1681525050826bffffffffffffffffffffffff1660e0816bffffffffffffffffffffffff1681525050816bffffffffffffffffffffffff16610100816bffffffffffffffffffffffff168152505080610120818152505050505050505050505050505050505050505050506200037a565b600080fd5b600073ffffffffffffffffffffffffffffffffffffffff82169050919050565b6000620001c8826200019b565b9050919050565b620001da81620001bb565b8114620001e657600080fd5b50565b600081519050620001fa81620001cf565b92915050565b6000819050919050565b620002158162000200565b81146200022157600080fd5b50565b60008151905062000235816200020a565b92915050565b60006bffffffffffffffffffffffff82169050919050565b6200025e816200023b565b81146200026a57600080fd5b50565b6000815190506200027e8162000253565b92915050565b6000806000806000806000806000806101408b8d031215620002ab57620002aa62000196565b5b6000620002bb8d828e01620001e9565b9a50506020620002ce8d828e0162000224565b9950506040620002e18d828e01620001e9565b9850506060620002f48d828e0162000224565b9750506080620003078d828e016200026d565b96505060a06200031a8d828e016200026d565b95505060c06200032d8d828e016200026d565b94505060e0620003408d828e016200026d565b935050610100620003548d828e016200026d565b925050610120620003688d828e0162000224565b9150509295989b9194979a5092959850565b60805160a05160c05160e05161010051610120516101405161016051610180516101a05161540f6200054d60003960008181610e32015281816111a8015281816116f901528181611b7501528181611c6f0152818161270001528181613158015281816136fb0152613b5201526000818161069301528181611e92015281816122680152818161257c0152818161331401526138bf015260008181610d960152818161124a015281816115450152818161181401528181611a230152818161262e015281816130b9015261365c01526000818161062601528181611ace01528181611e25015281816121d801528181612510015281816132a4015261384f015260008181611b4701526126d20152600081816104cf0152610c3f0152600081816104510152610bc101526000818161054f0152610cbf015260008181610e030152818161117901528181611c9c0152818161266e01528181613129015281816136cc0152613b1901526000818161066401528181610dd4015281816110cc0152818161175b01528181611b0e01528181611e63015281816122390152818161254d0152818161268f015281816130fa015281816132e50152818161369d015281816138900152613af8015261540f6000f3fe608060405234801561001057600080fd5b506004361061012c5760003560e01c8063715018a6116100ad578063a6f3c50f11610071578063a6f3c50f146102f2578063b5d96c0714610326578063c4d66de814610342578063e6d29b511461035e578063f2fde38b1461038f5761012c565b8063715018a61461024e5780637329a524146102585780637d4feb72146102885780637f83a738146102a45780638da5cb5b146102d45761012c565b8063376eafbe116100f4578063376eafbe146101c25780633e2b88cf146101de57806342d09314146101fa57806362228fd7146102165780636c187e14146102325761012c565b80630e2e2ffe1461013157806312688036146101625780631c4f3f311461017e57806320f2f2a0146101885780632bf1360e146101a4575b600080fd5b61014b60048036038101906101469190613cd8565b6103ab565b604051610159929190613d2c565b60405180910390f35b61017c60048036038101906101779190613d81565b6103ff565b005b610186610798565b005b6101a2600480360381019061019d9190613e7c565b6107bd565b005b6101ac6108bc565b6040516101b99190613f0c565b60405180910390f35b6101dc60048036038101906101d79190613f27565b6108c2565b005b6101f860048036038101906101f39190613fa8565b6109da565b005b610214600480360381019061020f9190613d81565b610b6f565b005b610230600480360381019061022b9190613f27565b610f4c565b005b61024c6004803603810190610247919061405c565b611064565b005b61025661110c565b005b610272600480360381019061026d9190614108565b611120565b60405161027f919061417c565b60405180910390f35b6102a2600480360381019061029d9190614197565b611cf7565b005b6102be60048036038101906102b99190614108565b611d79565b6040516102cb919061417c565b60405180910390f35b6102dc612804565b6040516102e99190614225565b60405180910390f35b61030c60048036038101906103079190613cd8565b61282e565b60405161031d95949392919061424f565b60405180910390f35b610340600480360381019061033b919061405c565b6128d9565b005b61035c600480360381019061035791906142ce565b61294b565b005b61037860048036038101906103739190613cd8565b612a93565b604051610386929190613d2c565b60405180910390f35b6103a960048036038101906103a491906142ce565b612ae7565b005b60676020528060005260406000206000915090508060000160009054906101000a90046bffffffffffffffffffffffff169080600001600c9054906101000a90046bffffffffffffffffffffffff16905082565b606960009054906101000a900460ff161561044f576040517f08c379a000000000000000000000000000000000000000000000000000000000815260040161044690614358565b60405180910390fd5b7f00000000000000000000000000000000000000000000000000000000000000006bffffffffffffffffffffffff16816bffffffffffffffffffffffff16116104cd576040517f08c379a00000000000000000000000000000000000000000000000000000000081526004016104c4906143c4565b60405180910390fd5b7f00000000000000000000000000000000000000000000000000000000000000006bffffffffffffffffffffffff16816bffffffffffffffffffffffff161061054b576040517f08c379a000000000000000000000000000000000000000000000000000000000815260040161054290614430565b60405180910390fd5b60007f000000000000000000000000000000000000000000000000000000000000000083610579919061447f565b6bffffffffffffffffffffffff16146105c7576040517f08c379a00000000000000000000000000000000000000000000000000000000081526004016105be906144fc565b60405180910390fd5b600060685490506001816105db919061454b565b606881905550600060676000856bffffffffffffffffffffffff1681526020019081526020016000209050600061062282868660018761061b919061454b565b6000612b6a565b90507f000000000000000000000000000000000000000000000000000000000000000073ffffffffffffffffffffffffffffffffffffffff166323b872dd33307f00000000000000000000000000000000000000000000000000000000000000006bffffffffffffffffffffffff167f0000000000000000000000000000000000000000000000000000000000000000600a6106be91906146b2565b896bffffffffffffffffffffffff166106d791906146fd565b6106e1919061473f565b6040518463ffffffff1660e01b81526004016106ff93929190614770565b6020604051808303816000875af115801561071e573d6000803e3d6000fd5b505050506040513d601f19601f8201168201806040525081019061074291906147bc565b507f93927ad8d658dbc8c08e67cf326f896a036205cf0cf8455057e23bfd5499c1f8600184610771919061454b565b338787856000604051610789969594939291906147e9565b60405180910390a15050505050565b6107a0612d7d565b6001606960006101000a81548160ff021916908315150217905550565b606960009054906101000a900460ff161561080d576040517f08c379a000000000000000000000000000000000000000000000000000000000815260040161080490614358565b60405180910390fd5b60005b84849050811015610878576108658585838181106108315761083061484a565b5b9050602002013584848481811061084b5761084a61484a565b5b90506020020160208101906108609190614879565b612dfb565b8080610870906148a6565b915050610810565b507f4c9a2e211e1781e9465df93599a5ddb216177b8249c5e8557219425061bf79f4848484846040516108ae9493929190614a2c565b60405180910390a150505050565b60685481565b606960009054906101000a900460ff1615610912576040517f08c379a000000000000000000000000000000000000000000000000000000000815260040161090990614358565b60405180910390fd5b81819050848490501461095a576040517f08c379a000000000000000000000000000000000000000000000000000000000815260040161095190614ad9565b60405180910390fd5b60005b848490508110156109d3576109c085858381811061097e5761097d61484a565b5b90506020020160208101906109939190614879565b8484848181106109a6576109a561484a565b5b90506020020160208101906109bb9190614879565b610b6f565b80806109cb906148a6565b91505061095d565b5050505050565b606960009054906101000a900460ff1615610a2a576040517f08c379a0000000000000000000000000000000000000000000000000000000008152600401610a2190614358565b60405180910390fd5b60005b86869050811015610b2d576000610a5c888884818110610a5057610a4f61484a565b5b9050602002013561340f565b905080610ac057610abb868684818110610a7957610a7861484a565b5b9050602002016020810190610a8e9190614879565b858585818110610aa157610aa061484a565b5b9050602002016020810190610ab69190614879565b6103ff565b610b19565b610b18868684818110610ad657610ad561484a565b5b9050602002016020810190610aeb9190614879565b858585818110610afe57610afd61484a565b5b9050602002016020810190610b139190614879565b610b6f565b5b508080610b25906148a6565b915050610a2d565b507fb8c1b83991eb85b78cace86a669b42c9710ba0ae7cc785851d03cd1c37b5c4738686604051610b5f929190614af9565b60405180910390a1505050505050565b606960009054906101000a900460ff1615610bbf576040517f08c379a0000000000000000000000000000000000000000000000000000000008152600401610bb690614358565b60405180910390fd5b7f00000000000000000000000000000000000000000000000000000000000000006bffffffffffffffffffffffff16816bffffffffffffffffffffffff1611610c3d576040517f08c379a0000000000000000000000000000000000000000000000000000000008152600401610c34906143c4565b60405180910390fd5b7f00000000000000000000000000000000000000000000000000000000000000006bffffffffffffffffffffffff16816bffffffffffffffffffffffff1610610cbb576040517f08c379a0000000000000000000000000000000000000000000000000000000008152600401610cb290614430565b60405180910390fd5b60007f000000000000000000000000000000000000000000000000000000000000000083610ce9919061447f565b6bffffffffffffffffffffffff1614610d37576040517f08c379a0000000000000000000000000000000000000000000000000000000008152600401610d2e906144fc565b60405180910390fd5b60006068549050600181610d4b919061454b565b606881905550600060666000856bffffffffffffffffffffffff16815260200190815260200160002090506000610d92828686600187610d8b919061454b565b6001612b6a565b90507f000000000000000000000000000000000000000000000000000000000000000073ffffffffffffffffffffffffffffffffffffffff166323b872dd33307f00000000000000000000000000000000000000000000000000000000000000006bffffffffffffffffffffffff167f00000000000000000000000000000000000000000000000000000000000000006bffffffffffffffffffffffff167f0000000000000000000000000000000000000000000000000000000000000000600a610e5d91906146b2565b8b8b610e699190614b1d565b6bffffffffffffffffffffffff16610e8191906146fd565b610e8b919061473f565b610e95919061473f565b6040518463ffffffff1660e01b8152600401610eb393929190614770565b6020604051808303816000875af1158015610ed2573d6000803e3d6000fd5b505050506040513d601f19601f82011682018060405250810190610ef691906147bc565b507f93927ad8d658dbc8c08e67cf326f896a036205cf0cf8455057e23bfd5499c1f8600184610f25919061454b565b338787856001604051610f3d969594939291906147e9565b60405180910390a15050505050565b606960009054906101000a900460ff1615610f9c576040517f08c379a0000000000000000000000000000000000000000000000000000000008152600401610f9390614358565b60405180910390fd5b818190508484905014610fe4576040517f08c379a0000000000000000000000000000000000000000000000000000000008152600401610fdb90614ad9565b60405180910390fd5b60005b8484905081101561105d5761104a8585838181106110085761100761484a565b5b905060200201602081019061101d9190614879565b8484848181106110305761102f61484a565b5b90506020020160208101906110459190614879565b6103ff565b8080611055906148a6565b915050610fe7565b5050505050565b606960009054906101000a900460ff16156110b4576040517f08c379a00000000000000000000000000000000000000000000000000000000081526004016110ab90614358565b60405180910390fd5b60006110c38585856000611120565b905061110582837f0000000000000000000000000000000000000000000000000000000000000000846110f69190614b1d565b6111009190614b5a565b610b6f565b5050505050565b611114612d7d565b61111e6000613a2e565b565b6000606960009054906101000a900460ff1615611172576040517f08c379a000000000000000000000000000000000000000000000000000000000815260040161116990614358565b60405180910390fd5b60008060007f00000000000000000000000000000000000000000000000000000000000000006bffffffffffffffffffffffff167f0000000000000000000000000000000000000000000000000000000000000000600a6111d391906146b2565b876bffffffffffffffffffffffff166111ec91906146fd565b6111f6919061473f565b905060008888905067ffffffffffffffff81111561121757611216614b8b565b5b6040519080825280602002602001820160405280156112455781602001602082028036833780820191505090505b5090507f000000000000000000000000000000000000000000000000000000000000000073ffffffffffffffffffffffffffffffffffffffff166323b872dd3330856040518463ffffffff1660e01b81526004016112a593929190614770565b6020604051808303816000875af11580156112c4573d6000803e3d6000fd5b505050506040513d601f19601f820116820180604052508101906112e891906147bc565b5060005b89899050811080156112fd57508285105b156119d7576000606560008c8c8581811061131b5761131a61484a565b5b90506020020135815260200190815260200160002090506000606760008360000160149054906101000a90046bffffffffffffffffffffffff166bffffffffffffffffffffffff16815260200190815260200160002090508160010160189054906101000a900460ff16156113c5576040517f08c379a00000000000000000000000000000000000000000000000000000000081526004016113bc90614c2c565b60405180910390fd5b8060000160009054906101000a90046bffffffffffffffffffffffff166bffffffffffffffffffffffff1682600101600c9054906101000a90046bffffffffffffffffffffffff166bffffffffffffffffffffffff16111561145c576040517f08c379a000000000000000000000000000000000000000000000000000000000815260040161145390614c98565b60405180910390fd5b60006114a08360010160009054906101000a90046bffffffffffffffffffffffff168460000160149054906101000a90046bffffffffffffffffffffffff16613af4565b9050600088876114b09190614cb8565b905060008183116114c157826114c3565b815b9050808a6114d1919061454b565b99508281036116f5578460010160009054906101000a90046bffffffffffffffffffffffff16896115029190614cec565b985060008787815181106115195761151861484a565b5b60200260200101906bffffffffffffffffffffffff1690816bffffffffffffffffffffffff16815250507f000000000000000000000000000000000000000000000000000000000000000073ffffffffffffffffffffffffffffffffffffffff1663a9059cbb8660000160009054906101000a900473ffffffffffffffffffffffffffffffffffffffff166115e68860010160009054906101000a90046bffffffffffffffffffffffff168960000160149054906101000a90046bffffffffffffffffffffffff16613af4565b6040518363ffffffff1660e01b8152600401611603929190614d2c565b6020604051808303816000875af1158015611622573d6000803e3d6000fd5b505050506040513d601f19601f8201168201806040525081019061164691906147bc565b508460010160009054906101000a90046bffffffffffffffffffffffff168460000160008282829054906101000a90046bffffffffffffffffffffffff1661168e9190614cec565b92506101000a8154816bffffffffffffffffffffffff02191690836bffffffffffffffffffffffff16021790555060008560010160006101000a8154816bffffffffffffffffffffffff02191690836bffffffffffffffffffffffff1602179055506119ae565b60007f0000000000000000000000000000000000000000000000000000000000000000600a61172491906146b2565b8660000160149054906101000a90046bffffffffffffffffffffffff166bffffffffffffffffffffffff1661175991906146fd565b7f00000000000000000000000000000000000000000000000000000000000000006bffffffffffffffffffffffff168361179391906146fd565b61179d919061473f565b9050808a6117ab9190614cec565b9950808660000160149054906101000a90046bffffffffffffffffffffffff166117d59190614d55565b8888815181106117e8576117e761484a565b5b60200260200101906bffffffffffffffffffffffff1690816bffffffffffffffffffffffff16815250507f000000000000000000000000000000000000000000000000000000000000000073ffffffffffffffffffffffffffffffffffffffff1663a9059cbb8760000160009054906101000a900473ffffffffffffffffffffffffffffffffffffffff16611899848a60000160149054906101000a90046bffffffffffffffffffffffff16613af4565b6040518363ffffffff1660e01b81526004016118b6929190614d2c565b6020604051808303816000875af11580156118d5573d6000803e3d6000fd5b505050506040513d601f19601f820116820180604052508101906118f991906147bc565b50808560000160008282829054906101000a90046bffffffffffffffffffffffff166119259190614cec565b92506101000a8154816bffffffffffffffffffffffff02191690836bffffffffffffffffffffffff160217905550808660010160008282829054906101000a90046bffffffffffffffffffffffff1661197e9190614d55565b92506101000a8154816bffffffffffffffffffffffff02191690836bffffffffffffffffffffffff160217905550505b878a036119bf5750505050506119d7565b505050505080806119cf906148a6565b9150506112ec565b5081841015611acc578515611a21576040517f08c379a0000000000000000000000000000000000000000000000000000000008152600401611a1890614e07565b60405180910390fd5b7f000000000000000000000000000000000000000000000000000000000000000073ffffffffffffffffffffffffffffffffffffffff1663a9059cbb338685611a6a9190614cb8565b6040518363ffffffff1660e01b8152600401611a87929190614d2c565b6020604051808303816000875af1158015611aa6573d6000803e3d6000fd5b505050506040513d601f19601f82011682018060405250810190611aca91906147bc565b505b7f000000000000000000000000000000000000000000000000000000000000000073ffffffffffffffffffffffffffffffffffffffff1663a9059cbb336127107f00000000000000000000000000000000000000000000000000000000000000006bffffffffffffffffffffffff16611b4591906146fd565b7f0000000000000000000000000000000000000000000000000000000000000000612710611b739190614cb8565b7f0000000000000000000000000000000000000000000000000000000000000000600a611ba091906146b2565b886bffffffffffffffffffffffff16611bb991906146fd565b611bc391906146fd565b611bcd919061473f565b6040518363ffffffff1660e01b8152600401611bea929190614d2c565b6020604051808303816000875af1158015611c09573d6000803e3d6000fd5b505050506040513d601f19601f82011682018060405250810190611c2d91906147bc565b507ff559c58769390d51395ab27a7a1bfe0986fd32ce4ce952634776410214d4a7d833848b8b85604051611c65959493929190614ead565b60405180910390a17f0000000000000000000000000000000000000000000000000000000000000000600a611c9a91906146b2565b7f00000000000000000000000000000000000000000000000000000000000000006bffffffffffffffffffffffff168584611cd59190614cb8565b611cdf91906146fd565b611ce9919061473f565b945050505050949350505050565b60005b82829050811015611d3b57611d27838383818110611d1b57611d1a61484a565b5b9050602002013561340f565b508080611d33906148a6565b915050611cfa565b507fb8c1b83991eb85b78cace86a669b42c9710ba0ae7cc785851d03cd1c37b5c4738282604051611d6d929190614af9565b60405180910390a15050565b6000606960009054906101000a900460ff1615611dcb576040517f08c379a0000000000000000000000000000000000000000000000000000000008152600401611dc290614358565b60405180910390fd5b600083905060008060008888905067ffffffffffffffff811115611df257611df1614b8b565b5b604051908082528060200260200182016040528015611e205781602001602082028036833780820191505090505b5090507f000000000000000000000000000000000000000000000000000000000000000073ffffffffffffffffffffffffffffffffffffffff166323b872dd33307f00000000000000000000000000000000000000000000000000000000000000006bffffffffffffffffffffffff167f0000000000000000000000000000000000000000000000000000000000000000600a611ebd91906146b2565b8c6bffffffffffffffffffffffff16611ed691906146fd565b611ee0919061473f565b6040518463ffffffff1660e01b8152600401611efe93929190614770565b6020604051808303816000875af1158015611f1d573d6000803e3d6000fd5b505050506040513d601f19601f82011682018060405250810190611f4191906147bc565b50600092505b8888905083108015611f6757506000876bffffffffffffffffffffffff16115b156124b6576000606560008b8b87818110611f8557611f8461484a565b5b90506020020135815260200190815260200160002090506000606660008360000160149054906101000a90046bffffffffffffffffffffffff166bffffffffffffffffffffffff16815260200190815260200160002090508160010160189054906101000a900460ff1661202e576040517f08c379a000000000000000000000000000000000000000000000000000000000815260040161202590614f74565b60405180910390fd5b8060000160009054906101000a90046bffffffffffffffffffffffff166bffffffffffffffffffffffff1682600101600c9054906101000a90046bffffffffffffffffffffffff166bffffffffffffffffffffffff1611156120c5576040517f08c379a00000000000000000000000000000000000000000000000000000000081526004016120bc90614c98565b60405180910390fd5b6000896bffffffffffffffffffffffff168360010160009054906101000a90046bffffffffffffffffffffffff166bffffffffffffffffffffffff1611612128578260010160009054906101000a90046bffffffffffffffffffffffff1661212a565b895b90508260000160149054906101000a90046bffffffffffffffffffffffff16816121549190614b1d565b6bffffffffffffffffffffffff168561216d919061454b565b9450808a61217b9190614d55565b9950808260000160008282829054906101000a90046bffffffffffffffffffffffff166121a89190614cec565b92506101000a8154816bffffffffffffffffffffffff02191690836bffffffffffffffffffffffff1602179055507f000000000000000000000000000000000000000000000000000000000000000073ffffffffffffffffffffffffffffffffffffffff1663a9059cbb8460000160009054906101000a900473ffffffffffffffffffffffffffffffffffffffff167f00000000000000000000000000000000000000000000000000000000000000006bffffffffffffffffffffffff167f0000000000000000000000000000000000000000000000000000000000000000600a61229391906146b2565b856bffffffffffffffffffffffff166122ac91906146fd565b6122b6919061473f565b6040518363ffffffff1660e01b81526004016122d3929190614d2c565b6020604051808303816000875af11580156122f2573d6000803e3d6000fd5b505050506040513d601f19601f8201168201806040525081019061231691906147bc565b508260010160009054906101000a90046bffffffffffffffffffffffff166bffffffffffffffffffffffff16816bffffffffffffffffffffffff16036123ce5760008360010160006101000a8154816bffffffffffffffffffffffff02191690836bffffffffffffffffffffffff160217905550600084878151811061239f5761239e61484a565b5b60200260200101906bffffffffffffffffffffffff1690816bffffffffffffffffffffffff1681525050612482565b808360010160008282829054906101000a90046bffffffffffffffffffffffff166123f99190614d55565b92506101000a8154816bffffffffffffffffffffffff02191690836bffffffffffffffffffffffff1602179055508260010160009054906101000a90046bffffffffffffffffffffffff168487815181106124575761245661484a565b5b60200260200101906bffffffffffffffffffffffff1690816bffffffffffffffffffffffff16815250505b60008a6bffffffffffffffffffffffff16036124a0575050506124b6565b50505082806124ae906148a6565b935050611f47565b6000876bffffffffffffffffffffffff16111561262c57851561250e576040517f08c379a000000000000000000000000000000000000000000000000000000000815260040161250590614e07565b60405180910390fd5b7f000000000000000000000000000000000000000000000000000000000000000073ffffffffffffffffffffffffffffffffffffffff1663a9059cbb337f00000000000000000000000000000000000000000000000000000000000000006bffffffffffffffffffffffff167f0000000000000000000000000000000000000000000000000000000000000000600a6125a791906146b2565b8b6bffffffffffffffffffffffff166125c091906146fd565b6125ca919061473f565b6040518363ffffffff1660e01b81526004016125e7929190614d2c565b6020604051808303816000875af1158015612606573d6000803e3d6000fd5b505050506040513d601f19601f8201168201806040525081019061262a91906147bc565b505b7f000000000000000000000000000000000000000000000000000000000000000073ffffffffffffffffffffffffffffffffffffffff1663a9059cbb336127107f00000000000000000000000000000000000000000000000000000000000000007f00000000000000000000000000000000000000000000000000000000000000006126b89190614b1d565b6bffffffffffffffffffffffff166126d091906146fd565b7f00000000000000000000000000000000000000000000000000000000000000006127106126fe9190614cb8565b7f0000000000000000000000000000000000000000000000000000000000000000600a61272b91906146b2565b8761273691906146fd565b61274091906146fd565b61274a919061473f565b6040518363ffffffff1660e01b8152600401612767929190614d2c565b6020604051808303816000875af1158015612786573d6000803e3d6000fd5b505050506040513d601f19601f820116820180604052508101906127aa91906147bc565b507f88226d7fc6d200230bf93c10357e9c66ee9f56d663054e49303daaad5d3636233388866127d99190614d55565b8b8b856040516127ed959493929190614ead565b60405180910390a186945050505050949350505050565b6000603360009054906101000a900473ffffffffffffffffffffffffffffffffffffffff16905090565b60656020528060005260406000206000915090508060000160009054906101000a900473ffffffffffffffffffffffffffffffffffffffff16908060000160149054906101000a90046bffffffffffffffffffffffff16908060010160009054906101000a90046bffffffffffffffffffffffff169080600101600c9054906101000a90046bffffffffffffffffffffffff16908060010160189054906101000a900460ff16905085565b606960009054906101000a900460ff1615612929576040517f08c379a000000000000000000000000000000000000000000000000000000000815260040161292090614358565b60405180910390fd5b60006129388585856000611d79565b905061294482826103ff565b5050505050565b60008060019054906101000a900460ff1615905080801561297c5750600160008054906101000a900460ff1660ff16105b806129a9575061298b30613bb3565b1580156129a85750600160008054906101000a900460ff1660ff16145b5b6129e8576040517f08c379a00000000000000000000000000000000000000000000000000000000081526004016129df90615006565b60405180910390fd5b60016000806101000a81548160ff021916908360ff1602179055508015612a25576001600060016101000a81548160ff0219169083151502179055505b612a2d613bd6565b612a3682613a2e565b8015612a8f5760008060016101000a81548160ff0219169083151502179055507f7f26b83ff96e1f2b6a682f133852f6798a09c465da95921460cefb38474024986001604051612a869190615078565b60405180910390a15b5050565b60666020528060005260406000206000915090508060000160009054906101000a90046bffffffffffffffffffffffff169080600001600c9054906101000a90046bffffffffffffffffffffffff16905082565b612aef612d7d565b600073ffffffffffffffffffffffffffffffffffffffff168173ffffffffffffffffffffffffffffffffffffffff1603612b5e576040517f08c379a0000000000000000000000000000000000000000000000000000000008152600401612b5590615105565b60405180910390fd5b612b6781613a2e565b50565b60008086600001600c9054906101000a90046bffffffffffffffffffffffff1690506040518060a001604052803373ffffffffffffffffffffffffffffffffffffffff168152602001876bffffffffffffffffffffffff168152602001866bffffffffffffffffffffffff168152602001826bffffffffffffffffffffffff1681526020018415158152506065600086815260200190815260200160002060008201518160000160006101000a81548173ffffffffffffffffffffffffffffffffffffffff021916908373ffffffffffffffffffffffffffffffffffffffff16021790555060208201518160000160146101000a8154816bffffffffffffffffffffffff02191690836bffffffffffffffffffffffff16021790555060408201518160010160006101000a8154816bffffffffffffffffffffffff02191690836bffffffffffffffffffffffff160217905550606082015181600101600c6101000a8154816bffffffffffffffffffffffff02191690836bffffffffffffffffffffffff16021790555060808201518160010160186101000a81548160ff0219169083151502179055509050508487600001600c8282829054906101000a90046bffffffffffffffffffffffff16612d429190614cec565b92506101000a8154816bffffffffffffffffffffffff02191690836bffffffffffffffffffffffff1602179055508091505095945050505050565b612d85613c2f565b73ffffffffffffffffffffffffffffffffffffffff16612da3612804565b73ffffffffffffffffffffffffffffffffffffffff1614612df9576040517f08c379a0000000000000000000000000000000000000000000000000000000008152600401612df090615171565b60405180910390fd5b565b6000606560008481526020019081526020016000206040518060a00160405290816000820160009054906101000a900473ffffffffffffffffffffffffffffffffffffffff1673ffffffffffffffffffffffffffffffffffffffff1673ffffffffffffffffffffffffffffffffffffffff1681526020016000820160149054906101000a90046bffffffffffffffffffffffff166bffffffffffffffffffffffff166bffffffffffffffffffffffff1681526020016001820160009054906101000a90046bffffffffffffffffffffffff166bffffffffffffffffffffffff166bffffffffffffffffffffffff16815260200160018201600c9054906101000a90046bffffffffffffffffffffffff166bffffffffffffffffffffffff166bffffffffffffffffffffffff1681526020016001820160189054906101000a900460ff1615151515815250509050806000015173ffffffffffffffffffffffffffffffffffffffff163373ffffffffffffffffffffffffffffffffffffffff1614612fba576040517f08c379a0000000000000000000000000000000000000000000000000000000008152600401612fb190615203565b60405180910390fd5b816bffffffffffffffffffffffff1681604001516bffffffffffffffffffffffff161161301c576040517f08c379a000000000000000000000000000000000000000000000000000000000815260040161301390615295565b60405180910390fd5b600082826040015161302e9190614d55565b905081608001511561322557806066600084602001516bffffffffffffffffffffffff16815260200190815260200160002060000160008282829054906101000a90046bffffffffffffffffffffffff166130899190614cec565b92506101000a8154816bffffffffffffffffffffffff02191690836bffffffffffffffffffffffff1602179055507f000000000000000000000000000000000000000000000000000000000000000073ffffffffffffffffffffffffffffffffffffffff1663a9059cbb83600001517f00000000000000000000000000000000000000000000000000000000000000006bffffffffffffffffffffffff167f00000000000000000000000000000000000000000000000000000000000000006bffffffffffffffffffffffff167f0000000000000000000000000000000000000000000000000000000000000000600a61318391906146b2565b8760200151876131939190614b1d565b6bffffffffffffffffffffffff166131ab91906146fd565b6131b5919061473f565b6131bf919061473f565b6040518363ffffffff1660e01b81526004016131dc929190614d2c565b6020604051808303816000875af11580156131fb573d6000803e3d6000fd5b505050506040513d601f19601f8201168201806040525081019061321f91906147bc565b506133c4565b806067600084602001516bffffffffffffffffffffffff16815260200190815260200160002060000160008282829054906101000a90046bffffffffffffffffffffffff166132749190614cec565b92506101000a8154816bffffffffffffffffffffffff02191690836bffffffffffffffffffffffff1602179055507f000000000000000000000000000000000000000000000000000000000000000073ffffffffffffffffffffffffffffffffffffffff1663a9059cbb83600001517f00000000000000000000000000000000000000000000000000000000000000006bffffffffffffffffffffffff167f0000000000000000000000000000000000000000000000000000000000000000600a61333f91906146b2565b856bffffffffffffffffffffffff1661335891906146fd565b613362919061473f565b6040518363ffffffff1660e01b815260040161337f929190614d2c565b6020604051808303816000875af115801561339e573d6000803e3d6000fd5b505050506040513d601f19601f820116820180604052508101906133c291906147bc565b505b826065600086815260200190815260200160002060010160006101000a8154816bffffffffffffffffffffffff02191690836bffffffffffffffffffffffff16021790555050505050565b600080606560008481526020019081526020016000206040518060a00160405290816000820160009054906101000a900473ffffffffffffffffffffffffffffffffffffffff1673ffffffffffffffffffffffffffffffffffffffff1673ffffffffffffffffffffffffffffffffffffffff1681526020016000820160149054906101000a90046bffffffffffffffffffffffff166bffffffffffffffffffffffff166bffffffffffffffffffffffff1681526020016001820160009054906101000a90046bffffffffffffffffffffffff166bffffffffffffffffffffffff166bffffffffffffffffffffffff16815260200160018201600c9054906101000a90046bffffffffffffffffffffffff166bffffffffffffffffffffffff166bffffffffffffffffffffffff1681526020016001820160189054906101000a900460ff1615151515815250509050806000015173ffffffffffffffffffffffffffffffffffffffff163373ffffffffffffffffffffffffffffffffffffffff16146135cf576040517f08c379a00000000000000000000000000000000000000000000000000000000081526004016135c690615327565b60405180910390fd5b8060800151156137cc5780604001516066600083602001516bffffffffffffffffffffffff16815260200190815260200160002060000160008282829054906101000a90046bffffffffffffffffffffffff1661362c9190614cec565b92506101000a8154816bffffffffffffffffffffffff02191690836bffffffffffffffffffffffff1602179055507f000000000000000000000000000000000000000000000000000000000000000073ffffffffffffffffffffffffffffffffffffffff1663a9059cbb82600001517f00000000000000000000000000000000000000000000000000000000000000006bffffffffffffffffffffffff167f00000000000000000000000000000000000000000000000000000000000000006bffffffffffffffffffffffff167f0000000000000000000000000000000000000000000000000000000000000000600a61372691906146b2565b8660200151876040015161373a9190614b1d565b6bffffffffffffffffffffffff1661375291906146fd565b61375c919061473f565b613766919061473f565b6040518363ffffffff1660e01b8152600401613783929190614d2c565b6020604051808303816000875af11580156137a2573d6000803e3d6000fd5b505050506040513d601f19601f820116820180604052508101906137c691906147bc565b50613973565b80604001516067600083602001516bffffffffffffffffffffffff16815260200190815260200160002060000160008282829054906101000a90046bffffffffffffffffffffffff1661381f9190614cec565b92506101000a8154816bffffffffffffffffffffffff02191690836bffffffffffffffffffffffff1602179055507f000000000000000000000000000000000000000000000000000000000000000073ffffffffffffffffffffffffffffffffffffffff1663a9059cbb82600001517f00000000000000000000000000000000000000000000000000000000000000006bffffffffffffffffffffffff167f0000000000000000000000000000000000000000000000000000000000000000600a6138ea91906146b2565b85604001516bffffffffffffffffffffffff1661390791906146fd565b613911919061473f565b6040518363ffffffff1660e01b815260040161392e929190614d2c565b6020604051808303816000875af115801561394d573d6000803e3d6000fd5b505050506040513d601f19601f8201168201806040525081019061397191906147bc565b505b60656000848152602001908152602001600020600080820160006101000a81549073ffffffffffffffffffffffffffffffffffffffff02191690556000820160146101000a8154906bffffffffffffffffffffffff02191690556001820160006101000a8154906bffffffffffffffffffffffff021916905560018201600c6101000a8154906bffffffffffffffffffffffff02191690556001820160186101000a81549060ff021916905550508060800151915050919050565b6000603360009054906101000a900473ffffffffffffffffffffffffffffffffffffffff16905081603360006101000a81548173ffffffffffffffffffffffffffffffffffffffff021916908373ffffffffffffffffffffffffffffffffffffffff1602179055508173ffffffffffffffffffffffffffffffffffffffff168173ffffffffffffffffffffffffffffffffffffffff167f8be0079c531659141344cd1fd0a4f28419497f9722a3daafe3b4186f6b6457e060405160405180910390a35050565b60007f00000000000000000000000000000000000000000000000000000000000000007f0000000000000000000000000000000000000000000000000000000000000000613b429190614b1d565b6bffffffffffffffffffffffff167f0000000000000000000000000000000000000000000000000000000000000000600a613b7d91906146b2565b8385613b899190614b1d565b6bffffffffffffffffffffffff16613ba191906146fd565b613bab919061473f565b905092915050565b6000808273ffffffffffffffffffffffffffffffffffffffff163b119050919050565b600060019054906101000a900460ff16613c25576040517f08c379a0000000000000000000000000000000000000000000000000000000008152600401613c1c906153b9565b60405180910390fd5b613c2d613c37565b565b600033905090565b600060019054906101000a900460ff16613c86576040517f08c379a0000000000000000000000000000000000000000000000000000000008152600401613c7d906153b9565b60405180910390fd5b613c96613c91613c2f565b613a2e565b565b600080fd5b600080fd5b6000819050919050565b613cb581613ca2565b8114613cc057600080fd5b50565b600081359050613cd281613cac565b92915050565b600060208284031215613cee57613ced613c98565b5b6000613cfc84828501613cc3565b91505092915050565b60006bffffffffffffffffffffffff82169050919050565b613d2681613d05565b82525050565b6000604082019050613d416000830185613d1d565b613d4e6020830184613d1d565b9392505050565b613d5e81613d05565b8114613d6957600080fd5b50565b600081359050613d7b81613d55565b92915050565b60008060408385031215613d9857613d97613c98565b5b6000613da685828601613d6c565b9250506020613db785828601613d6c565b9150509250929050565b600080fd5b600080fd5b600080fd5b60008083601f840112613de657613de5613dc1565b5b8235905067ffffffffffffffff811115613e0357613e02613dc6565b5b602083019150836020820283011115613e1f57613e1e613dcb565b5b9250929050565b60008083601f840112613e3c57613e3b613dc1565b5b8235905067ffffffffffffffff811115613e5957613e58613dc6565b5b602083019150836020820283011115613e7557613e74613dcb565b5b9250929050565b60008060008060408587031215613e9657613e95613c98565b5b600085013567ffffffffffffffff811115613eb457613eb3613c9d565b5b613ec087828801613dd0565b9450945050602085013567ffffffffffffffff811115613ee357613ee2613c9d565b5b613eef87828801613e26565b925092505092959194509250565b613f0681613ca2565b82525050565b6000602082019050613f216000830184613efd565b92915050565b60008060008060408587031215613f4157613f40613c98565b5b600085013567ffffffffffffffff811115613f5f57613f5e613c9d565b5b613f6b87828801613e26565b9450945050602085013567ffffffffffffffff811115613f8e57613f8d613c9d565b5b613f9a87828801613e26565b925092505092959194509250565b60008060008060008060608789031215613fc557613fc4613c98565b5b600087013567ffffffffffffffff811115613fe357613fe2613c9d565b5b613fef89828a01613dd0565b9650965050602087013567ffffffffffffffff81111561401257614011613c9d565b5b61401e89828a01613e26565b9450945050604087013567ffffffffffffffff81111561404157614040613c9d565b5b61404d89828a01613e26565b92509250509295509295509295565b6000806000806060858703121561407657614075613c98565b5b600085013567ffffffffffffffff81111561409457614093613c9d565b5b6140a087828801613dd0565b945094505060206140b387828801613d6c565b92505060406140c487828801613d6c565b91505092959194509250565b60008115159050919050565b6140e5816140d0565b81146140f057600080fd5b50565b600081359050614102816140dc565b92915050565b6000806000806060858703121561412257614121613c98565b5b600085013567ffffffffffffffff8111156141405761413f613c9d565b5b61414c87828801613dd0565b9450945050602061415f87828801613d6c565b9250506040614170878288016140f3565b91505092959194509250565b60006020820190506141916000830184613d1d565b92915050565b600080602083850312156141ae576141ad613c98565b5b600083013567ffffffffffffffff8111156141cc576141cb613c9d565b5b6141d885828601613dd0565b92509250509250929050565b600073ffffffffffffffffffffffffffffffffffffffff82169050919050565b600061420f826141e4565b9050919050565b61421f81614204565b82525050565b600060208201905061423a6000830184614216565b92915050565b614249816140d0565b82525050565b600060a0820190506142646000830188614216565b6142716020830187613d1d565b61427e6040830186613d1d565b61428b6060830185613d1d565b6142986080830184614240565b9695505050505050565b6142ab81614204565b81146142b657600080fd5b50565b6000813590506142c8816142a2565b92915050565b6000602082840312156142e4576142e3613c98565b5b60006142f2848285016142b9565b91505092915050565b600082825260208201905092915050565b7f4f72646572426f6f6b3a206d61726b6574206973207061757365640000000000600082015250565b6000614342601b836142fb565b915061434d8261430c565b602082019050919050565b6000602082019050818103600083015261437181614335565b9050919050565b7f4f72646572426f6f6b3a2053697a6520746f6f206c6f77000000000000000000600082015250565b60006143ae6017836142fb565b91506143b982614378565b602082019050919050565b600060208201905081810360008301526143dd816143a1565b9050919050565b7f4f72646572426f6f6b3a2053697a6520746f6f206c6172676500000000000000600082015250565b600061441a6019836142fb565b9150614425826143e4565b602082019050919050565b600060208201905081810360008301526144498161440d565b9050919050565b7f4e487b7100000000000000000000000000000000000000000000000000000000600052601260045260246000fd5b600061448a82613d05565b915061449583613d05565b9250826144a5576144a4614450565b5b828206905092915050565b7f4f72646572426f6f6b3a205469636b2053697a65000000000000000000000000600082015250565b60006144e66014836142fb565b91506144f1826144b0565b602082019050919050565b60006020820190508181036000830152614515816144d9565b9050919050565b7f4e487b7100000000000000000000000000000000000000000000000000000000600052601160045260246000fd5b600061455682613ca2565b915061456183613ca2565b92508282019050808211156145795761457861451c565b5b92915050565b60008160011c9050919050565b6000808291508390505b60018511156145d6578086048111156145b2576145b161451c565b5b60018516156145c15780820291505b80810290506145cf8561457f565b9450614596565b94509492505050565b6000826145ef57600190506146ab565b816145fd57600090506146ab565b8160018114614613576002811461461d5761464c565b60019150506146ab565b60ff84111561462f5761462e61451c565b5b8360020a9150848211156146465761464561451c565b5b506146ab565b5060208310610133831016604e8410600b84101617156146815782820a90508381111561467c5761467b61451c565b5b6146ab565b61468e848484600161458c565b925090508184048111156146a5576146a461451c565b5b81810290505b9392505050565b60006146bd82613ca2565b91506146c883613ca2565b92506146f57fffffffffffffffffffffffffffffffffffffffffffffffffffffffffffffffff84846145df565b905092915050565b600061470882613ca2565b915061471383613ca2565b925082820261472181613ca2565b915082820484148315176147385761473761451c565b5b5092915050565b600061474a82613ca2565b915061475583613ca2565b92508261476557614764614450565b5b828204905092915050565b60006060820190506147856000830186614216565b6147926020830185614216565b61479f6040830184613efd565b949350505050565b6000815190506147b6816140dc565b92915050565b6000602082840312156147d2576147d1613c98565b5b60006147e0848285016147a7565b91505092915050565b600060c0820190506147fe6000830189613efd565b61480b6020830188614216565b6148186040830187613d1d565b6148256060830186613d1d565b6148326080830185613d1d565b61483f60a0830184614240565b979650505050505050565b7f4e487b7100000000000000000000000000000000000000000000000000000000600052603260045260246000fd5b60006020828403121561488f5761488e613c98565b5b600061489d84828501613d6c565b91505092915050565b60006148b182613ca2565b91507fffffffffffffffffffffffffffffffffffffffffffffffffffffffffffffffff82036148e3576148e261451c565b5b600182019050919050565b600082825260208201905092915050565b600080fd5b82818337505050565b600061491983856148ee565b93507f07ffffffffffffffffffffffffffffffffffffffffffffffffffffffffffffff83111561494c5761494b6148ff565b5b60208302925061495d838584614904565b82840190509392505050565b600082825260208201905092915050565b6000819050919050565b61498d81613d05565b82525050565b600061499f8383614984565b60208301905092915050565b60006149ba6020840184613d6c565b905092915050565b6000602082019050919050565b60006149db8385614969565b93506149e68261497a565b8060005b85811015614a1f576149fc82846149ab565b614a068882614993565b9750614a11836149c2565b9250506001810190506149ea565b5085925050509392505050565b60006040820190508181036000830152614a4781868861490d565b90508181036020830152614a5c8184866149cf565b905095945050505050565b7f4f72646572426f6f6b3a2050726963657320616e642073697a6573206172726160008201527f79206c656e677468206d757374206d6174636800000000000000000000000000602082015250565b6000614ac36033836142fb565b9150614ace82614a67565b604082019050919050565b60006020820190508181036000830152614af281614ab6565b9050919050565b60006020820190508181036000830152614b1481848661490d565b90509392505050565b6000614b2882613d05565b9150614b3383613d05565b9250828202614b4181613d05565b9150808214614b5357614b5261451c565b5b5092915050565b6000614b6582613d05565b9150614b7083613d05565b925082614b8057614b7f614450565b5b828204905092915050565b7f4e487b7100000000000000000000000000000000000000000000000000000000600052604160045260246000fd5b7f4f72646572426f6f6b3a20657865637574696e6720616761696e73742061206260008201527f7579206f72646572000000000000000000000000000000000000000000000000602082015250565b6000614c166028836142fb565b9150614c2182614bba565b604082019050919050565b60006020820190508181036000830152614c4581614c09565b9050919050565b7f4f72646572426f6f6b3a206f72646572206e6f742065786563757461626c6500600082015250565b6000614c82601f836142fb565b9150614c8d82614c4c565b602082019050919050565b60006020820190508181036000830152614cb181614c75565b9050919050565b6000614cc382613ca2565b9150614cce83613ca2565b9250828203905081811115614ce657614ce561451c565b5b92915050565b6000614cf782613d05565b9150614d0283613d05565b925082820190506bffffffffffffffffffffffff811115614d2657614d2561451c565b5b92915050565b6000604082019050614d416000830185614216565b614d4e6020830184613efd565b9392505050565b6000614d6082613d05565b9150614d6b83613d05565b925082820390506bffffffffffffffffffffffff811115614d8f57614d8e61451c565b5b92915050565b7f4f72646572426f6f6b3a20696e73756666696369656e7420766f6c756d65206f60008201527f6e20626f6f6b0000000000000000000000000000000000000000000000000000602082015250565b6000614df16026836142fb565b9150614dfc82614d95565b604082019050919050565b60006020820190508181036000830152614e2081614de4565b9050919050565b600081519050919050565b6000819050602082019050919050565b6000602082019050919050565b6000614e5a82614e27565b614e648185614969565b9350614e6f83614e32565b8060005b83811015614ea0578151614e878882614993565b9750614e9283614e42565b925050600181019050614e73565b5085935050505092915050565b6000608082019050614ec26000830188614216565b614ecf6020830187613d1d565b8181036040830152614ee281858761490d565b90508181036060830152614ef68184614e4f565b90509695505050505050565b7f4f72646572426f6f6b3a20657865637574696e6720616761696e73742061207360008201527f656c6c206f726465720000000000000000000000000000000000000000000000602082015250565b6000614f5e6029836142fb565b9150614f6982614f02565b604082019050919050565b60006020820190508181036000830152614f8d81614f51565b9050919050565b7f496e697469616c697a61626c653a20636f6e747261637420697320616c72656160008201527f647920696e697469616c697a6564000000000000000000000000000000000000602082015250565b6000614ff0602e836142fb565b9150614ffb82614f94565b604082019050919050565b6000602082019050818103600083015261501f81614fe3565b9050919050565b6000819050919050565b600060ff82169050919050565b6000819050919050565b600061506261505d61505884615026565b61503d565b615030565b9050919050565b61507281615047565b82525050565b600060208201905061508d6000830184615069565b92915050565b7f4f776e61626c653a206e6577206f776e657220697320746865207a65726f206160008201527f6464726573730000000000000000000000000000000000000000000000000000602082015250565b60006150ef6026836142fb565b91506150fa82615093565b604082019050919050565b6000602082019050818103600083015261511e816150e2565b9050919050565b7f4f776e61626c653a2063616c6c6572206973206e6f7420746865206f776e6572600082015250565b600061515b6020836142fb565b915061516682615125565b602082019050919050565b6000602082019050818103600083015261518a8161514e565b9050919050565b7f4f72646572426f6f6b3a204f6e6c79206f72646572206f776e65722063616e2060008201527f757064617465206f726465720000000000000000000000000000000000000000602082015250565b60006151ed602c836142fb565b91506151f882615191565b604082019050919050565b6000602082019050818103600083015261521c816151e0565b9050919050565b7f4f72646572426f6f6b3a2063616e277420696e637265617365206f726465722060008201527f73697a6500000000000000000000000000000000000000000000000000000000602082015250565b600061527f6024836142fb565b915061528a82615223565b604082019050919050565b600060208201905081810360008301526152ae81615272565b9050919050565b7f4f72646572426f6f6b3a204f6e6c79206f72646572206f776e65722063616e2060008201527f63616e63656c206f726465720000000000000000000000000000000000000000602082015250565b6000615311602c836142fb565b915061531c826152b5565b604082019050919050565b6000602082019050818103600083015261534081615304565b9050919050565b7f496e697469616c697a61626c653a20636f6e7472616374206973206e6f74206960008201527f6e697469616c697a696e67000000000000000000000000000000000000000000602082015250565b60006153a3602b836142fb565b91506153ae82615347565b604082019050919050565b600060208201905081810360008301526153d281615396565b905091905056fea2646970667358221220a3206508248759c7202c9a8fc4bb1d52748d3b6721b6078b12203c2724d6301a64736f6c63430008110033",
  "linkReferences": {},
  "deployedLinkReferences": {}
}