{
  "_format": "hh-sol-artifact-1",
  "contractName": "CranklessOrderBook",
  "sourceName": "contracts/CranklessOrderBook.sol",
  "abi": [
    {
      "inputs": [
        {
          "internalType": "address",
          "name": "_tokenAAddress",
          "type": "address"
        },
        {
          "internalType": "uint256",
          "name": "_tokenADecimals",
          "type": "uint256"
        },
        {
          "internalType": "address",
          "name": "_tokenBAddress",
          "type": "address"
        },
        {
          "internalType": "uint256",
          "name": "_tokenBDecimals",
          "type": "uint256"
        }
      ],
      "stateMutability": "nonpayable",
      "type": "constructor"
    },
    {
      "anonymous": false,
      "inputs": [
        {
          "indexed": false,
          "internalType": "uint256",
          "name": "orderId",
          "type": "uint256"
        },
        {
          "indexed": false,
          "internalType": "address",
          "name": "owner",
          "type": "address"
        },
        {
          "indexed": false,
          "internalType": "uint96",
          "name": "price",
          "type": "uint96"
        },
        {
          "indexed": false,
          "internalType": "uint128",
          "name": "size",
          "type": "uint128"
        },
        {
          "indexed": false,
          "internalType": "uint128",
          "name": "acceptableRange",
          "type": "uint128"
        },
        {
          "indexed": false,
          "internalType": "bool",
          "name": "isBuy",
          "type": "bool"
        }
      ],
      "name": "OrderCreated",
      "type": "event"
    },
    {
      "anonymous": false,
      "inputs": [
        {
          "indexed": false,
          "internalType": "uint256",
          "name": "orderId",
          "type": "uint256"
        },
        {
          "indexed": false,
          "internalType": "address",
          "name": "owner",
          "type": "address"
        },
        {
          "indexed": false,
          "internalType": "uint96",
          "name": "price",
          "type": "uint96"
        },
        {
          "indexed": false,
          "internalType": "uint128",
          "name": "size",
          "type": "uint128"
        },
        {
          "indexed": false,
          "internalType": "uint128",
          "name": "acceptableRange",
          "type": "uint128"
        },
        {
          "indexed": false,
          "internalType": "bool",
          "name": "isBuy",
          "type": "bool"
        }
      ],
      "name": "OrderUpdated",
      "type": "event"
    },
    {
      "anonymous": false,
      "inputs": [
        {
          "indexed": false,
          "internalType": "uint256[]",
          "name": "orderId",
          "type": "uint256[]"
        }
      ],
      "name": "OrdersCompletedOrCanceled",
      "type": "event"
    },
    {
      "inputs": [
        {
          "internalType": "uint96",
          "name": "_price",
          "type": "uint96"
        },
        {
          "internalType": "uint128",
          "name": "size",
          "type": "uint128"
        }
      ],
      "name": "addBuyOrder",
      "outputs": [],
      "stateMutability": "nonpayable",
      "type": "function"
    },
    {
      "inputs": [
        {
          "internalType": "uint96",
          "name": "_price",
          "type": "uint96"
        },
        {
          "internalType": "uint128",
          "name": "size",
          "type": "uint128"
        }
      ],
      "name": "addSellOrder",
      "outputs": [],
      "stateMutability": "nonpayable",
      "type": "function"
    },
    {
      "inputs": [
        {
          "internalType": "uint256[]",
          "name": "_orderIds",
          "type": "uint256[]"
        },
        {
          "internalType": "bool[]",
          "name": "_isBuy",
          "type": "bool[]"
        }
      ],
      "name": "batchCancelOrders",
      "outputs": [],
      "stateMutability": "nonpayable",
      "type": "function"
    },
    {
      "inputs": [
        {
          "internalType": "uint96[]",
          "name": "c_order_ids",
          "type": "uint96[]"
        },
        {
          "internalType": "uint128",
          "name": "_size",
          "type": "uint128"
        },
        {
          "internalType": "uint96",
          "name": "_price",
          "type": "uint96"
        }
      ],
      "name": "placeAggressivelimitBuy",
      "outputs": [],
      "stateMutability": "nonpayable",
      "type": "function"
    },
    {
      "inputs": [
        {
          "internalType": "uint96[]",
          "name": "c_order_ids",
          "type": "uint96[]"
        },
        {
          "internalType": "uint128",
          "name": "_size",
          "type": "uint128"
        },
        {
          "internalType": "uint96",
          "name": "_price",
          "type": "uint96"
        }
      ],
      "name": "placeAggressivelimitSell",
      "outputs": [],
      "stateMutability": "nonpayable",
      "type": "function"
    },
    {
      "inputs": [
        {
          "internalType": "uint96[]",
          "name": "c_order_ids",
          "type": "uint96[]"
        },
        {
          "internalType": "uint128",
          "name": "_size",
          "type": "uint128"
        },
        {
          "internalType": "bool",
          "name": "_isFillOrKill",
          "type": "bool"
        }
      ],
      "name": "placeAndExecuteMarketBuy",
      "outputs": [
        {
          "internalType": "uint128",
          "name": "",
          "type": "uint128"
        }
      ],
      "stateMutability": "nonpayable",
      "type": "function"
    },
    {
      "inputs": [
        {
          "internalType": "uint96[]",
          "name": "c_order_ids",
          "type": "uint96[]"
        },
        {
          "internalType": "uint128",
          "name": "_size",
          "type": "uint128"
        },
        {
          "internalType": "bool",
          "name": "_isFillOrKill",
          "type": "bool"
        }
      ],
      "name": "placeAndExecuteMarketSell",
      "outputs": [
        {
          "internalType": "uint128",
          "name": "",
          "type": "uint128"
        }
      ],
      "stateMutability": "nonpayable",
      "type": "function"
    },
    {
      "inputs": [
        {
          "internalType": "uint96[]",
          "name": "_prices",
          "type": "uint96[]"
        },
        {
          "internalType": "uint128[]",
          "name": "_sizes",
          "type": "uint128[]"
        }
      ],
      "name": "placeMultipleBuyOrders",
      "outputs": [],
      "stateMutability": "nonpayable",
      "type": "function"
    },
    {
      "inputs": [
        {
          "internalType": "uint96[]",
          "name": "_prices",
          "type": "uint96[]"
        },
        {
          "internalType": "uint128[]",
          "name": "_sizes",
          "type": "uint128[]"
        }
      ],
      "name": "placeMultipleSellOrders",
      "outputs": [],
      "stateMutability": "nonpayable",
      "type": "function"
    },
    {
      "inputs": [
        {
          "internalType": "uint256[]",
          "name": "_orderIds",
          "type": "uint256[]"
        },
        {
          "internalType": "uint96[]",
          "name": "_price",
          "type": "uint96[]"
        }
      ],
      "name": "replaceOrders",
      "outputs": [],
      "stateMutability": "nonpayable",
      "type": "function"
    },
    {
      "inputs": [
        {
          "internalType": "uint256",
          "name": "",
          "type": "uint256"
        }
      ],
      "name": "s_buyPricePoints",
      "outputs": [
        {
          "internalType": "uint128",
          "name": "totalCompletedOrCanceledOrders",
          "type": "uint128"
        },
        {
          "internalType": "uint128",
          "name": "totalOrdersAtPrice",
          "type": "uint128"
        }
      ],
      "stateMutability": "view",
      "type": "function"
    },
    {
      "inputs": [],
      "name": "s_orderIdCounter",
      "outputs": [
        {
          "internalType": "uint256",
          "name": "",
          "type": "uint256"
        }
      ],
      "stateMutability": "view",
      "type": "function"
    },
    {
      "inputs": [
        {
          "internalType": "uint256",
          "name": "",
          "type": "uint256"
        }
      ],
      "name": "s_orders",
      "outputs": [
        {
          "internalType": "address",
          "name": "ownerAddress",
          "type": "address"
        },
        {
          "internalType": "uint96",
          "name": "price",
          "type": "uint96"
        },
        {
          "internalType": "uint128",
          "name": "size",
          "type": "uint128"
        },
        {
          "internalType": "uint128",
          "name": "acceptableRange",
          "type": "uint128"
        },
        {
          "internalType": "bool",
          "name": "isBuy",
          "type": "bool"
        }
      ],
      "stateMutability": "view",
      "type": "function"
    },
    {
      "inputs": [
        {
          "internalType": "uint256",
          "name": "",
          "type": "uint256"
        }
      ],
      "name": "s_sellPricePoints",
      "outputs": [
        {
          "internalType": "uint128",
          "name": "totalCompletedOrCanceledOrders",
          "type": "uint128"
        },
        {
          "internalType": "uint128",
          "name": "totalOrdersAtPrice",
          "type": "uint128"
        }
      ],
      "stateMutability": "view",
      "type": "function"
    }
  ],
  "bytecode": "0x6101006040523480156200001257600080fd5b506040516200556138038062005561833981810160405281019062000038919062000167565b838383838373ffffffffffffffffffffffffffffffffffffffff1660808173ffffffffffffffffffffffffffffffffffffffff16815250508173ffffffffffffffffffffffffffffffffffffffff1660a08173ffffffffffffffffffffffffffffffffffffffff16815250508260c081815250508060e081815250505050505050505050620001d9565b600080fd5b600073ffffffffffffffffffffffffffffffffffffffff82169050919050565b6000620000f482620000c7565b9050919050565b6200010681620000e7565b81146200011257600080fd5b50565b6000815190506200012681620000fb565b92915050565b6000819050919050565b62000141816200012c565b81146200014d57600080fd5b50565b600081519050620001618162000136565b92915050565b60008060008060808587031215620001845762000183620000c2565b5b6000620001948782880162000115565b9450506020620001a78782880162000150565b9350506040620001ba8782880162000115565b9250506060620001cd8782880162000150565b91505092959194509250565b60805160a05160c05160e0516152e56200027c600039600081816114e401528181612b89015281816132000152613c9f015260008181611357015281816120d1015281816127e401528181613031015261383d0152600081816108cd01528181610f980152818161149e01528181612b440152613c56015260008181611314015281816120890152818161279c01528181612fed01526137f601526152e56000f3fe608060405234801561001057600080fd5b50600436106100ea5760003560e01c8063615fd6b61161008c578063b722153f11610066578063b722153f1461025e578063e6d29b511461027a578063eb2e70c8146102ab578063ece2e87f146102c7576100ea565b8063615fd6b6146101de5780637af7b82a1461020e578063a6f3c50f1461022a576100ea565b806324b291db116100c857806324b291db1461016c5780632bf1360e146101885780634ff57439146101a657806355727643146101c2576100ea565b80630ab86eaa146100ef5780630e2e2ffe1461010b57806316683ef81461013c575b600080fd5b61010960048036038101906101049190613e86565b6102e3565b005b61012560048036038101906101209190613f30565b6103de565b604051610133929190613f6c565b60405180910390f35b61015660048036038101906101519190613fcd565b61043a565b6040516101639190614041565b60405180910390f35b6101866004803603810190610181919061405c565b61143f565b005b610190611604565b60405161019d91906140ab565b60405180910390f35b6101c060048036038101906101bb91906142d8565b61160a565b005b6101dc60048036038101906101d791906143a6565b611713565b005b6101f860048036038101906101f39190613fcd565b611bda565b6040516102059190614041565b60405180910390f35b61022860048036038101906102239190613e86565b612c7b565b005b610244600480360381019061023f9190613f30565b612d76565b604051610255959493929190614486565b60405180910390f35b610278600480360381019061027391906142d8565b612e29565b005b610294600480360381019061028f9190613f30565b612f32565b6040516102a2929190613f6c565b60405180910390f35b6102c560048036038101906102c0919061405c565b612f8e565b005b6102e160048036038101906102dc919061465f565b61312e565b005b60003073ffffffffffffffffffffffffffffffffffffffff1663615fd6b686868660006040518563ffffffff1660e01b8152600401610325949392919061479a565b6020604051808303816000875af1158015610344573d6000803e3d6000fd5b505050506040513d601f19601f8201168201806040525081019061036891906147ef565b90503073ffffffffffffffffffffffffffffffffffffffff1663eb2e70c883836040518363ffffffff1660e01b81526004016103a592919061481c565b600060405180830381600087803b1580156103bf57600080fd5b505af11580156103d3573d6000803e3d6000fd5b505050505050505050565b60026020528060005260406000206000915090508060000160009054906101000a90046fffffffffffffffffffffffffffffffff16908060000160109054906101000a90046fffffffffffffffffffffffffffffffff16905082565b60008060009050600080600088888581811061045957610458614845565b5b905060200201602081019061046e9190614874565b6bffffffffffffffffffffffff1681526020019081526020016000206040518060a00160405290816000820160009054906101000a900473ffffffffffffffffffffffffffffffffffffffff1673ffffffffffffffffffffffffffffffffffffffff1673ffffffffffffffffffffffffffffffffffffffff1681526020016000820160149054906101000a90046bffffffffffffffffffffffff166bffffffffffffffffffffffff166bffffffffffffffffffffffff1681526020016001820160009054906101000a90046fffffffffffffffffffffffffffffffff166fffffffffffffffffffffffffffffffff166fffffffffffffffffffffffffffffffff1681526020016001820160109054906101000a90046fffffffffffffffffffffffffffffffff166fffffffffffffffffffffffffffffffff166fffffffffffffffffffffffffffffffff1681526020016002820160009054906101000a900460ff161515151581525050905060006001600083602001516bffffffffffffffffffffffff1681526020019081526020016000206040518060400160405290816000820160009054906101000a90046fffffffffffffffffffffffffffffffff166fffffffffffffffffffffffffffffffff166fffffffffffffffffffffffffffffffff1681526020016000820160109054906101000a90046fffffffffffffffffffffffffffffffff166fffffffffffffffffffffffffffffffff166fffffffffffffffffffffffffffffffff168152505090506000808989905067ffffffffffffffff8111156106c2576106c16140d7565b5b6040519080825280602002602001820160405280156106f05781602001602082028036833780820191505090505b5090505b83604001516fffffffffffffffffffffffffffffffff16886fffffffffffffffffffffffffffffffff1611801561072d57508989905085105b15610e5a57836080015115610777576040517f08c379a000000000000000000000000000000000000000000000000000000000815260040161076e90614924565b60405180910390fd5b82600001516fffffffffffffffffffffffffffffffff1684606001516fffffffffffffffffffffffffffffffff1611156107e6576040517f08c379a00000000000000000000000000000000000000000000000000000000081526004016107dd90614990565b60405180910390fd5b8989868181106107f9576107f8614845565b5b905060200201602081019061080e9190614874565b6bffffffffffffffffffffffff1681868151811061082f5761082e614845565b5b60200260200101818152505083604001516fffffffffffffffffffffffffffffffff168261085d91906149df565b915083604001518861086f9190614a13565b97508360400151836000018181516108879190614a57565b9150906fffffffffffffffffffffffffffffffff1690816fffffffffffffffffffffffffffffffff1681525050600084602001516bffffffffffffffffffffffff1690507f000000000000000000000000000000000000000000000000000000000000000073ffffffffffffffffffffffffffffffffffffffff166323b872dd33876000015161093f89604001516fffffffffffffffffffffffffffffffff168a602001516bffffffffffffffffffffffff166131f4565b6040518463ffffffff1660e01b815260040161095d93929190614a9b565b6020604051808303816000875af115801561097c573d6000803e3d6000fd5b505050506040513d601f19601f820116820180604052508101906109a09190614ae7565b50600085604001906fffffffffffffffffffffffffffffffff1690816fffffffffffffffffffffffffffffffff1681525050846000808d8d8a8181106109e9576109e8614845565b5b90506020020160208101906109fe9190614874565b6bffffffffffffffffffffffff16815260200190815260200160002060008201518160000160006101000a81548173ffffffffffffffffffffffffffffffffffffffff021916908373ffffffffffffffffffffffffffffffffffffffff16021790555060208201518160000160146101000a8154816bffffffffffffffffffffffff02191690836bffffffffffffffffffffffff16021790555060408201518160010160006101000a8154816fffffffffffffffffffffffffffffffff02191690836fffffffffffffffffffffffffffffffff16021790555060608201518160010160106101000a8154816fffffffffffffffffffffffffffffffff02191690836fffffffffffffffffffffffffffffffff16021790555060808201518160020160006101000a81548160ff021916908315150217905550905050600186610b4691906149df565b95506000808c8c89818110610b5e57610b5d614845565b5b9050602002016020810190610b739190614874565b6bffffffffffffffffffffffff1681526020019081526020016000206040518060a00160405290816000820160009054906101000a900473ffffffffffffffffffffffffffffffffffffffff1673ffffffffffffffffffffffffffffffffffffffff1673ffffffffffffffffffffffffffffffffffffffff1681526020016000820160149054906101000a90046bffffffffffffffffffffffff166bffffffffffffffffffffffff166bffffffffffffffffffffffff1681526020016001820160009054906101000a90046fffffffffffffffffffffffffffffffff166fffffffffffffffffffffffffffffffff166fffffffffffffffffffffffffffffffff1681526020016001820160109054906101000a90046fffffffffffffffffffffffffffffffff166fffffffffffffffffffffffffffffffff166fffffffffffffffffffffffffffffffff1681526020016002820160009054906101000a900460ff161515151581525050945084602001516bffffffffffffffffffffffff168114610e5457836001600083815260200190815260200160002060008201518160000160006101000a8154816fffffffffffffffffffffffffffffffff02191690836fffffffffffffffffffffffffffffffff16021790555060208201518160000160106101000a8154816fffffffffffffffffffffffffffffffff02191690836fffffffffffffffffffffffffffffffff1602179055509050506001600086602001516bffffffffffffffffffffffff1681526020019081526020016000206040518060400160405290816000820160009054906101000a90046fffffffffffffffffffffffffffffffff166fffffffffffffffffffffffffffffffff166fffffffffffffffffffffffffffffffff1681526020016000820160109054906101000a90046fffffffffffffffffffffffffffffffff166fffffffffffffffffffffffffffffffff166fffffffffffffffffffffffffffffffff168152505093505b506106f4565b6000886fffffffffffffffffffffffffffffffff16118015610e7e57508989905085105b156112b657836080015115610ec8576040517f08c379a0000000000000000000000000000000000000000000000000000000008152600401610ebf90614924565b60405180910390fd5b82600001516fffffffffffffffffffffffffffffffff1684606001516fffffffffffffffffffffffffffffffff161115610f37576040517f08c379a0000000000000000000000000000000000000000000000000000000008152600401610f2e90614990565b60405180910390fd5b8783600001818151610f499190614a57565b9150906fffffffffffffffffffffffffffffffff1690816fffffffffffffffffffffffffffffffff1681525050876fffffffffffffffffffffffffffffffff1682610f9491906149df565b91507f000000000000000000000000000000000000000000000000000000000000000073ffffffffffffffffffffffffffffffffffffffff166323b872dd3386600001516110068c6fffffffffffffffffffffffffffffffff1689602001516bffffffffffffffffffffffff166131f4565b6040518463ffffffff1660e01b815260040161102493929190614a9b565b6020604051808303816000875af1158015611043573d6000803e3d6000fd5b505050506040513d601f19601f820116820180604052508101906110679190614ae7565b50878460400181815161107a9190614a13565b9150906fffffffffffffffffffffffffffffffff1690816fffffffffffffffffffffffffffffffff1681525050836000808c8c898181106110be576110bd614845565b5b90506020020160208101906110d39190614874565b6bffffffffffffffffffffffff16815260200190815260200160002060008201518160000160006101000a81548173ffffffffffffffffffffffffffffffffffffffff021916908373ffffffffffffffffffffffffffffffffffffffff16021790555060208201518160000160146101000a8154816bffffffffffffffffffffffff02191690836bffffffffffffffffffffffff16021790555060408201518160010160006101000a8154816fffffffffffffffffffffffffffffffff02191690836fffffffffffffffffffffffffffffffff16021790555060608201518160010160106101000a8154816fffffffffffffffffffffffffffffffff02191690836fffffffffffffffffffffffffffffffff16021790555060808201518160020160006101000a81548160ff021916908315150217905550905050826001600086602001516bffffffffffffffffffffffff16815260200190815260200160002060008201518160000160006101000a8154816fffffffffffffffffffffffffffffffff02191690836fffffffffffffffffffffffffffffffff16021790555060208201518160000160106101000a8154816fffffffffffffffffffffffffffffffff02191690836fffffffffffffffffffffffffffffffff1602179055509050505b8615611312576000886fffffffffffffffffffffffffffffffff1614611311576040517f08c379a000000000000000000000000000000000000000000000000000000000815260040161130890614b60565b60405180910390fd5b5b7f000000000000000000000000000000000000000000000000000000000000000073ffffffffffffffffffffffffffffffffffffffff1663a9059cbb336402540be4007f0000000000000000000000000000000000000000000000000000000000000000600a6113829190614cb3565b8661138d9190614cfe565b6113979190614d6f565b6040518363ffffffff1660e01b81526004016113b4929190614da0565b6020604051808303816000875af11580156113d3573d6000803e3d6000fd5b505050506040513d601f19601f820116820180604052508101906113f79190614ae7565b507f4e7423f2dd63c2961bad2d15176d3d5baf5955e9b2ef13e0bdb7b6b27c21ffef816040516114279190614e87565b60405180910390a18795505050505050949350505050565b6000600354905060018161145391906149df565b600381905550600060016000856bffffffffffffffffffffffff1681526020019081526020016000209050600061149a82868660018761149391906149df565b600161325d565b90507f000000000000000000000000000000000000000000000000000000000000000073ffffffffffffffffffffffffffffffffffffffff166323b872dd33306402540be40060647f0000000000000000000000000000000000000000000000000000000000000000600a61150f9190614cb3565b8b6bffffffffffffffffffffffff168b6115299190614ea9565b6fffffffffffffffffffffffffffffffff166115459190614cfe565b61154f9190614d6f565b6115599190614d6f565b6040518463ffffffff1660e01b815260040161157793929190614a9b565b6020604051808303816000875af1158015611596573d6000803e3d6000fd5b505050506040513d601f19601f820116820180604052508101906115ba9190614ae7565b507f3bb89cbf97283fda44cd1b331bd60e5b8bbd1a72c4ae6acafc9b85da0a8ef64f833387878560016040516115f596959493929190614ee6565b60405180910390a15050505050565b60035481565b805182511461164e576040517f08c379a000000000000000000000000000000000000000000000000000000000815260040161164590614fb9565b60405180910390fd5b60005b825181101561170e573073ffffffffffffffffffffffffffffffffffffffff1663eb2e70c884838151811061168957611688614845565b5b60200260200101518484815181106116a4576116a3614845565b5b60200260200101516040518363ffffffff1660e01b81526004016116c992919061481c565b600060405180830381600087803b1580156116e357600080fd5b505af11580156116f7573d6000803e3d6000fd5b50505050808061170690614fd9565b915050611651565b505050565b60005b84849050811015611bd357600080600087878581811061173957611738614845565b5b90506020020135815260200190815260200160002090508060000160009054906101000a900473ffffffffffffffffffffffffffffffffffffffff1673ffffffffffffffffffffffffffffffffffffffff163373ffffffffffffffffffffffffffffffffffffffff16146117e2576040517f08c379a00000000000000000000000000000000000000000000000000000000081526004016117d990615093565b60405180910390fd5b60008160020160009054906101000a900460ff16611847576002600086868681811061181157611810614845565b5b90506020020160208101906118269190614874565b6bffffffffffffffffffffffff168152602001908152602001600020611890565b6001600086868681811061185e5761185d614845565b5b90506020020160208101906118739190614874565b6bffffffffffffffffffffffff1681526020019081526020016000205b905060008260020160009054906101000a900460ff166118ec57600260008460000160149054906101000a90046bffffffffffffffffffffffff166bffffffffffffffffffffffff16815260200190815260200160002061192a565b600160008460000160149054906101000a90046bffffffffffffffffffffffff166bffffffffffffffffffffffff1681526020019081526020016000205b90508260010160009054906101000a90046fffffffffffffffffffffffffffffffff168160000160008282829054906101000a90046fffffffffffffffffffffffffffffffff1661197b9190614a57565b92506101000a8154816fffffffffffffffffffffffffffffffff02191690836fffffffffffffffffffffffffffffffff1602179055508160000160109054906101000a90046fffffffffffffffffffffffffffffffff168360010160106101000a8154816fffffffffffffffffffffffffffffffff02191690836fffffffffffffffffffffffffffffffff160217905550858585818110611a1f57611a1e614845565b5b9050602002016020810190611a349190614874565b8360000160146101000a8154816bffffffffffffffffffffffff02191690836bffffffffffffffffffffffff1602179055508260010160009054906101000a90046fffffffffffffffffffffffffffffffff168260000160108282829054906101000a90046fffffffffffffffffffffffffffffffff16611ab59190614a57565b92506101000a8154816fffffffffffffffffffffffffffffffff02191690836fffffffffffffffffffffffffffffffff1602179055507f88c56b5b4ebebb79641522127475a6a394fe9f7f9da5279fcdead7a28d298cab888886818110611b1f57611b1e614845565b5b9050602002013533888888818110611b3a57611b39614845565b5b9050602002016020810190611b4f9190614874565b8660010160009054906101000a90046fffffffffffffffffffffffffffffffff168760010160109054906101000a90046fffffffffffffffffffffffffffffffff168860020160009054906101000a900460ff16604051611bb596959493929190614ee6565b60405180910390a15050508080611bcb90614fd9565b915050611716565b5050505050565b600080600090506000806000888885818110611bf957611bf8614845565b5b9050602002016020810190611c0e9190614874565b6bffffffffffffffffffffffff1681526020019081526020016000206040518060a00160405290816000820160009054906101000a900473ffffffffffffffffffffffffffffffffffffffff1673ffffffffffffffffffffffffffffffffffffffff1673ffffffffffffffffffffffffffffffffffffffff1681526020016000820160149054906101000a90046bffffffffffffffffffffffff166bffffffffffffffffffffffff166bffffffffffffffffffffffff1681526020016001820160009054906101000a90046fffffffffffffffffffffffffffffffff166fffffffffffffffffffffffffffffffff166fffffffffffffffffffffffffffffffff1681526020016001820160109054906101000a90046fffffffffffffffffffffffffffffffff166fffffffffffffffffffffffffffffffff166fffffffffffffffffffffffffffffffff1681526020016002820160009054906101000a900460ff161515151581525050905060006002600083602001516bffffffffffffffffffffffff1681526020019081526020016000206040518060400160405290816000820160009054906101000a90046fffffffffffffffffffffffffffffffff166fffffffffffffffffffffffffffffffff166fffffffffffffffffffffffffffffffff1681526020016000820160109054906101000a90046fffffffffffffffffffffffffffffffff166fffffffffffffffffffffffffffffffff166fffffffffffffffffffffffffffffffff168152505090506000808989905067ffffffffffffffff811115611e6257611e616140d7565b5b604051908082528060200260200182016040528015611e905781602001602082028036833780820191505090505b5090505b83604001516fffffffffffffffffffffffffffffffff16886fffffffffffffffffffffffffffffffff16118015611ecd57508989905085105b15612642578360800151611f16576040517f08c379a0000000000000000000000000000000000000000000000000000000008152600401611f0d90615125565b60405180910390fd5b82600001516fffffffffffffffffffffffffffffffff1684606001516fffffffffffffffffffffffffffffffff161115611f85576040517f08c379a0000000000000000000000000000000000000000000000000000000008152600401611f7c90614990565b60405180910390fd5b898986818110611f9857611f97614845565b5b9050602002016020810190611fad9190614874565b6bffffffffffffffffffffffff16818681518110611fce57611fcd614845565b5b60200260200101818152505083602001516bffffffffffffffffffffffff168460400151611ffc9190614ea9565b6fffffffffffffffffffffffffffffffff168261201991906149df565b915083604001518861202b9190614a13565b97508360400151836000018181516120439190614a57565b9150906fffffffffffffffffffffffffffffffff1690816fffffffffffffffffffffffffffffffff1681525050600084602001516bffffffffffffffffffffffff1690507f000000000000000000000000000000000000000000000000000000000000000073ffffffffffffffffffffffffffffffffffffffff166323b872dd3387600001516402540be4007f0000000000000000000000000000000000000000000000000000000000000000600a6120fc9190614cb3565b8a604001516fffffffffffffffffffffffffffffffff1661211d9190614cfe565b6121279190614d6f565b6040518463ffffffff1660e01b815260040161214593929190614a9b565b6020604051808303816000875af1158015612164573d6000803e3d6000fd5b505050506040513d601f19601f820116820180604052508101906121889190614ae7565b50600085604001906fffffffffffffffffffffffffffffffff1690816fffffffffffffffffffffffffffffffff1681525050846000808d8d8a8181106121d1576121d0614845565b5b90506020020160208101906121e69190614874565b6bffffffffffffffffffffffff16815260200190815260200160002060008201518160000160006101000a81548173ffffffffffffffffffffffffffffffffffffffff021916908373ffffffffffffffffffffffffffffffffffffffff16021790555060208201518160000160146101000a8154816bffffffffffffffffffffffff02191690836bffffffffffffffffffffffff16021790555060408201518160010160006101000a8154816fffffffffffffffffffffffffffffffff02191690836fffffffffffffffffffffffffffffffff16021790555060608201518160010160106101000a8154816fffffffffffffffffffffffffffffffff02191690836fffffffffffffffffffffffffffffffff16021790555060808201518160020160006101000a81548160ff02191690831515021790555090505060018661232e91906149df565b95506000808c8c8981811061234657612345614845565b5b905060200201602081019061235b9190614874565b6bffffffffffffffffffffffff1681526020019081526020016000206040518060a00160405290816000820160009054906101000a900473ffffffffffffffffffffffffffffffffffffffff1673ffffffffffffffffffffffffffffffffffffffff1673ffffffffffffffffffffffffffffffffffffffff1681526020016000820160149054906101000a90046bffffffffffffffffffffffff166bffffffffffffffffffffffff166bffffffffffffffffffffffff1681526020016001820160009054906101000a90046fffffffffffffffffffffffffffffffff166fffffffffffffffffffffffffffffffff166fffffffffffffffffffffffffffffffff1681526020016001820160109054906101000a90046fffffffffffffffffffffffffffffffff166fffffffffffffffffffffffffffffffff166fffffffffffffffffffffffffffffffff1681526020016002820160009054906101000a900460ff161515151581525050945084602001516bffffffffffffffffffffffff16811461263c57836002600083815260200190815260200160002060008201518160000160006101000a8154816fffffffffffffffffffffffffffffffff02191690836fffffffffffffffffffffffffffffffff16021790555060208201518160000160106101000a8154816fffffffffffffffffffffffffffffffff02191690836fffffffffffffffffffffffffffffffff1602179055509050506002600086602001516bffffffffffffffffffffffff1681526020019081526020016000206040518060400160405290816000820160009054906101000a90046fffffffffffffffffffffffffffffffff166fffffffffffffffffffffffffffffffff166fffffffffffffffffffffffffffffffff1681526020016000820160109054906101000a90046fffffffffffffffffffffffffffffffff166fffffffffffffffffffffffffffffffff166fffffffffffffffffffffffffffffffff168152505093505b50611e94565b6000886fffffffffffffffffffffffffffffffff1611801561266657508989905085105b15612ae65783608001516126af576040517f08c379a00000000000000000000000000000000000000000000000000000000081526004016126a690615125565b60405180910390fd5b82600001516fffffffffffffffffffffffffffffffff1684606001516fffffffffffffffffffffffffffffffff16111561271e576040517f08c379a000000000000000000000000000000000000000000000000000000000815260040161271590614990565b60405180910390fd5b87836000018181516127309190614a57565b9150906fffffffffffffffffffffffffffffffff1690816fffffffffffffffffffffffffffffffff168152505083602001516bffffffffffffffffffffffff168861277b9190614ea9565b6fffffffffffffffffffffffffffffffff168261279891906149df565b91507f000000000000000000000000000000000000000000000000000000000000000073ffffffffffffffffffffffffffffffffffffffff166323b872dd3386600001516402540be4007f0000000000000000000000000000000000000000000000000000000000000000600a61280f9190614cb3565b8d6fffffffffffffffffffffffffffffffff1661282c9190614cfe565b6128369190614d6f565b6040518463ffffffff1660e01b815260040161285493929190614a9b565b6020604051808303816000875af1158015612873573d6000803e3d6000fd5b505050506040513d601f19601f820116820180604052508101906128979190614ae7565b5087846040018181516128aa9190614a13565b9150906fffffffffffffffffffffffffffffffff1690816fffffffffffffffffffffffffffffffff1681525050836000808c8c898181106128ee576128ed614845565b5b90506020020160208101906129039190614874565b6bffffffffffffffffffffffff16815260200190815260200160002060008201518160000160006101000a81548173ffffffffffffffffffffffffffffffffffffffff021916908373ffffffffffffffffffffffffffffffffffffffff16021790555060208201518160000160146101000a8154816bffffffffffffffffffffffff02191690836bffffffffffffffffffffffff16021790555060408201518160010160006101000a8154816fffffffffffffffffffffffffffffffff02191690836fffffffffffffffffffffffffffffffff16021790555060608201518160010160106101000a8154816fffffffffffffffffffffffffffffffff02191690836fffffffffffffffffffffffffffffffff16021790555060808201518160020160006101000a81548160ff021916908315150217905550905050826002600086602001516bffffffffffffffffffffffff16815260200190815260200160002060008201518160000160006101000a8154816fffffffffffffffffffffffffffffffff02191690836fffffffffffffffffffffffffffffffff16021790555060208201518160000160106101000a8154816fffffffffffffffffffffffffffffffff02191690836fffffffffffffffffffffffffffffffff1602179055509050505b8615612b42576000886fffffffffffffffffffffffffffffffff1614612b41576040517f08c379a0000000000000000000000000000000000000000000000000000000008152600401612b3890614b60565b60405180910390fd5b5b7f000000000000000000000000000000000000000000000000000000000000000073ffffffffffffffffffffffffffffffffffffffff1663a9059cbb336402540be40060647f0000000000000000000000000000000000000000000000000000000000000000600a612bb49190614cb3565b87612bbf9190614cfe565b612bc99190614d6f565b612bd39190614d6f565b6040518363ffffffff1660e01b8152600401612bf0929190614da0565b6020604051808303816000875af1158015612c0f573d6000803e3d6000fd5b505050506040513d601f19601f82011682018060405250810190612c339190614ae7565b507f4e7423f2dd63c2961bad2d15176d3d5baf5955e9b2ef13e0bdb7b6b27c21ffef81604051612c639190614e87565b60405180910390a18795505050505050949350505050565b60003073ffffffffffffffffffffffffffffffffffffffff166316683ef886868660006040518563ffffffff1660e01b8152600401612cbd949392919061479a565b6020604051808303816000875af1158015612cdc573d6000803e3d6000fd5b505050506040513d601f19601f82011682018060405250810190612d0091906147ef565b90503073ffffffffffffffffffffffffffffffffffffffff166324b291db83836040518363ffffffff1660e01b8152600401612d3d92919061481c565b600060405180830381600087803b158015612d5757600080fd5b505af1158015612d6b573d6000803e3d6000fd5b505050505050505050565b60006020528060005260406000206000915090508060000160009054906101000a900473ffffffffffffffffffffffffffffffffffffffff16908060000160149054906101000a90046bffffffffffffffffffffffff16908060010160009054906101000a90046fffffffffffffffffffffffffffffffff16908060010160109054906101000a90046fffffffffffffffffffffffffffffffff16908060020160009054906101000a900460ff16905085565b8051825114612e6d576040517f08c379a0000000000000000000000000000000000000000000000000000000008152600401612e6490614fb9565b60405180910390fd5b60005b8251811015612f2d573073ffffffffffffffffffffffffffffffffffffffff166324b291db848381518110612ea857612ea7614845565b5b6020026020010151848481518110612ec357612ec2614845565b5b60200260200101516040518363ffffffff1660e01b8152600401612ee892919061481c565b600060405180830381600087803b158015612f0257600080fd5b505af1158015612f16573d6000803e3d6000fd5b505050508080612f2590614fd9565b915050612e70565b505050565b60016020528060005260406000206000915090508060000160009054906101000a90046fffffffffffffffffffffffffffffffff16908060000160109054906101000a90046fffffffffffffffffffffffffffffffff16905082565b60006003549050600181612fa291906149df565b600381905550600060026000856bffffffffffffffffffffffff16815260200190815260200160002090506000612fe9828686600187612fe291906149df565b600061325d565b90507f000000000000000000000000000000000000000000000000000000000000000073ffffffffffffffffffffffffffffffffffffffff166323b872dd33306402540be4007f0000000000000000000000000000000000000000000000000000000000000000600a61305c9190614cb3565b896fffffffffffffffffffffffffffffffff166130799190614cfe565b6130839190614d6f565b6040518463ffffffff1660e01b81526004016130a193929190614a9b565b6020604051808303816000875af11580156130c0573d6000803e3d6000fd5b505050506040513d601f19601f820116820180604052508101906130e49190614ae7565b507f3bb89cbf97283fda44cd1b331bd60e5b8bbd1a72c4ae6acafc9b85da0a8ef64f8333878785600060405161311f96959493929190614ee6565b60405180910390a15050505050565b60005b82518110156131b85781818151811061314d5761314c614845565b5b60200260200101516131815761317c83828151811061316f5761316e614845565b5b6020026020010151613497565b6131a5565b6131a483828151811061319757613196614845565b5b60200260200101516138f8565b5b80806131b090614fd9565b915050613131565b507f4e7423f2dd63c2961bad2d15176d3d5baf5955e9b2ef13e0bdb7b6b27c21ffef826040516131e89190614e87565b60405180910390a15050565b60006402540be40060647f0000000000000000000000000000000000000000000000000000000000000000600a61322b9190614cb3565b84866132379190614cfe565b6132419190614cfe565b61324b9190614d6f565b6132559190614d6f565b905092915050565b6000808660000160109054906101000a90046fffffffffffffffffffffffffffffffff1690506040518060a001604052803373ffffffffffffffffffffffffffffffffffffffff168152602001876bffffffffffffffffffffffff168152602001866fffffffffffffffffffffffffffffffff168152602001826fffffffffffffffffffffffffffffffff16815260200184151581525060008086815260200190815260200160002060008201518160000160006101000a81548173ffffffffffffffffffffffffffffffffffffffff021916908373ffffffffffffffffffffffffffffffffffffffff16021790555060208201518160000160146101000a8154816bffffffffffffffffffffffff02191690836bffffffffffffffffffffffff16021790555060408201518160010160006101000a8154816fffffffffffffffffffffffffffffffff02191690836fffffffffffffffffffffffffffffffff16021790555060608201518160010160106101000a8154816fffffffffffffffffffffffffffffffff02191690836fffffffffffffffffffffffffffffffff16021790555060808201518160020160006101000a81548160ff021916908315150217905550905050848760000160108282829054906101000a90046fffffffffffffffffffffffffffffffff166134549190614a57565b92506101000a8154816fffffffffffffffffffffffffffffffff02191690836fffffffffffffffffffffffffffffffff1602179055508091505095945050505050565b60008060008381526020019081526020016000206040518060a00160405290816000820160009054906101000a900473ffffffffffffffffffffffffffffffffffffffff1673ffffffffffffffffffffffffffffffffffffffff1673ffffffffffffffffffffffffffffffffffffffff1681526020016000820160149054906101000a90046bffffffffffffffffffffffff166bffffffffffffffffffffffff166bffffffffffffffffffffffff1681526020016001820160009054906101000a90046fffffffffffffffffffffffffffffffff166fffffffffffffffffffffffffffffffff166fffffffffffffffffffffffffffffffff1681526020016001820160109054906101000a90046fffffffffffffffffffffffffffffffff166fffffffffffffffffffffffffffffffff166fffffffffffffffffffffffffffffffff1681526020016002820160009054906101000a900460ff1615151515815250509050806080015115613640576040517f08c379a000000000000000000000000000000000000000000000000000000000815260040161363790615191565b60405180910390fd5b806000015173ffffffffffffffffffffffffffffffffffffffff163373ffffffffffffffffffffffffffffffffffffffff16146136b2576040517f08c379a00000000000000000000000000000000000000000000000000000000081526004016136a990615223565b60405180910390fd5b80604001516002600083602001516bffffffffffffffffffffffff16815260200190815260200160002060000160008282829054906101000a90046fffffffffffffffffffffffffffffffff166137099190614a57565b92506101000a8154816fffffffffffffffffffffffffffffffff02191690836fffffffffffffffffffffffffffffffff160217905550600080838152602001908152602001600020600080820160006101000a81549073ffffffffffffffffffffffffffffffffffffffff02191690556000820160146101000a8154906bffffffffffffffffffffffff02191690556001820160006101000a8154906fffffffffffffffffffffffffffffffff02191690556001820160106101000a8154906fffffffffffffffffffffffffffffffff02191690556002820160006101000a81549060ff021916905550507f000000000000000000000000000000000000000000000000000000000000000073ffffffffffffffffffffffffffffffffffffffff1663a9059cbb82600001516402540be4007f0000000000000000000000000000000000000000000000000000000000000000600a6138689190614cb3565b85604001516fffffffffffffffffffffffffffffffff166138899190614cfe565b6138939190614d6f565b6040518363ffffffff1660e01b81526004016138b0929190614da0565b6020604051808303816000875af11580156138cf573d6000803e3d6000fd5b505050506040513d601f19601f820116820180604052508101906138f39190614ae7565b505050565b60008060008381526020019081526020016000206040518060a00160405290816000820160009054906101000a900473ffffffffffffffffffffffffffffffffffffffff1673ffffffffffffffffffffffffffffffffffffffff1673ffffffffffffffffffffffffffffffffffffffff1681526020016000820160149054906101000a90046bffffffffffffffffffffffff166bffffffffffffffffffffffff166bffffffffffffffffffffffff1681526020016001820160009054906101000a90046fffffffffffffffffffffffffffffffff166fffffffffffffffffffffffffffffffff166fffffffffffffffffffffffffffffffff1681526020016001820160109054906101000a90046fffffffffffffffffffffffffffffffff166fffffffffffffffffffffffffffffffff166fffffffffffffffffffffffffffffffff1681526020016002820160009054906101000a900460ff16151515158152505090508060800151613aa0576040517f08c379a0000000000000000000000000000000000000000000000000000000008152600401613a979061528f565b60405180910390fd5b806000015173ffffffffffffffffffffffffffffffffffffffff163373ffffffffffffffffffffffffffffffffffffffff1614613b12576040517f08c379a0000000000000000000000000000000000000000000000000000000008152600401613b0990615223565b60405180910390fd5b80604001516001600083602001516bffffffffffffffffffffffff16815260200190815260200160002060000160008282829054906101000a90046fffffffffffffffffffffffffffffffff16613b699190614a57565b92506101000a8154816fffffffffffffffffffffffffffffffff02191690836fffffffffffffffffffffffffffffffff160217905550600080838152602001908152602001600020600080820160006101000a81549073ffffffffffffffffffffffffffffffffffffffff02191690556000820160146101000a8154906bffffffffffffffffffffffff02191690556001820160006101000a8154906fffffffffffffffffffffffffffffffff02191690556001820160106101000a8154906fffffffffffffffffffffffffffffffff02191690556002820160006101000a81549060ff021916905550507f000000000000000000000000000000000000000000000000000000000000000073ffffffffffffffffffffffffffffffffffffffff1663a9059cbb82600001516402540be40060647f0000000000000000000000000000000000000000000000000000000000000000600a613cca9190614cb3565b86602001516bffffffffffffffffffffffff168760400151613cec9190614ea9565b6fffffffffffffffffffffffffffffffff16613d089190614cfe565b613d129190614d6f565b613d1c9190614d6f565b6040518363ffffffff1660e01b8152600401613d39929190614da0565b6020604051808303816000875af1158015613d58573d6000803e3d6000fd5b505050506040513d601f19601f82011682018060405250810190613d7c9190614ae7565b505050565b6000604051905090565b600080fd5b600080fd5b600080fd5b600080fd5b600080fd5b60008083601f840112613dba57613db9613d95565b5b8235905067ffffffffffffffff811115613dd757613dd6613d9a565b5b602083019150836020820283011115613df357613df2613d9f565b5b9250929050565b60006fffffffffffffffffffffffffffffffff82169050919050565b613e1f81613dfa565b8114613e2a57600080fd5b50565b600081359050613e3c81613e16565b92915050565b60006bffffffffffffffffffffffff82169050919050565b613e6381613e42565b8114613e6e57600080fd5b50565b600081359050613e8081613e5a565b92915050565b60008060008060608587031215613ea057613e9f613d8b565b5b600085013567ffffffffffffffff811115613ebe57613ebd613d90565b5b613eca87828801613da4565b94509450506020613edd87828801613e2d565b9250506040613eee87828801613e71565b91505092959194509250565b6000819050919050565b613f0d81613efa565b8114613f1857600080fd5b50565b600081359050613f2a81613f04565b92915050565b600060208284031215613f4657613f45613d8b565b5b6000613f5484828501613f1b565b91505092915050565b613f6681613dfa565b82525050565b6000604082019050613f816000830185613f5d565b613f8e6020830184613f5d565b9392505050565b60008115159050919050565b613faa81613f95565b8114613fb557600080fd5b50565b600081359050613fc781613fa1565b92915050565b60008060008060608587031215613fe757613fe6613d8b565b5b600085013567ffffffffffffffff81111561400557614004613d90565b5b61401187828801613da4565b9450945050602061402487828801613e2d565b925050604061403587828801613fb8565b91505092959194509250565b60006020820190506140566000830184613f5d565b92915050565b6000806040838503121561407357614072613d8b565b5b600061408185828601613e71565b925050602061409285828601613e2d565b9150509250929050565b6140a581613efa565b82525050565b60006020820190506140c0600083018461409c565b92915050565b6000601f19601f8301169050919050565b7f4e487b7100000000000000000000000000000000000000000000000000000000600052604160045260246000fd5b61410f826140c6565b810181811067ffffffffffffffff8211171561412e5761412d6140d7565b5b80604052505050565b6000614141613d81565b905061414d8282614106565b919050565b600067ffffffffffffffff82111561416d5761416c6140d7565b5b602082029050602081019050919050565b600061419161418c84614152565b614137565b905080838252602082019050602084028301858111156141b4576141b3613d9f565b5b835b818110156141dd57806141c98882613e71565b8452602084019350506020810190506141b6565b5050509392505050565b600082601f8301126141fc576141fb613d95565b5b813561420c84826020860161417e565b91505092915050565b600067ffffffffffffffff8211156142305761422f6140d7565b5b602082029050602081019050919050565b600061425461424f84614215565b614137565b9050808382526020820190506020840283018581111561427757614276613d9f565b5b835b818110156142a0578061428c8882613e2d565b845260208401935050602081019050614279565b5050509392505050565b600082601f8301126142bf576142be613d95565b5b81356142cf848260208601614241565b91505092915050565b600080604083850312156142ef576142ee613d8b565b5b600083013567ffffffffffffffff81111561430d5761430c613d90565b5b614319858286016141e7565b925050602083013567ffffffffffffffff81111561433a57614339613d90565b5b614346858286016142aa565b9150509250929050565b60008083601f84011261436657614365613d95565b5b8235905067ffffffffffffffff81111561438357614382613d9a565b5b60208301915083602082028301111561439f5761439e613d9f565b5b9250929050565b600080600080604085870312156143c0576143bf613d8b565b5b600085013567ffffffffffffffff8111156143de576143dd613d90565b5b6143ea87828801614350565b9450945050602085013567ffffffffffffffff81111561440d5761440c613d90565b5b61441987828801613da4565b925092505092959194509250565b600073ffffffffffffffffffffffffffffffffffffffff82169050919050565b600061445282614427565b9050919050565b61446281614447565b82525050565b61447181613e42565b82525050565b61448081613f95565b82525050565b600060a08201905061449b6000830188614459565b6144a86020830187614468565b6144b56040830186613f5d565b6144c26060830185613f5d565b6144cf6080830184614477565b9695505050505050565b600067ffffffffffffffff8211156144f4576144f36140d7565b5b602082029050602081019050919050565b6000614518614513846144d9565b614137565b9050808382526020820190506020840283018581111561453b5761453a613d9f565b5b835b8181101561456457806145508882613f1b565b84526020840193505060208101905061453d565b5050509392505050565b600082601f83011261458357614582613d95565b5b8135614593848260208601614505565b91505092915050565b600067ffffffffffffffff8211156145b7576145b66140d7565b5b602082029050602081019050919050565b60006145db6145d68461459c565b614137565b905080838252602082019050602084028301858111156145fe576145fd613d9f565b5b835b8181101561462757806146138882613fb8565b845260208401935050602081019050614600565b5050509392505050565b600082601f83011261464657614645613d95565b5b81356146568482602086016145c8565b91505092915050565b6000806040838503121561467657614675613d8b565b5b600083013567ffffffffffffffff81111561469457614693613d90565b5b6146a08582860161456e565b925050602083013567ffffffffffffffff8111156146c1576146c0613d90565b5b6146cd85828601614631565b9150509250929050565b600082825260208201905092915050565b6000819050919050565b6146fb81613e42565b82525050565b600061470d83836146f2565b60208301905092915050565b60006147286020840184613e71565b905092915050565b6000602082019050919050565b600061474983856146d7565b9350614754826146e8565b8060005b8581101561478d5761476a8284614719565b6147748882614701565b975061477f83614730565b925050600181019050614758565b5085925050509392505050565b600060608201905081810360008301526147b581868861473d565b90506147c46020830185613f5d565b6147d16040830184614477565b95945050505050565b6000815190506147e981613e16565b92915050565b60006020828403121561480557614804613d8b565b5b6000614813848285016147da565b91505092915050565b60006040820190506148316000830185614468565b61483e6020830184613f5d565b9392505050565b7f4e487b7100000000000000000000000000000000000000000000000000000000600052603260045260246000fd5b60006020828403121561488a57614889613d8b565b5b600061489884828501613e71565b91505092915050565b600082825260208201905092915050565b7f4f72646572426f6f6b3a20657865637574696e6720616761696e73742061206260008201527f7579206f72646572000000000000000000000000000000000000000000000000602082015250565b600061490e6028836148a1565b9150614919826148b2565b604082019050919050565b6000602082019050818103600083015261493d81614901565b9050919050565b7f4f72646572426f6f6b3a206f72646572206e6f742065786563757461626c6500600082015250565b600061497a601f836148a1565b915061498582614944565b602082019050919050565b600060208201905081810360008301526149a98161496d565b9050919050565b7f4e487b7100000000000000000000000000000000000000000000000000000000600052601160045260246000fd5b60006149ea82613efa565b91506149f583613efa565b9250828201905080821115614a0d57614a0c6149b0565b5b92915050565b6000614a1e82613dfa565b9150614a2983613dfa565b925082820390506fffffffffffffffffffffffffffffffff811115614a5157614a506149b0565b5b92915050565b6000614a6282613dfa565b9150614a6d83613dfa565b925082820190506fffffffffffffffffffffffffffffffff811115614a9557614a946149b0565b5b92915050565b6000606082019050614ab06000830186614459565b614abd6020830185614459565b614aca604083018461409c565b949350505050565b600081519050614ae181613fa1565b92915050565b600060208284031215614afd57614afc613d8b565b5b6000614b0b84828501614ad2565b91505092915050565b7f696e73756666696369656e7420766f6c756d65206f6e20626f6f6b0000000000600082015250565b6000614b4a601b836148a1565b9150614b5582614b14565b602082019050919050565b60006020820190508181036000830152614b7981614b3d565b9050919050565b60008160011c9050919050565b6000808291508390505b6001851115614bd757808604811115614bb357614bb26149b0565b5b6001851615614bc25780820291505b8081029050614bd085614b80565b9450614b97565b94509492505050565b600082614bf05760019050614cac565b81614bfe5760009050614cac565b8160018114614c145760028114614c1e57614c4d565b6001915050614cac565b60ff841115614c3057614c2f6149b0565b5b8360020a915084821115614c4757614c466149b0565b5b50614cac565b5060208310610133831016604e8410600b8410161715614c825782820a905083811115614c7d57614c7c6149b0565b5b614cac565b614c8f8484846001614b8d565b92509050818404811115614ca657614ca56149b0565b5b81810290505b9392505050565b6000614cbe82613efa565b9150614cc983613efa565b9250614cf67fffffffffffffffffffffffffffffffffffffffffffffffffffffffffffffffff8484614be0565b905092915050565b6000614d0982613efa565b9150614d1483613efa565b9250828202614d2281613efa565b91508282048414831517614d3957614d386149b0565b5b5092915050565b7f4e487b7100000000000000000000000000000000000000000000000000000000600052601260045260246000fd5b6000614d7a82613efa565b9150614d8583613efa565b925082614d9557614d94614d40565b5b828204905092915050565b6000604082019050614db56000830185614459565b614dc2602083018461409c565b9392505050565b600081519050919050565b600082825260208201905092915050565b6000819050602082019050919050565b614dfe81613efa565b82525050565b6000614e108383614df5565b60208301905092915050565b6000602082019050919050565b6000614e3482614dc9565b614e3e8185614dd4565b9350614e4983614de5565b8060005b83811015614e7a578151614e618882614e04565b9750614e6c83614e1c565b925050600181019050614e4d565b5085935050505092915050565b60006020820190508181036000830152614ea18184614e29565b905092915050565b6000614eb482613dfa565b9150614ebf83613dfa565b9250828202614ecd81613dfa565b9150808214614edf57614ede6149b0565b5b5092915050565b600060c082019050614efb600083018961409c565b614f086020830188614459565b614f156040830187614468565b614f226060830186613f5d565b614f2f6080830185613f5d565b614f3c60a0830184614477565b979650505050505050565b7f4f72646572426f6f6b3a2050726963657320616e642073697a6573206172726160008201527f79206c656e677468206d757374206d6174636800000000000000000000000000602082015250565b6000614fa36033836148a1565b9150614fae82614f47565b604082019050919050565b60006020820190508181036000830152614fd281614f96565b9050919050565b6000614fe482613efa565b91507fffffffffffffffffffffffffffffffffffffffffffffffffffffffffffffffff8203615016576150156149b0565b5b600182019050919050565b7f4f72646572426f6f6b3a204f6e6c79206f72646572206f776e65722063616e2060008201527f757064617465206f726465720000000000000000000000000000000000000000602082015250565b600061507d602c836148a1565b915061508882615021565b604082019050919050565b600060208201905081810360008301526150ac81615070565b9050919050565b7f4f72646572426f6f6b3a20657865637574696e6720616761696e73742061207360008201527f656c6c206f726465720000000000000000000000000000000000000000000000602082015250565b600061510f6029836148a1565b915061511a826150b3565b604082019050919050565b6000602082019050818103600083015261513e81615102565b9050919050565b7f4f72646572426f6f6b3a2043616e63656c6c696e6720627579206f7264657200600082015250565b600061517b601f836148a1565b915061518682615145565b602082019050919050565b600060208201905081810360008301526151aa8161516e565b9050919050565b7f4f72646572426f6f6b3a204f6e6c79206f72646572206f776e65722063616e2060008201527f63616e63656c206f726465720000000000000000000000000000000000000000602082015250565b600061520d602c836148a1565b9150615218826151b1565b604082019050919050565b6000602082019050818103600083015261523c81615200565b9050919050565b7f4f72646572426f6f6b3a2043616e63656c6c696e672073656c6c206f72646572600082015250565b60006152796020836148a1565b915061528482615243565b602082019050919050565b600060208201905081810360008301526152a88161526c565b905091905056fea26469706673582212201f680aa2e8c75ed9821dbdeb72fb6701f72bcf09fbd7c3cebe80fd051b877b6264736f6c63430008110033",
  "linkReferences": {},
  "deployedLinkReferences": {}
}