{
  "_format": "hh-sol-artifact-1",
  "contractName": "CranklessStorageOrderBook",
  "sourceName": "contracts/CranklessStorageOrderBook.sol",
  "abi": [
    {
      "inputs": [
        {
          "internalType": "address",
          "name": "_baseAssetAddress",
          "type": "address"
        },
        {
          "internalType": "uint256",
          "name": "_baseAssetDecimals",
          "type": "uint256"
        },
        {
          "internalType": "address",
          "name": "_quoteAssetAddress",
          "type": "address"
        },
        {
          "internalType": "uint256",
          "name": "_quoteAssetDecimals",
          "type": "uint256"
        },
        {
          "internalType": "address",
          "name": "_marginAccountAddress",
          "type": "address"
        },
        {
          "internalType": "uint96",
          "name": "_sizePrecision",
          "type": "uint96"
        },
        {
          "internalType": "uint24",
          "name": "_pricePrecision",
          "type": "uint24"
        },
        {
          "internalType": "uint96",
          "name": "_tickSize",
          "type": "uint96"
        },
        {
          "internalType": "uint96",
          "name": "_minSize",
          "type": "uint96"
        },
        {
          "internalType": "uint96",
          "name": "_maxSize",
          "type": "uint96"
        },
        {
          "internalType": "uint256",
          "name": "_takerFeeBps",
          "type": "uint256"
        }
      ],
      "stateMutability": "nonpayable",
      "type": "constructor"
    },
    {
      "anonymous": false,
      "inputs": [
        {
          "indexed": false,
          "internalType": "address",
          "name": "takerAddress",
          "type": "address"
        },
        {
          "indexed": false,
          "internalType": "uint96",
          "name": "orderSize",
          "type": "uint96"
        }
      ],
      "name": "BuyIOC",
      "type": "event"
    },
    {
      "anonymous": false,
      "inputs": [
        {
          "indexed": false,
          "internalType": "uint8",
          "name": "version",
          "type": "uint8"
        }
      ],
      "name": "Initialized",
      "type": "event"
    },
    {
      "anonymous": false,
      "inputs": [
        {
          "indexed": false,
          "internalType": "uint256",
          "name": "orderId",
          "type": "uint256"
        },
        {
          "indexed": false,
          "internalType": "address",
          "name": "owner",
          "type": "address"
        },
        {
          "indexed": false,
          "internalType": "uint96",
          "name": "size",
          "type": "uint96"
        },
        {
          "indexed": false,
          "internalType": "uint24",
          "name": "price",
          "type": "uint24"
        },
        {
          "indexed": false,
          "internalType": "bool",
          "name": "isBuy",
          "type": "bool"
        }
      ],
      "name": "OrderCreated",
      "type": "event"
    },
    {
      "anonymous": false,
      "inputs": [
        {
          "indexed": false,
          "internalType": "uint256",
          "name": "orderId",
          "type": "uint256"
        },
        {
          "indexed": false,
          "internalType": "uint96",
          "name": "updatedSize",
          "type": "uint96"
        }
      ],
      "name": "OrderUpdated",
      "type": "event"
    },
    {
      "anonymous": false,
      "inputs": [
        {
          "indexed": false,
          "internalType": "uint256[]",
          "name": "orderId",
          "type": "uint256[]"
        }
      ],
      "name": "OrdersCanceled",
      "type": "event"
    },
    {
      "anonymous": false,
      "inputs": [
        {
          "indexed": false,
          "internalType": "uint256[]",
          "name": "orderIds",
          "type": "uint256[]"
        },
        {
          "indexed": false,
          "internalType": "uint96[]",
          "name": "updatedSizes",
          "type": "uint96[]"
        }
      ],
      "name": "OrdersUpdated",
      "type": "event"
    },
    {
      "anonymous": false,
      "inputs": [
        {
          "indexed": true,
          "internalType": "address",
          "name": "previousOwner",
          "type": "address"
        },
        {
          "indexed": true,
          "internalType": "address",
          "name": "newOwner",
          "type": "address"
        }
      ],
      "name": "OwnershipTransferred",
      "type": "event"
    },
    {
      "anonymous": false,
      "inputs": [
        {
          "indexed": false,
          "internalType": "address",
          "name": "takerAddress",
          "type": "address"
        },
        {
          "indexed": false,
          "internalType": "uint96",
          "name": "orderSize",
          "type": "uint96"
        }
      ],
      "name": "SellIOC",
      "type": "event"
    },
    {
      "inputs": [
        {
          "internalType": "uint24",
          "name": "_price",
          "type": "uint24"
        },
        {
          "internalType": "uint96",
          "name": "size",
          "type": "uint96"
        },
        {
          "internalType": "bool",
          "name": "_useMargin",
          "type": "bool"
        }
      ],
      "name": "addBuyOrder",
      "outputs": [],
      "stateMutability": "nonpayable",
      "type": "function"
    },
    {
      "inputs": [
        {
          "internalType": "uint24",
          "name": "_price",
          "type": "uint24"
        },
        {
          "internalType": "uint96",
          "name": "size",
          "type": "uint96"
        },
        {
          "internalType": "bool",
          "name": "_useMargin",
          "type": "bool"
        }
      ],
      "name": "addSellOrder",
      "outputs": [],
      "stateMutability": "nonpayable",
      "type": "function"
    },
    {
      "inputs": [
        {
          "internalType": "uint256[]",
          "name": "_orderIds",
          "type": "uint256[]"
        },
        {
          "internalType": "bool",
          "name": "_useMargin",
          "type": "bool"
        }
      ],
      "name": "batchCancelOrders",
      "outputs": [],
      "stateMutability": "nonpayable",
      "type": "function"
    },
    {
      "inputs": [
        {
          "internalType": "uint256[]",
          "name": "_orderIds",
          "type": "uint256[]"
        },
        {
          "internalType": "uint96[]",
          "name": "_updatedSizes",
          "type": "uint96[]"
        },
        {
          "internalType": "bool",
          "name": "_useMargin",
          "type": "bool"
        }
      ],
      "name": "decreaseOrders",
      "outputs": [],
      "stateMutability": "nonpayable",
      "type": "function"
    },
    {
      "inputs": [
        {
          "internalType": "address",
          "name": "_owner",
          "type": "address"
        }
      ],
      "name": "initialize",
      "outputs": [],
      "stateMutability": "nonpayable",
      "type": "function"
    },
    {
      "inputs": [],
      "name": "owner",
      "outputs": [
        {
          "internalType": "address",
          "name": "",
          "type": "address"
        }
      ],
      "stateMutability": "view",
      "type": "function"
    },
    {
      "inputs": [],
      "name": "pauseMarkets",
      "outputs": [],
      "stateMutability": "nonpayable",
      "type": "function"
    },
    {
      "inputs": [
        {
          "internalType": "uint24",
          "name": "_quoteSize",
          "type": "uint24"
        },
        {
          "internalType": "bool",
          "name": "_isFillOrKill",
          "type": "bool"
        }
      ],
      "name": "placeAndExecuteMarketBuy",
      "outputs": [],
      "stateMutability": "nonpayable",
      "type": "function"
    },
    {
      "inputs": [
        {
          "internalType": "uint96",
          "name": "_size",
          "type": "uint96"
        },
        {
          "internalType": "bool",
          "name": "_isFillOrKill",
          "type": "bool"
        }
      ],
      "name": "placeAndExecuteMarketSell",
      "outputs": [],
      "stateMutability": "nonpayable",
      "type": "function"
    },
    {
      "inputs": [
        {
          "internalType": "uint24[]",
          "name": "_prices",
          "type": "uint24[]"
        },
        {
          "internalType": "uint96[]",
          "name": "_sizes",
          "type": "uint96[]"
        },
        {
          "internalType": "bool",
          "name": "_useMargin",
          "type": "bool"
        }
      ],
      "name": "placeMultipleBuyOrders",
      "outputs": [],
      "stateMutability": "nonpayable",
      "type": "function"
    },
    {
      "inputs": [
        {
          "internalType": "uint24[]",
          "name": "_prices",
          "type": "uint24[]"
        },
        {
          "internalType": "uint96[]",
          "name": "_sizes",
          "type": "uint96[]"
        },
        {
          "internalType": "bool",
          "name": "_useMargin",
          "type": "bool"
        }
      ],
      "name": "placeMultipleSellOrders",
      "outputs": [],
      "stateMutability": "nonpayable",
      "type": "function"
    },
    {
      "inputs": [],
      "name": "renounceOwnership",
      "outputs": [],
      "stateMutability": "nonpayable",
      "type": "function"
    },
    {
      "inputs": [
        {
          "internalType": "uint256",
          "name": "",
          "type": "uint256"
        }
      ],
      "name": "s_buyPricePoints",
      "outputs": [
        {
          "internalType": "uint256",
          "name": "head",
          "type": "uint256"
        },
        {
          "internalType": "uint256",
          "name": "tail",
          "type": "uint256"
        }
      ],
      "stateMutability": "view",
      "type": "function"
    },
    {
      "inputs": [],
      "name": "s_buyTree",
      "outputs": [
        {
          "internalType": "bytes32",
          "name": "level0",
          "type": "bytes32"
        }
      ],
      "stateMutability": "view",
      "type": "function"
    },
    {
      "inputs": [],
      "name": "s_orderIdCounter",
      "outputs": [
        {
          "internalType": "uint256",
          "name": "",
          "type": "uint256"
        }
      ],
      "stateMutability": "view",
      "type": "function"
    },
    {
      "inputs": [
        {
          "internalType": "uint256",
          "name": "",
          "type": "uint256"
        }
      ],
      "name": "s_orders",
      "outputs": [
        {
          "internalType": "uint256",
          "name": "prev",
          "type": "uint256"
        },
        {
          "internalType": "uint256",
          "name": "next",
          "type": "uint256"
        },
        {
          "internalType": "address",
          "name": "ownerAddress",
          "type": "address"
        },
        {
          "internalType": "uint96",
          "name": "size",
          "type": "uint96"
        },
        {
          "internalType": "uint24",
          "name": "price",
          "type": "uint24"
        },
        {
          "internalType": "bool",
          "name": "isBuy",
          "type": "bool"
        }
      ],
      "stateMutability": "view",
      "type": "function"
    },
    {
      "inputs": [
        {
          "internalType": "uint256",
          "name": "",
          "type": "uint256"
        }
      ],
      "name": "s_sellPricePoints",
      "outputs": [
        {
          "internalType": "uint256",
          "name": "head",
          "type": "uint256"
        },
        {
          "internalType": "uint256",
          "name": "tail",
          "type": "uint256"
        }
      ],
      "stateMutability": "view",
      "type": "function"
    },
    {
      "inputs": [],
      "name": "s_sellTree",
      "outputs": [
        {
          "internalType": "bytes32",
          "name": "level0",
          "type": "bytes32"
        }
      ],
      "stateMutability": "view",
      "type": "function"
    },
    {
      "inputs": [
        {
          "internalType": "address",
          "name": "newOwner",
          "type": "address"
        }
      ],
      "name": "transferOwnership",
      "outputs": [],
      "stateMutability": "nonpayable",
      "type": "function"
    }
  ],
  "bytecode": "0x6101e06040523480156200001257600080fd5b5060405162005b4338038062005b438339818101604052810190620000389190620002ea565b8a8a8a8a8a8a8a8a8a8a8a8a73ffffffffffffffffffffffffffffffffffffffff166101408173ffffffffffffffffffffffffffffffffffffffff16815250508873ffffffffffffffffffffffffffffffffffffffff166101608173ffffffffffffffffffffffffffffffffffffffff1681525050896101a08181525050876101c081815250508673ffffffffffffffffffffffffffffffffffffffff166101808173ffffffffffffffffffffffffffffffffffffffff1681525050856bffffffffffffffffffffffff166080816bffffffffffffffffffffffff16815250508462ffffff1660a08162ffffff1681525050836bffffffffffffffffffffffff1660c0816bffffffffffffffffffffffff1681525050826bffffffffffffffffffffffff1660e0816bffffffffffffffffffffffff1681525050816bffffffffffffffffffffffff16610100816bffffffffffffffffffffffff168152505080610120818152505050505050505050505050505050505050505050505050620003f7565b600080fd5b600073ffffffffffffffffffffffffffffffffffffffff82169050919050565b6000620001ee82620001c1565b9050919050565b6200020081620001e1565b81146200020c57600080fd5b50565b6000815190506200022081620001f5565b92915050565b6000819050919050565b6200023b8162000226565b81146200024757600080fd5b50565b6000815190506200025b8162000230565b92915050565b60006bffffffffffffffffffffffff82169050919050565b620002848162000261565b81146200029057600080fd5b50565b600081519050620002a48162000279565b92915050565b600062ffffff82169050919050565b620002c481620002aa565b8114620002d057600080fd5b50565b600081519050620002e481620002b9565b92915050565b60008060008060008060008060008060006101608c8e031215620003135762000312620001bc565b5b6000620003238e828f016200020f565b9b50506020620003368e828f016200024a565b9a50506040620003498e828f016200020f565b99505060606200035c8e828f016200024a565b98505060806200036f8e828f016200020f565b97505060a0620003828e828f0162000293565b96505060c0620003958e828f01620002d3565b95505060e0620003a88e828f0162000293565b945050610100620003bc8e828f0162000293565b935050610120620003d08e828f0162000293565b925050610140620003e48e828f016200024a565b9150509295989b509295989b9093969950565b60805160a05160c05160e05161010051610120516101405161016051610180516101a0516101c0516154fe6200064560003960008181610491015281816106210152818161140a0152818161157301528181611c440152818161203a0152818161275d01528181612e1f0152613e1701526000818161093d01528181610f1f015281816110c50152818161291701528181612f870152613c4b01526000818161044a0152818161059d01528181610ecf01528181611038015281816114ef01528181611b7c01528181611d3501528181611dbd01528181611f42015281816126a60152818161288601528181612d6801528181612ef60152613cb201526000818161040d015281816105da015281816113940152818161152c01528181611f7f015281816126e701528181612da90152613bf10152600081816108ed01528181610e920152818161107501528181611bb9015281816128c701528181612f370152613bcb015260008181611c16015261200c0152600081816107eb015261129201526000818161076d015281816112140152612ccc01526000818161086b015261131201526000818161046b015281816105fb015281816113e40152818161154d01528181611fa30152818161273701528181612df90152613dd901526000818161090e01528181610ef001528181611096015281816113b50152818161148201528181611a9401528181611b1301528181611bdd01528181611fc901528181612708015281816128e801528181612dca01528181612f5801528181613c1c0152613db801526154fe6000f3fe608060405234801561001057600080fd5b50600436106101215760003560e01c8063badc92d1116100ad578063cc57aec611610071578063cc57aec6146102c0578063d2cd7d7f146102dc578063e6d29b51146102f8578063f2fde38b14610329578063fbf246201461034557610121565b8063badc92d114610232578063bb62b3c514610250578063c479379c1461026c578063c4d66de814610288578063cae22ee6146102a457610121565b80632bf1360e116100f45780632bf1360e1461019b5780635b16c9b6146101b9578063715018a6146101d55780638da5cb5b146101df578063a6f3c50f146101fd57610121565b806302b90c65146101265780630e2e2ffe146101445780631c4f3f31146101755780632aa9fbdc1461017f575b600080fd5b61012e610361565b60405161013b9190613e91565b60405180910390f35b61015e60048036038101906101599190613eec565b61036d565b60405161016c929190613f28565b60405180910390f35b61017d610391565b005b61019960048036038101906101949190613fc4565b6103b6565b005b6101a3610715565b6040516101b09190614004565b60405180910390f35b6101d360048036038101906101ce9190614063565b61071b565b005b6101dd610a7b565b005b6101e7610a8f565b6040516101f491906140f7565b60405180910390f35b61021760048036038101906102129190613eec565b610ab9565b6040516102299695949392919061413f565b60405180910390f35b61023a610b49565b6040516102479190613e91565b60405180910390f35b61026a6004803603810190610265919061425b565b610b55565b005b61028660048036038101906102819190614346565b610c6f565b005b6102a2600480360381019061029d91906143d2565b610cf3565b005b6102be60048036038101906102b991906143ff565b610e3b565b005b6102da60048036038101906102d59190614063565b6111c2565b005b6102f660048036038101906102f1919061425b565b611700565b005b610312600480360381019061030d9190613eec565b61181a565b604051610320929190613f28565b60405180910390f35b610343600480360381019061033e91906143d2565b61183e565b005b61035f600480360381019061035a919061443f565b6118c1565b005b606b8060000154905081565b60676020528060005260406000206000915090508060000154908060010154905082565b6103996119c2565b6001606f60006101000a81548160ff021916908315150217905550565b606f60009054906101000a900460ff1615610406576040517f08c379a00000000000000000000000000000000000000000000000000000000081526004016103fd90614531565b60405180910390fd5b60008290507f000000000000000000000000000000000000000000000000000000000000000073ffffffffffffffffffffffffffffffffffffffff166323b872dd337f00000000000000000000000000000000000000000000000000000000000000007f000000000000000000000000000000000000000000000000000000000000000062ffffff167f0000000000000000000000000000000000000000000000000000000000000000600a6104bc91906146b3565b8862ffffff166104cc91906146fe565b6104d6919061476f565b6040518463ffffffff1660e01b81526004016104f4939291906147a0565b6020604051808303816000875af1158015610513573d6000803e3d6000fd5b505050506040513d601f19601f8201168201806040525081019061053791906147ec565b5061054762ffffff846000611a40565b90508093505060008362ffffff16106106cc57811561059b576040517f08c379a00000000000000000000000000000000000000000000000000000000081526004016105929061488b565b60405180910390fd5b7f000000000000000000000000000000000000000000000000000000000000000073ffffffffffffffffffffffffffffffffffffffff166375eab98e337f00000000000000000000000000000000000000000000000000000000000000007f000000000000000000000000000000000000000000000000000000000000000062ffffff167f0000000000000000000000000000000000000000000000000000000000000000600a61064c91906146b3565b8862ffffff1661065c91906146fe565b610666919061476f565b60006040518563ffffffff1660e01b815260040161068794939291906148ab565b6020604051808303816000875af11580156106a6573d6000803e3d6000fd5b505050506040513d601f19601f820116820180604052508101906106ca91906147ec565b505b7fb871c4d9973a47651e045c6d6da5062136613f3314954f747ebe0b679b3d4c523384836106fa91906148f0565b604051610708929190614962565b60405180910390a1505050565b606e5481565b606f60009054906101000a900460ff161561076b576040517f08c379a000000000000000000000000000000000000000000000000000000000815260040161076290614531565b60405180910390fd5b7f00000000000000000000000000000000000000000000000000000000000000006bffffffffffffffffffffffff16826bffffffffffffffffffffffff16116107e9576040517f08c379a00000000000000000000000000000000000000000000000000000000081526004016107e0906149d7565b60405180910390fd5b7f00000000000000000000000000000000000000000000000000000000000000006bffffffffffffffffffffffff16826bffffffffffffffffffffffff1610610867576040517f08c379a000000000000000000000000000000000000000000000000000000000815260040161085e90614a43565b60405180910390fd5b60007f00000000000000000000000000000000000000000000000000000000000000008462ffffff1661089a9190614a63565b6bffffffffffffffffffffffff16146108e8576040517f08c379a00000000000000000000000000000000000000000000000000000000081526004016108df90614ae0565b60405180910390fd5b6109927f00000000000000000000000000000000000000000000000000000000000000007f00000000000000000000000000000000000000000000000000000000000000006bffffffffffffffffffffffff167f0000000000000000000000000000000000000000000000000000000000000000600a61096891906146b3565b856bffffffffffffffffffffffff1661098191906146fe565b61098b919061476f565b8333611d11565b61099d838383611e63565b91506000826bffffffffffffffffffffffff160315610a76576000606e5490506001816109ca9190614b00565b606e819055506109db606b85612103565b506000610a0b606760008762ffffff168152602001908152602001600020600184610a069190614b00565b612206565b9050610a278585600185610a1f9190614b00565b600085612243565b7fc03c49f24f87be7dacae512f049f02d7ff8605ab95211ff5d51d68bbedb46c59600183610a559190614b00565b3386886000604051610a6b959493929190614b34565b60405180910390a150505b505050565b610a836119c2565b610a8d60006123ab565b565b6000603360009054906101000a900473ffffffffffffffffffffffffffffffffffffffff16905090565b60656020528060005260406000206000915090508060000154908060010154908060020160009054906101000a900473ffffffffffffffffffffffffffffffffffffffff16908060020160149054906101000a90046bffffffffffffffffffffffff16908060030160009054906101000a900462ffffff16908060030160039054906101000a900460ff16905086565b60688060000154905081565b606f60009054906101000a900460ff1615610ba5576040517f08c379a0000000000000000000000000000000000000000000000000000000008152600401610b9c90614531565b60405180910390fd5b828290508585905014610bed576040517f08c379a0000000000000000000000000000000000000000000000000000000008152600401610be490614bf9565b60405180910390fd5b60005b85859050811015610c6757610c54868683818110610c1157610c10614c19565b5b9050602002016020810190610c269190614c48565b858584818110610c3957610c38614c19565b5b9050602002016020810190610c4e9190614c75565b846111c2565b8080610c5f90614ca2565b915050610bf0565b505050505050565b60005b83839050811015610cb457610ca0848483818110610c9357610c92614c19565b5b9050602002013583612471565b508080610cac90614ca2565b915050610c72565b507fb8c1b83991eb85b78cace86a669b42c9710ba0ae7cc785851d03cd1c37b5c4738383604051610ce6929190614d65565b60405180910390a1505050565b60008060019054906101000a900460ff16159050808015610d245750600160008054906101000a900460ff1660ff16105b80610d515750610d3330612a72565b158015610d505750600160008054906101000a900460ff1660ff16145b5b610d90576040517f08c379a0000000000000000000000000000000000000000000000000000000008152600401610d8790614dfb565b60405180910390fd5b60016000806101000a81548160ff021916908360ff1602179055508015610dcd576001600060016101000a81548160ff0219169083151502179055505b610dd5612a95565b610dde826123ab565b8015610e375760008060016101000a81548160ff0219169083151502179055507f7f26b83ff96e1f2b6a682f133852f6798a09c465da95921460cefb38474024986001604051610e2e9190614e63565b60405180910390a15b5050565b606f60009054906101000a900460ff1615610e8b576040517f08c379a0000000000000000000000000000000000000000000000000000000008152600401610e8290614531565b60405180910390fd5b60008290507f000000000000000000000000000000000000000000000000000000000000000073ffffffffffffffffffffffffffffffffffffffff166323b872dd337f00000000000000000000000000000000000000000000000000000000000000007f00000000000000000000000000000000000000000000000000000000000000006bffffffffffffffffffffffff167f0000000000000000000000000000000000000000000000000000000000000000600a610f4a91906146b3565b886bffffffffffffffffffffffff16610f6391906146fe565b610f6d919061476f565b6040518463ffffffff1660e01b8152600401610f8b939291906147a0565b6020604051808303816000875af1158015610faa573d6000803e3d6000fd5b505050506040513d601f19601f82011682018060405250810190610fce91906147ec565b50610fdc6000846000611e63565b92506000836bffffffffffffffffffffffff161115611179578115611036576040517f08c379a000000000000000000000000000000000000000000000000000000000815260040161102d9061488b565b60405180910390fd5b7f000000000000000000000000000000000000000000000000000000000000000073ffffffffffffffffffffffffffffffffffffffff166375eab98e337f00000000000000000000000000000000000000000000000000000000000000007f00000000000000000000000000000000000000000000000000000000000000006bffffffffffffffffffffffff167f0000000000000000000000000000000000000000000000000000000000000000600a6110f091906146b3565b886bffffffffffffffffffffffff1661110991906146fe565b611113919061476f565b60006040518563ffffffff1660e01b815260040161113494939291906148ab565b6020604051808303816000875af1158015611153573d6000803e3d6000fd5b505050506040513d601f19601f8201168201806040525081019061117791906147ec565b505b7fb871c4d9973a47651e045c6d6da5062136613f3314954f747ebe0b679b3d4c523384836111a79190614e7e565b6040516111b5929190614ebe565b60405180910390a1505050565b606f60009054906101000a900460ff1615611212576040517f08c379a000000000000000000000000000000000000000000000000000000000815260040161120990614531565b60405180910390fd5b7f00000000000000000000000000000000000000000000000000000000000000006bffffffffffffffffffffffff16826bffffffffffffffffffffffff1611611290576040517f08c379a0000000000000000000000000000000000000000000000000000000008152600401611287906149d7565b60405180910390fd5b7f00000000000000000000000000000000000000000000000000000000000000006bffffffffffffffffffffffff16826bffffffffffffffffffffffff161061130e576040517f08c379a000000000000000000000000000000000000000000000000000000000815260040161130590614a43565b60405180910390fd5b60007f00000000000000000000000000000000000000000000000000000000000000008462ffffff166113419190614a63565b6bffffffffffffffffffffffff161461138f576040517f08c379a000000000000000000000000000000000000000000000000000000000815260040161138690614ae0565b60405180910390fd5b6114797f00000000000000000000000000000000000000000000000000000000000000007f00000000000000000000000000000000000000000000000000000000000000006bffffffffffffffffffffffff167f000000000000000000000000000000000000000000000000000000000000000062ffffff167f0000000000000000000000000000000000000000000000000000000000000000600a61143591906146b3565b8762ffffff16876114469190614ee7565b6bffffffffffffffffffffffff1661145e91906146fe565b611468919061476f565b611472919061476f565b8333611d11565b6000806114c2857f00000000000000000000000000000000000000000000000000000000000000008762ffffff16876114b29190614ee7565b6114bc9190614f24565b85611a40565b8093508192505050806bffffffffffffffffffffffff16846bffffffffffffffffffffffff1603611623577f000000000000000000000000000000000000000000000000000000000000000073ffffffffffffffffffffffffffffffffffffffff166375eab98e337f00000000000000000000000000000000000000000000000000000000000000007f000000000000000000000000000000000000000000000000000000000000000062ffffff167f0000000000000000000000000000000000000000000000000000000000000000600a61159e91906146b3565b8762ffffff166115ae91906146fe565b6115b8919061476f565b876040518563ffffffff1660e01b81526004016115d894939291906148ab565b6020604051808303816000875af11580156115f7573d6000803e3d6000fd5b505050506040513d601f19601f8201168201806040525081019061161b91906147ec565b5050506116fb565b6000606e5490506001816116379190614b00565b606e81905550611648606887612103565b506000611678606660008962ffffff1681526020019081526020016000206001846116739190614b00565b612206565b905061169f87848861168a9190614e7e565b6001856116979190614b00565b600185612243565b7fc03c49f24f87be7dacae512f049f02d7ff8605ab95211ff5d51d68bbedb46c596001836116cd9190614b00565b3385896116da9190614e7e565b8a60016040516116ee959493929190614b34565b60405180910390a1505050505b505050565b606f60009054906101000a900460ff1615611750576040517f08c379a000000000000000000000000000000000000000000000000000000000815260040161174790614531565b60405180910390fd5b828290508585905014611798576040517f08c379a000000000000000000000000000000000000000000000000000000000815260040161178f90614bf9565b60405180910390fd5b60005b85859050811015611812576117ff8686838181106117bc576117bb614c19565b5b90506020020160208101906117d19190614c48565b8585848181106117e4576117e3614c19565b5b90506020020160208101906117f99190614c75565b8461071b565b808061180a90614ca2565b91505061179b565b505050505050565b60666020528060005260406000206000915090508060000154908060010154905082565b6118466119c2565b600073ffffffffffffffffffffffffffffffffffffffff168173ffffffffffffffffffffffffffffffffffffffff16036118b5576040517f08c379a00000000000000000000000000000000000000000000000000000000081526004016118ac90614fc7565b60405180910390fd5b6118be816123ab565b50565b606f60009054906101000a900460ff1615611911576040517f08c379a000000000000000000000000000000000000000000000000000000000815260040161190890614531565b60405180910390fd5b60005b8585905081101561197d5761196a86868381811061193557611934614c19565b5b9050602002013585858481811061194f5761194e614c19565b5b90506020020160208101906119649190614c75565b84612aee565b808061197590614ca2565b915050611914565b507f4c9a2e211e1781e9465df93599a5ddb216177b8249c5e8557219425061bf79f4858585856040516119b394939291906150aa565b60405180910390a15050505050565b6119ca613086565b73ffffffffffffffffffffffffffffffffffffffff166119e8610a8f565b73ffffffffffffffffffffffffffffffffffffffff1614611a3e576040517f08c379a0000000000000000000000000000000000000000000000000000000008152600401611a3590615131565b60405180910390fd5b565b600080600080611a52606b600061308e565b90505b60008662ffffff16118015611a7357508662ffffff168162ffffff16105b8015611a85575060008162ffffff1614155b15611b635760008162ffffff167f00000000000000000000000000000000000000000000000000000000000000008862ffffff16611ac39190614ee7565b611acd9190614f24565b90508083611adb9190615151565b9250611b01606b83606760008662ffffff168152602001908152602001600020846132b4565b90508083611b0f9190614e7e565b92507f00000000000000000000000000000000000000000000000000000000000000008262ffffff1682611b439190614ee7565b611b4d9190614f24565b9650611b5b606b600061308e565b915050611a55565b6000826bffffffffffffffffffffffff161115611d01577f000000000000000000000000000000000000000000000000000000000000000073ffffffffffffffffffffffffffffffffffffffff166375eab98e337f00000000000000000000000000000000000000000000000000000000000000006127107f00000000000000000000000000000000000000000000000000000000000000006bffffffffffffffffffffffff16611c1491906146fe565b7f0000000000000000000000000000000000000000000000000000000000000000612710611c429190615191565b7f0000000000000000000000000000000000000000000000000000000000000000600a611c6f91906146b3565b886bffffffffffffffffffffffff16611c8891906146fe565b611c9291906146fe565b611c9c919061476f565b896040518563ffffffff1660e01b8152600401611cbc94939291906148ab565b6020604051808303816000875af1158015611cdb573d6000803e3d6000fd5b505050506040513d601f19601f82011682018060405250810190611cff91906147ec565b505b8186935093505050935093915050565b81611dbb578373ffffffffffffffffffffffffffffffffffffffff166323b872dd827f0000000000000000000000000000000000000000000000000000000000000000866040518463ffffffff1660e01b8152600401611d73939291906147a0565b6020604051808303816000875af1158015611d92573d6000803e3d6000fd5b505050506040513d601f19601f82011682018060405250810190611db691906147ec565b611e5c565b7f000000000000000000000000000000000000000000000000000000000000000073ffffffffffffffffffffffffffffffffffffffff16636c1392528286866040518463ffffffff1660e01b8152600401611e18939291906147a0565b6020604051808303816000875af1158015611e37573d6000803e3d6000fd5b505050506040513d601f19601f82011682018060405250810190611e5b91906147ec565b5b5050505050565b600080600090506000611e7a606862ffffff613326565b90505b6000856bffffffffffffffffffffffff16118015611ea457508562ffffff168162ffffff16115b8015611eba575062ffffff80168162ffffff1614155b15611f29576000859050611ee8606883606660008662ffffff168152602001908152602001600020896132b4565b95508162ffffff168682611efc9190614e7e565b611f069190614ee7565b83611f119190615151565b9250611f21606862ffffff613326565b915050611e7d565b6000826bffffffffffffffffffffffff1611156120f7577f000000000000000000000000000000000000000000000000000000000000000073ffffffffffffffffffffffffffffffffffffffff166375eab98e337f00000000000000000000000000000000000000000000000000000000000000006127107f000000000000000000000000000000000000000000000000000000000000000062ffffff167f0000000000000000000000000000000000000000000000000000000000000000611ff29190614ee7565b6bffffffffffffffffffffffff1661200a91906146fe565b7f00000000000000000000000000000000000000000000000000000000000000006127106120389190615191565b7f0000000000000000000000000000000000000000000000000000000000000000600a61206591906146b3565b886bffffffffffffffffffffffff1661207e91906146fe565b61208891906146fe565b612092919061476f565b886040518563ffffffff1660e01b81526004016120b294939291906148ab565b6020604051808303816000875af11580156120d1573d6000803e3d6000fd5b505050506040513d601f19601f820116820180604052508101906120f591906147ec565b505b84925050509392505050565b60008060088362ffffff16901c60001b90506000846002016000838152602001908152602001600020549050600060ff8016851662ffffff166001901b60001b821790508082146121f85780866002016000858152602001908152602001600020819055506000801b82036121ec576000600884901c905086600101600082815260200190815260200160002054925060ff80168460001c166001901b60001b8317876001016000838152602001908152602001600020819055506000801b83036121ea5760ff80168160001c166001901b60001b87600001600082825417925050819055505b505b60019350505050612200565b600093505050505b92915050565b600080836001015490506000810361222f57828460000181905550828460010181905550612239565b8284600101819055505b8091505092915050565b6040518060c00160405280828152602001600081526020013373ffffffffffffffffffffffffffffffffffffffff168152602001856bffffffffffffffffffffffff1681526020018662ffffff16815260200183151581525060656000858152602001908152602001600020600082015181600001556020820151816001015560408201518160020160006101000a81548173ffffffffffffffffffffffffffffffffffffffff021916908373ffffffffffffffffffffffffffffffffffffffff16021790555060608201518160020160146101000a8154816bffffffffffffffffffffffff02191690836bffffffffffffffffffffffff16021790555060808201518160030160006101000a81548162ffffff021916908362ffffff16021790555060a08201518160030160036101000a81548160ff0219169083151502179055509050508260656000838152602001908152602001600020600101819055505050505050565b6000603360009054906101000a900473ffffffffffffffffffffffffffffffffffffffff16905081603360006101000a81548173ffffffffffffffffffffffffffffffffffffffff021916908373ffffffffffffffffffffffffffffffffffffffff1602179055508173ffffffffffffffffffffffffffffffffffffffff168173ffffffffffffffffffffffffffffffffffffffff167f8be0079c531659141344cd1fd0a4f28419497f9722a3daafe3b4186f6b6457e060405160405180910390a35050565b600080606560008581526020019081526020016000206040518060c001604052908160008201548152602001600182015481526020016002820160009054906101000a900473ffffffffffffffffffffffffffffffffffffffff1673ffffffffffffffffffffffffffffffffffffffff1673ffffffffffffffffffffffffffffffffffffffff1681526020016002820160149054906101000a90046bffffffffffffffffffffffff166bffffffffffffffffffffffff166bffffffffffffffffffffffff1681526020016003820160009054906101000a900462ffffff1662ffffff1662ffffff1681526020016003820160039054906101000a900460ff1615151515815250509050806040015173ffffffffffffffffffffffffffffffffffffffff163373ffffffffffffffffffffffffffffffffffffffff16146125ec576040517f08c379a00000000000000000000000000000000000000000000000000000000081526004016125e390615237565b60405180910390fd5b600081600001511461261c5780602001516065600083600001518152602001908152602001600020600101819055505b600081602001511461264c5780600001516065600083602001518152602001908152602001600020600001819055505b8060a00151156128365761268460666000836080015162ffffff16815260200190815260200160002082600001518360200151613548565b80602001518160000151036126a4576126a260688260800151613571565b505b7f000000000000000000000000000000000000000000000000000000000000000073ffffffffffffffffffffffffffffffffffffffff166375eab98e82604001517f00000000000000000000000000000000000000000000000000000000000000007f00000000000000000000000000000000000000000000000000000000000000006bffffffffffffffffffffffff167f000000000000000000000000000000000000000000000000000000000000000062ffffff167f0000000000000000000000000000000000000000000000000000000000000000600a61278891906146b3565b876080015162ffffff1688606001516127a19190614ee7565b6bffffffffffffffffffffffff166127b991906146fe565b6127c3919061476f565b6127cd919061476f565b876040518563ffffffff1660e01b81526004016127ed94939291906148ab565b6020604051808303816000875af115801561280c573d6000803e3d6000fd5b505050506040513d601f19601f8201168201806040525081019061283091906147ec565b506129ce565b61286460676000836080015162ffffff16815260200190815260200160002082600001518360200151613548565b806020015181600001510361288457612882606b8260800151613571565b505b7f000000000000000000000000000000000000000000000000000000000000000073ffffffffffffffffffffffffffffffffffffffff166375eab98e82604001517f00000000000000000000000000000000000000000000000000000000000000007f00000000000000000000000000000000000000000000000000000000000000006bffffffffffffffffffffffff167f0000000000000000000000000000000000000000000000000000000000000000600a61294291906146b3565b86606001516bffffffffffffffffffffffff1661295f91906146fe565b612969919061476f565b876040518563ffffffff1660e01b815260040161298994939291906148ab565b6020604051808303816000875af11580156129a8573d6000803e3d6000fd5b505050506040513d601f19601f820116820180604052508101906129cc91906147ec565b505b6065600085815260200190815260200160002060008082016000905560018201600090556002820160006101000a81549073ffffffffffffffffffffffffffffffffffffffff02191690556002820160146101000a8154906bffffffffffffffffffffffff02191690556003820160006101000a81549062ffffff02191690556003820160036101000a81549060ff021916905550508060a0015191505092915050565b6000808273ffffffffffffffffffffffffffffffffffffffff163b119050919050565b600060019054906101000a900460ff16612ae4576040517f08c379a0000000000000000000000000000000000000000000000000000000008152600401612adb906152c9565b60405180910390fd5b612aec613677565b565b6000606560008581526020019081526020016000206040518060c001604052908160008201548152602001600182015481526020016002820160009054906101000a900473ffffffffffffffffffffffffffffffffffffffff1673ffffffffffffffffffffffffffffffffffffffff1673ffffffffffffffffffffffffffffffffffffffff1681526020016002820160149054906101000a90046bffffffffffffffffffffffff166bffffffffffffffffffffffff166bffffffffffffffffffffffff1681526020016003820160009054906101000a900462ffffff1662ffffff1662ffffff1681526020016003820160039054906101000a900460ff1615151515815250509050806040015173ffffffffffffffffffffffffffffffffffffffff163373ffffffffffffffffffffffffffffffffffffffff1614612c68576040517f08c379a0000000000000000000000000000000000000000000000000000000008152600401612c5f9061535b565b60405180910390fd5b826bffffffffffffffffffffffff1681606001516bffffffffffffffffffffffff1611612cca576040517f08c379a0000000000000000000000000000000000000000000000000000000008152600401612cc1906153ed565b60405180910390fd5b7f00000000000000000000000000000000000000000000000000000000000000006bffffffffffffffffffffffff16836bffffffffffffffffffffffff1611612d48576040517f08c379a0000000000000000000000000000000000000000000000000000000008152600401612d3f9061547f565b60405180910390fd5b6000838260600151612d5a9190614e7e565b90508160a0015115612ef4577f000000000000000000000000000000000000000000000000000000000000000073ffffffffffffffffffffffffffffffffffffffff166375eab98e83604001517f00000000000000000000000000000000000000000000000000000000000000007f00000000000000000000000000000000000000000000000000000000000000006bffffffffffffffffffffffff167f000000000000000000000000000000000000000000000000000000000000000062ffffff167f0000000000000000000000000000000000000000000000000000000000000000600a612e4a91906146b3565b886080015162ffffff1688612e5f9190614ee7565b6bffffffffffffffffffffffff16612e7791906146fe565b612e81919061476f565b612e8b919061476f565b876040518563ffffffff1660e01b8152600401612eab94939291906148ab565b6020604051808303816000875af1158015612eca573d6000803e3d6000fd5b505050506040513d601f19601f82011682018060405250810190612eee91906147ec565b5061303a565b7f000000000000000000000000000000000000000000000000000000000000000073ffffffffffffffffffffffffffffffffffffffff166375eab98e83604001517f00000000000000000000000000000000000000000000000000000000000000007f00000000000000000000000000000000000000000000000000000000000000006bffffffffffffffffffffffff167f0000000000000000000000000000000000000000000000000000000000000000600a612fb291906146b3565b866bffffffffffffffffffffffff16612fcb91906146fe565b612fd5919061476f565b876040518563ffffffff1660e01b8152600401612ff594939291906148ab565b6020604051808303816000875af1158015613014573d6000803e3d6000fd5b505050506040513d601f19601f8201168201806040525081019061303891906147ec565b505b836065600087815260200190815260200160002060020160146101000a8154816bffffffffffffffffffffffff02191690836bffffffffffffffffffffffff1602179055505050505050565b600033905090565b600080600060088462ffffff16901c60001b9050600060ff80168516905060ff80168160ff161461311d5785600201600083815260200190815260200160002054925060006130dd84836136d8565b90507fffffffffffffffffffffffffffffffffffffffffffffffffffffffffffffffff811461311b578060088460001c901b179450505050506132ae565b505b6000600883901c905060ff80168360001c16915060ff80168260ff16146131d857866001016000828152602001908152602001600020549350600061316285846136d8565b90507fffffffffffffffffffffffffffffffffffffffffffffffffffffffffffffffff81146131d6578060088360001c901b1760001b93508760020160008581526020019081526020016000205494506131be8560001c6136fb565b60ff1660088560001c901b17955050505050506132ae565b505b60ff80168160001c16915060ff80168260ff16146132a55786600001549350600061320385846136d8565b90507fffffffffffffffffffffffffffffffffffffffffffffffffffffffffffffffff81146132a3578060001b91508760010160008381526020019081526020016000205494506132568560001c6136fb565b60ff1660088360001c901b1760001b935087600201600085815260200190815260200160002054945061328b8560001c6136fb565b60ff1660088560001c901b17955050505050506132ae565b505b60009450505050505b92915050565b60008190506000836000015490505b6000826bffffffffffffffffffffffff161180156132e2575060008114155b156132fe576132f181836137af565b80925081935050506132c3565b6133088482613a4c565b506000810361331d5761331b8686613571565b505b50949350505050565b600080600060088462ffffff16901c60001b9050600060ff80168516905060008160ff16146133b35785600201600083815260200190815260200160002054925060006133738483613a86565b90507fffffffffffffffffffffffffffffffffffffffffffffffffffffffffffffffff81146133b1578060088460001c901b17945050505050613542565b505b6000600883901c905060ff80168360001c16915060008260ff161461346c5786600101600082815260200190815260200160002054935060006133f68584613a86565b90507fffffffffffffffffffffffffffffffffffffffffffffffffffffffffffffffff811461346a578060088360001c901b1760001b93508760020160008581526020019081526020016000205494506134528560001c613aa9565b60ff1660088560001c901b1795505050505050613542565b505b60ff80168160001c16915060008260ff1614613537578660000154935060006134958584613a86565b90507fffffffffffffffffffffffffffffffffffffffffffffffffffffffffffffffff8114613535578060001b91508760010160008381526020019081526020016000205494506134e88560001c613aa9565b60ff1660088360001c901b1760001b935087600201600085815260200190815260200160002054945061351d8560001c613aa9565b60ff1660088560001c901b1795505050505050613542565b505b62ffffff9450505050505b92915050565b6000820361355a578083600001819055505b6000810361356c578183600101819055505b505050565b60008060088362ffffff16901c60001b90506000846002016000838152602001908152602001600020549050600060ff8016851662ffffff166001901b60001b19821690508082146136695780866002016000858152602001908152602001600020819055506000801b810361365d576000600884901c905060ff80168460001c166001901b60001b198760010160008381526020019081526020016000205416915081876001016000838152602001908152602001600020819055506000801b820361365b5760ff80168160001c166001901b60001b1987600001600082825416925050819055505b505b60019350505050613671565b600093505050505b92915050565b600060019054906101000a900460ff166136c6576040517f08c379a00000000000000000000000000000000000000000000000000000000081526004016136bd906152c9565b60405180910390fd5b6136d66136d1613086565b6123ab565b565b60006136f3600183018460001c613b7290919063ffffffff16565b905092915050565b60008160801b801561370f57608091508092505b8260401b90508015613725578092506040820191505b8260201b9050801561373b578092506020820191505b8260101b90508015613751578092506010820191505b8260081b90508015613767578092506008820191505b8260041b9050801561377d578092506004820191505b8260021b90508015613793578092506002820191505b8260011b156137a3576001820191505b8160ff03915050919050565b6000806000606560008681526020019081526020016000206040518060c001604052908160008201548152602001600182015481526020016002820160009054906101000a900473ffffffffffffffffffffffffffffffffffffffff1673ffffffffffffffffffffffffffffffffffffffff1673ffffffffffffffffffffffffffffffffffffffff1681526020016002820160149054906101000a90046bffffffffffffffffffffffff166bffffffffffffffffffffffff166bffffffffffffffffffffffff1681526020016003820160009054906101000a900462ffffff1662ffffff1662ffffff1681526020016003820160039054906101000a900460ff16151515158152505090508060200151915080606001516bffffffffffffffffffffffff16846bffffffffffffffffffffffff16116138ef576000613900565b8060600151846138ff9190614e7e565b5b925061393c8160a001511582604001516000866bffffffffffffffffffffffff1614613930578360600151613932565b865b8460800151613bc2565b6000836bffffffffffffffffffffffff1611156139ee576065600086815260200190815260200160002060008082016000905560018201600090556002820160006101000a81549073ffffffffffffffffffffffffffffffffffffffff02191690556002820160146101000a8154906bffffffffffffffffffffffff02191690556003820160006101000a81549062ffffff02191690556003820160036101000a81549060ff02191690555050613a0b565b600060656000878152602001908152602001600020600001819055505b7fc178fd98b2e8835a8d5e6195ece5aa04f51e1458682feacb9f3be747578063978584604051613a3c92919061549f565b60405180910390a1509250929050565b6000808203613a7257600083600001819055506000836001018190555060019050613a80565b818360000181905550600090505b92915050565b6000613aa1600183038460001c613d5c90919063ffffffff16565b905092915050565b60006fffffffffffffffffffffffffffffffff821115613ace578160801c9150608090505b67ffffffffffffffff821115613aeb578160401c91506040810190505b63ffffffff821115613b04578160201c91506020810190505b61ffff821115613b1b578160101c91506010810190505b60ff821115613b31578160081c91506008810190505b600f821115613b47578160041c91506004810190505b6003821115613b5d578160021c91506002810190505b6001821115613b6d576001810190505b919050565b60008160ff1683901c925060008314613b985781613b8f846136fb565b0160ff16613bba565b7fffffffffffffffffffffffffffffffffffffffffffffffffffffffffffffffff5b905092915050565b600084613bef577f0000000000000000000000000000000000000000000000000000000000000000613c11565b7f00000000000000000000000000000000000000000000000000000000000000005b9050600085613c9e577f00000000000000000000000000000000000000000000000000000000000000006bffffffffffffffffffffffff167f0000000000000000000000000000000000000000000000000000000000000000600a613c7691906146b3565b856bffffffffffffffffffffffff16613c8f91906146fe565b613c99919061476f565b613cae565b613cad848462ffffff16613db4565b5b90507f000000000000000000000000000000000000000000000000000000000000000073ffffffffffffffffffffffffffffffffffffffff166375eab98e86848460006040518563ffffffff1660e01b8152600401613d1094939291906148ab565b6020604051808303816000875af1158015613d2f573d6000803e3d6000fd5b505050506040513d601f19601f82011682018060405250810190613d5391906147ec565b50505050505050565b6000808260ff0360ff1690508084901b935060008414613d895780613d8085613aa9565b60ff1603613dab565b7fffffffffffffffffffffffffffffffffffffffffffffffffffffffffffffffff5b91505092915050565b60007f00000000000000000000000000000000000000000000000000000000000000007f000000000000000000000000000000000000000000000000000000000000000062ffffff16613e079190614ee7565b6bffffffffffffffffffffffff167f0000000000000000000000000000000000000000000000000000000000000000600a613e4291906146b3565b8385613e4e9190614ee7565b6bffffffffffffffffffffffff16613e6691906146fe565b613e70919061476f565b905092915050565b6000819050919050565b613e8b81613e78565b82525050565b6000602082019050613ea66000830184613e82565b92915050565b600080fd5b600080fd5b6000819050919050565b613ec981613eb6565b8114613ed457600080fd5b50565b600081359050613ee681613ec0565b92915050565b600060208284031215613f0257613f01613eac565b5b6000613f1084828501613ed7565b91505092915050565b613f2281613eb6565b82525050565b6000604082019050613f3d6000830185613f19565b613f4a6020830184613f19565b9392505050565b600062ffffff82169050919050565b613f6981613f51565b8114613f7457600080fd5b50565b600081359050613f8681613f60565b92915050565b60008115159050919050565b613fa181613f8c565b8114613fac57600080fd5b50565b600081359050613fbe81613f98565b92915050565b60008060408385031215613fdb57613fda613eac565b5b6000613fe985828601613f77565b9250506020613ffa85828601613faf565b9150509250929050565b60006020820190506140196000830184613f19565b92915050565b60006bffffffffffffffffffffffff82169050919050565b6140408161401f565b811461404b57600080fd5b50565b60008135905061405d81614037565b92915050565b60008060006060848603121561407c5761407b613eac565b5b600061408a86828701613f77565b935050602061409b8682870161404e565b92505060406140ac86828701613faf565b9150509250925092565b600073ffffffffffffffffffffffffffffffffffffffff82169050919050565b60006140e1826140b6565b9050919050565b6140f1816140d6565b82525050565b600060208201905061410c60008301846140e8565b92915050565b61411b8161401f565b82525050565b61412a81613f51565b82525050565b61413981613f8c565b82525050565b600060c0820190506141546000830189613f19565b6141616020830188613f19565b61416e60408301876140e8565b61417b6060830186614112565b6141886080830185614121565b61419560a0830184614130565b979650505050505050565b600080fd5b600080fd5b600080fd5b60008083601f8401126141c5576141c46141a0565b5b8235905067ffffffffffffffff8111156141e2576141e16141a5565b5b6020830191508360208202830111156141fe576141fd6141aa565b5b9250929050565b60008083601f84011261421b5761421a6141a0565b5b8235905067ffffffffffffffff811115614238576142376141a5565b5b602083019150836020820283011115614254576142536141aa565b5b9250929050565b60008060008060006060868803121561427757614276613eac565b5b600086013567ffffffffffffffff81111561429557614294613eb1565b5b6142a1888289016141af565b9550955050602086013567ffffffffffffffff8111156142c4576142c3613eb1565b5b6142d088828901614205565b935093505060406142e388828901613faf565b9150509295509295909350565b60008083601f840112614306576143056141a0565b5b8235905067ffffffffffffffff811115614323576143226141a5565b5b60208301915083602082028301111561433f5761433e6141aa565b5b9250929050565b60008060006040848603121561435f5761435e613eac565b5b600084013567ffffffffffffffff81111561437d5761437c613eb1565b5b614389868287016142f0565b9350935050602061439c86828701613faf565b9150509250925092565b6143af816140d6565b81146143ba57600080fd5b50565b6000813590506143cc816143a6565b92915050565b6000602082840312156143e8576143e7613eac565b5b60006143f6848285016143bd565b91505092915050565b6000806040838503121561441657614415613eac565b5b60006144248582860161404e565b925050602061443585828601613faf565b9150509250929050565b60008060008060006060868803121561445b5761445a613eac565b5b600086013567ffffffffffffffff81111561447957614478613eb1565b5b614485888289016142f0565b9550955050602086013567ffffffffffffffff8111156144a8576144a7613eb1565b5b6144b488828901614205565b935093505060406144c788828901613faf565b9150509295509295909350565b600082825260208201905092915050565b7f4f72646572426f6f6b3a206d61726b6574206973207061757365640000000000600082015250565b600061451b601b836144d4565b9150614526826144e5565b602082019050919050565b6000602082019050818103600083015261454a8161450e565b9050919050565b7f4e487b7100000000000000000000000000000000000000000000000000000000600052601160045260246000fd5b60008160011c9050919050565b6000808291508390505b60018511156145d7578086048111156145b3576145b2614551565b5b60018516156145c25780820291505b80810290506145d085614580565b9450614597565b94509492505050565b6000826145f057600190506146ac565b816145fe57600090506146ac565b8160018114614614576002811461461e5761464d565b60019150506146ac565b60ff8411156146305761462f614551565b5b8360020a91508482111561464757614646614551565b5b506146ac565b5060208310610133831016604e8410600b84101617156146825782820a90508381111561467d5761467c614551565b5b6146ac565b61468f848484600161458d565b925090508184048111156146a6576146a5614551565b5b81810290505b9392505050565b60006146be82613eb6565b91506146c983613eb6565b92506146f67fffffffffffffffffffffffffffffffffffffffffffffffffffffffffffffffff84846145e0565b905092915050565b600061470982613eb6565b915061471483613eb6565b925082820261472281613eb6565b9150828204841483151761473957614738614551565b5b5092915050565b7f4e487b7100000000000000000000000000000000000000000000000000000000600052601260045260246000fd5b600061477a82613eb6565b915061478583613eb6565b92508261479557614794614740565b5b828204905092915050565b60006060820190506147b560008301866140e8565b6147c260208301856140e8565b6147cf6040830184613f19565b949350505050565b6000815190506147e681613f98565b92915050565b60006020828403121561480257614801613eac565b5b6000614810848285016147d7565b91505092915050565b7f4f72646572426f6f6b3a20696e73756666696369656e7420766f6c756d65206f60008201527f6e20626f6f6b0000000000000000000000000000000000000000000000000000602082015250565b60006148756026836144d4565b915061488082614819565b604082019050919050565b600060208201905081810360008301526148a481614868565b9050919050565b60006080820190506148c060008301876140e8565b6148cd60208301866140e8565b6148da6040830185613f19565b6148e76060830184614130565b95945050505050565b60006148fb82613f51565b915061490683613f51565b9250828203905062ffffff81111561492157614920614551565b5b92915050565b6000819050919050565b600061494c61494761494284613f51565b614927565b61401f565b9050919050565b61495c81614931565b82525050565b600060408201905061497760008301856140e8565b6149846020830184614953565b9392505050565b7f4f72646572426f6f6b3a2053697a6520746f6f206c6f77000000000000000000600082015250565b60006149c16017836144d4565b91506149cc8261498b565b602082019050919050565b600060208201905081810360008301526149f0816149b4565b9050919050565b7f4f72646572426f6f6b3a2053697a6520746f6f206c6172676500000000000000600082015250565b6000614a2d6019836144d4565b9150614a38826149f7565b602082019050919050565b60006020820190508181036000830152614a5c81614a20565b9050919050565b6000614a6e8261401f565b9150614a798361401f565b925082614a8957614a88614740565b5b828206905092915050565b7f4f72646572426f6f6b3a205469636b2053697a65000000000000000000000000600082015250565b6000614aca6014836144d4565b9150614ad582614a94565b602082019050919050565b60006020820190508181036000830152614af981614abd565b9050919050565b6000614b0b82613eb6565b9150614b1683613eb6565b9250828201905080821115614b2e57614b2d614551565b5b92915050565b600060a082019050614b496000830188613f19565b614b5660208301876140e8565b614b636040830186614112565b614b706060830185614121565b614b7d6080830184614130565b9695505050505050565b7f4f72646572426f6f6b3a2050726963657320616e642073697a6573206172726160008201527f79206c656e677468206d757374206d6174636800000000000000000000000000602082015250565b6000614be36033836144d4565b9150614bee82614b87565b604082019050919050565b60006020820190508181036000830152614c1281614bd6565b9050919050565b7f4e487b7100000000000000000000000000000000000000000000000000000000600052603260045260246000fd5b600060208284031215614c5e57614c5d613eac565b5b6000614c6c84828501613f77565b91505092915050565b600060208284031215614c8b57614c8a613eac565b5b6000614c998482850161404e565b91505092915050565b6000614cad82613eb6565b91507fffffffffffffffffffffffffffffffffffffffffffffffffffffffffffffffff8203614cdf57614cde614551565b5b600182019050919050565b600082825260208201905092915050565b600080fd5b82818337505050565b6000614d158385614cea565b93507f07ffffffffffffffffffffffffffffffffffffffffffffffffffffffffffffff831115614d4857614d47614cfb565b5b602083029250614d59838584614d00565b82840190509392505050565b60006020820190508181036000830152614d80818486614d09565b90509392505050565b7f496e697469616c697a61626c653a20636f6e747261637420697320616c72656160008201527f647920696e697469616c697a6564000000000000000000000000000000000000602082015250565b6000614de5602e836144d4565b9150614df082614d89565b604082019050919050565b60006020820190508181036000830152614e1481614dd8565b9050919050565b6000819050919050565b600060ff82169050919050565b6000614e4d614e48614e4384614e1b565b614927565b614e25565b9050919050565b614e5d81614e32565b82525050565b6000602082019050614e786000830184614e54565b92915050565b6000614e898261401f565b9150614e948361401f565b925082820390506bffffffffffffffffffffffff811115614eb857614eb7614551565b5b92915050565b6000604082019050614ed360008301856140e8565b614ee06020830184614112565b9392505050565b6000614ef28261401f565b9150614efd8361401f565b9250828202614f0b8161401f565b9150808214614f1d57614f1c614551565b5b5092915050565b6000614f2f8261401f565b9150614f3a8361401f565b925082614f4a57614f49614740565b5b828204905092915050565b7f4f776e61626c653a206e6577206f776e657220697320746865207a65726f206160008201527f6464726573730000000000000000000000000000000000000000000000000000602082015250565b6000614fb16026836144d4565b9150614fbc82614f55565b604082019050919050565b60006020820190508181036000830152614fe081614fa4565b9050919050565b600082825260208201905092915050565b6000819050919050565b61500b8161401f565b82525050565b600061501d8383615002565b60208301905092915050565b6000615038602084018461404e565b905092915050565b6000602082019050919050565b60006150598385614fe7565b935061506482614ff8565b8060005b8581101561509d5761507a8284615029565b6150848882615011565b975061508f83615040565b925050600181019050615068565b5085925050509392505050565b600060408201905081810360008301526150c5818688614d09565b905081810360208301526150da81848661504d565b905095945050505050565b7f4f776e61626c653a2063616c6c6572206973206e6f7420746865206f776e6572600082015250565b600061511b6020836144d4565b9150615126826150e5565b602082019050919050565b6000602082019050818103600083015261514a8161510e565b9050919050565b600061515c8261401f565b91506151678361401f565b925082820190506bffffffffffffffffffffffff81111561518b5761518a614551565b5b92915050565b600061519c82613eb6565b91506151a783613eb6565b92508282039050818111156151bf576151be614551565b5b92915050565b7f4f72646572426f6f6b3a204f6e6c79206f72646572206f776e65722063616e2060008201527f63616e63656c206f726465720000000000000000000000000000000000000000602082015250565b6000615221602c836144d4565b915061522c826151c5565b604082019050919050565b6000602082019050818103600083015261525081615214565b9050919050565b7f496e697469616c697a61626c653a20636f6e7472616374206973206e6f74206960008201527f6e697469616c697a696e67000000000000000000000000000000000000000000602082015250565b60006152b3602b836144d4565b91506152be82615257565b604082019050919050565b600060208201905081810360008301526152e2816152a6565b9050919050565b7f4f72646572426f6f6b3a204f6e6c79206f72646572206f776e65722063616e2060008201527f757064617465206f726465720000000000000000000000000000000000000000602082015250565b6000615345602c836144d4565b9150615350826152e9565b604082019050919050565b6000602082019050818103600083015261537481615338565b9050919050565b7f4f72646572426f6f6b3a2063616e277420696e637265617365206f726465722060008201527f73697a6500000000000000000000000000000000000000000000000000000000602082015250565b60006153d76024836144d4565b91506153e28261537b565b604082019050919050565b60006020820190508181036000830152615406816153ca565b9050919050565b7f4f72646572626f6f6b3a2073697a652068617320746f2062652067726561746560008201527f72207468616e206d696e696d756d000000000000000000000000000000000000602082015250565b6000615469602e836144d4565b91506154748261540d565b604082019050919050565b600060208201905081810360008301526154988161545c565b9050919050565b60006040820190506154b46000830185613f19565b6154c16020830184614112565b939250505056fea2646970667358221220993cdd8f370019b4f7915347f29ee0d5bded4da84190c536560e4c78ff4ed6a764736f6c63430008110033",
  "linkReferences": {},
  "deployedLinkReferences": {}
}