{
  "_format": "hh-sol-artifact-1",
  "contractName": "CranklessOrderBook",
  "sourceName": "contracts/CranklessOrderBook.sol",
  "abi": [
    {
      "inputs": [
        {
          "internalType": "address",
          "name": "_tokenAAddress",
          "type": "address"
        },
        {
          "internalType": "uint256",
          "name": "_tokenADecimals",
          "type": "uint256"
        },
        {
          "internalType": "address",
          "name": "_tokenBAddress",
          "type": "address"
        },
        {
          "internalType": "uint256",
          "name": "_tokenBDecimals",
          "type": "uint256"
        }
      ],
      "stateMutability": "nonpayable",
      "type": "constructor"
    },
    {
      "anonymous": false,
      "inputs": [
        {
          "indexed": false,
          "internalType": "uint256",
          "name": "orderId",
          "type": "uint256"
        },
        {
          "indexed": false,
          "internalType": "address",
          "name": "owner",
          "type": "address"
        },
        {
          "indexed": false,
          "internalType": "bool",
          "name": "isBuy",
          "type": "bool"
        }
      ],
      "name": "OrderCompletedOrCanceled",
      "type": "event"
    },
    {
      "anonymous": false,
      "inputs": [
        {
          "indexed": false,
          "internalType": "uint256",
          "name": "orderId",
          "type": "uint256"
        },
        {
          "indexed": false,
          "internalType": "address",
          "name": "owner",
          "type": "address"
        },
        {
          "indexed": false,
          "internalType": "uint96",
          "name": "price",
          "type": "uint96"
        },
        {
          "indexed": false,
          "internalType": "uint128",
          "name": "size",
          "type": "uint128"
        },
        {
          "indexed": false,
          "internalType": "uint128",
          "name": "acceptableRange",
          "type": "uint128"
        },
        {
          "indexed": false,
          "internalType": "bool",
          "name": "isBuy",
          "type": "bool"
        }
      ],
      "name": "OrderCreated",
      "type": "event"
    },
    {
      "anonymous": false,
      "inputs": [
        {
          "indexed": false,
          "internalType": "uint256",
          "name": "orderId",
          "type": "uint256"
        },
        {
          "indexed": false,
          "internalType": "address",
          "name": "owner",
          "type": "address"
        },
        {
          "indexed": false,
          "internalType": "uint96",
          "name": "price",
          "type": "uint96"
        },
        {
          "indexed": false,
          "internalType": "uint128",
          "name": "size",
          "type": "uint128"
        },
        {
          "indexed": false,
          "internalType": "uint128",
          "name": "acceptableRange",
          "type": "uint128"
        },
        {
          "indexed": false,
          "internalType": "bool",
          "name": "isBuy",
          "type": "bool"
        }
      ],
      "name": "OrderUpdated",
      "type": "event"
    },
    {
      "inputs": [
        {
          "internalType": "uint96",
          "name": "_price",
          "type": "uint96"
        },
        {
          "internalType": "uint128",
          "name": "size",
          "type": "uint128"
        }
      ],
      "name": "addBuyOrder",
      "outputs": [],
      "stateMutability": "nonpayable",
      "type": "function"
    },
    {
      "inputs": [
        {
          "internalType": "uint96",
          "name": "_price",
          "type": "uint96"
        },
        {
          "internalType": "uint128",
          "name": "size",
          "type": "uint128"
        }
      ],
      "name": "addSellOrder",
      "outputs": [],
      "stateMutability": "nonpayable",
      "type": "function"
    },
    {
      "inputs": [
        {
          "internalType": "uint256[]",
          "name": "_orderIds",
          "type": "uint256[]"
        },
        {
          "internalType": "bool[]",
          "name": "_isBuy",
          "type": "bool[]"
        }
      ],
      "name": "batchCancelOrders",
      "outputs": [],
      "stateMutability": "nonpayable",
      "type": "function"
    },
    {
      "inputs": [
        {
          "internalType": "uint256",
          "name": "_orderId",
          "type": "uint256"
        }
      ],
      "name": "cancelBuyOrder",
      "outputs": [],
      "stateMutability": "nonpayable",
      "type": "function"
    },
    {
      "inputs": [
        {
          "internalType": "uint256",
          "name": "_orderId",
          "type": "uint256"
        }
      ],
      "name": "cancelSellOrder",
      "outputs": [],
      "stateMutability": "nonpayable",
      "type": "function"
    },
    {
      "inputs": [
        {
          "internalType": "uint96[]",
          "name": "c_order_ids",
          "type": "uint96[]"
        },
        {
          "internalType": "uint128",
          "name": "_size",
          "type": "uint128"
        },
        {
          "internalType": "uint96",
          "name": "_price",
          "type": "uint96"
        }
      ],
      "name": "placeAggressivelimitBuy",
      "outputs": [],
      "stateMutability": "nonpayable",
      "type": "function"
    },
    {
      "inputs": [
        {
          "internalType": "uint96[]",
          "name": "c_order_ids",
          "type": "uint96[]"
        },
        {
          "internalType": "uint128",
          "name": "_size",
          "type": "uint128"
        },
        {
          "internalType": "uint96",
          "name": "_price",
          "type": "uint96"
        }
      ],
      "name": "placeAggressivelimitSell",
      "outputs": [],
      "stateMutability": "nonpayable",
      "type": "function"
    },
    {
      "inputs": [
        {
          "internalType": "uint96[]",
          "name": "c_order_ids",
          "type": "uint96[]"
        },
        {
          "internalType": "uint128",
          "name": "_size",
          "type": "uint128"
        },
        {
          "internalType": "bool",
          "name": "_isFillOrKill",
          "type": "bool"
        }
      ],
      "name": "placeAndExecuteMarketBuy",
      "outputs": [
        {
          "internalType": "uint128",
          "name": "",
          "type": "uint128"
        }
      ],
      "stateMutability": "nonpayable",
      "type": "function"
    },
    {
      "inputs": [
        {
          "internalType": "uint96[]",
          "name": "c_order_ids",
          "type": "uint96[]"
        },
        {
          "internalType": "uint128",
          "name": "_size",
          "type": "uint128"
        },
        {
          "internalType": "bool",
          "name": "_isFillOrKill",
          "type": "bool"
        }
      ],
      "name": "placeAndExecuteMarketSell",
      "outputs": [
        {
          "internalType": "uint128",
          "name": "",
          "type": "uint128"
        }
      ],
      "stateMutability": "nonpayable",
      "type": "function"
    },
    {
      "inputs": [
        {
          "internalType": "uint96[]",
          "name": "_prices",
          "type": "uint96[]"
        },
        {
          "internalType": "uint128[]",
          "name": "_sizes",
          "type": "uint128[]"
        }
      ],
      "name": "placeMultipleBuyOrders",
      "outputs": [],
      "stateMutability": "nonpayable",
      "type": "function"
    },
    {
      "inputs": [
        {
          "internalType": "uint96[]",
          "name": "_prices",
          "type": "uint96[]"
        },
        {
          "internalType": "uint128[]",
          "name": "_sizes",
          "type": "uint128[]"
        }
      ],
      "name": "placeMultipleSellOrders",
      "outputs": [],
      "stateMutability": "nonpayable",
      "type": "function"
    },
    {
      "inputs": [
        {
          "internalType": "uint256[]",
          "name": "_orderIds",
          "type": "uint256[]"
        },
        {
          "internalType": "uint96[]",
          "name": "_price",
          "type": "uint96[]"
        }
      ],
      "name": "replaceOrders",
      "outputs": [],
      "stateMutability": "nonpayable",
      "type": "function"
    },
    {
      "inputs": [
        {
          "internalType": "uint256",
          "name": "",
          "type": "uint256"
        }
      ],
      "name": "s_buyPricePoints",
      "outputs": [
        {
          "internalType": "uint128",
          "name": "totalCompletedOrCanceledOrders",
          "type": "uint128"
        },
        {
          "internalType": "uint128",
          "name": "totalOrdersAtPrice",
          "type": "uint128"
        },
        {
          "internalType": "uint128",
          "name": "executableSize",
          "type": "uint128"
        }
      ],
      "stateMutability": "view",
      "type": "function"
    },
    {
      "inputs": [],
      "name": "s_orderIdCounter",
      "outputs": [
        {
          "internalType": "uint256",
          "name": "",
          "type": "uint256"
        }
      ],
      "stateMutability": "view",
      "type": "function"
    },
    {
      "inputs": [
        {
          "internalType": "uint256",
          "name": "",
          "type": "uint256"
        }
      ],
      "name": "s_orders",
      "outputs": [
        {
          "internalType": "address",
          "name": "ownerAddress",
          "type": "address"
        },
        {
          "internalType": "uint96",
          "name": "price",
          "type": "uint96"
        },
        {
          "internalType": "uint128",
          "name": "size",
          "type": "uint128"
        },
        {
          "internalType": "uint128",
          "name": "acceptableRange",
          "type": "uint128"
        },
        {
          "internalType": "bool",
          "name": "isBuy",
          "type": "bool"
        }
      ],
      "stateMutability": "view",
      "type": "function"
    },
    {
      "inputs": [
        {
          "internalType": "uint256",
          "name": "",
          "type": "uint256"
        }
      ],
      "name": "s_sellPricePoints",
      "outputs": [
        {
          "internalType": "uint128",
          "name": "totalCompletedOrCanceledOrders",
          "type": "uint128"
        },
        {
          "internalType": "uint128",
          "name": "totalOrdersAtPrice",
          "type": "uint128"
        },
        {
          "internalType": "uint128",
          "name": "executableSize",
          "type": "uint128"
        }
      ],
      "stateMutability": "view",
      "type": "function"
    }
  ],
  "bytecode": "0x6101006040523480156200001257600080fd5b50604051620056d4380380620056d4833981810160405281019062000038919062000167565b838383838373ffffffffffffffffffffffffffffffffffffffff1660808173ffffffffffffffffffffffffffffffffffffffff16815250508173ffffffffffffffffffffffffffffffffffffffff1660a08173ffffffffffffffffffffffffffffffffffffffff16815250508260c081815250508060e081815250505050505050505050620001d9565b600080fd5b600073ffffffffffffffffffffffffffffffffffffffff82169050919050565b6000620000f482620000c7565b9050919050565b6200010681620000e7565b81146200011257600080fd5b50565b6000815190506200012681620000fb565b92915050565b6000819050919050565b62000141816200012c565b81146200014d57600080fd5b50565b600081519050620001618162000136565b92915050565b60008060008060808587031215620001845762000183620000c2565b5b6000620001948782880162000115565b9450506020620001a78782880162000150565b9350506040620001ba8782880162000115565b9250506060620001cd8782880162000150565b91505092959194509250565b60805160a05160c05160e0516154586200027c60003960008181611a2d01528181613140015281816138580152613cf80152600081816114370152818161188d015281816125c001528181612d5c0152613a9b0152600081816108e501528181611039015281816119e7015281816130fb015261380f0152600081816113f4015281816118460152818161257801528181612d140152613a5701526154586000f3fe608060405234801561001057600080fd5b50600436106101005760003560e01c8063615fd6b611610097578063be5d147f11610066578063be5d147f146102ad578063e6d29b51146102c9578063eb2e70c8146102fb578063ece2e87f1461031757610100565b8063615fd6b6146102115780637af7b82a14610241578063a6f3c50f1461025d578063b722153f1461029157610100565b806324b291db116100d357806324b291db1461019f5780632bf1360e146101bb5780634ff57439146101d957806355727643146101f557610100565b80630ab86eaa146101055780630e2e2ffe1461012157806316683ef8146101535780631a46e42a14610183575b600080fd5b61011f600480360381019061011a9190614094565b610333565b005b61013b6004803603810190610136919061413e565b61042e565b60405161014a9392919061417a565b60405180910390f35b61016d600480360381019061016891906141e9565b6104ac565b60405161017a919061425d565b60405180910390f35b61019d6004803603810190610198919061413e565b6114e7565b005b6101b960048036038101906101b49190614278565b611988565b005b6101c3611b4d565b6040516101d091906142c7565b60405180910390f35b6101f360048036038101906101ee91906144f4565b611b53565b005b61020f600480360381019061020a91906145c2565b611c5c565b005b61022b600480360381019061022691906141e9565b612123565b604051610238919061425d565b60405180910390f35b61025b60048036038101906102569190614094565b6131fa565b005b6102776004803603810190610272919061413e565b6132f5565b6040516102889594939291906146a2565b60405180910390f35b6102ab60048036038101906102a691906144f4565b6133a8565b005b6102c760048036038101906102c2919061413e565b6134b1565b005b6102e360048036038101906102de919061413e565b61397a565b6040516102f29392919061417a565b60405180910390f35b61031560048036038101906103109190614278565b6139f8565b005b610331600480360381019061032c919061487b565b613b98565b005b60003073ffffffffffffffffffffffffffffffffffffffff1663615fd6b686868660006040518563ffffffff1660e01b815260040161037594939291906149b6565b6020604051808303816000875af1158015610394573d6000803e3d6000fd5b505050506040513d601f19601f820116820180604052508101906103b89190614a0b565b90503073ffffffffffffffffffffffffffffffffffffffff1663eb2e70c883836040518363ffffffff1660e01b81526004016103f5929190614a38565b600060405180830381600087803b15801561040f57600080fd5b505af1158015610423573d6000803e3d6000fd5b505050505050505050565b60026020528060005260406000206000915090508060000160009054906101000a90046fffffffffffffffffffffffffffffffff16908060000160109054906101000a90046fffffffffffffffffffffffffffffffff16908060010160009054906101000a90046fffffffffffffffffffffffffffffffff16905083565b6000806000905060008060008888858181106104cb576104ca614a61565b5b90506020020160208101906104e09190614a90565b6bffffffffffffffffffffffff1681526020019081526020016000206040518060a00160405290816000820160009054906101000a900473ffffffffffffffffffffffffffffffffffffffff1673ffffffffffffffffffffffffffffffffffffffff1673ffffffffffffffffffffffffffffffffffffffff1681526020016000820160149054906101000a90046bffffffffffffffffffffffff166bffffffffffffffffffffffff166bffffffffffffffffffffffff1681526020016001820160009054906101000a90046fffffffffffffffffffffffffffffffff166fffffffffffffffffffffffffffffffff166fffffffffffffffffffffffffffffffff1681526020016001820160109054906101000a90046fffffffffffffffffffffffffffffffff166fffffffffffffffffffffffffffffffff166fffffffffffffffffffffffffffffffff1681526020016002820160009054906101000a900460ff161515151581525050905060006001600083602001516bffffffffffffffffffffffff1681526020019081526020016000206040518060600160405290816000820160009054906101000a90046fffffffffffffffffffffffffffffffff166fffffffffffffffffffffffffffffffff166fffffffffffffffffffffffffffffffff1681526020016000820160109054906101000a90046fffffffffffffffffffffffffffffffff166fffffffffffffffffffffffffffffffff166fffffffffffffffffffffffffffffffff1681526020016001820160009054906101000a90046fffffffffffffffffffffffffffffffff166fffffffffffffffffffffffffffffffff166fffffffffffffffffffffffffffffffff1681525050905060005b82604001516fffffffffffffffffffffffffffffffff16876fffffffffffffffffffffffffffffffff1611801561079a57508888905084105b15610efb578260800151156107e4576040517f08c379a00000000000000000000000000000000000000000000000000000000081526004016107db90614b40565b60405180910390fd5b81600001516fffffffffffffffffffffffffffffffff1683606001516fffffffffffffffffffffffffffffffff161115610853576040517f08c379a000000000000000000000000000000000000000000000000000000000815260040161084a90614bac565b60405180910390fd5b82604001516fffffffffffffffffffffffffffffffff16816108759190614bfb565b90508260400151876108879190614c2f565b965082604001518260000181815161089f9190614c73565b9150906fffffffffffffffffffffffffffffffff1690816fffffffffffffffffffffffffffffffff1681525050600083602001516bffffffffffffffffffffffff1690507f000000000000000000000000000000000000000000000000000000000000000073ffffffffffffffffffffffffffffffffffffffff166323b872dd33866000015161095788604001516fffffffffffffffffffffffffffffffff1689602001516bffffffffffffffffffffffff16613cec565b6040518463ffffffff1660e01b815260040161097593929190614cb7565b6020604051808303816000875af1158015610994573d6000803e3d6000fd5b505050506040513d601f19601f820116820180604052508101906109b89190614d03565b50600084604001906fffffffffffffffffffffffffffffffff1690816fffffffffffffffffffffffffffffffff1681525050836000808c8c89818110610a0157610a00614a61565b5b9050602002016020810190610a169190614a90565b6bffffffffffffffffffffffff16815260200190815260200160002060008201518160000160006101000a81548173ffffffffffffffffffffffffffffffffffffffff021916908373ffffffffffffffffffffffffffffffffffffffff16021790555060208201518160000160146101000a8154816bffffffffffffffffffffffff02191690836bffffffffffffffffffffffff16021790555060408201518160010160006101000a8154816fffffffffffffffffffffffffffffffff02191690836fffffffffffffffffffffffffffffffff16021790555060608201518160010160106101000a8154816fffffffffffffffffffffffffffffffff02191690836fffffffffffffffffffffffffffffffff16021790555060808201518160020160006101000a81548160ff021916908315150217905550905050600185610b5e9190614bfb565b94506000808b8b88818110610b7657610b75614a61565b5b9050602002016020810190610b8b9190614a90565b6bffffffffffffffffffffffff1681526020019081526020016000206040518060a00160405290816000820160009054906101000a900473ffffffffffffffffffffffffffffffffffffffff1673ffffffffffffffffffffffffffffffffffffffff1673ffffffffffffffffffffffffffffffffffffffff1681526020016000820160149054906101000a90046bffffffffffffffffffffffff166bffffffffffffffffffffffff166bffffffffffffffffffffffff1681526020016001820160009054906101000a90046fffffffffffffffffffffffffffffffff166fffffffffffffffffffffffffffffffff166fffffffffffffffffffffffffffffffff1681526020016001820160109054906101000a90046fffffffffffffffffffffffffffffffff166fffffffffffffffffffffffffffffffff166fffffffffffffffffffffffffffffffff1681526020016002820160009054906101000a900460ff161515151581525050935083602001516bffffffffffffffffffffffff168114610ef557826001600083815260200190815260200160002060008201518160000160006101000a8154816fffffffffffffffffffffffffffffffff02191690836fffffffffffffffffffffffffffffffff16021790555060208201518160000160106101000a8154816fffffffffffffffffffffffffffffffff02191690836fffffffffffffffffffffffffffffffff16021790555060408201518160010160006101000a8154816fffffffffffffffffffffffffffffffff02191690836fffffffffffffffffffffffffffffffff1602179055509050506001600085602001516bffffffffffffffffffffffff1681526020019081526020016000206040518060600160405290816000820160009054906101000a90046fffffffffffffffffffffffffffffffff166fffffffffffffffffffffffffffffffff166fffffffffffffffffffffffffffffffff1681526020016000820160109054906101000a90046fffffffffffffffffffffffffffffffff166fffffffffffffffffffffffffffffffff166fffffffffffffffffffffffffffffffff1681526020016001820160009054906101000a90046fffffffffffffffffffffffffffffffff166fffffffffffffffffffffffffffffffff166fffffffffffffffffffffffffffffffff168152505092505b50610761565b6000876fffffffffffffffffffffffffffffffff16118015610f1f57508888905084105b1561139657826080015115610f69576040517f08c379a0000000000000000000000000000000000000000000000000000000008152600401610f6090614b40565b60405180910390fd5b81600001516fffffffffffffffffffffffffffffffff1683606001516fffffffffffffffffffffffffffffffff161115610fd8576040517f08c379a0000000000000000000000000000000000000000000000000000000008152600401610fcf90614bac565b60405180910390fd5b8682600001818151610fea9190614c73565b9150906fffffffffffffffffffffffffffffffff1690816fffffffffffffffffffffffffffffffff1681525050866fffffffffffffffffffffffffffffffff16816110359190614bfb565b90507f000000000000000000000000000000000000000000000000000000000000000073ffffffffffffffffffffffffffffffffffffffff166323b872dd3385600001516110a78b6fffffffffffffffffffffffffffffffff1688602001516bffffffffffffffffffffffff16613cec565b6040518463ffffffff1660e01b81526004016110c593929190614cb7565b6020604051808303816000875af11580156110e4573d6000803e3d6000fd5b505050506040513d601f19601f820116820180604052508101906111089190614d03565b50868360400181815161111b9190614c2f565b9150906fffffffffffffffffffffffffffffffff1690816fffffffffffffffffffffffffffffffff1681525050826000808b8b8881811061115f5761115e614a61565b5b90506020020160208101906111749190614a90565b6bffffffffffffffffffffffff16815260200190815260200160002060008201518160000160006101000a81548173ffffffffffffffffffffffffffffffffffffffff021916908373ffffffffffffffffffffffffffffffffffffffff16021790555060208201518160000160146101000a8154816bffffffffffffffffffffffff02191690836bffffffffffffffffffffffff16021790555060408201518160010160006101000a8154816fffffffffffffffffffffffffffffffff02191690836fffffffffffffffffffffffffffffffff16021790555060608201518160010160106101000a8154816fffffffffffffffffffffffffffffffff02191690836fffffffffffffffffffffffffffffffff16021790555060808201518160020160006101000a81548160ff021916908315150217905550905050816001600085602001516bffffffffffffffffffffffff16815260200190815260200160002060008201518160000160006101000a8154816fffffffffffffffffffffffffffffffff02191690836fffffffffffffffffffffffffffffffff16021790555060208201518160000160106101000a8154816fffffffffffffffffffffffffffffffff02191690836fffffffffffffffffffffffffffffffff16021790555060408201518160010160006101000a8154816fffffffffffffffffffffffffffffffff02191690836fffffffffffffffffffffffffffffffff1602179055509050505b85156113f2576000876fffffffffffffffffffffffffffffffff16146113f1576040517f08c379a00000000000000000000000000000000000000000000000000000000081526004016113e890614d7c565b60405180910390fd5b5b7f000000000000000000000000000000000000000000000000000000000000000073ffffffffffffffffffffffffffffffffffffffff1663a9059cbb336402540be4007f0000000000000000000000000000000000000000000000000000000000000000600a6114629190614ecf565b8561146d9190614f1a565b6114779190614f8b565b6040518363ffffffff1660e01b8152600401611494929190614fbc565b6020604051808303816000875af11580156114b3573d6000803e3d6000fd5b505050506040513d601f19601f820116820180604052508101906114d79190614d03565b5086945050505050949350505050565b60008060008381526020019081526020016000206040518060a00160405290816000820160009054906101000a900473ffffffffffffffffffffffffffffffffffffffff1673ffffffffffffffffffffffffffffffffffffffff1673ffffffffffffffffffffffffffffffffffffffff1681526020016000820160149054906101000a90046bffffffffffffffffffffffff166bffffffffffffffffffffffff166bffffffffffffffffffffffff1681526020016001820160009054906101000a90046fffffffffffffffffffffffffffffffff166fffffffffffffffffffffffffffffffff166fffffffffffffffffffffffffffffffff1681526020016001820160109054906101000a90046fffffffffffffffffffffffffffffffff166fffffffffffffffffffffffffffffffff166fffffffffffffffffffffffffffffffff1681526020016002820160009054906101000a900460ff1615151515815250509050806080015115611690576040517f08c379a000000000000000000000000000000000000000000000000000000000815260040161168790615031565b60405180910390fd5b806000015173ffffffffffffffffffffffffffffffffffffffff163373ffffffffffffffffffffffffffffffffffffffff1614611702576040517f08c379a00000000000000000000000000000000000000000000000000000000081526004016116f9906150c3565b60405180910390fd5b80604001516002600083602001516bffffffffffffffffffffffff16815260200190815260200160002060000160008282829054906101000a90046fffffffffffffffffffffffffffffffff166117599190614c73565b92506101000a8154816fffffffffffffffffffffffffffffffff02191690836fffffffffffffffffffffffffffffffff160217905550600080838152602001908152602001600020600080820160006101000a81549073ffffffffffffffffffffffffffffffffffffffff02191690556000820160146101000a8154906bffffffffffffffffffffffff02191690556001820160006101000a8154906fffffffffffffffffffffffffffffffff02191690556001820160106101000a8154906fffffffffffffffffffffffffffffffff02191690556002820160006101000a81549060ff021916905550507f000000000000000000000000000000000000000000000000000000000000000073ffffffffffffffffffffffffffffffffffffffff1663a9059cbb82600001516402540be4007f0000000000000000000000000000000000000000000000000000000000000000600a6118b89190614ecf565b85604001516fffffffffffffffffffffffffffffffff166118d99190614f1a565b6118e39190614f8b565b6040518363ffffffff1660e01b8152600401611900929190614fbc565b6020604051808303816000875af115801561191f573d6000803e3d6000fd5b505050506040513d601f19601f820116820180604052508101906119439190614d03565b507ffea5eb23060199c8b2ad63bcecd92c04cea55cd0ef02c4030d3b20cf718c70ea828260000151600060405161197c939291906150e3565b60405180910390a15050565b6000600354905060018161199c9190614bfb565b600381905550600060016000856bffffffffffffffffffffffff168152602001908152602001600020905060006119e38286866001876119dc9190614bfb565b6001613d55565b90507f000000000000000000000000000000000000000000000000000000000000000073ffffffffffffffffffffffffffffffffffffffff166323b872dd33306402540be40060647f0000000000000000000000000000000000000000000000000000000000000000600a611a589190614ecf565b8b6bffffffffffffffffffffffff168b611a72919061511a565b6fffffffffffffffffffffffffffffffff16611a8e9190614f1a565b611a989190614f8b565b611aa29190614f8b565b6040518463ffffffff1660e01b8152600401611ac093929190614cb7565b6020604051808303816000875af1158015611adf573d6000803e3d6000fd5b505050506040513d601f19601f82011682018060405250810190611b039190614d03565b507f3bb89cbf97283fda44cd1b331bd60e5b8bbd1a72c4ae6acafc9b85da0a8ef64f83338787856001604051611b3e96959493929190615157565b60405180910390a15050505050565b60035481565b8051825114611b97576040517f08c379a0000000000000000000000000000000000000000000000000000000008152600401611b8e9061522a565b60405180910390fd5b60005b8251811015611c57573073ffffffffffffffffffffffffffffffffffffffff1663eb2e70c8848381518110611bd257611bd1614a61565b5b6020026020010151848481518110611bed57611bec614a61565b5b60200260200101516040518363ffffffff1660e01b8152600401611c12929190614a38565b600060405180830381600087803b158015611c2c57600080fd5b505af1158015611c40573d6000803e3d6000fd5b505050508080611c4f9061524a565b915050611b9a565b505050565b60005b8484905081101561211c576000806000878785818110611c8257611c81614a61565b5b90506020020135815260200190815260200160002090508060000160009054906101000a900473ffffffffffffffffffffffffffffffffffffffff1673ffffffffffffffffffffffffffffffffffffffff163373ffffffffffffffffffffffffffffffffffffffff1614611d2b576040517f08c379a0000000000000000000000000000000000000000000000000000000008152600401611d2290615304565b60405180910390fd5b60008160020160009054906101000a900460ff16611d905760026000868686818110611d5a57611d59614a61565b5b9050602002016020810190611d6f9190614a90565b6bffffffffffffffffffffffff168152602001908152602001600020611dd9565b60016000868686818110611da757611da6614a61565b5b9050602002016020810190611dbc9190614a90565b6bffffffffffffffffffffffff1681526020019081526020016000205b905060008260020160009054906101000a900460ff16611e3557600260008460000160149054906101000a90046bffffffffffffffffffffffff166bffffffffffffffffffffffff168152602001908152602001600020611e73565b600160008460000160149054906101000a90046bffffffffffffffffffffffff166bffffffffffffffffffffffff1681526020019081526020016000205b90508260010160009054906101000a90046fffffffffffffffffffffffffffffffff168160000160008282829054906101000a90046fffffffffffffffffffffffffffffffff16611ec49190614c73565b92506101000a8154816fffffffffffffffffffffffffffffffff02191690836fffffffffffffffffffffffffffffffff1602179055508160000160109054906101000a90046fffffffffffffffffffffffffffffffff168360010160106101000a8154816fffffffffffffffffffffffffffffffff02191690836fffffffffffffffffffffffffffffffff160217905550858585818110611f6857611f67614a61565b5b9050602002016020810190611f7d9190614a90565b8360000160146101000a8154816bffffffffffffffffffffffff02191690836bffffffffffffffffffffffff1602179055508260010160009054906101000a90046fffffffffffffffffffffffffffffffff168260000160108282829054906101000a90046fffffffffffffffffffffffffffffffff16611ffe9190614c73565b92506101000a8154816fffffffffffffffffffffffffffffffff02191690836fffffffffffffffffffffffffffffffff1602179055507f88c56b5b4ebebb79641522127475a6a394fe9f7f9da5279fcdead7a28d298cab88888681811061206857612067614a61565b5b905060200201353388888881811061208357612082614a61565b5b90506020020160208101906120989190614a90565b8660010160009054906101000a90046fffffffffffffffffffffffffffffffff168760010160109054906101000a90046fffffffffffffffffffffffffffffffff168860020160009054906101000a900460ff166040516120fe96959493929190615157565b60405180910390a150505080806121149061524a565b915050611c5f565b5050505050565b60008060009050600080600088888581811061214257612141614a61565b5b90506020020160208101906121579190614a90565b6bffffffffffffffffffffffff1681526020019081526020016000206040518060a00160405290816000820160009054906101000a900473ffffffffffffffffffffffffffffffffffffffff1673ffffffffffffffffffffffffffffffffffffffff1673ffffffffffffffffffffffffffffffffffffffff1681526020016000820160149054906101000a90046bffffffffffffffffffffffff166bffffffffffffffffffffffff166bffffffffffffffffffffffff1681526020016001820160009054906101000a90046fffffffffffffffffffffffffffffffff166fffffffffffffffffffffffffffffffff166fffffffffffffffffffffffffffffffff1681526020016001820160109054906101000a90046fffffffffffffffffffffffffffffffff166fffffffffffffffffffffffffffffffff166fffffffffffffffffffffffffffffffff1681526020016002820160009054906101000a900460ff161515151581525050905060006002600083602001516bffffffffffffffffffffffff1681526020019081526020016000206040518060600160405290816000820160009054906101000a90046fffffffffffffffffffffffffffffffff166fffffffffffffffffffffffffffffffff166fffffffffffffffffffffffffffffffff1681526020016000820160109054906101000a90046fffffffffffffffffffffffffffffffff166fffffffffffffffffffffffffffffffff166fffffffffffffffffffffffffffffffff1681526020016001820160009054906101000a90046fffffffffffffffffffffffffffffffff166fffffffffffffffffffffffffffffffff166fffffffffffffffffffffffffffffffff1681525050905060005b82604001516fffffffffffffffffffffffffffffffff16876fffffffffffffffffffffffffffffffff1611801561241157508888905084105b15612bba57826080015161245a576040517f08c379a000000000000000000000000000000000000000000000000000000000815260040161245190615396565b60405180910390fd5b81600001516fffffffffffffffffffffffffffffffff1683606001516fffffffffffffffffffffffffffffffff1611156124c9576040517f08c379a00000000000000000000000000000000000000000000000000000000081526004016124c090614bac565b60405180910390fd5b82602001516bffffffffffffffffffffffff1683604001516124eb919061511a565b6fffffffffffffffffffffffffffffffff16816125089190614bfb565b905082604001518761251a9190614c2f565b96508260400151826000018181516125329190614c73565b9150906fffffffffffffffffffffffffffffffff1690816fffffffffffffffffffffffffffffffff1681525050600083602001516bffffffffffffffffffffffff1690507f000000000000000000000000000000000000000000000000000000000000000073ffffffffffffffffffffffffffffffffffffffff166323b872dd3386600001516402540be4007f0000000000000000000000000000000000000000000000000000000000000000600a6125eb9190614ecf565b89604001516fffffffffffffffffffffffffffffffff1661260c9190614f1a565b6126169190614f8b565b6040518463ffffffff1660e01b815260040161263493929190614cb7565b6020604051808303816000875af1158015612653573d6000803e3d6000fd5b505050506040513d601f19601f820116820180604052508101906126779190614d03565b50600084604001906fffffffffffffffffffffffffffffffff1690816fffffffffffffffffffffffffffffffff1681525050836000808c8c898181106126c0576126bf614a61565b5b90506020020160208101906126d59190614a90565b6bffffffffffffffffffffffff16815260200190815260200160002060008201518160000160006101000a81548173ffffffffffffffffffffffffffffffffffffffff021916908373ffffffffffffffffffffffffffffffffffffffff16021790555060208201518160000160146101000a8154816bffffffffffffffffffffffff02191690836bffffffffffffffffffffffff16021790555060408201518160010160006101000a8154816fffffffffffffffffffffffffffffffff02191690836fffffffffffffffffffffffffffffffff16021790555060608201518160010160106101000a8154816fffffffffffffffffffffffffffffffff02191690836fffffffffffffffffffffffffffffffff16021790555060808201518160020160006101000a81548160ff02191690831515021790555090505060018561281d9190614bfb565b94506000808b8b8881811061283557612834614a61565b5b905060200201602081019061284a9190614a90565b6bffffffffffffffffffffffff1681526020019081526020016000206040518060a00160405290816000820160009054906101000a900473ffffffffffffffffffffffffffffffffffffffff1673ffffffffffffffffffffffffffffffffffffffff1673ffffffffffffffffffffffffffffffffffffffff1681526020016000820160149054906101000a90046bffffffffffffffffffffffff166bffffffffffffffffffffffff166bffffffffffffffffffffffff1681526020016001820160009054906101000a90046fffffffffffffffffffffffffffffffff166fffffffffffffffffffffffffffffffff166fffffffffffffffffffffffffffffffff1681526020016001820160109054906101000a90046fffffffffffffffffffffffffffffffff166fffffffffffffffffffffffffffffffff166fffffffffffffffffffffffffffffffff1681526020016002820160009054906101000a900460ff161515151581525050935083602001516bffffffffffffffffffffffff168114612bb457826002600083815260200190815260200160002060008201518160000160006101000a8154816fffffffffffffffffffffffffffffffff02191690836fffffffffffffffffffffffffffffffff16021790555060208201518160000160106101000a8154816fffffffffffffffffffffffffffffffff02191690836fffffffffffffffffffffffffffffffff16021790555060408201518160010160006101000a8154816fffffffffffffffffffffffffffffffff02191690836fffffffffffffffffffffffffffffffff1602179055509050506002600085602001516bffffffffffffffffffffffff1681526020019081526020016000206040518060600160405290816000820160009054906101000a90046fffffffffffffffffffffffffffffffff166fffffffffffffffffffffffffffffffff166fffffffffffffffffffffffffffffffff1681526020016000820160109054906101000a90046fffffffffffffffffffffffffffffffff166fffffffffffffffffffffffffffffffff166fffffffffffffffffffffffffffffffff1681526020016001820160009054906101000a90046fffffffffffffffffffffffffffffffff166fffffffffffffffffffffffffffffffff166fffffffffffffffffffffffffffffffff168152505092505b506123d8565b6000876fffffffffffffffffffffffffffffffff16118015612bde57508888905084105b1561309d578260800151612c27576040517f08c379a0000000000000000000000000000000000000000000000000000000008152600401612c1e90615396565b60405180910390fd5b81600001516fffffffffffffffffffffffffffffffff1683606001516fffffffffffffffffffffffffffffffff161115612c96576040517f08c379a0000000000000000000000000000000000000000000000000000000008152600401612c8d90614bac565b60405180910390fd5b8682600001818151612ca89190614c73565b9150906fffffffffffffffffffffffffffffffff1690816fffffffffffffffffffffffffffffffff168152505082602001516bffffffffffffffffffffffff1687612cf3919061511a565b6fffffffffffffffffffffffffffffffff1681612d109190614bfb565b90507f000000000000000000000000000000000000000000000000000000000000000073ffffffffffffffffffffffffffffffffffffffff166323b872dd3385600001516402540be4007f0000000000000000000000000000000000000000000000000000000000000000600a612d879190614ecf565b8c6fffffffffffffffffffffffffffffffff16612da49190614f1a565b612dae9190614f8b565b6040518463ffffffff1660e01b8152600401612dcc93929190614cb7565b6020604051808303816000875af1158015612deb573d6000803e3d6000fd5b505050506040513d601f19601f82011682018060405250810190612e0f9190614d03565b508683604001818151612e229190614c2f565b9150906fffffffffffffffffffffffffffffffff1690816fffffffffffffffffffffffffffffffff1681525050826000808b8b88818110612e6657612e65614a61565b5b9050602002016020810190612e7b9190614a90565b6bffffffffffffffffffffffff16815260200190815260200160002060008201518160000160006101000a81548173ffffffffffffffffffffffffffffffffffffffff021916908373ffffffffffffffffffffffffffffffffffffffff16021790555060208201518160000160146101000a8154816bffffffffffffffffffffffff02191690836bffffffffffffffffffffffff16021790555060408201518160010160006101000a8154816fffffffffffffffffffffffffffffffff02191690836fffffffffffffffffffffffffffffffff16021790555060608201518160010160106101000a8154816fffffffffffffffffffffffffffffffff02191690836fffffffffffffffffffffffffffffffff16021790555060808201518160020160006101000a81548160ff021916908315150217905550905050816002600085602001516bffffffffffffffffffffffff16815260200190815260200160002060008201518160000160006101000a8154816fffffffffffffffffffffffffffffffff02191690836fffffffffffffffffffffffffffffffff16021790555060208201518160000160106101000a8154816fffffffffffffffffffffffffffffffff02191690836fffffffffffffffffffffffffffffffff16021790555060408201518160010160006101000a8154816fffffffffffffffffffffffffffffffff02191690836fffffffffffffffffffffffffffffffff1602179055509050505b85156130f9576000876fffffffffffffffffffffffffffffffff16146130f8576040517f08c379a00000000000000000000000000000000000000000000000000000000081526004016130ef90614d7c565b60405180910390fd5b5b7f000000000000000000000000000000000000000000000000000000000000000073ffffffffffffffffffffffffffffffffffffffff1663a9059cbb336402540be40060647f0000000000000000000000000000000000000000000000000000000000000000600a61316b9190614ecf565b866131769190614f1a565b6131809190614f8b565b61318a9190614f8b565b6040518363ffffffff1660e01b81526004016131a7929190614fbc565b6020604051808303816000875af11580156131c6573d6000803e3d6000fd5b505050506040513d601f19601f820116820180604052508101906131ea9190614d03565b5086945050505050949350505050565b60003073ffffffffffffffffffffffffffffffffffffffff166316683ef886868660006040518563ffffffff1660e01b815260040161323c94939291906149b6565b6020604051808303816000875af115801561325b573d6000803e3d6000fd5b505050506040513d601f19601f8201168201806040525081019061327f9190614a0b565b90503073ffffffffffffffffffffffffffffffffffffffff166324b291db83836040518363ffffffff1660e01b81526004016132bc929190614a38565b600060405180830381600087803b1580156132d657600080fd5b505af11580156132ea573d6000803e3d6000fd5b505050505050505050565b60006020528060005260406000206000915090508060000160009054906101000a900473ffffffffffffffffffffffffffffffffffffffff16908060000160149054906101000a90046bffffffffffffffffffffffff16908060010160009054906101000a90046fffffffffffffffffffffffffffffffff16908060010160109054906101000a90046fffffffffffffffffffffffffffffffff16908060020160009054906101000a900460ff16905085565b80518251146133ec576040517f08c379a00000000000000000000000000000000000000000000000000000000081526004016133e39061522a565b60405180910390fd5b60005b82518110156134ac573073ffffffffffffffffffffffffffffffffffffffff166324b291db84838151811061342757613426614a61565b5b602002602001015184848151811061344257613441614a61565b5b60200260200101516040518363ffffffff1660e01b8152600401613467929190614a38565b600060405180830381600087803b15801561348157600080fd5b505af1158015613495573d6000803e3d6000fd5b5050505080806134a49061524a565b9150506133ef565b505050565b60008060008381526020019081526020016000206040518060a00160405290816000820160009054906101000a900473ffffffffffffffffffffffffffffffffffffffff1673ffffffffffffffffffffffffffffffffffffffff1673ffffffffffffffffffffffffffffffffffffffff1681526020016000820160149054906101000a90046bffffffffffffffffffffffff166bffffffffffffffffffffffff166bffffffffffffffffffffffff1681526020016001820160009054906101000a90046fffffffffffffffffffffffffffffffff166fffffffffffffffffffffffffffffffff166fffffffffffffffffffffffffffffffff1681526020016001820160109054906101000a90046fffffffffffffffffffffffffffffffff166fffffffffffffffffffffffffffffffff166fffffffffffffffffffffffffffffffff1681526020016002820160009054906101000a900460ff16151515158152505090508060800151613659576040517f08c379a000000000000000000000000000000000000000000000000000000000815260040161365090615402565b60405180910390fd5b806000015173ffffffffffffffffffffffffffffffffffffffff163373ffffffffffffffffffffffffffffffffffffffff16146136cb576040517f08c379a00000000000000000000000000000000000000000000000000000000081526004016136c2906150c3565b60405180910390fd5b80604001516001600083602001516bffffffffffffffffffffffff16815260200190815260200160002060000160008282829054906101000a90046fffffffffffffffffffffffffffffffff166137229190614c73565b92506101000a8154816fffffffffffffffffffffffffffffffff02191690836fffffffffffffffffffffffffffffffff160217905550600080838152602001908152602001600020600080820160006101000a81549073ffffffffffffffffffffffffffffffffffffffff02191690556000820160146101000a8154906bffffffffffffffffffffffff02191690556001820160006101000a8154906fffffffffffffffffffffffffffffffff02191690556001820160106101000a8154906fffffffffffffffffffffffffffffffff02191690556002820160006101000a81549060ff021916905550507f000000000000000000000000000000000000000000000000000000000000000073ffffffffffffffffffffffffffffffffffffffff1663a9059cbb82600001516402540be40060647f0000000000000000000000000000000000000000000000000000000000000000600a6138839190614ecf565b86602001516bffffffffffffffffffffffff1687604001516138a5919061511a565b6fffffffffffffffffffffffffffffffff166138c19190614f1a565b6138cb9190614f8b565b6138d59190614f8b565b6040518363ffffffff1660e01b81526004016138f2929190614fbc565b6020604051808303816000875af1158015613911573d6000803e3d6000fd5b505050506040513d601f19601f820116820180604052508101906139359190614d03565b507ffea5eb23060199c8b2ad63bcecd92c04cea55cd0ef02c4030d3b20cf718c70ea828260000151600160405161396e939291906150e3565b60405180910390a15050565b60016020528060005260406000206000915090508060000160009054906101000a90046fffffffffffffffffffffffffffffffff16908060000160109054906101000a90046fffffffffffffffffffffffffffffffff16908060010160009054906101000a90046fffffffffffffffffffffffffffffffff16905083565b60006003549050600181613a0c9190614bfb565b600381905550600060026000856bffffffffffffffffffffffff16815260200190815260200160002090506000613a53828686600187613a4c9190614bfb565b6000613d55565b90507f000000000000000000000000000000000000000000000000000000000000000073ffffffffffffffffffffffffffffffffffffffff166323b872dd33306402540be4007f0000000000000000000000000000000000000000000000000000000000000000600a613ac69190614ecf565b896fffffffffffffffffffffffffffffffff16613ae39190614f1a565b613aed9190614f8b565b6040518463ffffffff1660e01b8152600401613b0b93929190614cb7565b6020604051808303816000875af1158015613b2a573d6000803e3d6000fd5b505050506040513d601f19601f82011682018060405250810190613b4e9190614d03565b507f3bb89cbf97283fda44cd1b331bd60e5b8bbd1a72c4ae6acafc9b85da0a8ef64f83338787856000604051613b8996959493929190615157565b60405180910390a15050505050565b60005b8251811015613ce757818181518110613bb757613bb6614a61565b5b602002602001015115613c4e573073ffffffffffffffffffffffffffffffffffffffff1663be5d147f848381518110613bf357613bf2614a61565b5b60200260200101516040518263ffffffff1660e01b8152600401613c1791906142c7565b600060405180830381600087803b158015613c3157600080fd5b505af1158015613c45573d6000803e3d6000fd5b50505050613cd4565b3073ffffffffffffffffffffffffffffffffffffffff16631a46e42a848381518110613c7d57613c7c614a61565b5b60200260200101516040518263ffffffff1660e01b8152600401613ca191906142c7565b600060405180830381600087803b158015613cbb57600080fd5b505af1158015613ccf573d6000803e3d6000fd5b505050505b8080613cdf9061524a565b915050613b9b565b505050565b60006402540be40060647f0000000000000000000000000000000000000000000000000000000000000000600a613d239190614ecf565b8486613d2f9190614f1a565b613d399190614f1a565b613d439190614f8b565b613d4d9190614f8b565b905092915050565b6000808660000160109054906101000a90046fffffffffffffffffffffffffffffffff1690506040518060a001604052803373ffffffffffffffffffffffffffffffffffffffff168152602001876bffffffffffffffffffffffff168152602001866fffffffffffffffffffffffffffffffff168152602001826fffffffffffffffffffffffffffffffff16815260200184151581525060008086815260200190815260200160002060008201518160000160006101000a81548173ffffffffffffffffffffffffffffffffffffffff021916908373ffffffffffffffffffffffffffffffffffffffff16021790555060208201518160000160146101000a8154816bffffffffffffffffffffffff02191690836bffffffffffffffffffffffff16021790555060408201518160010160006101000a8154816fffffffffffffffffffffffffffffffff02191690836fffffffffffffffffffffffffffffffff16021790555060608201518160010160106101000a8154816fffffffffffffffffffffffffffffffff02191690836fffffffffffffffffffffffffffffffff16021790555060808201518160020160006101000a81548160ff021916908315150217905550905050848760000160108282829054906101000a90046fffffffffffffffffffffffffffffffff16613f4c9190614c73565b92506101000a8154816fffffffffffffffffffffffffffffffff02191690836fffffffffffffffffffffffffffffffff1602179055508091505095945050505050565b6000604051905090565b600080fd5b600080fd5b600080fd5b600080fd5b600080fd5b60008083601f840112613fc857613fc7613fa3565b5b8235905067ffffffffffffffff811115613fe557613fe4613fa8565b5b60208301915083602082028301111561400157614000613fad565b5b9250929050565b60006fffffffffffffffffffffffffffffffff82169050919050565b61402d81614008565b811461403857600080fd5b50565b60008135905061404a81614024565b92915050565b60006bffffffffffffffffffffffff82169050919050565b61407181614050565b811461407c57600080fd5b50565b60008135905061408e81614068565b92915050565b600080600080606085870312156140ae576140ad613f99565b5b600085013567ffffffffffffffff8111156140cc576140cb613f9e565b5b6140d887828801613fb2565b945094505060206140eb8782880161403b565b92505060406140fc8782880161407f565b91505092959194509250565b6000819050919050565b61411b81614108565b811461412657600080fd5b50565b60008135905061413881614112565b92915050565b60006020828403121561415457614153613f99565b5b600061416284828501614129565b91505092915050565b61417481614008565b82525050565b600060608201905061418f600083018661416b565b61419c602083018561416b565b6141a9604083018461416b565b949350505050565b60008115159050919050565b6141c6816141b1565b81146141d157600080fd5b50565b6000813590506141e3816141bd565b92915050565b6000806000806060858703121561420357614202613f99565b5b600085013567ffffffffffffffff81111561422157614220613f9e565b5b61422d87828801613fb2565b945094505060206142408782880161403b565b9250506040614251878288016141d4565b91505092959194509250565b6000602082019050614272600083018461416b565b92915050565b6000806040838503121561428f5761428e613f99565b5b600061429d8582860161407f565b92505060206142ae8582860161403b565b9150509250929050565b6142c181614108565b82525050565b60006020820190506142dc60008301846142b8565b92915050565b6000601f19601f8301169050919050565b7f4e487b7100000000000000000000000000000000000000000000000000000000600052604160045260246000fd5b61432b826142e2565b810181811067ffffffffffffffff8211171561434a576143496142f3565b5b80604052505050565b600061435d613f8f565b90506143698282614322565b919050565b600067ffffffffffffffff821115614389576143886142f3565b5b602082029050602081019050919050565b60006143ad6143a88461436e565b614353565b905080838252602082019050602084028301858111156143d0576143cf613fad565b5b835b818110156143f957806143e5888261407f565b8452602084019350506020810190506143d2565b5050509392505050565b600082601f83011261441857614417613fa3565b5b813561442884826020860161439a565b91505092915050565b600067ffffffffffffffff82111561444c5761444b6142f3565b5b602082029050602081019050919050565b600061447061446b84614431565b614353565b9050808382526020820190506020840283018581111561449357614492613fad565b5b835b818110156144bc57806144a8888261403b565b845260208401935050602081019050614495565b5050509392505050565b600082601f8301126144db576144da613fa3565b5b81356144eb84826020860161445d565b91505092915050565b6000806040838503121561450b5761450a613f99565b5b600083013567ffffffffffffffff81111561452957614528613f9e565b5b61453585828601614403565b925050602083013567ffffffffffffffff81111561455657614555613f9e565b5b614562858286016144c6565b9150509250929050565b60008083601f84011261458257614581613fa3565b5b8235905067ffffffffffffffff81111561459f5761459e613fa8565b5b6020830191508360208202830111156145bb576145ba613fad565b5b9250929050565b600080600080604085870312156145dc576145db613f99565b5b600085013567ffffffffffffffff8111156145fa576145f9613f9e565b5b6146068782880161456c565b9450945050602085013567ffffffffffffffff81111561462957614628613f9e565b5b61463587828801613fb2565b925092505092959194509250565b600073ffffffffffffffffffffffffffffffffffffffff82169050919050565b600061466e82614643565b9050919050565b61467e81614663565b82525050565b61468d81614050565b82525050565b61469c816141b1565b82525050565b600060a0820190506146b76000830188614675565b6146c46020830187614684565b6146d1604083018661416b565b6146de606083018561416b565b6146eb6080830184614693565b9695505050505050565b600067ffffffffffffffff8211156147105761470f6142f3565b5b602082029050602081019050919050565b600061473461472f846146f5565b614353565b9050808382526020820190506020840283018581111561475757614756613fad565b5b835b81811015614780578061476c8882614129565b845260208401935050602081019050614759565b5050509392505050565b600082601f83011261479f5761479e613fa3565b5b81356147af848260208601614721565b91505092915050565b600067ffffffffffffffff8211156147d3576147d26142f3565b5b602082029050602081019050919050565b60006147f76147f2846147b8565b614353565b9050808382526020820190506020840283018581111561481a57614819613fad565b5b835b81811015614843578061482f88826141d4565b84526020840193505060208101905061481c565b5050509392505050565b600082601f83011261486257614861613fa3565b5b81356148728482602086016147e4565b91505092915050565b6000806040838503121561489257614891613f99565b5b600083013567ffffffffffffffff8111156148b0576148af613f9e565b5b6148bc8582860161478a565b925050602083013567ffffffffffffffff8111156148dd576148dc613f9e565b5b6148e98582860161484d565b9150509250929050565b600082825260208201905092915050565b6000819050919050565b61491781614050565b82525050565b6000614929838361490e565b60208301905092915050565b6000614944602084018461407f565b905092915050565b6000602082019050919050565b600061496583856148f3565b935061497082614904565b8060005b858110156149a9576149868284614935565b614990888261491d565b975061499b8361494c565b925050600181019050614974565b5085925050509392505050565b600060608201905081810360008301526149d1818688614959565b90506149e0602083018561416b565b6149ed6040830184614693565b95945050505050565b600081519050614a0581614024565b92915050565b600060208284031215614a2157614a20613f99565b5b6000614a2f848285016149f6565b91505092915050565b6000604082019050614a4d6000830185614684565b614a5a602083018461416b565b9392505050565b7f4e487b7100000000000000000000000000000000000000000000000000000000600052603260045260246000fd5b600060208284031215614aa657614aa5613f99565b5b6000614ab48482850161407f565b91505092915050565b600082825260208201905092915050565b7f4f72646572426f6f6b3a20657865637574696e6720616761696e73742061206260008201527f7579206f72646572000000000000000000000000000000000000000000000000602082015250565b6000614b2a602883614abd565b9150614b3582614ace565b604082019050919050565b60006020820190508181036000830152614b5981614b1d565b9050919050565b7f4f72646572426f6f6b3a206f72646572206e6f742065786563757461626c6500600082015250565b6000614b96601f83614abd565b9150614ba182614b60565b602082019050919050565b60006020820190508181036000830152614bc581614b89565b9050919050565b7f4e487b7100000000000000000000000000000000000000000000000000000000600052601160045260246000fd5b6000614c0682614108565b9150614c1183614108565b9250828201905080821115614c2957614c28614bcc565b5b92915050565b6000614c3a82614008565b9150614c4583614008565b925082820390506fffffffffffffffffffffffffffffffff811115614c6d57614c6c614bcc565b5b92915050565b6000614c7e82614008565b9150614c8983614008565b925082820190506fffffffffffffffffffffffffffffffff811115614cb157614cb0614bcc565b5b92915050565b6000606082019050614ccc6000830186614675565b614cd96020830185614675565b614ce660408301846142b8565b949350505050565b600081519050614cfd816141bd565b92915050565b600060208284031215614d1957614d18613f99565b5b6000614d2784828501614cee565b91505092915050565b7f696e73756666696369656e7420766f6c756d65206f6e20626f6f6b0000000000600082015250565b6000614d66601b83614abd565b9150614d7182614d30565b602082019050919050565b60006020820190508181036000830152614d9581614d59565b9050919050565b60008160011c9050919050565b6000808291508390505b6001851115614df357808604811115614dcf57614dce614bcc565b5b6001851615614dde5780820291505b8081029050614dec85614d9c565b9450614db3565b94509492505050565b600082614e0c5760019050614ec8565b81614e1a5760009050614ec8565b8160018114614e305760028114614e3a57614e69565b6001915050614ec8565b60ff841115614e4c57614e4b614bcc565b5b8360020a915084821115614e6357614e62614bcc565b5b50614ec8565b5060208310610133831016604e8410600b8410161715614e9e5782820a905083811115614e9957614e98614bcc565b5b614ec8565b614eab8484846001614da9565b92509050818404811115614ec257614ec1614bcc565b5b81810290505b9392505050565b6000614eda82614108565b9150614ee583614108565b9250614f127fffffffffffffffffffffffffffffffffffffffffffffffffffffffffffffffff8484614dfc565b905092915050565b6000614f2582614108565b9150614f3083614108565b9250828202614f3e81614108565b91508282048414831517614f5557614f54614bcc565b5b5092915050565b7f4e487b7100000000000000000000000000000000000000000000000000000000600052601260045260246000fd5b6000614f9682614108565b9150614fa183614108565b925082614fb157614fb0614f5c565b5b828204905092915050565b6000604082019050614fd16000830185614675565b614fde60208301846142b8565b9392505050565b7f4f72646572426f6f6b3a2043616e63656c6c696e6720627579206f7264657200600082015250565b600061501b601f83614abd565b915061502682614fe5565b602082019050919050565b6000602082019050818103600083015261504a8161500e565b9050919050565b7f4f72646572426f6f6b3a204f6e6c79206f72646572206f776e65722063616e2060008201527f63616e63656c206f726465720000000000000000000000000000000000000000602082015250565b60006150ad602c83614abd565b91506150b882615051565b604082019050919050565b600060208201905081810360008301526150dc816150a0565b9050919050565b60006060820190506150f860008301866142b8565b6151056020830185614675565b6151126040830184614693565b949350505050565b600061512582614008565b915061513083614008565b925082820261513e81614008565b91508082146151505761514f614bcc565b5b5092915050565b600060c08201905061516c60008301896142b8565b6151796020830188614675565b6151866040830187614684565b615193606083018661416b565b6151a0608083018561416b565b6151ad60a0830184614693565b979650505050505050565b7f4f72646572426f6f6b3a2050726963657320616e642073697a6573206172726160008201527f79206c656e677468206d757374206d6174636800000000000000000000000000602082015250565b6000615214603383614abd565b915061521f826151b8565b604082019050919050565b6000602082019050818103600083015261524381615207565b9050919050565b600061525582614108565b91507fffffffffffffffffffffffffffffffffffffffffffffffffffffffffffffffff820361528757615286614bcc565b5b600182019050919050565b7f4f72646572426f6f6b3a204f6e6c79206f72646572206f776e65722063616e2060008201527f757064617465206f726465720000000000000000000000000000000000000000602082015250565b60006152ee602c83614abd565b91506152f982615292565b604082019050919050565b6000602082019050818103600083015261531d816152e1565b9050919050565b7f4f72646572426f6f6b3a20657865637574696e6720616761696e73742061207360008201527f656c6c206f726465720000000000000000000000000000000000000000000000602082015250565b6000615380602983614abd565b915061538b82615324565b604082019050919050565b600060208201905081810360008301526153af81615373565b9050919050565b7f4f72646572426f6f6b3a2043616e63656c6c696e672073656c6c206f72646572600082015250565b60006153ec602083614abd565b91506153f7826153b6565b602082019050919050565b6000602082019050818103600083015261541b816153df565b905091905056fea2646970667358221220853eaabfd3c11b16380d6468bb193c59c280aa741c4f8a4df1fc35645d598ff764736f6c63430008110033",
  "linkReferences": {},
  "deployedLinkReferences": {}
}