{
  "_format": "hh-sol-artifact-1",
  "contractName": "OrderBook",
  "sourceName": "contracts/OrderBook.sol",
  "abi": [
    {
      "inputs": [
        {
          "internalType": "address",
          "name": "_baseAssetAddress",
          "type": "address"
        },
        {
          "internalType": "uint256",
          "name": "_baseAssetDecimals",
          "type": "uint256"
        },
        {
          "internalType": "address",
          "name": "_quoteAssetAddress",
          "type": "address"
        },
        {
          "internalType": "uint256",
          "name": "_quoteAssetDecimals",
          "type": "uint256"
        },
        {
          "internalType": "address",
          "name": "_marginAccountAddress",
          "type": "address"
        },
        {
          "internalType": "uint96",
          "name": "_sizePrecision",
          "type": "uint96"
        },
        {
          "internalType": "uint24",
          "name": "_pricePrecision",
          "type": "uint24"
        },
        {
          "internalType": "uint96",
          "name": "_tickSize",
          "type": "uint96"
        },
        {
          "internalType": "uint96",
          "name": "_minSize",
          "type": "uint96"
        },
        {
          "internalType": "uint96",
          "name": "_maxSize",
          "type": "uint96"
        },
        {
          "internalType": "uint256",
          "name": "_takerFeeBps",
          "type": "uint256"
        }
      ],
      "stateMutability": "nonpayable",
      "type": "constructor"
    },
    {
      "anonymous": false,
      "inputs": [
        {
          "indexed": false,
          "internalType": "uint8",
          "name": "version",
          "type": "uint8"
        }
      ],
      "name": "Initialized",
      "type": "event"
    },
    {
      "anonymous": false,
      "inputs": [
        {
          "indexed": false,
          "internalType": "uint40",
          "name": "orderId",
          "type": "uint40"
        },
        {
          "indexed": false,
          "internalType": "address",
          "name": "owner",
          "type": "address"
        },
        {
          "indexed": false,
          "internalType": "uint96",
          "name": "size",
          "type": "uint96"
        },
        {
          "indexed": false,
          "internalType": "uint24",
          "name": "price",
          "type": "uint24"
        },
        {
          "indexed": false,
          "internalType": "bool",
          "name": "isBuy",
          "type": "bool"
        }
      ],
      "name": "OrderCreated",
      "type": "event"
    },
    {
      "anonymous": false,
      "inputs": [
        {
          "indexed": false,
          "internalType": "uint40[]",
          "name": "orderId",
          "type": "uint40[]"
        }
      ],
      "name": "OrdersCanceled",
      "type": "event"
    },
    {
      "anonymous": false,
      "inputs": [
        {
          "indexed": false,
          "internalType": "uint40[]",
          "name": "orderIds",
          "type": "uint40[]"
        },
        {
          "indexed": false,
          "internalType": "uint96[]",
          "name": "updatedSizes",
          "type": "uint96[]"
        }
      ],
      "name": "OrdersUpdated",
      "type": "event"
    },
    {
      "anonymous": false,
      "inputs": [
        {
          "indexed": true,
          "internalType": "address",
          "name": "previousOwner",
          "type": "address"
        },
        {
          "indexed": true,
          "internalType": "address",
          "name": "newOwner",
          "type": "address"
        }
      ],
      "name": "OwnershipTransferred",
      "type": "event"
    },
    {
      "anonymous": false,
      "inputs": [
        {
          "indexed": false,
          "internalType": "uint40",
          "name": "orderId",
          "type": "uint40"
        },
        {
          "indexed": false,
          "internalType": "uint96",
          "name": "updatedSize",
          "type": "uint96"
        },
        {
          "indexed": false,
          "internalType": "address",
          "name": "takerAddress",
          "type": "address"
        },
        {
          "indexed": false,
          "internalType": "uint96",
          "name": "filledSize",
          "type": "uint96"
        }
      ],
      "name": "Trade",
      "type": "event"
    },
    {
      "inputs": [
        {
          "internalType": "uint24",
          "name": "_price",
          "type": "uint24"
        },
        {
          "internalType": "uint96",
          "name": "size",
          "type": "uint96"
        }
      ],
      "name": "addBuyOrder",
      "outputs": [],
      "stateMutability": "nonpayable",
      "type": "function"
    },
    {
      "inputs": [
        {
          "internalType": "uint24",
          "name": "_price",
          "type": "uint24"
        },
        {
          "internalType": "uint96",
          "name": "size",
          "type": "uint96"
        }
      ],
      "name": "addSellOrder",
      "outputs": [],
      "stateMutability": "nonpayable",
      "type": "function"
    },
    {
      "inputs": [
        {
          "internalType": "uint40[]",
          "name": "_orderIds",
          "type": "uint40[]"
        }
      ],
      "name": "batchCancelOrders",
      "outputs": [],
      "stateMutability": "nonpayable",
      "type": "function"
    },
    {
      "inputs": [
        {
          "internalType": "uint40[]",
          "name": "_orderIds",
          "type": "uint40[]"
        },
        {
          "internalType": "uint96[]",
          "name": "_updatedSizes",
          "type": "uint96[]"
        },
        {
          "internalType": "bool",
          "name": "_useMargin",
          "type": "bool"
        }
      ],
      "name": "decreaseOrders",
      "outputs": [],
      "stateMutability": "nonpayable",
      "type": "function"
    },
    {
      "inputs": [],
      "name": "getBaseAssetDecimals",
      "outputs": [
        {
          "internalType": "uint256",
          "name": "",
          "type": "uint256"
        }
      ],
      "stateMutability": "view",
      "type": "function"
    },
    {
      "inputs": [],
      "name": "getL2Book",
      "outputs": [
        {
          "internalType": "bytes",
          "name": "",
          "type": "bytes"
        }
      ],
      "stateMutability": "view",
      "type": "function"
    },
    {
      "inputs": [],
      "name": "getMarketParams",
      "outputs": [
        {
          "internalType": "uint24",
          "name": "",
          "type": "uint24"
        },
        {
          "internalType": "uint96",
          "name": "",
          "type": "uint96"
        },
        {
          "internalType": "address",
          "name": "",
          "type": "address"
        },
        {
          "internalType": "uint256",
          "name": "",
          "type": "uint256"
        },
        {
          "internalType": "address",
          "name": "",
          "type": "address"
        },
        {
          "internalType": "uint256",
          "name": "",
          "type": "uint256"
        }
      ],
      "stateMutability": "view",
      "type": "function"
    },
    {
      "inputs": [],
      "name": "getPricePrecision",
      "outputs": [
        {
          "internalType": "uint24",
          "name": "",
          "type": "uint24"
        }
      ],
      "stateMutability": "view",
      "type": "function"
    },
    {
      "inputs": [],
      "name": "getQuoteAssetDecimals",
      "outputs": [
        {
          "internalType": "uint256",
          "name": "",
          "type": "uint256"
        }
      ],
      "stateMutability": "view",
      "type": "function"
    },
    {
      "inputs": [],
      "name": "getSizePrecision",
      "outputs": [
        {
          "internalType": "uint96",
          "name": "",
          "type": "uint96"
        }
      ],
      "stateMutability": "view",
      "type": "function"
    },
    {
      "inputs": [
        {
          "internalType": "address",
          "name": "_owner",
          "type": "address"
        }
      ],
      "name": "initialize",
      "outputs": [],
      "stateMutability": "nonpayable",
      "type": "function"
    },
    {
      "inputs": [],
      "name": "owner",
      "outputs": [
        {
          "internalType": "address",
          "name": "",
          "type": "address"
        }
      ],
      "stateMutability": "view",
      "type": "function"
    },
    {
      "inputs": [],
      "name": "pauseMarkets",
      "outputs": [],
      "stateMutability": "nonpayable",
      "type": "function"
    },
    {
      "inputs": [
        {
          "internalType": "uint24",
          "name": "_quoteSize",
          "type": "uint24"
        },
        {
          "internalType": "bool",
          "name": "_isFillOrKill",
          "type": "bool"
        }
      ],
      "name": "placeAndExecuteMarketBuy",
      "outputs": [],
      "stateMutability": "nonpayable",
      "type": "function"
    },
    {
      "inputs": [
        {
          "internalType": "uint96",
          "name": "_size",
          "type": "uint96"
        },
        {
          "internalType": "bool",
          "name": "_isFillOrKill",
          "type": "bool"
        }
      ],
      "name": "placeAndExecuteMarketSell",
      "outputs": [],
      "stateMutability": "nonpayable",
      "type": "function"
    },
    {
      "inputs": [
        {
          "internalType": "uint24[]",
          "name": "_prices",
          "type": "uint24[]"
        },
        {
          "internalType": "uint96[]",
          "name": "_sizes",
          "type": "uint96[]"
        }
      ],
      "name": "placeMultipleBuyOrders",
      "outputs": [],
      "stateMutability": "nonpayable",
      "type": "function"
    },
    {
      "inputs": [
        {
          "internalType": "uint24[]",
          "name": "_prices",
          "type": "uint24[]"
        },
        {
          "internalType": "uint96[]",
          "name": "_sizes",
          "type": "uint96[]"
        }
      ],
      "name": "placeMultipleSellOrders",
      "outputs": [],
      "stateMutability": "nonpayable",
      "type": "function"
    },
    {
      "inputs": [],
      "name": "renounceOwnership",
      "outputs": [],
      "stateMutability": "nonpayable",
      "type": "function"
    },
    {
      "inputs": [
        {
          "internalType": "uint256",
          "name": "",
          "type": "uint256"
        }
      ],
      "name": "s_buyPricePoints",
      "outputs": [
        {
          "internalType": "uint40",
          "name": "head",
          "type": "uint40"
        },
        {
          "internalType": "uint40",
          "name": "tail",
          "type": "uint40"
        }
      ],
      "stateMutability": "view",
      "type": "function"
    },
    {
      "inputs": [],
      "name": "s_buyTree",
      "outputs": [
        {
          "internalType": "bytes32",
          "name": "level0",
          "type": "bytes32"
        }
      ],
      "stateMutability": "view",
      "type": "function"
    },
    {
      "inputs": [],
      "name": "s_orderIdCounter",
      "outputs": [
        {
          "internalType": "uint40",
          "name": "",
          "type": "uint40"
        }
      ],
      "stateMutability": "view",
      "type": "function"
    },
    {
      "inputs": [
        {
          "internalType": "uint40",
          "name": "",
          "type": "uint40"
        }
      ],
      "name": "s_orders",
      "outputs": [
        {
          "internalType": "address",
          "name": "ownerAddress",
          "type": "address"
        },
        {
          "internalType": "uint96",
          "name": "size",
          "type": "uint96"
        },
        {
          "internalType": "uint40",
          "name": "prev",
          "type": "uint40"
        },
        {
          "internalType": "uint40",
          "name": "next",
          "type": "uint40"
        },
        {
          "internalType": "uint24",
          "name": "price",
          "type": "uint24"
        },
        {
          "internalType": "bool",
          "name": "isBuy",
          "type": "bool"
        }
      ],
      "stateMutability": "view",
      "type": "function"
    },
    {
      "inputs": [
        {
          "internalType": "uint256",
          "name": "",
          "type": "uint256"
        }
      ],
      "name": "s_sellPricePoints",
      "outputs": [
        {
          "internalType": "uint40",
          "name": "head",
          "type": "uint40"
        },
        {
          "internalType": "uint40",
          "name": "tail",
          "type": "uint40"
        }
      ],
      "stateMutability": "view",
      "type": "function"
    },
    {
      "inputs": [],
      "name": "s_sellTree",
      "outputs": [
        {
          "internalType": "bytes32",
          "name": "level0",
          "type": "bytes32"
        }
      ],
      "stateMutability": "view",
      "type": "function"
    },
    {
      "inputs": [
        {
          "internalType": "address",
          "name": "newOwner",
          "type": "address"
        }
      ],
      "name": "transferOwnership",
      "outputs": [],
      "stateMutability": "nonpayable",
      "type": "function"
    }
  ],
  "bytecode": "0x6101e06040523480156200001257600080fd5b5060405162004ca538038062004ca58339810160408190526200003591620000c8565b6001600160a01b039a8b1661014052978a16610160526101a0989098526101c09590955292909616610180526001600160601b0390811660805262ffffff90951660a052841660c052831660e0529116610100526101205262000199565b80516001600160a01b0381168114620000ab57600080fd5b919050565b80516001600160601b0381168114620000ab57600080fd5b60008060008060008060008060008060006101608c8e031215620000eb57600080fd5b620000f68c62000093565b9a5060208c015199506200010d60408d0162000093565b985060608c015197506200012460808d0162000093565b96506200013460a08d01620000b0565b955060c08c015162ffffff811681146200014d57600080fd5b94506200015d60e08d01620000b0565b93506200016e6101008d01620000b0565b92506200017f6101208d01620000b0565b91506101408c015190509295989b509295989b9093969950565b60805160a05160c05160e05161010051610120516101405161016051610180516101a0516101c05161487f62000426600039600081816103db015281816104f90152818161077e0152818161092b0152818161192701528181611f940152818161249301528181612f790152818161343a015261413f0152600081816104a90152818161052701528181611049015281816114af01528181611666015281816121b1015281816130e3015261400f015260008181610734015281816108b901528181611461015281816115f001528181611ef70152818161213a015281816123e5015281816125bf01528181612843015281816129a701528181612edc0152818161306c0152818161338c01526135650152600081816104cf0152818161070c015281816108e1015281816118dd01528181611f20015281816129d001528181612f050152613fb701526000818161047f01528181610ffb0152818161143901528181611618015281816121630152818161240e01528181613095015281816133b50152613f91015260008181612467015261340e015260008181610ef2015261177c015260008181610e71015281816116fb0152612e0d015260008181610f7601526118000152600081816102050152818161042401528181610759015281816109060152818161190201528181611f6f015281816129fb01528181612f54015261410c0152600081816101d201528181610450015281816110240152818161148a015281816116410152818161189401528181611f490152818161218c015281816122d80152818161237d0152818161243d01528181612a1d01528181612f2e015281816130be015281816132f5015281816133e401528181613fea01526140e7015261487f6000f3fe608060405234801561001057600080fd5b50600436106101a35760003560e01c80637a919ec7116100ee578063badc92d111610097578063d94d043211610071578063d94d04321461058e578063e6d29b51146105a1578063f2fde38b146105d3578063f7fe884f146105e657600080fd5b8063badc92d11461055e578063c4d66de814610568578063cae22ee61461057b57600080fd5b806390c9427c116100c857806390c9427c1461041a578063962f7f91146105255780639cb1e4ab1461054b57600080fd5b80637a919ec7146103c65780637b6966cb146103d95780638da5cb5b146103ff57600080fd5b806323afbff31161015057806346fdfbb11161012a57806346fdfbb11461039657806364e5220a146103ab578063715018a6146103be57600080fd5b806323afbff3146103495780632aa9fbdc1461035c5780632bf1360e1461036f57600080fd5b80630e2e2ffe116101815780630e2e2ffe1461022f5780631c0d9c221461027f5780631c4f3f311461033f57600080fd5b806302b90c65146101a857806308c8120e146101c557806308ea5bee146101fc575b600080fd5b606b546101b29081565b6040519081526020015b60405180910390f35b6040516001600160601b037f00000000000000000000000000000000000000000000000000000000000000001681526020016101bc565b60405162ffffff7f00000000000000000000000000000000000000000000000000000000000000001681526020016101bc565b61026161023d36600461418c565b60676020526000908152604090205464ffffffffff80821691600160281b90041682565b6040805164ffffffffff9384168152929091166020830152016101bc565b6102ee61028d3660046141ba565b606560205260009081526040902080546001909101546001600160a01b03821691600160a01b90046001600160601b03169064ffffffffff80821691600160281b810490911690600160501b810462ffffff1690600160681b900460ff1686565b604080516001600160a01b0390971687526001600160601b03909516602087015264ffffffffff938416948601949094529116606084015262ffffff166080830152151560a082015260c0016101bc565b6103476105f9565b005b61034761035736600461421a565b610618565b61034761036a36600461427d565b6106a3565b606e546103809064ffffffffff1681565b60405164ffffffffff90911681526020016101bc565b61039e6109ef565b6040516101bc91906142d8565b6103476103b936600461430b565b610cbd565b610347610e01565b6103476103d436600461438e565b610e15565b7f00000000000000000000000000000000000000000000000000000000000000006101b2565b6033546040516001600160a01b0390911681526020016101bc565b6040805162ffffff7f00000000000000000000000000000000000000000000000000000000000000001681526001600160601b037f00000000000000000000000000000000000000000000000000000000000000001660208201526001600160a01b037f00000000000000000000000000000000000000000000000000000000000000008116928201929092527f000000000000000000000000000000000000000000000000000000000000000060608201527f00000000000000000000000000000000000000000000000000000000000000009190911660808201527f000000000000000000000000000000000000000000000000000000000000000060a082015260c0016101bc565b7f00000000000000000000000000000000000000000000000000000000000000006101b2565b6103476105593660046143c1565b6111a0565b6068546101b29081565b610347610576366004614445565b6112b3565b61034761058936600461446e565b6113d5565b61034761059c36600461438e565b61169f565b6102616105af36600461418c565b60666020526000908152604090205464ffffffffff80821691600160281b90041682565b6103476105e1366004614445565b611a5a565b6103476105f436600461430b565b611aea565b610601611c27565b606e805465ff00000000001916600160281b179055565b60005b81811015610665576106528383838181106106385761063861448a565b905060200201602081019061064d91906141ba565b611c81565b508061065d816144b6565b91505061061b565b507fff827a141969be714c9574985077e0a90f4a3b4cc9bd4219c7beedbc1fdfc41b8282604051610697929190614514565b60405180910390a15050565b606e54600160281b900460ff16156107025760405162461bcd60e51b815260206004820152601b60248201527f4f72646572426f6f6b3a206d61726b657420697320706175736564000000000060448201526064015b60405180910390fd5b6001600160a01b037f0000000000000000000000000000000000000000000000000000000000000000166323b872dd337f000000000000000000000000000000000000000000000000000000000000000062ffffff7f0000000000000000000000000000000000000000000000000000000000000000166107a47f0000000000000000000000000000000000000000000000000000000000000000600a61460c565b6107b39062ffffff8916614618565b6107bd9190614645565b6040516001600160e01b031960e086901b1681526001600160a01b03938416600482015292909116602483015260448201526064016020604051808303816000875af1158015610811573d6000803e3d6000fd5b505050506040513d601f19601f820116820180604052508101906108359190614659565b5061084562ffffff836000612284565b915062ffffff8216156109eb5780156108af5760405162461bcd60e51b815260206004820152602660248201527f4f72646572426f6f6b3a20696e73756666696369656e7420766f6c756d65206f6044820152656e20626f6f6b60d01b60648201526084016106f9565b6001600160a01b037f0000000000000000000000000000000000000000000000000000000000000000166375eab98e337f000000000000000000000000000000000000000000000000000000000000000062ffffff7f0000000000000000000000000000000000000000000000000000000000000000166109517f0000000000000000000000000000000000000000000000000000000000000000600a61460c565b6109609062ffffff8916614618565b61096a9190614645565b6040516001600160e01b031960e086901b1681526001600160a01b0393841660048201529290911660248301526044820152600060648201526084016020604051808303816000875af11580156109c5573d6000803e3d6000fd5b505050506040513d601f19601f820116820180604052508101906109e99190614659565b505b5050565b6060600043604051602001610a0691815260200190565b60405160208183030381529060405290506000610a2560686000612644565b90505b62ffffff818116141580610a3f575062ffffff8116155b15610b4c5762ffffff811660009081526066602052604081205464ffffffffff16905b64ffffffffff821615610acd5764ffffffffff8216600090815260656020526040902054610aa090600160a01b90046001600160601b031682614676565b64ffffffffff928316600090815260656020526040902060010154600160281b9004909216919050610a62565b6040805162ffffff851660208201526001600160601b0383168183015281518082038301815260608201909252610b0891869160800161469d565b60408051601f198184030181529190529350610b2f6068610b2a8560016146cc565b612644565b92508262ffffff16600003610b45575050610b4c565b5050610a28565b604080516000602082015283910160408051601f1981840301815290829052610b78929160200161469d565b6040516020818303038152906040529150610b95606b6000612644565b90505b62ffffff818116141580610baf575062ffffff8116155b15610cb75762ffffff811660009081526067602052604081205464ffffffffff16905b64ffffffffff821615610c3d5764ffffffffff8216600090815260656020526040902054610c1090600160a01b90046001600160601b031682614676565b64ffffffffff928316600090815260656020526040902060010154600160281b9004909216919050610bd2565b6040805162ffffff851660208201526001600160601b0383168183015281518082038301815260608201909252610c7891869160800161469d565b60408051601f198184030181529190529350610c9a606b610b2a8560016146cc565b92508262ffffff16600003610cb0575050610cb7565b5050610b98565b50919050565b606e54600160281b900460ff1615610d175760405162461bcd60e51b815260206004820152601b60248201527f4f72646572426f6f6b3a206d61726b657420697320706175736564000000000060448201526064016106f9565b828114610d8c5760405162461bcd60e51b815260206004820152603360248201527f4f72646572426f6f6b3a2050726963657320616e642073697a6573206172726160448201527f79206c656e677468206d757374206d617463680000000000000000000000000060648201526084016106f9565b60005b83811015610dfa57610de8858583818110610dac57610dac61448a565b9050602002016020810190610dc191906146e8565b848484818110610dd357610dd361448a565b905060200201602081019061059c9190614703565b80610df2816144b6565b915050610d8f565b5050505050565b610e09611c27565b610e136000612792565b565b606e54600160281b900460ff1615610e6f5760405162461bcd60e51b815260206004820152601b60248201527f4f72646572426f6f6b3a206d61726b657420697320706175736564000000000060448201526064016106f9565b7f00000000000000000000000000000000000000000000000000000000000000006001600160601b0316816001600160601b031611610ef05760405162461bcd60e51b815260206004820152601760248201527f4f72646572426f6f6b3a2053697a6520746f6f206c6f7700000000000000000060448201526064016106f9565b7f00000000000000000000000000000000000000000000000000000000000000006001600160601b0316816001600160601b031610610f715760405162461bcd60e51b815260206004820152601960248201527f4f72646572426f6f6b3a2053697a6520746f6f206c617267650000000000000060448201526064016106f9565b610fa07f000000000000000000000000000000000000000000000000000000000000000062ffffff841661471e565b6001600160601b031615610ff65760405162461bcd60e51b815260206004820152601460248201527f4f72646572426f6f6b3a205469636b2053697a6500000000000000000000000060448201526064016106f9565b6110927f00000000000000000000000000000000000000000000000000000000000000006001600160601b037f00000000000000000000000000000000000000000000000000000000000000001661106f7f0000000000000000000000000000000000000000000000000000000000000000600a61460c565b611082906001600160601b038616614618565b61108c9190614645565b336127fc565b61109e828260016128b0565b90506001600160601b038116156109eb57606e5464ffffffffff166110c4816001614744565b606e805464ffffffffff191664ffffffffff929092169190911790556110eb606b84612a54565b5062ffffff831660009081526067602052604081206111149061110f846001614744565b612aef565b905061112e8484611126856001614744565b600085612b59565b7fde65ec26e567cef1936a693231b33b08ce40fca66ce0e78b38d938048c7a089161115a836001614744565b6040805164ffffffffff90921682523360208301526001600160601b0386169082015262ffffff861660608201526000608082015260a00160405180910390a150505050565b606e54600160281b900460ff16156111fa5760405162461bcd60e51b815260206004820152601b60248201527f4f72646572426f6f6b3a206d61726b657420697320706175736564000000000060448201526064016106f9565b60005b8481101561126e5761125c86868381811061121a5761121a61448a565b905060200201602081019061122f91906141ba565b8585848181106112415761124161448a565b90506020020160208101906112569190614703565b84612c71565b80611266816144b6565b9150506111fd565b507f54fa92f8d95172a75a6a6a4c181ac0e1ecfa38b90bb7761b761cbafde7056b5a858585856040516112a49493929190614762565b60405180910390a15050505050565b600054610100900460ff16158080156112d35750600054600160ff909116105b806112ed5750303b1580156112ed575060005460ff166001145b61135f5760405162461bcd60e51b815260206004820152602e60248201527f496e697469616c697a61626c653a20636f6e747261637420697320616c72656160448201527f647920696e697469616c697a656400000000000000000000000000000000000060648201526084016106f9565b6000805460ff191660011790558015611382576000805461ff0019166101001790555b61138a6131e8565b61139382612792565b80156109eb576000805461ff0019169055604051600181527f7f26b83ff96e1f2b6a682f133852f6798a09c465da95921460cefb384740249890602001610697565b606e54600160281b900460ff161561142f5760405162461bcd60e51b815260206004820152601b60248201527f4f72646572426f6f6b3a206d61726b657420697320706175736564000000000060448201526064016106f9565b6001600160a01b037f0000000000000000000000000000000000000000000000000000000000000000166323b872dd337f00000000000000000000000000000000000000000000000000000000000000006001600160601b037f0000000000000000000000000000000000000000000000000000000000000000166114d57f0000000000000000000000000000000000000000000000000000000000000000600a61460c565b6114e8906001600160601b038916614618565b6114f29190614645565b6040516001600160e01b031960e086901b1681526001600160a01b03938416600482015292909116602483015260448201526064016020604051808303816000875af1158015611546573d6000803e3d6000fd5b505050506040513d601f19601f8201168201806040525081019061156a9190614659565b5061157860008360006128b0565b91506001600160601b038216156109eb5780156115e65760405162461bcd60e51b815260206004820152602660248201527f4f72646572426f6f6b3a20696e73756666696369656e7420766f6c756d65206f6044820152656e20626f6f6b60d01b60648201526084016106f9565b6001600160a01b037f0000000000000000000000000000000000000000000000000000000000000000166375eab98e337f00000000000000000000000000000000000000000000000000000000000000006001600160601b037f00000000000000000000000000000000000000000000000000000000000000001661168c7f0000000000000000000000000000000000000000000000000000000000000000600a61460c565b610960906001600160601b038916614618565b606e54600160281b900460ff16156116f95760405162461bcd60e51b815260206004820152601b60248201527f4f72646572426f6f6b3a206d61726b657420697320706175736564000000000060448201526064016106f9565b7f00000000000000000000000000000000000000000000000000000000000000006001600160601b0316816001600160601b03161161177a5760405162461bcd60e51b815260206004820152601760248201527f4f72646572426f6f6b3a2053697a6520746f6f206c6f7700000000000000000060448201526064016106f9565b7f00000000000000000000000000000000000000000000000000000000000000006001600160601b0316816001600160601b0316106117fb5760405162461bcd60e51b815260206004820152601960248201527f4f72646572426f6f6b3a2053697a6520746f6f206c617267650000000000000060448201526064016106f9565b61182a7f000000000000000000000000000000000000000000000000000000000000000062ffffff841661471e565b6001600160601b0316156118805760405162461bcd60e51b815260206004820152601460248201527f4f72646572426f6f6b3a205469636b2053697a6500000000000000000000000060448201526064016106f9565b60008061188d848461325b565b90925090507f00000000000000000000000000000000000000000000000000000000000000006118c262ffffff8616846147c5565b6118cc91906147f0565b6118d690826146cc565b905061195c7f000000000000000000000000000000000000000000000000000000000000000062ffffff7f00000000000000000000000000000000000000000000000000000000000000001661194d7f0000000000000000000000000000000000000000000000000000000000000000600a61460c565b6110829062ffffff8616614618565b6001600160601b03821615611a5457606e5464ffffffffff16611980816001614744565b606e805464ffffffffff191664ffffffffff929092169190911790556119a7606886612a54565b5062ffffff851660009081526066602052604081206119cb9061110f846001614744565b90506119e586856119dd856001614744565b600185612b59565b7fde65ec26e567cef1936a693231b33b08ce40fca66ce0e78b38d938048c7a0891611a11836001614744565b6040805164ffffffffff90921682523360208301526001600160601b0387169082015262ffffff881660608201526001608082015260a00160405180910390a150505b50505050565b611a62611c27565b6001600160a01b038116611ade5760405162461bcd60e51b815260206004820152602660248201527f4f776e61626c653a206e6577206f776e657220697320746865207a65726f206160448201527f646472657373000000000000000000000000000000000000000000000000000060648201526084016106f9565b611ae781612792565b50565b606e54600160281b900460ff1615611b445760405162461bcd60e51b815260206004820152601b60248201527f4f72646572426f6f6b3a206d61726b657420697320706175736564000000000060448201526064016106f9565b828114611bb95760405162461bcd60e51b815260206004820152603360248201527f4f72646572426f6f6b3a2050726963657320616e642073697a6573206172726160448201527f79206c656e677468206d757374206d617463680000000000000000000000000060648201526084016106f9565b60005b83811015610dfa57611c15858583818110611bd957611bd961448a565b9050602002016020810190611bee91906146e8565b848484818110611c0057611c0061448a565b90506020020160208101906103d49190614703565b80611c1f816144b6565b915050611bbc565b6033546001600160a01b03163314610e135760405162461bcd60e51b815260206004820181905260248201527f4f776e61626c653a2063616c6c6572206973206e6f7420746865206f776e657260448201526064016106f9565b64ffffffffff8181166000908152606560209081526040808320815160c08101835281546001600160a01b0381168252600160a01b90046001600160601b0316938101939093526001015480851691830191909152600160281b81049093166060820152600160501b830462ffffff166080820152600160681b90920460ff16151560a083015290611d1383826135ef565b80516001600160a01b03163314611d925760405162461bcd60e51b815260206004820152602c60248201527f4f72646572426f6f6b3a204f6e6c79206f72646572206f776e65722063616e2060448201527f63616e63656c206f72646572000000000000000000000000000000000000000060648201526084016106f9565b604081015164ffffffffff1615611de757606081015160408083015164ffffffffff9081166000908152606560205291909120600101805491909216600160281b0269ffffffffff0000000000199091161790555b606081015164ffffffffff1615611e3257604081810151606083015164ffffffffff9081166000908152606560205292909220600101805464ffffffffff1916929091169190911790555b8060a001511561207f57608081015162ffffff1660009081526066602052604090205464ffffffffff90811690841603611e8f57608081015162ffffff1660009081526066602052604090206060820151611e8d9190613875565b505b611ebd60666000836080015162ffffff168152602001908152602001600020826040015183606001516138b9565b806060015164ffffffffff16816040015164ffffffffff1603611eeb57611ee96068826080015161390e565b505b80516001600160a01b037f000000000000000000000000000000000000000000000000000000000000000016906375eab98e907f00000000000000000000000000000000000000000000000000000000000000006001600160601b037f00000000000000000000000000000000000000000000000000000000000000001662ffffff7f000000000000000000000000000000000000000000000000000000000000000016611fba7f0000000000000000000000000000000000000000000000000000000000000000600a61460c565b876080015162ffffff168860200151611fd391906147c5565b6001600160601b0316611fe69190614618565b611ff09190614645565b611ffa9190614645565b6040516001600160e01b031960e086901b1681526001600160a01b0393841660048201529290911660248301526044820152600160648201526084016020604051808303816000875af1158015612055573d6000803e3d6000fd5b505050506040513d601f19601f820116820180604052508101906120799190614659565b5061227a565b608081015162ffffff1660009081526067602052604090205464ffffffffff908116908416036120d257608081015162ffffff16600090815260676020526040902060608201516120d09190613875565b505b61210060676000836080015162ffffff168152602001908152602001600020826040015183606001516138b9565b806060015164ffffffffff16816040015164ffffffffff160361212e5761212c606b826080015161390e565b505b80516001600160a01b037f000000000000000000000000000000000000000000000000000000000000000016906375eab98e907f00000000000000000000000000000000000000000000000000000000000000006001600160601b037f0000000000000000000000000000000000000000000000000000000000000000166121d77f0000000000000000000000000000000000000000000000000000000000000000600a61460c565b86602001516001600160601b03166121ef9190614618565b6121f99190614645565b6040516001600160e01b031960e086901b1681526001600160a01b0393841660048201529290911660248301526044820152600160648201526084016020604051808303816000875af1158015612254573d6000803e3d6000fd5b505050506040513d601f19601f820116820180604052508101906122789190614659565b505b60a0015192915050565b6000806000612295606b6000612644565b905060605b60008662ffffff161180156122b957508662ffffff168262ffffff1611155b80156122c9575062ffffff821615155b156123cc5760008262ffffff167f00000000000000000000000000000000000000000000000000000000000000008862ffffff1661230791906147c5565b61231191906147f0565b9050606061231f8286614676565b9450612345606b85606760008862ffffff168152602001908152602001600020856139a2565b90925090506123548286614816565b9450828160405160200161236992919061469d565b60408051601f1981840301815291905292507f00000000000000000000000000000000000000000000000000000000000000006123ab62ffffff8616846147c5565b6123b591906147f0565b97506123c3606b6000612644565b9350505061229a565b6001600160601b038316156125a1576001600160a01b037f000000000000000000000000000000000000000000000000000000000000000016636f5b601e82337f00000000000000000000000000000000000000000000000000000000000000006124626127106001600160601b037f000000000000000000000000000000000000000000000000000000000000000016614618565b61248e7f0000000000000000000000000000000000000000000000000000000000000000612710614836565b6124b97f0000000000000000000000000000000000000000000000000000000000000000600a61460c565b6124cc906001600160601b038c16614618565b6124d69190614618565b6124e09190614645565b604080516001600160a01b03948516602082015293909216918301919091526060820152881515608082015260a00160408051601f198184030181529082905261252d929160200161469d565b6040516020818303038152906040526040518263ffffffff1660e01b815260040161255891906142d8565b6020604051808303816000875af1158015612577573d6000803e3d6000fd5b505050506040513d601f19601f8201168201806040525081019061259b9190614659565b50612639565b805115612639576040516337adb00f60e11b81526001600160a01b037f00000000000000000000000000000000000000000000000000000000000000001690636f5b601e906125f49084906004016142d8565b6020604051808303816000875af1158015612613573d6000803e3d6000fd5b505050506040513d601f19601f820116820180604052508101906126379190614659565b505b509395945050505050565b60008061ffff600884901c1660ff80851690811461269957600082815260028701602052604081205493506126798483613a40565b905060001981146126975760089290921b909117925061278c915050565b505b5060ff80821690600883901c90821461271357600081815260018801602052604081205494506126c98584613a40565b9050600019811461271157600882901b8117600081815260028a016020526040902054955093506126f985613a4f565b60ff1660088560001c901b179550505050505061278c565b505b60ff81811692508214612783578654935060006127308584613a40565b90506000198114612781576000818152600189016020526040902054945090508061275a85613a4f565b60ff16600883901b17600081815260028a016020526040902054955093506126f985613a4f565b505b60009450505050505b92915050565b603380546001600160a01b038381167fffffffffffffffffffffffff0000000000000000000000000000000000000000831681179093556040519116919082907f8be0079c531659141344cd1fd0a4f28419497f9722a3daafe3b4186f6b6457e090600090a35050565b6040517f6c1392520000000000000000000000000000000000000000000000000000000081526001600160a01b0382811660048301528481166024830152604482018490527f00000000000000000000000000000000000000000000000000000000000000001690636c139252906064016020604051808303816000875af115801561288c573d6000803e3d6000fd5b505050506040513d601f19601f82011682018060405250810190611a549190614659565b600080806128c2606862ffffff613aeb565b905060605b6000866001600160601b03161180156128ea57508662ffffff168262ffffff1610155b80156128fb575062ffffff82811614155b1561298e5762ffffff821660009081526066602052604090208690606090612928906068908690856139a2565b909850905062ffffff841661293d8984614816565b61294791906147c5565b6129519086614676565b9450828160405160200161296692919061469d565b6040516020818303038152906040529250612985606862ffffff613aeb565b935050506128c7565b6001600160601b038316156125a1576001600160a01b037f000000000000000000000000000000000000000000000000000000000000000016636f5b601e82337f0000000000000000000000000000000000000000000000000000000000000000612710612a4162ffffff7f0000000000000000000000000000000000000000000000000000000000000000167f00000000000000000000000000000000000000000000000000000000000000006147c5565b6001600160601b03166124629190614618565b61ffff600882901c166000818152600284016020526040812054909190600160ff85161b8117808214612ae35760008381526002870160205260408120829055829003612ad757600883901c6000818152600180890160205260408220805460ff88169290921b821790559350839003612ad5578654600160ff83161b1787555b505b6001935050505061278c565b50600095945050505050565b8154600090600160281b900464ffffffffff1680612b31578354600160281b64ffffffffff851690810269ffffffffffffffffffff1990921617178455612b52565b835469ffffffffff00000000001916600160281b64ffffffffff8516021784555b9392505050565b6040805160c0810182523381526001600160601b03958616602080830191825264ffffffffff94851683850181815260006060860181815262ffffff9c8d166080880190815299151560a088019081529a8916808352606590955287822096519551909b16600160a01b026001600160a01b0390951694909417855551600194850180549a51985199511515600160681b026dff00000000000000000000000000199a909c16600160501b02999099166dffffffff0000000000000000000019988816600160281b90810269ffffffffffffffffffff19909c1692909816919091179990991796909616979097179790971790945591855293200180549290910269ffffffffff000000000019909216919091179055565b64ffffffffff838116600090815260656020908152604091829020825160c08101845281546001600160a01b0381168252600160a01b90046001600160601b0316928101929092526001015480841692820192909252600160281b82049092166060830152600160501b810462ffffff166080830152600160681b900460ff16151560a0820152612d0284826135ef565b80516001600160a01b03163314612d815760405162461bcd60e51b815260206004820152602c60248201527f4f72646572426f6f6b3a204f6e6c79206f72646572206f776e65722063616e2060448201527f757064617465206f72646572000000000000000000000000000000000000000060648201526084016106f9565b826001600160601b031681602001516001600160601b031611612e0b5760405162461bcd60e51b8152602060048201526024808201527f4f72646572426f6f6b3a2063616e277420696e637265617365206f726465722060448201527f73697a650000000000000000000000000000000000000000000000000000000060648201526084016106f9565b7f00000000000000000000000000000000000000000000000000000000000000006001600160601b0316836001600160601b031611612eb25760405162461bcd60e51b815260206004820152602e60248201527f4f72646572626f6f6b3a2073697a652068617320746f2062652067726561746560448201527f72207468616e206d696e696d756d00000000000000000000000000000000000060648201526084016106f9565b6000838260200151612ec49190614816565b90508160a00151156130605781516001600160a01b037f000000000000000000000000000000000000000000000000000000000000000016906375eab98e907f00000000000000000000000000000000000000000000000000000000000000006001600160601b037f00000000000000000000000000000000000000000000000000000000000000001662ffffff7f000000000000000000000000000000000000000000000000000000000000000016612f9f7f0000000000000000000000000000000000000000000000000000000000000000600a61460c565b6080890151612fb39062ffffff16896147c5565b6001600160601b0316612fc69190614618565b612fd09190614645565b612fda9190614645565b6040516001600160e01b031960e086901b1681526001600160a01b039384166004820152929091166024830152604482015285151560648201526084016020604051808303816000875af1158015613036573d6000803e3d6000fd5b505050506040513d601f19601f8201168201806040525081019061305a9190614659565b506131a8565b81516001600160a01b037f000000000000000000000000000000000000000000000000000000000000000016906375eab98e907f00000000000000000000000000000000000000000000000000000000000000006001600160601b037f0000000000000000000000000000000000000000000000000000000000000000166131097f0000000000000000000000000000000000000000000000000000000000000000600a61460c565b61311c906001600160601b038816614618565b6131269190614645565b6040516001600160e01b031960e086901b1681526001600160a01b039384166004820152929091166024830152604482015285151560648201526084016020604051808303816000875af1158015613182573d6000803e3d6000fd5b505050506040513d601f19601f820116820180604052508101906131a69190614659565b505b50505064ffffffffff909116600090815260656020526040902080546001600160601b03909216600160a01b026001600160a01b03909216919091179055565b600054610100900460ff166132535760405162461bcd60e51b815260206004820152602b60248201527f496e697469616c697a61626c653a20636f6e7472616374206973206e6f74206960448201526a6e697469616c697a696e6760a81b60648201526084016106f9565b610e13613c1b565b60008060008061326d606b6000612644565b9050600060605b6000876001600160601b031611801561329757508762ffffff168362ffffff1611155b80156132a7575062ffffff831615155b156133735762ffffff8316600090815260676020526040902060609088906132d490606b908790846139a2565b909950915060006132e58a83614816565b90506132f18188614676565b96507f000000000000000000000000000000000000000000000000000000000000000061332362ffffff8816836147c5565b61332d91906147f0565b61333790866146cc565b9450838360405160200161334c92919061469d565b6040516020818303038152906040529350613369606b6000612644565b9550505050613274565b6001600160601b03841615613547576001600160a01b037f000000000000000000000000000000000000000000000000000000000000000016636f5b601e82337f00000000000000000000000000000000000000000000000000000000000000006134096127106001600160601b037f000000000000000000000000000000000000000000000000000000000000000016614618565b6134357f0000000000000000000000000000000000000000000000000000000000000000612710614836565b6134607f0000000000000000000000000000000000000000000000000000000000000000600a61460c565b613473906001600160601b038d16614618565b61347d9190614618565b6134879190614645565b604080516001600160a01b039485166020820152939092169183019190915260608201526001608082015260a00160408051601f19818403018152908290526134d3929160200161469d565b6040516020818303038152906040526040518263ffffffff1660e01b81526004016134fe91906142d8565b6020604051808303816000875af115801561351d573d6000803e3d6000fd5b505050506040513d601f19601f820116820180604052508101906135419190614659565b506135df565b8051156135df576040516337adb00f60e11b81526001600160a01b037f00000000000000000000000000000000000000000000000000000000000000001690636f5b601e9061359a9084906004016142d8565b6020604051808303816000875af11580156135b9573d6000803e3d6000fd5b505050506040513d601f19601f820116820180604052508101906135dd9190614659565b505b50859450925050505b9250929050565b604081015164ffffffffff16156137735760408082015164ffffffffff908116600090815260656020529190912060010154600160281b90048116908316146136855760405162461bcd60e51b815260206004820152602260248201527f4f72646572426f6f6b3a204f7264657220616c72656164792063616e63656c6c604482015261195960f21b60648201526084016106f9565b8060a001511561370157608081015162ffffff1660009081526066602052604090205464ffffffffff808416911611156109eb5760405162461bcd60e51b815260206004820152600f60248201527f416c72656164792066696c6c656421000000000000000000000000000000000060448201526064016106f9565b608081015162ffffff1660009081526067602052604090205464ffffffffff808416911611156109eb5760405162461bcd60e51b815260206004820152600f60248201527f416c72656164792066696c6c656421000000000000000000000000000000000060448201526064016106f9565b8060a00151156137f957608081015162ffffff1660009081526066602052604090205464ffffffffff8381169116146109eb5760405162461bcd60e51b815260206004820152602260248201527f4f72646572426f6f6b3a204f7264657220616c72656164792063616e63656c6c604482015261195960f21b60648201526084016106f9565b608081015162ffffff1660009081526067602052604090205464ffffffffff8381169116146109eb5760405162461bcd60e51b815260206004820152602260248201527f4f72646572426f6f6b3a204f7264657220616c72656164792063616e63656c6c604482015261195960f21b60648201526084016106f9565b600064ffffffffff821661389c5750815469ffffffffffffffffffff19168255600161278c565b50815464ffffffffff191664ffffffffff91909116179055600090565b64ffffffffff82166138db57825464ffffffffff191664ffffffffff82161783555b64ffffffffff81166109e957825464ffffffffff8316600160281b0269ffffffffff000000000019909116178355505050565b61ffff600882901c166000818152600284016020526040812054909190600160ff85161b198116808214612ae35760008381526002870160205260408120829055819003612ad75750600882901c6000818152600187810160205260408220805460ff87169290921b19909116908190559190829003612ad5578654600160ff83161b19168755506001935050505061278c565b8154819060609064ffffffffff165b6000836001600160601b03161180156139d0575064ffffffffff811615155b15613a135760606139e18285613c8f565b60405192965090935091506139fc908490839060200161469d565b6040516020818303038152906040529250506139b1565b613a1d8582613875565b5064ffffffffff8116613a3657613a34878761390e565b505b5094509492505050565b6000612b528360018401613ea3565b60008160801b8015613a6357608091508092505b8260401b90508015613a76579150604001815b8260201b90508015613a89579150602001815b8260101b90508015613a9c579150601001815b8260081b90508015613aaf579150600801815b8260041b90508015613ac2579150600401815b8260021b90508015613ad5579150600201815b508160011b15613ae3576001015b60ff03919050565b60008061ffff600884901c1660ff84168015613b3e5760008281526002870160205260408120549350613b1e8483613ed1565b90506000198114613b3c5760089290921b909117925061278c915050565b505b5060ff8116600882901c8115613b9d5760008181526001880160205260408120549450613b6b8584613ed1565b90506000198114613b9b57600882901b8117600081815260028a016020526040902054955093506126f985613ee1565b505b60ff811691508115613c0c57865493506000613bb98584613ed1565b90506000198114613c0a5760008181526001890160205260409020549450905080613be385613ee1565b60ff16600883901b17600081815260028a016020526040902054955093506126f985613ee1565b505b5062ffffff9695505050505050565b600054610100900460ff16613c865760405162461bcd60e51b815260206004820152602b60248201527f496e697469616c697a61626c653a20636f6e7472616374206973206e6f74206960448201526a6e697469616c697a696e6760a81b60648201526084016106f9565b610e1333612792565b64ffffffffff8083166000908152606560205260408120600181015490549192600160281b90910416906060906001600160601b03600160a01b90910481169085168110613cde576000613ce8565b613ce88186614816565b93506000846001600160601b0316600003613d0a57613d078683614816565b90505b64ffffffffff8716600090815260656020526040902060018101549054613da891600160681b900460ff1615906001600160a01b03166001600160601b03881615613d7b5764ffffffffff8a16600090815260656020526040902054600160a01b90046001600160601b0316613d7d565b885b64ffffffffff8b16600090815260656020526040902060010154600160501b900462ffffff16613f86565b9250846001600160601b0316600003613e2c576001600160601b03811615613dce578693505b64ffffffffff871660009081526065602052604090208054879190601490613e07908490600160a01b90046001600160601b0316614816565b92506101000a8154816001600160601b0302191690836001600160601b031602179055505b7d01ebd527f6e342f5ba8b96af28895de0623f5cb5ccca5738a126634cb47a878233613e58898b614816565b6040805164ffffffffff90951685526001600160601b0393841660208601526001600160a01b039092169184019190915216606082015260800160405180910390a150509250925092565b60ff81169190911c9060008215613ec75781613ebe84613a4f565b0160ff16612b52565b5060001992915050565b6000612b528360001984016140ae565b60006fffffffffffffffffffffffffffffffff821115613f035750608090811c905b67ffffffffffffffff821115613f1b57604091821c91015b63ffffffff821115613f2f57602091821c91015b61ffff821115613f4157601091821c91015b60ff821115613f5257600891821c91015b600f821115613f6357600491821c91015b6003821115613f7457600291821c91015b6001821115613f81576001015b919050565b6060600085613fb5577f0000000000000000000000000000000000000000000000000000000000000000613fd7565b7f00000000000000000000000000000000000000000000000000000000000000005b9050600086614057576001600160601b037f0000000000000000000000000000000000000000000000000000000000000000166140357f0000000000000000000000000000000000000000000000000000000000000000600a61460c565b614048906001600160601b038816614618565b6140529190614645565b614066565b614066858562ffffff166140e0565b604080516001600160a01b039889166020820152939097168388015260608301525060016080808301919091528551808303909101815260a090910190945250919392505050565b60ff8181031691821b9160009083156140d457806140cb85613ee1565b60ff16036140d8565b6000195b949350505050565b60006141317f000000000000000000000000000000000000000000000000000000000000000062ffffff7f0000000000000000000000000000000000000000000000000000000000000000166147c5565b6001600160601b03166141657f0000000000000000000000000000000000000000000000000000000000000000600a61460c565b61416f84866147c5565b6001600160601b03166141829190614618565b612b529190614645565b60006020828403121561419e57600080fd5b5035919050565b803564ffffffffff81168114613f8157600080fd5b6000602082840312156141cc57600080fd5b612b52826141a5565b60008083601f8401126141e757600080fd5b50813567ffffffffffffffff8111156141ff57600080fd5b6020830191508360208260051b85010111156135e857600080fd5b6000806020838503121561422d57600080fd5b823567ffffffffffffffff81111561424457600080fd5b614250858286016141d5565b90969095509350505050565b803562ffffff81168114613f8157600080fd5b8015158114611ae757600080fd5b6000806040838503121561429057600080fd5b6142998361425c565b915060208301356142a98161426f565b809150509250929050565b60005b838110156142cf5781810151838201526020016142b7565b50506000910152565b60208152600082518060208401526142f78160408501602087016142b4565b601f01601f19169190910160400192915050565b6000806000806040858703121561432157600080fd5b843567ffffffffffffffff8082111561433957600080fd5b614345888389016141d5565b9096509450602087013591508082111561435e57600080fd5b5061436b878288016141d5565b95989497509550505050565b80356001600160601b0381168114613f8157600080fd5b600080604083850312156143a157600080fd5b6143aa8361425c565b91506143b860208401614377565b90509250929050565b6000806000806000606086880312156143d957600080fd5b853567ffffffffffffffff808211156143f157600080fd5b6143fd89838a016141d5565b9097509550602088013591508082111561441657600080fd5b50614423888289016141d5565b90945092505060408601356144378161426f565b809150509295509295909350565b60006020828403121561445757600080fd5b81356001600160a01b0381168114612b5257600080fd5b6000806040838503121561448157600080fd5b61429983614377565b634e487b7160e01b600052603260045260246000fd5b634e487b7160e01b600052601160045260246000fd5b6000600182016144c8576144c86144a0565b5060010190565b8183526000602080850194508260005b858110156145095764ffffffffff6144f6836141a5565b16875295820195908201906001016144df565b509495945050505050565b6020815260006140d86020830184866144cf565b600181815b80851115614563578160001904821115614549576145496144a0565b8085161561455657918102915b93841c939080029061452d565b509250929050565b60008261457a5750600161278c565b816145875750600061278c565b816001811461459d57600281146145a7576145c3565b600191505061278c565b60ff8411156145b8576145b86144a0565b50506001821b61278c565b5060208310610133831016604e8410600b84101617156145e6575081810a61278c565b6145f08383614528565b8060001904821115614604576146046144a0565b029392505050565b6000612b52838361456b565b808202811582820484141761278c5761278c6144a0565b634e487b7160e01b600052601260045260246000fd5b6000826146545761465461462f565b500490565b60006020828403121561466b57600080fd5b8151612b528161426f565b6001600160601b03818116838216019080821115614696576146966144a0565b5092915050565b600083516146af8184602088016142b4565b8351908301906146c38183602088016142b4565b01949350505050565b62ffffff818116838216019080821115614696576146966144a0565b6000602082840312156146fa57600080fd5b612b528261425c565b60006020828403121561471557600080fd5b612b5282614377565b60006001600160601b03808416806147385761473861462f565b92169190910692915050565b64ffffffffff818116838216019080821115614696576146966144a0565b6040815260006147766040830186886144cf565b8281036020848101919091528482528591810160005b868110156147b8576001600160601b036147a585614377565b168252928201929082019060010161478c565b5098975050505050505050565b6001600160601b038181168382160280821691908281146147e8576147e86144a0565b505092915050565b60006001600160601b038084168061480a5761480a61462f565b92169190910492915050565b6001600160601b03828116828216039080821115614696576146966144a0565b8181038181111561278c5761278c6144a056fea26469706673582212205d28b2d1babc11f516bc4c1567afdbfb4d463b90f82fda6bedb60647448df3b864736f6c63430008110033",
  "linkReferences": {},
  "deployedLinkReferences": {}
}