{
    "_format": "hh-sol-artifact-1",
    "contractName": "KuruAMMVault",
    "sourceName": "contracts/KuruAMMVault.sol",
    "abi": [
        {
            "inputs": [
                {
                    "internalType": "address",
                    "name": "token1_",
                    "type": "address"
                },
                {
                    "internalType": "address",
                    "name": "token2_",
                    "type": "address"
                },
                {
                    "internalType": "address",
                    "name": "_marginAccount",
                    "type": "address"
                },
                {
                    "internalType": "address",
                    "name": "_market",
                    "type": "address"
                },
                {
                    "internalType": "uint96",
                    "name": "_spreadConstant",
                    "type": "uint96"
                },
                {
                    "internalType": "string",
                    "name": "_name",
                    "type": "string"
                },
                {
                    "internalType": "string",
                    "name": "_symbol",
                    "type": "string"
                }
            ],
            "stateMutability": "nonpayable",
            "type": "constructor"
        },
        {
            "inputs": [],
            "name": "NewSizeExceedsPartiallyFilledSize",
            "type": "error"
        },
        {
            "anonymous": false,
            "inputs": [
                {
                    "indexed": true,
                    "internalType": "address",
                    "name": "owner",
                    "type": "address"
                },
                {
                    "indexed": true,
                    "internalType": "address",
                    "name": "spender",
                    "type": "address"
                },
                {
                    "indexed": false,
                    "internalType": "uint256",
                    "name": "value",
                    "type": "uint256"
                }
            ],
            "name": "Approval",
            "type": "event"
        },
        {
            "anonymous": false,
            "inputs": [
                {
                    "indexed": true,
                    "internalType": "address",
                    "name": "from",
                    "type": "address"
                },
                {
                    "indexed": true,
                    "internalType": "address",
                    "name": "to",
                    "type": "address"
                },
                {
                    "indexed": false,
                    "internalType": "uint256",
                    "name": "value",
                    "type": "uint256"
                }
            ],
            "name": "Transfer",
            "type": "event"
        },
        {
            "inputs": [
                {
                    "internalType": "address",
                    "name": "owner",
                    "type": "address"
                },
                {
                    "internalType": "address",
                    "name": "spender",
                    "type": "address"
                }
            ],
            "name": "allowance",
            "outputs": [
                {
                    "internalType": "uint256",
                    "name": "",
                    "type": "uint256"
                }
            ],
            "stateMutability": "view",
            "type": "function"
        },
        {
            "inputs": [
                {
                    "internalType": "address",
                    "name": "spender",
                    "type": "address"
                },
                {
                    "internalType": "uint256",
                    "name": "amount",
                    "type": "uint256"
                }
            ],
            "name": "approve",
            "outputs": [
                {
                    "internalType": "bool",
                    "name": "",
                    "type": "bool"
                }
            ],
            "stateMutability": "nonpayable",
            "type": "function"
        },
        {
            "inputs": [
                {
                    "internalType": "address",
                    "name": "account",
                    "type": "address"
                }
            ],
            "name": "balanceOf",
            "outputs": [
                {
                    "internalType": "uint256",
                    "name": "",
                    "type": "uint256"
                }
            ],
            "stateMutability": "view",
            "type": "function"
        },
        {
            "inputs": [],
            "name": "decimals",
            "outputs": [
                {
                    "internalType": "uint8",
                    "name": "",
                    "type": "uint8"
                }
            ],
            "stateMutability": "view",
            "type": "function"
        },
        {
            "inputs": [
                {
                    "internalType": "address",
                    "name": "spender",
                    "type": "address"
                },
                {
                    "internalType": "uint256",
                    "name": "subtractedValue",
                    "type": "uint256"
                }
            ],
            "name": "decreaseAllowance",
            "outputs": [
                {
                    "internalType": "bool",
                    "name": "",
                    "type": "bool"
                }
            ],
            "stateMutability": "nonpayable",
            "type": "function"
        },
        {
            "inputs": [
                {
                    "internalType": "uint256",
                    "name": "amount1",
                    "type": "uint256"
                },
                {
                    "internalType": "uint256",
                    "name": "amount2",
                    "type": "uint256"
                },
                {
                    "internalType": "address",
                    "name": "receiver",
                    "type": "address"
                }
            ],
            "name": "deposit",
            "outputs": [
                {
                    "internalType": "uint256",
                    "name": "",
                    "type": "uint256"
                }
            ],
            "stateMutability": "payable",
            "type": "function"
        },
        {
            "inputs": [
                {
                    "internalType": "address",
                    "name": "spender",
                    "type": "address"
                },
                {
                    "internalType": "uint256",
                    "name": "addedValue",
                    "type": "uint256"
                }
            ],
            "name": "increaseAllowance",
            "outputs": [
                {
                    "internalType": "bool",
                    "name": "",
                    "type": "bool"
                }
            ],
            "stateMutability": "nonpayable",
            "type": "function"
        },
        {
            "inputs": [
                {
                    "internalType": "uint256",
                    "name": "shares",
                    "type": "uint256"
                },
                {
                    "internalType": "address",
                    "name": "receiver",
                    "type": "address"
                }
            ],
            "name": "mint",
            "outputs": [
                {
                    "internalType": "uint256",
                    "name": "",
                    "type": "uint256"
                },
                {
                    "internalType": "uint256",
                    "name": "",
                    "type": "uint256"
                }
            ],
            "stateMutability": "payable",
            "type": "function"
        },
        {
            "inputs": [],
            "name": "name",
            "outputs": [
                {
                    "internalType": "string",
                    "name": "",
                    "type": "string"
                }
            ],
            "stateMutability": "view",
            "type": "function"
        },
        {
            "inputs": [
                {
                    "internalType": "uint256",
                    "name": "asset1",
                    "type": "uint256"
                },
                {
                    "internalType": "uint256",
                    "name": "asset2",
                    "type": "uint256"
                }
            ],
            "name": "previewDeposit",
            "outputs": [
                {
                    "internalType": "uint256",
                    "name": "",
                    "type": "uint256"
                }
            ],
            "stateMutability": "view",
            "type": "function"
        },
        {
            "inputs": [
                {
                    "internalType": "uint256",
                    "name": "shares",
                    "type": "uint256"
                }
            ],
            "name": "previewMint",
            "outputs": [
                {
                    "internalType": "uint256",
                    "name": "",
                    "type": "uint256"
                },
                {
                    "internalType": "uint256",
                    "name": "",
                    "type": "uint256"
                }
            ],
            "stateMutability": "view",
            "type": "function"
        },
        {
            "inputs": [
                {
                    "internalType": "uint256",
                    "name": "shares",
                    "type": "uint256"
                }
            ],
            "name": "previewRedeem",
            "outputs": [
                {
                    "internalType": "uint256",
                    "name": "",
                    "type": "uint256"
                },
                {
                    "internalType": "uint256",
                    "name": "",
                    "type": "uint256"
                }
            ],
            "stateMutability": "view",
            "type": "function"
        },
        {
            "inputs": [
                {
                    "internalType": "uint256",
                    "name": "asset1",
                    "type": "uint256"
                },
                {
                    "internalType": "uint256",
                    "name": "asset2",
                    "type": "uint256"
                }
            ],
            "name": "previewWithdraw",
            "outputs": [
                {
                    "internalType": "uint256",
                    "name": "",
                    "type": "uint256"
                }
            ],
            "stateMutability": "view",
            "type": "function"
        },
        {
            "inputs": [
                {
                    "internalType": "uint256",
                    "name": "shares",
                    "type": "uint256"
                },
                {
                    "internalType": "address",
                    "name": "receiver",
                    "type": "address"
                },
                {
                    "internalType": "address",
                    "name": "owner",
                    "type": "address"
                }
            ],
            "name": "redeem",
            "outputs": [
                {
                    "internalType": "uint256",
                    "name": "",
                    "type": "uint256"
                },
                {
                    "internalType": "uint256",
                    "name": "",
                    "type": "uint256"
                }
            ],
            "stateMutability": "nonpayable",
            "type": "function"
        },
        {
            "inputs": [],
            "name": "returnSpreadProfits",
            "outputs": [
                {
                    "internalType": "uint256",
                    "name": "",
                    "type": "uint256"
                },
                {
                    "internalType": "uint256",
                    "name": "",
                    "type": "uint256"
                }
            ],
            "stateMutability": "view",
            "type": "function"
        },
        {
            "inputs": [],
            "name": "setMarketParams",
            "outputs": [],
            "stateMutability": "nonpayable",
            "type": "function"
        },
        {
            "inputs": [],
            "name": "symbol",
            "outputs": [
                {
                    "internalType": "string",
                    "name": "",
                    "type": "string"
                }
            ],
            "stateMutability": "view",
            "type": "function"
        },
        {
            "inputs": [],
            "name": "totalAssets",
            "outputs": [
                {
                    "internalType": "uint256",
                    "name": "",
                    "type": "uint256"
                },
                {
                    "internalType": "uint256",
                    "name": "",
                    "type": "uint256"
                }
            ],
            "stateMutability": "view",
            "type": "function"
        },
        {
            "inputs": [],
            "name": "totalSupply",
            "outputs": [
                {
                    "internalType": "uint256",
                    "name": "",
                    "type": "uint256"
                }
            ],
            "stateMutability": "view",
            "type": "function"
        },
        {
            "inputs": [
                {
                    "internalType": "address",
                    "name": "to",
                    "type": "address"
                },
                {
                    "internalType": "uint256",
                    "name": "amount",
                    "type": "uint256"
                }
            ],
            "name": "transfer",
            "outputs": [
                {
                    "internalType": "bool",
                    "name": "",
                    "type": "bool"
                }
            ],
            "stateMutability": "nonpayable",
            "type": "function"
        },
        {
            "inputs": [
                {
                    "internalType": "address",
                    "name": "from",
                    "type": "address"
                },
                {
                    "internalType": "address",
                    "name": "to",
                    "type": "address"
                },
                {
                    "internalType": "uint256",
                    "name": "amount",
                    "type": "uint256"
                }
            ],
            "name": "transferFrom",
            "outputs": [
                {
                    "internalType": "bool",
                    "name": "",
                    "type": "bool"
                }
            ],
            "stateMutability": "nonpayable",
            "type": "function"
        },
        {
            "inputs": [
                {
                    "internalType": "uint256",
                    "name": "shares",
                    "type": "uint256"
                },
                {
                    "internalType": "address",
                    "name": "receiver",
                    "type": "address"
                },
                {
                    "internalType": "address",
                    "name": "owner",
                    "type": "address"
                }
            ],
            "name": "withdraw",
            "outputs": [
                {
                    "internalType": "uint256",
                    "name": "",
                    "type": "uint256"
                },
                {
                    "internalType": "uint256",
                    "name": "",
                    "type": "uint256"
                }
            ],
            "stateMutability": "nonpayable",
            "type": "function"
        },
        {
            "stateMutability": "payable",
            "type": "receive"
        }
    ],
    "bytecode": "0x610160806040523461061e576129ce803803809161001d8285610623565b8339810160e08282031261061e5761003482610646565b61004060208401610646565b61004c60408501610646565b9161005960608601610646565b6080860151959094906001600160601b038716870361061e5760a08101516001600160401b03811161061e578261009191830161065a565b60c08201519092906001600160401b03811161061e576100b1920161065a565b815190916001600160401b03821161051b5760035490600182811c92168015610614575b60208310146104fb5781601f8493116105a4575b50602090601f831160011461053c57600092610531575b50508160011b916000199060031b1c1916176003555b8051906001600160401b03821161051b5760045490600182811c92168015610511575b60208310146104fb5781601f84931161048b575b50602090601f831160011461042357600092610418575b50508160011b916000199060031b1c1916176004555b670de0b6b3a764000060055560808190526001600160a01b03169081158015919061040f5760405163313ce56760e01b8152602081600481875afa801561035b5760ff916000916103f0575b505b1660a05260c08190526001600160a01b0316948515801594906103e75760405163313ce56760e01b81526020816004818b5afa801561035b5760ff916000916103b8575b505b1660e0526001600160a01b0390811661010081905295166101205261014052610367575b506102f3575b6040516122d390816106fb8239608051818181610b5401528181610cdb0152611bb9015260a05181505060c051818181610bcc01528181610f1f015281816113360152611c1d015260e05181505061010051818181610b7c015281816111ff01528181611b8e01528181611fbb015261208401526101205181818161060201528181610d97015281816117e60152611a15015261014051818181610ddd015281816110690152818161182b01528181611a5b0152611d770152f35b6000916044602092604051948593849263095ea7b360e01b84526004840152811960248401525af1801561035b5761032c575b80610238565b61034d9060203d602011610354575b6103458183610623565b8101906106e2565b5038610326565b503d61033b565b6040513d6000823e3d90fd5b602060009160446040518094819363095ea7b360e01b8352886004840152811960248401525af1801561035b5715610232576103b19060203d602011610354576103458183610623565b5038610232565b6103da915060203d6020116103e0575b6103d28183610623565b8101906106c9565b3861020c565b503d6103c8565b60ff601261020e565b610409915060203d6020116103e0576103d28183610623565b386101c6565b60ff60126101c8565b015190503880610164565b600460009081528281209350601f198516905b818110610473575090846001959493921061045a575b505050811b0160045561017a565b015160001960f88460031b161c1916905538808061044c565b92936020600181928786015181550195019301610436565b60046000529091507f8a35acfbc15ff81a39ae7d344fd709f28e8600b4aa8c65c6b64bfe7fe36bd19b601f840160051c810191602085106104f1575b90601f859493920160051c01905b8181106104e2575061014d565b600081558493506001016104d5565b90915081906104c7565b634e487b7160e01b600052602260045260246000fd5b91607f1691610139565b634e487b7160e01b600052604160045260246000fd5b015190503880610100565b600360009081528281209350601f198516905b81811061058c5750908460019594939210610573575b505050811b01600355610116565b015160001960f88460031b161c19169055388080610565565b9293602060018192878601518155019501930161054f565b60036000529091507fc2575a0e9e593c00f959f8c92f12db2869c3395a3b0502d05e2516446f71f85b601f840160051c8101916020851061060a575b90601f859493920160051c01905b8181106105fb57506100e9565b600081558493506001016105ee565b90915081906105e0565b91607f16916100d5565b600080fd5b601f909101601f19168101906001600160401b0382119082101761051b57604052565b51906001600160a01b038216820361061e57565b81601f8201121561061e578051906001600160401b03821161051b576040519261068e601f8401601f191660200185610623565b8284526020838301011161061e5760005b8281106106b457505060206000918301015290565b8060208092840101518282870101520161069f565b9081602091031261061e575160ff8116810361061e5790565b9081602091031261061e5751801515810361061e579056fe6080604052600436101561001b575b361561001957600080fd5b005b60003560e01c806301e1d11414610a1f57806306fdde0314610961578063095ea7b31461093b57806318160ddd1461091d57806323b872dd146108e5578063313ce567146108c95780633950935114610877578063488bd7b01461083d5780634cdad5061461080057806370a08231146107c65780637660b153146105db5780637a7af70d146105b85780638dbdbe6d1461058057806394bf804d1461052b57806395d89b4114610424578063a457c2d71461037d578063a9059cbb1461034c578063b3d7f6b914610312578063b460af941461027d578063ba087652146101de578063d258b326146101685763dd62ed3e0361000e57346101635760403660031901126101635761012b610a83565b610133610a99565b6001600160a01b039182166000908152600160209081526040808320949093168252928352819020549051908152f35b600080fd5b346101635760003660031901126101635760406101d2610186610b37565b91906101cc6101a46101cc6101b561019c6117d7565b81949161136e565b6101af600a54611381565b9061136e565b6101c66005546101af600854611381565b9061138f565b926113af565b82519182526020820152f35b34610163576101ec36610ac5565b60018060a01b038116918260005260006020526040600020548411610229576040936101d2933314611956575b6102248133856114c4565b611956565b60405162461bcd60e51b815260206004820152602660248201527f4b757275414d4d5661756c743a2072656465656d206d6f7265207468616e2062604482015265616c616e636560d01b6064820152608490fd5b346101635761028b36610ac5565b60018060a01b0381169182600052600060205260406000205484116102bc576040936101d293330361021957611956565b60405162461bcd60e51b815260206004820152602860248201527f4b757275414d4d5661756c743a207769746864726177206d6f7265207468616e6044820152672062616c616e636560c01b6064820152608490fd5b346101635760203660031901126101635760406103426101d2600435610336610b37565b93906002549083611f3a565b9260025491611f3a565b3461016357604036600319011261016357610372610368610a83565b6024359033611561565b602060405160018152f35b3461016357604036600319011261016357610396610a83565b60243590336000526001602052604060002060018060a01b038216600052602052604060002054918083106103d157610372920390336113bc565b60405162461bcd60e51b815260206004820152602560248201527f45524332303a2064656372656173656420616c6c6f77616e63652062656c6f77604482015264207a65726f60d81b6064820152608490fd5b346101635760003660031901126101635760405160006004548060011c90600181168015610521575b60208310811461050d578285529081156104e9575060011461048a575b6104868361047a81850382610aff565b60405191829182610a3a565b0390f35b600460009081527f8a35acfbc15ff81a39ae7d344fd709f28e8600b4aa8c65c6b64bfe7fe36bd19b939250905b8082106104cf5750909150810160200161047a61046a565b9192600181602092548385880101520191019092916104b7565b60ff191660208086019190915291151560051b8401909101915061047a905061046a565b634e487b7160e01b84526022600452602484fd5b91607f169161044d565b6040366003190112610163576040610561610544610a99565b61057361056b600435610555610b37565b95906002549083611f3a565b9460025491611f3a565b918284610cd6565b5082519182526020820152f35b6060366003190112610163576044356001600160a01b0381168103610163576105b0602091602435600435610cd6565b604051908152f35b346101635760206105b06105cb36610aaf565b6105d36117d7565b9290506116ce565b3461016357600036600319011261016357604051632432509f60e21b8152610160816004817f00000000000000000000000000000000000000000000000000000000000000006001600160a01b03165afa80156107ba5760009081928291839184918591868791889389918a916106f5575b50906301000000600160781b039291600d55600c5562ffffff600b549116936001600160601b0360781b9060781b169064ffffffffff60d81b16179160181b161717600b55600a5560018060a01b031660018060a01b0319600954161760095560085560018060a01b031660018060a01b031960075416176007556301000000600160781b0362ffffff60065492169260181b169060018060781b0319161717600655600080f35b9a50505050505050505050610160823d82116107b2575b8161071a6101609383610aff565b810103126107af575061072c81610c9e565b9061073960208201610cae565b9061074660408201610cc2565b9260608201519161075960808201610cc2565b9160a08201519161076c60c08201610c9e565b916301000000600160781b0361078460e08401610cae565b6107916101008501610cae565b9261014061012086015195015190999a98979695919394919261064d565b80fd5b3d915061070c565b6040513d6000823e3d90fd5b34610163576020366003190112610163576001600160a01b036107e7610a83565b1660005260006020526020604060002054604051908152f35b3461016357602036600319011261016357604060006101d2600435610832610826610b37565b91906002549084611f16565b935060025491611f16565b3461016357602061086761085036610aaf565b919061085d61085d610b37565b9260025490611f3a565b8181109082180218604051908152f35b3461016357604036600319011261016357610372610893610a83565b336000526001602052604060002060018060a01b0382166000526020526108c260406000206024359054610c7b565b90336113bc565b3461016357600036600319011261016357602060405160128152f35b3461016357606036600319011261016357610372610901610a83565b610909610a99565b604435916109188333836114c4565b611561565b34610163576000366003190112610163576020600254604051908152f35b3461016357604036600319011261016357610372610957610a83565b60243590336113bc565b346101635760003660031901126101635760405160006003548060011c90600181168015610a15575b60208310811461050d578285529081156104e957506001146109b6576104868361047a81850382610aff565b600360009081527fc2575a0e9e593c00f959f8c92f12db2869c3395a3b0502d05e2516446f71f85b939250905b8082106109fb5750909150810160200161047a61046a565b9192600181602092548385880101520191019092916109e3565b91607f169161098a565b346101635760003660031901126101635760406101d2610b37565b91909160208152825180602083015260005b818110610a6d575060409293506000838284010152601f8019910116010190565b8060208092870101516040828601015201610a4c565b600435906001600160a01b038216820361016357565b602435906001600160a01b038216820361016357565b6040906003190112610163576004359060243590565b606090600319011261016357600435906024356001600160a01b038116810361016357906044356001600160a01b03811681036101635790565b90601f8019910116810190811067ffffffffffffffff821117610b2157604052565b634e487b7160e01b600052604160045260246000fd5b60405163d4fac45d60e01b81523060048201526001600160a01b037f0000000000000000000000000000000000000000000000000000000000000000811660248301527f0000000000000000000000000000000000000000000000000000000000000000169190602081604481865afa9081156107ba57600091610c49575b5060405163d4fac45d60e01b81523060048201527f00000000000000000000000000000000000000000000000000000000000000006001600160a01b0316602482015292602090849060449082905afa9283156107ba57600093610c1957509190565b9092506020813d602011610c41575b81610c3560209383610aff565b81010312610163575190565b3d9150610c28565b90506020813d602011610c73575b81610c6460209383610aff565b81010312610163575138610bb6565b3d9150610c57565b91908201809211610c8857565b634e487b7160e01b600052601160045260246000fd5b519062ffffff8216820361016357565b51906001600160601b038216820361016357565b51906001600160a01b038216820361016357565b9091907f00000000000000000000000000000000000000000000000000000000000000009060006001600160a01b03831661133457815b34106112ef5784610d1c6117d7565b600254909290156111675750610d46610d3b6101a46005548588611f3a565b6101c6600854611381565b96871161111057610d63610d5b8389876116ce565b809897611f58565b86156110b757610d7b84610d75611e6b565b92610c7b565b839283906000191461101d575b604051630445da7b60e51b81527f00000000000000000000000000000000000000000000000000000000000000006001600160a01b0316919060e081600481865afa9485156110125787918896610f9d575b507f00000000000000000000000000000000000000000000000000000000000000006001600160601b038116610e10878261136e565b91602084019283516001600160601b0316610e2a9161136e565b90610e349061179b565b93606001938451610e4490611381565b610e56916001600160601b031661136e565b610e5f9161138f565b6001600160601b031696610e729161136e565b90516001600160601b0316610e869161136e565b9051610e9190611381565b90816107d002916107d0830403610f8957610eb56001600160601b0392839261138f565b169516841190811591610f75575b50610f6657813b15610f62579185608492819594604051978896879563e55bb4e360e01b875260048701526024860152604485015260648401525af18015610f575791610f1d9391610f44969593610f47575b5050611fa4565b7f000000000000000000000000000000000000000000000000000000000000000090611fa4565b90565b81610f5191610aff565b38610f16565b6040513d84823e3d90fd5b8580fd5b636a2628d960e01b8652600486fd5b6001600160601b0391501684111538610ec3565b634e487b7160e01b89526011600452602489fd5b9150945060e0813d60e01161100a575b81610fba60e09383610aff565b8101031261100657610fcb81610cc2565b50610fd860408201610cae565b610ffd60c0610fe960808501610cae565b93610ff660a08201610cae565b5001610cae565b50909438610dda565b8680fd5b3d9150610fad565b6040513d89823e3d90fd5b50915061105b8261105661104d61104061103a6060870151611381565b8b61136e565b6101c660a0870151611381565b6005549061136e565b61138f565b916001600160601b0361108d7f00000000000000000000000000000000000000000000000000000000000000006117b9565b166103e88402816103e88683041486151702156110aa5704610d88565b63ad251c2786526004601cfd5b60405162461bcd60e51b815260206004820152602b60248201527f4b757275414d4d5661756c743a20494e53554646494349454e545f4c4951554960448201526a1112551657d3525395115160aa1b6064820152608490fd5b60405162461bcd60e51b815260206004820152602960248201527f4b757275414d4d5661756c743a20494e53554646494349454e5420544f4b454e6044820152680814d554141312515160ba1b6064820152608490fd5b9596611173908561136e565b8060018060881b031060071b81811c68ffffffffffffffffff1060061b1781811c64ffffffffff1060051b1781811c62ffffff1060041b1760b56201000083831c019160011c1b0260121c8082040160011c8082040160011c8082040160011c8082040160011c8082040160011c8082040160011c8082040160011c8080920410900360018060a01b037f00000000000000000000000000000000000000000000000000000000000000001680156112aa576002546103e881018091116112965760025580855284602052604085206103e881540190558460008051602061227e83398151915260206040516103e88152a36103e7198101908111611282578061127d9198611f58565b610d63565b634e487b7160e01b84526011600452602484fd5b634e487b7160e01b86526011600452602486fd5b60405162461bcd60e51b815260206004820152601f60248201527f45524332303a206d696e7420746f20746865207a65726f2061646472657373006044820152606490fd5b60405162461bcd60e51b815260206004820152601e60248201527f4b757275414d4d5661756c743a20696e636f727265637420616d6f756e7400006044820152606490fd5b7f00000000000000000000000000000000000000000000000000000000000000006001600160a01b03166113685784610d0d565b80610d0d565b81810292918115918404141715610c8857565b604d8111610c8857600a0a90565b8115611399570490565b634e487b7160e01b600052601260045260246000fd5b91908203918211610c8857565b6001600160a01b0316908115611473576001600160a01b03169182156114235760207f8c5be1e5ebec7d5bd14f71427d1e84f3dd0314c0f7b2291e5b200ac8c7c3b925918360005260018252604060002085600052825280604060002055604051908152a3565b60405162461bcd60e51b815260206004820152602260248201527f45524332303a20617070726f766520746f20746865207a65726f206164647265604482015261737360f01b6064820152608490fd5b60405162461bcd60e51b8152602060048201526024808201527f45524332303a20617070726f76652066726f6d20746865207a65726f206164646044820152637265737360e01b6064820152608490fd5b9060018060a01b0382166000526001602052604060002060018060a01b038216600052602052604060002054926000198403611501575b50505050565b80841061151c576115139303916113bc565b388080806114fb565b60405162461bcd60e51b815260206004820152601d60248201527f45524332303a20696e73756666696369656e7420616c6c6f77616e63650000006044820152606490fd5b6001600160a01b031690811561167b576001600160a01b031691821561162a578160005260006020526040600020548181106115d6578160008051602061227e8339815191529260209285600052600084520360406000205584600052600082526040600020818154019055604051908152a3565b60405162461bcd60e51b815260206004820152602660248201527f45524332303a207472616e7366657220616d6f756e7420657863656564732062604482015265616c616e636560d01b6064820152608490fd5b60405162461bcd60e51b815260206004820152602360248201527f45524332303a207472616e7366657220746f20746865207a65726f206164647260448201526265737360e81b6064820152608490fd5b60405162461bcd60e51b815260206004820152602560248201527f45524332303a207472616e736665722066726f6d20746865207a65726f206164604482015264647265737360d81b6064820152608490fd5b826116d7610b37565b91906116e1611e6b565b956116eb9161136e565b9160a086019283516116fc90611381565b6117059161136e565b9560600190815161171590611381565b9660055497886117249161136e565b61172d9161138f565b9061173791610c7b565b60011c95611745908761136e565b905161175090611381565b6117599161136e565b915161176490611381565b9061176e9161136e565b6117779161138f565b60025461178392611f16565b9160025461179092611f16565b818110908218021890565b6001600160601b03166107d001906001600160601b038211610c8857565b6001600160601b03166103e801906001600160601b038211610c8857565b604051632889856360e11b81527f00000000000000000000000000000000000000000000000000000000000000006001600160a01b03169190602081600481865afa9081156107ba5760009161191c575b507f0000000000000000000000000000000000000000000000000000000000000000906001600160601b038061185d8461179b565b16911602906001600160601b038216918203610c88576001600160601b03168015611399576020600494604051958680926311d2e12360e21b82525afa9384156107ba576000946118e6575b506118e2916001600160601b036118cd926118c5600854611381565b92041661136e565b6001600160601b0360065460181c169061138f565b9190565b9093506020813d602011611914575b8161190260209383610aff565b810103126101635751926118e26118a9565b3d91506118f5565b90506020813d60201161194e575b8161193760209383610aff565b810103126101635761194890610cae565b38611828565b3d915061192a565b906119789193929360009061198361196c610b37565b95906002549084611f16565b946002549083611f16565b9561198c6117d7565b929091869060025480611e57575b506001600160a01b03168015611e085780865285602052604086205490838210611db85760008051602061227e8339815191526020856119f9968a958587528684520360408620558060025403600255604051908152a36101cc611e6b565b8392839060001914611d46575b604051630445da7b60e51b81527f00000000000000000000000000000000000000000000000000000000000000006001600160a01b0316919060e081600481865afa9485156110125787918896611ce9575b507f00000000000000000000000000000000000000000000000000000000000000006001600160601b038116611a8e878261136e565b91602084019283516001600160601b0316611aa89161136e565b90611ab29061179b565b93606001938451611ac290611381565b611ad4916001600160601b031661136e565b611add9161138f565b6001600160601b031696611af09161136e565b90516001600160601b0316611b049161136e565b9051611b0f90611381565b90816107d002916107d0830403610f8957611b336001600160601b0392839261138f565b169516841190811591611cd5575b50610f6657813b15610f62579185608492819594604051978896879563e55bb4e360e01b875260048701526024860152604485015260648401525af18015610f57578290611cc5575b50507f00000000000000000000000000000000000000000000000000000000000000006001600160a01b0316907f000000000000000000000000000000000000000000000000000000000000000090823b156107af57604051627b8a6760e11b8152600481018690526001600160a01b0383166024820152818160448183885af18015610f5757908291611cb0575b50507f000000000000000000000000000000000000000000000000000000000000000092803b15611cac57604051627b8a6760e11b8152600481018990526001600160a01b03851660248201529082908290604490829084905af18015610f5757611c97575b505090611c91836118e2949386612144565b85612144565b611ca2828092610aff565b6107af5780611c7f565b5080fd5b81611cba91610aff565b6107af578038611c19565b611cce91610aff565b3881611b8a565b6001600160601b0391501684111538611b41565b9150945060e0813d60e011611d3e575b81611d0660e09383610aff565b8101031261100657611d1781610cc2565b50611d2460408201610cae565b611d3560c0610fe960808501610cae565b50909438611a58565b3d9150611cf9565b509150611d698261105661104d611040611d636060870151611381565b8c61136e565b916001600160601b03611d9b7f00000000000000000000000000000000000000000000000000000000000000006117b9565b166103e88402816103e88683041486151702156110aa5704611a06565b60405162461bcd60e51b815260206004820152602260248201527f45524332303a206275726e20616d6f756e7420657863656564732062616c616e604482015261636560f01b6064820152608490fd5b60405162461bcd60e51b815260206004820152602160248201527f45524332303a206275726e2066726f6d20746865207a65726f206164647265736044820152607360f81b6064820152608490fd5b611e649192508484611f16565b903861199a565b60405190610160820182811067ffffffffffffffff821117610b2157604052816001600160601b0360065462ffffff8116835260181c16602082015260018060a01b03600754166040820152600854606082015260018060a01b03600954166080820152600a5460a08201526001600160601b03600b5462ffffff811660c0840152818160181c1660e084015260781c16610100820152600c54610120820152610140600d54910152565b8181029181159183041417820215611f2c570490565b63ad251c276000526004601cfd5b818102929181159184041417810215611f2c57808204910615150190565b6001600160a01b03169081156112aa5760008051602061227e833981519152602082611f88600094600254610c7b565b60025584845283825260408420818154019055604051908152a3565b6000916001600160a01b03811683816120475750507f00000000000000000000000000000000000000000000000000000000000000006001600160a01b031690813b1561204357604051638340f54960e01b81523060048201526001600160a01b039190911660248201526044810183905291839183916064918391905af18015610f5757612031575050565b61203c828092610aff565b6107af5750565b8380fd5b606460209282604051916323b872dd60e01b83523360048401523060248401528760448401525af13d15601f3d11600186511416171615612108577f00000000000000000000000000000000000000000000000000000000000000006001600160a01b031690813b1561204357604051638340f54960e01b81523060048201526001600160a01b03919091166024820152604481019290925282908290606490829084905af18015610f57576120fb575050565b8161210591610aff565b50565b60405162461bcd60e51b81526020600482015260146024820152731514905394d1915497d19493d357d1905253115160621b6044820152606490fd5b91906001600160a01b0316806121fe5750600080809381935af13d156121f9573d67ffffffffffffffff8111610b21576040519061218c601f8201601f191660200183610aff565b8152600060203d92013e5b1561219e57565b60405162461bcd60e51b815260206004820152602d60248201527f4b757275414d4d5661756c743a206661696c656420746f207472616e7366657260448201526c103730ba34bb32903a37b5b2b760991b6064820152608490fd5b612197565b60405163a9059cbb60e01b81526001600160a01b039092166004830152602482019290925260209160009160449183905af13d15601f3d116001600051141617161561224657565b60405162461bcd60e51b815260206004820152600f60248201526e1514905394d1915497d19052531151608a1b6044820152606490fdfeddf252ad1be2c89b69c2b068fc378daa952ba7f163c4a11628f55a4df523b3efa26469706673582212205d6c6901709b0541443f2b5d5e7eda9d10fccd4d8948d40cbd3495da083ed80764736f6c634300081a0033",
    "linkReferences": {},
    "deployedLinkReferences": {}
}