{
    "_format": "hh-sol-artifact-1",
    "contractName": "KuruUtils",
    "sourceName": "contracts/periphery/KuruUtils.sol",
    "abi": [
        {
            "inputs": [
                {
                    "internalType": "address[]",
                    "name": "route",
                    "type": "address[]"
                },
                {
                    "internalType": "bool[]",
                    "name": "isBuy",
                    "type": "bool[]"
                }
            ],
            "name": "calculatePriceOverRoute",
            "outputs": [
                {
                    "internalType": "uint256",
                    "name": "",
                    "type": "uint256"
                }
            ],
            "stateMutability": "view",
            "type": "function"
        }
    ],
    "bytecode": "0x60808060405234601557610371908161001a8239f35b5f80fdfe60806040526004361015610011575f80fd5b5f3560e01c630964d85b14610024575f80fd5b3461028b57604036600319011261028b5760043567ffffffffffffffff811161028b573660238201121561028b578060040135610060816102e5565b9161006e60405193846102af565b8183526024602084019260051b8201019036821161028b57602401915b81831061028f578360243567ffffffffffffffff811161028b573660238201121561028b5780600401356100be816102e5565b916100cc60405193846102af565b8183526024602084019260051b8201019036821161028b57602401915b81831061027257505050670de0b6b3a7640000915f925b81518410156102675761011384846102fd565b51156101ca5760049060406001600160a01b0361013087866102fd565b5116815193848092630b4de8b760e41b82525afa9182156101bf575f9261018d575b5081810291818304149015171561017957670de0b6b3a764000060019104935b0192610100565b634e487b7160e01b5f52601160045260245ffd5b6101af91925060403d81116101b8575b6101a781836102af565b810190610325565b90509085610152565b503d61019d565b6040513d5f823e3d90fd5b600460406001600160a01b036101e087866102fd565b5116815192838092630b4de8b760e41b82525afa9081156101bf575f91610248575b50670de0b6b3a7640000820291808304670de0b6b3a76400001490151715610179578015610234576001910493610172565b634e487b7160e01b5f52601260045260245ffd5b610260915060403d81116101b8576101a781836102af565b5085610202565b602090604051908152f35b8235801515810361028b578152602092830192016100e9565b5f80fd5b82356001600160a01b038116810361028b5781526020928301920161008b565b90601f8019910116810190811067ffffffffffffffff8211176102d157604052565b634e487b7160e01b5f52604160045260245ffd5b67ffffffffffffffff81116102d15760051b60200190565b80518210156103115760209160051b010190565b634e487b7160e01b5f52603260045260245ffd5b919082604091031261028b57602082519201519056fea2646970667358221220e7d6873a9b57d637a8a60f38d5fec6f182925e43021a5ec340076495d0aa105d64736f6c634300081a0033",
    "linkReferences": {},
    "deployedLinkReferences": {}
}