{
  "_format": "hh-sol-artifact-1",
  "contractName": "MarginAccount",
  "sourceName": "contracts/MarginAccount.sol",
  "abi": [
    {
      "inputs": [
        {
          "internalType": "address",
          "name": "_router",
          "type": "address"
        },
        {
          "internalType": "address",
          "name": "_feeCollector",
          "type": "address"
        }
      ],
      "stateMutability": "nonpayable",
      "type": "constructor"
    },
    {
      "inputs": [],
      "name": "InsufficientBalance",
      "type": "error"
    },
    {
      "inputs": [],
      "name": "NativeAssetMismatch",
      "type": "error"
    },
    {
      "inputs": [],
      "name": "NativeAssetTransferFail",
      "type": "error"
    },
    {
      "inputs": [],
      "name": "OnlyRouterAllowed",
      "type": "error"
    },
    {
      "inputs": [],
      "name": "OnlyVerifiedMarketsAllowed",
      "type": "error"
    },
    {
      "inputs": [],
      "name": "ZeroAddressNotAllowed",
      "type": "error"
    },
    {
      "anonymous": false,
      "inputs": [
        {
          "indexed": false,
          "internalType": "address",
          "name": "owner",
          "type": "address"
        },
        {
          "indexed": false,
          "internalType": "address",
          "name": "token",
          "type": "address"
        },
        {
          "indexed": false,
          "internalType": "uint256",
          "name": "amount",
          "type": "uint256"
        }
      ],
      "name": "Deposit",
      "type": "event"
    },
    {
      "anonymous": false,
      "inputs": [
        {
          "indexed": false,
          "internalType": "address",
          "name": "owner",
          "type": "address"
        },
        {
          "indexed": false,
          "internalType": "address",
          "name": "token",
          "type": "address"
        },
        {
          "indexed": false,
          "internalType": "uint256",
          "name": "amount",
          "type": "uint256"
        }
      ],
      "name": "Withdrawal",
      "type": "event"
    },
    {
      "inputs": [
        {
          "internalType": "bytes32",
          "name": "",
          "type": "bytes32"
        }
      ],
      "name": "balances",
      "outputs": [
        {
          "internalType": "uint256",
          "name": "",
          "type": "uint256"
        }
      ],
      "stateMutability": "view",
      "type": "function"
    },
    {
      "inputs": [
        {
          "internalType": "address",
          "name": "_assetA",
          "type": "address"
        },
        {
          "internalType": "uint256",
          "name": "_feeA",
          "type": "uint256"
        },
        {
          "internalType": "address",
          "name": "_assetB",
          "type": "address"
        },
        {
          "internalType": "uint256",
          "name": "_feeB",
          "type": "uint256"
        }
      ],
      "name": "creditFee",
      "outputs": [
        {
          "internalType": "bool",
          "name": "",
          "type": "bool"
        }
      ],
      "stateMutability": "nonpayable",
      "type": "function"
    },
    {
      "inputs": [
        {
          "internalType": "address",
          "name": "_user",
          "type": "address"
        },
        {
          "internalType": "address",
          "name": "_token",
          "type": "address"
        },
        {
          "internalType": "uint256",
          "name": "_amount",
          "type": "uint256"
        },
        {
          "internalType": "bool",
          "name": "_useMargin",
          "type": "bool"
        }
      ],
      "name": "creditUser",
      "outputs": [
        {
          "internalType": "bool",
          "name": "",
          "type": "bool"
        }
      ],
      "stateMutability": "nonpayable",
      "type": "function"
    },
    {
      "inputs": [
        {
          "internalType": "bytes",
          "name": "_encodedData",
          "type": "bytes"
        }
      ],
      "name": "creditUsersEncoded",
      "outputs": [
        {
          "internalType": "bool",
          "name": "",
          "type": "bool"
        }
      ],
      "stateMutability": "nonpayable",
      "type": "function"
    },
    {
      "inputs": [
        {
          "internalType": "address",
          "name": "_user",
          "type": "address"
        },
        {
          "internalType": "address",
          "name": "_token",
          "type": "address"
        },
        {
          "internalType": "uint256",
          "name": "_amount",
          "type": "uint256"
        }
      ],
      "name": "debitUser",
      "outputs": [],
      "stateMutability": "nonpayable",
      "type": "function"
    },
    {
      "inputs": [
        {
          "internalType": "address",
          "name": "_user",
          "type": "address"
        },
        {
          "internalType": "address",
          "name": "_token",
          "type": "address"
        },
        {
          "internalType": "uint256",
          "name": "_amount",
          "type": "uint256"
        }
      ],
      "name": "deposit",
      "outputs": [],
      "stateMutability": "payable",
      "type": "function"
    },
    {
      "inputs": [
        {
          "internalType": "address",
          "name": "_user",
          "type": "address"
        },
        {
          "internalType": "address",
          "name": "_token",
          "type": "address"
        }
      ],
      "name": "getBalance",
      "outputs": [
        {
          "internalType": "uint256",
          "name": "",
          "type": "uint256"
        }
      ],
      "stateMutability": "view",
      "type": "function"
    },
    {
      "inputs": [
        {
          "internalType": "address",
          "name": "_marketAddress",
          "type": "address"
        }
      ],
      "name": "updateMarkets",
      "outputs": [],
      "stateMutability": "nonpayable",
      "type": "function"
    },
    {
      "inputs": [
        {
          "internalType": "address",
          "name": "",
          "type": "address"
        }
      ],
      "name": "verifiedMarket",
      "outputs": [
        {
          "internalType": "bool",
          "name": "",
          "type": "bool"
        }
      ],
      "stateMutability": "view",
      "type": "function"
    },
    {
      "inputs": [
        {
          "internalType": "uint256",
          "name": "_amount",
          "type": "uint256"
        },
        {
          "internalType": "address",
          "name": "_token",
          "type": "address"
        }
      ],
      "name": "withdraw",
      "outputs": [],
      "stateMutability": "nonpayable",
      "type": "function"
    },
    {
      "stateMutability": "payable",
      "type": "receive"
    }
  ],
  "bytecode": "0x60a034608857601f6109bd38819003918201601f19168301916001600160401b03831184841017608c578084926040948552833981010312608857604b602060458360a0565b920160a0565b608091909152600280546001600160a01b0319166001600160a01b0390921691909117905560405161090990816100b48239608051816105ee0152f35b5f80fd5b634e487b7160e01b5f52604160045260245ffd5b51906001600160a01b038216820360885756fe6080604052600436101561001a575b3615610018575f80fd5b005b5f3560e01c8062f714ce1461065157806301aef349146105d357806349f59b62146105385780635f71a07c146104fb5780636c1392521461048a5780636f5b601e1461034657806375eab98e1461027a5780638340f549146100f75780638909aa3f146100ce5763d4fac45d0361000e57346100ca5760403660031901126100ca576100b56100a7610760565b6100af61074a565b90610853565b5f525f602052602060405f2054604051908152f35b5f80fd5b346100ca5760203660031901126100ca576004355f525f602052602060405f2054604051908152f35b6101003661078a565b916001600160a01b0381161561026b576001600160a01b0382166101d0578234036101c1576101bc7f5548c837ab068cf56a2c2479df0882a4922fd203edb7517321831d95078c5f629360405160208101906001600160601b03198560601b1682525f6034820152602881526101776048826107d1565b5190205f525f60205260405f2061018f828254610846565b90555b604080516001600160a01b0394851681529490931660208501529183019190915281906060820190565b0390a1005b63cd41a9e360e01b5f5260045ffd5b346101c15760405183606052306040523360601b602c526323b872dd60601b600c5260205f6064601c82875af13d1560015f511417161561025e577f5548c837ab068cf56a2c2479df0882a4922fd203edb7517321831d95078c5f62936101bc915f6060526040526102428484610853565b5f525f60205260405f20610257828254610846565b9055610192565b637939f4245f526004601cfd5b6342bcdf7f60e11b5f5260045ffd5b346100ca5760803660031901126100ca57610293610760565b61029b61074a565b906044359060643580151581036100ca57335f52600160205260ff60405f2054161561033757156102f457916102d19192610853565b5f525f6020526102e660405f20918254610846565b90555b602060405160018152f35b6001600160a01b038316610329575f809350809281925af1610314610807565b506102e9575b63386bf62b60e11b5f5260045ffd5b61033292610895565b6102e9565b63e843078760e01b5f5260045ffd5b346100ca5760203660031901126100ca5760043567ffffffffffffffff81116100ca57366023820112156100ca5780600401359067ffffffffffffffff82116100ca5736602483830101116100ca57335f52600160205260ff60405f20541615610337575f905b8282106103bf57602060405160018152f35b6080820191828111610476578383116100ca578101916103e160248401610776565b926103ee60448201610776565b608460648301359201359485151586036100ca5792946001600160a01b0391821693909116901561044157916104249192610853565b5f525f60205261043960405f20918254610846565b90555b6103ad565b82156104505761043c92610895565b5f809350809281925af1610462610807565b5061043c5763386bf62b60e11b5f5260045ffd5b634e487b7160e01b5f52601160045260245ffd5b346100ca576104983661078a565b9190335f52600160205260ff60405f20541615610337576104b98183610853565b5f525f6020528260405f2054106104ec576104d391610853565b5f525f6020526104e860405f209182546107c4565b9055005b631e9acf1760e31b5f5260045ffd5b346100ca5760203660031901126100ca576001600160a01b0361051c610760565b165f526001602052602060ff60405f2054166040519015158152f35b346100ca5760803660031901126100ca57610551610760565b6044356001600160a01b03811681036100ca57335f52600160205260ff60405f20541615610337576002546105bc92610592916001600160a01b0316610853565b5f525f60205260405f206105a96024358254610846565b90556002546001600160a01b0316610853565b5f525f60205260405f206102e66064358254610846565b346100ca5760203660031901126100ca576105ec610760565b7f00000000000000000000000000000000000000000000000000000000000000006001600160a01b03163303610642576001600160a01b03165f908152600160208190526040909120805460ff19169091179055005b631d0989ab60e31b5f5260045ffd5b346100ca5760403660031901126100ca5760043561066d61074a565b906106788233610853565b5f525f60205260405f205481116104ec576106938233610853565b5f525f60205260405f206106a88282546107c4565b90556001600160a01b038216610718575f80808084335af16106c8610807565b501561031a577f2717ead6b9200dd235aad468c9809ea400fe33ac69b5bfaa6d3e90fc922b6398915b604080513381526001600160a01b03909216602083015281019190915280606081016101bc565b7f2717ead6b9200dd235aad468c9809ea400fe33ac69b5bfaa6d3e90fc922b639891610745823383610895565b6106f1565b602435906001600160a01b03821682036100ca57565b600435906001600160a01b03821682036100ca57565b35906001600160a01b03821682036100ca57565b60609060031901126100ca576004356001600160a01b03811681036100ca57906024356001600160a01b03811681036100ca579060443590565b9190820391821161047657565b90601f8019910116810190811067ffffffffffffffff8211176107f357604052565b634e487b7160e01b5f52604160045260245ffd5b3d15610841573d9067ffffffffffffffff82116107f35760405191610836601f8201601f1916602001846107d1565b82523d5f602084013e565b606090565b9190820180921161047657565b906040519060208201926001600160601b03199060601b1683526001600160601b03199060601b1660348201526028815261088f6048826107d1565b51902090565b60105f604492602095829560145260345263a9059cbb60601b82525af13d1560015f51141716156108c6575f603452565b6390b8ec185f526004601cfdfea2646970667358221220d15e454b7f3e1736ec1a260fd25d0f807bb2a1b29b114ddf8324fbed095758d364736f6c634300081a0033",
  "linkReferences": {},
  "deployedLinkReferences": {}
}