{
  "_format": "hh-sol-artifact-1",
  "contractName": "MarginAccount",
  "sourceName": "contracts/MarginAccount.sol",
  "abi": [
    {
      "inputs": [
        {
          "internalType": "address",
          "name": "_router",
          "type": "address"
        },
        {
          "internalType": "address",
          "name": "_feeCollector",
          "type": "address"
        }
      ],
      "stateMutability": "nonpayable",
      "type": "constructor"
    },
    {
      "anonymous": false,
      "inputs": [
        {
          "indexed": false,
          "internalType": "address",
          "name": "owner",
          "type": "address"
        },
        {
          "indexed": false,
          "internalType": "address",
          "name": "token",
          "type": "address"
        },
        {
          "indexed": false,
          "internalType": "uint256",
          "name": "amount",
          "type": "uint256"
        }
      ],
      "name": "Deposit",
      "type": "event"
    },
    {
      "anonymous": false,
      "inputs": [
        {
          "indexed": false,
          "internalType": "address",
          "name": "owner",
          "type": "address"
        },
        {
          "indexed": false,
          "internalType": "address",
          "name": "token",
          "type": "address"
        },
        {
          "indexed": false,
          "internalType": "uint256",
          "name": "amount",
          "type": "uint256"
        }
      ],
      "name": "Withdrawal",
      "type": "event"
    },
    {
      "inputs": [
        {
          "internalType": "bytes32",
          "name": "",
          "type": "bytes32"
        }
      ],
      "name": "balances",
      "outputs": [
        {
          "internalType": "uint256",
          "name": "",
          "type": "uint256"
        }
      ],
      "stateMutability": "view",
      "type": "function"
    },
    {
      "inputs": [
        {
          "internalType": "address",
          "name": "_assetA",
          "type": "address"
        },
        {
          "internalType": "uint256",
          "name": "_feeA",
          "type": "uint256"
        },
        {
          "internalType": "address",
          "name": "_assetB",
          "type": "address"
        },
        {
          "internalType": "uint256",
          "name": "_feeB",
          "type": "uint256"
        }
      ],
      "name": "creditFee",
      "outputs": [
        {
          "internalType": "bool",
          "name": "",
          "type": "bool"
        }
      ],
      "stateMutability": "nonpayable",
      "type": "function"
    },
    {
      "inputs": [
        {
          "internalType": "address",
          "name": "_user",
          "type": "address"
        },
        {
          "internalType": "address",
          "name": "_token",
          "type": "address"
        },
        {
          "internalType": "uint256",
          "name": "_amount",
          "type": "uint256"
        },
        {
          "internalType": "bool",
          "name": "_useMargin",
          "type": "bool"
        }
      ],
      "name": "creditUser",
      "outputs": [
        {
          "internalType": "bool",
          "name": "",
          "type": "bool"
        }
      ],
      "stateMutability": "nonpayable",
      "type": "function"
    },
    {
      "inputs": [
        {
          "internalType": "bytes",
          "name": "_encodedData",
          "type": "bytes"
        }
      ],
      "name": "creditUsersEncoded",
      "outputs": [
        {
          "internalType": "bool",
          "name": "",
          "type": "bool"
        }
      ],
      "stateMutability": "nonpayable",
      "type": "function"
    },
    {
      "inputs": [
        {
          "internalType": "address",
          "name": "_user",
          "type": "address"
        },
        {
          "internalType": "address",
          "name": "_token",
          "type": "address"
        },
        {
          "internalType": "uint256",
          "name": "_amount",
          "type": "uint256"
        }
      ],
      "name": "debitUser",
      "outputs": [
        {
          "internalType": "bool",
          "name": "",
          "type": "bool"
        }
      ],
      "stateMutability": "nonpayable",
      "type": "function"
    },
    {
      "inputs": [
        {
          "internalType": "address",
          "name": "_user",
          "type": "address"
        },
        {
          "internalType": "address",
          "name": "_token",
          "type": "address"
        },
        {
          "internalType": "uint256",
          "name": "_amount",
          "type": "uint256"
        }
      ],
      "name": "deposit",
      "outputs": [],
      "stateMutability": "payable",
      "type": "function"
    },
    {
      "inputs": [
        {
          "internalType": "address",
          "name": "_user",
          "type": "address"
        },
        {
          "internalType": "address",
          "name": "_token",
          "type": "address"
        }
      ],
      "name": "getBalance",
      "outputs": [
        {
          "internalType": "uint256",
          "name": "",
          "type": "uint256"
        }
      ],
      "stateMutability": "view",
      "type": "function"
    },
    {
      "inputs": [
        {
          "internalType": "address",
          "name": "_marketAddress",
          "type": "address"
        }
      ],
      "name": "updateMarkets",
      "outputs": [],
      "stateMutability": "nonpayable",
      "type": "function"
    },
    {
      "inputs": [
        {
          "internalType": "address",
          "name": "",
          "type": "address"
        }
      ],
      "name": "verifiedMarket",
      "outputs": [
        {
          "internalType": "bool",
          "name": "",
          "type": "bool"
        }
      ],
      "stateMutability": "view",
      "type": "function"
    },
    {
      "inputs": [
        {
          "internalType": "uint256",
          "name": "_amount",
          "type": "uint256"
        },
        {
          "internalType": "address",
          "name": "_token",
          "type": "address"
        }
      ],
      "name": "withdraw",
      "outputs": [],
      "stateMutability": "nonpayable",
      "type": "function"
    },
    {
      "stateMutability": "payable",
      "type": "receive"
    }
  ],
  "bytecode": "0x60a034608857601f610d1138819003918201601f19168301916001600160401b03831184841017608d578084926040948552833981010312608857604b602060458360a3565b920160a3565b608091909152600280546001600160a01b0319166001600160a01b03909216919091179055604051610c5a90816100b782396080518161077d0152f35b600080fd5b634e487b7160e01b600052604160045260246000fd5b51906001600160a01b038216820360885756fe6080604052600436101561001b575b361561001957600080fd5b005b60003560e01c8062f714ce1461082d57806301aef3491461076257806349f59b621461065e5780635f71a07c1461061f5780636c139252146105655780636f5b601e1461042257806375eab98e1461036a5780638340f549146101005780638909aa3f146100d45763d4fac45d0361000e57346100cf5760403660031901126100cf576100b76100a96109d9565b6100b16109c3565b90610ba0565b60005260006020526020604060002054604051908152f35b600080fd5b346100cf5760203660031901126100cf5760043560005260006020526020604060002054604051908152f35b61010936610a03565b916001600160a01b03811615610315576001600160a01b038216610224578234036101ce576101c97f5548c837ab068cf56a2c2479df0882a4922fd203edb7517321831d95078c5f629360405160208101906001600160601b03198560601b1682526000603482015260288152610181604882610a4a565b5190206000526000602052604060002061019c828254610ac2565b90555b604080516001600160a01b0394851681529490931660208501529183019190915281906060820190565b0390a1005b60405162461bcd60e51b815260206004820152602860248201527f4d617267696e4163636f756e743a20616d6f756e7420616e642076616c7565206044820152670dad2e6dac2e8c6d60c31b6064820152608490fd5b346102c65760405183606052306040523360601b602c526323b872dd60601b600c52602060006064601c82875af13d156001600051141716156102b8577f5548c837ab068cf56a2c2479df0882a4922fd203edb7517321831d95078c5f62936101c99160006060526040526102998484610ba0565b600052600060205260406000206102b1828254610ac2565b905561019f565b637939f4246000526004601cfd5b60405162461bcd60e51b815260206004820152602160248201527f4d617267696e4163636f756e743a206d73672e76616c7565206e6f74207a65726044820152606f60f81b6064820152608490fd5b60405162461bcd60e51b815260206004820152602760248201527f4d617267696e4163636f756e743a207a65726f2061646472657373206e6f7420604482015266185b1b1bddd95960ca1b6064820152608490fd5b346100cf5760803660031901126100cf576103836109d9565b61038b6109c3565b6044359060643580151581036100cf573360005260016020526103b560ff60406000205416610acf565b156103ea576103c49192610ba0565b60005260006020526103dc6040600020918254610ac2565b90555b602060405160018152f35b6001600160a01b0381166104185750600080808093610413955af161040d610a82565b50610b39565b6103df565b9161041392610be2565b346100cf5760203660031901126100cf5760043567ffffffffffffffff81116100cf57366023820112156100cf57806004013567ffffffffffffffff81116100cf5736602482840101116100cf5733600052600160205261048a60ff60406000205416610acf565b60005b81811061049f57602060405160018152f35b6080810180821161054f5760009183821161054b5784016104c2602482016109ef565b926104cf604483016109ef565b926084606484013593013594851515860361054b5790946001600160a01b0391821694909116915015610526576105069192610ba0565b600052600060205261051e6040600020918254610ac2565b90555b61048d565b8015610536579161052192610be2565b50600080808093610521955af161040d610a82565b8280fd5b634e487b7160e01b600052601160045260246000fd5b346100cf5761057336610a03565b919033600052600160205261058f60ff60406000205416610acf565b6105998183610ba0565b600052600060205282604060002054106105ce576105b691610ba0565b60005260006020526103dc6040600020918254610a3d565b60405162461bcd60e51b8152602060048201526024808201527f4d617267696e4163636f69756e743a20496e73756666696369656e742042616c604482015263616e636560e01b6064820152608490fd5b346100cf5760203660031901126100cf576001600160a01b036106406109d9565b166000526001602052602060ff604060002054166040519015158152f35b346100cf5760803660031901126100cf576106776109d9565b6044356001600160a01b03811681036100cf5733600052600160205260ff6040600020541615610701576002546106e7926106ba916001600160a01b0316610ba0565b600052600060205260406000206106d46024358254610ac2565b90556002546001600160a01b0316610ba0565b600052600060205260406000206103dc6064358254610ac2565b60405162461bcd60e51b815260206004820152603360248201527f4d617267696e4163636f756e743a204f6e6c79207665726966696564206d61726044820152726b6574732063616e206372656469742066656560681b6064820152608490fd5b346100cf5760203660031901126100cf5761077b6109d9565b7f00000000000000000000000000000000000000000000000000000000000000006001600160a01b031633036107d2576001600160a01b03166000908152600160208190526040909120805460ff19169091179055005b60405162461bcd60e51b815260206004820152602d60248201527f4d617267696e4163636f756e743a204f6e6c7920726f757465722063616e207560448201526c7064617465206d61726b65747360981b6064820152608490fd5b346100cf5760403660031901126100cf576004356108496109c3565b906108548233610ba0565b60005260006020526040600020548111610987576108728233610ba0565b6000526000602052604060002061088a828254610a3d565b90556001600160a01b03821661095557600080808084335af16108ab610a82565b50156108fb577f2717ead6b9200dd235aad468c9809ea400fe33ac69b5bfaa6d3e90fc922b6398915b604080513381526001600160a01b03909216602083015281019190915280606081016101c9565b60405162461bcd60e51b815260206004820152602c60248201527f4d617267696e4163636f756e743a204e61746976652066756e6420776974686460448201526b1c985dd85b0819985a5b195960a21b6064820152608490fd5b7f2717ead6b9200dd235aad468c9809ea400fe33ac69b5bfaa6d3e90fc922b639891610982823383610be2565b6108d4565b60405162461bcd60e51b8152602060048201526014602482015273496e73756666696369656e742062616c616e636560601b6044820152606490fd5b602435906001600160a01b03821682036100cf57565b600435906001600160a01b03821682036100cf57565b35906001600160a01b03821682036100cf57565b60609060031901126100cf576004356001600160a01b03811681036100cf57906024356001600160a01b03811681036100cf579060443590565b9190820391821161054f57565b90601f8019910116810190811067ffffffffffffffff821117610a6c57604052565b634e487b7160e01b600052604160045260246000fd5b3d15610abd573d9067ffffffffffffffff8211610a6c5760405191610ab1601f8201601f191660200184610a4a565b82523d6000602084013e565b606090565b9190820180921161054f57565b15610ad657565b60405162461bcd60e51b815260206004820152603560248201527f4d617267696e4163636f756e743a204f6e6c79207665726966696564206d61726044820152746b6574732063616e2063726564697420757365727360581b6064820152608490fd5b15610b4057565b60405162461bcd60e51b815260206004820152603260248201527f4d617267696e4163636f756e743a204661696c656420746f206372656469742060448201527175736572206e617469766520746f6b656e7360701b6064820152608490fd5b906040519060208201926001600160601b03199060601b1683526001600160601b03199060601b16603482015260288152610bdc604882610a4a565b51902090565b60106000604492602095829560145260345263a9059cbb60601b82525af13d15600160005114171615610c16576000603452565b6390b8ec186000526004601cfdfea264697066735822122099e3e5ea0986f122816aa7eb9b413f34cc61ac3f5baa3157e0366459cf9ea02964736f6c634300081a0033",
  "linkReferences": {},
  "deployedLinkReferences": {}
}