{
  "_format": "hh-sol-artifact-1",
  "contractName": "MarginAccount",
  "sourceName": "contracts/MarginAccount.sol",
  "abi": [
    {
      "inputs": [
        {
          "internalType": "address",
          "name": "_router",
          "type": "address"
        }
      ],
      "stateMutability": "nonpayable",
      "type": "constructor"
    },
    {
      "inputs": [
        {
          "internalType": "bytes32",
          "name": "",
          "type": "bytes32"
        }
      ],
      "name": "balances",
      "outputs": [
        {
          "internalType": "uint256",
          "name": "",
          "type": "uint256"
        }
      ],
      "stateMutability": "view",
      "type": "function"
    },
    {
      "inputs": [
        {
          "internalType": "address",
          "name": "_user",
          "type": "address"
        },
        {
          "internalType": "address",
          "name": "_token",
          "type": "address"
        },
        {
          "internalType": "uint256",
          "name": "_amount",
          "type": "uint256"
        },
        {
          "internalType": "bool",
          "name": "_useMargin",
          "type": "bool"
        }
      ],
      "name": "creditUser",
      "outputs": [
        {
          "internalType": "bool",
          "name": "",
          "type": "bool"
        }
      ],
      "stateMutability": "nonpayable",
      "type": "function"
    },
    {
      "inputs": [
        {
          "internalType": "bytes",
          "name": "_encodedData",
          "type": "bytes"
        }
      ],
      "name": "creditUsersEncoded",
      "outputs": [
        {
          "internalType": "bool",
          "name": "",
          "type": "bool"
        }
      ],
      "stateMutability": "nonpayable",
      "type": "function"
    },
    {
      "inputs": [
        {
          "internalType": "address",
          "name": "_user",
          "type": "address"
        },
        {
          "internalType": "address",
          "name": "_token",
          "type": "address"
        },
        {
          "internalType": "uint256",
          "name": "_amount",
          "type": "uint256"
        }
      ],
      "name": "debitUser",
      "outputs": [
        {
          "internalType": "bool",
          "name": "",
          "type": "bool"
        }
      ],
      "stateMutability": "nonpayable",
      "type": "function"
    },
    {
      "inputs": [
        {
          "internalType": "address",
          "name": "_user",
          "type": "address"
        },
        {
          "internalType": "address",
          "name": "_token",
          "type": "address"
        },
        {
          "internalType": "uint256",
          "name": "_amount",
          "type": "uint256"
        }
      ],
      "name": "deposit",
      "outputs": [],
      "stateMutability": "payable",
      "type": "function"
    },
    {
      "inputs": [
        {
          "internalType": "address",
          "name": "_user",
          "type": "address"
        },
        {
          "internalType": "address",
          "name": "_token",
          "type": "address"
        }
      ],
      "name": "getBalance",
      "outputs": [
        {
          "internalType": "uint256",
          "name": "",
          "type": "uint256"
        }
      ],
      "stateMutability": "view",
      "type": "function"
    },
    {
      "inputs": [
        {
          "internalType": "address",
          "name": "_marketAddress",
          "type": "address"
        }
      ],
      "name": "updateMarkets",
      "outputs": [],
      "stateMutability": "nonpayable",
      "type": "function"
    },
    {
      "inputs": [
        {
          "internalType": "address",
          "name": "",
          "type": "address"
        }
      ],
      "name": "verifiedMarket",
      "outputs": [
        {
          "internalType": "bool",
          "name": "",
          "type": "bool"
        }
      ],
      "stateMutability": "view",
      "type": "function"
    },
    {
      "inputs": [
        {
          "internalType": "uint256",
          "name": "_amount",
          "type": "uint256"
        },
        {
          "internalType": "address",
          "name": "_token",
          "type": "address"
        }
      ],
      "name": "withdraw",
      "outputs": [],
      "stateMutability": "nonpayable",
      "type": "function"
    }
  ],
  "bytecode": "0x60a060405234801561001057600080fd5b50604051610f15380380610f1583398101604081905261002f91610040565b6001600160a01b0316608052610070565b60006020828403121561005257600080fd5b81516001600160a01b038116811461006957600080fd5b9392505050565b608051610e8a61008b60003960006103560152610e8a6000f3fe6080604052600436106100955760003560e01c80636f5b601e116100695780638340f5491161004e5780638340f549146101815780638909aa3f14610194578063d4fac45d146101cf57600080fd5b80636f5b601e1461014157806375eab98e1461016157600080fd5b8062f714ce1461009a57806301aef349146100bc5780635f71a07c146100dc5780636c13925214610121575b600080fd5b3480156100a657600080fd5b506100ba6100b5366004610c09565b6101ef565b005b3480156100c857600080fd5b506100ba6100d7366004610c39565b61034b565b3480156100e857600080fd5b5061010c6100f7366004610c39565b60016020526000908152604090205460ff1681565b60405190151581526020015b60405180910390f35b34801561012d57600080fd5b5061010c61013c366004610c5d565b610410565b34801561014d57600080fd5b5061010c61015c366004610c9e565b6105e9565b34801561016d57600080fd5b5061010c61017c366004610d1e565b6107c8565b6100ba61018f366004610c5d565b61094e565b3480156101a057600080fd5b506101c16101af366004610d71565b60006020819052908152604090205481565b604051908152602001610118565b3480156101db57600080fd5b506101c16101ea366004610d8a565b610b86565b60008061024133846040516bffffffffffffffffffffffff19606084811b8216602084015283901b16603482015260009060480160405160208183030381529060405280519060200120905092915050565b8152602001908152602001600020548211156102a45760405162461bcd60e51b815260206004820152601460248201527f496e73756666696369656e742062616c616e636500000000000000000000000060448201526064015b60405180910390fd5b816000806102f733856040516bffffffffffffffffffffffff19606084811b8216602084015283901b16603482015260009060480160405160208183030381529060405280519060200120905092915050565b815260200190815260200160002060008282546103149190610de7565b9091555050604051339083156108fc029084906000818181858888f19350505050158015610346573d6000803e3d6000fd5b505050565b336001600160a01b037f000000000000000000000000000000000000000000000000000000000000000016146103e95760405162461bcd60e51b815260206004820152602d60248201527f4d617267696e4163636f756e743a204f6e6c7920726f757465722063616e207560448201527f7064617465206d61726b65747300000000000000000000000000000000000000606482015260840161029b565b6001600160a01b03166000908152600160208190526040909120805460ff19169091179055565b3360009081526001602052604081205460ff166104955760405162461bcd60e51b815260206004820152603560248201527f4d617267696e4163636f756e743a204f6e6c79207665726966696564206d617260448201527f6b6574732063616e206372656469742075736572730000000000000000000000606482015260840161029b565b816000806104e887876040516bffffffffffffffffffffffff19606084811b8216602084015283901b16603482015260009060480160405160208183030381529060405280519060200120905092915050565b815260200190815260200160002054101561056a5760405162461bcd60e51b8152602060048201526024808201527f4d617267696e4163636f69756e743a20496e73756666696369656e742042616c60448201527f616e636500000000000000000000000000000000000000000000000000000000606482015260840161029b565b816000806105bd87876040516bffffffffffffffffffffffff19606084811b8216602084015283901b16603482015260009060480160405160208183030381529060405280519060200120905092915050565b815260200190815260200160002060008282546105da9190610de7565b90915550600195945050505050565b3360009081526001602052604081205460ff1661066e5760405162461bcd60e51b815260206004820152603560248201527f4d617267696e4163636f756e743a204f6e6c79207665726966696564206d617260448201527f6b6574732063616e206372656469742075736572730000000000000000000000606482015260840161029b565b60005b828110156107bc57600080808087858861068c826080610dfa565b9261069993929190610e0d565b8101906106a69190610d1e565b93509350935093506080856106bb9190610dfa565b9450801561073e578160008061071687876040516bffffffffffffffffffffffff19606084811b8216602084015283901b16603482015260009060480160405160208183030381529060405280519060200120905092915050565b815260200190815260200160002060008282546107339190610dfa565b909155506107b39050565b60405163a9059cbb60e01b81526001600160a01b0385811660048301526024820184905284169063a9059cbb906044016020604051808303816000875af115801561078d573d6000803e3d6000fd5b505050506040513d601f19601f820116820180604052508101906107b19190610e37565b505b50505050610671565b60019150505b92915050565b3360009081526001602052604081205460ff1661084d5760405162461bcd60e51b815260206004820152603560248201527f4d617267696e4163636f756e743a204f6e6c79207665726966696564206d617260448201527f6b6574732063616e206372656469742075736572730000000000000000000000606482015260840161029b565b81156108ce57826000806108a688886040516bffffffffffffffffffffffff19606084811b8216602084015283901b16603482015260009060480160405160208183030381529060405280519060200120905092915050565b815260200190815260200160002060008282546108c39190610dfa565b909155506109439050565b60405163a9059cbb60e01b81526001600160a01b0386811660048301526024820185905285169063a9059cbb906044016020604051808303816000875af115801561091d573d6000803e3d6000fd5b505050506040513d601f19601f820116820180604052508101906109419190610e37565b505b506001949350505050565b7fffffffffffffffffffffffff11111111111111111111111111111111111111126001600160a01b03831601610a7b578034146109f35760405162461bcd60e51b815260206004820152602860248201527f4d617267696e4163636f756e743a20616d6f756e7420616e642076616c75652060448201527f6d69736d61746368000000000000000000000000000000000000000000000000606482015260840161029b565b604080516bffffffffffffffffffffffff19606086901b166020808301919091527feeeeeeeeeeeeeeeeeeeeeeeeeeeeeeeeeeeeeeee000000000000000000000000603483015282518083036028018152604890920183528151918101919091206000908152908190529081208054839290610a70908490610dfa565b909155506103469050565b6040517f23b872dd000000000000000000000000000000000000000000000000000000008152336004820152306024820152604481018290526001600160a01b038316906323b872dd906064016020604051808303816000875af1158015610ae7573d6000803e3d6000fd5b505050506040513d601f19601f82011682018060405250810190610b0b9190610e37565b5080600080610b5f86866040516bffffffffffffffffffffffff19606084811b8216602084015283901b16603482015260009060480160405160208183030381529060405280519060200120905092915050565b81526020019081526020016000206000828254610b7c9190610dfa565b9091555050505050565b6000806000610bda85856040516bffffffffffffffffffffffff19606084811b8216602084015283901b16603482015260009060480160405160208183030381529060405280519060200120905092915050565b815260200190815260200160002054905092915050565b6001600160a01b0381168114610c0657600080fd5b50565b60008060408385031215610c1c57600080fd5b823591506020830135610c2e81610bf1565b809150509250929050565b600060208284031215610c4b57600080fd5b8135610c5681610bf1565b9392505050565b600080600060608486031215610c7257600080fd5b8335610c7d81610bf1565b92506020840135610c8d81610bf1565b929592945050506040919091013590565b60008060208385031215610cb157600080fd5b823567ffffffffffffffff80821115610cc957600080fd5b818501915085601f830112610cdd57600080fd5b813581811115610cec57600080fd5b866020828501011115610cfe57600080fd5b60209290920196919550909350505050565b8015158114610c0657600080fd5b60008060008060808587031215610d3457600080fd5b8435610d3f81610bf1565b93506020850135610d4f81610bf1565b9250604085013591506060850135610d6681610d10565b939692955090935050565b600060208284031215610d8357600080fd5b5035919050565b60008060408385031215610d9d57600080fd5b8235610da881610bf1565b91506020830135610c2e81610bf1565b7f4e487b7100000000000000000000000000000000000000000000000000000000600052601160045260246000fd5b818103818111156107c2576107c2610db8565b808201808211156107c2576107c2610db8565b60008085851115610e1d57600080fd5b83861115610e2a57600080fd5b5050820193919092039150565b600060208284031215610e4957600080fd5b8151610c5681610d1056fea2646970667358221220c0c5ef72b0238ca35a39635d0c5deec7bd3f322981545e8a0208e016ff47e46964736f6c63430008110033",
  "linkReferences": {},
  "deployedLinkReferences": {}
}