{
    "abi": [
        {
            "type": "constructor",
            "inputs": [],
            "stateMutability": "nonpayable"
        },
        {
            "type": "function",
            "name": "addBuyOrder",
            "inputs": [
                {
                    "name": "_price",
                    "type": "uint24",
                    "internalType": "uint24"
                },
                {
                    "name": "size",
                    "type": "uint96",
                    "internalType": "uint96"
                },
                {
                    "name": "_postOnly",
                    "type": "bool",
                    "internalType": "bool"
                }
            ],
            "outputs": [],
            "stateMutability": "nonpayable"
        },
        {
            "type": "function",
            "name": "addSellOrder",
            "inputs": [
                {
                    "name": "_price",
                    "type": "uint24",
                    "internalType": "uint24"
                },
                {
                    "name": "size",
                    "type": "uint96",
                    "internalType": "uint96"
                },
                {
                    "name": "_postOnly",
                    "type": "bool",
                    "internalType": "bool"
                }
            ],
            "outputs": [],
            "stateMutability": "nonpayable"
        },
        {
            "type": "function",
            "name": "batchCancelOrders",
            "inputs": [
                {
                    "name": "_orderIds",
                    "type": "uint40[]",
                    "internalType": "uint40[]"
                }
            ],
            "outputs": [],
            "stateMutability": "nonpayable"
        },
        {
            "type": "function",
            "name": "batchUpdate",
            "inputs": [
                {
                    "name": "buyPrices",
                    "type": "uint24[]",
                    "internalType": "uint24[]"
                },
                {
                    "name": "buySizes",
                    "type": "uint96[]",
                    "internalType": "uint96[]"
                },
                {
                    "name": "sellPrices",
                    "type": "uint24[]",
                    "internalType": "uint24[]"
                },
                {
                    "name": "sellSizes",
                    "type": "uint96[]",
                    "internalType": "uint96[]"
                },
                {
                    "name": "orderIdsToCancel",
                    "type": "uint40[]",
                    "internalType": "uint40[]"
                },
                {
                    "name": "postOnly",
                    "type": "bool",
                    "internalType": "bool"
                }
            ],
            "outputs": [],
            "stateMutability": "nonpayable"
        },
        {
            "type": "function",
            "name": "bestBidAsk",
            "inputs": [],
            "outputs": [
                {
                    "name": "",
                    "type": "uint256",
                    "internalType": "uint256"
                },
                {
                    "name": "",
                    "type": "uint256",
                    "internalType": "uint256"
                }
            ],
            "stateMutability": "view"
        },
        {
            "type": "function",
            "name": "cancelOwnershipHandover",
            "inputs": [],
            "outputs": [],
            "stateMutability": "payable"
        },
        {
            "type": "function",
            "name": "collectFees",
            "inputs": [],
            "outputs": [],
            "stateMutability": "nonpayable"
        },
        {
            "type": "function",
            "name": "completeOwnershipHandover",
            "inputs": [
                {
                    "name": "pendingOwner",
                    "type": "address",
                    "internalType": "address"
                }
            ],
            "outputs": [],
            "stateMutability": "payable"
        },
        {
            "type": "function",
            "name": "getL2Book",
            "inputs": [],
            "outputs": [
                {
                    "name": "",
                    "type": "bytes",
                    "internalType": "bytes"
                }
            ],
            "stateMutability": "view"
        },
        {
            "type": "function",
            "name": "getMarketParams",
            "inputs": [],
            "outputs": [
                {
                    "name": "",
                    "type": "uint24",
                    "internalType": "uint24"
                },
                {
                    "name": "",
                    "type": "uint96",
                    "internalType": "uint96"
                },
                {
                    "name": "",
                    "type": "address",
                    "internalType": "address"
                },
                {
                    "name": "",
                    "type": "uint256",
                    "internalType": "uint256"
                },
                {
                    "name": "",
                    "type": "address",
                    "internalType": "address"
                },
                {
                    "name": "",
                    "type": "uint256",
                    "internalType": "uint256"
                },
                {
                    "name": "",
                    "type": "uint24",
                    "internalType": "uint24"
                },
                {
                    "name": "",
                    "type": "uint96",
                    "internalType": "uint96"
                },
                {
                    "name": "",
                    "type": "uint96",
                    "internalType": "uint96"
                },
                {
                    "name": "",
                    "type": "uint256",
                    "internalType": "uint256"
                },
                {
                    "name": "",
                    "type": "uint256",
                    "internalType": "uint256"
                }
            ],
            "stateMutability": "view"
        },
        {
            "type": "function",
            "name": "getVaultParams",
            "inputs": [],
            "outputs": [
                {
                    "name": "",
                    "type": "address",
                    "internalType": "address"
                },
                {
                    "name": "",
                    "type": "uint256",
                    "internalType": "uint256"
                },
                {
                    "name": "",
                    "type": "uint96",
                    "internalType": "uint96"
                },
                {
                    "name": "",
                    "type": "uint256",
                    "internalType": "uint256"
                },
                {
                    "name": "",
                    "type": "uint96",
                    "internalType": "uint96"
                },
                {
                    "name": "",
                    "type": "uint96",
                    "internalType": "uint96"
                },
                {
                    "name": "",
                    "type": "uint96",
                    "internalType": "uint96"
                }
            ],
            "stateMutability": "view"
        },
        {
            "type": "function",
            "name": "initialize",
            "inputs": [
                {
                    "name": "_owner",
                    "type": "address",
                    "internalType": "address"
                },
                {
                    "name": "_type",
                    "type": "uint8",
                    "internalType": "enum IOrderBook.OrderBookType"
                },
                {
                    "name": "_baseAssetAddress",
                    "type": "address",
                    "internalType": "address"
                },
                {
                    "name": "_baseAssetDecimals",
                    "type": "uint256",
                    "internalType": "uint256"
                },
                {
                    "name": "_quoteAssetAddress",
                    "type": "address",
                    "internalType": "address"
                },
                {
                    "name": "_quoteAssetDecimals",
                    "type": "uint256",
                    "internalType": "uint256"
                },
                {
                    "name": "_marginAccountAddress",
                    "type": "address",
                    "internalType": "address"
                },
                {
                    "name": "_sizePrecision",
                    "type": "uint96",
                    "internalType": "uint96"
                },
                {
                    "name": "_pricePrecision",
                    "type": "uint24",
                    "internalType": "uint24"
                },
                {
                    "name": "_tickSize",
                    "type": "uint24",
                    "internalType": "uint24"
                },
                {
                    "name": "_minSize",
                    "type": "uint96",
                    "internalType": "uint96"
                },
                {
                    "name": "_maxSize",
                    "type": "uint96",
                    "internalType": "uint96"
                },
                {
                    "name": "_takerFeeBps",
                    "type": "uint256",
                    "internalType": "uint256"
                },
                {
                    "name": "_makerFeeBps",
                    "type": "uint256",
                    "internalType": "uint256"
                },
                {
                    "name": "_kuruAmmVault",
                    "type": "address",
                    "internalType": "address"
                },
                {
                    "name": "_kuruAmmSpread",
                    "type": "uint96",
                    "internalType": "uint96"
                }
            ],
            "outputs": [],
            "stateMutability": "nonpayable"
        },
        {
            "type": "function",
            "name": "owner",
            "inputs": [],
            "outputs": [
                {
                    "name": "result",
                    "type": "address",
                    "internalType": "address"
                }
            ],
            "stateMutability": "view"
        },
        {
            "type": "function",
            "name": "ownershipHandoverExpiresAt",
            "inputs": [
                {
                    "name": "pendingOwner",
                    "type": "address",
                    "internalType": "address"
                }
            ],
            "outputs": [
                {
                    "name": "result",
                    "type": "uint256",
                    "internalType": "uint256"
                }
            ],
            "stateMutability": "view"
        },
        {
            "type": "function",
            "name": "placeAndExecuteMarketBuy",
            "inputs": [
                {
                    "name": "_quoteSize",
                    "type": "uint24",
                    "internalType": "uint24"
                },
                {
                    "name": "_isFillOrKill",
                    "type": "bool",
                    "internalType": "bool"
                }
            ],
            "outputs": [
                {
                    "name": "",
                    "type": "uint256",
                    "internalType": "uint256"
                }
            ],
            "stateMutability": "payable"
        },
        {
            "type": "function",
            "name": "placeAndExecuteMarketSell",
            "inputs": [
                {
                    "name": "_size",
                    "type": "uint96",
                    "internalType": "uint96"
                },
                {
                    "name": "_isFillOrKill",
                    "type": "bool",
                    "internalType": "bool"
                }
            ],
            "outputs": [
                {
                    "name": "",
                    "type": "uint256",
                    "internalType": "uint256"
                }
            ],
            "stateMutability": "payable"
        },
        {
            "type": "function",
            "name": "placeMultipleBuyOrders",
            "inputs": [
                {
                    "name": "_prices",
                    "type": "uint24[]",
                    "internalType": "uint24[]"
                },
                {
                    "name": "_sizes",
                    "type": "uint96[]",
                    "internalType": "uint96[]"
                },
                {
                    "name": "_postOnly",
                    "type": "bool",
                    "internalType": "bool"
                }
            ],
            "outputs": [],
            "stateMutability": "nonpayable"
        },
        {
            "type": "function",
            "name": "placeMultipleSellOrders",
            "inputs": [
                {
                    "name": "_prices",
                    "type": "uint24[]",
                    "internalType": "uint24[]"
                },
                {
                    "name": "_sizes",
                    "type": "uint96[]",
                    "internalType": "uint96[]"
                },
                {
                    "name": "_postOnly",
                    "type": "bool",
                    "internalType": "bool"
                }
            ],
            "outputs": [],
            "stateMutability": "nonpayable"
        },
        {
            "type": "function",
            "name": "proxiableUUID",
            "inputs": [],
            "outputs": [
                {
                    "name": "",
                    "type": "bytes32",
                    "internalType": "bytes32"
                }
            ],
            "stateMutability": "view"
        },
        {
            "type": "function",
            "name": "renounceOwnership",
            "inputs": [],
            "outputs": [],
            "stateMutability": "payable"
        },
        {
            "type": "function",
            "name": "requestOwnershipHandover",
            "inputs": [],
            "outputs": [],
            "stateMutability": "payable"
        },
        {
            "type": "function",
            "name": "s_buyPricePoints",
            "inputs": [
                {
                    "name": "",
                    "type": "uint256",
                    "internalType": "uint256"
                }
            ],
            "outputs": [
                {
                    "name": "head",
                    "type": "uint40",
                    "internalType": "uint40"
                },
                {
                    "name": "tail",
                    "type": "uint40",
                    "internalType": "uint40"
                }
            ],
            "stateMutability": "view"
        },
        {
            "type": "function",
            "name": "s_buyTree",
            "inputs": [],
            "outputs": [
                {
                    "name": "level0",
                    "type": "bytes32",
                    "internalType": "bytes32"
                }
            ],
            "stateMutability": "view"
        },
        {
            "type": "function",
            "name": "s_orderIdCounter",
            "inputs": [],
            "outputs": [
                {
                    "name": "",
                    "type": "uint40",
                    "internalType": "uint40"
                }
            ],
            "stateMutability": "view"
        },
        {
            "type": "function",
            "name": "s_orders",
            "inputs": [
                {
                    "name": "",
                    "type": "uint40",
                    "internalType": "uint40"
                }
            ],
            "outputs": [
                {
                    "name": "ownerAddress",
                    "type": "address",
                    "internalType": "address"
                },
                {
                    "name": "size",
                    "type": "uint96",
                    "internalType": "uint96"
                },
                {
                    "name": "prev",
                    "type": "uint40",
                    "internalType": "uint40"
                },
                {
                    "name": "next",
                    "type": "uint40",
                    "internalType": "uint40"
                },
                {
                    "name": "price",
                    "type": "uint24",
                    "internalType": "uint24"
                },
                {
                    "name": "isBuy",
                    "type": "bool",
                    "internalType": "bool"
                }
            ],
            "stateMutability": "view"
        },
        {
            "type": "function",
            "name": "s_sellPricePoints",
            "inputs": [
                {
                    "name": "",
                    "type": "uint256",
                    "internalType": "uint256"
                }
            ],
            "outputs": [
                {
                    "name": "head",
                    "type": "uint40",
                    "internalType": "uint40"
                },
                {
                    "name": "tail",
                    "type": "uint40",
                    "internalType": "uint40"
                }
            ],
            "stateMutability": "view"
        },
        {
            "type": "function",
            "name": "s_sellTree",
            "inputs": [],
            "outputs": [
                {
                    "name": "level0",
                    "type": "bytes32",
                    "internalType": "bytes32"
                }
            ],
            "stateMutability": "view"
        },
        {
            "type": "function",
            "name": "toggleMarkets",
            "inputs": [
                {
                    "name": "_state",
                    "type": "bool",
                    "internalType": "bool"
                }
            ],
            "outputs": [],
            "stateMutability": "nonpayable"
        },
        {
            "type": "function",
            "name": "transferOwnership",
            "inputs": [
                {
                    "name": "newOwner",
                    "type": "address",
                    "internalType": "address"
                }
            ],
            "outputs": [],
            "stateMutability": "payable"
        },
        {
            "type": "function",
            "name": "updateVaultOrdSz",
            "inputs": [
                {
                    "name": "_vaultAskOrderSize",
                    "type": "uint96",
                    "internalType": "uint96"
                },
                {
                    "name": "_vaultBidOrderSize",
                    "type": "uint96",
                    "internalType": "uint96"
                },
                {
                    "name": "_askPrice",
                    "type": "uint256",
                    "internalType": "uint256"
                },
                {
                    "name": "_bidPrice",
                    "type": "uint256",
                    "internalType": "uint256"
                }
            ],
            "outputs": [],
            "stateMutability": "nonpayable"
        },
        {
            "type": "function",
            "name": "upgradeToAndCall",
            "inputs": [
                {
                    "name": "newImplementation",
                    "type": "address",
                    "internalType": "address"
                },
                {
                    "name": "data",
                    "type": "bytes",
                    "internalType": "bytes"
                }
            ],
            "outputs": [],
            "stateMutability": "payable"
        },
        {
            "type": "function",
            "name": "vaultAskOrderSize",
            "inputs": [],
            "outputs": [
                {
                    "name": "",
                    "type": "uint96",
                    "internalType": "uint96"
                }
            ],
            "stateMutability": "view"
        },
        {
            "type": "function",
            "name": "vaultBestAsk",
            "inputs": [],
            "outputs": [
                {
                    "name": "",
                    "type": "uint256",
                    "internalType": "uint256"
                }
            ],
            "stateMutability": "view"
        },
        {
            "type": "event",
            "name": "Initialized",
            "inputs": [
                {
                    "name": "version",
                    "type": "uint64",
                    "indexed": false,
                    "internalType": "uint64"
                }
            ],
            "anonymous": false
        },
        {
            "type": "event",
            "name": "OrderCreated",
            "inputs": [
                {
                    "name": "orderId",
                    "type": "uint40",
                    "indexed": false,
                    "internalType": "uint40"
                },
                {
                    "name": "owner",
                    "type": "address",
                    "indexed": false,
                    "internalType": "address"
                },
                {
                    "name": "size",
                    "type": "uint96",
                    "indexed": false,
                    "internalType": "uint96"
                },
                {
                    "name": "price",
                    "type": "uint24",
                    "indexed": false,
                    "internalType": "uint24"
                },
                {
                    "name": "isBuy",
                    "type": "bool",
                    "indexed": false,
                    "internalType": "bool"
                }
            ],
            "anonymous": false
        },
        {
            "type": "event",
            "name": "OrdersCanceled",
            "inputs": [
                {
                    "name": "orderId",
                    "type": "uint40[]",
                    "indexed": false,
                    "internalType": "uint40[]"
                },
                {
                    "name": "owner",
                    "type": "address",
                    "indexed": false,
                    "internalType": "address"
                }
            ],
            "anonymous": false
        },
        {
            "type": "event",
            "name": "OwnershipHandoverCanceled",
            "inputs": [
                {
                    "name": "pendingOwner",
                    "type": "address",
                    "indexed": true,
                    "internalType": "address"
                }
            ],
            "anonymous": false
        },
        {
            "type": "event",
            "name": "OwnershipHandoverRequested",
            "inputs": [
                {
                    "name": "pendingOwner",
                    "type": "address",
                    "indexed": true,
                    "internalType": "address"
                }
            ],
            "anonymous": false
        },
        {
            "type": "event",
            "name": "OwnershipTransferred",
            "inputs": [
                {
                    "name": "oldOwner",
                    "type": "address",
                    "indexed": true,
                    "internalType": "address"
                },
                {
                    "name": "newOwner",
                    "type": "address",
                    "indexed": true,
                    "internalType": "address"
                }
            ],
            "anonymous": false
        },
        {
            "type": "event",
            "name": "Trade",
            "inputs": [
                {
                    "name": "orderId",
                    "type": "uint40",
                    "indexed": false,
                    "internalType": "uint40"
                },
                {
                    "name": "makerAddress",
                    "type": "address",
                    "indexed": false,
                    "internalType": "address"
                },
                {
                    "name": "isBuy",
                    "type": "bool",
                    "indexed": false,
                    "internalType": "bool"
                },
                {
                    "name": "price",
                    "type": "uint256",
                    "indexed": false,
                    "internalType": "uint256"
                },
                {
                    "name": "updatedSize",
                    "type": "uint96",
                    "indexed": false,
                    "internalType": "uint96"
                },
                {
                    "name": "takerAddress",
                    "type": "address",
                    "indexed": false,
                    "internalType": "address"
                },
                {
                    "name": "filledSize",
                    "type": "uint96",
                    "indexed": false,
                    "internalType": "uint96"
                }
            ],
            "anonymous": false
        },
        {
            "type": "event",
            "name": "Upgraded",
            "inputs": [
                {
                    "name": "implementation",
                    "type": "address",
                    "indexed": true,
                    "internalType": "address"
                }
            ],
            "anonymous": false
        },
        {
            "type": "error",
            "name": "AlreadyInitialized",
            "inputs": []
        },
        {
            "type": "error",
            "name": "InsufficientLiquidity",
            "inputs": []
        },
        {
            "type": "error",
            "name": "InvalidInitialization",
            "inputs": []
        },
        {
            "type": "error",
            "name": "InvalidSpread",
            "inputs": []
        },
        {
            "type": "error",
            "name": "LengthMismatch",
            "inputs": []
        },
        {
            "type": "error",
            "name": "MarketFeeError",
            "inputs": []
        },
        {
            "type": "error",
            "name": "MarketStateError",
            "inputs": []
        },
        {
            "type": "error",
            "name": "NativeAssetInsufficient",
            "inputs": []
        },
        {
            "type": "error",
            "name": "NativeAssetNotRequired",
            "inputs": []
        },
        {
            "type": "error",
            "name": "NativeAssetTransferFail",
            "inputs": []
        },
        {
            "type": "error",
            "name": "NewOwnerIsZeroAddress",
            "inputs": []
        },
        {
            "type": "error",
            "name": "NoHandoverRequest",
            "inputs": []
        },
        {
            "type": "error",
            "name": "NotInitializing",
            "inputs": []
        },
        {
            "type": "error",
            "name": "OnlyOwnerAllowedError",
            "inputs": []
        },
        {
            "type": "error",
            "name": "OrderAlreadyFilledOrCancelled",
            "inputs": []
        },
        {
            "type": "error",
            "name": "PostOnlyError",
            "inputs": []
        },
        {
            "type": "error",
            "name": "PriceError",
            "inputs": []
        },
        {
            "type": "error",
            "name": "SizeError",
            "inputs": []
        },
        {
            "type": "error",
            "name": "TickSizeError",
            "inputs": []
        },
        {
            "type": "error",
            "name": "TooMuchSizeFilled",
            "inputs": []
        },
        {
            "type": "error",
            "name": "Unauthorized",
            "inputs": []
        },
        {
            "type": "error",
            "name": "UnauthorizedCallContext",
            "inputs": []
        },
        {
            "type": "error",
            "name": "UpgradeFailed",
            "inputs": []
        }
    ],
    "bytecode": {
        "object": "0x60a08060405234609a573060805263409feecd195460018116608c5760011c6002600160401b0319016048575b61564f90816100a0823960805181818161131e01526113f50152f35b6002600160411b0363409feecd19556001600160401b0360209081527fc7f505b2f371ae2175ee4913f4499e1f2633a7b5936321eed1cdaeb6115181d29080a1602c565b63f92ee8a96000526004601cfd5b600080fdfe61026080604052600436101561001457600080fd5b60003560e01c90816302b90c651461284e575080630e2e2ffe146127f9578063137fc7bb1461248c5780631c0d9c221461240257806320b3fa5c14611d0a57806323afbff314611c765780632569296214611c2a5780632aa9fbdc146117755780632bf1360e1461175057806346fdfbb114611559578063474b848c1461153b5780634d781103146114e35780634f1ef286146113a157806351130ac61461137a57806352d1902d1461130a57806354d1f13d146112c25780635b16c9b614611282578063715018a61461123357806388bb4f60146111cb5780638da5cb5b1461119e57806390c9427c146110fe578063b4de8b70146110cc578063badc92d1146110ae578063bb62b3c514610c5b578063c879657214610bc4578063cae22ee614610962578063cc57aec614610410578063d2cd7d7f14610379578063e55bb4e3146102aa578063e6d29b5114610251578063f04e283e14610201578063f2fde38b146101c35763fee81cf41461018b57600080fd5b346101be5760203660031901126101be576101a4612869565b63389a75e1600c52600052602080600c2054604051908152f35b600080fd5b60203660031901126101be576101d7612869565b6101df613868565b8060601b156101f3576101f190614466565b005b637448fbae6000526004601cfd5b60203660031901126101be57610215612869565b61021d613868565b63389a75e1600c52806000526020600c2090815442116102435760006101f19255614466565b636f5e88186000526004601cfd5b346101be5760203660031901126101be5760043560005260076020526102a6604060002054604051918164ffffffffff80859460281c1691168390929164ffffffffff60209181604085019616845216910152565b0390f35b346101be5760803660031901126101be576102c3612895565b6102cb61287f565b6000549091906001600160a01b0316330361033c576001600160601b0391600454908360601b9060601b16908360601b191617600455166001600160601b0319600554161760055560001960035414610331575b6001541561032957005b606435600155005b60443560035561031f565b60405162461bcd60e51b815260206004820152601560248201527413dc99195c909bdbdace8813db9b1e4815985d5b1d605a1b6044820152606490fd5b346101be576103873661295a565b9360ff600f5460281c166103ef578184036103ff5760005b8481106103a857005b6103bb6103b6828785612a20565b612a46565b906103cf6103ca828688612a20565b612a56565b60ff600f5460281c166103ef57876103e991600194612cce565b0161039f565b6225b2dd60e11b60005260046000fd5b631fec674760e31b60005260046000fd5b346101be5760603660031901126101be576104296128ab565b61043161287f565b9061043a6128fc565b60ff600f5460281c166103ef5762ffffff8216801561095157601654936001600160601b038116946001600160601b0381168611156109405760601c6001600160601b03168510156109405762ffffff61049b8160155460a01c1686612c59565b1661092f579284929392600080956104b1614580565b949094926000906060995b6001600160601b038a16151580610908575b806108ff575b156105da57898660008a156105815750506104ee90614f11565b9390988994935b8c869b6105019161348e565b61050a91612bf2565b9b6000916000146105689662ffffff61054f6105406105629861055c976105569661053a575061053a858861348e565b90612bf2565b9c82600f5460901c16906151fc565b169261348e565b90614642565b90612f35565b99612c12565b95610571614580565b95909698909594999197996104bc565b916105cf9160406001600160601b039794670de0b6b3a76400006105c062ffffff600f5460901c1662ffffff836105b883896129cf565b0416956129cf565b04815260086020522090614904565b9416988994936104f5565b848b8b9489936001600160601b038d9616806106fd575b505061064691506106069061055c8789614642565b61063f61062e60018060a01b03601554169262ffffff610627601354612ad6565b91166129cf565b62ffffff600f5460901c16906129e2565b3391613885565b6106d7575b506001600160601b03821661065c57005b6106d26000805160206155fa83398151915293600f549261068364ffffffffff8516612c6f565b64ffffffffff1990941664ffffffffff851617600f556106a28261421d565b5060005260076020526106c46106bc846040600020614349565b8486846143b1565b604051938493339085612c89565b0390a1005b6001600160601b038316036106ec578361064b565b6306e6da4d60e01b60005260046000fd5b6107136012549161070d83612ad6565b906129cf565b6001600160601b0361072d81600f5460301c1680936129e2565b93169182610846575b5050506107aa60009361078e60209360105480610805575b5060018060a01b03601954169261078960018060a01b036014541661077b604051948592338b8501612b8d565b03601f198101845283612b15565b612c12565b6040519586809481936337adb00f60e11b83526004830161292e565b03925af19081156107f95761064692610606926107ca575b8192506105f1565b6107eb9060203d6020116107f2575b6107e38183612b15565b810190612b75565b50886107c2565b503d6107d9565b6040513d6000823e3d90fd5b6108358161083061082361081c61083d958761522a565b80966134ae565b9461070d601154846134ae565b6129e2565b6018546134bb565b6018558c61074e565b601954600080546014546108ba966020966001600160a01b03938416969584169593909216939261087f92916108309161070d90612ad6565b604051633609c92960e11b81529687958694859391600485016001600160a01b03918216815291166020820152604081019190915260600190565b03925af19384156107f95761078e6020936107aa936000976108e2575b509350819550610736565b6108f890863d88116107f2576107e38183612b15565b508c6108d7565b508515156104d4565b5088670de0b6b3a764000061092762ffffff600f5460901c16896129cf565b0411156104ce565b63272d3bf760e01b60005260046000fd5b630a5c4f1f60e01b60005260046000fd5b6348fa9b2b60e11b60005260046000fd5b60403660031901126101be57610976612895565b61097e6128ed565b90600f5460ff8160281c166103ef5760ff60055460c01c1660038110159081610ad757600114918215610b5457506109e16109cc6109bd601254612ad6565b6001600160601b0386166129cf565b6001600160601b03600f5460301c16906129e2565b3403610b43576109f86001600160601b03936138ee565b9316938415610afe57610aed57610ad75715610a3257610a2a610a256109cc60209461070d601254612ad6565b6134c8565b604051908152f35b601954601454601254610aa1946020936001600160a01b03938416931691610a61916109cc9161070d90612ad6565b604051633af55cc760e11b81523360048201526001600160a01b039093166024840152604483015260006064830181905291948592839182906084820190565b03925af19182156107f957602092610aba575b50610a2a565b610ad090833d85116107f2576107e38183612b15565b5082610ab4565b634e487b7160e01b600052602160045260246000fd5b63bb55fd2760e01b60005260046000fd5b5050909150600090610b14575b50602090610a2a565b8080808060018060a01b036019541634905af1610b2f612b36565b50610b0b5763386bf62b60e11b8152600490fd5b63fd99316160e01b60005260046000fd5b34610bb3576001600160601b0393610bae6109f89260018060a01b036014541690610ba660018060a01b03601954169189610b9b610b93601254612ad6565b8289166129cf565b9160301c16906129e2565b91339061343e565b6138ee565b63756ac9bb60e11b60005260046000fd5b346101be5760003660031901126101be576019546014546018546015546017546040516324facdb160e11b81526001600160a01b0394851660048201526024810193909352908316604483015260648201529160209183916084918391600091165af180156107f957610c3e575b60006018819055601755005b610c569060203d6020116107f2576107e38183612b15565b610c32565b346101be57610c693661295a565b919360ff600f5460281c166103ef578184036103ff5760009493945b858110610c8e57005b610c9c6103b6828885612a20565b93610cab6103ca838689612a20565b9160ff600f5460281c166103ef5762ffffff861690811561095157601654936001600160601b038116946001600160601b0381168611156109405760601c6001600160601b03168510156109405762ffffff610d0e8160155460a01c168a612c59565b1661092f57989597949895600080610d24614580565b9890989960006060915b6001600160601b0381161515898e82611083575b50508061107a575b15610e2b57808d60008e15610de9575050610d67610d8f92614f11565b929092975b610d7b849861053a868661348e565b9e6000901561053a575061053a848461348e565b9d600f5460901c62ffffff16610da4916151fc565b62ffffff1691610db39161348e565b610dbc91614642565b610dc591612f35565b93610dcf91612c12565b93610dd8614580565b9d909d9b94909d9a93959195610d2e565b6001600160601b0393610d8f926040610e2293670de0b6b3a76400006105c062ffffff600f5460901c1662ffffff836105b883896129cf565b93169297610d6c565b96989c9799959d9b50928c9491929e9a506001600160601b031680610f05575b505050610e5f610e9a9161055c8688614642565b610e7d60018060a01b03601554169162ffffff610627601354612ad6565b90610e94339262ffffff600f5460901c16906129e2565b90613885565b610ef0575b506001936001600160601b038216610ebe575b50505001949394610c85565b610ee56000805160206155fa83398151915293600f549261068364ffffffffff8516612c6f565b0390a1878080610eb2565b6001600160601b038216036106ec5789610e9f565b9091929350610f1a6012549161070d83612ad6565b6001600160601b03610f3481600f5460301c1680936129e2565b93169182610ffc575b505050610f9d600092610f8160209360105480610fdc575060018060a01b03601954169261078960018060a01b036014541661077b604051948592338b8501612b8d565b6040519485809481936337adb00f60e11b83526004830161292e565b03925af180156107f9578a92610e9a92610e5f92610fbe575b819350610e4b565b610fd59060203d81116107f2576107e38183612b15565b508e610fb6565b6108358161083061082361081c610ff3958761522a565b6018553861074e565b60195460008054601454611035966020966001600160a01b03938416969584169593909216939261087f92916108309161070d90612ad6565b03925af19283156107f957610f81602093610f9d9360009661105d575b509350819450610f3d565b61107390863d81116107f2576107e38183612b15565b5038611052565b508c1515610d4a565b670de0b6b3a76400009192506110a49062ffffff600f5460901c16906129cf565b041115898e610d42565b346101be5760003660031901126101be576020600954604051908152f35b346101be5760003660031901126101be5760406110e76144aa565b90506110f1614580565b8351928352602083015250f35b346101be5760003660031901126101be57610160600f5460018060a01b03601454166012546001600160601b0360155462ffffff60135491601654926010549560115497866040519a868160901c168c5260301c1660208b015260408a0152606089015260018060a01b038216608089015260a088015260a01c1660c086015281811660e086015260601c16610100840152610120830152610140820152f35b346101be5760003660031901126101be57638b78c6d819546040516001600160a01b039091168152602090f35b346101be5760003660031901126101be5760e060018060a01b03600054166001546001600160601b03806002541660035460045491836005541694604051968752602087015260408601526060850152818116608085015260601c1660a083015260c0820152f35b60003660031901126101be57611247613868565b6000638b78c6d819547f8be0079c531659141344cd1fd0a4f28419497f9722a3daafe3b4186f6b6457e08280a3600160ff1b638b78c6d81955005b346101be5760603660031901126101be5761129b6128ab565b6112a361287f565b6112ab6128fc565b9060ff600f5460281c166103ef576101f192612cce565b60003660031901126101be5763389a75e1600c523360005260006020600c2055337ffa7b8eab7da67f412cc9575ed43464468f9bfbae89d1675917346ca6d8fe3c92600080a2005b346101be5760003660031901126101be57307f00000000000000000000000000000000000000000000000000000000000000000361136c5760206040517f360894a13ba1a3210667c828492db98dca3e2076cc3735a920a3ca505d382bbc8152f35b639f03a0266000526004601cfd5b346101be5760003660031901126101be5760206001600160601b0360055416604051908152f35b60403660031901126101be576113b5612869565b602435906001600160401b0382116101be57366023830112156101be578160040135906001600160401b0382116101be5736602483850101116101be57307f00000000000000000000000000000000000000000000000000000000000000001461136c57611421613868565b60018060a01b03166352d1902d6001527f360894a13ba1a3210667c828492db98dca3e2076cc3735a920a3ca505d382bbc602060016004601d855afa51036114d557807fbc7cd75a20ee27fd9adebab32041f755214dbc6bffa90cc0225b39da2e5c2d3b600080a281817f360894a13ba1a3210667c828492db98dca3e2076cc3735a920a3ca505d382bbc556114b357005b816000926024604051950185378338925af4156114cc57005b3d6000823e3d90fd5b6355299b496001526004601dfd5b346101be5760203660031901126101be576004358015158091036101be57611509613868565b600f549060ff8260281c16151581146103ef5765ff00000000009060281b169065ff0000000000191617600f55600080f35b346101be5760003660031901126101be576020600354604051908152f35b346101be5760003660031901126101be5760405143602082015260208152611582604082612b15565b61158a61351d565b62ffffff811662ffffff81141580611747575b1561164a57600052600760205264ffffffffff604060002054169064ffffffffff6000925b16918215611608576115e69083600052600660205260406000205460a01c90612bf2565b91600052600660205264ffffffffff8060016040600020015460281c166115c2565b6040805162ffffff841660208201526001600160601b03909216908201529092611645925061163f9190610789826060810161077b565b916135e5565b61158a565b61166883604051906000602083015260208252610789604083612b15565b6116706136cc565b62ffffff811662ffffff8114158061173e575b1561173057600052600860205264ffffffffff604060002054169064ffffffffff6000925b169182156116ee576116cc9083600052600660205260406000205460a01c90612bf2565b91600052600660205264ffffffffff8060016040600020015460281c166116a8565b6040805162ffffff841660208201526001600160601b0390921690820152909261172b92506117259190610789826060810161077b565b91613782565b611670565b604051806102a6858261292e565b50801515611683565b5080151561159d565b346101be5760003660031901126101be57602064ffffffffff600f5416604051908152f35b60403660031901126101be576117896128ab565b6117916128ed565b600f549160ff8360281c166103ef5760ff60055460c01c169060038210159182610ad757600214938415611be457506117dc61062e6117d1601354612ad6565b62ffffff84166129cf565b3403610b43575b906000926000926117f2614580565b929092956000926060965b62ffffff82169182151580611bbe575b80611bb5575b156119b557506001600160601b03611834600f5493828560301c1690612f4d565b1690670de0b6b3a7640000820291808304670de0b6b3a7640000149015171561194257899361053a6118c7926001600160601b0361188862ffffff6118cd9860901c1696611882888b6129cf565b906129e2565b16809d81966000908d600014611960575050506118a76118c191614f11565b92909b8c8094985b600092156119585761053a925061348e565b9c61348e565b97612c12565b936001600160601b036118ec600f549362ffffff8560901c16906129cf565b9260301c16670de0b6b3a7640000810290808204670de0b6b3a764000014901517156119425762ffffff926001600160601b0361192a9316906151e6565b1691611934614580565b9890949691939098976117fd565b634e487b7160e01b600052601160045260246000fd5b505090612bf2565b928260406119a99362ffffff670de0b6b3a76400006119998983836119916118c19d6001600160601b039f9d6129cf565b0416966129cf565b0416815260086020522090614904565b93169b8c8094986118af565b8a92508791896001600160601b038896169182611a2f575b50505062ffffff16938415610afe57610aed57610ad75715611a0057610a2a610a2561062e60209461070d601354612ad6565b601954601554601354610aa1946020936001600160a01b03938416931691610a619161062e9161070d90612ad6565b6001600160601b03929650611a4a6012549761070d89612ad6565b611a5c84600f5460301c1680926129e2565b9760018060a01b03601454169485931680611b50575b5050505060105480611b0c575b5060195460408051336020828101919091526001600160a01b03958616928201929092526060810189905260006080820181905295949193611ad1939092169161078e91906107898260a0810161077b565b03925af19182156107f95762ffffff92611aed575b81926119cd565b611b059060203d6020116107f2576107e38183612b15565b5086611ae6565b6000939261078e88602094611b4161083586611b3261081c6108309f99611ad19a61522a565b9d8e9561070d601154846134ae565b60185594505050929350611a7f565b611b7e93600061087f60209561083060018060a01b03601954169561070d60018060a01b0386541698612ad6565b03925af180156107f957611b96575b80808492611a72565b611bae9060203d6020116107f2576107e38183612b15565b5087611b8d565b50891515611813565b5062ffffff670de0b6b3a7640000611bdd82600f5460901c168d6129cf565b041061180d565b34610bb357611c259060018060a01b036015541690610ba660018060a01b03601954169162ffffff611c1a610b93601354612ad6565b9160901c16906129e2565b6117e3565b60003660031901126101be5763389a75e1600c52336000526202a30042016020600c2055337fdbf36a107da19e49527a7176a1babf963b4b0ff8cde35ee35d6cd8f1f9ac7e1d600080a2005b346101be5760203660031901126101be576004356001600160401b0381116101be57611ca69036906004016128bd565b9060005b828110611ce557507f386974f41b61738b510019ccd5a3524a43eccf0d136929e09d524e87aeeca2c4916106d2604051928392339184612a7c565b80611d03611cfe611cf96001948787612a20565b612a6a565b612f70565b5001611caa565b346101be5760c03660031901126101be576004356001600160401b0381116101be57611d3a9036906004016128bd565b610160526024356001600160401b0381116101be57611d5d9036906004016128bd565b91906044356001600160401b0381116101be57611d7e9036906004016128bd565b90610180526064356001600160401b0381116101be57611da29036906004016128bd565b90926084356001600160401b0381116101be57611dc39036906004016128bd565b60a4356101c0819052909791969080151590036101be5760ff600f5460281c166103ef578161016051036103ff578385036103ff579594939291906000610140525b610160516101405110611ee6575b5050909192935060005b828110611e82575b5050505060005b828110611e6757507f386974f41b61738b510019ccd5a3524a43eccf0d136929e09d524e87aeeca2c4916106d2604051928392339184612a7c565b80611e7b611cfe611cf96001948787612a20565b5001611e2c565b62ffffff611e976103b6838661018051612a20565b1615611ee157611eae6103b6828561018051612a20565b90611ebd6103ca828588612a20565b60ff600f5460281c166103ef57600192611edb916101c05191612cce565b01611e1d565b611e25565b62ffffff611efe6103b661014051610160518b612a20565b16156123fd57611f186103b661014051610160518a612a20565b61024052611f2d6103ca610140518385612a20565b6101e05260ff600f5460281c166103ef5762ffffff610240511615610951576016546001600160601b0381166001600160601b036101e051161115610940576001600160601b039060601c166001600160601b036101e0511610156109405762ffffff611fa48160155460a01c1661024051612c59565b1661092f576101e05161010052600061022081905260e052611fc4614580565b610200526101a0526102005160a05260008060805260606080525b6001600160601b0361010051161515806123cc575b806123c1575b156121255761208d9061055c61010051600080610120526101a0516000146120c3575061055661202c61010051614f11565b610120525b806101005261204c612043828561348e565b61022051612bf2565b6102205260006101a0516000146120ba575061207361206b828561348e565b60e051612bf2565b60e05262ffffff61054f81600f5460901c1660a0516151fc565b9661209d61012051608051612c12565b6080526120a8614580565b60c082905260a0526101a05296611fdf565b6120739061206b565b6001600160601b0361211b6105569262ffffff600f5460901c16670de0b6b3a764000061210562ffffff826120fa8560a0516129cf565b04169260a0516129cf565b0482526008602052604061010051922090614904565b6101205216612031565b96909192939495966001600160601b03610220511680612252575b50610e5f6121589161055c6101005161024051614642565b6101c051612221575b6001600160601b036101005116612189575b6001610140510161014052959493929190611e05565b6000805160206155fa833981519152612219600f546121ae64ffffffffff8216612c6f565b9064ffffffffff82169064ffffffffff191617600f556121d06102405161421d565b5062ffffff610240511660005260076020526122016121f3826040600020614349565b8261010051610240516143b1565b60405191829161024051906101005190339085612c89565b0390a1612173565b6001600160601b0361010051166001600160601b036101e051160315612161576306e6da4d60e01b60005260046000fd5b906122636012549261070d84612ad6565b9161227d6001600160601b03600f5460301c1680946129e2565b926001600160601b0360e05116918261234b575b50505060206122ed6000936010548061232b575b506019546014546040516001600160a01b039283169361078e9391926122e59284926122d792909116338a8501612b8d565b03601f198101835282612b15565b608051612c12565b03925af19081156107f95761215892610e5f9261230d575b509150612140565b6123249060203d81116107f2576107e38183612b15565b508b612305565b6108358161083061082361081c612342958761522a565b6018558d6122a5565b60195460008054601454612384966020966001600160a01b03938416969584169593909216939261087f92916108309161070d90612ad6565b03925af180156107f9576000936020926122ed926123a4575b5093612291565b6123ba90843d81116107f2576107e38183612b15565b508d61239d565b5060a0511515611ffa565b5062ffffff6102405116670de0b6b3a76400006123f562ffffff600f5460901c1660a0516129cf565b041115611ff4565b611e13565b346101be5760203660031901126101be5760043564ffffffffff81168091036101be57600052600660205260c0604060002060ff600182549201546040519260018060a01b038116845260a01c602084015264ffffffffff8116604084015264ffffffffff8160281c16606084015262ffffff8160501c16608084015260681c16151560a0820152f35b346101be576102003660031901126101be576124a6612869565b6024359060038210156101be576044356001600160a01b03811692908390036101be576084356001600160a01b03811693908490036101be5760c4356001600160a01b038116908190036101be5760e435906001600160601b03821682036101be57610104359562ffffff871687036101be57610124359162ffffff831683036101be57610144356001600160601b0381168091036101be57610164356001600160601b03811681036101be5761018435916101a435936101c4359560018060a01b0387168097036101be576101e435976001600160601b0389168099036101be5763409feecd19805460038255909d90806127cf575b50638b78c6d819546127c1576001600160a01b0316801560ff1b8117638b78c6d8195560007f8be0079c531659141344cd1fd0a4f28419497f9722a3daafe3b4186f6b6457e08180a385611f4002611f4081048703611942576127109004871115806127b6575b156127a5576001600160601b03600a8a0616158061279c575b80612791575b1561278057600a9960009e6005549c6001600160601b0360a01b60145416176014556015549460643560125560a4356013556001600160601b0360a01b601954161760195571ffffffffffffffffffffffff000000000000600f549162ffffff60901b9060901b169260301b169074ffffffffffffffffffffffffffffff00000000000019161717600f5562ffffff60a01b9060a01b169168ffffffffffffffffff60b81b161717601555601654916001600160601b0360601b9060601b16916001600160401b0360c01b1617176016556010556011556001600160601b0360a01b875416178655046001600160601b0360601b9060601b169160ff60c01b9060c01b16906cffffffffffffffffffffffffff60601b191617176005558060001960035561274f575080f35b6002905560016020527fc7f505b2f371ae2175ee4913f4499e1f2633a7b5936321eed1cdaeb6115181d2602080a180f35b633cd146b160e01b60005260046000fd5b506101f48910612623565b5088151561261d565b63a926954560e01b60005260046000fd5b506127108610612604565b630dc149f06000526004601cfd5b6001919e9181811c14303b10156127eb5760ff1b1b9c8f61259d565b63f92ee8a96000526004601cfd5b346101be5760203660031901126101be5760043560005260086020526102a6604060002054604051918164ffffffffff80859460281c1691168390929164ffffffffff60209181604085019616845216910152565b346101be5760003660031901126101be57602090600c548152f35b600435906001600160a01b03821682036101be57565b602435906001600160601b03821682036101be57565b600435906001600160601b03821682036101be57565b6004359062ffffff821682036101be57565b9181601f840112156101be578235916001600160401b0383116101be576020808501948460051b0101116101be57565b6024359081151582036101be57565b6044359081151582036101be57565b60005b83811061291e5750506000910152565b818101518382015260200161290e565b6040916020825261294e815180928160208601526020868601910161290b565b601f01601f1916010190565b60606003198201126101be576004356001600160401b0381116101be5781612984916004016128bd565b92909291602435906001600160401b0382116101be576129a6916004016128bd565b909160443580151581036101be5790565b906103e88202918083046103e8149015171561194257565b8181029291811591840414171561194257565b81156129ec570490565b634e487b7160e01b600052601260045260246000fd5b906001600160601b03169081156129ec576001600160601b03160490565b9190811015612a305760051b0190565b634e487b7160e01b600052603260045260246000fd5b3562ffffff811681036101be5790565b356001600160601b03811681036101be5790565b3564ffffffffff811681036101be5790565b604080825281018390529293929160608301906000905b808210612aae575050602091509360018060a01b0316910152565b909183359064ffffffffff82168092036101be57908152602093840193019160010190612a93565b604d811161194257600a0a90565b60c081019081106001600160401b03821117612aff57604052565b634e487b7160e01b600052604160045260246000fd5b90601f801991011681019081106001600160401b03821117612aff57604052565b3d15612b70573d906001600160401b038211612aff5760405191612b64601f8201601f191660200184612b15565b82523d6000602084013e565b606090565b908160209103126101be575180151581036101be5790565b6001600160a01b0391821681529116602082015260408101919091526001606082015260800190565b6001600160601b03166107d001906001600160601b03821161194257565b6001600160601b03166103e801906001600160601b03821161194257565b906001600160601b03809116911601906001600160601b03821161194257565b612c579092919260206040519482612c33879451809285808801910161290b565b8301612c478251809385808501910161290b565b010103601f198101845283612b15565b565b9062ffffff169081156129ec5762ffffff160690565b64ffffffffff60019116019064ffffffffff821161194257565b64ffffffffff90911681526001600160a01b0390911660208201526001600160601b0391909116604082015262ffffff90911660608201526001608082015260a00190565b90916016546001600160601b038416906001600160601b0381168211156109405760601c6001600160601b03168110156109405762ffffff612d178160155460a01c1685612c59565b1661092f5762ffffff831693841561095157612d4d612d539261063f6109cc60018060a01b03601454169261070d601254612ad6565b83613e6d565b9091612f2b575b506001600160601b0316908115612f26576000805160206155fa8339815191529260a092612f06600f5493612db4612d9864ffffffffff8716612c6f565b9164ffffffffff8316809764ffffffffff191617600f556142b4565b50836000526008602052612dcc816040600020614349565b60405190612dd982612ae4565b3382528686612ea464ffffffffff60208601898152818060018160408b019916998a8a52612e726001600160601b03606083019660008852608084019a8b5260a084019b60008d52600052600660205260406000209360a08680911b039060a08780911b039051161660a083901b855416178455511682908154906001600160601b0360a01b9060a01b169060018060a01b0316179055565b019751161682198754161786555116849064ffffffffff60281b82549160281b169064ffffffffff60281b1916179055565b518254915163ffffffff60501b1990921660509190911b62ffffff60501b161790151560681b60ff60681b1617905560009081526006602052604090206001019064ffffffffff60281b82549160281b169064ffffffffff60281b1916179055565b6040519283523360208401526040830152606082015260006080820152a1565b505050565b6106ec5738612d5a565b9062ffffff8091169116019062ffffff821161194257565b906001600160601b03809116911602906001600160601b03821691820361194257565b64ffffffffff16806000526006602052604060002090604051612f9281612ae4565b6001835493818060a01b0385168352602083019460a01c855201549264ffffffffff8416926040830190848252606084019064ffffffffff8760281c16825262ffffff8760501c16608086019681885260ff60a088019960681c16151590818a5215156000146133d757505064ffffffffff83511660005260066020528064ffffffffff60016040600020015460281c1603613375578651156133905762ffffff865116600052600760205264ffffffffff60406000205416818111159081613386575b5015613375575b84516001600160a01b031633036133645764ffffffffff8351168061331e575b5064ffffffffff825116806132e9575b508651156131ec57602094928694926130ea9262ffffff6131769951166000526007885264ffffffffff60406000205416146131ac575b62ffffff8651166000526007875264ffffffffff806040600020935116915116916148b5565b6019549151601554915193516001600160a01b03918216949382169392909116916000916131589161312a9162ffffff16906001600160601b0316612f4d565b62ffffff611c1a8161314c600f54946001600160601b038660301c1690612a02565b1661070d601354612ad6565b604051633af55cc760e11b8152968795869485939160048501612b8d565b03925af180156107f95761318d575b505b51151590565b6131a59060203d6020116107f2576107e38183612b15565b5038613185565b62ffffff8651166000526007875260406000206131d264ffffffffff835116809261469b565b506130c4576131e662ffffff875116614778565b506130c4565b9161323c9162ffffff87602097958261327b9a51166000526008895264ffffffffff60406000205416146132af575b51166000526008865264ffffffffff806040600020935116915116916148b5565b601954905160145492516012546001600160a01b03928316949383169390921691600091613158916109cc916001600160601b03169061070d90612ad6565b03925af180156107f957613290575b50613187565b6132a89060203d6020116107f2576107e38183612b15565b503861328a565b818151166000526008885260406000206132d264ffffffffff855116809261469b565b5061321b576132e3828251166146d9565b5061321b565b64ffffffffff84511690600052600660205264ffffffffff6001604060002001911664ffffffffff198254161790553861308d565b61335e9064ffffffffff84511690600052600660205260016040600020019064ffffffffff60281b82549160281b169064ffffffffff60281b1916179055565b3861307d565b63a0cdd78160e01b60005260046000fd5b63020a7dc960e61b60005260046000fd5b9050151538613056565b62ffffff865116600052600860205264ffffffffff604060002054168181111590816133cd575b5061305d5763020a7dc960e61b60005260046000fd5b90501515386133b7565b15613411575062ffffff86511660005260076020528064ffffffffff60406000205416031561305d5763020a7dc960e61b60005260046000fd5b60005260086020528064ffffffffff60406000205416031561305d5763020a7dc960e61b60005260046000fd5b601c600060649281946020966040519860605260405260601b602c526323b872dd60601b600c525af13d15600160005114171615613480576000606052604052565b637939f4246000526004601cfd5b906001600160601b03809116911603906001600160601b03821161194257565b9190820391821161194257565b9190820180921161194257565b600080808060018060a01b03601954166134e286346134ae565b905af16134ed612b36565b501561350c57600080808093335af1613504612b36565b501561350c57565b63386bf62b60e11b60005260046000fd5b60008052600b6020526135356000604081205461524c565b600181016135dd575060008052600a6020526135566000604081205461524c565b600181016135c0575061356c600060095461524c565b6001810161357a5750600090565b80600052600a60205260ff613593604060002054615275565b169060081b1780600052600b60205262ffffff60ff6135b6604060002054615275565b169160081b161790565b80600052600b60205262ffffff60ff6135b6604060002054615275565b62ffffff1690565b8060081c9060ff811660ff8103613695575b5060ff9060101c1660ff821660ff810361364f575b5060ff91501660ff8103613621575b50600090565b61362d9060095461524c565b600181011561361b5780600052600a60205260ff613593604060002054615275565b6136679082600052600a60205260406000205461524c565b91600183011561360c5761ff009150161780600052600b60205262ffffff60ff6135b6604060002054615275565b6136b19061ffff8416600052600b60205260406000205461524c565b60018101156135f75762ffffff1662ffff0090911617919050565b60008052600e6020526136e46000604081205461524c565b600181016135dd575060008052600d6020526137056000604081205461524c565b60018101613765575061371b6000600c5461524c565b600181016137295750600090565b80600052600d60205260ff613742604060002054615275565b169060081b1780600052600e60205262ffffff60ff6135b6604060002054615275565b80600052600e60205262ffffff60ff6135b6604060002054615275565b8060081c9060ff811660ff8103613831575b5060ff9060101c1660ff821660ff81036137eb575b5060ff91501660ff81036137bd5750600090565b6137c990600c5461524c565b600181011561361b5780600052600d60205260ff613742604060002054615275565b6138039082600052600d60205260406000205461524c565b9160018301156137a95761ff009150161780600052600e60205262ffffff60ff6135b6604060002054615275565b61384d9061ffff8416600052600e60205260406000205461524c565b60018101156137945762ffffff1662ffff0090911617919050565b638b78c6d81954330361387757565b6382b429006000526004601cfd5b601954604051633609c92960e11b81526001600160a01b039485166004820152918416602483015260448201929092529160209183916064918391600091165af180156107f9576138d35750565b6138eb9060203d6020116107f2576107e38183612b15565b50565b60009081926138fb6144aa565b90946060935b6001600160601b03811680151580613e3d575b80613e30575b15613c44578190848980613c2d575b60009015613bd757505060015490600454906001600160601b038260601c166002549561395f6001600160601b0388168361348e565b926001600160601b03841611918215613bce57819788935b15613aef5750506000805160206155da8339815191529350906139c0916002546001600160601b036139ab83828416612bf2565b16906001600160601b0319161760025561348e565b92613a336139ce8288615403565b966139e48160018060a01b03600054169561348e565b6040805160008082526001600160a01b0390971660208201529081019590955260608501939093526001600160601b0392831660808501523360a085015290911660c0830152819060e0820190565b0390a191935b8298600014613a91575091613a72613a58613a7893613a7e969561348e565b6001546001600160601b0380600f5460301c1692166151e6565b906134bb565b93612c12565b91613a876144aa565b9095919091613901565b613ae262ffffff91613aad613ae995613a7e98979a9b9561348e565b906001600160601b038085670de0b6b3a7640000613ad4600f5495838760901c16906129cf565b04169260301c1692166151e6565b1690612f35565b94612c12565b9092506001600160601b0319166002556001600160601b0382811960055416178060055560601c16906107d06001600160601b03613b2c84612bb6565b169384810294818604149015170215613bc057613bb4613b8689936000805160206155da833981519152976139c0966107d06001600160601b0360601b910460601b16906001600160601b0360601b191617600455612bd4565b610830613b92896129b7565b6b7fffffffffffffffffffffff6001600160601b0384169360011c16906134bb565b6001558560035561348e565b63ad251c276000526004601cfd5b83978893613977565b613c2492509060406001600160601b039592670de0b6b3a7640000613c1562ffffff82613c0c82600f5460901c1680986129cf565b0416948b6129cf565b04815260076020522090614ca4565b92169193613a39565b506001600160601b0360045460601c161515613929565b5093929490955062ffffff915016938415801590613e27575b613c6c57505090915090600090565b613ca4613c8261062e6013549761070d89612ad6565b670de0b6b3a7640000613c9d613c9789612ad6565b856129cf565b04906134bb565b9481613d71575b50506020613d0560009260105480613d35575b5060195460155460408051338782019081526001600160a01b0393841660208201529182018b905287151560608301529190921692610f819261078990839060800161077b565b03925af180156107f957613d1857509190565b613d309060203d6020116107f2576107e38183612b15565b509190565b613d6081610830613d53613d4c613d68958d61522a565b809c6134ae565b9a61070d601154846134ae565b6017546134bb565b60175538613cbe565b60195460008054601554613de9956020956001600160a01b03938416958416949290931692670de0b6b3a764000091613dad9161070d90612ad6565b604051633609c92960e11b81526001600160a01b0396871660048201529390951660248401529093046044820152938492839182906064820190565b03925af180156107f957600092602092613d0592613e0a575b509250613cab565b613e2090843d86116107f2576107e38183612b15565b5038613e02565b50801515613c5d565b5062ffffff84141561391a565b5062ffffff600f5460901c1660009015613e5957506001613914565b634e487b7160e01b81526012600452602490fd5b60009291839190613e7c6144aa565b90956060925b6001600160601b038116801515806141d8575b806141cb575b1561408b578190848a80614074575b6000901561403657505060015490600454906001600160601b038260601c1660025495613ee06001600160601b0388168361348e565b926001600160601b0384161191821561402d57819788935b15613f965750506000805160206155da833981519152935090613f2c916002546001600160601b036139ab83828416612bf2565b92613f3a6139ce8288615403565b0390a191935b8299600014613f7a575091613a72613a58613f5f93613f65969561348e565b92612c12565b92613f6e6144aa565b91909694929094613e82565b613ae262ffffff91613aad613ae995613f659897999b9561348e565b9092506001600160601b0319166002556001600160601b0382811960055416178060055560601c16906107d06001600160601b03613fd384612bb6565b169384810294818604149015170215613bc057613bb4613b8689936000805160206155da83398151915297613f2c966107d06001600160601b0360601b910460601b16906001600160601b0360601b191617600455612bd4565b83978893613ef8565b61406b92509060406001600160601b039592670de0b6b3a7640000613c1562ffffff82613c0c82600f5460901c1680986129cf565b92169193613f40565b506001600160601b0360045460601c161515613eaa565b5062ffffff90951696509192505084158015906141c2575b6140b257505090915090600090565b6140c8613c8261062e6013549761070d89612ad6565b9481614148575b50506020613d0560009260105480614128575b5060195460155460408051338782019081526001600160a01b0393841660208201529182018b9052600160608301529190921692610f819261078990839060800161077b565b613d6081610830613d53613d4c61413f958d61522a565b601755386140e2565b60195460008054601554614184956020956001600160a01b03938416958416949290931692670de0b6b3a764000091613dad9161070d90612ad6565b03925af180156107f957600092602092613d05926141a5575b5092506140cf565b6141bb90843d86116107f2576107e38183612b15565b503861419d565b508015156140a3565b5062ffffff841415613e9b565b5062ffffff8616670de0b6b3a7640000810290808204670de0b6b3a76400001490151715611942576142159062ffffff600f5460901c16906129e2565b841015613e95565b8060081c9061ffff821680600052600b60205260406000205490600160ff84161b821790818303614252575050505050600090565b600052600b6020526040600020551561426d575b5050600190565b60101c60ff9081166000818152600a6020526040902080546001949093169390931b8217909255156142a0575b80614266565b60ff600191161b600954176009553861429a565b8060081c9061ffff821680600052600e60205260406000205490600160ff84161b8217908183036142e9575050505050600090565b600052600e60205260406000205515614303575050600190565b60101c60ff9081166000818152600d6020526040902080546001949093169390931b8217909255156143355780614266565b60ff600191161b600c5417600c553861429a565b805460281c64ffffffffff16918261438c57815469ffffffffffffffffffff191664ffffffffff82161760289190911b64ffffffffff60281b1617905590565b90565b815469ffffffffff0000000000191660289190911b64ffffffffff60281b1617905590565b926001612c5794612ea464ffffffffff868180866040516143d181612ae4565b3381526001600160601b03602082019b168b52612e726001600160601b0384604084019c169c8d8d5285606085019860008a5262ffffff608087019d168d5260a086019d8e52166000526006602052604060002093858060a01b0390868060a01b03905116168260a01b855416178455511682908154906001600160601b0360a01b9060a01b169060018060a01b0316179055565b60018060a01b031680638b78c6d819547f8be0079c531659141344cd1fd0a4f28419497f9722a3daafe3b4186f6b6457e0600080a3801560ff1b17638b78c6d81955565b62ffffff6144b6615335565b1662ffffff81036144dd57506001549081156144d25760019190565b6000915062ffffff90565b600154806145215750670de0b6b3a7640000810290808204670de0b6b3a764000014901517156119425761451c9062ffffff600f5460901c16906129e2565b600091565b9190670de0b6b3a7640000810290808204670de0b6b3a764000014901517156119425762ffffff600f5460901c1661455981836129e2565b60009290858118818711021885036145745750505060019190565b919350614389916129e2565b62ffffff61458c6136cc565b16801580156145b25750506003549060001982146145aa5760019190565b600091508190565b600354600181016145f15750670de0b6b3a76400008202918204670de0b6b3a76400001417156119425761451c9062ffffff600f5460901c16906129e2565b929190670de0b6b3a76400008202918204670de0b6b3a76400001417156119425762ffffff600f5460901c1661462781836129e2565b60009290858118818710021885036145745750505060019190565b62ffffff906001600160601b0380600f5460301c169283921693169283810293818504149015170215613bc057808204910615150162ffffff81101561468a5762ffffff1690565b630b25243160e01b60005260046000fd5b9064ffffffffff8116156146c25764ffffffffff1664ffffffffff19825416179055600090565b50805469ffffffffffffffffffff19169055600190565b8060081c9061ffff821680600052600e60205260406000205490600160ff84161b19821680920361470d5750505050600090565b600052600e6020528060406000205515614728575050600190565b60ff9060101c169081600052600d602052600160ff60406000205492161b191681600052600d60205280604060002055156147635780614266565b60ff600191161b19600c5416600c553861429a565b8060081c9061ffff821680600052600b60205260406000205490600160ff84161b1982168092036147ac5750505050600090565b600052600b60205280604060002055156147c7575050600190565b60ff9060101c169081600052600a602052600160ff60406000205492161b191681600052600a60205280604060002055156148025780614266565b60ff600191161b19600954166009553861429a565b908060081c9061ffff821660028401816000528060205260406000205491600160ff85161b19831680930361485157505050505050600090565b600052602052806040600020551561486c575b505050600190565b60101c60ff9081166000818152600185810160205260409091208054949093161b1990921690819055156148a1575b80614864565b60ff600191161b198154169055388061489b565b9164ffffffffff90818316156148f4575b16156148d0575050565b815469ffffffffff0000000000191660289190911b64ffffffffff60281b16179055565b81811682198554161784556148c6565b90919260609064ffffffffff8454165b6001600160601b03861680151580614c94575b15614c675760009164ffffffffff6001604082841695868152600660205220015460281c169083600052600660205260406000205460a01c928360009111600014614c615750614977838a61348e565b985b6000916001600160601b038b16159485614c4d575b50600086815260066020526040812060018101549054614a6c9260689290921c60ff1615916001600160a01b0391909116908815614c37575084915b89600052600660205262ffffff60016040600020015460501c169181600014614c25576015546001600160a01b0316935b8215614bff57614a0b84826155c7565b935b60609315614bd95750612710614a4a614a416109cc60018060a01b0360145416946001600160601b03610627601254612ad6565b601154906129cf565b04905b81614bb3575b505061077b610789929360405195869360208501612b8d565b948015614b8a575b614b41575b506000858152600660205260409020805460019190910154670de0b6b3a7640000605082901c62ffffff16818102989360689390931c60ff1615926001600160a01b0316918115918a04141715611942576001600160601b036000805160206155da8339815191529560e0958f94614b0a8496614b04614b3a9e62ffffff600f5460901c16906129e2565b9361348e565b946040519788526020880152604087015260608601521660808401523360a08401521660c0820152a19693612c12565b9194614914565b6001600160601b038316614b82575b50600085815260066020526040902080546001600160a01b031660a084901b6001600160a01b03191617905538614a79565b925038614b50565b5083158015614a74575085600052600660205264ffffffffff6001604060002001541615614a74565b610789935090614bd361077b926122d76040519384928760208501612b8d565b92614a53565b6015546001600160a01b03169161271091614bf891614a4191906155c7565b0490614a4d565b614c1f6109cc614c10601254612ad6565b6001600160601b0384166129cf565b93614a0d565b6014546001600160a01b0316936149fb565b808a604092526006602052205460a01c916149ca565b614c5a919350829061348e565b913861498e565b98614979565b50614c7d8164ffffffffff93969795949761469b565b501615614c8957509190565b613d3090600c614817565b5064ffffffffff82161515614927565b90919260609064ffffffffff8454165b6001600160601b03861680151580614f01575b15614ed45760009164ffffffffff6001604082841695868152600660205220015460281c169083600052600660205260406000205460a01c928360009111600014614ece5750614d17838a61348e565b985b6000916001600160601b038b16159485614eba575b50600086815260066020526040812060018101549054614da99260689290921c60ff1615916001600160a01b0391909116908815614c375750849189600052600660205262ffffff60016040600020015460501c169181600014614c25576015546001600160a01b0316938215614bff57614a0b84826155c7565b948015614e91575b614e48575b506000858152600660205260409020805460019190910154670de0b6b3a7640000605082901c62ffffff16818102989360689390931c60ff1615926001600160a01b0316918115918a04141715611942576001600160601b036000805160206155da8339815191529560e0958f94614b0a8496614b04614e419e62ffffff600f5460901c16906129e2565b9194614cb4565b6001600160601b038316614e89575b50600085815260066020526040902080546001600160a01b031660a084901b6001600160a01b03191617905538614db6565b925038614e57565b5083158015614db1575085600052600660205264ffffffffff6001604060002001541615614db1565b614ec7919350829061348e565b9138614d2e565b98614d19565b50614eea8164ffffffffff93969795949761469b565b501615614ef657509190565b613d30906009614817565b5064ffffffffff82161515614cc7565b90600354906005546001600160601b0381169060045494614f3b6001600160601b0387168461348e565b926001600160601b0384166001600160601b0383161092836000146151dd57829788945b156150d257505050916001600160601b03614fa460e0936000805160206155da8339815191529560045484614f9683828416612bf2565b16908519161760045561348e565b601554909790829061505a906001600160a01b03166000670de0b6b3a7640000614fef614fe4614fd68789168f6129cf565b87600f5460301c16906129e2565b61070d601354612ad6565b0460609060018060a01b036014541661271061502b614a4161501d615015601254612ad6565b8b8d166129cf565b8a600f5460301c16906129e2565b048061509f575b5050915460405193919261078992859261077b9291906001600160a01b031660208501612b8d565b976150708360018060a01b03600054169661348e565b90604051956000875260208701526001604087015260608601521660808401523360a08401521660c0820152a1565b8454604051610789955061077b9390926150cc9284926122d792916001600160a01b031660208501612b8d565b92615032565b90919293506001600160601b0360601b8260601b16906001600160401b0360c01b16176004556001600160601b0361510e818360601c16612bb6565b16806107d08402936107d0818604149015170215613bc05782816001600160601b03949285930491061515011690821916178060055560601c16916151646001600160601b0361515d85612bd4565b16866129cf565b6101f48101809111611942576103e890046003556002546001600160601b0361518f81831695612bd4565b1693846103e88202916103e8818404149015170215613bc0578760e0946001600160601b0393846000805160206155da83398151915298614fa495041690851916176002558860015561348e565b84978894614f5f565b8181029181159183041417820215613bc0570490565b8181029181159183041417670de0b6b3a76400000215613bc057670de0b6b3a7640000808204910615150190565b81810291811591830414176127100215613bc057612710808204910615150190565b600190910160ff1690811c908161526557505060001990565b61527060ff92615275565b011690565b6000908060801b80615329575b508060401b8061531c575b508060201b8061530f575b508060101b80615302575b508060081b806152f5575b508060041b806152e8575b508060021b806152db575b5060011b6152d3575b60ff0390565b6001016152cd565b60029150910190386152c4565b60049150910190386152b9565b60089150910190386152ae565b60109150910190386152a3565b6020915091019038615298565b604091509101903861528d565b91505060809038615282565b61ffff600052600b60205261535060ff6040600020546154d9565b600181016153f6575060ff600052600a60205261537360ff6040600020546154d9565b600181016153d5575061538960ff6009546154d9565b60018101615399575062ffffff90565b80600052600a60205260ff6153b2604060002054615507565b169060081b1780600052600b60205262ffffff60ff6135b6604060002054615507565b61ff001780600052600b60205262ffffff60ff6135b6604060002054615507565b62ffff001762ffffff1690565b906143899160018060a01b036014541691600091612710615479670de0b6b3a764000061546f614fe46109cc61544f6109cc615440601254612ad6565b6001600160601b038a166129cf565b97606099506001600160601b0360018060a01b03601554169816906129cf565b04601154906129cf565b04806154a6575b50506000546040519361078992859261077b92906001600160a01b031660208501612b8d565b60005460405193945061078993926154d19284926122d792906001600160a01b031660208501612b8d565b919038615480565b60001990910160ff90811681031690811b806154f757505060001990565b61550260ff91615507565b160390565b906000916fffffffffffffffffffffffffffffffff81116155bc575b806001600160401b03600192116155b0575b63ffffffff81116155a4575b61ffff8111615598575b60ff811161558c575b600f8111615580575b60038111615574575b1161556d57565b9060010190565b6002938401931c615566565b6004938401931c61555d565b6008938401931c615554565b6010938401931c61554b565b6020938401931c615541565b6040938401931c615535565b60809250821c615523565b61312a9062ffffff6143899316612f4d56fe06029dfae141718336c21b1bb8cd746dc87a38baa63c413c40fa24b807b7cc05de65ec26e567cef1936a693231b33b08ce40fca66ce0e78b38d938048c7a0891a264697066735822122081c61e5a348d2fd94458b30e2245bd4c83d4ab84d9b5c6bc62a1bc5b605a2eb664736f6c634300081b0033",
        "linkReferences": {}
    },
    "methodIdentifiers": {
        "addBuyOrder(uint24,uint96,bool)": "cc57aec6",
        "addSellOrder(uint24,uint96,bool)": "5b16c9b6",
        "batchCancelOrders(uint40[])": "23afbff3",
        "batchUpdate(uint24[],uint96[],uint24[],uint96[],uint40[],bool)": "20b3fa5c",
        "bestBidAsk()": "b4de8b70",
        "cancelOwnershipHandover()": "54d1f13d",
        "collectFees()": "c8796572",
        "completeOwnershipHandover(address)": "f04e283e",
        "getL2Book()": "46fdfbb1",
        "getMarketParams()": "90c9427c",
        "getVaultParams()": "88bb4f60",
        "initialize(address,uint8,address,uint256,address,uint256,address,uint96,uint24,uint24,uint96,uint96,uint256,uint256,address,uint96)": "137fc7bb",
        "owner()": "8da5cb5b",
        "ownershipHandoverExpiresAt(address)": "fee81cf4",
        "placeAndExecuteMarketBuy(uint24,bool)": "2aa9fbdc",
        "placeAndExecuteMarketSell(uint96,bool)": "cae22ee6",
        "placeMultipleBuyOrders(uint24[],uint96[],bool)": "bb62b3c5",
        "placeMultipleSellOrders(uint24[],uint96[],bool)": "d2cd7d7f",
        "proxiableUUID()": "52d1902d",
        "renounceOwnership()": "715018a6",
        "requestOwnershipHandover()": "25692962",
        "s_buyPricePoints(uint256)": "e6d29b51",
        "s_buyTree()": "badc92d1",
        "s_orderIdCounter()": "2bf1360e",
        "s_orders(uint40)": "1c0d9c22",
        "s_sellPricePoints(uint256)": "0e2e2ffe",
        "s_sellTree()": "02b90c65",
        "toggleMarkets(bool)": "4d781103",
        "transferOwnership(address)": "f2fde38b",
        "updateVaultOrdSz(uint96,uint96,uint256,uint256)": "e55bb4e3",
        "upgradeToAndCall(address,bytes)": "4f1ef286",
        "vaultAskOrderSize()": "51130ac6",
        "vaultBestAsk()": "474b848c"
    },
    "id": 3
}