{
  "_format": "hh-sol-artifact-1",
  "contractName": "OrderBook",
  "sourceName": "contracts/OrderBook.sol",
  "abi": [
    {
      "inputs": [],
      "stateMutability": "nonpayable",
      "type": "constructor"
    },
    {
      "inputs": [],
      "name": "AlreadyInitialized",
      "type": "error"
    },
    {
      "inputs": [],
      "name": "InsufficientLiquidity",
      "type": "error"
    },
    {
      "inputs": [],
      "name": "InvalidInitialization",
      "type": "error"
    },
    {
      "inputs": [],
      "name": "InvalidSpread",
      "type": "error"
    },
    {
      "inputs": [],
      "name": "LengthMismatch",
      "type": "error"
    },
    {
      "inputs": [],
      "name": "MarketFeeError",
      "type": "error"
    },
    {
      "inputs": [],
      "name": "MarketStateError",
      "type": "error"
    },
    {
      "inputs": [],
      "name": "NativeAssetInsufficient",
      "type": "error"
    },
    {
      "inputs": [],
      "name": "NativeAssetNotRequired",
      "type": "error"
    },
    {
      "inputs": [],
      "name": "NativeAssetTransferFail",
      "type": "error"
    },
    {
      "inputs": [],
      "name": "NewOwnerIsZeroAddress",
      "type": "error"
    },
    {
      "inputs": [],
      "name": "NoHandoverRequest",
      "type": "error"
    },
    {
      "inputs": [],
      "name": "NotInitializing",
      "type": "error"
    },
    {
      "inputs": [],
      "name": "OnlyOwnerAllowedError",
      "type": "error"
    },
    {
      "inputs": [],
      "name": "OnlyVaultAllowed",
      "type": "error"
    },
    {
      "inputs": [],
      "name": "OrderAlreadyFilledOrCancelled",
      "type": "error"
    },
    {
      "inputs": [],
      "name": "PostOnlyError",
      "type": "error"
    },
    {
      "inputs": [],
      "name": "PriceError",
      "type": "error"
    },
    {
      "inputs": [],
      "name": "SizeError",
      "type": "error"
    },
    {
      "inputs": [],
      "name": "SlippageExceeded",
      "type": "error"
    },
    {
      "inputs": [],
      "name": "TickSizeError",
      "type": "error"
    },
    {
      "inputs": [],
      "name": "TooMuchSizeFilled",
      "type": "error"
    },
    {
      "inputs": [],
      "name": "Unauthorized",
      "type": "error"
    },
    {
      "inputs": [],
      "name": "UnauthorizedCallContext",
      "type": "error"
    },
    {
      "inputs": [],
      "name": "UpgradeFailed",
      "type": "error"
    },
    {
      "anonymous": false,
      "inputs": [
        {
          "indexed": false,
          "internalType": "uint64",
          "name": "version",
          "type": "uint64"
        }
      ],
      "name": "Initialized",
      "type": "event"
    },
    {
      "anonymous": false,
      "inputs": [
        {
          "indexed": false,
          "internalType": "uint40",
          "name": "orderId",
          "type": "uint40"
        },
        {
          "indexed": false,
          "internalType": "address",
          "name": "owner",
          "type": "address"
        },
        {
          "indexed": false,
          "internalType": "uint96",
          "name": "size",
          "type": "uint96"
        },
        {
          "indexed": false,
          "internalType": "uint32",
          "name": "price",
          "type": "uint32"
        },
        {
          "indexed": false,
          "internalType": "bool",
          "name": "isBuy",
          "type": "bool"
        }
      ],
      "name": "OrderCreated",
      "type": "event"
    },
    {
      "anonymous": false,
      "inputs": [
        {
          "indexed": false,
          "internalType": "uint40[]",
          "name": "orderId",
          "type": "uint40[]"
        },
        {
          "indexed": false,
          "internalType": "address",
          "name": "owner",
          "type": "address"
        }
      ],
      "name": "OrdersCanceled",
      "type": "event"
    },
    {
      "anonymous": false,
      "inputs": [
        {
          "indexed": true,
          "internalType": "address",
          "name": "pendingOwner",
          "type": "address"
        }
      ],
      "name": "OwnershipHandoverCanceled",
      "type": "event"
    },
    {
      "anonymous": false,
      "inputs": [
        {
          "indexed": true,
          "internalType": "address",
          "name": "pendingOwner",
          "type": "address"
        }
      ],
      "name": "OwnershipHandoverRequested",
      "type": "event"
    },
    {
      "anonymous": false,
      "inputs": [
        {
          "indexed": true,
          "internalType": "address",
          "name": "oldOwner",
          "type": "address"
        },
        {
          "indexed": true,
          "internalType": "address",
          "name": "newOwner",
          "type": "address"
        }
      ],
      "name": "OwnershipTransferred",
      "type": "event"
    },
    {
      "anonymous": false,
      "inputs": [
        {
          "indexed": false,
          "internalType": "uint40",
          "name": "orderId",
          "type": "uint40"
        },
        {
          "indexed": false,
          "internalType": "address",
          "name": "makerAddress",
          "type": "address"
        },
        {
          "indexed": false,
          "internalType": "bool",
          "name": "isBuy",
          "type": "bool"
        },
        {
          "indexed": false,
          "internalType": "uint256",
          "name": "price",
          "type": "uint256"
        },
        {
          "indexed": false,
          "internalType": "uint96",
          "name": "updatedSize",
          "type": "uint96"
        },
        {
          "indexed": false,
          "internalType": "address",
          "name": "takerAddress",
          "type": "address"
        },
        {
          "indexed": false,
          "internalType": "uint96",
          "name": "filledSize",
          "type": "uint96"
        }
      ],
      "name": "Trade",
      "type": "event"
    },
    {
      "anonymous": false,
      "inputs": [
        {
          "indexed": true,
          "internalType": "address",
          "name": "implementation",
          "type": "address"
        }
      ],
      "name": "Upgraded",
      "type": "event"
    },
    {
      "inputs": [
        {
          "internalType": "uint32",
          "name": "_price",
          "type": "uint32"
        },
        {
          "internalType": "uint96",
          "name": "size",
          "type": "uint96"
        },
        {
          "internalType": "bool",
          "name": "_postOnly",
          "type": "bool"
        }
      ],
      "name": "addBuyOrder",
      "outputs": [],
      "stateMutability": "nonpayable",
      "type": "function"
    },
    {
      "inputs": [
        {
          "internalType": "uint32",
          "name": "_price",
          "type": "uint32"
        },
        {
          "internalType": "uint96",
          "name": "size",
          "type": "uint96"
        },
        {
          "internalType": "bool",
          "name": "_postOnly",
          "type": "bool"
        }
      ],
      "name": "addSellOrder",
      "outputs": [],
      "stateMutability": "nonpayable",
      "type": "function"
    },
    {
      "inputs": [
        {
          "internalType": "uint40[]",
          "name": "_orderIds",
          "type": "uint40[]"
        }
      ],
      "name": "batchCancelOrders",
      "outputs": [],
      "stateMutability": "nonpayable",
      "type": "function"
    },
    {
      "inputs": [
        {
          "internalType": "uint32[]",
          "name": "buyPrices",
          "type": "uint32[]"
        },
        {
          "internalType": "uint96[]",
          "name": "buySizes",
          "type": "uint96[]"
        },
        {
          "internalType": "uint32[]",
          "name": "sellPrices",
          "type": "uint32[]"
        },
        {
          "internalType": "uint96[]",
          "name": "sellSizes",
          "type": "uint96[]"
        },
        {
          "internalType": "uint40[]",
          "name": "orderIdsToCancel",
          "type": "uint40[]"
        },
        {
          "internalType": "bool",
          "name": "postOnly",
          "type": "bool"
        }
      ],
      "name": "batchUpdate",
      "outputs": [],
      "stateMutability": "nonpayable",
      "type": "function"
    },
    {
      "inputs": [],
      "name": "bestBidAsk",
      "outputs": [
        {
          "internalType": "uint256",
          "name": "",
          "type": "uint256"
        },
        {
          "internalType": "uint256",
          "name": "",
          "type": "uint256"
        }
      ],
      "stateMutability": "view",
      "type": "function"
    },
    {
      "inputs": [],
      "name": "cancelOwnershipHandover",
      "outputs": [],
      "stateMutability": "payable",
      "type": "function"
    },
    {
      "inputs": [],
      "name": "collectFees",
      "outputs": [],
      "stateMutability": "nonpayable",
      "type": "function"
    },
    {
      "inputs": [
        {
          "internalType": "address",
          "name": "pendingOwner",
          "type": "address"
        }
      ],
      "name": "completeOwnershipHandover",
      "outputs": [],
      "stateMutability": "payable",
      "type": "function"
    },
    {
      "inputs": [],
      "name": "getL2Book",
      "outputs": [
        {
          "internalType": "bytes",
          "name": "",
          "type": "bytes"
        }
      ],
      "stateMutability": "view",
      "type": "function"
    },
    {
      "inputs": [],
      "name": "getMarketParams",
      "outputs": [
        {
          "internalType": "uint32",
          "name": "",
          "type": "uint32"
        },
        {
          "internalType": "uint96",
          "name": "",
          "type": "uint96"
        },
        {
          "internalType": "address",
          "name": "",
          "type": "address"
        },
        {
          "internalType": "uint256",
          "name": "",
          "type": "uint256"
        },
        {
          "internalType": "address",
          "name": "",
          "type": "address"
        },
        {
          "internalType": "uint256",
          "name": "",
          "type": "uint256"
        },
        {
          "internalType": "uint32",
          "name": "",
          "type": "uint32"
        },
        {
          "internalType": "uint96",
          "name": "",
          "type": "uint96"
        },
        {
          "internalType": "uint96",
          "name": "",
          "type": "uint96"
        },
        {
          "internalType": "uint256",
          "name": "",
          "type": "uint256"
        },
        {
          "internalType": "uint256",
          "name": "",
          "type": "uint256"
        }
      ],
      "stateMutability": "view",
      "type": "function"
    },
    {
      "inputs": [],
      "name": "getVaultParams",
      "outputs": [
        {
          "internalType": "address",
          "name": "",
          "type": "address"
        },
        {
          "internalType": "uint256",
          "name": "",
          "type": "uint256"
        },
        {
          "internalType": "uint96",
          "name": "",
          "type": "uint96"
        },
        {
          "internalType": "uint256",
          "name": "",
          "type": "uint256"
        },
        {
          "internalType": "uint96",
          "name": "",
          "type": "uint96"
        },
        {
          "internalType": "uint96",
          "name": "",
          "type": "uint96"
        },
        {
          "internalType": "uint96",
          "name": "",
          "type": "uint96"
        },
        {
          "internalType": "uint96",
          "name": "",
          "type": "uint96"
        }
      ],
      "stateMutability": "view",
      "type": "function"
    },
    {
      "inputs": [
        {
          "internalType": "address",
          "name": "_owner",
          "type": "address"
        },
        {
          "internalType": "enum IOrderBook.OrderBookType",
          "name": "_type",
          "type": "uint8"
        },
        {
          "internalType": "address",
          "name": "_baseAssetAddress",
          "type": "address"
        },
        {
          "internalType": "uint256",
          "name": "_baseAssetDecimals",
          "type": "uint256"
        },
        {
          "internalType": "address",
          "name": "_quoteAssetAddress",
          "type": "address"
        },
        {
          "internalType": "uint256",
          "name": "_quoteAssetDecimals",
          "type": "uint256"
        },
        {
          "internalType": "address",
          "name": "_marginAccountAddress",
          "type": "address"
        },
        {
          "internalType": "uint96",
          "name": "_sizePrecision",
          "type": "uint96"
        },
        {
          "internalType": "uint32",
          "name": "_pricePrecision",
          "type": "uint32"
        },
        {
          "internalType": "uint32",
          "name": "_tickSize",
          "type": "uint32"
        },
        {
          "internalType": "uint96",
          "name": "_minSize",
          "type": "uint96"
        },
        {
          "internalType": "uint96",
          "name": "_maxSize",
          "type": "uint96"
        },
        {
          "internalType": "uint256",
          "name": "_takerFeeBps",
          "type": "uint256"
        },
        {
          "internalType": "uint256",
          "name": "_makerFeeBps",
          "type": "uint256"
        },
        {
          "internalType": "address",
          "name": "_kuruAmmVault",
          "type": "address"
        },
        {
          "internalType": "uint96",
          "name": "_kuruAmmSpread",
          "type": "uint96"
        }
      ],
      "name": "initialize",
      "outputs": [],
      "stateMutability": "nonpayable",
      "type": "function"
    },
    {
      "inputs": [],
      "name": "owner",
      "outputs": [
        {
          "internalType": "address",
          "name": "result",
          "type": "address"
        }
      ],
      "stateMutability": "view",
      "type": "function"
    },
    {
      "inputs": [
        {
          "internalType": "address",
          "name": "pendingOwner",
          "type": "address"
        }
      ],
      "name": "ownershipHandoverExpiresAt",
      "outputs": [
        {
          "internalType": "uint256",
          "name": "result",
          "type": "uint256"
        }
      ],
      "stateMutability": "view",
      "type": "function"
    },
    {
      "inputs": [
        {
          "internalType": "uint32",
          "name": "_quoteSize",
          "type": "uint32"
        },
        {
          "internalType": "uint256",
          "name": "_minAmountOut",
          "type": "uint256"
        },
        {
          "internalType": "bool",
          "name": "_isMargin",
          "type": "bool"
        },
        {
          "internalType": "bool",
          "name": "_isFillOrKill",
          "type": "bool"
        }
      ],
      "name": "placeAndExecuteMarketBuy",
      "outputs": [
        {
          "internalType": "uint256",
          "name": "",
          "type": "uint256"
        }
      ],
      "stateMutability": "payable",
      "type": "function"
    },
    {
      "inputs": [
        {
          "internalType": "uint96",
          "name": "_size",
          "type": "uint96"
        },
        {
          "internalType": "uint256",
          "name": "_minAmountOut",
          "type": "uint256"
        },
        {
          "internalType": "bool",
          "name": "_isMargin",
          "type": "bool"
        },
        {
          "internalType": "bool",
          "name": "_isFillOrKill",
          "type": "bool"
        }
      ],
      "name": "placeAndExecuteMarketSell",
      "outputs": [
        {
          "internalType": "uint256",
          "name": "",
          "type": "uint256"
        }
      ],
      "stateMutability": "payable",
      "type": "function"
    },
    {
      "inputs": [
        {
          "internalType": "uint32[]",
          "name": "_prices",
          "type": "uint32[]"
        },
        {
          "internalType": "uint96[]",
          "name": "_sizes",
          "type": "uint96[]"
        },
        {
          "internalType": "bool",
          "name": "_postOnly",
          "type": "bool"
        }
      ],
      "name": "placeMultipleBuyOrders",
      "outputs": [],
      "stateMutability": "nonpayable",
      "type": "function"
    },
    {
      "inputs": [
        {
          "internalType": "uint32[]",
          "name": "_prices",
          "type": "uint32[]"
        },
        {
          "internalType": "uint96[]",
          "name": "_sizes",
          "type": "uint96[]"
        },
        {
          "internalType": "bool",
          "name": "_postOnly",
          "type": "bool"
        }
      ],
      "name": "placeMultipleSellOrders",
      "outputs": [],
      "stateMutability": "nonpayable",
      "type": "function"
    },
    {
      "inputs": [],
      "name": "proxiableUUID",
      "outputs": [
        {
          "internalType": "bytes32",
          "name": "",
          "type": "bytes32"
        }
      ],
      "stateMutability": "view",
      "type": "function"
    },
    {
      "inputs": [],
      "name": "renounceOwnership",
      "outputs": [],
      "stateMutability": "payable",
      "type": "function"
    },
    {
      "inputs": [],
      "name": "requestOwnershipHandover",
      "outputs": [],
      "stateMutability": "payable",
      "type": "function"
    },
    {
      "inputs": [
        {
          "internalType": "uint256",
          "name": "",
          "type": "uint256"
        }
      ],
      "name": "s_buyPricePoints",
      "outputs": [
        {
          "internalType": "uint40",
          "name": "head",
          "type": "uint40"
        },
        {
          "internalType": "uint40",
          "name": "tail",
          "type": "uint40"
        }
      ],
      "stateMutability": "view",
      "type": "function"
    },
    {
      "inputs": [],
      "name": "s_buyTree",
      "outputs": [
        {
          "internalType": "bytes32",
          "name": "level0",
          "type": "bytes32"
        }
      ],
      "stateMutability": "view",
      "type": "function"
    },
    {
      "inputs": [],
      "name": "s_orderIdCounter",
      "outputs": [
        {
          "internalType": "uint40",
          "name": "",
          "type": "uint40"
        }
      ],
      "stateMutability": "view",
      "type": "function"
    },
    {
      "inputs": [
        {
          "internalType": "uint40",
          "name": "",
          "type": "uint40"
        }
      ],
      "name": "s_orders",
      "outputs": [
        {
          "internalType": "address",
          "name": "ownerAddress",
          "type": "address"
        },
        {
          "internalType": "uint96",
          "name": "size",
          "type": "uint96"
        },
        {
          "internalType": "uint40",
          "name": "prev",
          "type": "uint40"
        },
        {
          "internalType": "uint40",
          "name": "next",
          "type": "uint40"
        },
        {
          "internalType": "uint32",
          "name": "price",
          "type": "uint32"
        },
        {
          "internalType": "bool",
          "name": "isBuy",
          "type": "bool"
        }
      ],
      "stateMutability": "view",
      "type": "function"
    },
    {
      "inputs": [
        {
          "internalType": "uint256",
          "name": "",
          "type": "uint256"
        }
      ],
      "name": "s_sellPricePoints",
      "outputs": [
        {
          "internalType": "uint40",
          "name": "head",
          "type": "uint40"
        },
        {
          "internalType": "uint40",
          "name": "tail",
          "type": "uint40"
        }
      ],
      "stateMutability": "view",
      "type": "function"
    },
    {
      "inputs": [],
      "name": "s_sellTree",
      "outputs": [
        {
          "internalType": "bytes32",
          "name": "level0",
          "type": "bytes32"
        }
      ],
      "stateMutability": "view",
      "type": "function"
    },
    {
      "inputs": [
        {
          "internalType": "bool",
          "name": "_state",
          "type": "bool"
        }
      ],
      "name": "toggleMarkets",
      "outputs": [],
      "stateMutability": "nonpayable",
      "type": "function"
    },
    {
      "inputs": [
        {
          "internalType": "address",
          "name": "newOwner",
          "type": "address"
        }
      ],
      "name": "transferOwnership",
      "outputs": [],
      "stateMutability": "payable",
      "type": "function"
    },
    {
      "inputs": [
        {
          "internalType": "uint96",
          "name": "_vaultAskOrderSize",
          "type": "uint96"
        },
        {
          "internalType": "uint96",
          "name": "_vaultBidOrderSize",
          "type": "uint96"
        },
        {
          "internalType": "uint256",
          "name": "_askPrice",
          "type": "uint256"
        },
        {
          "internalType": "uint256",
          "name": "_bidPrice",
          "type": "uint256"
        }
      ],
      "name": "updateVaultOrdSz",
      "outputs": [],
      "stateMutability": "nonpayable",
      "type": "function"
    },
    {
      "inputs": [
        {
          "internalType": "address",
          "name": "newImplementation",
          "type": "address"
        },
        {
          "internalType": "bytes",
          "name": "data",
          "type": "bytes"
        }
      ],
      "name": "upgradeToAndCall",
      "outputs": [],
      "stateMutability": "payable",
      "type": "function"
    },
    {
      "inputs": [],
      "name": "vaultAskOrderSize",
      "outputs": [
        {
          "internalType": "uint96",
          "name": "",
          "type": "uint96"
        }
      ],
      "stateMutability": "view",
      "type": "function"
    },
    {
      "inputs": [],
      "name": "vaultBestAsk",
      "outputs": [
        {
          "internalType": "uint256",
          "name": "",
          "type": "uint256"
        }
      ],
      "stateMutability": "view",
      "type": "function"
    }
  ],
  "bytecode": "0x60a080604052346099573060805263409feecd195460018116608c5760011c6002600160401b0319016048575b615ac3908161009e82396080518181816122df01526123a10152f35b6002600160411b0363409feecd19556001600160401b0360209081527fc7f505b2f371ae2175ee4913f4499e1f2633a7b5936321eed1cdaeb6115181d29080a1602c565b63f92ee8a95f526004601cfd5b5f80fdfe610280806040526004361015610013575f80fd5b5f610220525f3560e01c90816302b90c6514612c25575080630e2e2ffe14612bd25780631c0d9c2214612b4957806323afbff314612abb5780632569296214612a725780632adb82d3146127295780632bf1360e1461270557806340e79b1b146126c357806346fdfbb1146124d6578063474b848c146124b95780634d781103146124665780634f1ef2861461234d57806351130ac61461232757806352d1902d146122cc578063532c46db14611b885780635339c59f1461145257806354d1f13d146113fa57806364216b0f1461110e578063715018a6146110c957806388bb4f60146110315780638da5cb5b1461100257806390c9427c14610f5f5780639ea5925814610eec578063a09e904014610a77578063a9914abd14610484578063b4de8b7014610450578063badc92d114610430578063c879657214610372578063e55bb4e3146102c2578063e6d29b5114610265578063f04e283e1461020e578063f2fde38b146101c95763fee81cf41461018d575f80fd5b346101c25760203660031901126101c2576101a6612c6f565b63389a75e1600c526102205152602080600c2054604051908152f35b6102205180fd5b60203660031901126101c2576101dd612c6f565b6101e5614479565b8060601b156101fe576101f7906148cd565b6102205180f35b637448fbae61022051526004601cfd5b60203660031901126101c257610222612c6f565b61022a614479565b63389a75e1600c528061022051526020600c209081544211610255576101f7916102205190556148cd565b636f5e881861022051526004601cfd5b346101c25760203660031901126101c257600435610220515260076020526102be6040610220512054604051918164ffffffffff80859460281c1691168390929164ffffffffff60209181604085019616845216910152565b0390f35b346101c25760803660031901126101c2576102db612c9b565b6102e3612c85565b61022051549091906001600160a01b0316330361035d576001600160601b0391600454908360601b9060601b16908360601b191617600455166001600160601b031960055416176005555f1960035414610352575b60015415610347576102205180f35b6064356001556101f7565b604435600355610338565b631628c08760e31b6102205152600461022051fd5b346101c257610220513660031901126101c257601b54601654601a546017546019546040516324facdb160e11b81526001600160a01b03948516600482015260248101939093529083166044830152606482015261022051909260209284926084928492165af18015610422576103f5575b61022051601a819055601981905580f35b6104169060203d60201161041b575b61040e81836135ec565b810190613710565b6103e4565b503d610404565b6040513d61022051823e3d90fd5b346101c257610220513660031901126101c2576020600954604051908152f35b346101c257610220513660031901126101c257604061046d614957565b9050610477614a2b565b8351928352602083015250f35b346101c25761049236612d2f565b929360ff60115460281c16610a4e57818503610a625792919361022051915b8183106104bf576102205180f35b6104d26104cd848488612d8c565b61377b565b936104e66104e185848a612d8c565b61378c565b9360ff60115460281c16610a4e5763ffffffff861615610a3957601854946001600160601b038116956001600160601b038116871115610a245760601c6001600160601b0316861015610a245763ffffffff6105498160175460a01c1689612e6e565b16610a0f57610220519397939485916060918391610565614a2b565b939093955b6001600160601b0383161515806109ba575b806109b1575b156106935791958692908515610631576105b26105a16105ab956154c7565b95905b809a613cf3565b8093613649565b95610603575b916105e16105e79263ffffffff6105db6105ed97968260115460901c1690615390565b166148fd565b906137a0565b94613669565b9b6105f6614a2b565b919d91959194909361056a565b9a916105e18263ffffffff6105db6106226105e7966105ed9998613649565b9f9496975050509250506105b8565b6105b26105ab61068c6001600160601b039663ffffffff60115460901c16670de0b6b3a764000061067463ffffffff8261066b858b612e33565b04169288612e33565b04610220515260086020526040610220512090614dbb565b96166105a4565b889d9b96506001600160601b039194509d9b969794929d9991989916806107e7575b5050506106c961070d916105e188876148fd565b6106ef60018060a01b03601754169163ffffffff6106e8601554612e86565b9116612e33565b90610707339263ffffffff60115460901c1690612e46565b90613c9d565b6107bd575b50826001600160601b0360019416610733575b5050019194909392946104b1565b5f80516020615a4e833981519152916107b36011549161075964ffffffffff8416612e94565b64ffffffffff1990931664ffffffffff84161760115561077881613d2d565b5063ffffffff8116610220515260076020526107a561079d8460406102205120613ea7565b848684613f06565b604051938493339085612eae565b0390a18780610725565b6001600160601b038416036107d25788610712565b6306e6da4d60e01b6102205152600461022051fd5b9091929350610802601454916107fc83612e86565b90612e33565b6001600160601b0361081c8160115460301c168093612e46565b9316908161091c575b5050506108979161087b602092601254806108db575b5060018060a01b03601b54169261087660018060a01b0360165416610868604051948592338a8501613728565b03601f1981018452836135ec565b613669565b9060405180809581946337adb00f60e11b835260048301612d03565b039161022051905af18015610422578a9261070d926106c9926108bd575b8193506106b5565b6108d49060203d811161041b5761040e81836135ec565b508d6108b5565b61090b816109066108f96108f261091395876153be565b8096613d20565b946107fc60135484613d20565b612e46565b601a54613d13565b601a558f61083b565b601b5461022051546016546001600160a01b03908116959181169492169261094e92909161090691906107fc90612e86565b90803b156101c25761097b93604051809581948293633609c92960e11b84526102205197600485016136b0565b039161022051905af1801561042257610996575b8080610825565b610220516109a3916135ec565b610220516101c2578c61098f565b50861515610582565b5063ffffffff8d16670de0b6b3a764000081810291820490036109f5576109ed9063ffffffff60115460901c1690612e46565b87111561057c565b634e487b7160e01b61022051526011600452602461022051fd5b63272d3bf760e01b6102205152600461022051fd5b630a5c4f1f60e01b6102205152600461022051fd5b6348fa9b2b60e11b6102205152600461022051fd5b6225b2dd60e11b6102205152600461022051fd5b631fec674760e31b6102205152600461022051fd5b346101c25760603660031901126101c257610a90612cb1565b610a98612c85565b610aa0612cc4565b60ff60115460281c16610a4e5763ffffffff8316908115610a3957601854926001600160601b038116936001600160601b038116851115610a245760601c6001600160601b0316841015610a245763ffffffff610b048160175460a01c1687612e6e565b16610a0f57610220516060959094928592839290610b20614a2b565b949094985b6001600160601b038316151580610eb1575b80610ea8575b15610c1a5791988992908615610bd957610b66610b5c6105ab956154c7565b95905b809d613cf3565b96610bab575b916105e1610b8f9263ffffffff6105db610b9597968260115460901c1690615390565b99613669565b95610b9e614a2b565b9799979891979094610b25565b96916105e18263ffffffff6105db610bca610b8f96610b959998613649565b9b949697505050925050610b6c565b610b666105ab610c136001600160601b039663ffffffff60115460901c16670de0b6b3a764000061067463ffffffff8261066b858b612e33565b9616610b5f565b848b8a93896001600160601b038c951680610d1e575b5050610c809150610c45906105e187896148fd565b610c79610c6760018060a01b03601754169263ffffffff6106e8601554612e86565b63ffffffff60115460901c1690612e46565b3391613c9d565b610d09575b506001600160601b038216610c9b576102205180f35b610cfe5f80516020615a4e8339815191529360115492610cc164ffffffffff8516612e94565b64ffffffffff1990941664ffffffffff851617601155610ce082613d2d565b50610220515260076020526107a561079d8460406102205120613ea7565b0390a18080806101f7565b6001600160601b038316036107d25783610c85565b610d2e601454916107fc83612e86565b6001600160601b03610d488160115460301c168093612e46565b93169081610e13575b505050610daf92610d9360209260125480610df3575060018060a01b03601b54169261087660018060a01b0360165416610868604051948592338a8501613728565b9060405180809681946337adb00f60e11b835260048301612d03565b039161022051905af190811561042257610c8092610c4592610dd4575b819250610c30565b610dec9060203d60201161041b5761040e81836135ec565b5088610dcc565b61090b816109066108f96108f2610e0a95876153be565b601a558b61083b565b601b5461022051546016546001600160a01b039081169591811694921692610e4592909161090691906107fc90612e86565b90803b156101c257610e7293604051809581948293633609c92960e11b84526102205197600485016136b0565b039161022051905af1801561042257610e8d575b8080610d51565b61022051610e9a916135ec565b610220516101c25788610e86565b50891515610b3d565b50670de0b6b3a76400008902898104670de0b6b3a7640000036109f557610ee49063ffffffff60115460901c1690612e46565b8a1115610b37565b346101c257610efa36612d2f565b9360ff60115460281c16610a4e57818403610a6257610220515b848110610f22576102205180f35b610f306104cd828785612d8c565b90610f3f6104e1828688612d8c565b60ff60115460281c16610a4e5787610f5991600194612ef4565b01610f14565b346101c257610220513660031901126101c25761016060115460018060a01b03601654166014546001600160601b0360175463ffffffff60155491601854926012549560135497866040519a868160901c168c5260301c1660208b015260408a0152606089015260018060a01b038216608089015260a088015260a01c1660c086015281811660e086015260601c16610100840152610120830152610140820152f35b346101c257610220513660031901126101c257638b78c6d819546040516001600160a01b039091168152602090f35b346101c257610220513660031901126101c257610220515460015460025460035460045460055491946001600160a01b031693606083901c6001600160601b03908116600a028082169590911693929085036109f557610100966001600160601b03948593604051988952602089015260408801526060870152818116608087015260601c1660a08501521660c083015260e0820152f35b610220513660031901126101c2576110df614479565b61022051638b78c6d819545f80516020615a2e8339815191528280a3600160ff1b638b78c6d819556102205180f35b60803660031901126101c257611122612cb1565b61112a612cc4565b611132612cd3565b9060ff60115460281c16610a4e5760ff60055460c01c169260038410159384611268576002149081806113f2575b156113175761116e8161454c565b341015806112f4575b156112df578261118691614563565b94909363ffffffff85161561129757611282576112685780611260575b156111e357506111b56111ba9161454c565b6144fb565b60243581106111ce57602090604051908152f35b638199f5f360e01b6102205152600461022051fd5b601b5460175461122793602093926001600160a01b039081169216906112089061454c565b604051633af55cc760e11b815295869485938493903360048601613751565b039161022051905af1801561042257611241575b506111ba565b6112599060203d60201161041b5761040e81836135ec565b508161123b565b5080156111a3565b634e487b7160e01b61022051526021600452602461022051fd5b63bb55fd2760e01b6102205152600461022051fd5b50501591506111ba905057601b54610220519081908190819034906001600160a01b03165af16112c56136d2565b506111ba5763386bf62b60e11b6102205152600461022051fd5b63fd99316160e01b6102205152600461022051fd5b5063ffffffff8181166001019081116109f5576113109061454c565b3410611177565b346113dd578280156113ab5750601b546017546001600160a01b0391821691166113408361454c565b823b156101c25761136c926040518080958194633609c92960e11b8352610220519633600485016136b0565b039161022051905af190811561042257849161138d575b5061118691614563565b61139c915061022051906135ec565b610220516101c2578286611383565b601754601b5461118693916113d8916001600160a01b0391821691166113d08461454c565b9133906144af565b614563565b63756ac9bb60e11b6102205152600461022051fd5b508215611160565b610220513660031901126101c25763389a75e1600c52336102205152610220516020600c2055337ffa7b8eab7da67f412cc9575ed43464468f9bfbae89d1675917346ca6d8fe3c926102205161022051a26102205180f35b346101c25760c03660031901126101c2576004356001600160401b0381116101c257611482903690600401612c3f565b610200526024356001600160401b0381116101c2576114a5903690600401612c3f565b6101a052906044356001600160401b0381116101c2576114c9903690600401612c3f565b9061018052906064356001600160401b0381116101c2576114ee903690600401612c3f565b60805260a0526084356001600160401b0381116101c257611513903690600401612c3f565b9060e052926102205160c05260a43560c05260c051151560c051036101c25760ff60115460281c16610a4e576101a0516102005103610a62576080518303610a625761022051915b610200518310611653575b505050610220515b8181106115eb575b5050610220515b8181106115c4577f386974f41b61738b510019ccd5a3524a43eccf0d136929e09d524e87aeeca2c46115ba83604051918291339060e05184612dc2565b0390a16102205180f35b806115e46115df6115da6001948660e051612d8c565b612db0565b6137ff565b500161157d565b63ffffffff6116016104cd838561018051612d8c565b161561164e576116186104cd828461018051612d8c565b9061162b6104e18260805160a051612d8c565b60ff60115460281c16610a4e576001926116489160c05191612ef4565b0161156e565b611576565b90919363ffffffff61166c6104cd876102005186612d8c565b1615611b82576116836104cd866102005185612d8c565b610240526116986104e1866101a05186612d8c565b6101e05260ff60115460281c16610a4e5763ffffffff610240511615610a39576018546001600160601b0381166001600160601b036101e051161115610a24576001600160601b039060601c166001600160601b036101e051161015610a245763ffffffff6117118160175460a01c1661024051612e6e565b16610a0f576101e05161014052610220516101c0819052606061012052938492611739614a2b565b61026052955b6001600160601b036101405116151580611b41575b80611b35575b1561187d57610140516102205161016052946117d9916117cf916105e1908a1561180c576117b06117a9611790610140516154c7565b90610160529a5b61016051610140526101605190613cf3565b8092613649565b9a6117f6575b63ffffffff6105db8160115460901c1661026051615390565b9461012051613669565b610120526117e5614a2b565b61010082905261026052959361173f565b611803816101c051613649565b6101c0526117b6565b6117b06117a96001600160601b0361187163ffffffff60115460901c16670de0b6b3a764000061185463ffffffff826118488561026051612e33565b04169261026051612e33565b046102205152600860205261014051906040610220512090614dbb565b9116610160529a611797565b91955093926001600160601b039096929616806119a2575b506106c96118ad916105e161014051610240516148fd565b60c05161196d575b6001906001600160601b0361014051166118d1575b019161155b565b5f80516020615a4e8339815191526119656011546118f564ffffffffff8216612e94565b9064ffffffffff82169064ffffffffff19161760115561191761024051613d2d565b5063ffffffff61024051166102205152600760205261194d61193f8260406102205120613ea7565b826101405161024051613f06565b60405191829161024051906101405190339085612eae565b0390a16118ca565b6001600160601b0361014051166001600160601b036101e0511603156118b5576306e6da4d60e01b6102205152600461022051fd5b906119b3601454926107fc84612e86565b916119cd6001600160601b0360115460301c168094612e46565b926001600160601b036101c051169081611aa0575b5050506020611a3d9260125480611a80575b50601b546016546040516001600160a01b0392831693610d93939192611a34928492611a269290911633898501613728565b03601f1981018352826135ec565b61012051613669565b039161022051905af1908115610422576118ad926106c992611a62575b509150611895565b611a799060203d811161041b5761040e81836135ec565b5088611a5a565b61090b816109066108f96108f2611a9795876153be565b601a55896119f4565b601b5461022051546016546001600160a01b039081169591811694921692611ad292909161090691906107fc90612e86565b90803b156101c257611aff93604051809581948293633609c92960e11b84526102205197600485016136b0565b039161022051905af1801561042257611b1a575b80806119e2565b61022051611b27916135ec565b610220516101c25787611b13565b5061026051151561175a565b506102405163ffffffff16670de0b6b3a764000081810291820490036109f557611b779063ffffffff60115460901c1690612e46565b610260511115611754565b93611566565b608036600319011261226a57611b9c612c9b565b611ba4612cc4565b611bac612cd3565b60ff60115460281c166122be5760ff60055460c01c1690600382101591826122aa576001149384806122a2575b156121df57611be781614495565b341015806121b9575b156112df579291925b61022051948580611c08614957565b90986060955b6001600160601b03811680151580612184575b80612176575b15611f575781908c80611f40575b15611ee15760015490600454906001600160601b038260601c1660025495611c666001600160601b03881683613cf3565b926001600160601b03841611918215611ed857819788935b15611df85750505f80516020615a6e833981519152935090611cc6916002546001600160601b03611cb183828416613649565b16906001600160601b03191617600255613cf3565b92611d3a611cd482886158b6565b96611cec8160018060a01b0361022051541695613cf3565b604080515f8082526001600160a01b0390971660208201529081019590955260608501939093526001600160601b0392831660808501523260a085015290911660c0830152819060e0820190565b0390a191935b829c5f14611d99575091611d78611d5e611d7e93611d849695613cf3565b6001546001600160601b038060115460301c16921661537a565b90613d13565b95613669565b95611d8d614957565b90999197959091611c0e565b611deb63ffffffff91611db6611df295611d8498979c9a95613cf3565b906001600160601b038085670de0b6b3a7640000611ddd60115495838760901c1690612e33565b04169260301c16921661537a565b16906137a0565b93613669565b9092506001600160601b0319166002556001600160601b0382811960055416178060055560601c16906107d06001600160601b03611e358461360d565b169384810294818604149015170215611ec857611ebc611e8e89935f80516020615a6e83398151915297611cc6966107d06001600160601b0360601b910460601b16906001600160601b0360601b19161760045561362b565b610906611e9a89612e1b565b6b7fffffffffffffffffffffff6001600160601b0384169360011c1690613d13565b60015585600355613cf3565b63ad251c2761022051526004601cfd5b83978893611c7e565b50611f376001600160601b039263ffffffff60115460901c16670de0b6b3a7640000611f1f63ffffffff82611f16858c612e33565b04169289612e33565b04610220515260076020526040610220512090615134565b92169193611d40565b506001600160601b0360045460601c161515611c35565b5088868b8a87958b63ffffffff8b16801580159061216d575b611fd4575b5050506001600160601b0385161561129757611282576112685780611fcc575b15611fa757506111b56111ba91614495565b601b5460165461122793602093926001600160a01b0390811692169061120890614495565b508015611f95565b90919750612010611fee610c67601554936107fc85612e86565b670de0b6b3a764000061200961200385612e86565b8c612e33565b0490613d13565b97806120d4575b5050602061205d916012548981612097575b601b546017546040516001600160a01b039283169561087b955090939092610876928592610868928f9216338b8601613751565b039161022051905af1801561042257612078575b8080611f75565b6120909060203d60201161041b5761040e81836135ec565b5086612071565b816109066120b56120ae6120ca956120c2956153be565b809e613d20565b9c6107fc60135484613d20565b601954613d13565b6019558989612029565b601b5461022051546017546001600160a01b039081169491811693921691670de0b6b3a76400009161210a91906107fc90612e86565b0490803b156101c25761213893604051809581948293633609c92960e11b84526102205197600485016136b0565b039161022051905af1801561042257612152575b80612017565b6102205161215f916135ec565b610220516101c2578761214c565b50821515611f70565b5063ffffffff841415611c27565b50610220516109f55763ffffffff60115460901c16156121a5576001611c21565b634e487b7160e01b5f52601260045260245ffd5b506001600160601b038181166001019081116109f5576121d890614495565b3410611bf0565b3461229357831561226e57601b546016546001600160a01b03918216911661220683614495565b823b1561226a57612231925f9283604051809681958294633609c92960e11b845233600485016136b0565b03925af1801561225f5761224a575b505b929192611bf9565b5f612254916135ec565b5f6102205285612240565b6040513d5f823e3d90fd5b5f80fd5b601654601b5461228e916001600160a01b0390811691166113d084614495565b612242565b63756ac9bb60e11b5f5260045ffd5b508315611bd9565b634e487b7160e01b5f52602160045260245ffd5b6225b2dd60e11b5f5260045ffd5b3461226a575f36600319011261226a57307f00000000000000000000000000000000000000000000000000000000000000000361231a5760206040515f80516020615a0e8339815191528152f35b639f03a0265f526004601cfd5b3461226a575f36600319011261226a5760206001600160601b0360055416604051908152f35b604036600319011261226a57612361612c6f565b602435906001600160401b03821161226a573660238301121561226a578160040135906001600160401b03821161226a57366024838501011161226a57307f00000000000000000000000000000000000000000000000000000000000000001461231a576123cd614479565b60018060a01b03166352d1902d6001525f80516020615a0e833981519152602060016004601d855afa510361245857807fbc7cd75a20ee27fd9adebab32041f755214dbc6bffa90cc0225b39da2e5c2d3b5f80a281815f80516020615a0e8339815191525561243857005b815f926024604051950185378338925af41561245057005b3d5f823e3d90fd5b6355299b496001526004601dfd5b3461226a57602036600319011261226a5760043580151580910361226a5761248c614479565b6011549060ff8260281c16151581146122be5760ff60281b9060281b169060ff60281b1916176011555f80f35b3461226a575f36600319011261226a576020600354604051908152f35b3461226a575f36600319011261226a57604051436020820152602081526124fe6040826135ec565b612506613fe5565b63ffffffff811663ffffffff811415806126ba575b156125c2575f52600760205264ffffffffff60405f2054169064ffffffffff5f925b1691821561257f5761255f90835f52600660205260405f205460a01c90613649565b915f52600660205264ffffffffff80600160405f20015460281c1661253d565b6040805163ffffffff841660208201526001600160601b039092169082015290926125bd92506125b791906108768260608101610868565b916140f7565b612506565b6125df83604051905f6020830152602082526108766040836135ec565b6125e7614239565b63ffffffff811663ffffffff811415806126b1575b156126a3575f52600860205264ffffffffff60405f2054169064ffffffffff5f925b169182156126605761264090835f52600660205260405f205460a01c90613649565b915f52600660205264ffffffffff80600160405f20015460281c1661261e565b6040805163ffffffff841660208201526001600160601b0390921690820152909261269e925061269891906108768260608101610868565b91614338565b6125e7565b604051806102be8582612d03565b508015156125fc565b5080151561251b565b3461226a57606036600319011261226a576126dc612cb1565b6126e4612c85565b6126ec612cc4565b9060ff60115460281c166122be5761270392612ef4565b005b3461226a575f36600319011261226a57602064ffffffffff60115416604051908152f35b3461226a5761020036600319011261226a57612743612c6f565b602435600381101561226a576044356001600160a01b0381169081900361226a576084356001600160a01b0381169081900361226a5760c4356001600160a01b0381169081900361226a5760e435906001600160601b038216820361226a57610104359263ffffffff8416840361226a57610124359163ffffffff8316830361226a57610144356001600160601b03811680910361226a5761016435906001600160601b038216820361226a5761018435926101a435946101c4359660018060a01b03881680980361226a576101e435986001600160601b038a16809a0361226a5763409feecd19805460038255909e9080612a49575b50638b78c6d81954612a3c576001600160a01b0316801560ff1b8117638b78c6d819555f5f80516020615a2e8339815191528180a386611f4002611f4081048803612a2857612710900488111580612a1d575b15612a0e576001600160601b03600a8b06161580612a05575b806129fa575b156129eb57600a9a6005549c60018060a01b031960165416176016556017549460643560145560a43560155560018060a01b0319601b541617601b5571ffffffffffffffffffffffff0000000000006011549163ffffffff60901b9060901b169260301b16906601000000000000600160b01b031916171760115563ffffffff60a01b9060a01b16916001600160401b0360c01b161717601755601854916001600160601b0360601b9060601b16916001600160401b0360c01b16171760185560125560135560018060a01b03195f5416175f55046001600160601b0360601b9060601b169160ff60c01b9060c01b1690600160601b600160c81b0319161717600555805f196003556129bb57005b6002905560016020527fc7f505b2f371ae2175ee4913f4499e1f2633a7b5936321eed1cdaeb6115181d2602080a1005b633cd146b160e01b5f5260045ffd5b506101f48a106128ac565b508915156128a6565b63a926954560e01b5f5260045ffd5b50612710871061288d565b634e487b7160e01b5f52601160045260245ffd5b630dc149f05f526004601cfd5b909e90600181811c14303b1015612a655760ff1b1b9d8f61283a565b63f92ee8a95f526004601cfd5b5f36600319011261226a5763389a75e1600c52335f526202a30042016020600c2055337fdbf36a107da19e49527a7176a1babf963b4b0ff8cde35ee35d6cd8f1f9ac7e1d5f80a2005b3461226a57602036600319011261226a576004356001600160401b03811161226a57612aeb903690600401612c3f565b905f5b828110612b2e57507f386974f41b61738b510019ccd5a3524a43eccf0d136929e09d524e87aeeca2c491612b29604051928392339184612dc2565b0390a1005b80612b426115df6115da6001948787612d8c565b5001612aee565b3461226a57602036600319011261226a5760043564ffffffffff811680910361226a575f52600660205260c060405f2060ff600182549201546040519260018060a01b038116845260a01c602084015264ffffffffff8116604084015264ffffffffff8160281c16606084015263ffffffff8160501c16608084015260701c16151560a0820152f35b3461226a57602036600319011261226a576004355f5260086020526102be60405f2054604051918164ffffffffff80859460281c1691168390929164ffffffffff60209181604085019616845216910152565b3461226a575f36600319011261226a57602090600d548152f35b9181601f8401121561226a578235916001600160401b03831161226a576020808501948460051b01011161226a57565b600435906001600160a01b038216820361226a57565b602435906001600160601b038216820361226a57565b600435906001600160601b038216820361226a57565b6004359063ffffffff8216820361226a57565b60443590811515820361226a57565b60643590811515820361226a57565b5f5b838110612cf35750505f910152565b8181015183820152602001612ce4565b60409160208252612d238151809281602086015260208686019101612ce2565b601f01601f1916010190565b606060031982011261226a576004356001600160401b03811161226a5781612d5991600401612c3f565b92909291602435906001600160401b03821161226a57612d7b91600401612c3f565b9091604435801515810361226a5790565b9190811015612d9c5760051b0190565b634e487b7160e01b5f52603260045260245ffd5b3564ffffffffff8116810361226a5790565b604080825281018390529293929160608301905f905b808210612df3575050602091509360018060a01b0316910152565b909183359064ffffffffff821680920361226a57908152602093840193019160010190612dd8565b906103e88202918083046103e81490151715612a2857565b81810292918115918404141715612a2857565b81156121a5570490565b906001600160601b03169081156121a5576001600160601b03160490565b9063ffffffff169081156121a55763ffffffff160690565b604d8111612a2857600a0a90565b64ffffffffff60019116019064ffffffffff8211612a2857565b64ffffffffff90911681526001600160a01b0390911660208201526001600160601b0391909116604082015263ffffffff90911660608201526001608082015260a00190565b929091601854915f936001600160601b038116936001600160601b0381168511156135ae5760601c6001600160601b03168410156135ae5763ffffffff612f428160175460a01c1688612e6e565b1661359f5763ffffffff861693841561359057612f9190610c79612f7c60018060a09b979b9a999a1b0360165416926107fc601454612e86565b6001600160601b0360115460301c1690612e46565b905f80965f96612f9f614957565b90996060965b6001600160601b03811680151580613555575b80613547575b156131da5781908d806131c3575b156131735760015490600454906001600160601b038260601c1660025495612ffd6001600160601b03881683613cf3565b926001600160601b0384161191821561316a57819788935b156130c75750505f80516020615a6e833981519152935090613048916002546001600160601b03611cb183828416613649565b9261306b61305682886158b6565b96611cec8160018060a01b035f541695613cf3565b0390a191935b829d5f146130aa575091611d78611d5e61308f936130959695613cf3565b96613669565b9661309e614957565b909a9198969091612fa5565b611deb63ffffffff91611db66105e79561309598979d9b95613cf3565b9092506001600160601b0319166002556001600160601b0382811960055416178060055560601c16906107d06001600160601b036131048461360d565b16938481029481860414901517021561315d57611ebc611e8e89935f80516020615a6e83398151915297613048966107d06001600160601b0360601b910460601b16906001600160601b0360601b19161760045561362b565b63ad251c275f526004601cfd5b83978893613015565b506131ba6001600160601b039263ffffffff60115460901c16670de0b6b3a76400006131a863ffffffff82611f16858c612e33565b045f52600760205260405f2090615134565b92169193613071565b506001600160601b0360045460601c161515612fcc565b5096915092995063ffffffff88929995979416801580159061353e575b613398575b5050505061337f575b506001600160601b0316918215613379575f80516020615a4e8339815191529360a09361335b6011549461325e61324264ffffffffff8816612e94565b9164ffffffffff8316809864ffffffffff191617601155613deb565b5083855260086020526132748160408720613ea7565b60405190613281826135bd565b338252602080830186815264ffffffffff9283166040808601828152606087018c8152608088018c815260a089018e81528f8f526006909752928d20975188546001600160a01b0319166001600160a01b0391909116178855935192969095919361331793909183918291600191613302906001600160601b031682613ee3565b019751161682198754161786555116846137dd565b518254915164ffffffffff60501b1990921660509190911b63ffffffff60501b161790151560701b60ff60701b1617905585526006602052604085206001016137dd565b604051938452336020850152604084015260608301526080820152a1565b50505050565b613389575f613205565b6306e6da4d60e01b8352600483fd5b90919294506133ce6133b3610c67601554936107fc85612e86565b670de0b6b3a76400006120096133c885612e86565b89612e33565b94806134aa575b505061343560209160125480613476575b506134198660018060a01b03601b54169261087660018060a01b03601754166108686001604051958693338c8601613751565b6040519485809481936337adb00f60e11b835260048301612d03565b03925af1801561346b5761344c575b8581806131fc565b6134649060203d60201161041b5761040e81836135ec565b505f613444565b6040513d88823e3d90fd5b6120c28161090661349461348d6134a1958c6153be565b809b613d20565b996107fc60135484613d20565b6019555f6133e6565b601b545f546017549495506001600160a01b039485169490811693911691670de0b6b3a7640000916134e091906107fc90612e86565b0490803b1561226a5761350d935f809460405196879586948593633609c92960e11b8552600485016136b0565b03925af1801561225f57613525575b908187926133d5565b61343596505f613534916135ec565b60205f965061351c565b508315156131f7565b5063ffffffff841415612fbe565b50670de0b6b3a76400008502858104670de0b6b3a764000003612a28576135889063ffffffff60115460901c1690612e46565b841015612fb8565b6348fa9b2b60e11b5f5260045ffd5b63272d3bf760e01b5f5260045ffd5b630a5c4f1f60e01b5f5260045ffd5b60c081019081106001600160401b038211176135d857604052565b634e487b7160e01b5f52604160045260245ffd5b90601f801991011681019081106001600160401b038211176135d857604052565b6001600160601b03166107d001906001600160601b038211612a2857565b6001600160601b03166103e801906001600160601b038211612a2857565b906001600160601b03809116911601906001600160601b038211612a2857565b6136ae909291926020604051948261368a8794518092858088019101612ce2565b830161369e82518093858085019101612ce2565b010103601f1981018452836135ec565b565b6001600160a01b03918216815291166020820152604081019190915260600190565b3d1561370b573d906001600160401b0382116135d85760405191613700601f8201601f1916602001846135ec565b82523d5f602084013e565b606090565b9081602091031261226a5751801515810361226a5790565b6001600160a01b0391821681529116602082015260408101919091526001606082015260800190565b6001600160a01b039182168152911660208201526040810191909152901515606082015260800190565b3563ffffffff8116810361226a5790565b356001600160601b038116810361226a5790565b9063ffffffff8091169116019063ffffffff8211612a2857565b906001600160601b03809116911602906001600160601b038216918203612a2857565b9064ffffffffff60281b82549160281b169064ffffffffff60281b1916179055565b64ffffffffff16805f52600660205260405f209060405161381f816135bd565b6001835493818060a01b0385168352602083019460a01c855201549264ffffffffff8416926040830190848252606084019064ffffffffff8760281c16825263ffffffff8760501c16608086019681885260ff60a088019960701c16151590818a5215155f14613c3d57505064ffffffffff8351165f5260066020528064ffffffffff600160405f20015460281c1603613be057865115613bf95763ffffffff8651165f52600760205264ffffffffff60405f205416818111159081613bef575b5015613be0575b84516001600160a01b03163303613bd15764ffffffffff83511680613baa575b5064ffffffffff82511680613b77575b50865115613a8057602094928694926139729263ffffffff613a0a9951165f526007885264ffffffffff60405f20541614613a40575b63ffffffff8651165f526007875264ffffffffff8060405f2093511691511691614d87565b601b549151601754915193516001600160a01b03918216949382169392909116915f916139ec916139b29163ffffffff16906001600160601b03166137ba565b63ffffffff6139e1816139d5601154946001600160601b038660301c1690612e50565b166107fc601554612e86565b9160901c1690612e46565b604051633af55cc760e11b8152968795869485939160048501613728565b03925af1801561225f57613a21575b505b51151590565b613a399060203d60201161041b5761040e81836135ec565b505f613a19565b63ffffffff8651165f526007875260405f20613a6564ffffffffff8351168092614aed565b5061394d57613a7a63ffffffff875116614bf2565b5061394d565b91613acd9163ffffffff876020979582613b0b9a51165f526008895264ffffffffff60405f20541614613b3f575b51165f526008865264ffffffffff8060405f2093511691511691614d87565b601b54905160165492516014546001600160a01b039283169493831693909216915f916139ec91612f7c916001600160601b0316906107fc90612e86565b03925af1801561225f57613b20575b50613a1b565b613b389060203d60201161041b5761040e81836135ec565b505f613b1a565b818151165f526008885260405f20613b6064ffffffffff8551168092614aed565b50613aae57613b7182825116614b2a565b50613aae565b64ffffffffff845116905f52600660205264ffffffffff600160405f2001911664ffffffffff198254161790555f613917565b613bcb9064ffffffffff845116905f526006602052600160405f20016137dd565b5f613907565b63a0cdd78160e01b5f5260045ffd5b63020a7dc960e61b5f5260045ffd5b905015155f6138e0565b63ffffffff8651165f52600860205264ffffffffff60405f205416818111159081613c33575b506138e75763020a7dc960e61b5f5260045ffd5b905015155f613c1f565b15613c74575063ffffffff8651165f5260076020528064ffffffffff60405f20541603156138e75763020a7dc960e61b5f5260045ffd5b5f5260086020528064ffffffffff60405f20541603156138e75763020a7dc960e61b5f5260045ffd5b601b54909291906001600160a01b0316803b1561226a57613cd8935f809460405196879586948593633609c92960e11b8552600485016136b0565b03925af1801561225f57613ce95750565b5f6136ae916135ec565b906001600160601b03809116911603906001600160601b038211612a2857565b91908201809211612a2857565b91908203918211612a2857565b8060081c9062ffffff8216805f52600c60205260405f205490600160ff84161b821790818303613d605750505050505f90565b5f52600c60205260405f205515613d79575b5050600190565b601081901c61ffff165f818152600b602052604090208054600160ff9095169490941b8417905591613d725760181c60ff9081165f818152600a6020526040902080546001949093169390931b821790925515613dd7575b80613d72565b60ff600191161b600954176009555f613dd1565b8060081c9062ffffff8216805f52601060205260405f205490600160ff84161b821790818303613e1e5750505050505f90565b5f52601060205260405f205515613e36575050600190565b601081901c61ffff165f818152600f602052604090208054600160ff9095169490941b8417905591613d725760181c60ff9081165f818152600e6020526040902080546001949093169390931b821790925515613e935780613d72565b60ff600191161b600d5417600d555f613dd1565b805460281c64ffffffffff169182613eda57815464ffffffffff191664ffffffffff8216178255613ed7916137dd565b90565b613ed7916137dd565b80546001600160a01b031660a09290921b6001600160a01b031916919091179055565b9260016136ae94613f9f64ffffffffff86818086604051613f26816135bd565b3381526001600160601b03602082019b168b526133026001600160601b0384604084019c169c8d8d528560608501985f8a5263ffffffff608087019d168d5260a086019d8e52165f52600660205260405f2093858060a01b0390868060a01b0390511616858060a01b0319855416178455511682613ee3565b518254915164ffffffffff60501b1990921660509190911b63ffffffff60501b161790151560701b60ff60701b161790555f9081526006602052604090206001016137dd565b5f8052600c602052613ffb5f60408120546153e0565b600181016140ee57505f8052600b60205261401a5f60408120546153e0565b600181016140d257505f8052600a6020526140395f60408120546153e0565b600181016140bb575061404e5f6009546153e0565b6001810161405b57505f90565b805f52600a60205260ff61407260405f2054615408565b169060081b17805f52600b60205260ff61408f60405f2054615408565b169060081b17805f52600c60205263ffffffff60ff6140b160405f2054615408565b169160081b161790565b805f52600b60205260ff61408f60405f2054615408565b805f52600c60205263ffffffff60ff6140b160405f2054615408565b63ffffffff1690565b8060081c9060ff811660ff8103614201575b5061ffff8160101c169160ff811660ff81036141ba575b505060ff9060181c1660ff821660ff8103614176575b5060ff91501660ff810361414a575b505f90565b614156906009546153e0565b600181011561414557805f52600a60205260ff61407260405f2054615408565b61418c90825f52600a60205260405f20546153e0565b916001830115614136579050610100600160f81b031617805f52600b60205260ff61408f60405f2054615408565b6141d090845f52600b60205260405f20546153e0565b9060018201156141205790925062ffff0091501617805f52600c60205263ffffffff60ff6140b160405f2054615408565b61421c9062ffffff84165f52600c60205260405f20546153e0565b60018101156141095763ffffffff1663ffffff0090911617919050565b5f8052601060205261424f5f60408120546153e0565b600181016140ee57505f8052600f60205261426e5f60408120546153e0565b6001810161431c57505f8052600e60205261428d5f60408120546153e0565b6001810161430557506142a25f600d546153e0565b600181016142af57505f90565b805f52600e60205260ff6142c660405f2054615408565b169060081b17805f52600f60205260ff6142e360405f2054615408565b169060081b17805f52601060205263ffffffff60ff6140b160405f2054615408565b805f52600f60205260ff6142e360405f2054615408565b805f52601060205263ffffffff60ff6140b160405f2054615408565b8060081c9060ff811660ff8103614441575b5061ffff8160101c169160ff811660ff81036143fa575b505060ff9060181c1660ff821660ff81036143b6575b5060ff91501660ff810361438a57505f90565b61439690600d546153e0565b600181011561414557805f52600e60205260ff6142c660405f2054615408565b6143cc90825f52600e60205260405f20546153e0565b916001830115614377579050610100600160f81b031617805f52600f60205260ff6142e360405f2054615408565b61441090845f52600f60205260405f20546153e0565b9060018201156143615790925062ffff0091501617805f52601060205263ffffffff60ff6140b160405f2054615408565b61445c9062ffffff84165f52601060205260405f20546153e0565b600181011561434a5763ffffffff1663ffffff0090911617919050565b638b78c6d81954330361448857565b6382b429005f526004601cfd5b612f7c613ed7916001600160601b036106e8601454612e86565b601c5f60649281946020966040519860605260405260601b602c526323b872dd60601b600c525af13d1560015f51141716156144ee575f606052604052565b637939f4245f526004601cfd5b5f80808060018060a01b03601b54166145148634613d20565b905af161451f6136d2565b501561453d575f80808093335af16145356136d2565b501561453d57565b63386bf62b60e11b5f5260045ffd5b610c67613ed79163ffffffff6106e8601554612e86565b5f80806060614570614a2b565b939093915b63ffffffff871696871515806148c4575b1561470857506001600160601b036145a760115498828a60301c16906137ba565b1696670de0b6b3a7640000880297808904670de0b6b3a76400001490151715612a28576145f063ffffffff6001600160601b039260901c16986145ea8a87612e33565b90612e46565b169185156146b1576117a99750614613614609846154c7565b9990809a95613cf3565b9561469a575b509061462491613669565b946001600160601b036146446011549363ffffffff8560901c1690612e33565b9260301c16670de0b6b3a7640000810290808204670de0b6b3a76400001490151715612a285763ffffffff926001600160601b0361468393169061537a565b169061468d614a2b565b9295909391929190614575565b6146a990614624939297613649565b959091614619565b6146136117a96146fe858b63ffffffff670de0b6b3a76400006146eb6001600160601b039f826146e285928f612e33565b0416938c612e33565b04165f52600860205260405f2090614dbb565b9a16809a95613cf3565b965092979693506001600160601b039150168061472757505050509190565b61473a601497949754916107fc83612e86565b6001600160601b036147548160115460301c168093612e46565b9816908161483e575b505050601254806147fd575b506147bf83926147a38860209461087660018060a01b03601b54169461086860018060a01b036016541691604051958693338c8601613751565b6040519586809481936337adb00f60e11b835260048301612d03565b03925af19081156147f157506147d457509190565b6147ec9060203d60201161041b5761040e81836135ec565b509190565b604051903d90823e3d90fd5b83926147a38860209461483061090b866148216108f26109069f996147bf9a6153be565b9d8e956107fc60135484613d20565b601a55945050509250614769565b601b545f546016546001600160a01b03908116959181169492169261486d92909161090691906107fc90612e86565b90803b1561226a57614899935f809460405196879586948593633609c92960e11b8552600485016136b0565b03925af1801561225f576148af575b808061475d565b6148bc9193505f906135ec565b5f915f6148a8565b50831515614586565b60018060a01b031680638b78c6d819545f80516020615a2e8339815191525f80a3801560ff1b17638b78c6d81955565b63ffffffff906001600160601b038060115460301c16928392169316928381029381850414901517021561315d57808204910615150163ffffffff8110156149485763ffffffff1690565b630b25243160e01b5f5260045ffd5b63ffffffff614964615791565b1663ffffffff810361498c57506001549081156149815760019190565b5f915063ffffffff90565b600154806149d05750670de0b6b3a7640000810290808204670de0b6b3a76400001490151715612a28576149cc9063ffffffff60115460901c1690612e46565b5f91565b9190670de0b6b3a7640000810290808204670de0b6b3a76400001490151715612a285763ffffffff60115460901c169083614a0b8383612e46565b818118818311021803614a23576149cc929350612e46565b505060019190565b63ffffffff614a38614239565b1680158015614a5c575050600354905f198214614a555760019190565b5f91508190565b60035460018101614a9c5750670de0b6b3a76400008202918204670de0b6b3a7640000141715612a28576149cc9063ffffffff60115460901c1690612e46565b929190670de0b6b3a76400008202918204670de0b6b3a7640000141715612a285763ffffffff60115460901c169083614ad58383612e46565b818118818310021803614a23576149cc929350612e46565b9064ffffffffff811615614b135764ffffffffff1664ffffffffff198254161790555f90565b50805469ffffffffffffffffffff19169055600190565b8060081c9062ffffff8216805f52601060205260405f205490600160ff84161b198216809203614b5c57505050505f90565b5f5260106020528060405f205515614b75575050600190565b61ffff8160101c1691825f52600f602052600160ff60405f205492161b1916825f52600f6020528060405f2055613d725760ff9060181c1690815f52600e602052600160ff60405f205492161b1916815f52600e6020528060405f205515614bdd5780613d72565b60ff600191161b19600d5416600d555f613dd1565b8060081c9062ffffff8216805f52600c60205260405f205490600160ff84161b198216809203614c2457505050505f90565b5f52600c6020528060405f205515614c3d575050600190565b61ffff8160101c1691825f52600b602052600160ff60405f205492161b1916825f52600b6020528060405f2055613d725760ff9060181c1690815f52600a602052600160ff60405f205492161b1916815f52600a6020528060405f205515614ca55780613d72565b60ff600191161b19600954166009555f613dd1565b908060081c9062ffffff821660038401815f528060205260405f205491600160ff85161b198316809303614cf2575050505050505f90565b5f526020528060405f205515614d0b575b505050600190565b61ffff8160101c16916002840190835f5281602052600160ff60405f205492161b191690835f526020528060405f2055614d035760181c60ff9081165f818152600185810160205260409091208054949093161b199092169081905515614d73575b80614d03565b60ff600191161b1981541690555f80614d6d565b9164ffffffffff9081831615614dab575b1615614da2575050565b6136ae916137dd565b8181168219855416178455614d98565b90919260609064ffffffffff8454165b6001600160601b03861680151580615124575b156150f75764ffffffffff821691825f52600660205264ffffffffff600160405f20015460281c1690835f52600660205260405f205460a01c8093115f146150f057614e2a838a613cf3565b985b5f916001600160601b038b161594856150dc575b505f86815260066020526040902060018101549054614f139160701c60ff1615906001600160a01b031687156150c65784915b895f52600660205263ffffffff600160405f20015460501c1691815f146150b4576017546001600160a01b0316935b821561508e57614eb284826159fa565b935b606093156150685750612710614ef1614ee8612f7c60018060a01b0360165416946001600160601b036106e8601454612e86565b60135490612e33565b04905b81615042575b5050610868610876929360405195869360208501613728565b94801561501b575b614fe8575b505f858152600660205260409020805460019190910154670de0b6b3a7640000605082901c63ffffffff16818102989360709390931c60ff1615926001600160a01b0316918115918a04141715612a28576001600160601b035f80516020615a6e8339815191529560e0958f94614fb18496614fab614fe19e63ffffffff60115460901c1690612e46565b93613cf3565b946040519788526020880152604087015260608601521660808401523260a08401521660c0820152a19693613669565b9194614dcb565b6001600160601b038316615013575b50845f52600660205261500d8260405f20613ee3565b5f614f20565b92505f614ff7565b5083158015614f1b5750855f52600660205264ffffffffff600160405f2001541615614f1b565b61087693509061506261086892611a266040519384928760208501613728565b92614efa565b6017546001600160a01b0316916127109161508791614ee891906159fa565b0490614ef4565b6150ae612f7c61509f601454612e86565b6001600160601b038416612e33565b93614eb4565b6016546001600160a01b031693614ea2565b885f52600660205260405f205460a01c91614e73565b6150e99193508290613cf3565b915f614e40565b5f98614e2c565b5061510d8164ffffffffff939697959497614aed565b50161561511957509190565b6147ec90600d614cba565b5064ffffffffff82161515614dde565b90919260609064ffffffffff8454165b6001600160601b0386168015158061536a575b1561533d5764ffffffffff821691825f52600660205264ffffffffff600160405f20015460281c1690835f52600660205260405f205460a01c8093115f14615336576151a3838a613cf3565b985b5f916001600160601b038b16159485615322575b505f868152600660205260409020600181015490546152299160701c60ff1615906001600160a01b031687156150c6578491895f52600660205263ffffffff600160405f20015460501c1691815f146150b4576017546001600160a01b031693821561508e57614eb284826159fa565b9480156152fb575b6152c8575b505f858152600660205260409020805460019190910154670de0b6b3a7640000605082901c63ffffffff16818102989360709390931c60ff1615926001600160a01b0316918115918a04141715612a28576001600160601b035f80516020615a6e8339815191529560e0958f94614fb18496614fab6152c19e63ffffffff60115460901c1690612e46565b9194615144565b6001600160601b0383166152f3575b50845f5260066020526152ed8260405f20613ee3565b5f615236565b92505f6152d7565b50831580156152315750855f52600660205264ffffffffff600160405f2001541615615231565b61532f9193508290613cf3565b915f6151b9565b5f986151a5565b506153538164ffffffffff939697959497614aed565b50161561535f57509190565b6147ec906009614cba565b5064ffffffffff82161515615157565b818102918115918304141782021561315d570490565b8181029181159183041417670de0b6b3a7640000021561315d57670de0b6b3a7640000808204910615150190565b8181029181159183041417612710021561315d57612710808204910615150190565b600190910160ff1690811c90816153f85750505f1990565b61540360ff92615408565b011690565b5f908060801b806154bb575b508060401b806154ae575b508060201b806154a1575b508060101b80615494575b508060081b80615487575b508060041b8061547a575b508060021b8061546d575b5060011b615465575b60ff0390565b60010161545f565b600291509101905f615456565b600491509101905f61544b565b600891509101905f615440565b601091509101905f615435565b602091509101905f61542a565b604091509101905f61541f565b9150506080905f615414565b90600354906005546001600160601b03811690600454946154f16001600160601b03871684613cf3565b926001600160601b0384166001600160601b0383161092835f1461578857829788945b1561567e57505050916001600160601b0361555860e0935f80516020615a6e833981519152956004548461554a83828416613649565b169085191617600455613cf3565b6017549097908290615609906001600160a01b0316670de0b6b3a76400006155a16155966155888688168e612e33565b8660115460301c1690612e46565b6107fc601554612e86565b0460609060018060a01b03601654166127106155dd614ee86155cf6155c7601454612e86565b8a8c16612e33565b8960115460301c1690612e46565b048061564c575b50505f546040519361087692859261086892906001600160a01b031660208501613728565b9761561e8360018060a01b035f541696613cf3565b90604051955f875260208701526001604087015260608601521660808401523260a08401521660c0820152a1565b5f546040519394506108769392615676928492611a2692906001600160a01b031660208501613728565b91905f6155e4565b90919293506001600160601b0360601b8260601b16906001600160401b0360c01b16176004556001600160601b036156ba818360601c1661360d565b16806107d08402936107d081860414901517021561315d5782816001600160601b03949285930491061515011690821916178060055560601c16916157106001600160601b036157098561362b565b1686612e33565b6101f48101809111612a28576103e890046003556002546001600160601b0361573b8183169561362b565b1693846103e88202916103e881840414901517021561315d578760e0946001600160601b0393845f80516020615a6e83398151915298615558950416908519161760025588600155613cf3565b84978894615514565b62ffffff5f52600c6020526157ab60ff60405f2054615918565b600181016158a7575061ffff5f52600b6020526157cd60ff60405f2054615918565b60018101615886575060ff5f52600a6020526157ee60ff60405f2054615918565b6001810161586b575061580460ff600954615918565b60018101615815575063ffffffff90565b805f52600a60205260ff61582c60405f2054615944565b169060081b17805f52600b60205260ff61584960405f2054615944565b169060081b17805f52600c60205263ffffffff60ff6140b160405f2054615944565b61ff0017805f52600b60205260ff61584960405f2054615944565b62ffff0017805f52600c60205263ffffffff60ff6140b160405f2054615944565b63ffffff001763ffffffff1690565b613ed79160018060a01b0360165416916158d7612f7c61509f601454612e86565b906127106155dd670de0b6b3a764000061590e615596612f7c6060986001600160601b0360018060a01b0360175416981690612e33565b0460135490612e33565b5f1990910160ff90811681031690811b806159345750505f1990565b61593f60ff91615944565b160390565b5f91906001600160801b0381116159ef575b806001600160401b03600192116159e3575b63ffffffff81116159d7575b61ffff81116159cb575b60ff81116159bf575b600f81116159b3575b600381116159a7575b116159a057565b9060010190565b6002938401931c615999565b6004938401931c615990565b6008938401931c615987565b6010938401931c61597e565b6020938401931c615974565b6040938401931c615968565b60809250821c615956565b6139b29063ffffffff613ed793166137ba56fe360894a13ba1a3210667c828492db98dca3e2076cc3735a920a3ca505d382bbc8be0079c531659141344cd1fd0a4f28419497f9722a3daafe3b4186f6b6457e0b81bbaf150467ef3096ed6220cb963abc169bffd2eb88f26c47359ef344cf94c06029dfae141718336c21b1bb8cd746dc87a38baa63c413c40fa24b807b7cc05a26469706673582212206f5b6291633933ea65f93e04a1737e7f9ea00b3c1fc8aefbae01ef827313d88c64736f6c634300081a0033",
  "linkReferences": {},
  "deployedLinkReferences": {}
}