{
  "_format": "hh-sol-artifact-1",
  "contractName": "OrderBook",
  "sourceName": "contracts/OrderBook.sol",
  "abi": [
    {
      "inputs": [],
      "stateMutability": "nonpayable",
      "type": "constructor"
    },
    {
      "anonymous": false,
      "inputs": [
        {
          "indexed": false,
          "internalType": "address",
          "name": "previousAdmin",
          "type": "address"
        },
        {
          "indexed": false,
          "internalType": "address",
          "name": "newAdmin",
          "type": "address"
        }
      ],
      "name": "AdminChanged",
      "type": "event"
    },
    {
      "anonymous": false,
      "inputs": [
        {
          "indexed": true,
          "internalType": "address",
          "name": "beacon",
          "type": "address"
        }
      ],
      "name": "BeaconUpgraded",
      "type": "event"
    },
    {
      "anonymous": false,
      "inputs": [
        {
          "indexed": false,
          "internalType": "uint8",
          "name": "version",
          "type": "uint8"
        }
      ],
      "name": "Initialized",
      "type": "event"
    },
    {
      "anonymous": false,
      "inputs": [
        {
          "indexed": false,
          "internalType": "uint40",
          "name": "orderId",
          "type": "uint40"
        },
        {
          "indexed": false,
          "internalType": "address",
          "name": "owner",
          "type": "address"
        },
        {
          "indexed": false,
          "internalType": "uint96",
          "name": "size",
          "type": "uint96"
        },
        {
          "indexed": false,
          "internalType": "uint24",
          "name": "price",
          "type": "uint24"
        },
        {
          "indexed": false,
          "internalType": "bool",
          "name": "isBuy",
          "type": "bool"
        }
      ],
      "name": "OrderCreated",
      "type": "event"
    },
    {
      "anonymous": false,
      "inputs": [
        {
          "indexed": false,
          "internalType": "uint40[]",
          "name": "orderId",
          "type": "uint40[]"
        }
      ],
      "name": "OrdersCanceled",
      "type": "event"
    },
    {
      "anonymous": false,
      "inputs": [
        {
          "indexed": false,
          "internalType": "uint40[]",
          "name": "orderIds",
          "type": "uint40[]"
        },
        {
          "indexed": false,
          "internalType": "uint96[]",
          "name": "updatedSizes",
          "type": "uint96[]"
        }
      ],
      "name": "OrdersUpdated",
      "type": "event"
    },
    {
      "anonymous": false,
      "inputs": [
        {
          "indexed": true,
          "internalType": "address",
          "name": "previousOwner",
          "type": "address"
        },
        {
          "indexed": true,
          "internalType": "address",
          "name": "newOwner",
          "type": "address"
        }
      ],
      "name": "OwnershipTransferred",
      "type": "event"
    },
    {
      "anonymous": false,
      "inputs": [
        {
          "indexed": false,
          "internalType": "uint40",
          "name": "orderId",
          "type": "uint40"
        },
        {
          "indexed": false,
          "internalType": "uint96",
          "name": "updatedSize",
          "type": "uint96"
        },
        {
          "indexed": false,
          "internalType": "address",
          "name": "takerAddress",
          "type": "address"
        },
        {
          "indexed": false,
          "internalType": "uint96",
          "name": "filledSize",
          "type": "uint96"
        }
      ],
      "name": "Trade",
      "type": "event"
    },
    {
      "anonymous": false,
      "inputs": [
        {
          "indexed": true,
          "internalType": "address",
          "name": "implementation",
          "type": "address"
        }
      ],
      "name": "Upgraded",
      "type": "event"
    },
    {
      "inputs": [
        {
          "internalType": "uint24",
          "name": "_price",
          "type": "uint24"
        },
        {
          "internalType": "uint96",
          "name": "size",
          "type": "uint96"
        },
        {
          "internalType": "bool",
          "name": "_postOnly",
          "type": "bool"
        }
      ],
      "name": "addBuyOrder",
      "outputs": [],
      "stateMutability": "nonpayable",
      "type": "function"
    },
    {
      "inputs": [
        {
          "internalType": "uint24",
          "name": "_price",
          "type": "uint24"
        },
        {
          "internalType": "uint96",
          "name": "size",
          "type": "uint96"
        },
        {
          "internalType": "bool",
          "name": "_postOnly",
          "type": "bool"
        }
      ],
      "name": "addSellOrder",
      "outputs": [],
      "stateMutability": "nonpayable",
      "type": "function"
    },
    {
      "inputs": [
        {
          "internalType": "uint40[]",
          "name": "_orderIds",
          "type": "uint40[]"
        }
      ],
      "name": "batchCancelOrders",
      "outputs": [],
      "stateMutability": "nonpayable",
      "type": "function"
    },
    {
      "inputs": [
        {
          "internalType": "uint40[]",
          "name": "_orderIds",
          "type": "uint40[]"
        },
        {
          "internalType": "uint96[]",
          "name": "_updatedSizes",
          "type": "uint96[]"
        },
        {
          "internalType": "bool",
          "name": "_useMargin",
          "type": "bool"
        }
      ],
      "name": "decreaseOrders",
      "outputs": [],
      "stateMutability": "nonpayable",
      "type": "function"
    },
    {
      "inputs": [
        {
          "internalType": "address",
          "name": "_maker",
          "type": "address"
        }
      ],
      "name": "getActiveBuysForAddress",
      "outputs": [
        {
          "internalType": "bytes",
          "name": "",
          "type": "bytes"
        }
      ],
      "stateMutability": "view",
      "type": "function"
    },
    {
      "inputs": [
        {
          "internalType": "address",
          "name": "_maker",
          "type": "address"
        }
      ],
      "name": "getActiveOrdersForAddress",
      "outputs": [
        {
          "internalType": "bytes",
          "name": "",
          "type": "bytes"
        }
      ],
      "stateMutability": "view",
      "type": "function"
    },
    {
      "inputs": [
        {
          "internalType": "address",
          "name": "_maker",
          "type": "address"
        }
      ],
      "name": "getActiveSellsForAddress",
      "outputs": [
        {
          "internalType": "bytes",
          "name": "",
          "type": "bytes"
        }
      ],
      "stateMutability": "view",
      "type": "function"
    },
    {
      "inputs": [],
      "name": "getBaseAssetDecimals",
      "outputs": [
        {
          "internalType": "uint256",
          "name": "",
          "type": "uint256"
        }
      ],
      "stateMutability": "view",
      "type": "function"
    },
    {
      "inputs": [],
      "name": "getL2Book",
      "outputs": [
        {
          "internalType": "bytes",
          "name": "",
          "type": "bytes"
        }
      ],
      "stateMutability": "view",
      "type": "function"
    },
    {
      "inputs": [],
      "name": "getMarketParams",
      "outputs": [
        {
          "internalType": "uint24",
          "name": "",
          "type": "uint24"
        },
        {
          "internalType": "uint96",
          "name": "",
          "type": "uint96"
        },
        {
          "internalType": "address",
          "name": "",
          "type": "address"
        },
        {
          "internalType": "uint256",
          "name": "",
          "type": "uint256"
        },
        {
          "internalType": "address",
          "name": "",
          "type": "address"
        },
        {
          "internalType": "uint256",
          "name": "",
          "type": "uint256"
        }
      ],
      "stateMutability": "view",
      "type": "function"
    },
    {
      "inputs": [],
      "name": "getPricePrecision",
      "outputs": [
        {
          "internalType": "uint24",
          "name": "",
          "type": "uint24"
        }
      ],
      "stateMutability": "view",
      "type": "function"
    },
    {
      "inputs": [],
      "name": "getQuoteAssetDecimals",
      "outputs": [
        {
          "internalType": "uint256",
          "name": "",
          "type": "uint256"
        }
      ],
      "stateMutability": "view",
      "type": "function"
    },
    {
      "inputs": [],
      "name": "getSizePrecision",
      "outputs": [
        {
          "internalType": "uint96",
          "name": "",
          "type": "uint96"
        }
      ],
      "stateMutability": "view",
      "type": "function"
    },
    {
      "inputs": [
        {
          "internalType": "address",
          "name": "_owner",
          "type": "address"
        },
        {
          "internalType": "address",
          "name": "_baseAssetAddress",
          "type": "address"
        },
        {
          "internalType": "uint256",
          "name": "_baseAssetDecimals",
          "type": "uint256"
        },
        {
          "internalType": "address",
          "name": "_quoteAssetAddress",
          "type": "address"
        },
        {
          "internalType": "uint256",
          "name": "_quoteAssetDecimals",
          "type": "uint256"
        },
        {
          "internalType": "address",
          "name": "_marginAccountAddress",
          "type": "address"
        },
        {
          "internalType": "uint96",
          "name": "_sizePrecision",
          "type": "uint96"
        },
        {
          "internalType": "uint24",
          "name": "_pricePrecision",
          "type": "uint24"
        },
        {
          "internalType": "uint96",
          "name": "_tickSize",
          "type": "uint96"
        },
        {
          "internalType": "uint96",
          "name": "_minSize",
          "type": "uint96"
        },
        {
          "internalType": "uint96",
          "name": "_maxSize",
          "type": "uint96"
        },
        {
          "internalType": "uint256",
          "name": "_takerFeeBps",
          "type": "uint256"
        }
      ],
      "name": "initialize",
      "outputs": [],
      "stateMutability": "nonpayable",
      "type": "function"
    },
    {
      "inputs": [],
      "name": "owner",
      "outputs": [
        {
          "internalType": "address",
          "name": "",
          "type": "address"
        }
      ],
      "stateMutability": "view",
      "type": "function"
    },
    {
      "inputs": [],
      "name": "pauseMarkets",
      "outputs": [],
      "stateMutability": "nonpayable",
      "type": "function"
    },
    {
      "inputs": [
        {
          "internalType": "uint24",
          "name": "_quoteSize",
          "type": "uint24"
        },
        {
          "internalType": "bool",
          "name": "_isFillOrKill",
          "type": "bool"
        }
      ],
      "name": "placeAndExecuteMarketBuy",
      "outputs": [
        {
          "internalType": "uint256",
          "name": "",
          "type": "uint256"
        }
      ],
      "stateMutability": "nonpayable",
      "type": "function"
    },
    {
      "inputs": [
        {
          "internalType": "uint96",
          "name": "_size",
          "type": "uint96"
        },
        {
          "internalType": "bool",
          "name": "_isFillOrKill",
          "type": "bool"
        }
      ],
      "name": "placeAndExecuteMarketSell",
      "outputs": [
        {
          "internalType": "uint256",
          "name": "",
          "type": "uint256"
        }
      ],
      "stateMutability": "nonpayable",
      "type": "function"
    },
    {
      "inputs": [
        {
          "internalType": "uint24[]",
          "name": "_prices",
          "type": "uint24[]"
        },
        {
          "internalType": "uint96[]",
          "name": "_sizes",
          "type": "uint96[]"
        },
        {
          "internalType": "bool",
          "name": "_postOnly",
          "type": "bool"
        }
      ],
      "name": "placeMultipleBuyOrders",
      "outputs": [],
      "stateMutability": "nonpayable",
      "type": "function"
    },
    {
      "inputs": [
        {
          "internalType": "uint24[]",
          "name": "_prices",
          "type": "uint24[]"
        },
        {
          "internalType": "uint96[]",
          "name": "_sizes",
          "type": "uint96[]"
        },
        {
          "internalType": "bool",
          "name": "_postOnly",
          "type": "bool"
        }
      ],
      "name": "placeMultipleSellOrders",
      "outputs": [],
      "stateMutability": "nonpayable",
      "type": "function"
    },
    {
      "inputs": [],
      "name": "proxiableUUID",
      "outputs": [
        {
          "internalType": "bytes32",
          "name": "",
          "type": "bytes32"
        }
      ],
      "stateMutability": "view",
      "type": "function"
    },
    {
      "inputs": [],
      "name": "renounceOwnership",
      "outputs": [],
      "stateMutability": "nonpayable",
      "type": "function"
    },
    {
      "inputs": [
        {
          "internalType": "uint256",
          "name": "",
          "type": "uint256"
        }
      ],
      "name": "s_buyPricePoints",
      "outputs": [
        {
          "internalType": "uint40",
          "name": "head",
          "type": "uint40"
        },
        {
          "internalType": "uint40",
          "name": "tail",
          "type": "uint40"
        }
      ],
      "stateMutability": "view",
      "type": "function"
    },
    {
      "inputs": [],
      "name": "s_buyTree",
      "outputs": [
        {
          "internalType": "bytes32",
          "name": "level0",
          "type": "bytes32"
        }
      ],
      "stateMutability": "view",
      "type": "function"
    },
    {
      "inputs": [],
      "name": "s_orderIdCounter",
      "outputs": [
        {
          "internalType": "uint40",
          "name": "",
          "type": "uint40"
        }
      ],
      "stateMutability": "view",
      "type": "function"
    },
    {
      "inputs": [
        {
          "internalType": "uint40",
          "name": "",
          "type": "uint40"
        }
      ],
      "name": "s_orders",
      "outputs": [
        {
          "internalType": "address",
          "name": "ownerAddress",
          "type": "address"
        },
        {
          "internalType": "uint96",
          "name": "size",
          "type": "uint96"
        },
        {
          "internalType": "uint40",
          "name": "prev",
          "type": "uint40"
        },
        {
          "internalType": "uint40",
          "name": "next",
          "type": "uint40"
        },
        {
          "internalType": "uint24",
          "name": "price",
          "type": "uint24"
        },
        {
          "internalType": "bool",
          "name": "isBuy",
          "type": "bool"
        }
      ],
      "stateMutability": "view",
      "type": "function"
    },
    {
      "inputs": [
        {
          "internalType": "uint256",
          "name": "",
          "type": "uint256"
        }
      ],
      "name": "s_sellPricePoints",
      "outputs": [
        {
          "internalType": "uint40",
          "name": "head",
          "type": "uint40"
        },
        {
          "internalType": "uint40",
          "name": "tail",
          "type": "uint40"
        }
      ],
      "stateMutability": "view",
      "type": "function"
    },
    {
      "inputs": [],
      "name": "s_sellTree",
      "outputs": [
        {
          "internalType": "bytes32",
          "name": "level0",
          "type": "bytes32"
        }
      ],
      "stateMutability": "view",
      "type": "function"
    },
    {
      "inputs": [
        {
          "internalType": "address",
          "name": "newOwner",
          "type": "address"
        }
      ],
      "name": "transferOwnership",
      "outputs": [],
      "stateMutability": "nonpayable",
      "type": "function"
    },
    {
      "inputs": [
        {
          "internalType": "address",
          "name": "newImplementation",
          "type": "address"
        }
      ],
      "name": "upgradeTo",
      "outputs": [],
      "stateMutability": "nonpayable",
      "type": "function"
    },
    {
      "inputs": [
        {
          "internalType": "address",
          "name": "newImplementation",
          "type": "address"
        },
        {
          "internalType": "bytes",
          "name": "data",
          "type": "bytes"
        }
      ],
      "name": "upgradeToAndCall",
      "outputs": [],
      "stateMutability": "payable",
      "type": "function"
    }
  ],
  "bytecode": "0x60a0604052306080523480156200001557600080fd5b506200002062000026565b620000e7565b600054610100900460ff1615620000935760405162461bcd60e51b815260206004820152602760248201527f496e697469616c697a61626c653a20636f6e747261637420697320696e697469604482015266616c697a696e6760c81b606482015260840160405180910390fd5b60005460ff90811614620000e5576000805460ff191660ff9081179091556040519081527f7f26b83ff96e1f2b6a682f133852f6798a09c465da95921460cefb38474024989060200160405180910390a15b565b6080516153876200011f60003960008181610a6001528181610ae501528181610ea901528181610f2e015261101801526153876000f3fe6080604052600436106101d85760003560e01c8063715018a611610102578063badc92d111610095578063d2cd7d7f11610064578063d2cd7d7f1461067d578063e6d29b511461069d578063f151479c146106dc578063f2fde38b146106fc57600080fd5b8063badc92d114610606578063bb62b3c51461061d578063cae22ee61461063d578063cc57aec61461065d57600080fd5b80638da5cb5b116100d15780638da5cb5b1461053857806390c9427c14610560578063962f7f91146105d15780639cb1e4ab146105e657600080fd5b8063715018a6146104ce5780637b6966cb146104e35780637ef5e944146104f85780638bc75f841461051857600080fd5b80632aa9fbdc1161017a5780634f1ef286116101495780634f1ef2861461046657806352d1902d146104795780635b16c9b61461048e57806369b62b38146104ae57600080fd5b80632aa9fbdc146103d05780632bf1360e146103f05780633659cfe61461042457806346fdfbb11461044457600080fd5b80630e2e2ffe116101b65780630e2e2ffe1461026f5780631c0d9c22146102cc5780631c4f3f311461039957806323afbff3146103b057600080fd5b806302b90c65146101dd57806308c8120e1461020757806308ea5bee1461023f575b600080fd5b3480156101e957600080fd5b5060cf546101f49081565b6040519081526020015b60405180910390f35b34801561021357600080fd5b5060d254600160301b90046001600160601b03166040516001600160601b0390911681526020016101fe565b34801561024b57600080fd5b5060d254600160901b900462ffffff1660405162ffffff90911681526020016101fe565b34801561027b57600080fd5b506102ae61028a366004614ac1565b60cb6020526000908152604090205464ffffffffff80821691600160281b90041682565b6040805164ffffffffff9384168152929091166020830152016101fe565b3480156102d857600080fd5b506103486102e7366004614aef565b60c960205260009081526040902080546001909101546001600160a01b03821691600160a01b90046001600160601b03169064ffffffffff80821691600160281b810490911690600160501b810462ffffff1690600160681b900460ff1686565b604080516001600160a01b0390971687526001600160601b03909516602087015264ffffffffff938416948601949094529116606084015262ffffff166080830152151560a082015260c0016101fe565b3480156103a557600080fd5b506103ae61071c565b005b3480156103bc57600080fd5b506103ae6103cb366004614b4f565b61073b565b3480156103dc57600080fd5b506101f46103eb366004614bb2565b6107c6565b3480156103fc57600080fd5b5060d25461040e9064ffffffffff1681565b60405164ffffffffff90911681526020016101fe565b34801561043057600080fd5b506103ae61043f366004614c00565b610a56565b34801561045057600080fd5b50610459610bd1565b6040516101fe9190614c6b565b6103ae610474366004614c94565b610e9f565b34801561048557600080fd5b506101f461100b565b34801561049a57600080fd5b506103ae6104a9366004614d6d565b6110d0565b3480156104ba57600080fd5b506104596104c9366004614c00565b61143a565b3480156104da57600080fd5b506103ae611580565b3480156104ef57600080fd5b5060da546101f4565b34801561050457600080fd5b50610459610513366004614c00565b611594565b34801561052457600080fd5b506103ae610533366004614db4565b6117e8565b34801561054457600080fd5b506033546040516001600160a01b0390911681526020016101fe565b34801561056c57600080fd5b5060d25460d65460d95460d75460da5460408051600160901b870462ffffff168152600160301b9096046001600160601b031660208701526001600160a01b0394851690860152606085019290925291909116608083015260a082015260c0016101fe565b3480156105dd57600080fd5b5060d9546101f4565b3480156105f257600080fd5b506103ae610601366004614e7b565b611a3b565b34801561061257600080fd5b5060cc546101f49081565b34801561062957600080fd5b506103ae610638366004614e7b565b611b4e565b34801561064957600080fd5b506101f4610658366004614eff565b611c99565b34801561066957600080fd5b506103ae610678366004614d6d565b611e9f565b34801561068957600080fd5b506103ae610698366004614e7b565b61222d565b3480156106a957600080fd5b506102ae6106b8366004614ac1565b60ca6020526000908152604090205464ffffffffff80821691600160281b90041682565b3480156106e857600080fd5b506104596106f7366004614c00565b612370565b34801561070857600080fd5b506103ae610717366004614c00565b6124af565b61072461253c565b60d2805465ff00000000001916600160281b179055565b60005b818110156107885761077583838381811061075b5761075b614f1b565b90506020020160208101906107709190614aef565b612596565b508061078081614f47565b91505061073e565b507fff827a141969be714c9574985077e0a90f4a3b4cc9bd4219c7beedbc1fdfc41b82826040516107ba929190614fa5565b60405180910390a15050565b60d254600090600160281b900460ff16156108285760405162461bcd60e51b815260206004820152601b60248201527f4f72646572426f6f6b3a206d61726b657420697320706175736564000000000060448201526064015b60405180910390fd5b60d75460d85460d25460da546000936001600160a01b03908116936323b872dd933393919092169162ffffff600160901b909104169061086990600a61509d565b6108789062ffffff8b166150a9565b61088291906150d6565b6040516001600160e01b031960e086901b1681526001600160a01b03938416600482015292909116602483015260448201526064016020604051808303816000875af11580156108d6573d6000803e3d6000fd5b505050506040513d601f19601f820116820180604052508101906108fa91906150ea565b5061090a62ffffff856000612aad565b909450905062ffffff841615610a4d5782156109775760405162461bcd60e51b815260206004820152602660248201527f4f72646572426f6f6b3a20696e73756666696369656e7420766f6c756d65206f6044820152656e20626f6f6b60d01b606482015260840161081f565b60d85460d75460d25460da546001600160a01b03938416936375eab98e933393911691600160901b90910462ffffff16906109b390600a61509d565b6109c29062ffffff8b166150a9565b6109cc91906150d6565b6040516001600160e01b031960e086901b1681526001600160a01b0393841660048201529290911660248301526044820152600060648201526084016020604051808303816000875af1158015610a27573d6000803e3d6000fd5b505050506040513d601f19601f82011682018060405250810190610a4b91906150ea565b505b90505b92915050565b6001600160a01b037f0000000000000000000000000000000000000000000000000000000000000000163003610ae35760405162461bcd60e51b815260206004820152602c60248201527f46756e6374696f6e206d7573742062652063616c6c6564207468726f7567682060448201526b19195b1959d85d1958d85b1b60a21b606482015260840161081f565b7f00000000000000000000000000000000000000000000000000000000000000006001600160a01b0316610b3e7f360894a13ba1a3210667c828492db98dca3e2076cc3735a920a3ca505d382bbc546001600160a01b031690565b6001600160a01b031614610ba95760405162461bcd60e51b815260206004820152602c60248201527f46756e6374696f6e206d7573742062652063616c6c6564207468726f7567682060448201526b6163746976652070726f787960a01b606482015260840161081f565b610bb281612db0565b60408051600080825260208201909252610bce91839190612db8565b50565b6060600043604051602001610be891815260200190565b60405160208183030381529060405290506000610c0760cc6000612f58565b90505b62ffffff818116141580610c21575062ffffff8116155b15610d2e5762ffffff8116600090815260ca602052604081205464ffffffffff16905b64ffffffffff821615610caf5764ffffffffff8216600090815260c96020526040902054610c8290600160a01b90046001600160601b031682615107565b64ffffffffff928316600090815260c96020526040902060010154600160281b9004909216919050610c44565b6040805162ffffff851660208201526001600160601b0383168183015281518082038301815260608201909252610cea918691608001615127565b60408051601f198184030181529190529350610d1160cc610d0c856001615156565b612f58565b92508262ffffff16600003610d27575050610d2e565b5050610c0a565b604080516000602082015283910160408051601f1981840301815290829052610d5a9291602001615127565b6040516020818303038152906040529150610d7760cf6000612f58565b90505b62ffffff818116141580610d91575062ffffff8116155b15610e995762ffffff8116600090815260cb602052604081205464ffffffffff16905b64ffffffffff821615610e1f5764ffffffffff8216600090815260c96020526040902054610df290600160a01b90046001600160601b031682615107565b64ffffffffff928316600090815260c96020526040902060010154600160281b9004909216919050610db4565b6040805162ffffff851660208201526001600160601b0383168183015281518082038301815260608201909252610e5a918691608001615127565b60408051601f198184030181529190529350610e7c60cf610d0c856001615156565b92508262ffffff16600003610e92575050610e99565b5050610d7a565b50919050565b6001600160a01b037f0000000000000000000000000000000000000000000000000000000000000000163003610f2c5760405162461bcd60e51b815260206004820152602c60248201527f46756e6374696f6e206d7573742062652063616c6c6564207468726f7567682060448201526b19195b1959d85d1958d85b1b60a21b606482015260840161081f565b7f00000000000000000000000000000000000000000000000000000000000000006001600160a01b0316610f877f360894a13ba1a3210667c828492db98dca3e2076cc3735a920a3ca505d382bbc546001600160a01b031690565b6001600160a01b031614610ff25760405162461bcd60e51b815260206004820152602c60248201527f46756e6374696f6e206d7573742062652063616c6c6564207468726f7567682060448201526b6163746976652070726f787960a01b606482015260840161081f565b610ffb82612db0565b61100782826001612db8565b5050565b6000306001600160a01b037f000000000000000000000000000000000000000000000000000000000000000016146110ab5760405162461bcd60e51b815260206004820152603860248201527f555550535570677261646561626c653a206d757374206e6f742062652063616c60448201527f6c6564207468726f7567682064656c656761746563616c6c0000000000000000606482015260840161081f565b507f360894a13ba1a3210667c828492db98dca3e2076cc3735a920a3ca505d382bbc90565b60d254600160281b900460ff161561112a5760405162461bcd60e51b815260206004820152601b60248201527f4f72646572426f6f6b3a206d61726b6574206973207061757365640000000000604482015260640161081f565b60d3546001600160601b03600160601b90910481169083161161118f5760405162461bcd60e51b815260206004820152601760248201527f4f72646572426f6f6b3a2053697a6520746f6f206c6f77000000000000000000604482015260640161081f565b60d4546001600160601b03908116908316106111ed5760405162461bcd60e51b815260206004820152601960248201527f4f72646572426f6f6b3a2053697a6520746f6f206c6172676500000000000000604482015260640161081f565b60d354611208906001600160601b031662ffffff8516615172565b6001600160601b03161561125e5760405162461bcd60e51b815260206004820152601460248201527f4f72646572426f6f6b3a205469636b2053697a65000000000000000000000000604482015260640161081f565b60d65460d25460d9546000926112ba926001600160a01b0390911691600160301b9091046001600160601b03169061129790600a61509d565b6112aa906001600160601b0388166150a9565b6112b491906150d6565b336130a4565b6112c684846001613142565b9093509050811561132f576000811161132f5760405162461bcd60e51b815260206004820152602560248201527f4f72646572426f6f6b3a20506f7374206f6e6c792063726f737365642074686560448201526420626f6f6b60d81b606482015260840161081f565b826001600160601b03166000036113465750505050565b60d25464ffffffffff1661135b816001615198565b60d2805464ffffffffff191664ffffffffff9290921691909117905561138260cf866132fd565b5062ffffff8516600090815260cb602052604081206113ab906113a6846001615198565b613398565b90506113c586866113bd856001615198565b600085613404565b7fde65ec26e567cef1936a693231b33b08ce40fca66ce0e78b38d938048c7a08916113f1836001615198565b6040805164ffffffffff90921682523360208301526001600160601b0388169082015262ffffff881660608201526000608082015260a00160405180910390a15050505b505050565b606060004360405160200161145191815260200190565b6040516020818303038152906040529050600061147060cc6000612f58565b90505b62ffffff81811614158061148a575062ffffff8116155b156115795762ffffff8116600090815260ca602052604090205464ffffffffff165b64ffffffffff81161561154e5764ffffffffff8116600090815260c960205260409020546001600160a01b03808716911603611526576040805164ffffffffff8316602082015284910160408051601f19818403018152908290526115149291602001615127565b60405160208183030381529060405292505b64ffffffffff908116600090815260c96020526040902060010154600160281b9004166114ac565b61155e60cc610d0c846001615156565b91508162ffffff166000036115735750611579565b50611473565b5092915050565b61158861253c565b611592600061351c565b565b60606000436040516020016115ab91815260200190565b604051602081830303815290604052905060006115ca60cc6000612f58565b90505b62ffffff8181161415806115e4575062ffffff8116155b156116d35762ffffff8116600090815260ca602052604090205464ffffffffff165b64ffffffffff8116156116a85764ffffffffff8116600090815260c960205260409020546001600160a01b03808716911603611680576040805164ffffffffff8316602082015284910160408051601f198184030181529082905261166e9291602001615127565b60405160208183030381529060405292505b64ffffffffff908116600090815260c96020526040902060010154600160281b900416611606565b6116b860cc610d0c846001615156565b91508162ffffff166000036116cd57506116d3565b506115cd565b6116df60cf6000612f58565b90505b62ffffff8181161415806116f9575062ffffff8116155b156115795762ffffff8116600090815260cb602052604090205464ffffffffff165b64ffffffffff8116156117bd5764ffffffffff8116600090815260c960205260409020546001600160a01b03808716911603611795576040805164ffffffffff8316602082015284910160408051601f19818403018152908290526117839291602001615127565b60405160208183030381529060405292505b64ffffffffff908116600090815260c96020526040902060010154600160281b90041661171b565b6117cd60cf610d0c846001615156565b91508162ffffff166000036117e25750611579565b506116e2565b600054610100900460ff16158080156118085750600054600160ff909116105b806118225750303b158015611822575060005460ff166001145b6118945760405162461bcd60e51b815260206004820152602e60248201527f496e697469616c697a61626c653a20636f6e747261637420697320616c72656160448201527f647920696e697469616c697a6564000000000000000000000000000000000000606482015260840161081f565b6000805460ff1916600117905580156118b7576000805461ff0019166101001790555b6118bf61357b565b6118c88d61351c565b60d6805473ffffffffffffffffffffffffffffffffffffffff199081166001600160a01b038f81169190911790925560d7805482168d841617905560d98d905560da8b905560d88054909116918a1691909117905560d280547fffffffffffffffffffffff000000000000000000000000000000ffffffffffff16600160301b6001600160601b038a8116919091027fffffffffffffffffffffff000000ffffffffffffffffffffffffffffffffffff1691909117600160901b62ffffff8a16021790915560d380548783167fffffffffffffffff00000000000000000000000000000000000000000000000090911617600160601b8784160217905560d480546bffffffffffffffffffffffff191691851691909117905560d58290558015611a2c576000805461ff0019169055604051600181527f7f26b83ff96e1f2b6a682f133852f6798a09c465da95921460cefb38474024989060200160405180910390a15b50505050505050505050505050565b60d254600160281b900460ff1615611a955760405162461bcd60e51b815260206004820152601b60248201527f4f72646572426f6f6b3a206d61726b6574206973207061757365640000000000604482015260640161081f565b60005b84811015611b0957611af7868683818110611ab557611ab5614f1b565b9050602002016020810190611aca9190614aef565b858584818110611adc57611adc614f1b565b9050602002016020810190611af191906151b6565b846135ee565b80611b0181614f47565b915050611a98565b507f54fa92f8d95172a75a6a6a4c181ac0e1ecfa38b90bb7761b761cbafde7056b5a85858585604051611b3f94939291906151d1565b60405180910390a15050505050565b60d254600160281b900460ff1615611ba85760405162461bcd60e51b815260206004820152601b60248201527f4f72646572426f6f6b3a206d61726b6574206973207061757365640000000000604482015260640161081f565b838214611c1d5760405162461bcd60e51b815260206004820152603360248201527f4f72646572426f6f6b3a2050726963657320616e642073697a6573206172726160448201527f79206c656e677468206d757374206d6174636800000000000000000000000000606482015260840161081f565b60005b84811015611c9157611c7f868683818110611c3d57611c3d614f1b565b9050602002016020810190611c529190615234565b858584818110611c6457611c64614f1b565b9050602002016020810190611c7991906151b6565b84611e9f565b80611c8981614f47565b915050611c20565b505050505050565b60d254600090600160281b900460ff1615611cf65760405162461bcd60e51b815260206004820152601b60248201527f4f72646572426f6f6b3a206d61726b6574206973207061757365640000000000604482015260640161081f565b60d65460d85460d25460d9546001600160a01b03938416936323b872dd933393911691600160301b9091046001600160601b031690611d3690600a61509d565b611d49906001600160601b038a166150a9565b611d5391906150d6565b6040516001600160e01b031960e086901b1681526001600160a01b03938416600482015292909116602483015260448201526064016020604051808303816000875af1158015611da7573d6000803e3d6000fd5b505050506040513d601f19601f82011682018060405250810190611dcb91906150ea565b506000611ddb6000856000613142565b90945090506001600160601b03841615610a4d578215611e4c5760405162461bcd60e51b815260206004820152602660248201527f4f72646572426f6f6b3a20696e73756666696369656e7420766f6c756d65206f6044820152656e20626f6f6b60d01b606482015260840161081f565b60d85460d65460d25460d9546001600160a01b03938416936375eab98e933393911691600160301b9091046001600160601b031690611e8c90600a61509d565b6109c2906001600160601b038b166150a9565b60d254600160281b900460ff1615611ef95760405162461bcd60e51b815260206004820152601b60248201527f4f72646572426f6f6b3a206d61726b6574206973207061757365640000000000604482015260640161081f565b60d3546001600160601b03600160601b909104811690831611611f5e5760405162461bcd60e51b815260206004820152601760248201527f4f72646572426f6f6b3a2053697a6520746f6f206c6f77000000000000000000604482015260640161081f565b60d4546001600160601b0390811690831610611fbc5760405162461bcd60e51b815260206004820152601960248201527f4f72646572426f6f6b3a2053697a6520746f6f206c6172676500000000000000604482015260640161081f565b60d354611fd7906001600160601b031662ffffff8516615172565b6001600160601b03161561202d5760405162461bcd60e51b815260206004820152601460248201527f4f72646572426f6f6b3a205469636b2053697a65000000000000000000000000604482015260640161081f565b60008061203a8585613a5d565b60d2549193509150600160301b90046001600160601b031661206162ffffff87168461524f565b61206b919061527a565b6120759082615156565b60d75460d25460da549293506120b9926001600160a01b0390921691600160901b90910462ffffff16906120aa90600a61509d565b6112aa9062ffffff86166150a9565b821561212e57816001600160601b0316846001600160601b03161461212e5760405162461bcd60e51b815260206004820152602560248201527f4f72646572426f6f6b3a20506f7374206f6e6c792063726f737365642074686560448201526420626f6f6b60d81b606482015260840161081f565b6001600160601b038216156122265760d25464ffffffffff16612152816001615198565b60d2805464ffffffffff191664ffffffffff9290921691909117905561217960cc876132fd565b5062ffffff8616600090815260ca6020526040812061219d906113a6846001615198565b90506121b787856121af856001615198565b600185613404565b7fde65ec26e567cef1936a693231b33b08ce40fca66ce0e78b38d938048c7a08916121e3836001615198565b6040805164ffffffffff90921682523360208301526001600160601b0387169082015262ffffff891660608201526001608082015260a00160405180910390a150505b5050505050565b60d254600160281b900460ff16156122875760405162461bcd60e51b815260206004820152601b60248201527f4f72646572426f6f6b3a206d61726b6574206973207061757365640000000000604482015260640161081f565b8382146122fc5760405162461bcd60e51b815260206004820152603360248201527f4f72646572426f6f6b3a2050726963657320616e642073697a6573206172726160448201527f79206c656e677468206d757374206d6174636800000000000000000000000000606482015260840161081f565b60005b84811015611c915761235e86868381811061231c5761231c614f1b565b90506020020160208101906123319190615234565b85858481811061234357612343614f1b565b905060200201602081019061235891906151b6565b846110d0565b8061236881614f47565b9150506122ff565b606060004360405160200161238791815260200190565b604051602081830303815290604052905060006123a660cf6000612f58565b90505b62ffffff8181161415806123c0575062ffffff8116155b156115795762ffffff8116600090815260cb602052604090205464ffffffffff165b64ffffffffff8116156124845764ffffffffff8116600090815260c960205260409020546001600160a01b0380871691160361245c576040805164ffffffffff8316602082015284910160408051601f198184030181529082905261244a9291602001615127565b60405160208183030381529060405292505b64ffffffffff908116600090815260c96020526040902060010154600160281b9004166123e2565b61249460cf610d0c846001615156565b91508162ffffff166000036124a95750611579565b506123a9565b6124b761253c565b6001600160a01b0381166125335760405162461bcd60e51b815260206004820152602660248201527f4f776e61626c653a206e6577206f776e657220697320746865207a65726f206160448201527f6464726573730000000000000000000000000000000000000000000000000000606482015260840161081f565b610bce8161351c565b6033546001600160a01b031633146115925760405162461bcd60e51b815260206004820181905260248201527f4f776e61626c653a2063616c6c6572206973206e6f7420746865206f776e6572604482015260640161081f565b64ffffffffff818116600090815260c960209081526040808320815160c08101835281546001600160a01b0381168252600160a01b90046001600160601b0316938101939093526001015480851691830191909152600160281b81049093166060820152600160501b830462ffffff166080820152600160681b90920460ff16151560a0830152906126288382613d52565b80516001600160a01b031633146126a75760405162461bcd60e51b815260206004820152602c60248201527f4f72646572426f6f6b3a204f6e6c79206f72646572206f776e65722063616e2060448201527f63616e63656c206f726465720000000000000000000000000000000000000000606482015260840161081f565b604081015164ffffffffff16156126fc57606081015160408083015164ffffffffff908116600090815260c960205291909120600101805491909216600160281b0269ffffffffff0000000000199091161790555b606081015164ffffffffff161561274757604081810151606083015164ffffffffff908116600090815260c960205292909220600101805464ffffffffff1916929091169190911790555b8060a001511561291257608081015162ffffff16600090815260ca602052604090205464ffffffffff908116908416036127a457608081015162ffffff16600090815260ca6020526040902060608201516127a29190613fd8565b505b6127d260ca6000836080015162ffffff1681526020019081526020016000208260400151836060015161401c565b806060015164ffffffffff16816040015164ffffffffff1603612800576127fe60cc8260800151614071565b505b60d854815160d75460d25460da546001600160a01b03948516946375eab98e94931691600160301b81046001600160601b031691600160901b90910462ffffff169061284d90600a61509d565b876080015162ffffff168860200151612866919061524f565b6001600160601b031661287991906150a9565b61288391906150d6565b61288d91906150d6565b6040516001600160e01b031960e086901b1681526001600160a01b0393841660048201529290911660248301526044820152600160648201526084016020604051808303816000875af11580156128e8573d6000803e3d6000fd5b505050506040513d601f19601f8201168201806040525081019061290c91906150ea565b50612aa3565b608081015162ffffff16600090815260cb602052604090205464ffffffffff9081169084160361296557608081015162ffffff16600090815260cb6020526040902060608201516129639190613fd8565b505b61299360cb6000836080015162ffffff1681526020019081526020016000208260400151836060015161401c565b806060015164ffffffffff16816040015164ffffffffff16036129c1576129bf60cf8260800151614071565b505b60d854815160d65460d25460d9546001600160a01b03948516946375eab98e94931691600160301b90046001600160601b031690612a0090600a61509d565b86602001516001600160601b0316612a1891906150a9565b612a2291906150d6565b6040516001600160e01b031960e086901b1681526001600160a01b0393841660048201529290911660248301526044820152600160648201526084016020604051808303816000875af1158015612a7d573d6000803e3d6000fd5b505050506040513d601f19601f82011682018060405250810190612aa191906150ea565b505b60a0015192915050565b600080600080612abf60cf6000612f58565b9050600060605b60008862ffffff16118015612ae557508862ffffff168362ffffff1611155b8015612af5575062ffffff831615155b15612be05760008362ffffff1660d260069054906101000a90046001600160601b03168a62ffffff16612b28919061524f565b612b32919061527a565b90506060612b408287615107565b9550612b6660cf8660cb60008962ffffff16815260200190815260200160002085614105565b9092509050612b7582876152a0565b95508281604051602001612b8a929190615127565b60408051808303601f1901815291905260d254909350600160301b90046001600160601b0316612bbf62ffffff87168461524f565b612bc9919061527a565b9950612bd760cf6000612f58565b94505050612ac6565b6001600160601b03841615612d275760d254612c0f9061271090600160301b90046001600160601b03166150a9565b60d554612c1e906127106152c0565b60da54612c2c90600a61509d565b612c3f906001600160601b0388166150a9565b612c4991906150a9565b612c5391906150d6565b60d85460d654604080513360208201526001600160a01b0392831691810191909152606081018490528a151560808201529294501690636f5b601e90839060a0015b60408051601f1981840301815290829052612cb39291602001615127565b6040516020818303038152906040526040518263ffffffff1660e01b8152600401612cde9190614c6b565b6020604051808303816000875af1158015612cfd573d6000803e3d6000fd5b505050506040513d601f19601f82011682018060405250810190612d2191906150ea565b50612da3565b805115612da35760d8546040516337adb00f60e11b81526001600160a01b0390911690636f5b601e90612d5e908490600401614c6b565b6020604051808303816000875af1158015612d7d573d6000803e3d6000fd5b505050506040513d601f19601f82011682018060405250810190612da191906150ea565b505b5095979596505050505050565b610bce61253c565b7f4910fdfa16fed3260ed0e7147f7cc6da11a60208b5b9406d12a635614ffd91435460ff1615612deb57611435836141a3565b826001600160a01b03166352d1902d6040518163ffffffff1660e01b8152600401602060405180830381865afa925050508015612e45575060408051601f3d908101601f19168201909252612e42918101906152d3565b60015b612eb75760405162461bcd60e51b815260206004820152602e60248201527f45524331393637557067726164653a206e657720696d706c656d656e7461746960448201527f6f6e206973206e6f742055555053000000000000000000000000000000000000606482015260840161081f565b7f360894a13ba1a3210667c828492db98dca3e2076cc3735a920a3ca505d382bbc8114612f4c5760405162461bcd60e51b815260206004820152602960248201527f45524331393637557067726164653a20756e737570706f727465642070726f7860448201527f6961626c65555549440000000000000000000000000000000000000000000000606482015260840161081f565b5061143583838361426e565b60008061ffff600884901c1660ff808516908114612fad5760008281526002870160205260408120549350612f8d8483614293565b90506000198114612fab5760089290921b9091179250610a50915050565b505b5060ff80821690600883901c9082146130275760008181526001880160205260408120549450612fdd8584614293565b9050600019811461302557600882901b8117600081815260028a0160205260409020549550935061300d856142a2565b60ff1660088560001c901b1795505050505050610a50565b505b60ff81811692508214613097578654935060006130448584614293565b90506000198114613095576000818152600189016020526040902054945090508061306e856142a2565b60ff16600883901b17600081815260028a0160205260409020549550935061300d856142a2565b505b5060009695505050505050565b60d8546040517f6c1392520000000000000000000000000000000000000000000000000000000081526001600160a01b03838116600483015285811660248301526044820185905290911690636c139252906064016020604051808303816000875af1158015613118573d6000803e3d6000fd5b505050506040513d601f19601f8201168201806040525081019061313c91906150ea565b50505050565b60008060008061315660cc62ffffff61433e565b9050600060605b6000886001600160601b031611801561318057508862ffffff168362ffffff1610155b8015613191575062ffffff83811614155b156132245762ffffff8316600090815260ca6020526040902088906060906131be9060cc90879085614105565b909a50905062ffffff85166131d38b846152a0565b6131dd919061524f565b6131e79087615107565b955082816040516020016131fc929190615127565b604051602081830303815290604052925061321b60cc62ffffff61433e565b9450505061315d565b6001600160601b03841615612d275760d2546127109061326090600160901b810462ffffff1690600160301b90046001600160601b031661524f565b6001600160601b031661327391906150a9565b60d554613282906127106152c0565b60da5461329090600a61509d565b6132a3906001600160601b0388166150a9565b6132ad91906150a9565b6132b791906150d6565b60d85460d754604080513360208201526001600160a01b0392831691810191909152606081018490528a151560808201529294501690636f5b601e90839060a001612c95565b61ffff600882901c166000818152600284016020526040812054909190600160ff85161b811780821461338c576000838152600287016020526040812082905582900361338057600883901c6000818152600180890160205260408220805460ff88169290921b82179055935083900361337e578654600160ff83161b1787555b505b60019350505050610a50565b50600095945050505050565b8154600090600160281b900464ffffffffff16806133da578354600160281b64ffffffffff851690810269ffffffffffffffffffff1990921617178455610a4d565b835464ffffffffff8416600160281b0269ffffffffff000000000019909116178455905092915050565b6040805160c0810182523381526001600160601b03958616602080830191825264ffffffffff94851683850181815260006060860181815262ffffff9c8d166080880190815299151560a088019081529a891680835260c990955287822096519551909b16600160a01b026001600160a01b0390951694909417855551600194850180549a51985199511515600160681b026dff00000000000000000000000000199a909c16600160501b02999099166dffffffff0000000000000000000019988816600160281b90810269ffffffffffffffffffff19909c1692909816919091179990991796909616979097179790971790945591855293200180549290910269ffffffffff000000000019909216919091179055565b603380546001600160a01b0383811673ffffffffffffffffffffffffffffffffffffffff19831681179093556040519116919082907f8be0079c531659141344cd1fd0a4f28419497f9722a3daafe3b4186f6b6457e090600090a35050565b600054610100900460ff166135e65760405162461bcd60e51b815260206004820152602b60248201527f496e697469616c697a61626c653a20636f6e7472616374206973206e6f74206960448201526a6e697469616c697a696e6760a81b606482015260840161081f565b61159261446e565b64ffffffffff838116600090815260c96020908152604091829020825160c08101845281546001600160a01b0381168252600160a01b90046001600160601b0316928101929092526001015480841692820192909252600160281b82049092166060830152600160501b810462ffffff166080830152600160681b900460ff16151560a082015261367f8482613d52565b80516001600160a01b031633146136fe5760405162461bcd60e51b815260206004820152602c60248201527f4f72646572426f6f6b3a204f6e6c79206f72646572206f776e65722063616e2060448201527f757064617465206f726465720000000000000000000000000000000000000000606482015260840161081f565b826001600160601b031681602001516001600160601b0316116137885760405162461bcd60e51b8152602060048201526024808201527f4f72646572426f6f6b3a2063616e277420696e637265617365206f726465722060448201527f73697a6500000000000000000000000000000000000000000000000000000000606482015260840161081f565b60d3546001600160601b03600160601b9091048116908416116138135760405162461bcd60e51b815260206004820152602e60248201527f4f72646572626f6f6b3a2073697a652068617320746f2062652067726561746560448201527f72207468616e206d696e696d756d000000000000000000000000000000000000606482015260840161081f565b600083826020015161382591906152a0565b90508160a001511561393f5760d854825160d75460d25460da546001600160a01b03948516946375eab98e94931691600160301b81046001600160601b031691600160901b90910462ffffff169061387e90600a61509d565b60808901516138929062ffffff168961524f565b6001600160601b03166138a591906150a9565b6138af91906150d6565b6138b991906150d6565b6040516001600160e01b031960e086901b1681526001600160a01b039384166004820152929091166024830152604482015285151560648201526084016020604051808303816000875af1158015613915573d6000803e3d6000fd5b505050506040513d601f19601f8201168201806040525081019061393991906150ea565b50613a1d565b60d854825160d65460d25460d9546001600160a01b03948516946375eab98e94931691600160301b90046001600160601b03169061397e90600a61509d565b613991906001600160601b0388166150a9565b61399b91906150d6565b6040516001600160e01b031960e086901b1681526001600160a01b039384166004820152929091166024830152604482015285151560648201526084016020604051808303816000875af11580156139f7573d6000803e3d6000fd5b505050506040513d601f19601f82011682018060405250810190613a1b91906150ea565b505b50505064ffffffffff909116600090815260c96020526040902080546001600160601b03909216600160a01b026001600160a01b03909216919091179055565b600080600080613a6f60cf6000612f58565b9050600060605b6000876001600160601b0316118015613a9957508762ffffff168362ffffff1611155b8015613aa9575062ffffff831615155b15613b735762ffffff8316600090815260cb602052604090206060908890613ad69060cf90879084614105565b90995091506000613ae78a836152a0565b9050613af38188615107565b60d254909750600160301b90046001600160601b0316613b1862ffffff88168361524f565b613b22919061527a565b613b2c9086615156565b9450613b37856152ec565b94508383604051602001613b4c929190615127565b6040516020818303038152906040529350613b6960cf6000612f58565b9550505050613a76565b6001600160601b03841615613cc65760d85460d65460d2546001600160a01b0392831692636f5b601e928592339290911690613bc29061271090600160301b90046001600160601b03166150a9565b60d554613bd1906127106152c0565b60da54613bdf90600a61509d565b613bf2906001600160601b038d166150a9565b613bfc91906150a9565b613c0691906150d6565b604080516001600160a01b039485166020820152939092169183019190915260608201526001608082015260a00160408051601f1981840301815290829052613c529291602001615127565b6040516020818303038152906040526040518263ffffffff1660e01b8152600401613c7d9190614c6b565b6020604051808303816000875af1158015613c9c573d6000803e3d6000fd5b505050506040513d601f19601f82011682018060405250810190613cc091906150ea565b50613d42565b805115613d425760d8546040516337adb00f60e11b81526001600160a01b0390911690636f5b601e90613cfd908490600401614c6b565b6020604051808303816000875af1158015613d1c573d6000803e3d6000fd5b505050506040513d601f19601f82011682018060405250810190613d4091906150ea565b505b50859450925050505b9250929050565b604081015164ffffffffff1615613ed65760408082015164ffffffffff908116600090815260c96020529190912060010154600160281b9004811690831614613de85760405162461bcd60e51b815260206004820152602260248201527f4f72646572426f6f6b3a204f7264657220616c72656164792063616e63656c6c604482015261195960f21b606482015260840161081f565b8060a0015115613e6457608081015162ffffff16600090815260ca602052604090205464ffffffffff808416911611156110075760405162461bcd60e51b815260206004820152600f60248201527f416c72656164792066696c6c6564210000000000000000000000000000000000604482015260640161081f565b608081015162ffffff16600090815260cb602052604090205464ffffffffff808416911611156110075760405162461bcd60e51b815260206004820152600f60248201527f416c72656164792066696c6c6564210000000000000000000000000000000000604482015260640161081f565b8060a0015115613f5c57608081015162ffffff16600090815260ca602052604090205464ffffffffff8381169116146110075760405162461bcd60e51b815260206004820152602260248201527f4f72646572426f6f6b3a204f7264657220616c72656164792063616e63656c6c604482015261195960f21b606482015260840161081f565b608081015162ffffff16600090815260cb602052604090205464ffffffffff8381169116146110075760405162461bcd60e51b815260206004820152602260248201527f4f72646572426f6f6b3a204f7264657220616c72656164792063616e63656c6c604482015261195960f21b606482015260840161081f565b600064ffffffffff8216613fff5750815469ffffffffffffffffffff191682556001610a50565b50815464ffffffffff191664ffffffffff91909116179055600090565b64ffffffffff821661403e57825464ffffffffff191664ffffffffff82161783555b64ffffffffff811661143557825464ffffffffff8316600160281b0269ffffffffff000000000019909116178355505050565b61ffff600882901c166000818152600284016020526040812054909190600160ff85161b19811680821461338c57600083815260028701602052604081208290558190036133805750600882901c6000818152600187810160205260408220805460ff87169290921b1990911690819055919082900361337e578654600160ff83161b191687555060019350505050610a50565b8154819060609064ffffffffff165b6000836001600160601b0316118015614133575064ffffffffff811615155b1561417657606061414482856144e2565b604051929650909350915061415f9084908390602001615127565b604051602081830303815290604052925050614114565b6141808582613fd8565b5064ffffffffff8116614199576141978787614071565b505b5094509492505050565b6001600160a01b0381163b6142205760405162461bcd60e51b815260206004820152602d60248201527f455243313936373a206e657720696d706c656d656e746174696f6e206973206e60448201527f6f74206120636f6e747261637400000000000000000000000000000000000000606482015260840161081f565b7f360894a13ba1a3210667c828492db98dca3e2076cc3735a920a3ca505d382bbc805473ffffffffffffffffffffffffffffffffffffffff19166001600160a01b0392909216919091179055565b614277836146f6565b6000825111806142845750805b156114355761313c8383614736565b6000610a4d836001840161475b565b60008160801b80156142b657608091508092505b8260401b905080156142c9579150604001815b8260201b905080156142dc579150602001815b8260101b905080156142ef579150601001815b8260081b90508015614302579150600801815b8260041b90508015614315579150600401815b8260021b90508015614328579150600201815b508160011b15614336576001015b60ff03919050565b60008061ffff600884901c1660ff8416801561439157600082815260028701602052604081205493506143718483614789565b9050600019811461438f5760089290921b9091179250610a50915050565b505b5060ff8116600882901c81156143f057600081815260018801602052604081205494506143be8584614789565b905060001981146143ee57600882901b8117600081815260028a0160205260409020549550935061300d85614799565b505b60ff81169150811561445f5786549350600061440c8584614789565b9050600019811461445d576000818152600189016020526040902054945090508061443685614799565b60ff16600883901b17600081815260028a0160205260409020549550935061300d85614799565b505b5062ffffff9695505050505050565b600054610100900460ff166144d95760405162461bcd60e51b815260206004820152602b60248201527f496e697469616c697a61626c653a20636f6e7472616374206973206e6f74206960448201526a6e697469616c697a696e6760a81b606482015260840161081f565b6115923361351c565b64ffffffffff808316600090815260c960205260408120600181015490549192600160281b90910416906060906001600160601b03600160a01b9091048116908516811061453157600061453b565b61453b81866152a0565b93506000846001600160601b031660000361455d5761455a86836152a0565b90505b64ffffffffff8716600090815260c960205260409020600181015490546145fb91600160681b900460ff1615906001600160a01b03166001600160601b038816156145ce5764ffffffffff8a16600090815260c96020526040902054600160a01b90046001600160601b03166145d0565b885b64ffffffffff8b16600090815260c96020526040902060010154600160501b900462ffffff1661483e565b9250846001600160601b031660000361467f576001600160601b03811615614621578693505b64ffffffffff8716600090815260c960205260409020805487919060149061465a908490600160a01b90046001600160601b03166152a0565b92506101000a8154816001600160601b0302191690836001600160601b031602179055505b7d01ebd527f6e342f5ba8b96af28895de0623f5cb5ccca5738a126634cb47a8782336146ab898b6152a0565b6040805164ffffffffff90951685526001600160601b0393841660208601526001600160a01b039092169184019190915216606082015260800160405180910390a150509250925092565b6146ff816141a3565b6040516001600160a01b038216907fbc7cd75a20ee27fd9adebab32041f755214dbc6bffa90cc0225b39da2e5c2d3b90600090a250565b6060610a4d838360405180606001604052806027815260200161532b6027913961490f565b60ff81169190911c906000821561477f5781614776846142a2565b0160ff16610a4d565b5060001992915050565b6000610a4d836000198401614987565b60006fffffffffffffffffffffffffffffffff8211156147bb5750608090811c905b67ffffffffffffffff8211156147d357604091821c91015b63ffffffff8211156147e757602091821c91015b61ffff8211156147f957601091821c91015b60ff82111561480a57600891821c91015b600f82111561481b57600491821c91015b600382111561482c57600291821c91015b6001821115614839576001015b919050565b60606000856148585760d6546001600160a01b0316614865565b60d7546001600160a01b03165b90506000866148b35760d25460d954600160301b9091046001600160601b03169061489190600a61509d565b6148a4906001600160601b0388166150a9565b6148ae91906150d6565b6148c2565b6148c2858562ffffff166149b8565b604080516001600160a01b03808a166020830152851691810191909152606081018290526001608082015290915060a001604051602081830303815290604052925050505b949350505050565b6060600080856001600160a01b03168560405161492c919061530e565b600060405180830381855af49150503d8060008114614967576040519150601f19603f3d011682016040523d82523d6000602084013e61496c565b606091505b509150915061497d86838387614a23565b9695505050505050565b60ff8181031691821b9160009083156149ad57806149a485614799565b60ff1603614907565b600019949350505050565b60d2546000906149e490600160301b81046001600160601b031690600160901b900462ffffff1661524f565b6001600160601b031660da54600a6149fc919061509d565b614a06848661524f565b6001600160601b0316614a1991906150a9565b610a4d91906150d6565b60608315614a92578251600003614a8b576001600160a01b0385163b614a8b5760405162461bcd60e51b815260206004820152601d60248201527f416464726573733a2063616c6c20746f206e6f6e2d636f6e7472616374000000604482015260640161081f565b5081614907565b6149078383815115614aa75781518083602001fd5b8060405162461bcd60e51b815260040161081f9190614c6b565b600060208284031215614ad357600080fd5b5035919050565b803564ffffffffff8116811461483957600080fd5b600060208284031215614b0157600080fd5b610a4d82614ada565b60008083601f840112614b1c57600080fd5b50813567ffffffffffffffff811115614b3457600080fd5b6020830191508360208260051b8501011115613d4b57600080fd5b60008060208385031215614b6257600080fd5b823567ffffffffffffffff811115614b7957600080fd5b614b8585828601614b0a565b90969095509350505050565b803562ffffff8116811461483957600080fd5b8015158114610bce57600080fd5b60008060408385031215614bc557600080fd5b614bce83614b91565b91506020830135614bde81614ba4565b809150509250929050565b80356001600160a01b038116811461483957600080fd5b600060208284031215614c1257600080fd5b610a4d82614be9565b60005b83811015614c36578181015183820152602001614c1e565b50506000910152565b60008151808452614c57816020860160208601614c1b565b601f01601f19169290920160200192915050565b602081526000610a4d6020830184614c3f565b634e487b7160e01b600052604160045260246000fd5b60008060408385031215614ca757600080fd5b614cb083614be9565b9150602083013567ffffffffffffffff80821115614ccd57600080fd5b818501915085601f830112614ce157600080fd5b813581811115614cf357614cf3614c7e565b604051601f8201601f19908116603f01168101908382118183101715614d1b57614d1b614c7e565b81604052828152886020848701011115614d3457600080fd5b8260208601602083013760006020848301015280955050505050509250929050565b80356001600160601b038116811461483957600080fd5b600080600060608486031215614d8257600080fd5b614d8b84614b91565b9250614d9960208501614d56565b91506040840135614da981614ba4565b809150509250925092565b6000806000806000806000806000806000806101808d8f031215614dd757600080fd5b614de08d614be9565b9b50614dee60208e01614be9565b9a5060408d01359950614e0360608e01614be9565b985060808d01359750614e1860a08e01614be9565b9650614e2660c08e01614d56565b9550614e3460e08e01614b91565b9450614e436101008e01614d56565b9350614e526101208e01614d56565b9250614e616101408e01614d56565b91506101608d013590509295989b509295989b509295989b565b600080600080600060608688031215614e9357600080fd5b853567ffffffffffffffff80821115614eab57600080fd5b614eb789838a01614b0a565b90975095506020880135915080821115614ed057600080fd5b50614edd88828901614b0a565b9094509250506040860135614ef181614ba4565b809150509295509295909350565b60008060408385031215614f1257600080fd5b614bce83614d56565b634e487b7160e01b600052603260045260246000fd5b634e487b7160e01b600052601160045260246000fd5b600060018201614f5957614f59614f31565b5060010190565b8183526000602080850194508260005b85811015614f9a5764ffffffffff614f8783614ada565b1687529582019590820190600101614f70565b509495945050505050565b602081526000614907602083018486614f60565b600181815b80851115614ff4578160001904821115614fda57614fda614f31565b80851615614fe757918102915b93841c9390800290614fbe565b509250929050565b60008261500b57506001610a50565b8161501857506000610a50565b816001811461502e576002811461503857615054565b6001915050610a50565b60ff84111561504957615049614f31565b50506001821b610a50565b5060208310610133831016604e8410600b8410161715615077575081810a610a50565b6150818383614fb9565b806000190482111561509557615095614f31565b029392505050565b6000610a4d8383614ffc565b8082028115828204841417610a5057610a50614f31565b634e487b7160e01b600052601260045260246000fd5b6000826150e5576150e56150c0565b500490565b6000602082840312156150fc57600080fd5b8151610a4d81614ba4565b6001600160601b0381811683821601908082111561157957611579614f31565b60008351615139818460208801614c1b565b83519083019061514d818360208801614c1b565b01949350505050565b62ffffff81811683821601908082111561157957611579614f31565b60006001600160601b038084168061518c5761518c6150c0565b92169190910692915050565b64ffffffffff81811683821601908082111561157957611579614f31565b6000602082840312156151c857600080fd5b610a4d82614d56565b6040815260006151e5604083018688614f60565b8281036020848101919091528482528591810160005b86811015615227576001600160601b0361521485614d56565b16825292820192908201906001016151fb565b5098975050505050505050565b60006020828403121561524657600080fd5b610a4d82614b91565b6001600160601b0381811683821602808216919082811461527257615272614f31565b505092915050565b60006001600160601b0380841680615294576152946150c0565b92169190910492915050565b6001600160601b0382811682821603908082111561157957611579614f31565b81810381811115610a5057610a50614f31565b6000602082840312156152e557600080fd5b5051919050565b600062ffffff80831681810361530457615304614f31565b6001019392505050565b60008251615320818460208701614c1b565b919091019291505056fe416464726573733a206c6f772d6c6576656c2064656c65676174652063616c6c206661696c6564a264697066735822122070725040e930d20d4feafc76c9d302b634fafe74102ce1ae651afa431687a48664736f6c63430008110033",
  "linkReferences": {},
  "deployedLinkReferences": {}
}