{
  "_format": "hh-sol-artifact-1",
  "contractName": "OrderBook",
  "sourceName": "contracts/OrderBook.sol",
  "abi": [
    {
      "inputs": [],
      "stateMutability": "nonpayable",
      "type": "constructor"
    },
    {
      "anonymous": false,
      "inputs": [
        {
          "indexed": false,
          "internalType": "address",
          "name": "previousAdmin",
          "type": "address"
        },
        {
          "indexed": false,
          "internalType": "address",
          "name": "newAdmin",
          "type": "address"
        }
      ],
      "name": "AdminChanged",
      "type": "event"
    },
    {
      "anonymous": false,
      "inputs": [
        {
          "indexed": true,
          "internalType": "address",
          "name": "beacon",
          "type": "address"
        }
      ],
      "name": "BeaconUpgraded",
      "type": "event"
    },
    {
      "anonymous": false,
      "inputs": [
        {
          "indexed": false,
          "internalType": "uint8",
          "name": "version",
          "type": "uint8"
        }
      ],
      "name": "Initialized",
      "type": "event"
    },
    {
      "anonymous": false,
      "inputs": [
        {
          "indexed": false,
          "internalType": "uint40",
          "name": "orderId",
          "type": "uint40"
        },
        {
          "indexed": false,
          "internalType": "address",
          "name": "owner",
          "type": "address"
        },
        {
          "indexed": false,
          "internalType": "uint96",
          "name": "size",
          "type": "uint96"
        },
        {
          "indexed": false,
          "internalType": "uint24",
          "name": "price",
          "type": "uint24"
        },
        {
          "indexed": false,
          "internalType": "bool",
          "name": "isBuy",
          "type": "bool"
        }
      ],
      "name": "OrderCreated",
      "type": "event"
    },
    {
      "anonymous": false,
      "inputs": [
        {
          "indexed": false,
          "internalType": "uint40[]",
          "name": "orderId",
          "type": "uint40[]"
        },
        {
          "indexed": false,
          "internalType": "address",
          "name": "owner",
          "type": "address"
        }
      ],
      "name": "OrdersCanceled",
      "type": "event"
    },
    {
      "anonymous": false,
      "inputs": [
        {
          "indexed": true,
          "internalType": "address",
          "name": "previousOwner",
          "type": "address"
        },
        {
          "indexed": true,
          "internalType": "address",
          "name": "newOwner",
          "type": "address"
        }
      ],
      "name": "OwnershipTransferred",
      "type": "event"
    },
    {
      "anonymous": false,
      "inputs": [
        {
          "indexed": false,
          "internalType": "uint40",
          "name": "orderId",
          "type": "uint40"
        },
        {
          "indexed": false,
          "internalType": "address",
          "name": "makerAddress",
          "type": "address"
        },
        {
          "indexed": false,
          "internalType": "bool",
          "name": "isBuy",
          "type": "bool"
        },
        {
          "indexed": false,
          "internalType": "uint24",
          "name": "price",
          "type": "uint24"
        },
        {
          "indexed": false,
          "internalType": "uint96",
          "name": "updatedSize",
          "type": "uint96"
        },
        {
          "indexed": false,
          "internalType": "address",
          "name": "takerAddress",
          "type": "address"
        },
        {
          "indexed": false,
          "internalType": "uint96",
          "name": "filledSize",
          "type": "uint96"
        }
      ],
      "name": "Trade",
      "type": "event"
    },
    {
      "anonymous": false,
      "inputs": [
        {
          "indexed": true,
          "internalType": "address",
          "name": "implementation",
          "type": "address"
        }
      ],
      "name": "Upgraded",
      "type": "event"
    },
    {
      "inputs": [
        {
          "internalType": "uint24",
          "name": "_price",
          "type": "uint24"
        },
        {
          "internalType": "uint96",
          "name": "size",
          "type": "uint96"
        },
        {
          "internalType": "bool",
          "name": "_postOnly",
          "type": "bool"
        }
      ],
      "name": "addBuyOrder",
      "outputs": [],
      "stateMutability": "nonpayable",
      "type": "function"
    },
    {
      "inputs": [
        {
          "internalType": "uint24",
          "name": "_price",
          "type": "uint24"
        },
        {
          "internalType": "uint96",
          "name": "size",
          "type": "uint96"
        },
        {
          "internalType": "bool",
          "name": "_postOnly",
          "type": "bool"
        }
      ],
      "name": "addSellOrder",
      "outputs": [],
      "stateMutability": "nonpayable",
      "type": "function"
    },
    {
      "inputs": [
        {
          "internalType": "uint40[]",
          "name": "_orderIds",
          "type": "uint40[]"
        }
      ],
      "name": "batchCancelOrders",
      "outputs": [],
      "stateMutability": "nonpayable",
      "type": "function"
    },
    {
      "inputs": [
        {
          "internalType": "uint24[]",
          "name": "buyPrices",
          "type": "uint24[]"
        },
        {
          "internalType": "uint96[]",
          "name": "buySizes",
          "type": "uint96[]"
        },
        {
          "internalType": "uint24[]",
          "name": "sellPrices",
          "type": "uint24[]"
        },
        {
          "internalType": "uint96[]",
          "name": "sellSizes",
          "type": "uint96[]"
        },
        {
          "internalType": "uint40[]",
          "name": "orderIdsToCancel",
          "type": "uint40[]"
        },
        {
          "internalType": "bool",
          "name": "postOnly",
          "type": "bool"
        }
      ],
      "name": "batchUpdate",
      "outputs": [],
      "stateMutability": "nonpayable",
      "type": "function"
    },
    {
      "inputs": [],
      "name": "buyOrdersLeft",
      "outputs": [
        {
          "internalType": "bool",
          "name": "",
          "type": "bool"
        }
      ],
      "stateMutability": "view",
      "type": "function"
    },
    {
      "inputs": [
        {
          "internalType": "address",
          "name": "_maker",
          "type": "address"
        }
      ],
      "name": "getActiveBuysForAddress",
      "outputs": [
        {
          "internalType": "bytes",
          "name": "",
          "type": "bytes"
        }
      ],
      "stateMutability": "view",
      "type": "function"
    },
    {
      "inputs": [
        {
          "internalType": "address",
          "name": "_maker",
          "type": "address"
        }
      ],
      "name": "getActiveOrdersForAddress",
      "outputs": [
        {
          "internalType": "bytes",
          "name": "",
          "type": "bytes"
        }
      ],
      "stateMutability": "view",
      "type": "function"
    },
    {
      "inputs": [
        {
          "internalType": "address",
          "name": "_maker",
          "type": "address"
        }
      ],
      "name": "getActiveSellsForAddress",
      "outputs": [
        {
          "internalType": "bytes",
          "name": "",
          "type": "bytes"
        }
      ],
      "stateMutability": "view",
      "type": "function"
    },
    {
      "inputs": [],
      "name": "getBaseAssetDecimals",
      "outputs": [
        {
          "internalType": "uint256",
          "name": "",
          "type": "uint256"
        }
      ],
      "stateMutability": "view",
      "type": "function"
    },
    {
      "inputs": [],
      "name": "getL2Book",
      "outputs": [
        {
          "internalType": "bytes",
          "name": "",
          "type": "bytes"
        }
      ],
      "stateMutability": "view",
      "type": "function"
    },
    {
      "inputs": [],
      "name": "getMarketParams",
      "outputs": [
        {
          "internalType": "uint24",
          "name": "",
          "type": "uint24"
        },
        {
          "internalType": "uint96",
          "name": "",
          "type": "uint96"
        },
        {
          "internalType": "address",
          "name": "",
          "type": "address"
        },
        {
          "internalType": "uint256",
          "name": "",
          "type": "uint256"
        },
        {
          "internalType": "address",
          "name": "",
          "type": "address"
        },
        {
          "internalType": "uint256",
          "name": "",
          "type": "uint256"
        },
        {
          "internalType": "uint96",
          "name": "",
          "type": "uint96"
        },
        {
          "internalType": "uint256",
          "name": "",
          "type": "uint256"
        }
      ],
      "stateMutability": "view",
      "type": "function"
    },
    {
      "inputs": [
        {
          "internalType": "uint40",
          "name": "_orderId",
          "type": "uint40"
        }
      ],
      "name": "getOrderDetails",
      "outputs": [
        {
          "components": [
            {
              "internalType": "address",
              "name": "ownerAddress",
              "type": "address"
            },
            {
              "internalType": "uint96",
              "name": "size",
              "type": "uint96"
            },
            {
              "internalType": "uint40",
              "name": "prev",
              "type": "uint40"
            },
            {
              "internalType": "uint40",
              "name": "next",
              "type": "uint40"
            },
            {
              "internalType": "uint24",
              "name": "price",
              "type": "uint24"
            },
            {
              "internalType": "bool",
              "name": "isBuy",
              "type": "bool"
            }
          ],
          "internalType": "struct OrderBook.Order",
          "name": "",
          "type": "tuple"
        },
        {
          "internalType": "uint256",
          "name": "",
          "type": "uint256"
        }
      ],
      "stateMutability": "view",
      "type": "function"
    },
    {
      "inputs": [],
      "name": "getPricePrecision",
      "outputs": [
        {
          "internalType": "uint24",
          "name": "",
          "type": "uint24"
        }
      ],
      "stateMutability": "view",
      "type": "function"
    },
    {
      "inputs": [],
      "name": "getQuoteAssetDecimals",
      "outputs": [
        {
          "internalType": "uint256",
          "name": "",
          "type": "uint256"
        }
      ],
      "stateMutability": "view",
      "type": "function"
    },
    {
      "inputs": [],
      "name": "getSizePrecision",
      "outputs": [
        {
          "internalType": "uint96",
          "name": "",
          "type": "uint96"
        }
      ],
      "stateMutability": "view",
      "type": "function"
    },
    {
      "inputs": [
        {
          "internalType": "address",
          "name": "_owner",
          "type": "address"
        },
        {
          "internalType": "address",
          "name": "_baseAssetAddress",
          "type": "address"
        },
        {
          "internalType": "uint256",
          "name": "_baseAssetDecimals",
          "type": "uint256"
        },
        {
          "internalType": "address",
          "name": "_quoteAssetAddress",
          "type": "address"
        },
        {
          "internalType": "uint256",
          "name": "_quoteAssetDecimals",
          "type": "uint256"
        },
        {
          "internalType": "address",
          "name": "_marginAccountAddress",
          "type": "address"
        },
        {
          "internalType": "uint96",
          "name": "_sizePrecision",
          "type": "uint96"
        },
        {
          "internalType": "uint24",
          "name": "_pricePrecision",
          "type": "uint24"
        },
        {
          "internalType": "uint96",
          "name": "_tickSize",
          "type": "uint96"
        },
        {
          "internalType": "uint96",
          "name": "_minSize",
          "type": "uint96"
        },
        {
          "internalType": "uint96",
          "name": "_maxSize",
          "type": "uint96"
        },
        {
          "internalType": "uint256",
          "name": "_takerFeeBps",
          "type": "uint256"
        }
      ],
      "name": "initialize",
      "outputs": [],
      "stateMutability": "nonpayable",
      "type": "function"
    },
    {
      "inputs": [],
      "name": "owner",
      "outputs": [
        {
          "internalType": "address",
          "name": "",
          "type": "address"
        }
      ],
      "stateMutability": "view",
      "type": "function"
    },
    {
      "inputs": [],
      "name": "pauseMarkets",
      "outputs": [],
      "stateMutability": "nonpayable",
      "type": "function"
    },
    {
      "inputs": [
        {
          "internalType": "uint24",
          "name": "_quoteSize",
          "type": "uint24"
        },
        {
          "internalType": "bool",
          "name": "_isFillOrKill",
          "type": "bool"
        }
      ],
      "name": "placeAndExecuteMarketBuy",
      "outputs": [
        {
          "internalType": "uint256",
          "name": "",
          "type": "uint256"
        }
      ],
      "stateMutability": "nonpayable",
      "type": "function"
    },
    {
      "inputs": [
        {
          "internalType": "uint96",
          "name": "_size",
          "type": "uint96"
        },
        {
          "internalType": "bool",
          "name": "_isFillOrKill",
          "type": "bool"
        }
      ],
      "name": "placeAndExecuteMarketSell",
      "outputs": [
        {
          "internalType": "uint256",
          "name": "",
          "type": "uint256"
        }
      ],
      "stateMutability": "nonpayable",
      "type": "function"
    },
    {
      "inputs": [
        {
          "internalType": "uint24[]",
          "name": "_prices",
          "type": "uint24[]"
        },
        {
          "internalType": "uint96[]",
          "name": "_sizes",
          "type": "uint96[]"
        },
        {
          "internalType": "bool",
          "name": "_postOnly",
          "type": "bool"
        }
      ],
      "name": "placeMultipleBuyOrders",
      "outputs": [],
      "stateMutability": "nonpayable",
      "type": "function"
    },
    {
      "inputs": [
        {
          "internalType": "uint24[]",
          "name": "_prices",
          "type": "uint24[]"
        },
        {
          "internalType": "uint96[]",
          "name": "_sizes",
          "type": "uint96[]"
        },
        {
          "internalType": "bool",
          "name": "_postOnly",
          "type": "bool"
        }
      ],
      "name": "placeMultipleSellOrders",
      "outputs": [],
      "stateMutability": "nonpayable",
      "type": "function"
    },
    {
      "inputs": [],
      "name": "proxiableUUID",
      "outputs": [
        {
          "internalType": "bytes32",
          "name": "",
          "type": "bytes32"
        }
      ],
      "stateMutability": "view",
      "type": "function"
    },
    {
      "inputs": [],
      "name": "renounceOwnership",
      "outputs": [],
      "stateMutability": "nonpayable",
      "type": "function"
    },
    {
      "inputs": [
        {
          "internalType": "uint256",
          "name": "",
          "type": "uint256"
        }
      ],
      "name": "s_buyPricePoints",
      "outputs": [
        {
          "internalType": "uint40",
          "name": "head",
          "type": "uint40"
        },
        {
          "internalType": "uint40",
          "name": "tail",
          "type": "uint40"
        }
      ],
      "stateMutability": "view",
      "type": "function"
    },
    {
      "inputs": [],
      "name": "s_buyTree",
      "outputs": [
        {
          "internalType": "bytes32",
          "name": "level0",
          "type": "bytes32"
        }
      ],
      "stateMutability": "view",
      "type": "function"
    },
    {
      "inputs": [],
      "name": "s_orderIdCounter",
      "outputs": [
        {
          "internalType": "uint40",
          "name": "",
          "type": "uint40"
        }
      ],
      "stateMutability": "view",
      "type": "function"
    },
    {
      "inputs": [
        {
          "internalType": "uint40",
          "name": "",
          "type": "uint40"
        }
      ],
      "name": "s_orders",
      "outputs": [
        {
          "internalType": "address",
          "name": "ownerAddress",
          "type": "address"
        },
        {
          "internalType": "uint96",
          "name": "size",
          "type": "uint96"
        },
        {
          "internalType": "uint40",
          "name": "prev",
          "type": "uint40"
        },
        {
          "internalType": "uint40",
          "name": "next",
          "type": "uint40"
        },
        {
          "internalType": "uint24",
          "name": "price",
          "type": "uint24"
        },
        {
          "internalType": "bool",
          "name": "isBuy",
          "type": "bool"
        }
      ],
      "stateMutability": "view",
      "type": "function"
    },
    {
      "inputs": [
        {
          "internalType": "uint256",
          "name": "",
          "type": "uint256"
        }
      ],
      "name": "s_sellPricePoints",
      "outputs": [
        {
          "internalType": "uint40",
          "name": "head",
          "type": "uint40"
        },
        {
          "internalType": "uint40",
          "name": "tail",
          "type": "uint40"
        }
      ],
      "stateMutability": "view",
      "type": "function"
    },
    {
      "inputs": [],
      "name": "s_sellTree",
      "outputs": [
        {
          "internalType": "bytes32",
          "name": "level0",
          "type": "bytes32"
        }
      ],
      "stateMutability": "view",
      "type": "function"
    },
    {
      "inputs": [],
      "name": "sellOrdersLeft",
      "outputs": [
        {
          "internalType": "bool",
          "name": "",
          "type": "bool"
        }
      ],
      "stateMutability": "view",
      "type": "function"
    },
    {
      "inputs": [
        {
          "internalType": "address",
          "name": "newOwner",
          "type": "address"
        }
      ],
      "name": "transferOwnership",
      "outputs": [],
      "stateMutability": "nonpayable",
      "type": "function"
    },
    {
      "inputs": [
        {
          "internalType": "address",
          "name": "newImplementation",
          "type": "address"
        }
      ],
      "name": "upgradeTo",
      "outputs": [],
      "stateMutability": "nonpayable",
      "type": "function"
    },
    {
      "inputs": [
        {
          "internalType": "address",
          "name": "newImplementation",
          "type": "address"
        },
        {
          "internalType": "bytes",
          "name": "data",
          "type": "bytes"
        }
      ],
      "name": "upgradeToAndCall",
      "outputs": [],
      "stateMutability": "payable",
      "type": "function"
    }
  ],
  "bytecode": "0x60a0604052306080523480156200001557600080fd5b506200002062000026565b620000e7565b600054610100900460ff1615620000935760405162461bcd60e51b815260206004820152602760248201527f496e697469616c697a61626c653a20636f6e747261637420697320696e697469604482015266616c697a696e6760c81b606482015260840160405180910390fd5b60005460ff90811614620000e5576000805460ff191660ff9081179091556040519081527f7f26b83ff96e1f2b6a682f133852f6798a09c465da95921460cefb38474024989060200160405180910390a15b565b6080516155c86200011f60003960008181610e3f01528181610ec4015281816112880152818161130d01526113f701526155c86000f3fe6080604052600436106102195760003560e01c8063715018a61161011d578063badc92d1116100b0578063cc57aec61161007f578063e6d29b5111610064578063e6d29b51146107d0578063f151479c1461080f578063f2fde38b1461082f57600080fd5b8063cc57aec614610790578063d2cd7d7f146107b057600080fd5b8063badc92d11461069f578063bb62b3c5146106b6578063c0e4ec9e146106d6578063cae22ee61461077057600080fd5b80638da5cb5b116100ec5780638da5cb5b146105be57806390c9427c146105e6578063962f7f9114610675578063ac3944601461068a57600080fd5b8063715018a6146105545780637b6966cb146105695780637ef5e9441461057e5780638bc75f841461059e57600080fd5b80632aa9fbdc116101b057806346fdfbb11161017f57806352d1902d1161016457806352d1902d146104ff5780635b16c9b61461051457806369b62b381461053457600080fd5b806346fdfbb1146104ca5780634f1ef286146104ec57600080fd5b80632aa9fbdc146104315780632bf1360e146104515780633659cfe614610485578063435430e9146104a557600080fd5b80631c0d9c22116101ec5780631c0d9c221461030d5780631c4f3f31146103da57806320b3fa5c146103f157806323afbff31461041157600080fd5b806302b90c651461021e57806308c8120e1461024857806308ea5bee146102805780630e2e2ffe146102b0575b600080fd5b34801561022a57600080fd5b5060cf546102359081565b6040519081526020015b60405180910390f35b34801561025457600080fd5b5060d254600160301b90046001600160601b03166040516001600160601b03909116815260200161023f565b34801561028c57600080fd5b5060d254600160901b900462ffffff1660405162ffffff909116815260200161023f565b3480156102bc57600080fd5b506102ef6102cb366004614c56565b60cb6020526000908152604090205464ffffffffff80821691600160281b90041682565b6040805164ffffffffff93841681529290911660208301520161023f565b34801561031957600080fd5b50610389610328366004614c84565b60c960205260009081526040902080546001909101546001600160a01b03821691600160a01b90046001600160601b03169064ffffffffff80821691600160281b810490911690600160501b810462ffffff1690600160681b900460ff1686565b604080516001600160a01b0390971687526001600160601b03909516602087015264ffffffffff938416948601949094529116606084015262ffffff166080830152151560a082015260c00161023f565b3480156103e657600080fd5b506103ef61084f565b005b3480156103fd57600080fd5b506103ef61040c366004614cfd565b61086e565b34801561041d57600080fd5b506103ef61042c366004614dfe565b610b37565b34801561043d57600080fd5b5061023561044c366004614e53565b610baa565b34801561045d57600080fd5b5060d25461046f9064ffffffffff1681565b60405164ffffffffff909116815260200161023f565b34801561049157600080fd5b506103ef6104a0366004614ea1565b610e35565b3480156104b157600080fd5b506104ba610fb0565b604051901515815260200161023f565b3480156104d657600080fd5b506104df610fd4565b60405161023f9190614f0c565b6103ef6104fa366004614f35565b61127e565b34801561050b57600080fd5b506102356113ea565b34801561052057600080fd5b506103ef61052f36600461500e565b6114af565b34801561054057600080fd5b506104df61054f366004614ea1565b61186e565b34801561056057600080fd5b506103ef6119a3565b34801561057557600080fd5b5060da54610235565b34801561058a57600080fd5b506104df610599366004614ea1565b6119b7565b3480156105aa57600080fd5b506103ef6105b9366004615055565b611be9565b3480156105ca57600080fd5b506033546040516001600160a01b03909116815260200161023f565b3480156105f257600080fd5b5060d25460d65460d95460d75460da5460d35460d55460408051600160901b890462ffffff168152600160301b9098046001600160601b0390811660208a01526001600160a01b0397881691890191909152606088019590955294909216608086015260a0850152600160601b90041660c083015260e08201526101000161023f565b34801561068157600080fd5b5060d954610235565b34801561069657600080fd5b506104ba611e3c565b3480156106ab57600080fd5b5060cc546102359081565b3480156106c257600080fd5b506103ef6106d136600461511c565b611e5d565b3480156106e257600080fd5b506106f66106f1366004614c84565b611f8d565b60405161023f929190600060e0820190506001600160a01b0384511682526001600160601b036020850151166020830152604084015164ffffffffff8082166040850152806060870151166060850152505062ffffff608085015116608083015260a0840151151560a08301528260c08301529392505050565b34801561077c57600080fd5b5061023561078b3660046151a0565b61221d565b34801561079c57600080fd5b506103ef6107ab36600461500e565b612423565b3480156107bc57600080fd5b506103ef6107cb36600461511c565b612806565b3480156107dc57600080fd5b506102ef6107eb366004614c56565b60ca6020526000908152604090205464ffffffffff80821691600160281b90041682565b34801561081b57600080fd5b506104df61082a366004614ea1565b61292e565b34801561083b57600080fd5b506103ef61084a366004614ea1565b612a5c565b610857612ae9565b60d2805465ff00000000001916600160281b179055565b60d254600160281b900460ff16156108cd5760405162461bcd60e51b815260206004820152601b60248201527f4f72646572426f6f6b3a206d61726b657420697320706175736564000000000060448201526064015b60405180910390fd5b8988146109425760405162461bcd60e51b815260206004820152603760248201527f4f72646572426f6f6b3a204275792070726963657320616e642073697a65732060448201527f6172726179206c656e677468206d757374206d6174636800000000000000000060648201526084016108c4565b8584146109b75760405162461bcd60e51b815260206004820152603860248201527f4f72646572426f6f6b3a2053656c6c2070726963657320616e642073697a657360448201527f206172726179206c656e677468206d757374206d61746368000000000000000060648201526084016108c4565b60005b8a811015610a2b57610a198c8c838181106109d7576109d76151bc565b90506020020160208101906109ec91906151d2565b8b8b848181106109fe576109fe6151bc565b9050602002016020810190610a1391906151ed565b84612423565b80610a238161521e565b9150506109ba565b5060005b86811015610aa057610a8e888883818110610a4c57610a4c6151bc565b9050602002016020810190610a6191906151d2565b878784818110610a7357610a736151bc565b9050602002016020810190610a8891906151ed565b846114af565b80610a988161521e565b915050610a2f565b5060005b82811015610aee57610adb848483818110610ac157610ac16151bc565b9050602002016020810190610ad69190614c84565b612b43565b5080610ae68161521e565b915050610aa4565b507f386974f41b61738b510019ccd5a3524a43eccf0d136929e09d524e87aeeca2c4838333604051610b2293929190615237565b60405180910390a15050505050505050505050565b60005b81811015610b6a57610b57838383818110610ac157610ac16151bc565b5080610b628161521e565b915050610b3a565b507f386974f41b61738b510019ccd5a3524a43eccf0d136929e09d524e87aeeca2c4828233604051610b9e93929190615237565b60405180910390a15050565b60d254600090600160281b900460ff1615610c075760405162461bcd60e51b815260206004820152601b60248201527f4f72646572426f6f6b3a206d61726b657420697320706175736564000000000060448201526064016108c4565b60d75460d85460d25460da546000936001600160a01b03908116936323b872dd933393919092169162ffffff600160901b9091041690610c4890600a615377565b610c579062ffffff8b16615383565b610c6191906153b0565b6040516001600160e01b031960e086901b1681526001600160a01b03938416600482015292909116602483015260448201526064016020604051808303816000875af1158015610cb5573d6000803e3d6000fd5b505050506040513d601f19601f82011682018060405250810190610cd991906153c4565b50610ce962ffffff85600061305a565b909450905062ffffff841615610e2c578215610d565760405162461bcd60e51b815260206004820152602660248201527f4f72646572426f6f6b3a20696e73756666696369656e7420766f6c756d65206f6044820152656e20626f6f6b60d01b60648201526084016108c4565b60d85460d75460d25460da546001600160a01b03938416936375eab98e933393911691600160901b90910462ffffff1690610d9290600a615377565b610da19062ffffff8b16615383565b610dab91906153b0565b6040516001600160e01b031960e086901b1681526001600160a01b0393841660048201529290911660248301526044820152600060648201526084016020604051808303816000875af1158015610e06573d6000803e3d6000fd5b505050506040513d601f19601f82011682018060405250810190610e2a91906153c4565b505b90505b92915050565b6001600160a01b037f0000000000000000000000000000000000000000000000000000000000000000163003610ec25760405162461bcd60e51b815260206004820152602c60248201527f46756e6374696f6e206d7573742062652063616c6c6564207468726f7567682060448201526b19195b1959d85d1958d85b1b60a21b60648201526084016108c4565b7f00000000000000000000000000000000000000000000000000000000000000006001600160a01b0316610f1d7f360894a13ba1a3210667c828492db98dca3e2076cc3735a920a3ca505d382bbc546001600160a01b031690565b6001600160a01b031614610f885760405162461bcd60e51b815260206004820152602c60248201527f46756e6374696f6e206d7573742062652063616c6c6564207468726f7567682060448201526b6163746976652070726f787960a01b60648201526084016108c4565b610f918161335d565b60408051600080825260208201909252610fad91839190613365565b50565b6000610fbe60cf6000613505565b62ffffff1615610fce5750600190565b50600090565b6060600043604051602001610feb91815260200190565b6040516020818303038152906040529050600061100a60cc6000613505565b90505b62ffffff81811614801590611026575062ffffff811615155b1561111f5762ffffff8116600090815260ca602052604081205464ffffffffff16905b64ffffffffff8216156110b45764ffffffffff8216600090815260c9602052604090205461108790600160a01b90046001600160601b0316826153e1565b64ffffffffff928316600090815260c96020526040902060010154600160281b9004909216919050611049565b6040805162ffffff851660208201526001600160601b03831681830152815180820383018152606082019092526110ef918691608001615401565b60408051601f19818403018152919052935061111660cc611111856001615430565b613505565b9250505061100d565b604080516000602082015283910160408051601f198184030181529082905261114b9291602001615401565b604051602081830303815290604052915061116860cf6000613505565b90505b62ffffff81811614801590611184575062ffffff811615155b156112785762ffffff8116600090815260cb602052604081205464ffffffffff16905b64ffffffffff8216156112125764ffffffffff8216600090815260c960205260409020546111e590600160a01b90046001600160601b0316826153e1565b64ffffffffff928316600090815260c96020526040902060010154600160281b90049092169190506111a7565b6040805162ffffff851660208201526001600160601b038316818301528151808203830181526060820190925261124d918691608001615401565b60408051601f19818403018152919052935061126f60cf611111856001615430565b9250505061116b565b50919050565b6001600160a01b037f000000000000000000000000000000000000000000000000000000000000000016300361130b5760405162461bcd60e51b815260206004820152602c60248201527f46756e6374696f6e206d7573742062652063616c6c6564207468726f7567682060448201526b19195b1959d85d1958d85b1b60a21b60648201526084016108c4565b7f00000000000000000000000000000000000000000000000000000000000000006001600160a01b03166113667f360894a13ba1a3210667c828492db98dca3e2076cc3735a920a3ca505d382bbc546001600160a01b031690565b6001600160a01b0316146113d15760405162461bcd60e51b815260206004820152602c60248201527f46756e6374696f6e206d7573742062652063616c6c6564207468726f7567682060448201526b6163746976652070726f787960a01b60648201526084016108c4565b6113da8261335d565b6113e682826001613365565b5050565b6000306001600160a01b037f0000000000000000000000000000000000000000000000000000000000000000161461148a5760405162461bcd60e51b815260206004820152603860248201527f555550535570677261646561626c653a206d757374206e6f742062652063616c60448201527f6c6564207468726f7567682064656c656761746563616c6c000000000000000060648201526084016108c4565b507f360894a13ba1a3210667c828492db98dca3e2076cc3735a920a3ca505d382bbc90565b60d254600160281b900460ff16156115095760405162461bcd60e51b815260206004820152601b60248201527f4f72646572426f6f6b3a206d61726b657420697320706175736564000000000060448201526064016108c4565b60d3546001600160601b03600160601b90910481169083161161156e5760405162461bcd60e51b815260206004820152601760248201527f4f72646572426f6f6b3a2053697a6520746f6f206c6f7700000000000000000060448201526064016108c4565b60d4546001600160601b03908116908316106115cc5760405162461bcd60e51b815260206004820152601960248201527f4f72646572426f6f6b3a2053697a6520746f6f206c617267650000000000000060448201526064016108c4565b60d3546115e7906001600160601b031662ffffff851661544c565b6001600160601b03161561163d5760405162461bcd60e51b815260206004820152601460248201527f4f72646572426f6f6b3a205469636b2053697a6500000000000000000000000060448201526064016108c4565b60008362ffffff16116116925760405162461bcd60e51b815260206004820152601860248201527f4f72646572426f6f6b3a20507269636520746f6f206c6f77000000000000000060448201526064016108c4565b60d65460d25460d9546000926116ee926001600160a01b0390911691600160301b9091046001600160601b0316906116cb90600a615377565b6116de906001600160601b038816615383565b6116e891906153b0565b33613651565b6116fa848460016136ef565b9093509050811561176357600081116117635760405162461bcd60e51b815260206004820152602560248201527f4f72646572426f6f6b3a20506f7374206f6e6c792063726f737365642074686560448201526420626f6f6b60d81b60648201526084016108c4565b826001600160601b031660000361177a5750505050565b60d25464ffffffffff1661178f816001615472565b60d2805464ffffffffff191664ffffffffff929092169190911790556117b660cf8661389b565b5062ffffff8516600090815260cb602052604081206117df906117da846001615472565b613936565b90506117f986866117f1856001615472565b6000856139a2565b7fde65ec26e567cef1936a693231b33b08ce40fca66ce0e78b38d938048c7a0891611825836001615472565b6040805164ffffffffff90921682523360208301526001600160601b0388169082015262ffffff881660608201526000608082015260a00160405180910390a15050505b505050565b606060004360405160200161188591815260200190565b604051602081830303815290604052905060006118a460cc6000613505565b90505b62ffffff818116148015906118c0575062ffffff811615155b1561199c5762ffffff8116600090815260ca602052604090205464ffffffffff165b64ffffffffff8116156119845764ffffffffff8116600090815260c960205260409020546001600160a01b0380871691160361195c576040805164ffffffffff8316602082015284910160408051601f198184030181529082905261194a9291602001615401565b60405160208183030381529060405292505b64ffffffffff908116600090815260c96020526040902060010154600160281b9004166118e2565b61199460cc611111846001615430565b9150506118a7565b5092915050565b6119ab612ae9565b6119b56000613aba565b565b60606000436040516020016119ce91815260200190565b604051602081830303815290604052905060006119ed60cc6000613505565b90505b62ffffff81811614801590611a09575062ffffff811615155b15611ae55762ffffff8116600090815260ca602052604090205464ffffffffff165b64ffffffffff811615611acd5764ffffffffff8116600090815260c960205260409020546001600160a01b03808716911603611aa5576040805164ffffffffff8316602082015284910160408051601f1981840301815290829052611a939291602001615401565b60405160208183030381529060405292505b64ffffffffff908116600090815260c96020526040902060010154600160281b900416611a2b565b611add60cc611111846001615430565b9150506119f0565b611af160cf6000613505565b90505b62ffffff81811614801590611b0d575062ffffff811615155b1561199c5762ffffff8116600090815260cb602052604090205464ffffffffff165b64ffffffffff811615611bd15764ffffffffff8116600090815260c960205260409020546001600160a01b03808716911603611ba9576040805164ffffffffff8316602082015284910160408051601f1981840301815290829052611b979291602001615401565b60405160208183030381529060405292505b64ffffffffff908116600090815260c96020526040902060010154600160281b900416611b2f565b611be160cf611111846001615430565b915050611af4565b600054610100900460ff1615808015611c095750600054600160ff909116105b80611c235750303b158015611c23575060005460ff166001145b611c955760405162461bcd60e51b815260206004820152602e60248201527f496e697469616c697a61626c653a20636f6e747261637420697320616c72656160448201527f647920696e697469616c697a656400000000000000000000000000000000000060648201526084016108c4565b6000805460ff191660011790558015611cb8576000805461ff0019166101001790555b611cc0613b19565b611cc98d613aba565b60d6805473ffffffffffffffffffffffffffffffffffffffff199081166001600160a01b038f81169190911790925560d7805482168d841617905560d98d905560da8b905560d88054909116918a1691909117905560d280547fffffffffffffffffffffff000000000000000000000000000000ffffffffffff16600160301b6001600160601b038a8116919091027fffffffffffffffffffffff000000ffffffffffffffffffffffffffffffffffff1691909117600160901b62ffffff8a16021790915560d380548783167fffffffffffffffff00000000000000000000000000000000000000000000000090911617600160601b8784160217905560d480546bffffffffffffffffffffffff191691851691909117905560d58290558015611e2d576000805461ff0019169055604051600181527f7f26b83ff96e1f2b6a682f133852f6798a09c465da95921460cefb38474024989060200160405180910390a15b50505050505050505050505050565b600062ffffff611e4d60cc82613b8c565b62ffffff1614610fce5750600190565b60d254600160281b900460ff1615611eb75760405162461bcd60e51b815260206004820152601b60248201527f4f72646572426f6f6b3a206d61726b657420697320706175736564000000000060448201526064016108c4565b838214611f2c5760405162461bcd60e51b815260206004820152603360248201527f4f72646572426f6f6b3a2050726963657320616e642073697a6573206172726160448201527f79206c656e677468206d757374206d617463680000000000000000000000000060648201526084016108c4565b60005b84811015611f8557611f73868683818110611f4c57611f4c6151bc565b9050602002016020810190611f6191906151d2565b8585848181106109fe576109fe6151bc565b80611f7d8161521e565b915050611f2f565b505050505050565b6040805160c081018252600080825260208201819052918101829052606081018290526080810182905260a081019190915264ffffffffff828116600090815260c960209081526040808320815160c08101835281546001600160a01b0381168252600160a01b90046001600160601b03169381019390935260010154808516918301829052600160281b81049094166060830152600160501b840462ffffff166080830152600160681b90930460ff16151560a08201529091156120ff5760408082015164ffffffffff908116600090815260c96020529190912060010154600160281b9004811690851614612088579360009350915050565b8060a00151156120cb57608081015162ffffff16600090815260ca602052604090205464ffffffffff808616911611156120c6579360019350915050565b612213565b608081015162ffffff16600090815260cb602052604090205464ffffffffff808616911611156120c6579360019350915050565b8060a00151156121ba57608081015162ffffff16600090815260ca602052604090205464ffffffffff8581169116146120c657606081015164ffffffffff16158015612156575060208101516001600160601b0316155b15612165579360019350915050565b606081015164ffffffffff16158015906121a15750606081015164ffffffffff908116600090815260c960205260409020600101548116908516145b156121b0579360019350915050565b9360009350915050565b608081015162ffffff16600090815260cb602052604090205464ffffffffff85811691161461221357606081015164ffffffffff16158015612156575060208101516001600160601b0316612165579360019350915050565b9360029350915050565b60d254600090600160281b900460ff161561227a5760405162461bcd60e51b815260206004820152601b60248201527f4f72646572426f6f6b3a206d61726b657420697320706175736564000000000060448201526064016108c4565b60d65460d85460d25460d9546001600160a01b03938416936323b872dd933393911691600160301b9091046001600160601b0316906122ba90600a615377565b6122cd906001600160601b038a16615383565b6122d791906153b0565b6040516001600160e01b031960e086901b1681526001600160a01b03938416600482015292909116602483015260448201526064016020604051808303816000875af115801561232b573d6000803e3d6000fd5b505050506040513d601f19601f8201168201806040525081019061234f91906153c4565b50600061235f60008560006136ef565b90945090506001600160601b03841615610e2c5782156123d05760405162461bcd60e51b815260206004820152602660248201527f4f72646572426f6f6b3a20696e73756666696369656e7420766f6c756d65206f6044820152656e20626f6f6b60d01b60648201526084016108c4565b60d85460d65460d25460d9546001600160a01b03938416936375eab98e933393911691600160301b9091046001600160601b03169061241090600a615377565b610da1906001600160601b038b16615383565b60d254600160281b900460ff161561247d5760405162461bcd60e51b815260206004820152601b60248201527f4f72646572426f6f6b3a206d61726b657420697320706175736564000000000060448201526064016108c4565b60008362ffffff16116124d25760405162461bcd60e51b815260206004820152601860248201527f4f72646572426f6f6b3a20507269636520746f6f206c6f77000000000000000060448201526064016108c4565b60d3546001600160601b03600160601b9091048116908316116125375760405162461bcd60e51b815260206004820152601760248201527f4f72646572426f6f6b3a2053697a6520746f6f206c6f7700000000000000000060448201526064016108c4565b60d4546001600160601b03908116908316106125955760405162461bcd60e51b815260206004820152601960248201527f4f72646572426f6f6b3a2053697a6520746f6f206c617267650000000000000060448201526064016108c4565b60d3546125b0906001600160601b031662ffffff851661544c565b6001600160601b0316156126065760405162461bcd60e51b815260206004820152601460248201527f4f72646572426f6f6b3a205469636b2053697a6500000000000000000000000060448201526064016108c4565b6000806126138585613cbc565b60d2549193509150600160301b90046001600160601b031661263a62ffffff871684615490565b61264491906154bb565b61264e9082615430565b60d75460d25460da54929350612692926001600160a01b0390921691600160901b90910462ffffff169061268390600a615377565b6116de9062ffffff8616615383565b821561270757816001600160601b0316846001600160601b0316146127075760405162461bcd60e51b815260206004820152602560248201527f4f72646572426f6f6b3a20506f7374206f6e6c792063726f737365642074686560448201526420626f6f6b60d81b60648201526084016108c4565b6001600160601b038216156127ff5760d25464ffffffffff1661272b816001615472565b60d2805464ffffffffff191664ffffffffff9290921691909117905561275260cc8761389b565b5062ffffff8616600090815260ca60205260408120612776906117da846001615472565b90506127908785612788856001615472565b6001856139a2565b7fde65ec26e567cef1936a693231b33b08ce40fca66ce0e78b38d938048c7a08916127bc836001615472565b6040805164ffffffffff90921682523360208301526001600160601b0387169082015262ffffff891660608201526001608082015260a00160405180910390a150505b5050505050565b60d254600160281b900460ff16156128605760405162461bcd60e51b815260206004820152601b60248201527f4f72646572426f6f6b3a206d61726b657420697320706175736564000000000060448201526064016108c4565b8382146128d55760405162461bcd60e51b815260206004820152603360248201527f4f72646572426f6f6b3a2050726963657320616e642073697a6573206172726160448201527f79206c656e677468206d757374206d617463680000000000000000000000000060648201526084016108c4565b60005b84811015611f855761291c8686838181106128f5576128f56151bc565b905060200201602081019061290a91906151d2565b858584818110610a7357610a736151bc565b806129268161521e565b9150506128d8565b606060004360405160200161294591815260200190565b6040516020818303038152906040529050600061296460cf6000613505565b90505b62ffffff81811614801590612980575062ffffff811615155b1561199c5762ffffff8116600090815260cb602052604090205464ffffffffff165b64ffffffffff811615612a445764ffffffffff8116600090815260c960205260409020546001600160a01b03808716911603612a1c576040805164ffffffffff8316602082015284910160408051601f1981840301815290829052612a0a9291602001615401565b60405160208183030381529060405292505b64ffffffffff908116600090815260c96020526040902060010154600160281b9004166129a2565b612a5460cf611111846001615430565b915050612967565b612a64612ae9565b6001600160a01b038116612ae05760405162461bcd60e51b815260206004820152602660248201527f4f776e61626c653a206e6577206f776e657220697320746865207a65726f206160448201527f646472657373000000000000000000000000000000000000000000000000000060648201526084016108c4565b610fad81613aba565b6033546001600160a01b031633146119b55760405162461bcd60e51b815260206004820181905260248201527f4f776e61626c653a2063616c6c6572206973206e6f7420746865206f776e657260448201526064016108c4565b64ffffffffff818116600090815260c960209081526040808320815160c08101835281546001600160a01b0381168252600160a01b90046001600160601b0316938101939093526001015480851691830191909152600160281b81049093166060820152600160501b830462ffffff166080820152600160681b90920460ff16151560a083015290612bd58382613fb1565b80516001600160a01b03163314612c545760405162461bcd60e51b815260206004820152602c60248201527f4f72646572426f6f6b3a204f6e6c79206f72646572206f776e65722063616e2060448201527f63616e63656c206f72646572000000000000000000000000000000000000000060648201526084016108c4565b604081015164ffffffffff1615612ca957606081015160408083015164ffffffffff908116600090815260c960205291909120600101805491909216600160281b0269ffffffffff0000000000199091161790555b606081015164ffffffffff1615612cf457604081810151606083015164ffffffffff908116600090815260c960205292909220600101805464ffffffffff1916929091169190911790555b8060a0015115612ebf57608081015162ffffff16600090815260ca602052604090205464ffffffffff90811690841603612d5157608081015162ffffff16600090815260ca602052604090206060820151612d4f9190614237565b505b612d7f60ca6000836080015162ffffff1681526020019081526020016000208260400151836060015161427b565b806060015164ffffffffff16816040015164ffffffffff1603612dad57612dab60cc82608001516142d0565b505b60d854815160d75460d25460da546001600160a01b03948516946375eab98e94931691600160901b900462ffffff1690612de890600a615377565b60d260069054906101000a90046001600160601b0316876080015162ffffff168860200151612e179190615490565b612e2191906154bb565b62ffffff16612e309190615383565b612e3a91906153b0565b6040516001600160e01b031960e086901b1681526001600160a01b0393841660048201529290911660248301526044820152600160648201526084016020604051808303816000875af1158015612e95573d6000803e3d6000fd5b505050506040513d601f19601f82011682018060405250810190612eb991906153c4565b50613050565b608081015162ffffff16600090815260cb602052604090205464ffffffffff90811690841603612f1257608081015162ffffff16600090815260cb602052604090206060820151612f109190614237565b505b612f4060cb6000836080015162ffffff1681526020019081526020016000208260400151836060015161427b565b806060015164ffffffffff16816040015164ffffffffff1603612f6e57612f6c60cf82608001516142d0565b505b60d854815160d65460d25460d9546001600160a01b03948516946375eab98e94931691600160301b90046001600160601b031690612fad90600a615377565b86602001516001600160601b0316612fc59190615383565b612fcf91906153b0565b6040516001600160e01b031960e086901b1681526001600160a01b0393841660048201529290911660248301526044820152600160648201526084016020604051808303816000875af115801561302a573d6000803e3d6000fd5b505050506040513d601f19601f8201168201806040525081019061304e91906153c4565b505b60a0015192915050565b60008060008061306c60cf6000613505565b9050600060605b60008862ffffff1611801561309257508862ffffff168362ffffff1611155b80156130a2575062ffffff831615155b1561318d5760008362ffffff1660d260069054906101000a90046001600160601b03168a62ffffff166130d59190615490565b6130df91906154bb565b905060606130ed82876153e1565b955061311360cf8660cb60008962ffffff16815260200190815260200160002085614364565b909250905061312282876154e1565b95508281604051602001613137929190615401565b60408051808303601f1901815291905260d254909350600160301b90046001600160601b031661316c62ffffff871684615490565b61317691906154bb565b995061318460cf6000613505565b94505050613073565b6001600160601b038416156132d45760d2546131bc9061271090600160301b90046001600160601b0316615383565b60d5546131cb90612710615501565b60da546131d990600a615377565b6131ec906001600160601b038816615383565b6131f69190615383565b61320091906153b0565b60d85460d654604080513360208201526001600160a01b0392831691810191909152606081018490528a151560808201529294501690636f5b601e90839060a0015b60408051601f19818403018152908290526132609291602001615401565b6040516020818303038152906040526040518263ffffffff1660e01b815260040161328b9190614f0c565b6020604051808303816000875af11580156132aa573d6000803e3d6000fd5b505050506040513d601f19601f820116820180604052508101906132ce91906153c4565b50613350565b8051156133505760d8546040516337adb00f60e11b81526001600160a01b0390911690636f5b601e9061330b908490600401614f0c565b6020604051808303816000875af115801561332a573d6000803e3d6000fd5b505050506040513d601f19601f8201168201806040525081019061334e91906153c4565b505b5095979596505050505050565b610fad612ae9565b7f4910fdfa16fed3260ed0e7147f7cc6da11a60208b5b9406d12a635614ffd91435460ff16156133985761186983614402565b826001600160a01b03166352d1902d6040518163ffffffff1660e01b8152600401602060405180830381865afa9250505080156133f2575060408051601f3d908101601f191682019092526133ef91810190615514565b60015b6134645760405162461bcd60e51b815260206004820152602e60248201527f45524331393637557067726164653a206e657720696d706c656d656e7461746960448201527f6f6e206973206e6f74205555505300000000000000000000000000000000000060648201526084016108c4565b7f360894a13ba1a3210667c828492db98dca3e2076cc3735a920a3ca505d382bbc81146134f95760405162461bcd60e51b815260206004820152602960248201527f45524331393637557067726164653a20756e737570706f727465642070726f7860448201527f6961626c6555554944000000000000000000000000000000000000000000000060648201526084016108c4565b506118698383836144cd565b60008061ffff600884901c1660ff80851690811461355a576000828152600287016020526040812054935061353a84836144f2565b905060001981146135585760089290921b9091179250610e2f915050565b505b5060ff80821690600883901c9082146135d4576000818152600188016020526040812054945061358a85846144f2565b905060001981146135d257600882901b8117600081815260028a016020526040902054955093506135ba85614501565b60ff1660088560001c901b1795505050505050610e2f565b505b60ff81811692508214613644578654935060006135f185846144f2565b90506000198114613642576000818152600189016020526040902054945090508061361b85614501565b60ff16600883901b17600081815260028a016020526040902054955093506135ba85614501565b505b5060009695505050505050565b60d8546040517f6c1392520000000000000000000000000000000000000000000000000000000081526001600160a01b03838116600483015285811660248301526044820185905290911690636c139252906064016020604051808303816000875af11580156136c5573d6000803e3d6000fd5b505050506040513d601f19601f820116820180604052508101906136e991906153c4565b50505050565b60008060008061370360cc62ffffff613b8c565b9050600060605b6000886001600160601b031611801561372d57508862ffffff168362ffffff1610155b801561373e575062ffffff83811614155b156137ee5762ffffff8316600090815260ca60205260409020889060609061376b9060cc90879085614364565b60d254919b509150600160301b90046001600160601b031662ffffff86166137938c856154e1565b61379d9190615490565b6137a791906154bb565b6137b19087615430565b955082816040516020016137c6929190615401565b60405160208183030381529060405292506137e560cc62ffffff613b8c565b9450505061370a565b62ffffff8416156132d45760d2546138159061271090600160901b900462ffffff16615383565b60d55461382490612710615501565b60da5461383290600a615377565b6138419062ffffff8816615383565b61384b9190615383565b61385591906153b0565b60d85460d754604080513360208201526001600160a01b0392831691810191909152606081018490528a151560808201529294501690636f5b601e90839060a001613242565b61ffff600882901c166000818152600284016020526040812054909190600160ff85161b811780821461392a576000838152600287016020526040812082905582900361391e57600883901c6000818152600180890160205260408220805460ff88169290921b82179055935083900361391c578654600160ff83161b1787555b505b60019350505050610e2f565b50600095945050505050565b8154600090600160281b900464ffffffffff1680613978578354600160281b64ffffffffff851690810269ffffffffffffffffffff1990921617178455610e2c565b835464ffffffffff8416600160281b0269ffffffffff000000000019909116178455905092915050565b6040805160c0810182523381526001600160601b03958616602080830191825264ffffffffff94851683850181815260006060860181815262ffffff9c8d166080880190815299151560a088019081529a891680835260c990955287822096519551909b16600160a01b026001600160a01b0390951694909417855551600194850180549a51985199511515600160681b026dff00000000000000000000000000199a909c16600160501b02999099166dffffffff0000000000000000000019988816600160281b90810269ffffffffffffffffffff19909c1692909816919091179990991796909616979097179790971790945591855293200180549290910269ffffffffff000000000019909216919091179055565b603380546001600160a01b0383811673ffffffffffffffffffffffffffffffffffffffff19831681179093556040519116919082907f8be0079c531659141344cd1fd0a4f28419497f9722a3daafe3b4186f6b6457e090600090a35050565b600054610100900460ff16613b845760405162461bcd60e51b815260206004820152602b60248201527f496e697469616c697a61626c653a20636f6e7472616374206973206e6f74206960448201526a6e697469616c697a696e6760a81b60648201526084016108c4565b6119b561459d565b60008061ffff600884901c1660ff84168015613bdf5760008281526002870160205260408120549350613bbf8483614611565b90506000198114613bdd5760089290921b9091179250610e2f915050565b505b5060ff8116600882901c8115613c3e5760008181526001880160205260408120549450613c0c8584614611565b90506000198114613c3c57600882901b8117600081815260028a016020526040902054955093506135ba85614621565b505b60ff811691508115613cad57865493506000613c5a8584614611565b90506000198114613cab5760008181526001890160205260409020549450905080613c8485614621565b60ff16600883901b17600081815260028a016020526040902054955093506135ba85614621565b505b5062ffffff9695505050505050565b600080600080613cce60cf6000613505565b9050600060605b6000876001600160601b0316118015613cf857508762ffffff168362ffffff1611155b8015613d08575062ffffff831615155b15613dd25762ffffff8316600090815260cb602052604090206060908890613d359060cf90879084614364565b90995091506000613d468a836154e1565b9050613d5281886153e1565b60d254909750600160301b90046001600160601b0316613d7762ffffff881683615490565b613d8191906154bb565b613d8b9086615430565b9450613d968561552d565b94508383604051602001613dab929190615401565b6040516020818303038152906040529350613dc860cf6000613505565b9550505050613cd5565b6001600160601b03841615613f255760d85460d65460d2546001600160a01b0392831692636f5b601e928592339290911690613e219061271090600160301b90046001600160601b0316615383565b60d554613e3090612710615501565b60da54613e3e90600a615377565b613e51906001600160601b038d16615383565b613e5b9190615383565b613e6591906153b0565b604080516001600160a01b039485166020820152939092169183019190915260608201526001608082015260a00160408051601f1981840301815290829052613eb19291602001615401565b6040516020818303038152906040526040518263ffffffff1660e01b8152600401613edc9190614f0c565b6020604051808303816000875af1158015613efb573d6000803e3d6000fd5b505050506040513d601f19601f82011682018060405250810190613f1f91906153c4565b50613fa1565b805115613fa15760d8546040516337adb00f60e11b81526001600160a01b0390911690636f5b601e90613f5c908490600401614f0c565b6020604051808303816000875af1158015613f7b573d6000803e3d6000fd5b505050506040513d601f19601f82011682018060405250810190613f9f91906153c4565b505b50859450925050505b9250929050565b604081015164ffffffffff16156141355760408082015164ffffffffff908116600090815260c96020529190912060010154600160281b90048116908316146140475760405162461bcd60e51b815260206004820152602260248201527f4f72646572426f6f6b3a204f7264657220616c72656164792063616e63656c6c604482015261195960f21b60648201526084016108c4565b8060a00151156140c357608081015162ffffff16600090815260ca602052604090205464ffffffffff808416911611156113e65760405162461bcd60e51b815260206004820152601f60248201527f4f72646572426f6f6b3a204f7264657220616c72656164792066696c6c65640060448201526064016108c4565b608081015162ffffff16600090815260cb602052604090205464ffffffffff808416911611156113e65760405162461bcd60e51b815260206004820152601f60248201527f4f72646572426f6f6b3a204f7264657220616c72656164792066696c6c65640060448201526064016108c4565b8060a00151156141bb57608081015162ffffff16600090815260ca602052604090205464ffffffffff8381169116146113e65760405162461bcd60e51b815260206004820152602260248201527f4f72646572426f6f6b3a204f7264657220616c72656164792063616e63656c6c604482015261195960f21b60648201526084016108c4565b608081015162ffffff16600090815260cb602052604090205464ffffffffff8381169116146113e65760405162461bcd60e51b815260206004820152602260248201527f4f72646572426f6f6b3a204f7264657220616c72656164792063616e63656c6c604482015261195960f21b60648201526084016108c4565b600064ffffffffff821661425e5750815469ffffffffffffffffffff191682556001610e2f565b50815464ffffffffff191664ffffffffff91909116179055600090565b64ffffffffff821661429d57825464ffffffffff191664ffffffffff82161783555b64ffffffffff811661186957825464ffffffffff8316600160281b0269ffffffffff000000000019909116178355505050565b61ffff600882901c166000818152600284016020526040812054909190600160ff85161b19811680821461392a576000838152600287016020526040812082905581900361391e5750600882901c6000818152600187810160205260408220805460ff87169290921b1990911690819055919082900361391c578654600160ff83161b191687555060019350505050610e2f565b8154819060609064ffffffffff165b6000836001600160601b0316118015614392575064ffffffffff811615155b156143d55760606143a382856146c6565b60405192965090935091506143be9084908390602001615401565b604051602081830303815290604052925050614373565b6143df8582614237565b5064ffffffffff81166143f8576143f687876142d0565b505b5094509492505050565b6001600160a01b0381163b61447f5760405162461bcd60e51b815260206004820152602d60248201527f455243313936373a206e657720696d706c656d656e746174696f6e206973206e60448201527f6f74206120636f6e74726163740000000000000000000000000000000000000060648201526084016108c4565b7f360894a13ba1a3210667c828492db98dca3e2076cc3735a920a3ca505d382bbc805473ffffffffffffffffffffffffffffffffffffffff19166001600160a01b0392909216919091179055565b6144d683614944565b6000825111806144e35750805b15611869576136e98383614984565b6000610e2c83600184016149a9565b60008160801b801561451557608091508092505b8260401b90508015614528579150604001815b8260201b9050801561453b579150602001815b8260101b9050801561454e579150601001815b8260081b90508015614561579150600801815b8260041b90508015614574579150600401815b8260021b90508015614587579150600201815b508160011b15614595576001015b60ff03919050565b600054610100900460ff166146085760405162461bcd60e51b815260206004820152602b60248201527f496e697469616c697a61626c653a20636f6e7472616374206973206e6f74206960448201526a6e697469616c697a696e6760a81b60648201526084016108c4565b6119b533613aba565b6000610e2c8360001984016149d7565b60006fffffffffffffffffffffffffffffffff8211156146435750608090811c905b67ffffffffffffffff82111561465b57604091821c91015b63ffffffff82111561466f57602091821c91015b61ffff82111561468157601091821c91015b60ff82111561469257600891821c91015b600f8211156146a357600491821c91015b60038211156146b457600291821c91015b60018211156146c1576001015b919050565b64ffffffffff808316600090815260c960205260408120600181015490549192600160281b90910416906060906001600160601b03600160a01b9091048116908516811061471557600061471f565b61471f81866154e1565b93506000846001600160601b03166000036147415761473e86836154e1565b90505b64ffffffffff8716600090815260c960205260409020600181015490546147df91600160681b900460ff1615906001600160a01b03166001600160601b038816156147b25764ffffffffff8a16600090815260c96020526040902054600160a01b90046001600160601b03166147b4565b885b64ffffffffff8b16600090815260c96020526040902060010154600160501b900462ffffff16614a09565b92506001600160601b0385161580614820575064ffffffffff8416158015614820575064ffffffffff878116600090815260c9602052604090206001015416155b1561486d576001600160601b03811615614838578693505b64ffffffffff8716600090815260c96020526040902080546001600160a01b0316600160a01b6001600160601b038416021790555b64ffffffffff8716600090815260c96020526040902080546001909101547fc3e5ebc67b1c43b899775c1f57978f06dcefb5d482e0484e5d30c1703b01f32c9189916001600160a01b0390911690600160681b810460ff1690600160501b900462ffffff1685336148de8c8e6154e1565b6040805164ffffffffff90981688526001600160a01b0396871660208901529415159487019490945262ffffff90921660608601526001600160601b039081166080860152921660a08401521660c082015260e00160405180910390a150509250925092565b61494d81614402565b6040516001600160a01b038216907fbc7cd75a20ee27fd9adebab32041f755214dbc6bffa90cc0225b39da2e5c2d3b90600090a250565b6060610e2c838360405180606001604052806027815260200161556c60279139614ad5565b60ff81169190911c90600082156149cd57816149c484614501565b0160ff16610e2c565b5060001992915050565b60ff8181031691821b9160009083156149fd57806149f485614621565b60ff1603614a01565b6000195b949350505050565b6060600085614a235760d6546001600160a01b0316614a30565b60d7546001600160a01b03165b9050600086614a7e5760d25460d954600160301b9091046001600160601b031690614a5c90600a615377565b614a6f906001600160601b038816615383565b614a7991906153b0565b614a8d565b614a8d858562ffffff16614b4d565b604080516001600160a01b039889166020820152939097168388015260608301525060016080808301919091528551808303909101815260a090910190945250919392505050565b6060600080856001600160a01b031685604051614af2919061554f565b600060405180830381855af49150503d8060008114614b2d576040519150601f19603f3d011682016040523d82523d6000602084013e614b32565b606091505b5091509150614b4386838387614bb8565b9695505050505050565b60d254600090614b7990600160301b81046001600160601b031690600160901b900462ffffff16615490565b6001600160601b031660da54600a614b919190615377565b614b9b8486615490565b6001600160601b0316614bae9190615383565b610e2c91906153b0565b60608315614c27578251600003614c20576001600160a01b0385163b614c205760405162461bcd60e51b815260206004820152601d60248201527f416464726573733a2063616c6c20746f206e6f6e2d636f6e747261637400000060448201526064016108c4565b5081614a01565b614a018383815115614c3c5781518083602001fd5b8060405162461bcd60e51b81526004016108c49190614f0c565b600060208284031215614c6857600080fd5b5035919050565b803564ffffffffff811681146146c157600080fd5b600060208284031215614c9657600080fd5b610e2c82614c6f565b60008083601f840112614cb157600080fd5b50813567ffffffffffffffff811115614cc957600080fd5b6020830191508360208260051b8501011115613faa57600080fd5b8015158114610fad57600080fd5b80356146c181614ce4565b600080600080600080600080600080600060c08c8e031215614d1e57600080fd5b67ffffffffffffffff808d351115614d3557600080fd5b614d428e8e358f01614c9f565b909c509a5060208d0135811015614d5857600080fd5b614d688e60208f01358f01614c9f565b909a50985060408d0135811015614d7e57600080fd5b614d8e8e60408f01358f01614c9f565b909850965060608d0135811015614da457600080fd5b614db48e60608f01358f01614c9f565b909650945060808d0135811015614dca57600080fd5b50614ddb8d60808e01358e01614c9f565b9093509150614dec60a08d01614cf2565b90509295989b509295989b9093969950565b60008060208385031215614e1157600080fd5b823567ffffffffffffffff811115614e2857600080fd5b614e3485828601614c9f565b90969095509350505050565b803562ffffff811681146146c157600080fd5b60008060408385031215614e6657600080fd5b614e6f83614e40565b91506020830135614e7f81614ce4565b809150509250929050565b80356001600160a01b03811681146146c157600080fd5b600060208284031215614eb357600080fd5b610e2c82614e8a565b60005b83811015614ed7578181015183820152602001614ebf565b50506000910152565b60008151808452614ef8816020860160208601614ebc565b601f01601f19169290920160200192915050565b602081526000610e2c6020830184614ee0565b634e487b7160e01b600052604160045260246000fd5b60008060408385031215614f4857600080fd5b614f5183614e8a565b9150602083013567ffffffffffffffff80821115614f6e57600080fd5b818501915085601f830112614f8257600080fd5b813581811115614f9457614f94614f1f565b604051601f8201601f19908116603f01168101908382118183101715614fbc57614fbc614f1f565b81604052828152886020848701011115614fd557600080fd5b8260208601602083013760006020848301015280955050505050509250929050565b80356001600160601b03811681146146c157600080fd5b60008060006060848603121561502357600080fd5b61502c84614e40565b925061503a60208501614ff7565b9150604084013561504a81614ce4565b809150509250925092565b6000806000806000806000806000806000806101808d8f03121561507857600080fd5b6150818d614e8a565b9b5061508f60208e01614e8a565b9a5060408d013599506150a460608e01614e8a565b985060808d013597506150b960a08e01614e8a565b96506150c760c08e01614ff7565b95506150d560e08e01614e40565b94506150e46101008e01614ff7565b93506150f36101208e01614ff7565b92506151026101408e01614ff7565b91506101608d013590509295989b509295989b509295989b565b60008060008060006060868803121561513457600080fd5b853567ffffffffffffffff8082111561514c57600080fd5b61515889838a01614c9f565b9097509550602088013591508082111561517157600080fd5b5061517e88828901614c9f565b909450925050604086013561519281614ce4565b809150509295509295909350565b600080604083850312156151b357600080fd5b614e6f83614ff7565b634e487b7160e01b600052603260045260246000fd5b6000602082840312156151e457600080fd5b610e2c82614e40565b6000602082840312156151ff57600080fd5b610e2c82614ff7565b634e487b7160e01b600052601160045260246000fd5b60006001820161523057615230615208565b5060010190565b6040808252810183905260008460608301825b868110156152765764ffffffffff61526184614c6f565b1682526020928301929091019060010161524a565b5080925050506001600160a01b0383166020830152949350505050565b600181815b808511156152ce5781600019048211156152b4576152b4615208565b808516156152c157918102915b93841c9390800290615298565b509250929050565b6000826152e557506001610e2f565b816152f257506000610e2f565b816001811461530857600281146153125761532e565b6001915050610e2f565b60ff84111561532357615323615208565b50506001821b610e2f565b5060208310610133831016604e8410600b8410161715615351575081810a610e2f565b61535b8383615293565b806000190482111561536f5761536f615208565b029392505050565b6000610e2c83836152d6565b8082028115828204841417610e2f57610e2f615208565b634e487b7160e01b600052601260045260246000fd5b6000826153bf576153bf61539a565b500490565b6000602082840312156153d657600080fd5b8151610e2c81614ce4565b6001600160601b0381811683821601908082111561199c5761199c615208565b60008351615413818460208801614ebc565b835190830190615427818360208801614ebc565b01949350505050565b62ffffff81811683821601908082111561199c5761199c615208565b60006001600160601b03808416806154665761546661539a565b92169190910692915050565b64ffffffffff81811683821601908082111561199c5761199c615208565b6001600160601b038181168382160280821691908281146154b3576154b3615208565b505092915050565b60006001600160601b03808416806154d5576154d561539a565b92169190910492915050565b6001600160601b0382811682821603908082111561199c5761199c615208565b81810381811115610e2f57610e2f615208565b60006020828403121561552657600080fd5b5051919050565b600062ffffff80831681810361554557615545615208565b6001019392505050565b60008251615561818460208701614ebc565b919091019291505056fe416464726573733a206c6f772d6c6576656c2064656c65676174652063616c6c206661696c6564a26469706673582212200d9b3703359fa8e2b40248f424a78d8886b418378db140dc824ba27ad8f96f5d64736f6c63430008110033",
  "linkReferences": {},
  "deployedLinkReferences": {}
}