{
  "_format": "hh-sol-artifact-1",
  "contractName": "OrderBook",
  "sourceName": "contracts/OrderBook.sol",
  "abi": [
    {
      "inputs": [],
      "stateMutability": "nonpayable",
      "type": "constructor"
    },
    {
      "anonymous": false,
      "inputs": [
        {
          "indexed": false,
          "internalType": "address",
          "name": "previousAdmin",
          "type": "address"
        },
        {
          "indexed": false,
          "internalType": "address",
          "name": "newAdmin",
          "type": "address"
        }
      ],
      "name": "AdminChanged",
      "type": "event"
    },
    {
      "anonymous": false,
      "inputs": [
        {
          "indexed": true,
          "internalType": "address",
          "name": "beacon",
          "type": "address"
        }
      ],
      "name": "BeaconUpgraded",
      "type": "event"
    },
    {
      "anonymous": false,
      "inputs": [
        {
          "indexed": false,
          "internalType": "uint8",
          "name": "version",
          "type": "uint8"
        }
      ],
      "name": "Initialized",
      "type": "event"
    },
    {
      "anonymous": false,
      "inputs": [
        {
          "indexed": false,
          "internalType": "uint40",
          "name": "orderId",
          "type": "uint40"
        },
        {
          "indexed": false,
          "internalType": "address",
          "name": "owner",
          "type": "address"
        },
        {
          "indexed": false,
          "internalType": "uint96",
          "name": "size",
          "type": "uint96"
        },
        {
          "indexed": false,
          "internalType": "uint24",
          "name": "price",
          "type": "uint24"
        },
        {
          "indexed": false,
          "internalType": "bool",
          "name": "isBuy",
          "type": "bool"
        }
      ],
      "name": "OrderCreated",
      "type": "event"
    },
    {
      "anonymous": false,
      "inputs": [
        {
          "indexed": false,
          "internalType": "uint40[]",
          "name": "orderId",
          "type": "uint40[]"
        },
        {
          "indexed": false,
          "internalType": "address",
          "name": "owner",
          "type": "address"
        }
      ],
      "name": "OrdersCanceled",
      "type": "event"
    },
    {
      "anonymous": false,
      "inputs": [
        {
          "indexed": true,
          "internalType": "address",
          "name": "previousOwner",
          "type": "address"
        },
        {
          "indexed": true,
          "internalType": "address",
          "name": "newOwner",
          "type": "address"
        }
      ],
      "name": "OwnershipTransferred",
      "type": "event"
    },
    {
      "anonymous": false,
      "inputs": [
        {
          "indexed": false,
          "internalType": "uint40",
          "name": "orderId",
          "type": "uint40"
        },
        {
          "indexed": false,
          "internalType": "address",
          "name": "makerAddress",
          "type": "address"
        },
        {
          "indexed": false,
          "internalType": "bool",
          "name": "isBuy",
          "type": "bool"
        },
        {
          "indexed": false,
          "internalType": "uint24",
          "name": "price",
          "type": "uint24"
        },
        {
          "indexed": false,
          "internalType": "uint96",
          "name": "updatedSize",
          "type": "uint96"
        },
        {
          "indexed": false,
          "internalType": "address",
          "name": "takerAddress",
          "type": "address"
        },
        {
          "indexed": false,
          "internalType": "uint96",
          "name": "filledSize",
          "type": "uint96"
        }
      ],
      "name": "Trade",
      "type": "event"
    },
    {
      "anonymous": false,
      "inputs": [
        {
          "indexed": true,
          "internalType": "address",
          "name": "implementation",
          "type": "address"
        }
      ],
      "name": "Upgraded",
      "type": "event"
    },
    {
      "inputs": [
        {
          "internalType": "uint24",
          "name": "_price",
          "type": "uint24"
        },
        {
          "internalType": "uint96",
          "name": "size",
          "type": "uint96"
        },
        {
          "internalType": "bool",
          "name": "_postOnly",
          "type": "bool"
        }
      ],
      "name": "addBuyOrder",
      "outputs": [],
      "stateMutability": "nonpayable",
      "type": "function"
    },
    {
      "inputs": [
        {
          "internalType": "uint24",
          "name": "_price",
          "type": "uint24"
        },
        {
          "internalType": "uint96",
          "name": "size",
          "type": "uint96"
        },
        {
          "internalType": "bool",
          "name": "_postOnly",
          "type": "bool"
        }
      ],
      "name": "addSellOrder",
      "outputs": [],
      "stateMutability": "nonpayable",
      "type": "function"
    },
    {
      "inputs": [
        {
          "internalType": "uint40[]",
          "name": "_orderIds",
          "type": "uint40[]"
        }
      ],
      "name": "batchCancelOrders",
      "outputs": [],
      "stateMutability": "nonpayable",
      "type": "function"
    },
    {
      "inputs": [
        {
          "internalType": "uint24[]",
          "name": "buyPrices",
          "type": "uint24[]"
        },
        {
          "internalType": "uint96[]",
          "name": "buySizes",
          "type": "uint96[]"
        },
        {
          "internalType": "uint24[]",
          "name": "sellPrices",
          "type": "uint24[]"
        },
        {
          "internalType": "uint96[]",
          "name": "sellSizes",
          "type": "uint96[]"
        },
        {
          "internalType": "uint40[]",
          "name": "orderIdsToCancel",
          "type": "uint40[]"
        },
        {
          "internalType": "bool",
          "name": "postOnly",
          "type": "bool"
        }
      ],
      "name": "batchUpdate",
      "outputs": [],
      "stateMutability": "nonpayable",
      "type": "function"
    },
    {
      "inputs": [],
      "name": "bestBidAsk",
      "outputs": [
        {
          "internalType": "uint24",
          "name": "",
          "type": "uint24"
        },
        {
          "internalType": "uint24",
          "name": "",
          "type": "uint24"
        }
      ],
      "stateMutability": "view",
      "type": "function"
    },
    {
      "inputs": [],
      "name": "collectFees",
      "outputs": [],
      "stateMutability": "nonpayable",
      "type": "function"
    },
    {
      "inputs": [
        {
          "internalType": "address",
          "name": "_maker",
          "type": "address"
        }
      ],
      "name": "getActiveOrdersForAddress",
      "outputs": [
        {
          "internalType": "bytes",
          "name": "",
          "type": "bytes"
        }
      ],
      "stateMutability": "view",
      "type": "function"
    },
    {
      "inputs": [],
      "name": "getL2Book",
      "outputs": [
        {
          "internalType": "bytes",
          "name": "",
          "type": "bytes"
        }
      ],
      "stateMutability": "view",
      "type": "function"
    },
    {
      "inputs": [],
      "name": "getMarketParams",
      "outputs": [
        {
          "internalType": "uint24",
          "name": "",
          "type": "uint24"
        },
        {
          "internalType": "uint96",
          "name": "",
          "type": "uint96"
        },
        {
          "internalType": "address",
          "name": "",
          "type": "address"
        },
        {
          "internalType": "uint256",
          "name": "",
          "type": "uint256"
        },
        {
          "internalType": "address",
          "name": "",
          "type": "address"
        },
        {
          "internalType": "uint256",
          "name": "",
          "type": "uint256"
        },
        {
          "internalType": "uint24",
          "name": "",
          "type": "uint24"
        },
        {
          "internalType": "uint96",
          "name": "",
          "type": "uint96"
        },
        {
          "internalType": "uint96",
          "name": "",
          "type": "uint96"
        },
        {
          "internalType": "uint256",
          "name": "",
          "type": "uint256"
        },
        {
          "internalType": "uint256",
          "name": "",
          "type": "uint256"
        }
      ],
      "stateMutability": "view",
      "type": "function"
    },
    {
      "inputs": [
        {
          "internalType": "uint40",
          "name": "_orderId",
          "type": "uint40"
        }
      ],
      "name": "getOrderDetails",
      "outputs": [
        {
          "components": [
            {
              "internalType": "address",
              "name": "ownerAddress",
              "type": "address"
            },
            {
              "internalType": "uint96",
              "name": "size",
              "type": "uint96"
            },
            {
              "internalType": "uint40",
              "name": "prev",
              "type": "uint40"
            },
            {
              "internalType": "uint40",
              "name": "next",
              "type": "uint40"
            },
            {
              "internalType": "uint24",
              "name": "price",
              "type": "uint24"
            },
            {
              "internalType": "bool",
              "name": "isBuy",
              "type": "bool"
            }
          ],
          "internalType": "struct IOrderBook.Order",
          "name": "",
          "type": "tuple"
        },
        {
          "internalType": "uint256",
          "name": "",
          "type": "uint256"
        }
      ],
      "stateMutability": "view",
      "type": "function"
    },
    {
      "inputs": [],
      "name": "getVaultParams",
      "outputs": [
        {
          "internalType": "address",
          "name": "",
          "type": "address"
        },
        {
          "internalType": "uint24",
          "name": "",
          "type": "uint24"
        },
        {
          "internalType": "uint96",
          "name": "",
          "type": "uint96"
        },
        {
          "internalType": "uint24",
          "name": "",
          "type": "uint24"
        },
        {
          "internalType": "uint96",
          "name": "",
          "type": "uint96"
        },
        {
          "internalType": "uint96",
          "name": "",
          "type": "uint96"
        }
      ],
      "stateMutability": "view",
      "type": "function"
    },
    {
      "inputs": [
        {
          "internalType": "address",
          "name": "_owner",
          "type": "address"
        },
        {
          "internalType": "enum IOrderBook.OrderBookType",
          "name": "_type",
          "type": "uint8"
        },
        {
          "internalType": "address",
          "name": "_baseAssetAddress",
          "type": "address"
        },
        {
          "internalType": "uint256",
          "name": "_baseAssetDecimals",
          "type": "uint256"
        },
        {
          "internalType": "address",
          "name": "_quoteAssetAddress",
          "type": "address"
        },
        {
          "internalType": "uint256",
          "name": "_quoteAssetDecimals",
          "type": "uint256"
        },
        {
          "internalType": "address",
          "name": "_marginAccountAddress",
          "type": "address"
        },
        {
          "internalType": "uint96",
          "name": "_sizePrecision",
          "type": "uint96"
        },
        {
          "internalType": "uint24",
          "name": "_pricePrecision",
          "type": "uint24"
        },
        {
          "internalType": "uint24",
          "name": "_tickSize",
          "type": "uint24"
        },
        {
          "internalType": "uint96",
          "name": "_minSize",
          "type": "uint96"
        },
        {
          "internalType": "uint96",
          "name": "_maxSize",
          "type": "uint96"
        },
        {
          "internalType": "uint256",
          "name": "_takerFeeBps",
          "type": "uint256"
        },
        {
          "internalType": "uint256",
          "name": "_makerFeeBps",
          "type": "uint256"
        },
        {
          "internalType": "address",
          "name": "_kuruAmmVault",
          "type": "address"
        }
      ],
      "name": "initialize",
      "outputs": [],
      "stateMutability": "nonpayable",
      "type": "function"
    },
    {
      "inputs": [],
      "name": "owner",
      "outputs": [
        {
          "internalType": "address",
          "name": "",
          "type": "address"
        }
      ],
      "stateMutability": "view",
      "type": "function"
    },
    {
      "inputs": [
        {
          "internalType": "uint24",
          "name": "_quoteSize",
          "type": "uint24"
        },
        {
          "internalType": "bool",
          "name": "_isFillOrKill",
          "type": "bool"
        }
      ],
      "name": "placeAndExecuteMarketBuy",
      "outputs": [
        {
          "internalType": "uint256",
          "name": "",
          "type": "uint256"
        }
      ],
      "stateMutability": "payable",
      "type": "function"
    },
    {
      "inputs": [
        {
          "internalType": "uint96",
          "name": "_size",
          "type": "uint96"
        },
        {
          "internalType": "bool",
          "name": "_isFillOrKill",
          "type": "bool"
        }
      ],
      "name": "placeAndExecuteMarketSell",
      "outputs": [
        {
          "internalType": "uint256",
          "name": "",
          "type": "uint256"
        }
      ],
      "stateMutability": "payable",
      "type": "function"
    },
    {
      "inputs": [
        {
          "internalType": "uint24[]",
          "name": "_prices",
          "type": "uint24[]"
        },
        {
          "internalType": "uint96[]",
          "name": "_sizes",
          "type": "uint96[]"
        },
        {
          "internalType": "bool",
          "name": "_postOnly",
          "type": "bool"
        }
      ],
      "name": "placeMultipleBuyOrders",
      "outputs": [],
      "stateMutability": "nonpayable",
      "type": "function"
    },
    {
      "inputs": [
        {
          "internalType": "uint24[]",
          "name": "_prices",
          "type": "uint24[]"
        },
        {
          "internalType": "uint96[]",
          "name": "_sizes",
          "type": "uint96[]"
        },
        {
          "internalType": "bool",
          "name": "_postOnly",
          "type": "bool"
        }
      ],
      "name": "placeMultipleSellOrders",
      "outputs": [],
      "stateMutability": "nonpayable",
      "type": "function"
    },
    {
      "inputs": [],
      "name": "proxiableUUID",
      "outputs": [
        {
          "internalType": "bytes32",
          "name": "",
          "type": "bytes32"
        }
      ],
      "stateMutability": "view",
      "type": "function"
    },
    {
      "inputs": [],
      "name": "renounceOwnership",
      "outputs": [],
      "stateMutability": "nonpayable",
      "type": "function"
    },
    {
      "inputs": [
        {
          "internalType": "uint256",
          "name": "",
          "type": "uint256"
        }
      ],
      "name": "s_buyPricePoints",
      "outputs": [
        {
          "internalType": "uint40",
          "name": "head",
          "type": "uint40"
        },
        {
          "internalType": "uint40",
          "name": "tail",
          "type": "uint40"
        }
      ],
      "stateMutability": "view",
      "type": "function"
    },
    {
      "inputs": [],
      "name": "s_buyTree",
      "outputs": [
        {
          "internalType": "bytes32",
          "name": "level0",
          "type": "bytes32"
        }
      ],
      "stateMutability": "view",
      "type": "function"
    },
    {
      "inputs": [],
      "name": "s_orderIdCounter",
      "outputs": [
        {
          "internalType": "uint40",
          "name": "",
          "type": "uint40"
        }
      ],
      "stateMutability": "view",
      "type": "function"
    },
    {
      "inputs": [
        {
          "internalType": "uint40",
          "name": "",
          "type": "uint40"
        }
      ],
      "name": "s_orders",
      "outputs": [
        {
          "internalType": "address",
          "name": "ownerAddress",
          "type": "address"
        },
        {
          "internalType": "uint96",
          "name": "size",
          "type": "uint96"
        },
        {
          "internalType": "uint40",
          "name": "prev",
          "type": "uint40"
        },
        {
          "internalType": "uint40",
          "name": "next",
          "type": "uint40"
        },
        {
          "internalType": "uint24",
          "name": "price",
          "type": "uint24"
        },
        {
          "internalType": "bool",
          "name": "isBuy",
          "type": "bool"
        }
      ],
      "stateMutability": "view",
      "type": "function"
    },
    {
      "inputs": [
        {
          "internalType": "uint256",
          "name": "",
          "type": "uint256"
        }
      ],
      "name": "s_sellPricePoints",
      "outputs": [
        {
          "internalType": "uint40",
          "name": "head",
          "type": "uint40"
        },
        {
          "internalType": "uint40",
          "name": "tail",
          "type": "uint40"
        }
      ],
      "stateMutability": "view",
      "type": "function"
    },
    {
      "inputs": [],
      "name": "s_sellTree",
      "outputs": [
        {
          "internalType": "bytes32",
          "name": "level0",
          "type": "bytes32"
        }
      ],
      "stateMutability": "view",
      "type": "function"
    },
    {
      "inputs": [
        {
          "internalType": "bool",
          "name": "_state",
          "type": "bool"
        }
      ],
      "name": "toggleMarkets",
      "outputs": [],
      "stateMutability": "nonpayable",
      "type": "function"
    },
    {
      "inputs": [
        {
          "internalType": "address",
          "name": "newOwner",
          "type": "address"
        }
      ],
      "name": "transferOwnership",
      "outputs": [],
      "stateMutability": "nonpayable",
      "type": "function"
    },
    {
      "inputs": [
        {
          "internalType": "uint96",
          "name": "_size",
          "type": "uint96"
        },
        {
          "internalType": "uint24",
          "name": "_askPrice",
          "type": "uint24"
        },
        {
          "internalType": "uint24",
          "name": "_bidPrice",
          "type": "uint24"
        }
      ],
      "name": "updateVaultOrdSz",
      "outputs": [],
      "stateMutability": "nonpayable",
      "type": "function"
    },
    {
      "inputs": [
        {
          "internalType": "address",
          "name": "newImplementation",
          "type": "address"
        }
      ],
      "name": "upgradeTo",
      "outputs": [],
      "stateMutability": "nonpayable",
      "type": "function"
    },
    {
      "inputs": [
        {
          "internalType": "address",
          "name": "newImplementation",
          "type": "address"
        },
        {
          "internalType": "bytes",
          "name": "data",
          "type": "bytes"
        }
      ],
      "name": "upgradeToAndCall",
      "outputs": [],
      "stateMutability": "payable",
      "type": "function"
    }
  ],
  "bytecode": "0x60a08060405234620000df57306080525f549060ff8260081c166200008d575060ff8082160362000052575b604051615c5d9081620000e48239608051818181611ab701528181611be201526120d60152f35b60ff90811916175f557f7f26b83ff96e1f2b6a682f133852f6798a09c465da95921460cefb3847402498602060405160ff8152a15f6200002b565b62461bcd60e51b815260206004820152602760248201527f496e697469616c697a61626c653a20636f6e747261637420697320696e697469604482015266616c697a696e6760c81b6064820152608490fd5b5f80fdfe610200806040526004361015610013575f80fd5b5f3560e01c90816302b90c6514613045575080630e2e2ffe14612ff05780631c0d9c2214612f7357806320b3fa5c1461281c57806323afbff3146127895780632aa9fbdc146123b95780632bf1360e1461239557806331a71e82146122925780633659cfe6146120b257806346fdfbb114611ed65780634d78110314611e1f5780634f1ef28614611b6757806352d1902d14611aa55780635b16c9b614611a66578063715018a614611a0b5780637ef5e9441461186a57806388bb4f60146118045780638da5cb5b146117dc57806390c9427c1461173e578063b4de8b7014611708578063badc92d1146116eb578063bb62b3c51461127d578063c0e4ec9e146111f9578063c384871714610ece578063c879657214610e38578063cae22ee61461072c578063cc57aec6146102e4578063d2cd7d7f14610253578063e6d29b51146101fa5763f2fde38b14610167575f80fd5b346101f65760203660031901126101f6576101806130ff565b610188614a0d565b6001600160a01b038116156101a2576101a090614d0f565b005b60405162461bcd60e51b815260206004820152602660248201527f4f776e61626c653a206e6577206f776e657220697320746865207a65726f206160448201526564647265737360d01b6064820152608490fd5b5f80fd5b346101f65760203660031901126101f6576004355f5260cb60205260405f205464ffffffffff61024f604051928284938260281c1691168390602090939293604083019464ffffffffff809216845216910152565b0390f35b346101f657610261366131e8565b9093919260ff9360d39160d3549561028160ff60289860281c161561323f565b61028c888314613e89565b5f5b82811061029757005b806102de878a876102d9878f6102c88f996102cd926102c26102bd8f849060019f61328b565b6132af565b9661328b565b6132bf565b938c54901c161561323f565b61380d565b0161028e565b346101f6576060806003193601126101f6576102fe6130c1565b9061036061030a6130e9565b926103136130b2565b60d35461032660ff8260281c161561323f565b62ffffff8084169661033988151561370c565b61037c826103758160d4549661036b6001600160601b0380998189169d8e83831610613623565b60601c168c10613669565b60a81c16886136b5565b16156136c9565b935f97610387614d9c565b985f906060975b868116151580610720575b80610715575b156104575791610407918c8489898f9a9998979a60df54901c168984168091148061044a575b1561041d575050610401926103f56103e46103ee96946103fb946154a6565b96905b809c61453a565b80926135c5565b9f614e3d565b906140c5565b986135e0565b97610410614d9c565b9a9098979192939461038e565b6103ee6104436103fb94610401979498966103f5945f5260cc60205260405f2090615379565b97166103e7565b508160e0541615156103c5565b939793969295948994909186168015610684576105135f9261049761048960209461048360dc5461333e565b9061334c565b8a60d35460301c169061335f565b849060d5549283610641575b60db5460d9546001600160a01b0391821695506104f0949116926104eb916104ca91614553565b926104dd604051948592338b85016134da565b03601f1981018452836131ac565b6135e0565b6040519485809481936337adb00f60e11b83528760048401526024830190613136565b03925af18015610636576105729361056b9261053a92610607575b505b6103fb8a8c614e3d565b9161055d60018060a01b0360da5416938261055660dd5461333e565b911661334c565b9060d35460901c169061335f565b3391614a65565b6105f4575b50821661058057005b6105ef5f80516020615c088339815191529360d3549264ffffffffff936105a88582166137b2565b9485169064ffffffffff19161760d3556105c182614acd565b505f5260cb6020526105e16105d98460405f20614bc7565b848684614c27565b6040519384933390856137c8565b0390a1005b6106019082851614613758565b84610577565b6106289060203d60201161062f575b61062081836131ac565b81019061337d565b508b61052e565b503d610616565b6040513d5f823e3d90fd5b6104f092506106796106716106568685615620565b9561066c61066660d65483614553565b8861334c565b61335f565b60d854614560565b60d8558392506104a3565b50805161069c575b5061056b61053a61057293610530565b60206106d25f9260018060a01b0360db5416906040519485809481936337adb00f60e11b83528760048401526024830190613136565b03925af18015610636576105729361056b9261053a926106f6575b5093505061068c565b61070e9060203d60201161062f5761062081836131ac565b508b6106ed565b50858c16151561039f565b5083868d161115610399565b60403660031901126101f6576107406130d3565b6107486130a3565b60d39182549061075e60ff8360281c161561323f565b60ff60c95416916003831015610e245760018303610d7157506107b16107a961078860dc5461333e565b61079c6001600160601b039182861661334c565b90875460301c169061335f565b341015613395565b5f926107bb614d57565b905f946060935b6001600160601b038116151580610d69575b80610d5a575b15610aaa578060de5462ffffff8087169160a01c161480610a96575b15610a5a578460e054926001600160601b0384169360df54946108226001600160601b0387168261453a565b956001600160601b0387166001600160601b0385161096875f14610a54575083965b156108f1575050506108d16108bd6108d8946108b86108ac6108de99966108988a62ffffff9860df546001600160601b036108838c84168284166135c5565b16906001600160601b0319161760df5561453a565b60de54909a906001600160a01b03166158b7565b975b85819c169261453a565b614102565b6001600160601b038d5460301c1690614120565b16906140c5565b946135e0565b936108e7614d57565b92949390946107c2565b9196935093916001600160601b038260781c16926103eb8402938085046103eb1490151715610a40576103e78401809411610a40576103e8976107d396878102978189041490151715610a40576107d28701809711610a40576bffffffffffffffffffffffff19166107d087046001600160601b03161760e05562ffffff8a16808902939080159085048a141715610a40576103ea84018411610a40576108ac8b6108988a6108bd966108b8956108d89c6108de9f62ffffff9c6108d19c60de54908f6103ea6103eb9160a01b92010460a01b16908f60a01b19161760de556001600160601b036107d08404168e83830416115f14610a355750506001600160601b036107d0610a02920416614522565b905b6001600160d81b03191660789190911b6bffffffffffffffffffffffff60781b1617848b1660601b1760df5561453a565b8d9250041690610a04565b634e487b7160e01b5f52601160045260245ffd5b96610844565b6108de9262ffffff6108d16108bd6108d8946108b8610a8f6001600160601b0398868d165f5260cb60205260405f208d6153fb565b98166108ae565b506001600160601b0360e0541615156107f6565b94925090929462ffffff809216908115155f14610ce55750610b4d610ae85f93610adb60209461048360dd5461333e565b908a5460901c169061335f565b966104f08460d55480610cac575b5060db5460da546001600160a01b03918216949116916104eb90610b1a908d614553565b60408051338a82019081526001600160a01b039096166020870152908501919091525f60608501529283906080016104dd565b03925af1801561063657610c8d575b505b6001600160601b03928316918215610c545790610b7d6001921561347f565b03610bb457602093610bac92610b9b610ba79361048360dc5461333e565b915460301c169061335f565b61456d565b604051908152f35b602091610bdf610c1e9560018060a01b0392610b9b8460db54169460d954169561048360dc5461333e565b604051633af55cc760e11b81523360048201526001600160a01b03909316602484015260448301525f6064830181905291948592839182906084820190565b03925af191821561063657602092610c37575b50610bac565b610c4d90833d851161062f5761062081836131ac565b5082610c31565b509050602093506001915003610bac57610c885f80808060018060a01b0360db541634905af1610c826133ec565b5061341b565b610bac565b610ca59060203d60201161062f5761062081836131ac565b5085610b5c565b9050610cdc610cd4610cbe838d615620565b9261066c610cce60d65483614553565b8561334c565b60d754614560565b60d7558b610af6565b959150508051610cf6575b50610b5e565b6020610d2c5f9260018060a01b0360db5416906040519485809481936337adb00f60e11b83528760048401526024830190613136565b03925af180156106365715610cf057610d539060203d60201161062f5761062081836131ac565b5085610cf0565b5062ffffff80851614156107da565b5060016107d4565b6020610df09160018060a01b03610db68160d954169160db541692610d9760dc5461333e565b610dab6001600160601b0391828a1661334c565b9160301c169061335f565b6040516323b872dd60e01b81523360048201526001600160a01b0390931660248401526044830152909283919082905f9082906064820190565b03925af1801561063657610e05575b506107b1565b610e1d9060203d60201161062f5761062081836131ac565b5084610dff565b634e487b7160e01b5f52602160045260245ffd5b346101f6575f3660031901126101f65760db5460d95460d85460da5460d7546040516324facdb160e11b81526001600160a01b03948516600482015260248101939093529083166044830152606482015291602091839160849183915f91165af1801561063657610eaf575b5f60d881905560d755005b610ec79060203d60201161062f5761062081836131ac565b5080610ea4565b346101f6576101e03660031901126101f657610ee86130ff565b60243560038110156101f6576001600160a01b039060443582811691908290036101f6576084358381168091036101f65760c4358481168091036101f6576001600160601b039060e43582811681036101f6576101043562ffffff80821682036101f6576101243590811681036101f65761014435938585168095036101f6576101643595861686036101f65761018435966101a435986101c4359b8c16809c036101f6575f54600881901c60ff16159d908e806111ec575b80156111d5575b15611179578e91610fec9160ff19936001858316175f55611167575b50610fde60ff5f5460081c16610fd981614ddd565b614ddd565b610fe733614d0f565b614d0f565b898b116111065760ff9060c9541691161760c9556001600160601b0360a01b998a60d954161760d9558960da54161760da5560643560dc5560a43560dd558860db54161760db5571ffffffffffffffffffffffff00000000000060d3549162ffffff60a81b9060a81b169360301b16906601000000000000600160c01b031916179062ffffff60901b9060901b16171760d35560d454916001600160601b0360601b9060601b16916001600160401b0360c01b16171760d45560d55560d65560de54161760de5562ffffff60601b62ffffff60601b1960df54161760df556110d057005b61ff00195f54165f557f7f26b83ff96e1f2b6a682f133852f6798a09c465da95921460cefb3847402498602060405160018152a1005b60405162461bcd60e51b815260206004820152603360248201527f4f72646572426f6f6b3a204d616b6572206665652073686f756c64206265206c6044820152726f776572207468616e2074616b65722066656560681b6064820152608490fd5b61ffff1916610101175f908155610fc4565b60405162461bcd60e51b815260206004820152602e60248201527f496e697469616c697a61626c653a20636f6e747261637420697320616c72656160448201526d191e481a5b9a5d1a585b1a5e995960921b6064820152608490fd5b50303b158015610fa85750600160ff821614610fa8565b50600160ff821610610fa1565b346101f65760203660031901126101f65760e061121c61121761305f565b613ef1565b60a060405192600180831b0381511684526001600160601b036020820151166020850152604081015164ffffffffff8091166040860152606082015116606085015262ffffff60808201511660808501520151151560a083015260c0820152f35b346101f65761128b366131e8565b6112a060ff60d39493945460281c161561323f565b6112ab838514613e89565b5f5b8481106112b657005b6112c86102bd8287899698979961328b565b6112d66102c883898961328b565b9461133f62ffffff6103758160d3546112f560ff8260281c161561323f565b611302828816151561370c565b6113356001600160601b038c61132160d4549183808416911611613623565b60601c166001600160601b038d1610613669565b60a81c16856136b5565b85905f9061134b614d9c565b9860605f5b6001600160601b0386161515806116d7575b806116c9575b1561141e57858c62ffffff8060df5460601c169116148061140a575b156113dd578c611393916154a6565b9c909c965b8d6113a29161453a565b95866113ad916135c5565b956113b791614e3d565b6113c0916140c5565b946113ca916135e0565b9a6113d3614d9c565b9a949b909b611350565b9b6114016001600160601b039d62ffffff83165f5260cc60205260405f2083615379565b9d169c96611398565b506001600160601b0360e054161515611384565b919a50959493926001600160601b03909b989799929b1695898715155f1461162e57506114c560209161146f61145a5f9a61048360dc5461333e565b6001600160601b0360d35460301c169061335f565b899060d55492836115ef575b60db5460d9546001600160a01b0391821695506114a2949116926104eb916104ca91614553565b604051998a809481936337adb00f60e11b83528760048401526024830190613136565b03925af1958615610636576114ed8a92611527926001996115d0575b505b6103fb8688614e3d565b61150a888060a01b0360da54169162ffffff61055660dd5461333e565b90611521339262ffffff60d35460901c169061335f565b90614a65565b6115b3575b506001600160601b03811661154a575b5050019493919290946112ad565b5f80516020615c08833981519152916115a960d3549164ffffffffff926115728482166137b2565b9384169064ffffffffff19161760d35561158b81614acd565b5062ffffff81165f5260cb6020526105e16105d98460405f20614bc7565b0390a1878061153c565b6115ca906001600160601b03808416911614613758565b8961152c565b6115e89060203d60201161062f5761062081836131ac565b508e6114e1565b6114a292506116176116018584615620565b9461066c61161160d65483614553565b8761334c565b61162460d8918254614560565b905583925061147b565b96508051611647575b50946115276114ed6001976114e3565b60db546040516337adb00f60e11b81526020600482018190529098509188916001600160a01b03169082905f908290611684906024830190613136565b03925af1958615610636576114ed8a92611527926001996116aa575b5092975050611637565b6116c29060203d60201161062f5761062081836131ac565b508e6116a0565b5062ffffff8c161515611368565b5062ffffff871662ffffff8d161115611362565b346101f6575f3660031901126101f657602060cd54604051908152f35b346101f6575f3660031901126101f6576040611722614d57565b61172a614d9c565b825162ffffff928316815291166020820152f35b346101f6575f3660031901126101f65761016060d35462ffffff6001600160601b039060018060a01b03918260d954169360dc549360da54169260dd549160d4549260d5549560d6549760405199858560901c168b52878560301c1660208c015260408b015260608a0152608089015260a088015260a81c1660c086015281811660e086015260601c16610100840152610120830152610140820152f35b346101f6575f3660031901126101f6576033546040516001600160a01b039091168152602090f35b346101f6575f3660031901126101f65760c060de5462ffffff60df546001600160601b03908160e0541692806040519560018060a01b038116875260a01c16602086015282821660408601528160601c16606085015260781c16608083015260a0820152f35b346101f6576020806003193601126101f6576118846130ff565b604051438382015282815261189881613191565b916118a16145f1565b6001600160a01b03928316935b62ffffff8083169081141580611a02575b15611942575f5260cb835264ffffffffff94858060405f2054165b16801561192f57805f5260ca90818652828760405f2054161461190f575b5f5284528580600160405f20015460281c166118da565b92611929906040519085888301528782526104eb82613191565b926118f8565b5094509061193c90614713565b906118ae565b50905061194d614814565b905b62ffffff80831690811415806119f9575b156119e3575f5260cc835264ffffffffff94858060405f2054165b1680156119d057805f5260ca90818652828760405f205416146119b0575b5f5284528580600160405f20015460281c1661197b565b926119ca906040519085888301528782526104eb82613191565b92611999565b509450906119dd90614921565b9061194f565b508261024f604051928284938452830190613136565b50801515611960565b508015156118bf565b346101f6575f3660031901126101f657611a23614a0d565b603380546001600160a01b031981169091555f906001600160a01b03167f8be0079c531659141344cd1fd0a4f28419497f9722a3daafe3b4186f6b6457e08280a3005b346101f65760603660031901126101f6576101a0611a826130c1565b611a8a6130e9565b611a926130b2565b916102d960ff60d35460281c161561323f565b346101f6575f3660031901126101f6577f00000000000000000000000000000000000000000000000000000000000000006001600160a01b03163003611afc5760206040515f80516020615be88339815191528152f35b60405162461bcd60e51b815260206004820152603860248201527f555550535570677261646561626c653a206d757374206e6f742062652063616c60448201527f6c6564207468726f7567682064656c656761746563616c6c00000000000000006064820152608490fd5b60403660031901126101f657611b7b6130ff565b602435906001600160401b0382116101f657366023830112156101f6578160040135611ba6816131cd565b92611bb460405194856131ac565b8184526020918285019136602483830101116101f657815f9260248693018537860101526001600160a01b037f0000000000000000000000000000000000000000000000000000000000000000811690611c1030831415613503565b611c2c5f80516020615be8833981519152928284541614613564565b611c34614a0d565b7f4910fdfa16fed3260ed0e7147f7cc6da11a60208b5b9406d12a635614ffd91435460ff1615611c6c57505050506101a09150615642565b84939416906040516352d1902d60e01b81528581600481865afa5f9181611df0575b50611cef5760405162461bcd60e51b815260048101879052602e60248201527f45524331393637557067726164653a206e657720696d706c656d656e7461746960448201526d6f6e206973206e6f74205555505360901b6064820152608490fd5b03611d9957611cfd83615642565b7fbc7cd75a20ee27fd9adebab32041f755214dbc6bffa90cc0225b39da2e5c2d3b5f80a2835115801590611d91575b611d3257005b5f80916101a0957f416464726573733a206c6f772d6c6576656c2064656c65676174652063616c6c60405196611d6788613176565b60278852870152660819985a5b195960ca1b60408701525190845af4611d8b6133ec565b91615b4a565b506001611d2c565b60405162461bcd60e51b815260048101859052602960248201527f45524331393637557067726164653a20756e737570706f727465642070726f786044820152681a58589b195555525160ba1b6064820152608490fd5b9091508681813d8311611e18575b611e0881836131ac565b810103126101f657519088611c8e565b503d611dfe565b346101f65760203660031901126101f6576004358015158091036101f657611e45614a0d565b60d3549060ff8260281c1615158114611e765765ff00000000009060281b169065ff000000000019161760d3555f80f35b60405162461bcd60e51b815260206004820152603260248201527f4f72646572426f6f6b3a204d61726b6574732061726520616c726561647920696044820152716e207265717565737465642073746174652160701b6064820152608490fd5b346101f6575f3660031901126101f6576040516020904382820152818152611efd81613191565b90611f066145f1565b905b62ffffff80831690811415806120a9575b15611fb8575f5260cb815264ffffffffff928360405f20541692845f945b16938415611f7157845f52611f5960ca9182865260405f205460a01c906135c5565b945f5283528480600160405f20015460281c16611f37565b6040805162ffffff84168187019081526001600160601b039093166020840152929650939450611fb293611fac93916104eb918491016104dd565b92614713565b90611f08565b50611fd283604051905f848301528382526104eb82613191565b90611fdb614814565b905b62ffffff80831690811415806120a0575b1561208d575f5260cc815264ffffffffff928360405f20541692845f945b1693841561204657845f5261202e60ca9182865260405f205460a01c906135c5565b945f5283528480600160405f20015460281c1661200c565b6040805162ffffff84168187019081526001600160601b0390931660208401529296509394506120879361208193916104eb918491016104dd565b92614921565b90611fdd565b6040518281528061024f81850187613136565b50801515611fee565b50801515611f19565b346101f6576020806003193601126101f6576120cc6130ff565b6001600160a01b037f00000000000000000000000000000000000000000000000000000000000000008116929061210530851415613503565b6121215f80516020615be8833981519152948286541614613564565b612129614a0d565b60405193828501918583106001600160401b0384111761227e57826040525f865260ff7f4910fdfa16fed3260ed0e7147f7cc6da11a60208b5b9406d12a635614ffd914354165f1461218357505050506101a09150615642565b84939416906040516352d1902d60e01b81528581600481865afa5f918161224f575b506122065760405162461bcd60e51b815260048101879052602e60248201527f45524331393637557067726164653a206e657720696d706c656d656e7461746960448201526d6f6e206973206e6f74205555505360901b6064820152608490fd5b03611d995761221483615642565b7fbc7cd75a20ee27fd9adebab32041f755214dbc6bffa90cc0225b39da2e5c2d3b5f80a283511580159061224857611d3257005b505f611d2c565b9091508681813d8311612277575b61226781836131ac565b810103126101f6575190886121a5565b503d61225d565b634e487b7160e01b5f52604160045260245ffd5b346101f65760603660031901126101f6576122ab6130d3565b60243562ffffff80821682036101f6576044359181831683036101f65760de54936001600160a01b0385163303612358576001600160601b03166001600160601b031960e054161760e05560df549082808360601c1614612334575b50508260a01c161561231557005b62ffffff60a01b1990911660a09190911b62ffffff60a01b161760de55005b62ffffff60601b1990911660609190911b62ffffff60601b161760df558380612307565b60405162461bcd60e51b815260206004820152601560248201527413dc99195c909bdbdace8813db9b1e4815985d5b1d605a1b6044820152606490fd5b346101f6575f3660031901126101f657602064ffffffffff60d35416604051908152f35b60403660031901126101f6576123cd6130c1565b6123d56130a3565b9060d38054916123eb60ff8460281c161561323f565b60ff60c954166003811015610e245760021492831561271457506124336107a961241660dd5461333e565b61242662ffffff9182861661334c565b90855460901c169061335f565b925f61243d614d9c565b5f916060966060915b62ffffff938483169283151580612708575b806126fd575b156125345750916124906124de8b6124ea9488968c61249e6001600160601b0396879254988360309a8b1c1690614102565b8a84169c8d92838093614120565b9660df54901c161480612527575b156124fa575050916104016124d8926124c86124d295846154a6565b959080969461453a565b906135c5565b97614102565b918954901c1690614120565b166124f3614d9c565b9291612446565b926124d261251d866104019497956124d8975f5260cc60205260405f20906150e5565b961680969461453a565b508160e0541615156124ac565b88908590898c6001600160601b038088168c811561268857506125a56125735f9361256660209461048360dc5461333e565b908a5460301c169061335f565b966104f08460d5548061266d575b5060db5460d9546001600160a01b03918216949116916104eb90610b1a908d614553565b03925af180156106365761264e575b505b62ffffff928316918215612623576125ce901561347f565b156125f857602093610bac926125ec610ba79361048360dd5461333e565b915460901c169061335f565b602091610bdf610c1e9560018060a01b03926125ec8460db54169460da54169561048360dd5461333e565b509150506020925015610bac57610c885f80808060018060a01b0360db541634905af1610c826133ec565b6126669060203d60201161062f5761062081836131ac565b50856125b4565b905061267f610671610cbe838d615620565b60d8558b612581565b959150508051612699575b506125b6565b60206126cf5f9260018060a01b0360db5416906040519485809481936337adb00f60e11b83528760048401526024830190613136565b03925af180156106365715612693576126f69060203d60201161062f5761062081836131ac565b5085612693565b50858216151561245e565b50858083161115612458565b60206127559160018060a01b03610db68160da54169160db54169261273a60dd5461333e565b61274a62ffffff91828a1661334c565b9160901c169061335f565b03925af180156106365761276a575b50612433565b6127829060203d60201161062f5761062081836131ac565b5084612764565b346101f65760203660031901126101f6576004356001600160401b0381116101f6576127b9903690600401613073565b905f5b8281106127f757507f386974f41b61738b510019ccd5a3524a43eccf0d136929e09d524e87aeeca2c4916105ef6040519283923391846132e5565b8061281561281061280b600194878761328b565b6132d3565b614138565b50016127bc565b346101f65760c03660031901126101f6576001600160401b036004358181116101f65761284d903690600401613073565b90916024358181116101f657612867903690600401613073565b6044358381116101f65761287f903690600401613073565b90926064358581116101f657612899903690600401613073565b9390956084359081116101f6576128b4903690600401613073565b98909760a435151560a435036101f6576128d660ff60d35460281c161561323f565b828103612f0e57858503612ea35797969594939291905f610120525b8861012051106129cd575b5050509091929394505f5b81811061296d575b50505050505f5b82811061295257507f386974f41b61738b510019ccd5a3524a43eccf0d136929e09d524e87aeeca2c4916105ef6040519283923391846132e5565b8061296661281061280b600194878761328b565b5001612917565b62ffffff61297f6102bd83858861328b565b16156129c857806129c26129996102bd600194868961328b565b6129a76102c884888b61328b565b6129b960ff60d35460281c161561323f565b60a4359161380d565b01612908565b612910565b62ffffff6129e26102bd610120518c8561328b565b1615612e9e576129f96102bd610120518b8461328b565b6101a052612a0e6102c861012051848661328b565b61014052612a8462ffffff6103758160d354612a3060ff8260281c161561323f565b612a40826101a05116151561370c565b612a776001600160601b0360d454612a6082821683610140511611613623565b60601c166001600160601b03610140511610613669565b60a81c166101a0516136b5565b61014051610180525f61010052612a99614d9c565b60a05260606080525f5b6001600160601b036101805116151580612e85575b80612e75575b15612ba757612b3a90610180516101605262ffffff60df5460601c1662ffffff60a051161480612b93575b5f60c05215612b5d57612b16612b0460a051610180516154a6565b60c0525b80610180526101605161453a565b60e052612b2860e051610100516135c5565b610100526103fb60e05160a051614e3d565b98612b4960c0516080516135e0565b608052612b54614d9c565b60a05298612aa3565b62ffffff60a051165f5260cc602052612b166001600160601b03612b8a6101805160405f2060a0516150e5565b60c05216612b08565b506001600160601b0360e054161515612ae9565b989091929394959697986001600160601b0361010051168015155f14612dea57906020612c5a612be061145a5f9561048360dc5461333e565b849060d55480612dac575b50612c3790612c2f612c0e60018060a01b03948560db54169560d9541693614553565b91612c21604051938492338a85016134da565b03601f1981018352826131ac565b6080516135e0565b6040519586809481936337adb00f60e11b83528760048401526024830190613136565b03925af190811561063657612ca292612c8492612d8d575b505b6103fb610180516101a051614e3d565b61150a60018060a01b0360da54169162ffffff61055660dd5461333e565b60a435612d65575b6001600160601b036101805116612cd4575b600161012051016101205297969594939291906128f2565b5f80516020615c08833981519152612d5d60d35464ffffffffff90612cfa8282166137b2565b9182169064ffffffffff19161760d355612d166101a051614acd565b5062ffffff6101a051165f5260cb602052612d45612d378260405f20614bc7565b82610180516101a051614c27565b6040519182916101a0519061018051903390856137c8565b0390a1612cbc565b612d886001600160601b0361018051166001600160601b03610140511614613758565b612caa565b612da59060203d60201161062f5761062081836131ac565b508d612c72565b915080612dd5612dbf84612c3794615620565b9361066c612dcf60d65483614553565b8661334c565b612de260d8918254614560565b905590612beb565b5060805151612e00575b612c84612ca291612c74565b60018060a01b0360db541690602060405180936337adb00f60e11b8252826004830152815f81612e3560248201608051613136565b03925af190811561063657612ca292612c8492612e56575b50915050612df4565b612e6e9060203d60201161062f5761062081836131ac565b508d612e4d565b5062ffffff60a051161515612abe565b5062ffffff6101a0511662ffffff60a051161115612ab8565b6128fd565b60405162461bcd60e51b815260206004820152603860248201527f4f72646572426f6f6b3a2053656c6c2070726963657320616e642073697a657360448201527f206172726179206c656e677468206d757374206d6174636800000000000000006064820152608490fd5b60405162461bcd60e51b815260206004820152603760248201527f4f72646572426f6f6b3a204275792070726963657320616e642073697a6573206044820152760c2e4e4c2f240d8cadccee8d040daeae6e840dac2e8c6d604b1b6064820152608490fd5b346101f65760203660031901126101f65760c064ffffffffff80612f9561305f565b165f5260ca60205260ff60405f209160018354930154906040519360018060a01b038116855260a01c602085015280821660408501528160281c16606084015262ffffff8160501c16608084015260681c16151560a0820152f35b346101f65760203660031901126101f6576004355f5260cc60205260405f205464ffffffffff61024f604051928284938260281c1691168390602090939293604083019464ffffffffff809216845216910152565b346101f6575f3660031901126101f65760209060d0548152f35b6004359064ffffffffff821682036101f657565b9181601f840112156101f6578235916001600160401b0383116101f6576020808501948460051b0101116101f657565b6024359081151582036101f657565b6044359081151582036101f657565b6004359062ffffff821682036101f657565b600435906001600160601b03821682036101f657565b602435906001600160601b03821682036101f657565b600435906001600160a01b03821682036101f657565b5f5b8381106131265750505f910152565b8181015183820152602001613117565b9060209161314f81518092818552858086019101613115565b601f01601f1916010190565b60c081019081106001600160401b0382111761227e57604052565b606081019081106001600160401b0382111761227e57604052565b604081019081106001600160401b0382111761227e57604052565b90601f801991011681019081106001600160401b0382111761227e57604052565b6001600160401b03811161227e57601f01601f191660200190565b60606003198201126101f6576001600160401b03916004358381116101f6578261321491600401613073565b939093926024359182116101f65761322e91600401613073565b909160443580151581036101f65790565b1561324657565b60405162461bcd60e51b815260206004820152601b60248201527f4f72646572426f6f6b3a206d61726b65742069732070617573656400000000006044820152606490fd5b919081101561329b5760051b0190565b634e487b7160e01b5f52603260045260245ffd5b3562ffffff811681036101f65790565b356001600160601b03811681036101f65790565b3564ffffffffff811681036101f65790565b604080825281018390529293929160608301905f905b808210613316575050602091509360018060a01b0316910152565b909183359064ffffffffff82168092036101f6579081526020938401930191600101906132fb565b604d8111610a4057600a0a90565b81810292918115918404141715610a4057565b8115613369570490565b634e487b7160e01b5f52601260045260245ffd5b908160209103126101f6575180151581036101f65790565b1561339c57565b60405162461bcd60e51b815260206004820152602260248201527f4f72646572426f6f6b3a204e6174697665206173736574206e6f7420656e6f756044820152610ced60f31b6064820152608490fd5b3d15613416573d906133fd826131cd565b9161340b60405193846131ac565b82523d5f602084013e565b606090565b1561342257565b60405162461bcd60e51b815260206004820152602f60248201527f4f72646572426f6f6b3a204d617267696e4163636f756e74206e61746976652060448201526e1d1c985b9cd9995c8819985a5b1959608a1b6064820152608490fd5b1561348657565b60405162461bcd60e51b815260206004820152602660248201527f4f72646572426f6f6b3a20696e73756666696369656e7420766f6c756d65206f6044820152656e20626f6f6b60d01b6064820152608490fd5b6001600160a01b0391821681529116602082015260408101919091526001606082015260800190565b1561350a57565b60405162461bcd60e51b815260206004820152602c60248201527f46756e6374696f6e206d7573742062652063616c6c6564207468726f7567682060448201526b19195b1959d85d1958d85b1b60a21b6064820152608490fd5b1561356b57565b60405162461bcd60e51b815260206004820152602c60248201527f46756e6374696f6e206d7573742062652063616c6c6564207468726f7567682060448201526b6163746976652070726f787960a01b6064820152608490fd5b9190916001600160601b0380809416911601918211610a4057565b60206136219193929360405194816136018793518092868087019101613115565b820161361582518093868085019101613115565b010380855201836131ac565b565b1561362a57565b60405162461bcd60e51b81526020600482015260176024820152764f72646572426f6f6b3a2053697a6520746f6f206c6f7760481b6044820152606490fd5b1561367057565b60405162461bcd60e51b815260206004820152601960248201527f4f72646572426f6f6b3a2053697a6520746f6f206c61726765000000000000006044820152606490fd5b9062ffffff80911691821561336957160690565b156136d057565b60405162461bcd60e51b81526020600482015260146024820152734f72646572426f6f6b3a205469636b2053697a6560601b6044820152606490fd5b1561371357565b60405162461bcd60e51b815260206004820152601860248201527f4f72646572426f6f6b3a20507269636520746f6f206c6f7700000000000000006044820152606490fd5b1561375f57565b60405162461bcd60e51b815260206004820152602560248201527f4f72646572426f6f6b3a20506f7374206f6e6c792063726f737365642074686560448201526420626f6f6b60d81b6064820152608490fd5b90600164ffffffffff80931601918211610a4057565b64ffffffffff90911681526001600160a01b0390911660208201526001600160601b0391909116604082015262ffffff90911660608201526001608082015260a00190565b92919061388b60d45461383d6001600160601b03808516926138328282168511613623565b60601c168210613669565b61056b60d35461385962ffffff610375818460a81c168b6136b5565b61386962ffffff8916151561370c565b6001600160601b03610dab60018060a01b0360d954169461048360dc5461333e565b915f93613896614d57565b6101e0525f6060955b6001600160601b038616151580613e72575b80613e60575b15613b6c578560de5462ffffff806101e051169160a01c161480613b58575b15613b185760e05460df54976138fe6001600160601b038a166001600160601b03841661453a565b916001600160601b0383166001600160601b0383161092835f14613b10575081998a935b156139b55750509262ffffff6108d161398661397461395b61399b966139a19960df546001600160601b036108838984168284166135c5565b6101e05160de54919e90916001600160a01b03166158b7565b955b6108b88d856101e051169261453a565b6001600160601b0360d35460301c1690614120565b976135e0565b936139aa614d57565b6101e052939561389f565b90949192506001600160601b03607882901c166103eb8082028290041490151715610a4057607881901c6001600160601b03166103eb026103e7810193908410610a405762ffffff6103e880950416916107d3806001600160601b03891602906001600160601b0389168204146001600160601b038916151715610a40576107d28101809111610a40576bffffffffffffffffffffffff199097166107d09097046001600160601b031696871760e0556101e05162ffffff16808602958115918704141715610a40576103ea8501809511610a405761397461395b8d6108d1946139869462ffffff976139a19c61399b9b60de54906103eb8c60a01b910460a01b16908b60a01b19161760de558082115f14613b0957613ad59150614522565b905b8860601b6101e05160601b16916001600160601b0360781b9060781b169064ffffffffff60d81b16171760df5561453a565b5090613ad7565b998a93613922565b61399b6139a19262ffffff6108d1613986613b4f6001600160601b039c846101e051165f5260cb60205260405f206101e0516153fb565b9c169b95613976565b506001600160601b0360e0541615156138d6565b9295919462ffffff90931693908415613dd357506020613bfe613ba9613b985f9761048360dd5461333e565b62ffffff60d35460901c169061335f565b93613bdb8760d55480613db8575b5060db5460da546001600160a01b03918216949116916104eb906104ca908a614553565b6040519788809481936337adb00f60e11b83528760048401526024830190613136565b03925af1938415610636576001600160601b0394613d99575b505b613d89575b5016908115613d85575f80516020615c088339815191529162ffffff60a09260d35492613d6164ffffffffff94613c568682166137b2565b90868216968764ffffffffff198093161760d355613c7386614b4b565b508686165f5260cc60205260406101c0528786613d28613c98866101c0515f20614bc7565b936101c0515195613ca88761315b565b33875260208701908a8252826001816101c0518b019916998a8a52613d156001600160601b0360608301965f885262ffffff608085019b168b5260a084019b5f8d525f5260ca6020526101c0515f209360a08680911b0390511660a083901b855416178455511682614c04565b01975116908754161786555116846140dc565b518254915163ffffffff60501b1990921690891660501b1790151560681b60ff60681b161790555f9081526101c05190206001016140dc565b6101c051519384523360208501526101c0518401521660608201525f6080820152a1565b5050565b613d939015613758565b5f613c1e565b613db19060203d60201161062f5761062081836131ac565b505f613c17565b9050613dca610cd4610cbe838a615620565b60d7555f613bb7565b9180945051613dec575b6001600160601b039350613c19565b6020613e225f9560018060a01b0360db5416906040519788809481936337adb00f60e11b83528760048401526024830190613136565b03925af1938415610636576001600160601b0394613e41575b50613ddd565b613e599060203d60201161062f5761062081836131ac565b505f613e3b565b5062ffffff806101e0511614156138b7565b5062ffffff831662ffffff6101e0511610156138b1565b15613e9057565b60405162461bcd60e51b815260206004820152603360248201527f4f72646572426f6f6b3a2050726963657320616e642073697a657320617272616044820152720f240d8cadccee8d040daeae6e840dac2e8c6d606b1b6064820152608490fd5b6040805191613eff8361315b565b5f83525f60a060209482868201528285820152826060820152826080820152015264ffffffffff80911690815f5260ca8452825f209280518095613f428261315b565b855460018060a01b03811683528183019060a01c8152600180970154858116918585019083825260608601888460281c16815262ffffff94858560501c169060ff60a060808b019a848c52019660681c1615159081875215155f146140075750505050869051165f5260ca8352868689875f20015460281c1603613ffa575115613fe35760cb9251165f52525f20541611613fdf57505b90600290565b9091565b60cc9251165f52525f20541611613fdf5750613fd9565b5050505050505050905f90565b91959450919998979692505f146140a4575051165f5260cb82528484845f205416036140395750505050505050613fd9565b51831694851590819081614091575b506140855790869291159586614069575b505050505050613fdf5750905f90565b60ca9293949596505f52525f20015416145f8083818080614059565b50505050505091909190565b6001600160601b0391505116155f614048565b9150505f5260cc82528484845f205416036140395750505050505050613fd9565b91909162ffffff80809416911601918211610a4057565b9069ffffffffff000000000082549160281b169069ffffffffff00000000001916179055565b9190916001600160601b0380809416911602918216918203610a4057565b906001600160601b0380911691821561336957160490565b9060ff64ffffffffff80931692835f5260209060ca82526040805f20815161415f8161315b565b81546001808060a01b039384831684528784019260a01c8352015490858216918584019683885260608501818360281c16815262ffffff92838160501c1690608088019682885260a089019d8e9260681c16151580925215155f146144ec575050818951165f5260ca8a526141e08d8360018b5f20015460281c1614614ed3565b8a51156144cc57828551165f5260cb8a526142028d838a5f2054161115614f2a565b86865116330361447357899a9b9c828a9b999a511680614453575b50828251168061442e575b508c511561434c579183916142706142dd9c5f9795848e60cb8f6142c09b8e51168d52528a20541614614330575b848951168852838d89209151169384935116938491614fac565b1461431e575b61274a816142b46142a58a8060db54169a51169a60da541698836001600160601b038098511691511690614102565b60d354958660301c1690614120565b1661048360dd5461333e565b8651633af55cc760e11b81529788958694859391600485016134da565b03925af190811561431557506142f7575b50505b51151590565b8161430d92903d1061062f5761062081836131ac565b505f806142ee565b513d5f823e3d90fd5b61432a81865116615065565b50614276565b8489511688526143468d89208585511690614f76565b50614256565b6143c99a614386918588979851165f5260cc8b52848c5f20541614614412575b848651165f52838b5f209151169384935116938491614fac565b146143ff575b50505f6142c0848060db54169451169460d95416926143bb6001600160601b038092511661048360dc5461333e565b9060d35460301c169061335f565b03925af190811561431557506143e1575b50506142f1565b816143f792903d1061062f5761062081836131ac565b505f806143da565b61440a915116614fe5565b505f8061438c565b848651165f526144288b5f208585511690614f76565b5061436c565b838c5116905f5260ca8a5260018b5f20019064ffffffffff198254161790555f614228565b61446d9084845116905f5260ca8b5260018c5f20016140dc565b5f61421d565b875162461bcd60e51b8152600481018b9052602c60248201527f4f72646572426f6f6b3a204f6e6c79206f72646572206f776e65722063616e2060448201526b31b0b731b2b61037b93232b960a11b6064820152608490fd5b828551165f5260cc8a526144e78d838a5f2054161115614f2a565b614202565b1561450c5750828551165f5260cb8a526144e78d838a5f20541614614ed3565b5f5260cc8a526144e78d838a5f20541614614ed3565b6001600160601b039081165f190191908211610a4057565b6001600160601b039182169082160391908211610a4057565b91908203918211610a4057565b91908201809211610a4057565b5f808080936145998280808060018060a01b0360db541661458e8734614553565b905af1610c826133ec565b335af16145a46133ec565b50156145ac57565b60405162461bcd60e51b815260206004820152601860248201527f4f72646572426f6f6b3a20526566756e64206661696c656400000000000000006044820152606490fd5b5f805260cf6020527fe02c59459e6ae69bba35526a32783b104c6119df0d640a9ac4990ec2f8d493a954600190811c81816147005750505f19905b5f1991600181016146f5575060ce60205260405f2054811c81816146e3575050815b8281036146c5575060cd54811c90816146b2575050805b810361467057505f90565b805f5260ce60205260ff61468760405f20546156f9565b169060081b17805f5260cf60205262ffffff60ff6146a860405f20546156f9565b169160081b161790565b6146bd60ff926156f9565b011690614665565b915050805f5260cf60205262ffffff60ff6146a860405f20546156f9565b6146ee60ff926156f9565b011661464e565b62ffffff1692915050565b61470b60ff926156f9565b01169061462c565b8060081c60ff82818094168281036147d4575b5060101c1690828116838103614793575b5050818103614747575b50505f90565b6147539060cd546156d1565b6001810115614741578062ffffff915f5260ce6020528261477760405f20546156f9565b169060081b1791825f5260cf6020526146a860405f20546156f9565b6147a990835f5260ce60205260405f20546156d1565b9060018201156147375762ffffff925061ff00161791825f5260cf6020526146a860405f20546156f9565b6147f091925061ffff84165f5260cf60205260405f20546156d1565b6001810161480057908391614726565b62ffffff91935062ffff0092501691161790565b5f805260d26020527f20791b593a776a2631a28f4a3f62a14ad18db22add38130c4f4a8fdfa463988554600190811c818161490e5750505f19905b5f1991600181016146f5575060d160205260405f2054811c81816148fc575050815b8281036148de575060d054811c90816148cb575050805b810361489357505f90565b805f5260d160205260ff6148aa60405f20546156f9565b169060081b17805f5260d260205262ffffff60ff6146a860405f20546156f9565b6148d660ff926156f9565b011690614888565b915050805f5260d260205262ffffff60ff6146a860405f20546156f9565b61490760ff926156f9565b0116614871565b61491960ff926156f9565b01169061484f565b8060081c60ff82818094168281036149e1575b5060101c16908281168381036149a0575b50508181036149545750505f90565b6149609060d0546156d1565b6001810115614741578062ffffff915f5260d16020528261498460405f20546156f9565b169060081b1791825f5260d26020526146a860405f20546156f9565b6149b690835f5260d160205260405f20546156d1565b9060018201156149455762ffffff925061ff00161791825f5260d26020526146a860405f20546156f9565b6149fd91925061ffff84165f5260d260205260405f20546156d1565b6001810161480057908391614934565b6033546001600160a01b03163303614a2157565b606460405162461bcd60e51b815260206004820152602060248201527f4f776e61626c653a2063616c6c6572206973206e6f7420746865206f776e65726044820152fd5b60db54604051633609c92960e11b81526001600160a01b0394851660048201529184166024830152604482019290925291602091839160649183915f91165af1801561063657614ab25750565b614aca9060203d60201161062f5761062081836131ac565b50565b8060081c9061ffff82165f5260cf60205260405f20805490600160ff84161b821790818303614aff5750505050505f90565b5515614b0d575b5050600190565b60ff9060101c1690815f5260ce60205260405f20600160ff825493161b8217905515614b3a575b80614b06565b6001901b60cd541760cd555f614b34565b8060081c9061ffff82165f5260d260205260405f20805490600160ff84161b821790818303614b7d5750505050505f90565b5515614b8a575050600190565b60ff9060101c1690815f5260d160205260405f20600160ff825493161b8217905515614bb65780614b06565b6001901b60d0541760d0555f614b34565b9064ffffffffff9081835460281c169283155f14614bfa57614bf792821664ffffffffff198254161781556140dc565b90565b614bf792506140dc565b80546001600160a01b031660a09290921b6001600160a01b031916919091179055565b928261362194614cd0614cb760405194614c408661315b565b33865260208601906001600160601b0380981682526001604088019764ffffffffff94858094169a8b8b5260608301955f875262ffffff608085019a168a528560a085019b868d52165f5260ca60205260405f2093858060a01b039051166001600160601b0360a01b855416178455511682614c04565b0196511664ffffffffff198754161786555116846140dc565b518254915163ffffffff60501b1990921660509190911b62ffffff60501b161790151560681b60ff60681b161790555f908152604090206001016140dc565b603380546001600160a01b039283166001600160a01b0319821681179092559091167f8be0079c531659141344cd1fd0a4f28419497f9722a3daafe3b4186f6b6457e05f80a3565b614d5f6157b8565b62ffffff90808216808303614d8657505060de5460a01c811680614d81575090565b905090565b909160de5460a01c168091115f14614d81575090565b614da4614814565b62ffffff9080821680614dc757505060df5460601c8116908103614bf757505f90565b909160df5460601c168091105f14614d81575090565b15614de457565b60405162461bcd60e51b815260206004820152602b60248201527f496e697469616c697a61626c653a20636f6e7472616374206973206e6f74206960448201526a6e697469616c697a696e6760a81b6064820152608490fd5b906001600160601b03908160d35460301c169162ffffff809416911690815f190481118202158302156101f6570290808204910615150181811015614e80571690565b60405162461bcd60e51b815260206004820152602560248201527f4f72646572426f6f6b3a20546f6f206d7563682073697a65206265696e6720666044820152641a5b1b195960da1b6064820152608490fd5b15614eda57565b60405162461bcd60e51b815260206004820152602260248201527f4f72646572426f6f6b3a204f7264657220616c72656164792063616e63656c6c604482015261195960f21b6064820152608490fd5b15614f3157565b60405162461bcd60e51b815260206004820152601f60248201527f4f72646572426f6f6b3a204f7264657220616c72656164792066696c6c6564006044820152606490fd5b9064ffffffffff168015614f9557815464ffffffffff19161790555f90565b50805469ffffffffffffffffffff19169055600190565b9164ffffffffff9081831615614fd0575b1615614fc7575050565b613621916140dc565b835464ffffffffff1916818316178455614fbd565b8060081c9061ffff82165f5260d260205260405f20805490600160ff84161b19821680920361501657505050505f90565b81905515615025575050600190565b60ff9060101c1690815f5260d160205260405f2090600160ff835492161b1916809155156150535780614b06565b6001901b1960d0541660d0555f614b34565b8060081c9061ffff82165f5260cf60205260405f20805490600160ff84161b19821680920361509657505050505f90565b819055156150a5575050600190565b60ff9060101c1690815f5260ce60205260405f2090600160ff835492161b1916809155156150d35780614b06565b6001901b1960cd541660cd555f614b34565b909160609064ffffffffff8454165b6001600160601b0382169081151580615369575b1561534057906152739164ffffffffff81165f5260ca60205260405f209064ffffffffff600183015460281c169154928360a01c105f14615339576151508360a01c8661453a565b945b5f936001600160601b03871615615322575b5064ffffffffff82165f5260ca6020526151b860405f2060018101549054906001600160601b038916155f146153185783905b605081901c62ffffff16926001600160a01b03169060681c60ff1615615953565b936001600160601b0387168015906152ea575b61527a575b916001600160601b0360e092817fc3e5ebc67b1c43b899775c1f57978f06dcefb5d482e0484e5d30c1703b01f32c9564ffffffffff85165f5260ca60205262ffffff60405f209361522f8d6001808060a01b038854169701549261453a565b9464ffffffffff60405198168852602088015260ff8160681c161515604088015260501c1660608601521660808401523360a08401521660c0820152a192936135e0565b91906150f4565b6001600160601b0381166152e0575b916001600160601b0360e092817fc3e5ebc67b1c43b899775c1f57978f06dcefb5d482e0484e5d30c1703b01f32c9564ffffffffff85165f5260ca6020526152d48160405f20614c04565b939550509250506151d0565b9192508291615289565b50831580156151cb575064ffffffffff83165f5260ca60205264ffffffffff600160405f20015416156151cb565b8160a01c90615197565b819450906153329160a01c61453a565b925f615164565b5f94615152565b90506153568164ffffffffff9397959496614f76565b5016156153605750565b614aca90614fe5565b5064ffffffffff81161515615108565b909160609064ffffffffff8454165b6001600160601b03821690811515806153eb575b1561534057906153e49164ffffffffff81165f5260ca60205260405f209064ffffffffff600183015460281c169154928360a01c105f14615339576151508360a01c8661453a565b9190615388565b5064ffffffffff8116151561539c565b909160609064ffffffffff8454165b6001600160601b0382169081151580615496575b1561546d57906154669164ffffffffff81165f5260ca60205260405f209064ffffffffff600183015460281c169154928360a01c105f14615339576151508360a01c8661453a565b919061540a565b90506154838164ffffffffff9397959496614f76565b50161561548d5750565b614aca90615065565b5064ffffffffff8116151561541e565b60e05460df546001600160601b03808316959492916154cb607882901c83168861453a565b82811686841610939084156156185750859788945b1561553e5750505090614bf79361552a9260df549061550f836001600160601b0360781b928460781c166135c5565b60781b16906001600160601b0360781b19161760df5561453a565b60de549094906001600160a01b03166158b7565b909193506107d090818102918183041490151715610a40576107d28101809111610a40576107d383910416906001600160601b0319161760e05562ffffff93848416916103eb9384840293808504861490151715610a40576103e78401809411610a40576103e89181169382850294808604841490151715610a40576103ea8501809511610a40576001600160d81b031990911691900460601b62ffffff60601b1617929091049093161760df5560de805462ffffff60a01b191660a083901b62ffffff60a01b16179055614bf79161552a90859061453a565b9788946154e0565b9061271091815f190481118202158302156101f6570290808204910615150190565b803b15615676575f80516020615be883398151915280546001600160a01b0319166001600160a01b03909216919091179055565b60405162461bcd60e51b815260206004820152602d60248201527f455243313936373a206e657720696d706c656d656e746174696f6e206973206e60448201526c1bdd08184818dbdb9d1c9858dd609a1b6064820152608490fd5b600190910160ff1690811c90816156e95750505f1990565b6156f460ff926156f9565b011690565b5f908060801b806157ac575b508060401b8061579f575b508060201b80615792575b508060101b80615785575b508060081b80615778575b508060041b8061576b575b508060021b8061575e575b5060011b615756575b60ff0390565b600101615750565b600291509101905f615747565b600491509101905f61573c565b600891509101905f615731565b601091509101905f615726565b602091509101905f61571b565b604091509101905f615710565b9150506080905f615705565b61ffff5f5260cf6020527f7feb3f6a3c1a391a2a7e73e7be6b7f20c589a5f15e273a97cba548b1c33b8795546157ed90615a38565b5f1990600181016158a8575060ff5f5260ce6020527f11dfcf8a88d4debd632a5bb645360ee3035df796cfae4278e12255f68faf8bfc5461582d90615a38565b818103615887575061584060cd54615a38565b90810361584f575062ffffff90565b805f5260ce60205260ff61586660405f2054615a58565b169060081b17805f5260cf60205262ffffff60ff6146a860405f2054615a58565b905061ff0017805f5260cf60205262ffffff60ff6146a860405f2054615a58565b62ffffff915062ffff00171690565b91614bf79260018060a01b03908160d954169361271061590c6159036158f56158e160dc5461333e565b6143bb6001600160601b039182881661334c565b9660609660da541694615b17565b60d6549061334c565b04908161592d575b50506104dd6104eb9293604051958693602085016134da565b6104eb93509061594d6104dd92612c2160405193849287602085016134da565b92615914565b614bf793918115615a265760da546001600160a01b0316935b82156159fe5761597c8482615b17565b935b606093156159d8575061271061590c61590360018060a01b0360d95416936143bb6159aa60dc5461333e565b6001600160601b0380931661334c565b8161592d5750506104dd6104eb9293604051958693602085016134da565b60da546001600160a01b031691612710916159f7916159039190615b17565b04906159ba565b615a20615a0c60dc5461333e565b6143bb6001600160601b039182851661334c565b9361597e565b60d9546001600160a01b03169361596c565b60011b80615a4657505f1990565b60ff615a535f1992615a58565b160190565b905f916fffffffffffffffffffffffffffffffff8111615b0c575b806001600160401b0360019211615b00575b63ffffffff8111615af4575b61ffff8111615ae8575b60ff8111615adc575b600f8111615ad0575b60038111615ac4575b11615abd57565b9060010190565b6002938401931c615ab6565b6004938401931c615aad565b6008938401931c615aa4565b6010938401931c615a9b565b6020938401931c615a91565b6040938401931c615a85565b60809250821c615a73565b90615b2b614bf79262ffffff809316614102565b9061274a816142b460d354946001600160601b038660301c1690614120565b91929015615bac5750815115615b5e575090565b3b15615b675790565b60405162461bcd60e51b815260206004820152601d60248201527f416464726573733a2063616c6c20746f206e6f6e2d636f6e74726163740000006044820152606490fd5b825190915015615bbf5750805190602001fd5b60405162461bcd60e51b815260206004820152908190615be3906024830190613136565b0390fdfe360894a13ba1a3210667c828492db98dca3e2076cc3735a920a3ca505d382bbcde65ec26e567cef1936a693231b33b08ce40fca66ce0e78b38d938048c7a0891a264697066735822122044459994d954f8d01bd70a8eff1861cf892a9753bf212396881e9306d233ba4964736f6c63430008180033",
  "linkReferences": {},
  "deployedLinkReferences": {}
}