{
  "_format": "hh-sol-artifact-1",
  "contractName": "OrderBook",
  "sourceName": "contracts/OrderBook.sol",
  "abi": [
    {
      "inputs": [],
      "stateMutability": "nonpayable",
      "type": "constructor"
    },
    {
      "inputs": [],
      "name": "AlreadyInitialized",
      "type": "error"
    },
    {
      "inputs": [],
      "name": "InsufficientLiquidity",
      "type": "error"
    },
    {
      "inputs": [],
      "name": "InvalidInitialization",
      "type": "error"
    },
    {
      "inputs": [],
      "name": "InvalidSpread",
      "type": "error"
    },
    {
      "inputs": [],
      "name": "LengthMismatch",
      "type": "error"
    },
    {
      "inputs": [],
      "name": "MarketFeeError",
      "type": "error"
    },
    {
      "inputs": [],
      "name": "MarketStateError",
      "type": "error"
    },
    {
      "inputs": [],
      "name": "NativeAssetInsufficient",
      "type": "error"
    },
    {
      "inputs": [],
      "name": "NativeAssetNotRequired",
      "type": "error"
    },
    {
      "inputs": [],
      "name": "NativeAssetTransferFail",
      "type": "error"
    },
    {
      "inputs": [],
      "name": "NewOwnerIsZeroAddress",
      "type": "error"
    },
    {
      "inputs": [],
      "name": "NoHandoverRequest",
      "type": "error"
    },
    {
      "inputs": [],
      "name": "NotInitializing",
      "type": "error"
    },
    {
      "inputs": [],
      "name": "OnlyOwnerAllowedError",
      "type": "error"
    },
    {
      "inputs": [],
      "name": "OrderAlreadyFilledOrCancelled",
      "type": "error"
    },
    {
      "inputs": [],
      "name": "PostOnlyError",
      "type": "error"
    },
    {
      "inputs": [],
      "name": "PriceError",
      "type": "error"
    },
    {
      "inputs": [],
      "name": "SizeError",
      "type": "error"
    },
    {
      "inputs": [],
      "name": "SlippageExceeded",
      "type": "error"
    },
    {
      "inputs": [],
      "name": "TickSizeError",
      "type": "error"
    },
    {
      "inputs": [],
      "name": "TooMuchSizeFilled",
      "type": "error"
    },
    {
      "inputs": [],
      "name": "Unauthorized",
      "type": "error"
    },
    {
      "inputs": [],
      "name": "UnauthorizedCallContext",
      "type": "error"
    },
    {
      "inputs": [],
      "name": "UpgradeFailed",
      "type": "error"
    },
    {
      "anonymous": false,
      "inputs": [
        {
          "indexed": false,
          "internalType": "uint64",
          "name": "version",
          "type": "uint64"
        }
      ],
      "name": "Initialized",
      "type": "event"
    },
    {
      "anonymous": false,
      "inputs": [
        {
          "indexed": false,
          "internalType": "uint40",
          "name": "orderId",
          "type": "uint40"
        },
        {
          "indexed": false,
          "internalType": "address",
          "name": "owner",
          "type": "address"
        },
        {
          "indexed": false,
          "internalType": "uint96",
          "name": "size",
          "type": "uint96"
        },
        {
          "indexed": false,
          "internalType": "uint24",
          "name": "price",
          "type": "uint24"
        },
        {
          "indexed": false,
          "internalType": "bool",
          "name": "isBuy",
          "type": "bool"
        }
      ],
      "name": "OrderCreated",
      "type": "event"
    },
    {
      "anonymous": false,
      "inputs": [
        {
          "indexed": false,
          "internalType": "uint40[]",
          "name": "orderId",
          "type": "uint40[]"
        },
        {
          "indexed": false,
          "internalType": "address",
          "name": "owner",
          "type": "address"
        }
      ],
      "name": "OrdersCanceled",
      "type": "event"
    },
    {
      "anonymous": false,
      "inputs": [
        {
          "indexed": true,
          "internalType": "address",
          "name": "pendingOwner",
          "type": "address"
        }
      ],
      "name": "OwnershipHandoverCanceled",
      "type": "event"
    },
    {
      "anonymous": false,
      "inputs": [
        {
          "indexed": true,
          "internalType": "address",
          "name": "pendingOwner",
          "type": "address"
        }
      ],
      "name": "OwnershipHandoverRequested",
      "type": "event"
    },
    {
      "anonymous": false,
      "inputs": [
        {
          "indexed": true,
          "internalType": "address",
          "name": "oldOwner",
          "type": "address"
        },
        {
          "indexed": true,
          "internalType": "address",
          "name": "newOwner",
          "type": "address"
        }
      ],
      "name": "OwnershipTransferred",
      "type": "event"
    },
    {
      "anonymous": false,
      "inputs": [
        {
          "indexed": false,
          "internalType": "uint40",
          "name": "orderId",
          "type": "uint40"
        },
        {
          "indexed": false,
          "internalType": "address",
          "name": "makerAddress",
          "type": "address"
        },
        {
          "indexed": false,
          "internalType": "bool",
          "name": "isBuy",
          "type": "bool"
        },
        {
          "indexed": false,
          "internalType": "uint256",
          "name": "price",
          "type": "uint256"
        },
        {
          "indexed": false,
          "internalType": "uint96",
          "name": "updatedSize",
          "type": "uint96"
        },
        {
          "indexed": false,
          "internalType": "address",
          "name": "takerAddress",
          "type": "address"
        },
        {
          "indexed": false,
          "internalType": "uint96",
          "name": "filledSize",
          "type": "uint96"
        }
      ],
      "name": "Trade",
      "type": "event"
    },
    {
      "anonymous": false,
      "inputs": [
        {
          "indexed": true,
          "internalType": "address",
          "name": "implementation",
          "type": "address"
        }
      ],
      "name": "Upgraded",
      "type": "event"
    },
    {
      "inputs": [
        {
          "internalType": "uint24",
          "name": "_price",
          "type": "uint24"
        },
        {
          "internalType": "uint96",
          "name": "size",
          "type": "uint96"
        },
        {
          "internalType": "bool",
          "name": "_postOnly",
          "type": "bool"
        }
      ],
      "name": "addBuyOrder",
      "outputs": [],
      "stateMutability": "nonpayable",
      "type": "function"
    },
    {
      "inputs": [
        {
          "internalType": "uint24",
          "name": "_price",
          "type": "uint24"
        },
        {
          "internalType": "uint96",
          "name": "size",
          "type": "uint96"
        },
        {
          "internalType": "bool",
          "name": "_postOnly",
          "type": "bool"
        }
      ],
      "name": "addSellOrder",
      "outputs": [],
      "stateMutability": "nonpayable",
      "type": "function"
    },
    {
      "inputs": [
        {
          "internalType": "uint40[]",
          "name": "_orderIds",
          "type": "uint40[]"
        }
      ],
      "name": "batchCancelOrders",
      "outputs": [],
      "stateMutability": "nonpayable",
      "type": "function"
    },
    {
      "inputs": [
        {
          "internalType": "uint24[]",
          "name": "buyPrices",
          "type": "uint24[]"
        },
        {
          "internalType": "uint96[]",
          "name": "buySizes",
          "type": "uint96[]"
        },
        {
          "internalType": "uint24[]",
          "name": "sellPrices",
          "type": "uint24[]"
        },
        {
          "internalType": "uint96[]",
          "name": "sellSizes",
          "type": "uint96[]"
        },
        {
          "internalType": "uint40[]",
          "name": "orderIdsToCancel",
          "type": "uint40[]"
        },
        {
          "internalType": "bool",
          "name": "postOnly",
          "type": "bool"
        }
      ],
      "name": "batchUpdate",
      "outputs": [],
      "stateMutability": "nonpayable",
      "type": "function"
    },
    {
      "inputs": [],
      "name": "bestBidAsk",
      "outputs": [
        {
          "internalType": "uint256",
          "name": "",
          "type": "uint256"
        },
        {
          "internalType": "uint256",
          "name": "",
          "type": "uint256"
        }
      ],
      "stateMutability": "view",
      "type": "function"
    },
    {
      "inputs": [],
      "name": "cancelOwnershipHandover",
      "outputs": [],
      "stateMutability": "payable",
      "type": "function"
    },
    {
      "inputs": [],
      "name": "collectFees",
      "outputs": [],
      "stateMutability": "nonpayable",
      "type": "function"
    },
    {
      "inputs": [
        {
          "internalType": "address",
          "name": "pendingOwner",
          "type": "address"
        }
      ],
      "name": "completeOwnershipHandover",
      "outputs": [],
      "stateMutability": "payable",
      "type": "function"
    },
    {
      "inputs": [],
      "name": "getL2Book",
      "outputs": [
        {
          "internalType": "bytes",
          "name": "",
          "type": "bytes"
        }
      ],
      "stateMutability": "view",
      "type": "function"
    },
    {
      "inputs": [],
      "name": "getMarketParams",
      "outputs": [
        {
          "internalType": "uint24",
          "name": "",
          "type": "uint24"
        },
        {
          "internalType": "uint96",
          "name": "",
          "type": "uint96"
        },
        {
          "internalType": "address",
          "name": "",
          "type": "address"
        },
        {
          "internalType": "uint256",
          "name": "",
          "type": "uint256"
        },
        {
          "internalType": "address",
          "name": "",
          "type": "address"
        },
        {
          "internalType": "uint256",
          "name": "",
          "type": "uint256"
        },
        {
          "internalType": "uint24",
          "name": "",
          "type": "uint24"
        },
        {
          "internalType": "uint96",
          "name": "",
          "type": "uint96"
        },
        {
          "internalType": "uint96",
          "name": "",
          "type": "uint96"
        },
        {
          "internalType": "uint256",
          "name": "",
          "type": "uint256"
        },
        {
          "internalType": "uint256",
          "name": "",
          "type": "uint256"
        }
      ],
      "stateMutability": "view",
      "type": "function"
    },
    {
      "inputs": [],
      "name": "getVaultParams",
      "outputs": [
        {
          "internalType": "address",
          "name": "",
          "type": "address"
        },
        {
          "internalType": "uint256",
          "name": "",
          "type": "uint256"
        },
        {
          "internalType": "uint96",
          "name": "",
          "type": "uint96"
        },
        {
          "internalType": "uint256",
          "name": "",
          "type": "uint256"
        },
        {
          "internalType": "uint96",
          "name": "",
          "type": "uint96"
        },
        {
          "internalType": "uint96",
          "name": "",
          "type": "uint96"
        },
        {
          "internalType": "uint96",
          "name": "",
          "type": "uint96"
        },
        {
          "internalType": "uint96",
          "name": "",
          "type": "uint96"
        }
      ],
      "stateMutability": "view",
      "type": "function"
    },
    {
      "inputs": [
        {
          "internalType": "address",
          "name": "_owner",
          "type": "address"
        },
        {
          "internalType": "enum IOrderBook.OrderBookType",
          "name": "_type",
          "type": "uint8"
        },
        {
          "internalType": "address",
          "name": "_baseAssetAddress",
          "type": "address"
        },
        {
          "internalType": "uint256",
          "name": "_baseAssetDecimals",
          "type": "uint256"
        },
        {
          "internalType": "address",
          "name": "_quoteAssetAddress",
          "type": "address"
        },
        {
          "internalType": "uint256",
          "name": "_quoteAssetDecimals",
          "type": "uint256"
        },
        {
          "internalType": "address",
          "name": "_marginAccountAddress",
          "type": "address"
        },
        {
          "internalType": "uint96",
          "name": "_sizePrecision",
          "type": "uint96"
        },
        {
          "internalType": "uint24",
          "name": "_pricePrecision",
          "type": "uint24"
        },
        {
          "internalType": "uint24",
          "name": "_tickSize",
          "type": "uint24"
        },
        {
          "internalType": "uint96",
          "name": "_minSize",
          "type": "uint96"
        },
        {
          "internalType": "uint96",
          "name": "_maxSize",
          "type": "uint96"
        },
        {
          "internalType": "uint256",
          "name": "_takerFeeBps",
          "type": "uint256"
        },
        {
          "internalType": "uint256",
          "name": "_makerFeeBps",
          "type": "uint256"
        },
        {
          "internalType": "address",
          "name": "_kuruAmmVault",
          "type": "address"
        },
        {
          "internalType": "uint96",
          "name": "_kuruAmmSpread",
          "type": "uint96"
        }
      ],
      "name": "initialize",
      "outputs": [],
      "stateMutability": "nonpayable",
      "type": "function"
    },
    {
      "inputs": [],
      "name": "owner",
      "outputs": [
        {
          "internalType": "address",
          "name": "result",
          "type": "address"
        }
      ],
      "stateMutability": "view",
      "type": "function"
    },
    {
      "inputs": [
        {
          "internalType": "address",
          "name": "pendingOwner",
          "type": "address"
        }
      ],
      "name": "ownershipHandoverExpiresAt",
      "outputs": [
        {
          "internalType": "uint256",
          "name": "result",
          "type": "uint256"
        }
      ],
      "stateMutability": "view",
      "type": "function"
    },
    {
      "inputs": [
        {
          "internalType": "uint24",
          "name": "_quoteSize",
          "type": "uint24"
        },
        {
          "internalType": "uint256",
          "name": "_minAmountOut",
          "type": "uint256"
        },
        {
          "internalType": "bool",
          "name": "_isMargin",
          "type": "bool"
        },
        {
          "internalType": "bool",
          "name": "_isFillOrKill",
          "type": "bool"
        }
      ],
      "name": "placeAndExecuteMarketBuy",
      "outputs": [
        {
          "internalType": "uint256",
          "name": "",
          "type": "uint256"
        }
      ],
      "stateMutability": "payable",
      "type": "function"
    },
    {
      "inputs": [
        {
          "internalType": "uint96",
          "name": "_size",
          "type": "uint96"
        },
        {
          "internalType": "uint256",
          "name": "_minAmountOut",
          "type": "uint256"
        },
        {
          "internalType": "bool",
          "name": "_isMargin",
          "type": "bool"
        },
        {
          "internalType": "bool",
          "name": "_isFillOrKill",
          "type": "bool"
        }
      ],
      "name": "placeAndExecuteMarketSell",
      "outputs": [
        {
          "internalType": "uint256",
          "name": "",
          "type": "uint256"
        }
      ],
      "stateMutability": "payable",
      "type": "function"
    },
    {
      "inputs": [
        {
          "internalType": "uint24[]",
          "name": "_prices",
          "type": "uint24[]"
        },
        {
          "internalType": "uint96[]",
          "name": "_sizes",
          "type": "uint96[]"
        },
        {
          "internalType": "bool",
          "name": "_postOnly",
          "type": "bool"
        }
      ],
      "name": "placeMultipleBuyOrders",
      "outputs": [],
      "stateMutability": "nonpayable",
      "type": "function"
    },
    {
      "inputs": [
        {
          "internalType": "uint24[]",
          "name": "_prices",
          "type": "uint24[]"
        },
        {
          "internalType": "uint96[]",
          "name": "_sizes",
          "type": "uint96[]"
        },
        {
          "internalType": "bool",
          "name": "_postOnly",
          "type": "bool"
        }
      ],
      "name": "placeMultipleSellOrders",
      "outputs": [],
      "stateMutability": "nonpayable",
      "type": "function"
    },
    {
      "inputs": [],
      "name": "proxiableUUID",
      "outputs": [
        {
          "internalType": "bytes32",
          "name": "",
          "type": "bytes32"
        }
      ],
      "stateMutability": "view",
      "type": "function"
    },
    {
      "inputs": [],
      "name": "renounceOwnership",
      "outputs": [],
      "stateMutability": "payable",
      "type": "function"
    },
    {
      "inputs": [],
      "name": "requestOwnershipHandover",
      "outputs": [],
      "stateMutability": "payable",
      "type": "function"
    },
    {
      "inputs": [
        {
          "internalType": "uint256",
          "name": "",
          "type": "uint256"
        }
      ],
      "name": "s_buyPricePoints",
      "outputs": [
        {
          "internalType": "uint40",
          "name": "head",
          "type": "uint40"
        },
        {
          "internalType": "uint40",
          "name": "tail",
          "type": "uint40"
        }
      ],
      "stateMutability": "view",
      "type": "function"
    },
    {
      "inputs": [],
      "name": "s_buyTree",
      "outputs": [
        {
          "internalType": "bytes32",
          "name": "level0",
          "type": "bytes32"
        }
      ],
      "stateMutability": "view",
      "type": "function"
    },
    {
      "inputs": [],
      "name": "s_orderIdCounter",
      "outputs": [
        {
          "internalType": "uint40",
          "name": "",
          "type": "uint40"
        }
      ],
      "stateMutability": "view",
      "type": "function"
    },
    {
      "inputs": [
        {
          "internalType": "uint40",
          "name": "",
          "type": "uint40"
        }
      ],
      "name": "s_orders",
      "outputs": [
        {
          "internalType": "address",
          "name": "ownerAddress",
          "type": "address"
        },
        {
          "internalType": "uint96",
          "name": "size",
          "type": "uint96"
        },
        {
          "internalType": "uint40",
          "name": "prev",
          "type": "uint40"
        },
        {
          "internalType": "uint40",
          "name": "next",
          "type": "uint40"
        },
        {
          "internalType": "uint24",
          "name": "price",
          "type": "uint24"
        },
        {
          "internalType": "bool",
          "name": "isBuy",
          "type": "bool"
        }
      ],
      "stateMutability": "view",
      "type": "function"
    },
    {
      "inputs": [
        {
          "internalType": "uint256",
          "name": "",
          "type": "uint256"
        }
      ],
      "name": "s_sellPricePoints",
      "outputs": [
        {
          "internalType": "uint40",
          "name": "head",
          "type": "uint40"
        },
        {
          "internalType": "uint40",
          "name": "tail",
          "type": "uint40"
        }
      ],
      "stateMutability": "view",
      "type": "function"
    },
    {
      "inputs": [],
      "name": "s_sellTree",
      "outputs": [
        {
          "internalType": "bytes32",
          "name": "level0",
          "type": "bytes32"
        }
      ],
      "stateMutability": "view",
      "type": "function"
    },
    {
      "inputs": [
        {
          "internalType": "bool",
          "name": "_state",
          "type": "bool"
        }
      ],
      "name": "toggleMarkets",
      "outputs": [],
      "stateMutability": "nonpayable",
      "type": "function"
    },
    {
      "inputs": [
        {
          "internalType": "address",
          "name": "newOwner",
          "type": "address"
        }
      ],
      "name": "transferOwnership",
      "outputs": [],
      "stateMutability": "payable",
      "type": "function"
    },
    {
      "inputs": [
        {
          "internalType": "uint96",
          "name": "_vaultAskOrderSize",
          "type": "uint96"
        },
        {
          "internalType": "uint96",
          "name": "_vaultBidOrderSize",
          "type": "uint96"
        },
        {
          "internalType": "uint256",
          "name": "_askPrice",
          "type": "uint256"
        },
        {
          "internalType": "uint256",
          "name": "_bidPrice",
          "type": "uint256"
        }
      ],
      "name": "updateVaultOrdSz",
      "outputs": [],
      "stateMutability": "nonpayable",
      "type": "function"
    },
    {
      "inputs": [
        {
          "internalType": "address",
          "name": "newImplementation",
          "type": "address"
        },
        {
          "internalType": "bytes",
          "name": "data",
          "type": "bytes"
        }
      ],
      "name": "upgradeToAndCall",
      "outputs": [],
      "stateMutability": "payable",
      "type": "function"
    },
    {
      "inputs": [],
      "name": "vaultAskOrderSize",
      "outputs": [
        {
          "internalType": "uint96",
          "name": "",
          "type": "uint96"
        }
      ],
      "stateMutability": "view",
      "type": "function"
    },
    {
      "inputs": [],
      "name": "vaultBestAsk",
      "outputs": [
        {
          "internalType": "uint256",
          "name": "",
          "type": "uint256"
        }
      ],
      "stateMutability": "view",
      "type": "function"
    }
  ],
  "bytecode": "0x60a08060405234609a573060805263409feecd195460018116608c5760011c6002600160401b0319016048575b615b9090816100a082396080518181816113d001526114950152f35b6002600160411b0363409feecd19556001600160401b0360209081527fc7f505b2f371ae2175ee4913f4499e1f2633a7b5936321eed1cdaeb6115181d29080a1602c565b63f92ee8a96000526004601cfd5b600080fdfe6102e080604052600436101561001457600080fd5b60003560e01c90816302b90c6514612dc4575080630e2e2ffe14612d6f578063137fc7bb14612a2b5780631c0d9c22146129a157806320b3fa5c14611dc857806323afbff314611d345780632569296214611ce85780632bf1360e14611cc35780633c133765146117c857806346fdfbb1146115d1578063474b848c146115b35780634d7811031461155f5780634f1ef2861461144157806351130ac61461141a57806352d1902d146113bc578063532c46db146110f257806354d1f13d146110aa5780635b16c9b61461106a578063715018a61461102d57806388bb4f6014610f905780638da5cb5b14610f6357806390c9427c14610ec3578063b4de8b7014610e91578063badc92d114610e73578063bb62b3c5146109fe578063c879657214610967578063cc57aec614610410578063d2cd7d7f14610379578063e55bb4e3146102aa578063e6d29b5114610251578063f04e283e14610201578063f2fde38b146101c35763fee81cf41461018b57600080fd5b346101be5760203660031901126101be576101a4612ddf565b63389a75e1600c52600052602080600c2054604051908152f35b600080fd5b60203660031901126101be576101d7612ddf565b6101df613e04565b8060601b156101f3576101f190614aab565b005b637448fbae6000526004601cfd5b60203660031901126101be57610215612ddf565b61021d613e04565b63389a75e1600c52806000526020600c2090815442116102435760006101f19255614aab565b636f5e88186000526004601cfd5b346101be5760203660031901126101be5760043560005260076020526102a6604060002054604051918164ffffffffff80859460281c1691168390929164ffffffffff60209181604085019616845216910152565b0390f35b346101be5760803660031901126101be576102c3612df5565b6102cb612e0b565b6000549091906001600160a01b0316330361033c576001600160601b0391600454908360601b9060601b16908360601b191617600455166001600160601b0319600554161760055560001960035414610331575b6001541561032957005b606435600155005b60443560035561031f565b60405162461bcd60e51b815260206004820152601560248201527413dc99195c909bdbdace8813db9b1e4815985d5b1d605a1b6044820152606490fd5b346101be5761038736612ed0565b9360ff600f5460281c166103ef578184036103ff5760005b8481106103a857005b6103bb6103b6828785612f96565b612fbc565b906103cf6103ca828688612f96565b612fcc565b60ff600f5460281c166103ef57876103e9916001946132a8565b0161039f565b6225b2dd60e11b60005260046000fd5b631fec674760e31b60005260046000fd5b346101be5760603660031901126101be57610429612e21565b610431612e0b565b9061043a612e63565b60ff600f5460281c166103ef5762ffffff8216801561095657601654936001600160601b038116946001600160601b0381168611156109455760601c6001600160601b03168510156109455762ffffff61049b8160155460a01c1686613225565b16610934579284929392600080956104b1614bb3565b949094926000906060995b6001600160601b038a161515806108e4575b806108db575b156105da57898660008a156105815750506104ee9061541b565b9390988994935b8c869b61050191613a2a565b61050a916131be565b9b6000916000146105689662ffffff61054f6105406105629861055c976105569661053a575061053a8588613a2a565b906131be565b9c82600f5460901c1690615706565b1692613a2a565b90614c75565b906130c0565b996131de565b95610571614bb3565b95909698909594999197996104bc565b916105cf9160406001600160601b039794670de0b6b3a76400006105c062ffffff600f5460901c1662ffffff836105b88389612f45565b041695612f45565b04815260086020522090614f1c565b9416988994936104f5565b848b8b9489936001600160601b038d9616806106fd575b505061064691506106069061055c8789614c75565b61063f61062e60018060a01b03601554169262ffffff61062760135461323b565b9116612f45565b62ffffff600f5460901c1690612f58565b339161481a565b6106d7575b506001600160601b03821661065c57005b6106d2600080516020615b3b83398151915293600f549261068364ffffffffff8516613249565b64ffffffffff1990941664ffffffffff851617600f556106a282614888565b5060005260076020526106c46106bc8460406000206149b4565b848684614a10565b604051938493339085613263565b0390a1005b6001600160601b038316036106ec578361064b565b6306e6da4d60e01b60005260046000fd5b6107136012549161070d8361323b565b90612f45565b6001600160601b0361072d81600f5460301c168093612f58565b93169081610846575b5050506107aa60009361078e60209360105480610805575b5060018060a01b03601954169261078960018060a01b036014541661077b604051948592338b850161312f565b03601f19810184528361307d565b6131de565b6040519586809481936337adb00f60e11b835260048301612ea4565b03925af19081156107f95761064692610606926107ca575b8192506105f1565b6107eb9060203d6020116107f2575b6107e3818361307d565b810190613117565b50886107c2565b503d6107d9565b6040513d6000823e3d90fd5b6108358161083061082361081c61083d9587615734565b8096613a4a565b9461070d60115484613a4a565b612f58565b601854613a57565b6018558c61074e565b6019546000546014546001600160a01b039081169591811694921692610876929091610830919061070d9061323b565b90803b156101be576108a3936000809460405196879586948593633609c92960e11b85526004850161309e565b03925af19384156107f95761078e6020936107aa936000976108cb575b509350819550610736565b876108d59161307d565b8c6108c0565b508515156104d4565b50670de0b6b3a76400008902898104670de0b6b3a76400000361091e576109169062ffffff600f5460901c1690612f58565b8611156104ce565b634e487b7160e01b600052601160045260246000fd5b63272d3bf760e01b60005260046000fd5b630a5c4f1f60e01b60005260046000fd5b6348fa9b2b60e11b60005260046000fd5b346101be5760003660031901126101be576019546014546018546015546017546040516324facdb160e11b81526001600160a01b0394851660048201526024810193909352908316604483015260648201529160209183916084918391600091165af180156107f9576109e1575b60006018819055601755005b6109f99060203d6020116107f2576107e3818361307d565b6109d5565b346101be57610a0c36612ed0565b919360ff600f5460281c166103ef578184036103ff5760009493945b858110610a3157005b610a3f6103b6828885612f96565b93610a4e6103ca838689612f96565b9160ff600f5460281c166103ef5762ffffff861690811561095657601654936001600160601b038116946001600160601b0381168611156109455760601c6001600160601b03168510156109455762ffffff610ab18160155460a01c168a613225565b1661093457989597949895600080610ac7614bb3565b9890989960006060915b6001600160601b038116151580610e39575b80610e30575b15610bca57808d60008e15610b88575050610b06610b2e9261541b565b929092975b610b1a849861053a8686613a2a565b9e6000901561053a575061053a8484613a2a565b9d600f5460901c62ffffff16610b4391615706565b62ffffff1691610b5291613a2a565b610b5b91614c75565b610b64916130c0565b93610b6e916131de565b93610b77614bb3565b9d909d9b94909d9a93959195610ad1565b6001600160601b0393610b2e926040610bc193670de0b6b3a76400006105c062ffffff600f5460901c1662ffffff836105b88389612f45565b93169297610b0b565b96989c9799959d9b50928c9491929e9a506001600160601b031680610ca4575b505050610bfe610c399161055c8688614c75565b610c1c60018060a01b03601554169162ffffff61062760135461323b565b90610c33339262ffffff600f5460901c1690612f58565b9061481a565b610c8f575b506001936001600160601b038216610c5d575b50505001949394610a28565b610c84600080516020615b3b83398151915293600f549261068364ffffffffff8516613249565b0390a1878080610c51565b6001600160601b038216036106ec5789610c3e565b9091929350610cb96012549161070d8361323b565b6001600160601b03610cd381600f5460301c168093612f58565b93169081610d9b575b505050610d3c600092610d2060209360105480610d7b575060018060a01b03601954169261078960018060a01b036014541661077b604051948592338b850161312f565b6040519485809481936337adb00f60e11b835260048301612ea4565b03925af180156107f9578a92610c3992610bfe92610d5d575b819350610bea565b610d749060203d81116107f2576107e3818361307d565b508e610d55565b6108358161083061082361081c610d929587615734565b6018553861074e565b6019546000546014546001600160a01b039081169591811694921692610dcb929091610830919061070d9061323b565b90803b156101be57610df8936000809460405196879586948593633609c92960e11b85526004850161309e565b03925af19283156107f957610d20602093610d3c93600096610e20575b509350819450610cdc565b86610e2a9161307d565b38610e15565b508c1515610ae9565b50670de0b6b3a76400008902898104670de0b6b3a76400000361091e57610e6b9062ffffff600f5460901c1690612f58565b8d1115610ae3565b346101be5760003660031901126101be576020600954604051908152f35b346101be5760003660031901126101be576040610eac614add565b9050610eb6614bb3565b8351928352602083015250f35b346101be5760003660031901126101be57610160600f5460018060a01b03601454166012546001600160601b0360155462ffffff60135491601654926010549560115497866040519a868160901c168c5260301c1660208b015260408a0152606089015260018060a01b038216608089015260a088015260a01c1660c086015281811660e086015260601c16610100840152610120830152610140820152f35b346101be5760003660031901126101be57638b78c6d819546040516001600160a01b039091168152602090f35b346101be5760003660031901126101be5760018060a01b0360005416600154906001600160601b036002541691600354926004549160055490600a6001600160601b038360601c1602936001600160601b03851694850361091e57610100966001600160601b03948593604051988952602089015260408801526060870152818116608087015260601c1660a08501521660c083015260e0820152f35b60003660031901126101be57611041613e04565b6000638b78c6d81954600080516020615afb8339815191528280a3600160ff1b638b78c6d81955005b346101be5760603660031901126101be57611083612e21565b61108b612e0b565b611093612e63565b9060ff600f5460281c166103ef576101f1926132a8565b60003660031901126101be5763389a75e1600c523360005260006020600c2055337ffa7b8eab7da67f412cc9575ed43464468f9bfbae89d1675917346ca6d8fe3c92600080a2005b60803660031901126101be57611106612df5565b61110e612e63565b611116612e72565b9060ff600f5460281c166103ef5760ff60055460c01c169260038410159384611249576001149081806113b4575b156112ee5761115281613e21565b341015806112c2575b156112b1578261116a91613e3b565b9490936001600160601b038516156112705761125f576112495780611241575b156111c6575061119c6111a191613e21565b613a64565b60243581106111b557602090604051908152f35b638199f5f360e01b60005260046000fd5b60195460145461120d93602093926001600160a01b039081169216906000906111ee90613e21565b604051633af55cc760e11b815296879586948593903360048601613158565b03925af180156107f957611222575b506111a1565b61123a9060203d6020116107f2576107e3818361307d565b508161121c565b50801561118a565b634e487b7160e01b600052602160045260246000fd5b63bb55fd2760e01b60005260046000fd5b505091505060009061128257506111a1565b8080808060018060a01b036019541634905af161129d6130d8565b5061121c5763386bf62b60e11b8152600490fd5b63fd99316160e01b60005260046000fd5b5060016001600160601b038216016001600160601b03811161091e576112e790613e21565b341061115b565b346113a35782801561137157506019546014546001600160a01b0391821692911661131882613e21565b833b156101be576113449360009283604051809781958294633609c92960e11b8452336004850161309e565b03925af19081156107f95761116a928592611360575b50613e3b565b600061136b9161307d565b8761135a565b60145460195461116a939161139e916001600160a01b03918216911661139684613e21565b9133906139da565b613e3b565b63756ac9bb60e11b60005260046000fd5b508215611144565b346101be5760003660031901126101be57307f00000000000000000000000000000000000000000000000000000000000000000361140c576020604051600080516020615adb8339815191528152f35b639f03a0266000526004601cfd5b346101be5760003660031901126101be5760206001600160601b0360055416604051908152f35b60403660031901126101be57611455612ddf565b602435906001600160401b0382116101be57366023830112156101be578160040135906001600160401b0382116101be5736602483850101116101be57307f00000000000000000000000000000000000000000000000000000000000000001461140c576114c1613e04565b60018060a01b03166352d1902d600152600080516020615adb833981519152602060016004601d855afa510361155157807fbc7cd75a20ee27fd9adebab32041f755214dbc6bffa90cc0225b39da2e5c2d3b600080a28181600080516020615adb8339815191525561152f57005b816000926024604051950185378338925af41561154857005b3d6000823e3d90fd5b6355299b496001526004601dfd5b346101be5760203660031901126101be576004358015158091036101be57611585613e04565b600f549060ff8260281c16151581146103ef5760ff60281b9060281b169060ff60281b191617600f55600080f35b346101be5760003660031901126101be576020600354604051908152f35b346101be5760003660031901126101be57604051436020820152602081526115fa60408261307d565b611602613ab9565b62ffffff811662ffffff811415806117bf575b156116c257600052600760205264ffffffffff604060002054169064ffffffffff6000925b169182156116805761165e9083600052600660205260406000205460a01c906131be565b91600052600660205264ffffffffff8060016040600020015460281c1661163a565b6040805162ffffff841660208201526001600160601b039092169082015290926116bd92506116b79190610789826060810161077b565b91613b81565b611602565b6116e08360405190600060208301526020825261078960408361307d565b6116e8613c68565b62ffffff811662ffffff811415806117b6575b156117a857600052600860205264ffffffffff604060002054169064ffffffffff6000925b16918215611766576117449083600052600660205260406000205460a01c906131be565b91600052600660205264ffffffffff8060016040600020015460281c16611720565b6040805162ffffff841660208201526001600160601b039092169082015290926117a3925061179d9190610789826060810161077b565b91613d1e565b6116e8565b604051806102a68582612ea4565b508015156116fb565b50801515611615565b60803660031901126101be576117dc612e21565b6117e4612e63565b906117ed612e72565b60ff600f5460281c166103ef5760ff60055460c01c166003811015908161124957600214928380611cbb575b15611c1857611827816139c1565b34101580611bf4575b156112b157939192935b91600093600093611849614bb3565b939093966000926060975b62ffffff82169182151580611beb575b156119ef57506001600160601b03611885600f5493828560301c16906134c0565b16670de0b6b3a7640000810290808204670de0b6b3a7640000149015171561091e578a9361053a8993611917936001600160601b036118da62ffffff61191d9960901c16926118d4848c612f45565b90612f58565b169e8f9687926000911561199a575050506118f76119119161541b565b92909c8d8094985b600092156119925761053a9250613a2a565b9d613a2a565b986131de565b946001600160601b0361193c600f549362ffffff8560901c1690612f45565b9260301c16670de0b6b3a7640000810290808204670de0b6b3a7640000149015171561091e5762ffffff926001600160601b0361197a9316906156f0565b1690611984614bb3565b999095979192909998611854565b5050906131be565b928260406119e39362ffffff670de0b6b3a76400006119d38983836119cb6119119d6001600160601b039f9d612f45565b041696612f45565b0416815260086020522090614f1c565b93169c8d8094986118ff565b848c8a898d8a966001600160601b038a169182611a65575b50505062ffffff8516156112705761125f576112495780611a5d575b15611a35575061119c6111a1916139c1565b60195460155461120d93602093926001600160a01b039081169216906000906111ee906139c1565b508015611a23565b90919750611a796012549861070d8a61323b565b611a926001600160601b03600f5460301c168092612f58565b986001600160601b0360018060a01b036014541694169182611b70575b50505060105480611b20575b50611aeb600092610d208a60209461078960018060a01b03601954169461077b8d604051958693338c8601613158565b03925af180156107f957611b01575b8080611a07565b611b199060203d6020116107f2576107e3818361307d565b5086611afa565b9790611b2c8983615734565b9182611b3791613a4a565b988992601154611b479083613a4a565b611b5091612f45565b90611b5a91612f58565b60185490611b6791613a57565b60185590611abb565b6019546000546001600160a01b0391821694911692611b9792916108309161070d9061323b565b823b156101be57611bc492856000809460405196879586948593633609c92960e11b85526004850161309e565b03925af180156107f957611bda575b8080611aaf565b6000611be59161307d565b88611bd3565b508a1515611864565b50600162ffffff82160162ffffff811161091e57611c11906139c1565b3410611830565b346113a3578415611c96576019546015546001600160a01b039182169116611c3f836139c1565b823b156101be57611c6b9260009283604051809681958294633609c92960e11b8452336004850161309e565b03925af180156107f957611c85575b505b9391929361183a565b6000611c909161307d565b85611c7a565b601554601954611cb6916001600160a01b039081169116611396846139c1565b611c7c565b508415611819565b346101be5760003660031901126101be57602064ffffffffff600f5416604051908152f35b60003660031901126101be5763389a75e1600c52336000526202a30042016020600c2055337fdbf36a107da19e49527a7176a1babf963b4b0ff8cde35ee35d6cd8f1f9ac7e1d600080a2005b346101be5760203660031901126101be576004356001600160401b0381116101be57611d64903690600401612e33565b9060005b828110611da357507f386974f41b61738b510019ccd5a3524a43eccf0d136929e09d524e87aeeca2c4916106d2604051928392339184612ff2565b80611dc1611dbc611db76001948787612f96565b612fe0565b613505565b5001611d68565b346101be5760c03660031901126101be576004356001600160401b0381116101be57611df8903690600401612e33565b610240526024356001600160401b0381116101be57611e1b903690600401612e33565b60a0526044356001600160401b0381116101be57611e3d903690600401612e33565b6064356001600160401b0381116101be57611e5c903690600401612e33565b9190936084356001600160401b0381116101be57611e7e903690600401612e33565b6102005260a43561022081905290969080151590036101be5760ff600f5460281c166103ef5760a05161024051036103ff578383036103ff5795949392919060006101c0525b610240516101c05110611faa575b5090919293945060005b818110611f4c575b505050505060005b610200518110611f2e577f386974f41b61738b510019ccd5a3524a43eccf0d136929e09d524e87aeeca2c46106d2836040519182913390610200519084612ff2565b80611f45611dbc611db76001946102005187612f96565b5001611eec565b62ffffff611f5e6103b6838588612f96565b1615611fa557611f726103b6828487612f96565b90611f816103ca828689612f96565b60ff600f5460281c166103ef57600192611f9f9161022051916132a8565b01611edc565b611ee4565b62ffffff611fc26103b66101c051610240518b612f96565b161561299c57611fdc6103b66101c051610240518a612f96565b61026052611ff36103ca6101c05160a05184612f96565b6102805260ff600f5460281c166103ef5762ffffff610260511615610956576016546001600160601b0381166001600160601b0361028051161115610945576001600160601b039060601c166001600160601b03610280511610156109455762ffffff61206a8160155460a01c1661026051613225565b16610934576102805160006101a08190526102a052612087614bb3565b610100919091526102c052600061016052606060e0525b6001600160601b03811615158061295d575b80612951575b156126cc5761018081905260006101e05261010051156121a2576120d99061541b565b906101e052965b61217a6101e051986121046120fb6101e05161018051613a2a565b6101a0516131be565b6101a05260006101005160001461219957506121326121296101e05161018051613a2a565b6102a0516131be565b6102a05261216e61216562ffffff61215481600f5460901c166102c051615706565b166105566101e05161018051613a2a565b610160516130c0565b6101605260e0516131de565b60e052612185614bb3565b6101208290526102c052610100529661209e565b61213290612129565b670de0b6b3a76400006121e262ffffff600f9a97949a99969895995460901c1662ffffff836121d4836102c051612f45565b041660c0526102c051612f45565b046101e05152600860205260406101e0512061014052946101e051506101e0515060609664ffffffffff6101405154165b6001600160601b0388161515806126bc575b1561266f576101e0515064ffffffffff81166101e05152600660205264ffffffffff600160406101e05120015460281c1664ffffffffff82166101e05152600660205260406101e051205460a01c6101e051608052806001600160601b038b161160001461266357612297818b613a2a565b6080525b6101e05160805190918b916001600160601b031615612652575b505064ffffffffff83166101e0515260066020526123dc60ff600160406101e05120015460681c161564ffffffffff85166101e05152600660205260018060a01b0360406101e0512054166101e051506001600160601b03608051161560001461262f578c915b6101e0805164ffffffffff89169052600660205251604090206001015460501c62ffffff1691811561261d576015546001600160a01b0316935b82156125f7576123668482615ac8565b935b606093156125d157506127106123ba6123b161239c60018060a01b0360145416946001600160601b0361062760125461323b565b6001600160601b03600f5460301c1690612f58565b60115490612f45565b04905b8161259d575b505061077b61078992936040519586936020850161312f565b996001600160601b0360805116156001600160601b0360805116612569575b61252b575b64ffffffffff84166101e05152600660205260018060a01b0360406101e0512054169364ffffffffff81166101e05152600660205260ff600160406101e05120015460681c161564ffffffffff82166101e05152600660205262ffffff600160406101e05120015460501c1695670de0b6b3a7640000870296808804670de0b6b3a76400001490151715612511576001600160601b03600080516020615b1b8339815191529560e09582946124d06124c661250a9c62ffffff600f5460901c1690612f58565b9260805190613a2a565b9464ffffffffff604051981688526020880152604087015260608601521660808401523360a08401521660c0820152a197608051996131de565b9796612213565b634e487b7160e01b6101e05152601160045260246101e051fd5b6001600160601b038216612561575b64ffffffffff84166101e05152600660205261255c8260406101e051206149ed565b612400565b83925061253a565b50821580156123fb575064ffffffffff84166101e05152600660205264ffffffffff600160406101e05120015416156123fb565b6107899350906125cb61077b926125bd604051938492876020850161312f565b03601f19810183528261307d565b926123c3565b6015546001600160a01b031691612710916125f0916123b19190615ac8565b04906123bd565b61261761239c61260860125461323b565b6001600160601b038416612f45565b93612368565b6014546001600160a01b031693612356565b64ffffffffff86166101e05152600660205260406101e051205460a01c9161231c565b61265c9250613a2a565b898d6122b5565b6101e05160805261229b565b9764ffffffffff6001600160601b039295989396999a94979a6126958161014051614cce565b5016156126a9575b91166101e052966120e0565b6126b660c051600c614e4a565b5061269d565b5064ffffffffff81161515612225565b96909192939495966001600160601b036101a05116806127ea575b506126fb610bfe6121658361026051614c75565b610220516127bc575b6001600160601b03811661272a575b5060016101c051016101c052959493929190611ec4565b600f54600080516020615b3b8339815191529161274d64ffffffffff8316613249565b9164ffffffffff83169064ffffffffff191617600f5561276f61026051614888565b5062ffffff6102605116600052600760205261279d6127928360406000206149b4565b838361026051614a10565b6127b36040519283926102605191339085613263565b0390a187612713565b6001600160601b0381166001600160601b0361028051160315612704576306e6da4d60e01b60005260046000fd5b6127fa6012549161070d8361323b565b906128146001600160601b03600f5460301c168093612f58565b916001600160601b036102a0511690816128c4575b5050506020612877600092601054806128a4575b506019546014546040516001600160a01b0392831693610d2093919261286f9284926125bd92909116338a850161312f565b60e0516131de565b03925af180156107f957156126e75761289d9060203d81116107f2576107e3818361307d565b50886126e7565b6108358161083061082361081c6128bb9587615734565b6018558c61283d565b6019546000546014546001600160a01b0390811695918116949216926128f4929091610830919061070d9061323b565b90803b156101be57612921936000809460405196879586948593633609c92960e11b85526004850161309e565b03925af180156107f95760009260209261287792612941575b5092612829565b8461294b9161307d565b8c61293a565b506102c05115156120b6565b506102605162ffffff16670de0b6b3a7640000818102918204900361091e576129919062ffffff600f5460901c1690612f58565b6102c05111156120b0565b611ed2565b346101be5760203660031901126101be5760043564ffffffffff81168091036101be57600052600660205260c0604060002060ff600182549201546040519260018060a01b038116845260a01c602084015264ffffffffff8116604084015264ffffffffff8160281c16606084015262ffffff8160501c16608084015260681c16151560a0820152f35b346101be576102003660031901126101be57612a45612ddf565b6024359060038210156101be576044356001600160a01b03811692908390036101be576084356001600160a01b03811693908490036101be5760c4356001600160a01b038116908190036101be5760e435906001600160601b03821682036101be57610104359562ffffff871687036101be57610124359162ffffff831683036101be57610144356001600160601b0381168091036101be57610164356001600160601b03811681036101be5761018435916101a435936101c4359560018060a01b0387168097036101be576101e435976001600160601b0389168099036101be5763409feecd19805460038255909d9080612d45575b50638b78c6d81954612d37576001600160a01b0316801560ff1b8117638b78c6d819556000600080516020615afb8339815191528180a385611f4002611f408104870361091e57612710900487111580612d2c575b15612d1b576001600160601b03600a8a06161580612d12575b80612d07575b15612cf657600a9960009e6005549c60018060a01b031960145416176014556015549460643560125560a43560135560018060a01b0319601954161760195571ffffffffffffffffffffffff000000000000600f549162ffffff60901b9060901b169260301b16906601000000000000600160a81b0319161717600f5562ffffff60a01b9060a01b169168ffffffffffffffffff60b81b161717601555601654916001600160601b0360601b9060601b16916001600160401b0360c01b16171760165560105560115560018060a01b0319875416178655046001600160601b0360601b9060601b169160ff60c01b9060c01b1690600160601b600160c81b031916171760055580600019600355612cc5575080f35b6002905560016020527fc7f505b2f371ae2175ee4913f4499e1f2633a7b5936321eed1cdaeb6115181d2602080a180f35b633cd146b160e01b60005260046000fd5b506101f48910612bb0565b50881515612baa565b63a926954560e01b60005260046000fd5b506127108610612b91565b630dc149f06000526004601cfd5b6001919e9181811c14303b1015612d615760ff1b1b9c8f612b3c565b63f92ee8a96000526004601cfd5b346101be5760203660031901126101be5760043560005260086020526102a6604060002054604051918164ffffffffff80859460281c1691168390929164ffffffffff60209181604085019616845216910152565b346101be5760003660031901126101be57602090600c548152f35b600435906001600160a01b03821682036101be57565b600435906001600160601b03821682036101be57565b602435906001600160601b03821682036101be57565b6004359062ffffff821682036101be57565b9181601f840112156101be578235916001600160401b0383116101be576020808501948460051b0101116101be57565b6044359081151582036101be57565b6064359081151582036101be57565b60005b838110612e945750506000910152565b8181015183820152602001612e84565b60409160208252612ec48151809281602086015260208686019101612e81565b601f01601f1916010190565b60606003198201126101be576004356001600160401b0381116101be5781612efa91600401612e33565b92909291602435906001600160401b0382116101be57612f1c91600401612e33565b909160443580151581036101be5790565b906103e88202918083046103e8149015171561091e57565b8181029291811591840414171561091e57565b8115612f62570490565b634e487b7160e01b600052601260045260246000fd5b906001600160601b0316908115612f62576001600160601b03160490565b9190811015612fa65760051b0190565b634e487b7160e01b600052603260045260246000fd5b3562ffffff811681036101be5790565b356001600160601b03811681036101be5790565b3564ffffffffff811681036101be5790565b604080825281018390529293929160608301906000905b808210613024575050602091509360018060a01b0316910152565b909183359064ffffffffff82168092036101be57908152602093840193019160010190613009565b60c081019081106001600160401b0382111761306757604052565b634e487b7160e01b600052604160045260246000fd5b90601f801991011681019081106001600160401b0382111761306757604052565b6001600160a01b03918216815291166020820152604081019190915260600190565b9062ffffff8091169116019062ffffff821161091e57565b3d15613112573d906001600160401b0382116130675760405191613106601f8201601f19166020018461307d565b82523d6000602084013e565b606090565b908160209103126101be575180151581036101be5790565b6001600160a01b0391821681529116602082015260408101919091526001606082015260800190565b6001600160a01b039182168152911660208201526040810191909152901515606082015260800190565b6001600160601b03166107d001906001600160601b03821161091e57565b6001600160601b03166103e801906001600160601b03821161091e57565b906001600160601b03809116911601906001600160601b03821161091e57565b61322390929192602060405194826131ff8794518092858088019101612e81565b830161321382518093858085019101612e81565b010103601f19810184528361307d565b565b9062ffffff16908115612f625762ffffff160690565b604d811161091e57600a0a90565b64ffffffffff60019116019064ffffffffff821161091e57565b64ffffffffff90911681526001600160a01b0390911660208201526001600160601b0391909116604082015262ffffff90911660608201526001608082015260a00190565b90916016546001600160601b038416906001600160601b0381168211156109455760601c6001600160601b03168110156109455762ffffff6132f18160155460a01c1685613225565b166109345762ffffff83169384156109565761332761332d9261063f61239c60018060a01b03601454169261070d60125461323b565b83614387565b90916134b6575b506001600160601b03169081156134b157600080516020615b3b8339815191529260a092613491600f549361338e61337264ffffffffff8716613249565b9164ffffffffff8316809764ffffffffff191617600f5561491f565b508360005260086020526133a68160406000206149b4565b604051906133b38261304c565b338252602080830186815264ffffffffff9283166040808601828152600060608801818152608089018d815260a08a018381528f8452600690985293909120975188546001600160a01b0319166001600160a01b0391909116178855935192969095919361344c93909183918291600191613437906001600160601b0316826149ed565b019751161682198754161786555116846134e3565b518254915163ffffffff60501b1990921660509190911b62ffffff60501b161790151560681b60ff60681b1617905560009081526006602052604090206001016134e3565b6040519283523360208401526040830152606082015260006080820152a1565b505050565b6106ec5738613334565b906001600160601b03809116911602906001600160601b03821691820361091e57565b9064ffffffffff60281b82549160281b169064ffffffffff60281b1916179055565b64ffffffffff168060005260066020526040600020906040516135278161304c565b6001835493818060a01b0385168352602083019460a01c855201549264ffffffffff8416926040830190848252606084019064ffffffffff8760281c16825262ffffff8760501c16608086019681885260ff60a088019960681c16151590818a52151560001461395a57505064ffffffffff83511660005260066020528064ffffffffff60016040600020015460281c16036138f8578651156139135762ffffff865116600052600760205264ffffffffff60406000205416818111159081613909575b50156138f8575b84516001600160a01b031633036138e75764ffffffffff835116806138be575b5064ffffffffff82511680613889575b5086511561378c576020949286949261367f9262ffffff6137169951166000526007885264ffffffffff604060002054161461374c575b62ffffff8651166000526007875264ffffffffff80604060002093511691511691614ee8565b6019549151601554915193516001600160a01b03918216949382169392909116916000916136f8916136bf9162ffffff16906001600160601b03166134c0565b62ffffff6136ed816136e1600f54946001600160601b038660301c1690612f78565b1661070d60135461323b565b9160901c1690612f58565b604051633af55cc760e11b815296879586948593916004850161312f565b03925af180156107f95761372d575b505b51151590565b6137459060203d6020116107f2576107e3818361307d565b5038613725565b62ffffff86511660005260078752604060002061377264ffffffffff8351168092614cce565b506136595761378662ffffff875116614dab565b50613659565b916137dc9162ffffff87602097958261381b9a51166000526008895264ffffffffff604060002054161461384f575b51166000526008865264ffffffffff80604060002093511691511691614ee8565b601954905160145492516012546001600160a01b039283169493831693909216916000916136f89161239c916001600160601b03169061070d9061323b565b03925af180156107f957613830575b50613727565b6138489060203d6020116107f2576107e3818361307d565b503861382a565b8181511660005260088852604060002061387264ffffffffff8551168092614cce565b506137bb5761388382825116614d0c565b506137bb565b64ffffffffff84511690600052600660205264ffffffffff6001604060002001911664ffffffffff1982541617905538613622565b6138e19064ffffffffff84511690600052600660205260016040600020016134e3565b38613612565b63a0cdd78160e01b60005260046000fd5b63020a7dc960e61b60005260046000fd5b90501515386135eb565b62ffffff865116600052600860205264ffffffffff60406000205416818111159081613950575b506135f25763020a7dc960e61b60005260046000fd5b905015153861393a565b15613994575062ffffff86511660005260076020528064ffffffffff6040600020541603156135f25763020a7dc960e61b60005260046000fd5b60005260086020528064ffffffffff6040600020541603156135f25763020a7dc960e61b60005260046000fd5b61062e6139d79162ffffff61062760135461323b565b90565b601c600060649281946020966040519860605260405260601b602c526323b872dd60601b600c525af13d15600160005114171615613a1c576000606052604052565b637939f4246000526004601cfd5b906001600160601b03809116911603906001600160601b03821161091e57565b9190820391821161091e57565b9190820180921161091e57565b600080808060018060a01b0360195416613a7e8634613a4a565b905af1613a896130d8565b5015613aa857600080808093335af1613aa06130d8565b5015613aa857565b63386bf62b60e11b60005260046000fd5b60008052600b602052613ad160006040812054615756565b60018101613b79575060008052600a602052613af260006040812054615756565b60018101613b5c5750613b086000600954615756565b60018101613b165750600090565b80600052600a60205260ff613b2f60406000205461577f565b169060081b1780600052600b60205262ffffff60ff613b5260406000205461577f565b169160081b161790565b80600052600b60205262ffffff60ff613b5260406000205461577f565b62ffffff1690565b8060081c9060ff811660ff8103613c31575b5060ff9060101c1660ff821660ff8103613beb575b5060ff91501660ff8103613bbd575b50600090565b613bc990600954615756565b6001810115613bb75780600052600a60205260ff613b2f60406000205461577f565b613c039082600052600a602052604060002054615756565b916001830115613ba85761ff009150161780600052600b60205262ffffff60ff613b5260406000205461577f565b613c4d9061ffff8416600052600b602052604060002054615756565b6001810115613b935762ffffff1662ffff0090911617919050565b60008052600e602052613c8060006040812054615756565b60018101613b79575060008052600d602052613ca160006040812054615756565b60018101613d015750613cb76000600c54615756565b60018101613cc55750600090565b80600052600d60205260ff613cde60406000205461577f565b169060081b1780600052600e60205262ffffff60ff613b5260406000205461577f565b80600052600e60205262ffffff60ff613b5260406000205461577f565b8060081c9060ff811660ff8103613dcd575b5060ff9060101c1660ff821660ff8103613d87575b5060ff91501660ff8103613d595750600090565b613d6590600c54615756565b6001810115613bb75780600052600d60205260ff613cde60406000205461577f565b613d9f9082600052600d602052604060002054615756565b916001830115613d455761ff009150161780600052600e60205262ffffff60ff613b5260406000205461577f565b613de99061ffff8416600052600e602052604060002054615756565b6001810115613d305762ffffff1662ffff0090911617919050565b638b78c6d819543303613e1357565b6382b429006000526004601cfd5b61239c6139d7916001600160601b0361062760125461323b565b600092918391613e49614add565b90956060925b6001600160601b03811680151580614357575b8061434a575b15614194578190848a8061417d575b6000901561412757505060015490600454906001600160601b038260601c1660025495613ead6001600160601b03881683613a2a565b926001600160601b0384161191821561411e57819788935b1561403f575050600080516020615b1b833981519152935090613f0e916002546001600160601b03613ef9838284166131be565b16906001600160601b03191617600255613a2a565b92613f81613f1c828861590d565b96613f328160018060a01b036000541695613a2a565b6040805160008082526001600160a01b0390971660208201529081019590955260608501939093526001600160601b0392831660808501523360a085015290911660c0830152819060e0820190565b0390a191935b8299600014613fe1575091613fc0613fa6613fc693613fcc9695613a2a565b6001546001600160601b0380600f5460301c1692166156f0565b90613a57565b926131de565b92613fd5614add565b91909694929094613e4f565b61403262ffffff91613ffd61403995613fcc9897999b95613a2a565b906001600160601b038085670de0b6b3a7640000614024600f5495838760901c1690612f45565b04169260301c1692166156f0565b16906130c0565b946131de565b9092506001600160601b0319166002556001600160601b0382811960055416178060055560601c16906107d06001600160601b0361407c84613182565b169384810294818604149015170215614110576141046140d68993600080516020615b1b83398151915297613f0e966107d06001600160601b0360601b910460601b16906001600160601b0360601b1916176004556131a0565b6108306140e289612f2d565b6b7fffffffffffffffffffffff6001600160601b0384169360011c1690613a57565b60015585600355613a2a565b63ad251c276000526004601cfd5b83978893613ec5565b61417492509060406001600160601b039592670de0b6b3a764000061416562ffffff8261415c82600f5460901c168098612f45565b0416948b612f45565b048152600760205220906151c2565b92169193613f87565b506001600160601b0360045460601c161515613e77565b509490965062ffffff9150168015801590614341575b6141ba5750505090915090600090565b6141f26141d061062e6013549361070d8561323b565b670de0b6b3a76400006141eb6141e58561323b565b8a612f45565b0490613a57565b95806142b9575b505060105480614270575b50601954601554604051600094602094614240946001600160a01b0390811694610d20949361078992859261077b92918f911633858d01613158565b03925af180156107f95761425357509190565b61426b9060203d6020116107f2576107e3818361307d565b509190565b600092610d20876020946142ab6142a38661429461081c614240996108309f615734565b9c8d9561070d60115484613a4a565b601754613a57565b601755945050509250614204565b6019546000546015546001600160a01b039081169491811693921691670de0b6b3a7640000916142ed919061070d9061323b565b0490803b156101be5761431b936000809460405196879586948593633609c92960e11b85526004850161309e565b03925af180156107f957614330575b806141f9565b600061433b9161307d565b3861432a565b508515156141aa565b5062ffffff841415613e68565b5062ffffff600f5460901c166000901561437357506001613e62565b634e487b7160e01b81526012600452602490fd5b9190600080918194614397614add565b90966060935b6001600160601b03811690811515806147c1575b806147b4575b1561460b57869181908b806145f4575b1561459b57600154600454926001600160601b038460601c16600254946143f76001600160601b03871683613a2a565b946001600160601b0386161195866000146145945783965b156144c9575050509061446761444785600080516020615b1b83398151915295946002546001600160601b03613ef9838284166131be565b94613f3281614456858261590d565b99546001600160a01b031695613a2a565b0390a191935b829a6000146144a7575091613fc0613fa661448c936144929695613a2a565b936131de565b9361449b614add565b9097959390919561439d565b61403262ffffff91613ffd6144c39561449298979a9c95613a2a565b956131de565b9091929394959697506001600160601b0319166002556001600160601b0382811960055416178060055560601c16916107d06001600160601b0361450c85613182565b16918281029281840414901517021561458757868d9897969461457b61456f600080516020615b1b833981519152989661446796614447966107d06001600160601b0360601b910460601b16906001600160601b0360601b1916176004556131a0565b6108306140e288612f2d565b60015584600355613a2a565b63ad251c278d526004601cfd5b859661440f565b506001600160601b0392506145eb9062ffffff600f5460901c16670de0b6b3a76400006145d962ffffff826145d0858c612f45565b04169289612f45565b048a52600760205260408a20906151c2565b9216919361446d565b506001600160601b0360045460601c1615156143c7565b9692505093965062ffffff9150169182158015906147ab575b61462f575050509190565b908592959161466561464a61062e6013549961070d8b61323b565b670de0b6b3a76400006141eb61465f8b61323b565b85612f45565b9681614709575b50506146b360209160105488816146d4575b6019546015546040516001600160a01b039283169561078e95509093909261078992859261077b9260019216338c8601613158565b03925af19081156146c8575061425357509190565b604051903d90823e3d90fd5b816108306146f26146eb6146ff956142a395615734565b809d613a4a565b9b61070d60115484613a4a565b601755388861467e565b60195485546015549495506001600160a01b039081169491811693911691670de0b6b3a76400009161473e9161070d9061323b565b0492823b156147a7579161476d939186809460405196879586948593633609c92960e11b85526004850161309e565b03925af1801561479c57614785575b9081839261466c565b826147956146b39460209361307d565b925061477c565b6040513d85823e3d90fd5b8580fd5b50801515614624565b5062ffffff8414156143b7565b5062ffffff8516670de0b6b3a7640000810290808204670de0b6b3a76400001490151715614806576147fe9062ffffff600f5460901c1690612f58565b8410156143b1565b634e487b7160e01b88526011600452602488fd5b6019546000936001600160a01b039091169190823b15614884579161485a939185809460405196879586948593633609c92960e11b85526004850161309e565b03925af180156148795761486c575050565b816148769161307d565b50565b6040513d84823e3d90fd5b8480fd5b8060081c9061ffff821680600052600b60205260406000205490600160ff84161b8217908183036148bd575050505050600090565b600052600b602052604060002055156148d8575b5050600190565b60101c60ff9081166000818152600a6020526040902080546001949093169390931b82179092551561490b575b806148d1565b60ff600191161b6009541760095538614905565b8060081c9061ffff821680600052600e60205260406000205490600160ff84161b821790818303614954575050505050600090565b600052600e6020526040600020551561496e575050600190565b60101c60ff9081166000818152600d6020526040902080546001949093169390931b8217909255156149a057806148d1565b60ff600191161b600c5417600c5538614905565b805460281c64ffffffffff1691826149e457815464ffffffffff191664ffffffffff82161782556139d7916134e3565b6139d7916134e3565b80546001600160a01b031660a09290921b6001600160a01b031916919091179055565b9260016132239461344c64ffffffffff86818086604051614a308161304c565b3381526001600160601b03602082019b168b526134376001600160601b0384604084019c169c8d8d5285606085019860008a5262ffffff608087019d168d5260a086019d8e52166000526006602052604060002093858060a01b0390868060a01b0390511616858060a01b03198554161784555116826149ed565b60018060a01b031680638b78c6d81954600080516020615afb833981519152600080a3801560ff1b17638b78c6d81955565b62ffffff614ae961583f565b1662ffffff8103614b105750600154908115614b055760019190565b6000915062ffffff90565b60015480614b545750670de0b6b3a7640000810290808204670de0b6b3a7640000149015171561091e57614b4f9062ffffff600f5460901c1690612f58565b600091565b9190670de0b6b3a7640000810290808204670de0b6b3a7640000149015171561091e5762ffffff600f5460901c16614b8c8183612f58565b6000929085811881871102188503614ba75750505060019190565b9193506139d791612f58565b62ffffff614bbf613c68565b1680158015614be5575050600354906000198214614bdd5760019190565b600091508190565b60035460018101614c245750670de0b6b3a76400008202918204670de0b6b3a764000014171561091e57614b4f9062ffffff600f5460901c1690612f58565b929190670de0b6b3a76400008202918204670de0b6b3a764000014171561091e5762ffffff600f5460901c16614c5a8183612f58565b6000929085811881871002188503614ba75750505060019190565b62ffffff906001600160601b0380600f5460301c16928392169316928381029381850414901517021561411057808204910615150162ffffff811015614cbd5762ffffff1690565b630b25243160e01b60005260046000fd5b9064ffffffffff811615614cf55764ffffffffff1664ffffffffff19825416179055600090565b50805469ffffffffffffffffffff19169055600190565b8060081c9061ffff821680600052600e60205260406000205490600160ff84161b198216809203614d405750505050600090565b600052600e6020528060406000205515614d5b575050600190565b60ff9060101c169081600052600d602052600160ff60406000205492161b191681600052600d6020528060406000205515614d9657806148d1565b60ff600191161b19600c5416600c5538614905565b8060081c9061ffff821680600052600b60205260406000205490600160ff84161b198216809203614ddf5750505050600090565b600052600b6020528060406000205515614dfa575050600190565b60ff9060101c169081600052600a602052600160ff60406000205492161b191681600052600a6020528060406000205515614e3557806148d1565b60ff600191161b196009541660095538614905565b908060081c9061ffff821660028401816000528060205260406000205491600160ff85161b198316809303614e8457505050505050600090565b6000526020528060406000205515614e9f575b505050600190565b60101c60ff9081166000818152600185810160205260409091208054949093161b199092169081905515614ed4575b80614e97565b60ff600191161b1981541690553880614ece565b9164ffffffffff9081831615614f0c575b1615614f03575050565b613223916134e3565b8181168219855416178455614ef9565b90919260609064ffffffffff8454165b6001600160601b038616801515806151b2575b156151855760009164ffffffffff6001604082841695868152600660205220015460281c169083600052600660205260406000205460a01c92836000911160001461517f5750614f8f838a613a2a565b985b6000916001600160601b038b1615948561516b575b506000868152600660205260408120600181015490546150229260689290921c60ff1615916001600160a01b0391909116908815615155575084915b89600052600660205262ffffff60016040600020015460501c16918160001461261d576015546001600160a01b03169382156125f7576123668482615ac8565b94801561512c575b6150f7575b506000858152600660205260409020805460019190910154670de0b6b3a7640000605082901c62ffffff16818102989360689390931c60ff1615926001600160a01b0316918115918a0414171561091e576001600160601b03600080516020615b1b8339815191529560e0958f946150c084966150ba6150f09e62ffffff600f5460901c1690612f58565b93613a2a565b946040519788526020880152604087015260608601521660808401523360a08401521660c0820152a196936131de565b9194614f2c565b6001600160601b038316615124575b5084600052600660205261511e8260406000206149ed565b3861502f565b925038615106565b508315801561502a575085600052600660205264ffffffffff600160406000200154161561502a565b808a604092526006602052205460a01c91614fe2565b6151789193508290613a2a565b9138614fa6565b98614f91565b5061519b8164ffffffffff939697959497614cce565b5016156151a757509190565b61426b90600c614e4a565b5064ffffffffff82161515614f3f565b90919260609064ffffffffff8454165b6001600160601b0386168015158061540b575b156153de5760009164ffffffffff6001604082841695868152600660205220015460281c169083600052600660205260406000205460a01c9283600091116000146153d85750615235838a613a2a565b985b6000916001600160601b038b161594856153c4575b506000868152600660205260408120600181015490546152c79260689290921c60ff1615916001600160a01b03919091169088156151555750849189600052600660205262ffffff60016040600020015460501c16918160001461261d576015546001600160a01b03169382156125f7576123668482615ac8565b94801561539b575b615366575b506000858152600660205260409020805460019190910154670de0b6b3a7640000605082901c62ffffff16818102989360689390931c60ff1615926001600160a01b0316918115918a0414171561091e576001600160601b03600080516020615b1b8339815191529560e0958f946150c084966150ba61535f9e62ffffff600f5460901c1690612f58565b91946151d2565b6001600160601b038316615393575b5084600052600660205261538d8260406000206149ed565b386152d4565b925038615375565b50831580156152cf575085600052600660205264ffffffffff60016040600020015416156152cf565b6153d19193508290613a2a565b913861524c565b98615237565b506153f48164ffffffffff939697959497614cce565b50161561540057509190565b61426b906009614e4a565b5064ffffffffff821615156151e5565b90600354906005546001600160601b03811690600454946154456001600160601b03871684613a2a565b926001600160601b0384166001600160601b0383161092836000146156e757829788945b156155dc57505050916001600160601b036154ae60e093600080516020615b1b83398151915295600454846154a0838284166131be565b169085191617600455613a2a565b6015549097908290615564906001600160a01b03166000670de0b6b3a76400006154f96154ee6154e08789168f612f45565b87600f5460301c1690612f58565b61070d60135461323b565b0460609060018060a01b03601454166127106155356123b161552761551f60125461323b565b8b8d16612f45565b8a600f5460301c1690612f58565b04806155a9575b5050915460405193919261078992859261077b9291906001600160a01b03166020850161312f565b9761557a8360018060a01b036000541696613a2a565b90604051956000875260208701526001604087015260608601521660808401523360a08401521660c0820152a1565b8454604051610789955061077b9390926155d69284926125bd92916001600160a01b03166020850161312f565b9261553c565b90919293506001600160601b0360601b8260601b16906001600160401b0360c01b16176004556001600160601b03615618818360601c16613182565b16806107d08402936107d08186041490151702156141105782816001600160601b03949285930491061515011690821916178060055560601c169161566e6001600160601b03615667856131a0565b1686612f45565b6101f4810180911161091e576103e890046003556002546001600160601b03615699818316956131a0565b1693846103e88202916103e8818404149015170215614110578760e0946001600160601b039384600080516020615b1b833981519152986154ae950416908519161760025588600155613a2a565b84978894615469565b8181029181159183041417820215614110570490565b8181029181159183041417670de0b6b3a7640000021561411057670de0b6b3a7640000808204910615150190565b8181029181159183041417612710021561411057612710808204910615150190565b600190910160ff1690811c908161576f57505060001990565b61577a60ff9261577f565b011690565b6000908060801b80615833575b508060401b80615826575b508060201b80615819575b508060101b8061580c575b508060081b806157ff575b508060041b806157f2575b508060021b806157e5575b5060011b6157dd575b60ff0390565b6001016157d7565b60029150910190386157ce565b60049150910190386157c3565b60089150910190386157b8565b60109150910190386157ad565b60209150910190386157a2565b6040915091019038615797565b9150506080903861578c565b61ffff600052600b60205261585a60ff6040600020546159e3565b60018101615900575060ff600052600a60205261587d60ff6040600020546159e3565b600181016158df575061589360ff6009546159e3565b600181016158a3575062ffffff90565b80600052600a60205260ff6158bc604060002054615a11565b169060081b1780600052600b60205262ffffff60ff613b52604060002054615a11565b61ff001780600052600b60205262ffffff60ff613b52604060002054615a11565b62ffff001762ffffff1690565b906139d79160018060a01b036014541691600091612710615983670de0b6b3a76400006159796154ee61239c61595961239c61594a60125461323b565b6001600160601b038a16612f45565b97606099506001600160601b0360018060a01b0360155416981690612f45565b0460115490612f45565b04806159b0575b50506000546040519361078992859261077b92906001600160a01b03166020850161312f565b60005460405193945061078993926159db9284926125bd92906001600160a01b03166020850161312f565b91903861598a565b60001990910160ff90811681031690811b80615a0157505060001990565b615a0c60ff91615a11565b160390565b600091906001600160801b038111615abd575b806001600160401b0360019211615ab1575b63ffffffff8111615aa5575b61ffff8111615a99575b60ff8111615a8d575b600f8111615a81575b60038111615a75575b11615a6e57565b9060010190565b6002938401931c615a67565b6004938401931c615a5e565b6008938401931c615a55565b6010938401931c615a4c565b6020938401931c615a42565b6040938401931c615a36565b60809250821c615a24565b6136bf9062ffffff6139d793166134c056fe360894a13ba1a3210667c828492db98dca3e2076cc3735a920a3ca505d382bbc8be0079c531659141344cd1fd0a4f28419497f9722a3daafe3b4186f6b6457e006029dfae141718336c21b1bb8cd746dc87a38baa63c413c40fa24b807b7cc05de65ec26e567cef1936a693231b33b08ce40fca66ce0e78b38d938048c7a0891a264697066735822122093b8b880d81e21b392469a633378543bdbc2017b26ca91fe01d4349bd5011e7b64736f6c634300081a0033",
  "linkReferences": {},
  "deployedLinkReferences": {}
}