{
  "_format": "hh-sol-artifact-1",
  "contractName": "OrderBook",
  "sourceName": "contracts/OrderBook.sol",
  "abi": [
    {
      "inputs": [],
      "stateMutability": "nonpayable",
      "type": "constructor"
    },
    {
      "inputs": [],
      "name": "AlreadyInitialized",
      "type": "error"
    },
    {
      "inputs": [],
      "name": "InsufficientLiquidity",
      "type": "error"
    },
    {
      "inputs": [],
      "name": "InvalidInitialization",
      "type": "error"
    },
    {
      "inputs": [],
      "name": "InvalidSpread",
      "type": "error"
    },
    {
      "inputs": [],
      "name": "LengthMismatch",
      "type": "error"
    },
    {
      "inputs": [],
      "name": "MarketFeeError",
      "type": "error"
    },
    {
      "inputs": [],
      "name": "MarketStateError",
      "type": "error"
    },
    {
      "inputs": [],
      "name": "NativeAssetInsufficient",
      "type": "error"
    },
    {
      "inputs": [],
      "name": "NativeAssetNotRequired",
      "type": "error"
    },
    {
      "inputs": [],
      "name": "NativeAssetTransferFail",
      "type": "error"
    },
    {
      "inputs": [],
      "name": "NewOwnerIsZeroAddress",
      "type": "error"
    },
    {
      "inputs": [],
      "name": "NoHandoverRequest",
      "type": "error"
    },
    {
      "inputs": [],
      "name": "NotInitializing",
      "type": "error"
    },
    {
      "inputs": [],
      "name": "OnlyOwnerAllowedError",
      "type": "error"
    },
    {
      "inputs": [],
      "name": "OrderAlreadyFilledOrCancelled",
      "type": "error"
    },
    {
      "inputs": [],
      "name": "PostOnlyError",
      "type": "error"
    },
    {
      "inputs": [],
      "name": "PriceError",
      "type": "error"
    },
    {
      "inputs": [],
      "name": "SizeError",
      "type": "error"
    },
    {
      "inputs": [],
      "name": "TickSizeError",
      "type": "error"
    },
    {
      "inputs": [],
      "name": "TooMuchSizeFilled",
      "type": "error"
    },
    {
      "inputs": [],
      "name": "Unauthorized",
      "type": "error"
    },
    {
      "inputs": [],
      "name": "UnauthorizedCallContext",
      "type": "error"
    },
    {
      "inputs": [],
      "name": "UpgradeFailed",
      "type": "error"
    },
    {
      "anonymous": false,
      "inputs": [
        {
          "indexed": false,
          "internalType": "uint64",
          "name": "version",
          "type": "uint64"
        }
      ],
      "name": "Initialized",
      "type": "event"
    },
    {
      "anonymous": false,
      "inputs": [
        {
          "indexed": false,
          "internalType": "uint40",
          "name": "orderId",
          "type": "uint40"
        },
        {
          "indexed": false,
          "internalType": "address",
          "name": "owner",
          "type": "address"
        },
        {
          "indexed": false,
          "internalType": "uint96",
          "name": "size",
          "type": "uint96"
        },
        {
          "indexed": false,
          "internalType": "uint24",
          "name": "price",
          "type": "uint24"
        },
        {
          "indexed": false,
          "internalType": "bool",
          "name": "isBuy",
          "type": "bool"
        }
      ],
      "name": "OrderCreated",
      "type": "event"
    },
    {
      "anonymous": false,
      "inputs": [
        {
          "indexed": false,
          "internalType": "uint40[]",
          "name": "orderId",
          "type": "uint40[]"
        },
        {
          "indexed": false,
          "internalType": "address",
          "name": "owner",
          "type": "address"
        }
      ],
      "name": "OrdersCanceled",
      "type": "event"
    },
    {
      "anonymous": false,
      "inputs": [
        {
          "indexed": true,
          "internalType": "address",
          "name": "pendingOwner",
          "type": "address"
        }
      ],
      "name": "OwnershipHandoverCanceled",
      "type": "event"
    },
    {
      "anonymous": false,
      "inputs": [
        {
          "indexed": true,
          "internalType": "address",
          "name": "pendingOwner",
          "type": "address"
        }
      ],
      "name": "OwnershipHandoverRequested",
      "type": "event"
    },
    {
      "anonymous": false,
      "inputs": [
        {
          "indexed": true,
          "internalType": "address",
          "name": "oldOwner",
          "type": "address"
        },
        {
          "indexed": true,
          "internalType": "address",
          "name": "newOwner",
          "type": "address"
        }
      ],
      "name": "OwnershipTransferred",
      "type": "event"
    },
    {
      "anonymous": false,
      "inputs": [
        {
          "indexed": false,
          "internalType": "uint40",
          "name": "orderId",
          "type": "uint40"
        },
        {
          "indexed": false,
          "internalType": "address",
          "name": "makerAddress",
          "type": "address"
        },
        {
          "indexed": false,
          "internalType": "bool",
          "name": "isBuy",
          "type": "bool"
        },
        {
          "indexed": false,
          "internalType": "uint256",
          "name": "price",
          "type": "uint256"
        },
        {
          "indexed": false,
          "internalType": "uint96",
          "name": "updatedSize",
          "type": "uint96"
        },
        {
          "indexed": false,
          "internalType": "address",
          "name": "takerAddress",
          "type": "address"
        },
        {
          "indexed": false,
          "internalType": "uint96",
          "name": "filledSize",
          "type": "uint96"
        }
      ],
      "name": "Trade",
      "type": "event"
    },
    {
      "anonymous": false,
      "inputs": [
        {
          "indexed": true,
          "internalType": "address",
          "name": "implementation",
          "type": "address"
        }
      ],
      "name": "Upgraded",
      "type": "event"
    },
    {
      "inputs": [
        {
          "internalType": "uint24",
          "name": "_price",
          "type": "uint24"
        },
        {
          "internalType": "uint96",
          "name": "size",
          "type": "uint96"
        },
        {
          "internalType": "bool",
          "name": "_postOnly",
          "type": "bool"
        }
      ],
      "name": "addBuyOrder",
      "outputs": [],
      "stateMutability": "nonpayable",
      "type": "function"
    },
    {
      "inputs": [
        {
          "internalType": "uint24",
          "name": "_price",
          "type": "uint24"
        },
        {
          "internalType": "uint96",
          "name": "size",
          "type": "uint96"
        },
        {
          "internalType": "bool",
          "name": "_postOnly",
          "type": "bool"
        }
      ],
      "name": "addSellOrder",
      "outputs": [],
      "stateMutability": "nonpayable",
      "type": "function"
    },
    {
      "inputs": [
        {
          "internalType": "uint40[]",
          "name": "_orderIds",
          "type": "uint40[]"
        }
      ],
      "name": "batchCancelOrders",
      "outputs": [],
      "stateMutability": "nonpayable",
      "type": "function"
    },
    {
      "inputs": [
        {
          "internalType": "uint24[]",
          "name": "buyPrices",
          "type": "uint24[]"
        },
        {
          "internalType": "uint96[]",
          "name": "buySizes",
          "type": "uint96[]"
        },
        {
          "internalType": "uint24[]",
          "name": "sellPrices",
          "type": "uint24[]"
        },
        {
          "internalType": "uint96[]",
          "name": "sellSizes",
          "type": "uint96[]"
        },
        {
          "internalType": "uint40[]",
          "name": "orderIdsToCancel",
          "type": "uint40[]"
        },
        {
          "internalType": "bool",
          "name": "postOnly",
          "type": "bool"
        }
      ],
      "name": "batchUpdate",
      "outputs": [],
      "stateMutability": "nonpayable",
      "type": "function"
    },
    {
      "inputs": [],
      "name": "bestBidAsk",
      "outputs": [
        {
          "internalType": "uint256",
          "name": "",
          "type": "uint256"
        },
        {
          "internalType": "uint256",
          "name": "",
          "type": "uint256"
        }
      ],
      "stateMutability": "view",
      "type": "function"
    },
    {
      "inputs": [],
      "name": "cancelOwnershipHandover",
      "outputs": [],
      "stateMutability": "payable",
      "type": "function"
    },
    {
      "inputs": [],
      "name": "collectFees",
      "outputs": [],
      "stateMutability": "nonpayable",
      "type": "function"
    },
    {
      "inputs": [
        {
          "internalType": "address",
          "name": "pendingOwner",
          "type": "address"
        }
      ],
      "name": "completeOwnershipHandover",
      "outputs": [],
      "stateMutability": "payable",
      "type": "function"
    },
    {
      "inputs": [],
      "name": "getL2Book",
      "outputs": [
        {
          "internalType": "bytes",
          "name": "",
          "type": "bytes"
        }
      ],
      "stateMutability": "view",
      "type": "function"
    },
    {
      "inputs": [],
      "name": "getMarketParams",
      "outputs": [
        {
          "internalType": "uint24",
          "name": "",
          "type": "uint24"
        },
        {
          "internalType": "uint96",
          "name": "",
          "type": "uint96"
        },
        {
          "internalType": "address",
          "name": "",
          "type": "address"
        },
        {
          "internalType": "uint256",
          "name": "",
          "type": "uint256"
        },
        {
          "internalType": "address",
          "name": "",
          "type": "address"
        },
        {
          "internalType": "uint256",
          "name": "",
          "type": "uint256"
        },
        {
          "internalType": "uint24",
          "name": "",
          "type": "uint24"
        },
        {
          "internalType": "uint96",
          "name": "",
          "type": "uint96"
        },
        {
          "internalType": "uint96",
          "name": "",
          "type": "uint96"
        },
        {
          "internalType": "uint256",
          "name": "",
          "type": "uint256"
        },
        {
          "internalType": "uint256",
          "name": "",
          "type": "uint256"
        }
      ],
      "stateMutability": "view",
      "type": "function"
    },
    {
      "inputs": [],
      "name": "getVaultParams",
      "outputs": [
        {
          "internalType": "address",
          "name": "",
          "type": "address"
        },
        {
          "internalType": "uint256",
          "name": "",
          "type": "uint256"
        },
        {
          "internalType": "uint96",
          "name": "",
          "type": "uint96"
        },
        {
          "internalType": "uint256",
          "name": "",
          "type": "uint256"
        },
        {
          "internalType": "uint96",
          "name": "",
          "type": "uint96"
        },
        {
          "internalType": "uint96",
          "name": "",
          "type": "uint96"
        },
        {
          "internalType": "uint96",
          "name": "",
          "type": "uint96"
        }
      ],
      "stateMutability": "view",
      "type": "function"
    },
    {
      "inputs": [
        {
          "internalType": "address",
          "name": "_owner",
          "type": "address"
        },
        {
          "internalType": "enum IOrderBook.OrderBookType",
          "name": "_type",
          "type": "uint8"
        },
        {
          "internalType": "address",
          "name": "_baseAssetAddress",
          "type": "address"
        },
        {
          "internalType": "uint256",
          "name": "_baseAssetDecimals",
          "type": "uint256"
        },
        {
          "internalType": "address",
          "name": "_quoteAssetAddress",
          "type": "address"
        },
        {
          "internalType": "uint256",
          "name": "_quoteAssetDecimals",
          "type": "uint256"
        },
        {
          "internalType": "address",
          "name": "_marginAccountAddress",
          "type": "address"
        },
        {
          "internalType": "uint96",
          "name": "_sizePrecision",
          "type": "uint96"
        },
        {
          "internalType": "uint24",
          "name": "_pricePrecision",
          "type": "uint24"
        },
        {
          "internalType": "uint24",
          "name": "_tickSize",
          "type": "uint24"
        },
        {
          "internalType": "uint96",
          "name": "_minSize",
          "type": "uint96"
        },
        {
          "internalType": "uint96",
          "name": "_maxSize",
          "type": "uint96"
        },
        {
          "internalType": "uint256",
          "name": "_takerFeeBps",
          "type": "uint256"
        },
        {
          "internalType": "uint256",
          "name": "_makerFeeBps",
          "type": "uint256"
        },
        {
          "internalType": "address",
          "name": "_kuruAmmVault",
          "type": "address"
        },
        {
          "internalType": "uint96",
          "name": "_kuruAmmSpread",
          "type": "uint96"
        }
      ],
      "name": "initialize",
      "outputs": [],
      "stateMutability": "nonpayable",
      "type": "function"
    },
    {
      "inputs": [],
      "name": "owner",
      "outputs": [
        {
          "internalType": "address",
          "name": "result",
          "type": "address"
        }
      ],
      "stateMutability": "view",
      "type": "function"
    },
    {
      "inputs": [
        {
          "internalType": "address",
          "name": "pendingOwner",
          "type": "address"
        }
      ],
      "name": "ownershipHandoverExpiresAt",
      "outputs": [
        {
          "internalType": "uint256",
          "name": "result",
          "type": "uint256"
        }
      ],
      "stateMutability": "view",
      "type": "function"
    },
    {
      "inputs": [
        {
          "internalType": "uint24",
          "name": "_quoteSize",
          "type": "uint24"
        },
        {
          "internalType": "bool",
          "name": "_isFillOrKill",
          "type": "bool"
        }
      ],
      "name": "placeAndExecuteMarketBuy",
      "outputs": [
        {
          "internalType": "uint256",
          "name": "",
          "type": "uint256"
        }
      ],
      "stateMutability": "payable",
      "type": "function"
    },
    {
      "inputs": [
        {
          "internalType": "uint96",
          "name": "_size",
          "type": "uint96"
        },
        {
          "internalType": "bool",
          "name": "_isFillOrKill",
          "type": "bool"
        }
      ],
      "name": "placeAndExecuteMarketSell",
      "outputs": [
        {
          "internalType": "uint256",
          "name": "",
          "type": "uint256"
        }
      ],
      "stateMutability": "payable",
      "type": "function"
    },
    {
      "inputs": [
        {
          "internalType": "uint24[]",
          "name": "_prices",
          "type": "uint24[]"
        },
        {
          "internalType": "uint96[]",
          "name": "_sizes",
          "type": "uint96[]"
        },
        {
          "internalType": "bool",
          "name": "_postOnly",
          "type": "bool"
        }
      ],
      "name": "placeMultipleBuyOrders",
      "outputs": [],
      "stateMutability": "nonpayable",
      "type": "function"
    },
    {
      "inputs": [
        {
          "internalType": "uint24[]",
          "name": "_prices",
          "type": "uint24[]"
        },
        {
          "internalType": "uint96[]",
          "name": "_sizes",
          "type": "uint96[]"
        },
        {
          "internalType": "bool",
          "name": "_postOnly",
          "type": "bool"
        }
      ],
      "name": "placeMultipleSellOrders",
      "outputs": [],
      "stateMutability": "nonpayable",
      "type": "function"
    },
    {
      "inputs": [],
      "name": "proxiableUUID",
      "outputs": [
        {
          "internalType": "bytes32",
          "name": "",
          "type": "bytes32"
        }
      ],
      "stateMutability": "view",
      "type": "function"
    },
    {
      "inputs": [],
      "name": "renounceOwnership",
      "outputs": [],
      "stateMutability": "payable",
      "type": "function"
    },
    {
      "inputs": [],
      "name": "requestOwnershipHandover",
      "outputs": [],
      "stateMutability": "payable",
      "type": "function"
    },
    {
      "inputs": [
        {
          "internalType": "uint256",
          "name": "",
          "type": "uint256"
        }
      ],
      "name": "s_buyPricePoints",
      "outputs": [
        {
          "internalType": "uint40",
          "name": "head",
          "type": "uint40"
        },
        {
          "internalType": "uint40",
          "name": "tail",
          "type": "uint40"
        }
      ],
      "stateMutability": "view",
      "type": "function"
    },
    {
      "inputs": [],
      "name": "s_buyTree",
      "outputs": [
        {
          "internalType": "bytes32",
          "name": "level0",
          "type": "bytes32"
        }
      ],
      "stateMutability": "view",
      "type": "function"
    },
    {
      "inputs": [],
      "name": "s_orderIdCounter",
      "outputs": [
        {
          "internalType": "uint40",
          "name": "",
          "type": "uint40"
        }
      ],
      "stateMutability": "view",
      "type": "function"
    },
    {
      "inputs": [
        {
          "internalType": "uint40",
          "name": "",
          "type": "uint40"
        }
      ],
      "name": "s_orders",
      "outputs": [
        {
          "internalType": "address",
          "name": "ownerAddress",
          "type": "address"
        },
        {
          "internalType": "uint96",
          "name": "size",
          "type": "uint96"
        },
        {
          "internalType": "uint40",
          "name": "prev",
          "type": "uint40"
        },
        {
          "internalType": "uint40",
          "name": "next",
          "type": "uint40"
        },
        {
          "internalType": "uint24",
          "name": "price",
          "type": "uint24"
        },
        {
          "internalType": "bool",
          "name": "isBuy",
          "type": "bool"
        }
      ],
      "stateMutability": "view",
      "type": "function"
    },
    {
      "inputs": [
        {
          "internalType": "uint256",
          "name": "",
          "type": "uint256"
        }
      ],
      "name": "s_sellPricePoints",
      "outputs": [
        {
          "internalType": "uint40",
          "name": "head",
          "type": "uint40"
        },
        {
          "internalType": "uint40",
          "name": "tail",
          "type": "uint40"
        }
      ],
      "stateMutability": "view",
      "type": "function"
    },
    {
      "inputs": [],
      "name": "s_sellTree",
      "outputs": [
        {
          "internalType": "bytes32",
          "name": "level0",
          "type": "bytes32"
        }
      ],
      "stateMutability": "view",
      "type": "function"
    },
    {
      "inputs": [
        {
          "internalType": "bool",
          "name": "_state",
          "type": "bool"
        }
      ],
      "name": "toggleMarkets",
      "outputs": [],
      "stateMutability": "nonpayable",
      "type": "function"
    },
    {
      "inputs": [
        {
          "internalType": "address",
          "name": "newOwner",
          "type": "address"
        }
      ],
      "name": "transferOwnership",
      "outputs": [],
      "stateMutability": "payable",
      "type": "function"
    },
    {
      "inputs": [
        {
          "internalType": "uint96",
          "name": "_vaultAskOrderSize",
          "type": "uint96"
        },
        {
          "internalType": "uint96",
          "name": "_vaultBidOrderSize",
          "type": "uint96"
        },
        {
          "internalType": "uint256",
          "name": "_askPrice",
          "type": "uint256"
        },
        {
          "internalType": "uint256",
          "name": "_bidPrice",
          "type": "uint256"
        }
      ],
      "name": "updateVaultOrdSz",
      "outputs": [],
      "stateMutability": "nonpayable",
      "type": "function"
    },
    {
      "inputs": [
        {
          "internalType": "address",
          "name": "newImplementation",
          "type": "address"
        },
        {
          "internalType": "bytes",
          "name": "data",
          "type": "bytes"
        }
      ],
      "name": "upgradeToAndCall",
      "outputs": [],
      "stateMutability": "payable",
      "type": "function"
    },
    {
      "inputs": [],
      "name": "vaultAskOrderSize",
      "outputs": [
        {
          "internalType": "uint96",
          "name": "",
          "type": "uint96"
        }
      ],
      "stateMutability": "view",
      "type": "function"
    },
    {
      "inputs": [],
      "name": "vaultBestAsk",
      "outputs": [
        {
          "internalType": "uint256",
          "name": "",
          "type": "uint256"
        }
      ],
      "stateMutability": "view",
      "type": "function"
    }
  ],
  "bytecode": "0x60a08060405234609a573060805263409feecd195460018116608c5760011c6002600160401b0319016048575b6159d290816100a0823960805181818161187101526119360152f35b6002600160411b0363409feecd19556001600160401b0360209081527fc7f505b2f371ae2175ee4913f4499e1f2633a7b5936321eed1cdaeb6115181d29080a1602c565b63f92ee8a96000526004601cfd5b600080fdfe61042080604052600436101561001457600080fd5b60003560e01c90816302b90c6514612d1f575080630e2e2ffe14612cca578063137fc7bb146129865780631c0d9c22146128fc57806320b3fa5c1461220157806323afbff31461216d57806325692962146121215780632aa9fbdc14611c8e5780632bf1360e14611c6957806346fdfbb114611a72578063474b848c14611a545780634d78110314611a005780634f1ef286146118e257806351130ac6146118bb57806352d1902d1461185d57806354d1f13d146118155780635b16c9b6146117d5578063715018a61461179857806388bb4f60146117305780638da5cb5b1461170357806390c9427c14611663578063b4de8b7014611631578063badc92d114611613578063bb62b3c514610c1e578063c879657214610b87578063cae22ee614610945578063cc57aec614610410578063d2cd7d7f14610379578063e55bb4e3146102aa578063e6d29b5114610251578063f04e283e14610201578063f2fde38b146101c35763fee81cf41461018b57600080fd5b346101be5760203660031901126101be576101a4612d3a565b63389a75e1600c52600052602080600c2054604051908152f35b600080fd5b60203660031901126101be576101d7612d3a565b6101df613d64565b8060601b156101f3576101f1906148f3565b005b637448fbae6000526004601cfd5b60203660031901126101be57610215612d3a565b61021d613d64565b63389a75e1600c52806000526020600c2090815442116102435760006101f192556148f3565b636f5e88186000526004601cfd5b346101be5760203660031901126101be5760043560005260076020526102a6604060002054604051918164ffffffffff80859460281c1691168390929164ffffffffff60209181604085019616845216910152565b0390f35b346101be5760803660031901126101be576102c3612d66565b6102cb612d50565b6000549091906001600160a01b0316330361033c576001600160601b0391600454908360601b9060601b16908360601b191617600455166001600160601b0319600554161760055560001960035414610331575b6001541561032957005b606435600155005b60443560035561031f565b60405162461bcd60e51b815260206004820152601560248201527413dc99195c909bdbdace8813db9b1e4815985d5b1d605a1b6044820152606490fd5b346101be5761038736612e2b565b9360ff600f5460281c166103ef578184036103ff5760005b8481106103a857005b6103bb6103b6828785612ef1565b612f17565b906103cf6103ca828688612ef1565b612f27565b60ff600f5460281c166103ef57876103e9916001946131f2565b0161039f565b6225b2dd60e11b60005260046000fd5b631fec674760e31b60005260046000fd5b346101be5760603660031901126101be57610429612d7c565b610431612d50565b9061043a612dcd565b60ff600f5460281c166103ef5762ffffff8216801561093457601654936001600160601b038116946001600160601b0381168611156109235760601c6001600160601b03168510156109235762ffffff61049b8160155460a01c168661317d565b16610912579284929392600080956104b16149fb565b949094926000906060995b6001600160601b038a161515806108eb575b806108e2575b156105da57898660008a156105815750506104ee9061525d565b9390988994935b8c869b61050191613968565b61050a91613116565b9b6000916000146105689662ffffff61054f6105406105629861055c976105569661053a575061053a8588613968565b90613116565b9c82600f5460901c1690615548565b1692613968565b90614abd565b9061340a565b99613136565b956105716149fb565b95909698909594999197996104bc565b916105cf9160406001600160601b039794670de0b6b3a76400006105c062ffffff600f5460901c1662ffffff836105b88389612ea0565b041695612ea0565b04815260086020522090614d64565b9416988994936104f5565b848b8b9489936001600160601b038d9616806106fd575b505061064691506106069061055c8789614abd565b61063f61062e60018060a01b03601554169262ffffff610627601354612fa7565b9116612ea0565b62ffffff600f5460901c1690612eb3565b3391613d81565b6106d7575b506001600160601b03821661065c57005b6106d260008051602061597d83398151915293600f549261068364ffffffffff8516613193565b64ffffffffff1990941664ffffffffff851617600f556106a2826146cd565b5060005260076020526106c46106bc8460406000206147f9565b848684614858565b6040519384933390856131ad565b0390a1005b6001600160601b038316036106ec578361064b565b6306e6da4d60e01b60005260046000fd5b6107136012549161070d83612fa7565b90612ea0565b6001600160601b0361072d81600f5460301c168093612eb3565b93169182610846575b5050506107aa60009361078e60209360105480610805575b5060018060a01b03601954169261078960018060a01b036014541661077b604051948592338b850161305e565b03601f198101845283612fe6565b613136565b6040519586809481936337adb00f60e11b835260048301612dff565b03925af19081156107f95761064692610606926107ca575b8192506105f1565b6107eb9060203d6020116107f2575b6107e38183612fe6565b810190613046565b50886107c2565b503d6107d9565b6040513d6000823e3d90fd5b6108358161083061082361081c61083d9587615576565b80966139aa565b9461070d601154846139aa565b612eb3565b6018546139b7565b6018558c61074e565b6019546000805460145461089d966020966001600160a01b03938416969584169593909216939261087f92916108309161070d90612fa7565b604051633609c92960e11b8152968795869485939160048501613988565b03925af19384156107f95761078e6020936107aa936000976108c5575b509350819550610736565b6108db90863d88116107f2576107e38183612fe6565b508c6108ba565b508515156104d4565b5088670de0b6b3a764000061090a62ffffff600f5460901c1689612ea0565b0411156104ce565b63272d3bf760e01b60005260046000fd5b630a5c4f1f60e01b60005260046000fd5b6348fa9b2b60e11b60005260046000fd5b60403660031901126101be57610959612d66565b610961612dbe565b90600f5460ff8160281c166103ef5760ff60055460c01c1660038110159081610a9a57600114918215610b1757506109c46109af6109a0601254612fa7565b6001600160601b038616612ea0565b6001600160601b03600f5460301c1690612eb3565b3403610b06576109db6001600160601b0393613de3565b9316938415610ac157610ab057610a9a5715610a1557610a0d610a086109af60209461070d601254612fa7565b6139c4565b604051908152f35b601954601454601254610a64946020936001600160a01b03938416931691610a44916109af9161070d90612fa7565b916000604051809781958294633af55cc760e11b84523360048501613087565b03925af19182156107f957602092610a7d575b50610a0d565b610a9390833d85116107f2576107e38183612fe6565b5082610a77565b634e487b7160e01b600052602160045260246000fd5b63bb55fd2760e01b60005260046000fd5b5050909150600090610ad7575b50602090610a0d565b8080808060018060a01b036019541634905af1610af2613007565b50610ace5763386bf62b60e11b8152600490fd5b63fd99316160e01b60005260046000fd5b34610b76576001600160601b0393610b716109db9260018060a01b036014541690610b6960018060a01b03601954169189610b5e610b56601254612fa7565b828916612ea0565b9160301c1690612eb3565b913390613918565b613de3565b63756ac9bb60e11b60005260046000fd5b346101be5760003660031901126101be576019546014546018546015546017546040516324facdb160e11b81526001600160a01b0394851660048201526024810193909352908316604483015260648201529160209183916084918391600091165af180156107f957610c01575b60006018819055601755005b610c199060203d6020116107f2576107e38183612fe6565b610bf5565b346101be57610c2c36612e2b565b90936101e093929352929160ff600f5460281c166103ef578282036103ff5792919060006101a0525b806101a05110610c6157005b610c756103b66101a051836101e051612ef1565b61016052610c8a6103ca6101a0518487612ef1565b9360ff600f5460281c166103ef5762ffffff610160511615610934576016546001600160601b0381166001600160601b0387161115610923576001600160601b039060601c166001600160601b03861610156109235762ffffff610cf88160155460a01c166101605161317d565b1661091257610220859052600061012081905260c052610d166149fb565b60a09190915260e0526000610140526060610100525b6001600160601b0361022051161515806115e2575b806115d7575b1561132357610220516102005260006101c05260a05115610e2e57610e0e610d716102205161525d565b906101c0525b6101c05161022052610d9b610d926101c05161020051613968565b61012051613116565b61012052600060a051600014610e255750610dc7610dbf6101c05161020051613968565b60c051613116565b60c052610e01610df862ffffff610de781600f5460901c1660e051615548565b166105566101c05161020051613968565b6101405161340a565b6101405261010051613136565b61010052610e1a6149fb565b60e05260a052610d2c565b610dc790610dbf565b939091670de0b6b3a7640000610e6662ffffff600f5460901c1662ffffff83610e598360e051612ea0565b041660805260e051612ea0565b046101c05152600860205260406101c051206101805261022051906101c051506101c0515060609364ffffffffff6101805154165b6001600160601b038416151580611313575b156112c7576101c0515064ffffffffff81166101c05152600660205264ffffffffff600160406101c05120015460281c169364ffffffffff82166101c05152600660205260406101c051205460a01c946101c05150856001600160601b038316116000146112bd57610f1f8683613968565b955b6101c0519083906001600160601b038916156112ac575b505064ffffffffff84166101c05152600660205261104860ff600160406101c05120015460681c161564ffffffffff86166101c05152600660205260018060a01b0360406101c0512054166101c051506001600160601b038a16156000146112895785915b6101c0805164ffffffffff8a169052600660205251604090206001015460501c62ffffff16918115611277576015546001600160a01b0316935b821561125157610fe7848261590a565b935b6060931561122b575061271061102661101d6109af60018060a01b0360145416946001600160601b03610627601254612fa7565b60115490612ea0565b04905b816111f7575b505061077b61078992936040519586936020850161305e565b926001600160601b0388168015906111c3575b611185575b64ffffffffff85166101c05152600660205260018060a01b0360406101c0512054169464ffffffffff81166101c05152600660205260ff600160406101c05120015460681c161564ffffffffff82166101c05152600660205262ffffff600160406101c05120015460501c1696670de0b6b3a7640000880297808904670de0b6b3a7640000149015171561116b576001600160601b0360008051602061595d8339815191529560e095829461112d8f6111276111649e62ffffff600f5460901c1690612eb3565b93613968565b9464ffffffffff604051981688526020880152604087015260608601521660808401523360a08401521660c0820152a19496613136565b9492610e9b565b634e487b7160e01b6101c05152601160045260246101c051fd5b6001600160601b0382166111bb575b64ffffffffff85166101c0515260066020526111b68260406101c05120614835565b611060565b849250611194565b508215801561105b575064ffffffffff85166101c05152600660205264ffffffffff600160406101c051200154161561105b565b61078993509061122561077b92611217604051938492876020850161305e565b03601f198101835282612fe6565b9261102f565b6015546001600160a01b0316916127109161124a9161101d919061590a565b0490611029565b6112716109af611262601254612fa7565b6001600160601b038416612ea0565b93610fe9565b6014546001600160a01b031693610fd7565b64ffffffffff87166101c05152600660205260406101c051205460a01c91610f9d565b6112b69250613968565b828c610f38565b6101c05195610f21565b610e0e929564ffffffffff6001600160601b039299959396996112ed8161018051614b16565b501615611300575b91166101c052610d77565b61130d608051600c614c92565b506112f5565b5064ffffffffff81161515610ead565b909192936001600160601b0361012051168061146b575b508461138d611352610df86102205161016051614abd565b61137060018060a01b03601554169162ffffff610627601354612fa7565b90611387339262ffffff600f5460901c1690612eb3565b90613d81565b611450575b506001600160601b0361022051166113b8575b60016101a051016101a052929190610c55565b60008051602061597d833981519152611448600f546113dd64ffffffffff8216613193565b9064ffffffffff82169064ffffffffff191617600f556113ff610160516146cd565b5062ffffff610160511660005260076020526114306114228260406000206147f9565b826102205161016051614858565b604051918291610160519061022051903390856131ad565b0390a16113a5565b6001600160601b038061022051169116036106ec5784611392565b61147b6012549161070d83612fa7565b906114956001600160601b03600f5460301c168093612eb3565b916001600160601b0360c051169182611561575b505050602061151460009260105480611541575b506019546014546040516001600160a01b03928316936114f89391926114ef92849261121792909116338a850161305e565b61010051613136565b6040519485809481936337adb00f60e11b835260048301612dff565b03925af180156107f9571561133a5761153a9060203d81116107f2576107e38183612fe6565b508561133a565b6108358161083061082361081c6115589587615576565b601855896114bd565b6019546000805460145461159a966020966001600160a01b03938416969584169593909216939261087f92916108309161070d90612fa7565b03925af180156107f957600092602092611514926115ba575b50926114a9565b6115d090843d81116107f2576107e38183612fe6565b50896115b3565b5060e0511515610d47565b5062ffffff6101605116670de0b6b3a764000061160b62ffffff600f5460901c1660e051612ea0565b041115610d41565b346101be5760003660031901126101be576020600954604051908152f35b346101be5760003660031901126101be57604061164c614925565b90506116566149fb565b8351928352602083015250f35b346101be5760003660031901126101be57610160600f5460018060a01b03601454166012546001600160601b0360155462ffffff60135491601654926010549560115497866040519a868160901c168c5260301c1660208b015260408a0152606089015260018060a01b038216608089015260a088015260a01c1660c086015281811660e086015260601c16610100840152610120830152610140820152f35b346101be5760003660031901126101be57638b78c6d819546040516001600160a01b039091168152602090f35b346101be5760003660031901126101be5760e060018060a01b03600054166001546001600160601b03806002541660035460045491836005541694604051968752602087015260408601526060850152818116608085015260601c1660a083015260c0820152f35b60003660031901126101be576117ac613d64565b6000638b78c6d8195460008051602061593d8339815191528280a3600160ff1b638b78c6d81955005b346101be5760603660031901126101be576117ee612d7c565b6117f6612d50565b6117fe612dcd565b9060ff600f5460281c166103ef576101f1926131f2565b60003660031901126101be5763389a75e1600c523360005260006020600c2055337ffa7b8eab7da67f412cc9575ed43464468f9bfbae89d1675917346ca6d8fe3c92600080a2005b346101be5760003660031901126101be57307f0000000000000000000000000000000000000000000000000000000000000000036118ad57602060405160008051602061591d8339815191528152f35b639f03a0266000526004601cfd5b346101be5760003660031901126101be5760206001600160601b0360055416604051908152f35b60403660031901126101be576118f6612d3a565b602435906001600160401b0382116101be57366023830112156101be578160040135906001600160401b0382116101be5736602483850101116101be57307f0000000000000000000000000000000000000000000000000000000000000000146118ad57611962613d64565b60018060a01b03166352d1902d60015260008051602061591d833981519152602060016004601d855afa51036119f257807fbc7cd75a20ee27fd9adebab32041f755214dbc6bffa90cc0225b39da2e5c2d3b600080a2818160008051602061591d833981519152556119d057005b816000926024604051950185378338925af4156119e957005b3d6000823e3d90fd5b6355299b496001526004601dfd5b346101be5760203660031901126101be576004358015158091036101be57611a26613d64565b600f549060ff8260281c16151581146103ef5760ff60281b9060281b169060ff60281b191617600f55600080f35b346101be5760003660031901126101be576020600354604051908152f35b346101be5760003660031901126101be5760405143602082015260208152611a9b604082612fe6565b611aa3613a19565b62ffffff811662ffffff81141580611c60575b15611b6357600052600760205264ffffffffff604060002054169064ffffffffff6000925b16918215611b2157611aff9083600052600660205260406000205460a01c90613116565b91600052600660205264ffffffffff8060016040600020015460281c16611adb565b6040805162ffffff841660208201526001600160601b03909216908201529092611b5e9250611b589190610789826060810161077b565b91613ae1565b611aa3565b611b8183604051906000602083015260208252610789604083612fe6565b611b89613bc8565b62ffffff811662ffffff81141580611c57575b15611c4957600052600860205264ffffffffff604060002054169064ffffffffff6000925b16918215611c0757611be59083600052600660205260406000205460a01c90613116565b91600052600660205264ffffffffff8060016040600020015460281c16611bc1565b6040805162ffffff841660208201526001600160601b03909216908201529092611c449250611c3e9190610789826060810161077b565b91613c7e565b611b89565b604051806102a68582612dff565b50801515611b9c565b50801515611ab6565b346101be5760003660031901126101be57602064ffffffffff600f5416604051908152f35b60403660031901126101be57611ca2612d7c565b611caa612dbe565b600f549160ff8360281c166103ef5760ff60055460c01c169060038210159182610a9a576002149384156120db5750611cf561062e611cea601354612fa7565b62ffffff8416612ea0565b3403610b06575b90600092600092611d0b6149fb565b929092956000926060965b62ffffff821691821515806120b5575b806120ac575b15611ece57506001600160601b03611d4d600f5493828560301c1690613444565b1690670de0b6b3a7640000820291808304670de0b6b3a76400001490151715611e5b57899361053a611de0926001600160601b03611da162ffffff611de69860901c1696611d9b888b612ea0565b90612eb3565b16809d81966000908d600014611e7957505050611dc0611dda9161525d565b92909b8c8094985b60009215611e715761053a9250613968565b9c613968565b97613136565b936001600160601b03611e05600f549362ffffff8560901c1690612ea0565b9260301c16670de0b6b3a7640000810290808204670de0b6b3a76400001490151715611e5b5762ffffff926001600160601b03611e43931690615532565b1691611e4d6149fb565b989094969193909897611d16565b634e487b7160e01b600052601160045260246000fd5b505090613116565b92826040611ec29362ffffff670de0b6b3a7640000611eb2898383611eaa611dda9d6001600160601b039f9d612ea0565b041696612ea0565b0416815260086020522090614d64565b93169b8c809498611dc8565b8a92508791896001600160601b038896169182611f48575b50505062ffffff16938415610ac157610ab057610a9a5715611f1957610a0d610a0861062e60209461070d601354612fa7565b601954601554601354610a64946020936001600160a01b03938416931691610a449161062e9161070d90612fa7565b6001600160601b03929650611f636012549761070d89612fa7565b611f7584600f5460301c168092612eb3565b9760018060a01b03601454169485931680612047575b5050505060105480612003575b50611fc86000939261078e8860209461078960018060a01b03601954169461077b604051948592338b8501613087565b03925af19182156107f95762ffffff92611fe4575b8192611ee6565b611ffc9060203d6020116107f2576107e38183612fe6565b5086611fdd565b6000939261078e886020946120386108358661202961081c6108309f99611fc89a615576565b9d8e9561070d601154846139aa565b60185594505050929350611f98565b61207593600061087f60209561083060018060a01b03601954169561070d60018060a01b0386541698612fa7565b03925af180156107f95761208d575b80808492611f8b565b6120a59060203d6020116107f2576107e38183612fe6565b5087612084565b50891515611d2c565b5062ffffff670de0b6b3a76400006120d482600f5460901c168d612ea0565b0410611d26565b34610b765761211c9060018060a01b036015541690610b6960018060a01b03601954169162ffffff612111610b56601354612fa7565b9160901c1690612eb3565b611cfc565b60003660031901126101be5763389a75e1600c52336000526202a30042016020600c2055337fdbf36a107da19e49527a7176a1babf963b4b0ff8cde35ee35d6cd8f1f9ac7e1d600080a2005b346101be5760203660031901126101be576004356001600160401b0381116101be5761219d903690600401612d8e565b9060005b8281106121dc57507f386974f41b61738b510019ccd5a3524a43eccf0d136929e09d524e87aeeca2c4916106d2604051928392339184612f4d565b806121fa6121f56121f06001948787612ef1565b612f3b565b613467565b50016121a1565b346101be5760c03660031901126101be576004356001600160401b0381116101be57612231903690600401612d8e565b610320526024356001600160401b0381116101be57612254903690600401612d8e565b91906044356001600160401b0381116101be57612275903690600401612d8e565b90610340526064356001600160401b0381116101be57612299903690600401612d8e565b90926084356001600160401b0381116101be576122ba903690600401612d8e565b60a435610380819052909791969080151590036101be5760ff600f5460281c166103ef578161032051036103ff578385036103ff579594939291906000610300525b6103205161030051106123dd575b5050909192935060005b828110612379575b5050505060005b82811061235e57507f386974f41b61738b510019ccd5a3524a43eccf0d136929e09d524e87aeeca2c4916106d2604051928392339184612f4d565b806123726121f56121f06001948787612ef1565b5001612323565b62ffffff61238e6103b6838661034051612ef1565b16156123d8576123a56103b6828561034051612ef1565b906123b46103ca828588612ef1565b60ff600f5460281c166103ef576001926123d29161038051916131f2565b01612314565b61231c565b62ffffff6123f56103b661030051610320518b612ef1565b16156128f75761240f6103b661030051610320518a612ef1565b610400526124246103ca610300518385612ef1565b6103a05260ff600f5460281c166103ef5762ffffff610400511615610934576016546001600160601b0381166001600160601b036103a051161115610923576001600160601b039060601c166001600160601b036103a0511610156109235762ffffff61249b8160155460a01c166104005161317d565b16610912576103a0516102c05260006103e08190526102a0526124bc6149fb565b6103c052610360526103c05161026052600080610240526060610240525b6001600160601b036102c051161515806128c5575b806128b9575b156126295761258b9061055c6102c0516000806102e052610360516000146125c557506105566125276102c05161525d565b6102e0525b806102c05261254761253e8285613968565b6103e051613116565b6103e0526000610360516000146125bc575061256f6125668285613968565b6102a051613116565b6102a05262ffffff61054f81600f5460901c1661026051615548565b9661259c6102e05161024051613136565b610240526125a86149fb565b6102808290526102605261036052966124da565b61256f90612566565b6001600160601b0361261f6105569262ffffff600f5460901c16670de0b6b3a764000061260962ffffff826125fd8561026051612ea0565b04169261026051612ea0565b048252600860205260406102c051922090614d64565b6102e0521661252c565b96909192939495966001600160601b036103e0511680612756575b5061135261265c9161055c6102c05161040051614abd565b61038051612725575b6001600160601b036102c0511661268d575b60016103005101610300529594939291906122fc565b60008051602061597d83398151915261271d600f546126b264ffffffffff8216613193565b9064ffffffffff82169064ffffffffff191617600f556126d4610400516146cd565b5062ffffff610400511660005260076020526127056126f78260406000206147f9565b826102c05161040051614858565b60405191829161040051906102c051903390856131ad565b0390a1612677565b6001600160601b036102c051166001600160601b036103a051160315612665576306e6da4d60e01b60005260046000fd5b906127676012549261070d84612fa7565b916127816001600160601b03600f5460301c168094612eb3565b926001600160601b036102a051169182612843575b50505060206127e560009360105480612823575b506019546014546040516001600160a01b039283169361078e9391926127dc92849261121792909116338a850161305e565b61024051613136565b03925af19081156107f95761265c9261135292612805575b509150612644565b61281c9060203d81116107f2576107e38183612fe6565b508b6127fd565b6108358161083061082361081c61283a9587615576565b6018558d6127aa565b6019546000805460145461287c966020966001600160a01b03938416969584169593909216939261087f92916108309161070d90612fa7565b03925af180156107f9576000936020926127e59261289c575b5093612796565b6128b290843d81116107f2576107e38183612fe6565b508d612895565b506102605115156124f5565b5062ffffff6104005116670de0b6b3a76400006128ef62ffffff600f5460901c1661026051612ea0565b0411156124ef565b61230a565b346101be5760203660031901126101be5760043564ffffffffff81168091036101be57600052600660205260c0604060002060ff600182549201546040519260018060a01b038116845260a01c602084015264ffffffffff8116604084015264ffffffffff8160281c16606084015262ffffff8160501c16608084015260681c16151560a0820152f35b346101be576102003660031901126101be576129a0612d3a565b6024359060038210156101be576044356001600160a01b03811692908390036101be576084356001600160a01b03811693908490036101be5760c4356001600160a01b038116908190036101be5760e435906001600160601b03821682036101be57610104359562ffffff871687036101be57610124359162ffffff831683036101be57610144356001600160601b0381168091036101be57610164356001600160601b03811681036101be5761018435916101a435936101c4359560018060a01b0387168097036101be576101e435976001600160601b0389168099036101be5763409feecd19805460038255909d9080612ca0575b50638b78c6d81954612c92576001600160a01b0316801560ff1b8117638b78c6d81955600060008051602061593d8339815191528180a385611f4002611f4081048703611e5b57612710900487111580612c87575b15612c76576001600160601b03600a8a06161580612c6d575b80612c62575b15612c5157600a9960009e6005549c60018060a01b031960145416176014556015549460643560125560a43560135560018060a01b0319601954161760195571ffffffffffffffffffffffff000000000000600f549162ffffff60901b9060901b169260301b16906601000000000000600160a81b0319161717600f5562ffffff60a01b9060a01b169168ffffffffffffffffff60b81b161717601555601654916001600160601b0360601b9060601b16916001600160401b0360c01b16171760165560105560115560018060a01b0319875416178655046001600160601b0360601b9060601b169160ff60c01b9060c01b1690600160601b600160c81b031916171760055580600019600355612c20575080f35b6002905560016020527fc7f505b2f371ae2175ee4913f4499e1f2633a7b5936321eed1cdaeb6115181d2602080a180f35b633cd146b160e01b60005260046000fd5b506101f48910612b0b565b50881515612b05565b63a926954560e01b60005260046000fd5b506127108610612aec565b630dc149f06000526004601cfd5b6001919e9181811c14303b1015612cbc5760ff1b1b9c8f612a97565b63f92ee8a96000526004601cfd5b346101be5760203660031901126101be5760043560005260086020526102a6604060002054604051918164ffffffffff80859460281c1691168390929164ffffffffff60209181604085019616845216910152565b346101be5760003660031901126101be57602090600c548152f35b600435906001600160a01b03821682036101be57565b602435906001600160601b03821682036101be57565b600435906001600160601b03821682036101be57565b6004359062ffffff821682036101be57565b9181601f840112156101be578235916001600160401b0383116101be576020808501948460051b0101116101be57565b6024359081151582036101be57565b6044359081151582036101be57565b60005b838110612def5750506000910152565b8181015183820152602001612ddf565b60409160208252612e1f8151809281602086015260208686019101612ddc565b601f01601f1916010190565b60606003198201126101be576004356001600160401b0381116101be5781612e5591600401612d8e565b92909291602435906001600160401b0382116101be57612e7791600401612d8e565b909160443580151581036101be5790565b906103e88202918083046103e81490151715611e5b57565b81810292918115918404141715611e5b57565b8115612ebd570490565b634e487b7160e01b600052601260045260246000fd5b906001600160601b0316908115612ebd576001600160601b03160490565b9190811015612f015760051b0190565b634e487b7160e01b600052603260045260246000fd5b3562ffffff811681036101be5790565b356001600160601b03811681036101be5790565b3564ffffffffff811681036101be5790565b604080825281018390529293929160608301906000905b808210612f7f575050602091509360018060a01b0316910152565b909183359064ffffffffff82168092036101be57908152602093840193019160010190612f64565b604d8111611e5b57600a0a90565b60c081019081106001600160401b03821117612fd057604052565b634e487b7160e01b600052604160045260246000fd5b90601f801991011681019081106001600160401b03821117612fd057604052565b3d15613041573d906001600160401b038211612fd05760405191613035601f8201601f191660200184612fe6565b82523d6000602084013e565b606090565b908160209103126101be575180151581036101be5790565b6001600160a01b0391821681529116602082015260408101919091526001606082015260800190565b6001600160a01b0391821681529116602082015260408101919091526000606082015260800190565b6001600160a01b039182168152911660208201526040810191909152901515606082015260800190565b6001600160601b03166107d001906001600160601b038211611e5b57565b6001600160601b03166103e801906001600160601b038211611e5b57565b906001600160601b03809116911601906001600160601b038211611e5b57565b61317b90929192602060405194826131578794518092858088019101612ddc565b830161316b82518093858085019101612ddc565b010103601f198101845283612fe6565b565b9062ffffff16908115612ebd5762ffffff160690565b64ffffffffff60019116019064ffffffffff8211611e5b57565b64ffffffffff90911681526001600160a01b0390911660208201526001600160601b0391909116604082015262ffffff90911660608201526001608082015260a00190565b90916016546001600160601b038416906001600160601b0381168211156109235760601c6001600160601b03168110156109235762ffffff61323b8160155460a01c168561317d565b166109125762ffffff8316938415610934576132716132779261063f6109af60018060a01b03601454169261070d601254612fa7565b83614330565b9091613400575b506001600160601b03169081156133fb5760008051602061597d8339815191529260a0926133db600f54936132d86132bc64ffffffffff8716613193565b9164ffffffffff8316809764ffffffffff191617600f55614764565b508360005260086020526132f08160406000206147f9565b604051906132fd82612fb5565b338252602080830186815264ffffffffff9283166040808601828152600060608801818152608089018d815260a08a018381528f8452600690985293909120975188546001600160a01b0319166001600160a01b0391909116178855935192969095919361339693909183918291600191613381906001600160601b031682614835565b01975116168219875416178655511684613422565b518254915163ffffffff60501b1990921660509190911b62ffffff60501b161790151560681b60ff60681b161790556000908152600660205260409020600101613422565b6040519283523360208401526040830152606082015260006080820152a1565b505050565b6106ec573861327e565b9062ffffff8091169116019062ffffff8211611e5b57565b9064ffffffffff60281b82549160281b169064ffffffffff60281b1916179055565b906001600160601b03809116911602906001600160601b038216918203611e5b57565b64ffffffffff1680600052600660205260406000209060405161348981612fb5565b6001835493818060a01b0385168352602083019460a01c855201549264ffffffffff8416926040830190848252606084019064ffffffffff8760281c16825262ffffff8760501c16608086019681885260ff60a088019960681c16151590818a5215156000146138b157505064ffffffffff83511660005260066020528064ffffffffff60016040600020015460281c160361384f5786511561386a5762ffffff865116600052600760205264ffffffffff60406000205416818111159081613860575b501561384f575b84516001600160a01b0316330361383e5764ffffffffff83511680613815575b5064ffffffffff825116806137e0575b508651156136e357602094928694926135e19262ffffff61366d9951166000526007885264ffffffffff60406000205416146136a3575b62ffffff8651166000526007875264ffffffffff80604060002093511691511691614d30565b6019549151601554915193516001600160a01b039182169493821693929091169160009161364f916136219162ffffff16906001600160601b0316613444565b62ffffff61211181613643600f54946001600160601b038660301c1690612ed3565b1661070d601354612fa7565b604051633af55cc760e11b815296879586948593916004850161305e565b03925af180156107f957613684575b505b51151590565b61369c9060203d6020116107f2576107e38183612fe6565b503861367c565b62ffffff8651166000526007875260406000206136c964ffffffffff8351168092614b16565b506135bb576136dd62ffffff875116614bf3565b506135bb565b916137339162ffffff8760209795826137729a51166000526008895264ffffffffff60406000205416146137a6575b51166000526008865264ffffffffff80604060002093511691511691614d30565b601954905160145492516012546001600160a01b0392831694938316939092169160009161364f916109af916001600160601b03169061070d90612fa7565b03925af180156107f957613787575b5061367e565b61379f9060203d6020116107f2576107e38183612fe6565b5038613781565b818151166000526008885260406000206137c964ffffffffff8551168092614b16565b50613712576137da82825116614b54565b50613712565b64ffffffffff84511690600052600660205264ffffffffff6001604060002001911664ffffffffff1982541617905538613584565b6138389064ffffffffff8451169060005260066020526001604060002001613422565b38613574565b63a0cdd78160e01b60005260046000fd5b63020a7dc960e61b60005260046000fd5b905015153861354d565b62ffffff865116600052600860205264ffffffffff604060002054168181111590816138a7575b506135545763020a7dc960e61b60005260046000fd5b9050151538613891565b156138eb575062ffffff86511660005260076020528064ffffffffff6040600020541603156135545763020a7dc960e61b60005260046000fd5b60005260086020528064ffffffffff6040600020541603156135545763020a7dc960e61b60005260046000fd5b601c600060649281946020966040519860605260405260601b602c526323b872dd60601b600c525af13d1560016000511417161561395a576000606052604052565b637939f4246000526004601cfd5b906001600160601b03809116911603906001600160601b038211611e5b57565b6001600160a01b03918216815291166020820152604081019190915260600190565b91908203918211611e5b57565b91908201809211611e5b57565b600080808060018060a01b03601954166139de86346139aa565b905af16139e9613007565b5015613a0857600080808093335af1613a00613007565b5015613a0857565b63386bf62b60e11b60005260046000fd5b60008052600b602052613a3160006040812054615598565b60018101613ad9575060008052600a602052613a5260006040812054615598565b60018101613abc5750613a686000600954615598565b60018101613a765750600090565b80600052600a60205260ff613a8f6040600020546155c1565b169060081b1780600052600b60205262ffffff60ff613ab26040600020546155c1565b169160081b161790565b80600052600b60205262ffffff60ff613ab26040600020546155c1565b62ffffff1690565b8060081c9060ff811660ff8103613b91575b5060ff9060101c1660ff821660ff8103613b4b575b5060ff91501660ff8103613b1d575b50600090565b613b2990600954615598565b6001810115613b175780600052600a60205260ff613a8f6040600020546155c1565b613b639082600052600a602052604060002054615598565b916001830115613b085761ff009150161780600052600b60205262ffffff60ff613ab26040600020546155c1565b613bad9061ffff8416600052600b602052604060002054615598565b6001810115613af35762ffffff1662ffff0090911617919050565b60008052600e602052613be060006040812054615598565b60018101613ad9575060008052600d602052613c0160006040812054615598565b60018101613c615750613c176000600c54615598565b60018101613c255750600090565b80600052600d60205260ff613c3e6040600020546155c1565b169060081b1780600052600e60205262ffffff60ff613ab26040600020546155c1565b80600052600e60205262ffffff60ff613ab26040600020546155c1565b8060081c9060ff811660ff8103613d2d575b5060ff9060101c1660ff821660ff8103613ce7575b5060ff91501660ff8103613cb95750600090565b613cc590600c54615598565b6001810115613b175780600052600d60205260ff613c3e6040600020546155c1565b613cff9082600052600d602052604060002054615598565b916001830115613ca55761ff009150161780600052600e60205262ffffff60ff613ab26040600020546155c1565b613d499061ffff8416600052600e602052604060002054615598565b6001810115613c905762ffffff1662ffff0090911617919050565b638b78c6d819543303613d7357565b6382b429006000526004601cfd5b601954604051633609c92960e11b81529360209385936001600160a01b039093169284926000928492613db79260048501613988565b03925af180156107f957613dc85750565b613de09060203d6020116107f2576107e38183612fe6565b50565b6000908192613df0614925565b90946060935b6001600160601b03811680151580614300575b806142f3575b15614139578190848980614122575b600090156140cc57505060015490600454906001600160601b038260601c1660025495613e546001600160601b03881683613968565b926001600160601b038416119182156140c357819788935b15613fe457505060008051602061595d833981519152935090613eb5916002546001600160601b03613ea083828416613116565b16906001600160601b03191617600255613968565b92613f28613ec3828861574f565b96613ed98160018060a01b036000541695613968565b6040805160008082526001600160a01b0390971660208201529081019590955260608501939093526001600160601b0392831660808501523360a085015290911660c0830152819060e0820190565b0390a191935b8298600014613f86575091613f67613f4d613f6d93613f739695613968565b6001546001600160601b0380600f5460301c169216615532565b906139b7565b93613136565b91613f7c614925565b9095919091613df6565b613fd762ffffff91613fa2613fde95613f7398979a9b95613968565b906001600160601b038085670de0b6b3a7640000613fc9600f5495838760901c1690612ea0565b04169260301c169216615532565b169061340a565b94613136565b9092506001600160601b0319166002556001600160601b0382811960055416178060055560601c16906107d06001600160601b03614021846130da565b1693848102948186041490151702156140b5576140a961407b899360008051602061595d83398151915297613eb5966107d06001600160601b0360601b910460601b16906001600160601b0360601b1916176004556130f8565b61083061408789612e88565b6b7fffffffffffffffffffffff6001600160601b0384169360011c16906139b7565b60015585600355613968565b63ad251c276000526004601cfd5b83978893613e6c565b61411992509060406001600160601b039592670de0b6b3a764000061410a62ffffff8261410182600f5460901c168098612ea0565b0416948b612ea0565b04815260076020522090615004565b92169193613f2e565b506001600160601b0360045460601c161515613e1e565b5093929490955062ffffff9150169384158015906142ea575b61416157505090915090600090565b61419961417761062e6013549761070d89612fa7565b670de0b6b3a764000061419261418c89612fa7565b85612ea0565b04906139b7565b9481614251575b505060206141e560009260105480614215575b506114f88760018060a01b03601954169261078960018060a01b036015541661077b89604051958693338c86016130b0565b03925af180156107f9576141f857509190565b6142109060203d6020116107f2576107e38183612fe6565b509190565b6142408161083061423361422c614248958d615576565b809c6139aa565b9a61070d601154846139aa565b6017546139b7565b601755386141b3565b601954600080546015546142ac956020956001600160a01b03938416958416949290931692670de0b6b3a76400009161428d9161070d90612fa7565b049360405196879586948593633609c92960e11b855260048501613988565b03925af180156107f9576000926020926141e5926142cd575b5092506141a0565b6142e390843d86116107f2576107e38183612fe6565b50386142c5565b50801515614152565b5062ffffff841415613e0f565b5062ffffff600f5460901c166000901561431c57506001613e09565b634e487b7160e01b81526012600452602490fd5b6000929183919061433f614925565b90956060925b6001600160601b03811680151580614688575b8061467b575b1561454e578190848a80614537575b600090156144f957505060015490600454906001600160601b038260601c16600254956143a36001600160601b03881683613968565b926001600160601b038416119182156144f057819788935b1561445957505060008051602061595d8339815191529350906143ef916002546001600160601b03613ea083828416613116565b926143fd613ec3828861574f565b0390a191935b829960001461443d575091613f67613f4d614422936144289695613968565b92613136565b92614431614925565b91909694929094614345565b613fd762ffffff91613fa2613fde956144289897999b95613968565b9092506001600160601b0319166002556001600160601b0382811960055416178060055560601c16906107d06001600160601b03614496846130da565b1693848102948186041490151702156140b5576140a961407b899360008051602061595d833981519152976143ef966107d06001600160601b0360601b910460601b16906001600160601b0360601b1916176004556130f8565b839788936143bb565b61452e92509060406001600160601b039592670de0b6b3a764000061410a62ffffff8261410182600f5460901c168098612ea0565b92169193614403565b506001600160601b0360045460601c16151561436d565b5062ffffff9095169650919250508415801590614672575b61457557505090915090600090565b61458b61417761062e6013549761070d89612fa7565b94816145f8575b505060206141e5600092601054806145d8575b506114f88760018060a01b03601954169261078960018060a01b036015541661077b6001604051958693338c86016130b0565b6142408161083061423361422c6145ef958d615576565b601755386145a5565b60195460008054601554614634956020956001600160a01b03938416958416949290931692670de0b6b3a76400009161428d9161070d90612fa7565b03925af180156107f9576000926020926141e592614655575b509250614592565b61466b90843d86116107f2576107e38183612fe6565b503861464d565b50801515614566565b5062ffffff84141561435e565b5062ffffff8616670de0b6b3a7640000810290808204670de0b6b3a76400001490151715611e5b576146c59062ffffff600f5460901c1690612eb3565b841015614358565b8060081c9061ffff821680600052600b60205260406000205490600160ff84161b821790818303614702575050505050600090565b600052600b6020526040600020551561471d575b5050600190565b60101c60ff9081166000818152600a6020526040902080546001949093169390931b821790925515614750575b80614716565b60ff600191161b600954176009553861474a565b8060081c9061ffff821680600052600e60205260406000205490600160ff84161b821790818303614799575050505050600090565b600052600e602052604060002055156147b3575050600190565b60101c60ff9081166000818152600d6020526040902080546001949093169390931b8217909255156147e55780614716565b60ff600191161b600c5417600c553861474a565b805460281c64ffffffffff16918261482c57815464ffffffffff191664ffffffffff821617825561482991613422565b90565b61482991613422565b80546001600160a01b031660a09290921b6001600160a01b031916919091179055565b92600161317b9461339664ffffffffff8681808660405161487881612fb5565b3381526001600160601b03602082019b168b526133816001600160601b0384604084019c169c8d8d5285606085019860008a5262ffffff608087019d168d5260a086019d8e52166000526006602052604060002093858060a01b0390868060a01b0390511616858060a01b0319855416178455511682614835565b60018060a01b031680638b78c6d8195460008051602061593d833981519152600080a3801560ff1b17638b78c6d81955565b62ffffff614931615681565b1662ffffff8103614958575060015490811561494d5760019190565b6000915062ffffff90565b6001548061499c5750670de0b6b3a7640000810290808204670de0b6b3a76400001490151715611e5b576149979062ffffff600f5460901c1690612eb3565b600091565b9190670de0b6b3a7640000810290808204670de0b6b3a76400001490151715611e5b5762ffffff600f5460901c166149d48183612eb3565b60009290858118818711021885036149ef5750505060019190565b91935061482991612eb3565b62ffffff614a07613bc8565b1680158015614a2d575050600354906000198214614a255760019190565b600091508190565b60035460018101614a6c5750670de0b6b3a76400008202918204670de0b6b3a7640000141715611e5b576149979062ffffff600f5460901c1690612eb3565b929190670de0b6b3a76400008202918204670de0b6b3a7640000141715611e5b5762ffffff600f5460901c16614aa28183612eb3565b60009290858118818710021885036149ef5750505060019190565b62ffffff906001600160601b0380600f5460301c1692839216931692838102938185041490151702156140b557808204910615150162ffffff811015614b055762ffffff1690565b630b25243160e01b60005260046000fd5b9064ffffffffff811615614b3d5764ffffffffff1664ffffffffff19825416179055600090565b50805469ffffffffffffffffffff19169055600190565b8060081c9061ffff821680600052600e60205260406000205490600160ff84161b198216809203614b885750505050600090565b600052600e6020528060406000205515614ba3575050600190565b60ff9060101c169081600052600d602052600160ff60406000205492161b191681600052600d6020528060406000205515614bde5780614716565b60ff600191161b19600c5416600c553861474a565b8060081c9061ffff821680600052600b60205260406000205490600160ff84161b198216809203614c275750505050600090565b600052600b6020528060406000205515614c42575050600190565b60ff9060101c169081600052600a602052600160ff60406000205492161b191681600052600a6020528060406000205515614c7d5780614716565b60ff600191161b19600954166009553861474a565b908060081c9061ffff821660028401816000528060205260406000205491600160ff85161b198316809303614ccc57505050505050600090565b6000526020528060406000205515614ce7575b505050600190565b60101c60ff9081166000818152600185810160205260409091208054949093161b199092169081905515614d1c575b80614cdf565b60ff600191161b1981541690553880614d16565b9164ffffffffff9081831615614d54575b1615614d4b575050565b61317b91613422565b8181168219855416178455614d41565b90919260609064ffffffffff8454165b6001600160601b03861680151580614ff4575b15614fc75760009164ffffffffff6001604082841695868152600660205220015460281c169083600052600660205260406000205460a01c928360009111600014614fc15750614dd7838a613968565b985b6000916001600160601b038b16159485614fad575b50600086815260066020526040812060018101549054614e6a9260689290921c60ff1615916001600160a01b0391909116908815614f97575084915b89600052600660205262ffffff60016040600020015460501c169181600014611277576015546001600160a01b031693821561125157610fe7848261590a565b948015614f6e575b614f39575b506000858152600660205260409020805460019190910154670de0b6b3a7640000605082901c62ffffff16818102989360689390931c60ff1615926001600160a01b0316918115918a04141715611e5b576001600160601b0360008051602061595d8339815191529560e0958f94614f028496611127614f329e62ffffff600f5460901c1690612eb3565b946040519788526020880152604087015260608601521660808401523360a08401521660c0820152a19693613136565b9194614d74565b6001600160601b038316614f66575b50846000526006602052614f60826040600020614835565b38614e77565b925038614f48565b5083158015614e72575085600052600660205264ffffffffff6001604060002001541615614e72565b808a604092526006602052205460a01c91614e2a565b614fba9193508290613968565b9138614dee565b98614dd9565b50614fdd8164ffffffffff939697959497614b16565b501615614fe957509190565b61421090600c614c92565b5064ffffffffff82161515614d87565b90919260609064ffffffffff8454165b6001600160601b0386168015158061524d575b156152205760009164ffffffffff6001604082841695868152600660205220015460281c169083600052600660205260406000205460a01c92836000911160001461521a5750615077838a613968565b985b6000916001600160601b038b16159485615206575b506000868152600660205260408120600181015490546151099260689290921c60ff1615916001600160a01b0391909116908815614f975750849189600052600660205262ffffff60016040600020015460501c169181600014611277576015546001600160a01b031693821561125157610fe7848261590a565b9480156151dd575b6151a8575b506000858152600660205260409020805460019190910154670de0b6b3a7640000605082901c62ffffff16818102989360689390931c60ff1615926001600160a01b0316918115918a04141715611e5b576001600160601b0360008051602061595d8339815191529560e0958f94614f0284966111276151a19e62ffffff600f5460901c1690612eb3565b9194615014565b6001600160601b0383166151d5575b508460005260066020526151cf826040600020614835565b38615116565b9250386151b7565b5083158015615111575085600052600660205264ffffffffff6001604060002001541615615111565b6152139193508290613968565b913861508e565b98615079565b506152368164ffffffffff939697959497614b16565b50161561524257509190565b614210906009614c92565b5064ffffffffff82161515615027565b90600354906005546001600160601b03811690600454946152876001600160601b03871684613968565b926001600160601b0384166001600160601b03831610928360001461552957829788945b1561541e57505050916001600160601b036152f060e09360008051602061595d83398151915295600454846152e283828416613116565b169085191617600455613968565b60155490979082906153a6906001600160a01b03166000670de0b6b3a764000061533b6153306153228789168f612ea0565b87600f5460301c1690612eb3565b61070d601354612fa7565b0460609060018060a01b036014541661271061537761101d615369615361601254612fa7565b8b8d16612ea0565b8a600f5460301c1690612eb3565b04806153eb575b5050915460405193919261078992859261077b9291906001600160a01b03166020850161305e565b976153bc8360018060a01b036000541696613968565b90604051956000875260208701526001604087015260608601521660808401523360a08401521660c0820152a1565b8454604051610789955061077b93909261541892849261121792916001600160a01b03166020850161305e565b9261537e565b90919293506001600160601b0360601b8260601b16906001600160401b0360c01b16176004556001600160601b0361545a818360601c166130da565b16806107d08402936107d08186041490151702156140b55782816001600160601b03949285930491061515011690821916178060055560601c16916154b06001600160601b036154a9856130f8565b1686612ea0565b6101f48101809111611e5b576103e890046003556002546001600160601b036154db818316956130f8565b1693846103e88202916103e88184041490151702156140b5578760e0946001600160601b03938460008051602061595d833981519152986152f0950416908519161760025588600155613968565b849788946152ab565b81810291811591830414178202156140b5570490565b8181029181159183041417670de0b6b3a764000002156140b557670de0b6b3a7640000808204910615150190565b818102918115918304141761271002156140b557612710808204910615150190565b600190910160ff1690811c90816155b157505060001990565b6155bc60ff926155c1565b011690565b6000908060801b80615675575b508060401b80615668575b508060201b8061565b575b508060101b8061564e575b508060081b80615641575b508060041b80615634575b508060021b80615627575b5060011b61561f575b60ff0390565b600101615619565b6002915091019038615610565b6004915091019038615605565b60089150910190386155fa565b60109150910190386155ef565b60209150910190386155e4565b60409150910190386155d9565b915050608090386155ce565b61ffff600052600b60205261569c60ff604060002054615825565b60018101615742575060ff600052600a6020526156bf60ff604060002054615825565b6001810161572157506156d560ff600954615825565b600181016156e5575062ffffff90565b80600052600a60205260ff6156fe604060002054615853565b169060081b1780600052600b60205262ffffff60ff613ab2604060002054615853565b61ff001780600052600b60205262ffffff60ff613ab2604060002054615853565b62ffff001762ffffff1690565b906148299160018060a01b0360145416916000916127106157c5670de0b6b3a76400006157bb6153306109af61579b6109af61578c601254612fa7565b6001600160601b038a16612ea0565b97606099506001600160601b0360018060a01b0360155416981690612ea0565b0460115490612ea0565b04806157f2575b50506000546040519361078992859261077b92906001600160a01b03166020850161305e565b600054604051939450610789939261581d92849261121792906001600160a01b03166020850161305e565b9190386157cc565b60001990910160ff90811681031690811b8061584357505060001990565b61584e60ff91615853565b160390565b600091906001600160801b0381116158ff575b806001600160401b03600192116158f3575b63ffffffff81116158e7575b61ffff81116158db575b60ff81116158cf575b600f81116158c3575b600381116158b7575b116158b057565b9060010190565b6002938401931c6158a9565b6004938401931c6158a0565b6008938401931c615897565b6010938401931c61588e565b6020938401931c615884565b6040938401931c615878565b60809250821c615866565b6136219062ffffff614829931661344456fe360894a13ba1a3210667c828492db98dca3e2076cc3735a920a3ca505d382bbc8be0079c531659141344cd1fd0a4f28419497f9722a3daafe3b4186f6b6457e006029dfae141718336c21b1bb8cd746dc87a38baa63c413c40fa24b807b7cc05de65ec26e567cef1936a693231b33b08ce40fca66ce0e78b38d938048c7a0891a264697066735822122024ced5367a10bec6cafddd9c2342b2771d8d8d1c4d307625b578f4cc97ef5f9564736f6c634300081a0033",
  "linkReferences": {},
  "deployedLinkReferences": {}
}