{
  "_format": "hh-sol-artifact-1",
  "contractName": "OrderBook",
  "sourceName": "contracts/OrderBook.sol",
  "abi": [
    {
      "inputs": [],
      "stateMutability": "nonpayable",
      "type": "constructor"
    },
    {
      "anonymous": false,
      "inputs": [
        {
          "indexed": false,
          "internalType": "address",
          "name": "previousAdmin",
          "type": "address"
        },
        {
          "indexed": false,
          "internalType": "address",
          "name": "newAdmin",
          "type": "address"
        }
      ],
      "name": "AdminChanged",
      "type": "event"
    },
    {
      "anonymous": false,
      "inputs": [
        {
          "indexed": true,
          "internalType": "address",
          "name": "beacon",
          "type": "address"
        }
      ],
      "name": "BeaconUpgraded",
      "type": "event"
    },
    {
      "anonymous": false,
      "inputs": [
        {
          "indexed": false,
          "internalType": "uint8",
          "name": "version",
          "type": "uint8"
        }
      ],
      "name": "Initialized",
      "type": "event"
    },
    {
      "anonymous": false,
      "inputs": [
        {
          "indexed": false,
          "internalType": "uint40",
          "name": "orderId",
          "type": "uint40"
        },
        {
          "indexed": false,
          "internalType": "address",
          "name": "owner",
          "type": "address"
        },
        {
          "indexed": false,
          "internalType": "uint96",
          "name": "size",
          "type": "uint96"
        },
        {
          "indexed": false,
          "internalType": "uint24",
          "name": "price",
          "type": "uint24"
        },
        {
          "indexed": false,
          "internalType": "bool",
          "name": "isBuy",
          "type": "bool"
        }
      ],
      "name": "OrderCreated",
      "type": "event"
    },
    {
      "anonymous": false,
      "inputs": [
        {
          "indexed": false,
          "internalType": "uint40[]",
          "name": "orderId",
          "type": "uint40[]"
        },
        {
          "indexed": false,
          "internalType": "address",
          "name": "owner",
          "type": "address"
        }
      ],
      "name": "OrdersCanceled",
      "type": "event"
    },
    {
      "anonymous": false,
      "inputs": [
        {
          "indexed": true,
          "internalType": "address",
          "name": "previousOwner",
          "type": "address"
        },
        {
          "indexed": true,
          "internalType": "address",
          "name": "newOwner",
          "type": "address"
        }
      ],
      "name": "OwnershipTransferred",
      "type": "event"
    },
    {
      "anonymous": false,
      "inputs": [
        {
          "indexed": false,
          "internalType": "uint40",
          "name": "orderId",
          "type": "uint40"
        },
        {
          "indexed": false,
          "internalType": "address",
          "name": "makerAddress",
          "type": "address"
        },
        {
          "indexed": false,
          "internalType": "bool",
          "name": "isBuy",
          "type": "bool"
        },
        {
          "indexed": false,
          "internalType": "uint24",
          "name": "price",
          "type": "uint24"
        },
        {
          "indexed": false,
          "internalType": "uint96",
          "name": "updatedSize",
          "type": "uint96"
        },
        {
          "indexed": false,
          "internalType": "address",
          "name": "takerAddress",
          "type": "address"
        },
        {
          "indexed": false,
          "internalType": "uint96",
          "name": "filledSize",
          "type": "uint96"
        }
      ],
      "name": "Trade",
      "type": "event"
    },
    {
      "anonymous": false,
      "inputs": [
        {
          "indexed": true,
          "internalType": "address",
          "name": "implementation",
          "type": "address"
        }
      ],
      "name": "Upgraded",
      "type": "event"
    },
    {
      "inputs": [
        {
          "internalType": "uint24",
          "name": "_price",
          "type": "uint24"
        },
        {
          "internalType": "uint96",
          "name": "size",
          "type": "uint96"
        },
        {
          "internalType": "bool",
          "name": "_postOnly",
          "type": "bool"
        }
      ],
      "name": "addBuyOrder",
      "outputs": [],
      "stateMutability": "nonpayable",
      "type": "function"
    },
    {
      "inputs": [
        {
          "internalType": "uint24",
          "name": "_price",
          "type": "uint24"
        },
        {
          "internalType": "uint96",
          "name": "size",
          "type": "uint96"
        },
        {
          "internalType": "bool",
          "name": "_postOnly",
          "type": "bool"
        }
      ],
      "name": "addSellOrder",
      "outputs": [],
      "stateMutability": "nonpayable",
      "type": "function"
    },
    {
      "inputs": [
        {
          "internalType": "uint40[]",
          "name": "_orderIds",
          "type": "uint40[]"
        }
      ],
      "name": "batchCancelOrders",
      "outputs": [],
      "stateMutability": "nonpayable",
      "type": "function"
    },
    {
      "inputs": [
        {
          "internalType": "uint24[]",
          "name": "buyPrices",
          "type": "uint24[]"
        },
        {
          "internalType": "uint96[]",
          "name": "buySizes",
          "type": "uint96[]"
        },
        {
          "internalType": "uint24[]",
          "name": "sellPrices",
          "type": "uint24[]"
        },
        {
          "internalType": "uint96[]",
          "name": "sellSizes",
          "type": "uint96[]"
        },
        {
          "internalType": "uint40[]",
          "name": "orderIdsToCancel",
          "type": "uint40[]"
        },
        {
          "internalType": "bool",
          "name": "postOnly",
          "type": "bool"
        }
      ],
      "name": "batchUpdate",
      "outputs": [],
      "stateMutability": "nonpayable",
      "type": "function"
    },
    {
      "inputs": [],
      "name": "bestBidAsk",
      "outputs": [
        {
          "internalType": "uint24",
          "name": "",
          "type": "uint24"
        },
        {
          "internalType": "uint24",
          "name": "",
          "type": "uint24"
        }
      ],
      "stateMutability": "view",
      "type": "function"
    },
    {
      "inputs": [],
      "name": "collectFees",
      "outputs": [],
      "stateMutability": "nonpayable",
      "type": "function"
    },
    {
      "inputs": [
        {
          "internalType": "address",
          "name": "_maker",
          "type": "address"
        }
      ],
      "name": "getActiveOrdersForAddress",
      "outputs": [
        {
          "internalType": "bytes",
          "name": "",
          "type": "bytes"
        }
      ],
      "stateMutability": "view",
      "type": "function"
    },
    {
      "inputs": [],
      "name": "getL2Book",
      "outputs": [
        {
          "internalType": "bytes",
          "name": "",
          "type": "bytes"
        }
      ],
      "stateMutability": "view",
      "type": "function"
    },
    {
      "inputs": [],
      "name": "getMarketParams",
      "outputs": [
        {
          "internalType": "uint24",
          "name": "",
          "type": "uint24"
        },
        {
          "internalType": "uint96",
          "name": "",
          "type": "uint96"
        },
        {
          "internalType": "address",
          "name": "",
          "type": "address"
        },
        {
          "internalType": "uint256",
          "name": "",
          "type": "uint256"
        },
        {
          "internalType": "address",
          "name": "",
          "type": "address"
        },
        {
          "internalType": "uint256",
          "name": "",
          "type": "uint256"
        },
        {
          "internalType": "uint24",
          "name": "",
          "type": "uint24"
        },
        {
          "internalType": "uint96",
          "name": "",
          "type": "uint96"
        },
        {
          "internalType": "uint96",
          "name": "",
          "type": "uint96"
        },
        {
          "internalType": "uint256",
          "name": "",
          "type": "uint256"
        },
        {
          "internalType": "uint256",
          "name": "",
          "type": "uint256"
        }
      ],
      "stateMutability": "view",
      "type": "function"
    },
    {
      "inputs": [],
      "name": "getVaultParams",
      "outputs": [
        {
          "internalType": "address",
          "name": "",
          "type": "address"
        },
        {
          "internalType": "uint256",
          "name": "",
          "type": "uint256"
        },
        {
          "internalType": "uint96",
          "name": "",
          "type": "uint96"
        },
        {
          "internalType": "uint256",
          "name": "",
          "type": "uint256"
        },
        {
          "internalType": "uint96",
          "name": "",
          "type": "uint96"
        },
        {
          "internalType": "uint96",
          "name": "",
          "type": "uint96"
        },
        {
          "internalType": "uint96",
          "name": "",
          "type": "uint96"
        }
      ],
      "stateMutability": "view",
      "type": "function"
    },
    {
      "inputs": [
        {
          "internalType": "address",
          "name": "_owner",
          "type": "address"
        },
        {
          "internalType": "enum IOrderBook.OrderBookType",
          "name": "_type",
          "type": "uint8"
        },
        {
          "internalType": "address",
          "name": "_baseAssetAddress",
          "type": "address"
        },
        {
          "internalType": "uint256",
          "name": "_baseAssetDecimals",
          "type": "uint256"
        },
        {
          "internalType": "address",
          "name": "_quoteAssetAddress",
          "type": "address"
        },
        {
          "internalType": "uint256",
          "name": "_quoteAssetDecimals",
          "type": "uint256"
        },
        {
          "internalType": "address",
          "name": "_marginAccountAddress",
          "type": "address"
        },
        {
          "internalType": "uint96",
          "name": "_sizePrecision",
          "type": "uint96"
        },
        {
          "internalType": "uint24",
          "name": "_pricePrecision",
          "type": "uint24"
        },
        {
          "internalType": "uint24",
          "name": "_tickSize",
          "type": "uint24"
        },
        {
          "internalType": "uint96",
          "name": "_minSize",
          "type": "uint96"
        },
        {
          "internalType": "uint96",
          "name": "_maxSize",
          "type": "uint96"
        },
        {
          "internalType": "uint256",
          "name": "_takerFeeBps",
          "type": "uint256"
        },
        {
          "internalType": "uint256",
          "name": "_makerFeeBps",
          "type": "uint256"
        },
        {
          "internalType": "address",
          "name": "_kuruAmmVault",
          "type": "address"
        }
      ],
      "name": "initialize",
      "outputs": [],
      "stateMutability": "nonpayable",
      "type": "function"
    },
    {
      "inputs": [],
      "name": "owner",
      "outputs": [
        {
          "internalType": "address",
          "name": "",
          "type": "address"
        }
      ],
      "stateMutability": "view",
      "type": "function"
    },
    {
      "inputs": [
        {
          "internalType": "uint24",
          "name": "_quoteSize",
          "type": "uint24"
        },
        {
          "internalType": "bool",
          "name": "_isFillOrKill",
          "type": "bool"
        }
      ],
      "name": "placeAndExecuteMarketBuy",
      "outputs": [
        {
          "internalType": "uint256",
          "name": "",
          "type": "uint256"
        }
      ],
      "stateMutability": "payable",
      "type": "function"
    },
    {
      "inputs": [
        {
          "internalType": "uint96",
          "name": "_size",
          "type": "uint96"
        },
        {
          "internalType": "bool",
          "name": "_isFillOrKill",
          "type": "bool"
        }
      ],
      "name": "placeAndExecuteMarketSell",
      "outputs": [
        {
          "internalType": "uint256",
          "name": "",
          "type": "uint256"
        }
      ],
      "stateMutability": "payable",
      "type": "function"
    },
    {
      "inputs": [
        {
          "internalType": "uint24[]",
          "name": "_prices",
          "type": "uint24[]"
        },
        {
          "internalType": "uint96[]",
          "name": "_sizes",
          "type": "uint96[]"
        },
        {
          "internalType": "bool",
          "name": "_postOnly",
          "type": "bool"
        }
      ],
      "name": "placeMultipleBuyOrders",
      "outputs": [],
      "stateMutability": "nonpayable",
      "type": "function"
    },
    {
      "inputs": [
        {
          "internalType": "uint24[]",
          "name": "_prices",
          "type": "uint24[]"
        },
        {
          "internalType": "uint96[]",
          "name": "_sizes",
          "type": "uint96[]"
        },
        {
          "internalType": "bool",
          "name": "_postOnly",
          "type": "bool"
        }
      ],
      "name": "placeMultipleSellOrders",
      "outputs": [],
      "stateMutability": "nonpayable",
      "type": "function"
    },
    {
      "inputs": [],
      "name": "proxiableUUID",
      "outputs": [
        {
          "internalType": "bytes32",
          "name": "",
          "type": "bytes32"
        }
      ],
      "stateMutability": "view",
      "type": "function"
    },
    {
      "inputs": [],
      "name": "renounceOwnership",
      "outputs": [],
      "stateMutability": "nonpayable",
      "type": "function"
    },
    {
      "inputs": [
        {
          "internalType": "uint256",
          "name": "",
          "type": "uint256"
        }
      ],
      "name": "s_buyPricePoints",
      "outputs": [
        {
          "internalType": "uint40",
          "name": "head",
          "type": "uint40"
        },
        {
          "internalType": "uint40",
          "name": "tail",
          "type": "uint40"
        }
      ],
      "stateMutability": "view",
      "type": "function"
    },
    {
      "inputs": [],
      "name": "s_buyTree",
      "outputs": [
        {
          "internalType": "bytes32",
          "name": "level0",
          "type": "bytes32"
        }
      ],
      "stateMutability": "view",
      "type": "function"
    },
    {
      "inputs": [],
      "name": "s_orderIdCounter",
      "outputs": [
        {
          "internalType": "uint40",
          "name": "",
          "type": "uint40"
        }
      ],
      "stateMutability": "view",
      "type": "function"
    },
    {
      "inputs": [
        {
          "internalType": "uint40",
          "name": "",
          "type": "uint40"
        }
      ],
      "name": "s_orders",
      "outputs": [
        {
          "internalType": "address",
          "name": "ownerAddress",
          "type": "address"
        },
        {
          "internalType": "uint96",
          "name": "size",
          "type": "uint96"
        },
        {
          "internalType": "uint40",
          "name": "prev",
          "type": "uint40"
        },
        {
          "internalType": "uint40",
          "name": "next",
          "type": "uint40"
        },
        {
          "internalType": "uint24",
          "name": "price",
          "type": "uint24"
        },
        {
          "internalType": "bool",
          "name": "isBuy",
          "type": "bool"
        }
      ],
      "stateMutability": "view",
      "type": "function"
    },
    {
      "inputs": [
        {
          "internalType": "uint256",
          "name": "",
          "type": "uint256"
        }
      ],
      "name": "s_sellPricePoints",
      "outputs": [
        {
          "internalType": "uint40",
          "name": "head",
          "type": "uint40"
        },
        {
          "internalType": "uint40",
          "name": "tail",
          "type": "uint40"
        }
      ],
      "stateMutability": "view",
      "type": "function"
    },
    {
      "inputs": [],
      "name": "s_sellTree",
      "outputs": [
        {
          "internalType": "bytes32",
          "name": "level0",
          "type": "bytes32"
        }
      ],
      "stateMutability": "view",
      "type": "function"
    },
    {
      "inputs": [
        {
          "internalType": "bool",
          "name": "_state",
          "type": "bool"
        }
      ],
      "name": "toggleMarkets",
      "outputs": [],
      "stateMutability": "nonpayable",
      "type": "function"
    },
    {
      "inputs": [
        {
          "internalType": "address",
          "name": "newOwner",
          "type": "address"
        }
      ],
      "name": "transferOwnership",
      "outputs": [],
      "stateMutability": "nonpayable",
      "type": "function"
    },
    {
      "inputs": [
        {
          "internalType": "uint96",
          "name": "_vaultAskOrderSize",
          "type": "uint96"
        },
        {
          "internalType": "uint96",
          "name": "_vaultBidOrderSize",
          "type": "uint96"
        },
        {
          "internalType": "uint256",
          "name": "_askPrice",
          "type": "uint256"
        },
        {
          "internalType": "uint256",
          "name": "_bidPrice",
          "type": "uint256"
        }
      ],
      "name": "updateVaultOrdSz",
      "outputs": [],
      "stateMutability": "nonpayable",
      "type": "function"
    },
    {
      "inputs": [
        {
          "internalType": "address",
          "name": "newImplementation",
          "type": "address"
        }
      ],
      "name": "upgradeTo",
      "outputs": [],
      "stateMutability": "nonpayable",
      "type": "function"
    },
    {
      "inputs": [
        {
          "internalType": "address",
          "name": "newImplementation",
          "type": "address"
        },
        {
          "internalType": "bytes",
          "name": "data",
          "type": "bytes"
        }
      ],
      "name": "upgradeToAndCall",
      "outputs": [],
      "stateMutability": "payable",
      "type": "function"
    },
    {
      "inputs": [],
      "name": "vaultAskOrderSize",
      "outputs": [
        {
          "internalType": "uint96",
          "name": "",
          "type": "uint96"
        }
      ],
      "stateMutability": "view",
      "type": "function"
    },
    {
      "inputs": [],
      "name": "vaultBestAsk",
      "outputs": [
        {
          "internalType": "uint256",
          "name": "",
          "type": "uint256"
        }
      ],
      "stateMutability": "view",
      "type": "function"
    }
  ],
  "bytecode": "0x60a08060405234620000df57306080525f549060ff8260081c166200008d575060ff8082160362000052575b604051615def9081620000e48239608051818181611c2301528181611d8101526122a60152f35b60ff90811916175f557f7f26b83ff96e1f2b6a682f133852f6798a09c465da95921460cefb3847402498602060405160ff8152a15f6200002b565b62461bcd60e51b815260206004820152602760248201527f496e697469616c697a61626c653a20636f6e747261637420697320696e697469604482015266616c697a696e6760c81b6064820152608490fd5b5f80fdfe610220806040526004361015610013575f80fd5b60e05f35811c91826302b90c6514613165575081630e2e2ffe146131105781631c0d9c221461308e57816320b3fa5c1461294a57816323afbff3146128b65781632aa9fbdc146124985781632bf1360e146124745781633659cfe61461228057816346fdfbb1146120a4578163474b848c146120875781634d78110314611fd05781634f1ef28614611d0457816351130ac614611cde57816352d1902d14611c095781635b16c9b614611bca578163715018a614611b6f5781637ef5e944146119ce57816388bb4f60146119685781638da5cb5b1461194257816390c9427c146118a5578163b4de8b701461186c578163badc92d11461184f578163bb62b3c5146113d4578163c384871714611077578163c879657214610fe5578163cae22ee61461084f57508063cc57aec6146103bd578063d2cd7d7f1461032c578063e55bb4e314610260578063e6d29b51146102075763f2fde38b14610174575f80fd5b346102035760203660031901126102035761018d6131e0565b61019561498a565b6001600160a01b038116156101af576101ad90614cf8565b005b60405162461bcd60e51b815260206004820152602660248201527f4f776e61626c653a206e6577206f776e657220697320746865207a65726f206160448201526564647265737360d01b6064820152608490fd5b5f80fd5b34610203576020366003190112610203576004355f5260d060205260405f205464ffffffffff61025c604051928284938260281c1691168390602090939293604083019464ffffffffff809216845216910152565b0390f35b34610203576080366003190112610203576102796132e4565b6102816132ce565b906001600160a01b0360c9541633036102ef576001600160601b039160cd54908360601b9060601b16908360601b19161760cd55166001600160601b031960ce54161760ce555f1960cc54146102e4575b60ca54156102dc57005b60643560ca55005b60443560cc556102d2565b60405162461bcd60e51b815260206004820152601560248201527413dc99195c909bdbdace8813db9b1e4815985d5b1d605a1b6044820152606490fd5b346102035761033a366132fa565b9093919260ff9360d89160d8549561035a60ff60289860281c1615613352565b610365888314613fe9565b5f5b82811061037057005b806103b7878a876103b2878f6103a18f996103a69261039b6103968f849060019f61339e565b6133c2565b9661339e565b6133d2565b938c54901c1615613352565b61393d565b01610367565b34610203576060366003190112610203576103d66131ce565b6103de6132ce565b906103e76131bf565b916103fa60ff60d85460281c1615613352565b62ffffff918281169161040e83151561383f565b60df54906001600160601b039061043b82808316946104308282168711613750565b60601c16841061379c565b610457866104508160de5460a01c16876137e8565b16156137fc565b955f915f94610464614ddb565b969096945f9160609b5b858116151580610843575b80610838575b156105385793926104e492909185878a8f8e15610505575050506104de926104d26104be95936104c56104b46104d8956155ed565b98905b809c6144a7565b80946136f2565b9e156104fe5782906136f2565b9a614ed2565b90614051565b9b61370d565b976104ed614ddb565b97909891999b92939796909761046e565b5f906136f2565b936104c56104be6105316104d896856104de9a979b996104d297165f5260d160205260405f2090615195565b99166104b7565b94928b8d8c969893868c961680610642575b50505061059361056161059a936104d88a8c614ed2565b916105856001600160a01b0360de5416938261057e60dc54613454565b9116613479565b9060d85460901c169061348c565b33916149e2565b61062f575b5082166105a857005b61062a7fde65ec26e567cef1936a693231b33b08ce40fca66ce0e78b38d938048c7a08919360d8549264ffffffffff936105e38582166138e5565b9485169064ffffffffff19161760d8556105fc82614a4a565b505f5260d060205261061c6106148460405f20614b44565b848684614bbb565b6040519384933390856138fb565b0390a1005b61063c908285161461388b565b8461059f565b61065860db549161065283613454565b90613479565b908861066c8160d85460301c16809461348c565b93169081610788575b5050506106eb5f926106c860209360d95480610747575b506001600160a01b03926106c38460e254169460dd54166106b5604051948592338b8501613607565b03601f198101845283613290565b61370d565b6040519485809481936337adb00f60e11b83528760048401526024830190613217565b03925af1801561073c5761059a93610593926105619261070d575b509361054a565b61072e9060203d602011610735575b6107268183613290565b8101906134aa565b508b610706565b503d61071c565b6040513d5f823e3d90fd5b6107778161077261076561075e61077f958761585a565b80966144c0565b9461065260da54846144c0565b61348c565b60e1546144dc565b60e1558e61068c565b916020916107f4935f6107b96001600160a01b03946107728660e25416956106528860c954169860dd541696613454565b604051633609c92960e11b81529687958694859391600485016001600160a01b03918216815291166020820152604081019190915260600190565b03925af192831561073c576106c86020936106eb935f9661081b575b509350819450610675565b61083190863d8811610735576107268183613290565b508e610810565b508b8816151561047f565b508a8c89161115610479565b6040366003190112610203576108636132e4565b9061086c6131b0565b9160d892835461088260ff8260281c1615613352565b60ce80549460ff60609660601c16946003861015610fd1576001958614938415610f1a57506108e16108d96108b860db54613454565b6108cc6001600160601b0391828616613479565b908b5460301c169061348c565b3410156134c2565b9591955b945f92815f916108f3614d41565b9290929a5f9b6060965b610c29575b505050505062ffffff809416938415801590610c20575b610a51575b50505050506001600160601b03809316918215155f14610a1a5761094290156135ac565b15610979576020936109719261096061096c9361065260db54613454565b915460301c169061348c565b6144e9565b604051908152f35b6020916109a56109e4956001600160a01b03926109608460e254169460dd54169561065260db54613454565b604051633af55cc760e11b81523360048201526001600160a01b03909316602484015260448301525f6064830181905291948592839182906084820190565b03925af191821561073c576020926109fd575b50610971565b610a1390833d8511610735576107268183613290565b50826109f7565b50915050602092501561097157610a4c5f8080806001600160a01b0360e2541634905af1610a46613519565b50613548565b610971565b610a77919293949850610a6a60dc54996106528b613454565b908a5460901c169061348c565b90610a9f670de0b6b3a76400009283610a98610a928c613454565b85613479565b04906144dc565b9781610b75575b505050610b026020915f9360d9548981610b39575b60e25460de5460408051338a82019081526001600160a01b039384166020820152918201949094525f60608201529116946106c894509192506106c39083906080016106b5565b03925af1801561073c57610b1a575b8080808061091e565b610b329060203d602011610735576107268183613290565b5085610b11565b81610772610b57610b50610b6b95610b649561585a565b809e6144c0565b9c61065260da54846144c0565b82546144dc565b9055898089610abb565b91602091610be094935f6001600160a01b0393610ba48560e25416946106528760c954169760de541695613454565b604051633609c92960e11b81526001600160a01b0396871660048201529390951660248401529093046044820152948592839182906064820190565b03925af190811561073c575f93602093610b0293610c03575b5093819350610aa6565b610c1990853d8711610735576107268183613290565b508a610bf9565b50811515610919565b91939a8d6001600160601b0397969294979182811680151580610f13575b80610f04575b15610ef757838f918b848a9284969580610ee8575b15610ebf5760ca9283549360cd908154908882851c169260cb95610c8a87549d8e16866144a7565b9a8b1611988915610eb657879c8d9a5b15610e0c575050505050505092610cdd91845f80516020615d9a83398151915295548b610cc9848284166136f2565b16906001600160601b0319161790556144a7565b92610d75610ceb8388615b17565b96610d23818a670de0b6b3a7640000610d1b6001600160a01b0360c954169862ffffff80945460901c1690613479565b0416946144a7565b604080515f8082526001600160a01b0390971660208201529081019590955262ffffff90931660608501526001600160601b0392831660808501523360a085015290911660c0830152819060e0820190565b0390a191955b829f5f14610dcd5750879593610db393610d9c610db99794610dad946144a7565b60ca54915460301c83169216615a03565b906144dc565b9561370d565b94610dc2614d41565b9094919391926108fd565b9084610e06948a9896610db9989c9f95610dea90610dff956144a7565b915460301c169162ffffff8095169116615a03565b1690614051565b9861370d565b90929497959950879193966001600160601b031980921690558254161790556107d3936107d0957e20b80b3f43ddbf5439c4f3dbb3d385d0b5ffbe8fe981784481578c761848988111860215870215610203575f80516020615d9a83398151915298610cdd978d976001600160601b0360601b930204901b16906001600160601b0360601b19161790556103eb610eaa610ea587613462565b6144cd565b0490558360cc556144a7565b8a9c8d9a610c9a565b50915050610edf915062ffffff88165f5260d060205260405f208861553d565b92169195610d7b565b508460cd54841c161515610c62565b509c505081959650610902565b5062ffffff8087161415610c4d565b5087610c47565b6020610f9a916001600160a01b03610f608160dd54169160e2541692610f4160db54613454565b610f556001600160601b0391828a16613479565b9160301c169061348c565b6040516323b872dd60e01b81523360048201526001600160a01b0390931660248401526044830152909283919082905f9082906064820190565b03925af1801561073c57610fb2575b509591956108e5565b610fca9060203d602011610735576107268183613290565b5088610fa9565b634e487b7160e01b5f52602160045260245ffd5b34610203575f366003190112610203576001600160a01b039060208260e254169260848160dd54165f60e1549360de541696865460405198899687956324facdb160e11b875260048701526024860152604485015260648401525af191821561073c575f92611058575b5060e182905555005b6110709060203d602011610735576107268183613290565b508261104f565b34610203576101e0366003190112610203576110916131e0565b6024356003811015610203576044356001600160a01b0391828216809203610203576084358381168091036102035760c4358481168091036102035760e4356001600160601b0391828216820361020357610104359362ffffff808616860361020357610124359081168103610203576101443593858516809503610203576101643595861686036102035761018435966101a435986101c4359b8c16809c03610203575f5460ff8160081c16159d8e809f6113c7575b80156113b0575b156113545760ff1982166001175f55611190918f611343575b5061118260ff5f5460081c1661117d81614e72565b614e72565b61118b33614cf8565b614cf8565b611f408981029081048a0361132f5761271090048a116112ce5760ce549060ff60601b9060601b169060ff60601b19161760ce556001600160601b0360a01b998a60dd54161760dd5560de549460643560db5560a43560dc558a60e254161760e25571ffffffffffffffffffffffff00000000000060d8549162ffffff60901b9060901b169260301b169074ffffffffffffffffffffffffffffff0000000000001916171760d85562ffffff60a01b9060a01b169168ffffffffffffffffff60b81b16171760de5560df54916001600160601b0360601b9060601b169167ffffffffffffffff60c01b16171760df5560d95560da5560c954161760c9555f1960cc5561129857005b61ff00195f54165f557f7f26b83ff96e1f2b6a682f133852f6798a09c465da95921460cefb3847402498602060405160018152a1005b60405162461bcd60e51b815260206004820152603360248201527f4f72646572426f6f6b3a204d616b6572206665652073686f756c64206265206c6044820152726f776572207468616e2074616b65722066656560681b6064820152608490fd5b634e487b7160e01b5f52601160045260245ffd5b61ffff1916610101175f558f611168565b60405162461bcd60e51b815260206004820152602e60248201527f496e697469616c697a61626c653a20636f6e747261637420697320616c72656160448201526d191e481a5b9a5d1a585b1a5e995960921b6064820152608490fd5b50303b15801561114f5750600160ff83161461114f565b50600160ff831610611148565b34610203576113e2366132fa565b916113f860ff60d89593955460281c1615613352565b611403848314613fe9565b5f905b82821061140f57005b94919361142061039683878661339e565b9361142f6103a184848a61339e565b9261144260ff60d85460281c1615613352565b61145262ffffff8716151561383f565b6114836001600160601b0360df5461146f82821683891611613750565b60601c166001600160601b0386161061379c565b61149b62ffffff6104508160de5460a01c16896137e8565b5f9684886114a7614ddb565b939093915f9060609c5b6001600160601b03861615158061183b575b8061182d575b156115705761151b9291908686891561153357506115159261150f6104be95936115026114f86104d8956155ed565b98905b809d6144a7565b9b156104fe5782906136f2565b97614ed2565b9c61370d565b9b611524614ddb565b9890959098939d9c919d6114b1565b9261150f6001600160601b0395936115026104be6115696104d89662ffffff6115159a165f5260d16020528d60405f2090615195565b99166114fb565b919350879b9697989a999495506001600160601b03909d9c929d168061169e575b505050946115e46115a86001976104d88688614ed2565b6115c76001600160a01b0360de54169162ffffff61057e60dc54613454565b906115de339262ffffff60d85460901c169061348c565b906149e2565b611681575b506001600160601b038116611605575b50500190949193611406565b7fde65ec26e567cef1936a693231b33b08ce40fca66ce0e78b38d938048c7a08919161167760d8549164ffffffffff926116408482166138e5565b9384169064ffffffffff19161760d85561165981614a4a565b5062ffffff81165f5260d060205261061c6106148460405f20614b44565b0390a187806115f9565b611698906001600160601b0380841691161461388b565b896115e9565b909197506116b260db549161065283613454565b906001600160601b036116cd8160d85460301c16809461348c565b931690816117b8575b5050506117385f9761171560209360d9548061177b57506001600160a01b03926106c38460e254169460dd54166106b5604051948592338b8501613607565b604051998a809481936337adb00f60e11b83528760048401526024830190613217565b03925af195861561073c576115a88a926115e49260019961175c575b509297611591565b6117749060203d602011610735576107268183613290565b508e611754565b8061077261179661178f6117a3948661585a565b80956144c0565b9361065260da54846144c0565b6117b060e19182546144dc565b90555f61068c565b916020916117e9935f6107b96001600160a01b03946107728660e25416956106528860c954169860dd541696613454565b03925af197881561073c57611715602093611738935f9b611810575b5093508199506116d6565b61182690863d8811610735576107268183613290565b505f611805565b5062ffffff851615156114c9565b5062ffffff8d1662ffffff861611156114c3565b34610203575f36600319011261020357602060d254604051908152f35b34610203575f366003190112610203576040611886614d41565b9050611890614ddb565b835162ffffff93841681529216602083015250f35b34610203575f366003190112610203576101609060d8549062ffffff6001600160601b036001600160a01b038060dd54169360db549360de5460dc5460df549460d9549760da5499886040519c8d888260901c16905260301c1660208d015260408c015260608b0152821660808a015260a089015260a01c1660c08701528282169086015260601c16610100840152610120830152610140820152f35b34610203575f3660031901126102035760206001600160a01b0360335416604051908152f35b34610203575f366003190112610203576001600160a01b0360c9541660ca546001600160601b038060cb541660cc5460cd54918360ce541694604051968752602087015260408601526060850152818116608085015260601c1660a083015260c0820152f35b3461020357602080600319360112610203576119e86131e0565b60405143838201528281526119fc81613274565b91611a0561456e565b6001600160a01b03809316935b62ffffff8083169081141580611b66575b15611aa6575f5260d0835264ffffffffff94858060405f2054165b168015611a9357805f5260cf90818652828760405f20541614611a73575b5f5284528580600160405f20015460281c16611a3e565b92611a8d906040519085888301528782526106c382613274565b92611a5c565b50945090611aa090614690565b90611a12565b509050611ab1614791565b905b62ffffff8083169081141580611b5d575b15611b47575f5260d1835264ffffffffff94858060405f2054165b168015611b3457805f5260cf90818652828760405f20541614611b14575b5f5284528580600160405f20015460281c16611adf565b92611b2e906040519085888301528782526106c382613274565b92611afd565b50945090611b419061489e565b90611ab3565b508261025c604051928284938452830190613217565b50801515611ac4565b50801515611a23565b34610203575f36600319011261020357611b8761498a565b5f6001600160a01b036033546001600160601b0360a01b8116603355167f8be0079c531659141344cd1fd0a4f28419497f9722a3daafe3b4186f6b6457e08280a3005b34610203576060366003190112610203576101ad611be66131ce565b611bee6132ce565b611bf66131bf565b916103b260ff60d85460281c1615613352565b34610203575f366003190112610203576001600160a01b037f0000000000000000000000000000000000000000000000000000000000000000163003611c735760206040517f360894a13ba1a3210667c828492db98dca3e2076cc3735a920a3ca505d382bbc8152f35b60405162461bcd60e51b815260206004820152603860248201527f555550535570677261646561626c653a206d757374206e6f742062652063616c60448201527f6c6564207468726f7567682064656c656761746563616c6c00000000000000006064820152608490fd5b34610203575f3660031901126102035760206001600160601b0360ce5416604051908152f35b604036600319011261020357611d186131e0565b6024359067ffffffffffffffff82116102035736602383011215610203578160040135611d44816132b2565b92611d526040519485613290565b81845260209182850191366024838301011161020357815f9260248693018537860101526001600160a01b03807f00000000000000000000000000000000000000000000000000000000000000001690611dae82301415613630565b611ddd7f360894a13ba1a3210667c828492db98dca3e2076cc3735a920a3ca505d382bbc928284541614613691565b611de561498a565b7f4910fdfa16fed3260ed0e7147f7cc6da11a60208b5b9406d12a635614ffd91435460ff1615611e1d57505050506101ad915061587c565b84939416906040516352d1902d60e01b81528581600481865afa5f9181611fa1575b50611ea05760405162461bcd60e51b815260048101879052602e60248201527f45524331393637557067726164653a206e657720696d706c656d656e7461746960448201526d6f6e206973206e6f74205555505360901b6064820152608490fd5b03611f4a57611eae8361587c565b7fbc7cd75a20ee27fd9adebab32041f755214dbc6bffa90cc0225b39da2e5c2d3b5f80a2835115801590611f42575b611ee357005b5f80916101ad957f416464726573733a206c6f772d6c6576656c2064656c65676174652063616c6c60405196611f1888613258565b60278852870152660819985a5b195960ca1b60408701525190845af4611f3c613519565b91615cfc565b506001611edd565b60405162461bcd60e51b815260048101859052602960248201527f45524331393637557067726164653a20756e737570706f727465642070726f786044820152681a58589b195555525160ba1b6064820152608490fd5b9091508681813d8311611fc9575b611fb98183613290565b8101031261020357519088611e3f565b503d611faf565b346102035760203660031901126102035760043580151580910361020357611ff661498a565b60d8549060ff8260281c16151581146120275765ff00000000009060281b169065ff000000000019161760d8555f80f35b60405162461bcd60e51b815260206004820152603260248201527f4f72646572426f6f6b3a204d61726b6574732061726520616c726561647920696044820152716e207265717565737465642073746174652160701b6064820152608490fd5b34610203575f36600319011261020357602060cc54604051908152f35b34610203575f3660031901126102035760405160209043828201528181526120cb81613274565b906120d461456e565b905b62ffffff8083169081141580612277575b15612186575f5260d0815264ffffffffff928360405f20541692845f945b1693841561213f57845f5261212760cf9182865260405f205460a01c906136f2565b945f5283528480600160405f20015460281c16612105565b6040805162ffffff84168187019081526001600160601b0390931660208401529296509394506121809361217a93916106c3918491016106b5565b92614690565b906120d6565b506121a083604051905f848301528382526106c382613274565b906121a9614791565b905b62ffffff808316908114158061226e575b1561225b575f5260d1815264ffffffffff928360405f20541692845f945b1693841561221457845f526121fc60cf9182865260405f205460a01c906136f2565b945f5283528480600160405f20015460281c166121da565b6040805162ffffff84168187019081526001600160601b0390931660208401529296509394506122559361224f93916106c3918491016106b5565b9261489e565b906121ab565b6040518281528061025c81850187613217565b508015156121bc565b508015156120e7565b34610203576020806003193601126102035761229a6131e0565b6001600160a01b0391827f000000000000000000000000000000000000000000000000000000000000000016926122d384301415613630565b6123027f360894a13ba1a3210667c828492db98dca3e2076cc3735a920a3ca505d382bbc948286541614613691565b61230a61498a565b604051938285019185831067ffffffffffffffff84111761246057826040525f865260ff7f4910fdfa16fed3260ed0e7147f7cc6da11a60208b5b9406d12a635614ffd914354165f1461236557505050506101ad915061587c565b84939416906040516352d1902d60e01b81528581600481865afa5f9181612431575b506123e85760405162461bcd60e51b815260048101879052602e60248201527f45524331393637557067726164653a206e657720696d706c656d656e7461746960448201526d6f6e206973206e6f74205555505360901b6064820152608490fd5b03611f4a576123f68361587c565b7fbc7cd75a20ee27fd9adebab32041f755214dbc6bffa90cc0225b39da2e5c2d3b5f80a283511580159061242a57611ee357005b505f611edd565b9091508681813d8311612459575b6124498183613290565b8101031261020357519088612387565b503d61243f565b634e487b7160e01b5f52604160045260245ffd5b34610203575f36600319011261020357602064ffffffffff60d85416604051908152f35b6040366003190112610203576124ac6131ce565b6124b46131b0565b9060d88054916124ca60ff8460281c1615613352565b60ff60ce5460601c166003811015610fd15760021492831561284057506125156108d96124f860dc54613454565b61250862ffffff91828616613479565b90855460901c169061348c565b5f925f91612521614ddb565b939093915f946060975b62ffffff938484169384151580612835575b8061282a575b1561262757506125d6866125d06125e2956125ca8998966125be8f976125829861258d9e9d6001600160601b039a8b92549c8360309e8f1c1690614068565b98169e8f8099614086565b809e8199885f146125ff5750506125c491506125a8906155ed565b929098898094985b156125f6576125be916144a7565b906136f2565b9c6144a7565b9d61370d565b97614068565b918954901c1690614086565b16916125ec614ddb565b919791939161252b565b50505f906136f2565b9161261b916125c49495935f5260d160205260405f2090615195565b931698898094986125b0565b8b888a938c958e6001600160601b03809216806126b3575b5062ffffff9586169492505083159050610a1a5761265d90156135ac565b15612687576020936109719261267b61096c9361065260dc54613454565b915460901c169061348c565b6020916109a56109e4956001600160a01b039261267b8460e254169460de54169561065260dc54613454565b90919296506126c860db549161065283613454565b966126da848a5460301c16809961348c565b976001600160a01b03928360dd541695869316806127d1575b5050505060d95480612781575b505f926106c8886020946106c361274b9560e25416946106b5604051948592338b85015f92949360609260808301966001600160a01b03809216845216602083015260408201520152565b03925af1801561073c57612762575b80808061263f565b61277a9060203d602011610735576107268183613290565b508561275a565b969261278d888561585a565b9384612798916144c0565b97889460da546127a890836144c0565b6127b191613479565b906127bb9161348c565b60e154906127c8916144dc565b60e15592612700565b6127f3935f6107b96020956107728960e25416956106528b60c9541698613454565b03925af1801561073c5761280b575b808085926126f3565b6128239060203d602011610735576107268183613290565b5088612802565b508587161515612543565b50858088161061253d565b6020612882916001600160a01b03610f608160de54169160e254169261286760dc54613454565b61287762ffffff91828a16613479565b9160901c169061348c565b03925af1801561073c57612897575b50612515565b6128af9060203d602011610735576107268183613290565b5084612891565b346102035760203660031901126102035760043567ffffffffffffffff8111610203576128e790369060040161317f565b905f5b82811061292557507f386974f41b61738b510019ccd5a3524a43eccf0d136929e09d524e87aeeca2c49161062a6040519283923391846133f8565b8061294361293e612939600194878761339e565b6133e6565b61409e565b50016128ea565b346102035760c03660031901126102035767ffffffffffffffff6004358181116102035761297c90369060040161317f565b610180526024358281116102035761299890369060040161317f565b9290604435828111610203576129b290369060040161317f565b606492919235848111610203576129cd90369060040161317f565b929094608435908111610203576129e890369060040161317f565b97909660a435151560a4350361020357612a0a60ff60d85460281c1615613352565b81610180510361302357848403612fb85797969594939291905f610140525b610180516101405110612b07575b5050909192939495505f5b818110612aa7575b50505050505f5b828110612a8c57507f386974f41b61738b510019ccd5a3524a43eccf0d136929e09d524e87aeeca2c49161062a6040519283923391846133f8565b80612aa061293e612939600194878761339e565b5001612a51565b62ffffff612ab961039683858861339e565b1615612b025780612afc612ad3610396600194868961339e565b612ae16103a184888b61339e565b612af360ff60d85460281c1615613352565b60a4359161393d565b01612a42565b612a4a565b62ffffff612b1f61039661014051610180518d61339e565b1615612fb3579091929394959697612b4161039661014051610180518461339e565b61020052612b566103a161014051848661339e565b6101e052612b6c60ff60d85460281c1615613352565b612b7f62ffffff6102005116151561383f565b612bb66001600160601b0360df54612b9f828216836101e0511611613750565b60601c166001600160601b036101e051161061379c565b612bd162ffffff6104508160de5460a01c16610200516137e8565b6101e05160e0525f610160525f612be6614ddb565b6101c0919091526101a0525f60a05260606080525b6001600160601b0360e05116151580612f99575b80612f88575b15612d115790612ca6612c9e612c94612c809c9b9a99989796959460e051610120525f610100525f60c0526101c0515f14612cd857612c5560e0516155ed565b906101005260c0525b6101005160e052612c7561010051610120516144a7565b9d8e610160516136f2565b610160526101c051156104fe578d906136f2565b9b6101a051614ed2565b60a051614051565b60a052612cb760c05160805161370d565b608052612cc2614ddb565b6101a0526101c052909192939495969798612bfb565b62ffffff6101a051165f5260d16020526001600160601b03612d0360e05160405f206101a051615195565b91166101005260c052612c5e565b6001600160601b03610160511680612e35575b5050612d3b6115a8612c9e60e05161020051614ed2565b60a435612e0e575b6001600160601b0360e05116612d6c575b60016101405101610140529796959493929190612a29565b7fde65ec26e567cef1936a693231b33b08ce40fca66ce0e78b38d938048c7a0891612e0660d85464ffffffffff90612da58282166138e5565b9182169064ffffffffff19161760d855612dc161020051614a4a565b5062ffffff61020051165f5260d0602052612def612de28260405f20614b44565b8260e05161020051614bbb565b604051918291610200519060e051903390856138fb565b0390a1612d54565b612e306001600160601b0360e051166001600160601b036101e051161461388b565b612d43565b612e4560db549161065283613454565b906001600160601b03612e608160d85460301c16809461348c565b93169081612f1b575b5050506020612ebe5f9260d95480612ef2575b506106c86001600160a01b0391612eb68360e254169360dd5416612ea8604051938492338a8501613607565b03601f198101835282613290565b60805161370d565b03925af1801561073c57612ed3575b80612d24565b612eeb9060203d602011610735576107268183613290565b5089612ecd565b8061077261179661178f612f06948661585a565b612f1360e19182546144dc565b90558d612e7c565b91602091612f4c935f6107b96001600160a01b03946107728660e25416956106528860c954169860dd541696613454565b03925af1801561073c575f92602092612ebe92612f6b575b5092612e69565b612f8190843d8611610735576107268183613290565b508d612f64565b5062ffffff6101a051161515612c15565b5062ffffff610200511662ffffff6101a051161115612c0f565b612a37565b60405162461bcd60e51b815260206004820152603860248201527f4f72646572426f6f6b3a2053656c6c2070726963657320616e642073697a657360448201527f206172726179206c656e677468206d757374206d6174636800000000000000006064820152608490fd5b60405162461bcd60e51b815260206004820152603760248201527f4f72646572426f6f6b3a204275792070726963657320616e642073697a65732060448201527f6172726179206c656e677468206d757374206d617463680000000000000000006064820152608490fd5b346102035760203660031901126102035760043564ffffffffff8082168092036102035760c0915f5260cf60205260ff60405f20916001835493015490604051936001600160a01b038116855260a01c602085015280821660408501528160281c16606084015262ffffff8160501c16608084015260681c16151560a0820152f35b34610203576020366003190112610203576004355f5260d160205260405f205464ffffffffff61025c604051928284938260281c1691168390602090939293604083019464ffffffffff809216845216910152565b34610203575f3660031901126102035760209060d5548152f35b9181601f840112156102035782359167ffffffffffffffff8311610203576020808501948460051b01011161020357565b60243590811515820361020357565b60443590811515820361020357565b6004359062ffffff8216820361020357565b600435906001600160a01b038216820361020357565b5f5b8381106132075750505f910152565b81810151838201526020016131f8565b90602091613230815180928185528580860191016131f6565b601f01601f1916010190565b60c0810190811067ffffffffffffffff82111761246057604052565b6060810190811067ffffffffffffffff82111761246057604052565b6040810190811067ffffffffffffffff82111761246057604052565b90601f8019910116810190811067ffffffffffffffff82111761246057604052565b67ffffffffffffffff811161246057601f01601f191660200190565b602435906001600160601b038216820361020357565b600435906001600160601b038216820361020357565b60606003198201126102035767ffffffffffffffff9160043583811161020357826133279160040161317f565b93909392602435918211610203576133419160040161317f565b909160443580151581036102035790565b1561335957565b60405162461bcd60e51b815260206004820152601b60248201527f4f72646572426f6f6b3a206d61726b65742069732070617573656400000000006044820152606490fd5b91908110156133ae5760051b0190565b634e487b7160e01b5f52603260045260245ffd5b3562ffffff811681036102035790565b356001600160601b03811681036102035790565b3564ffffffffff811681036102035790565b91939293806040840160408552526060830191905f905b80821061342b575050506001600160a01b036020919416910152565b90919283359064ffffffffff82168092036102035760019181526020809101940192019061340f565b604d811161132f57600a0a90565b906103e89182810292818404149015171561132f57565b8181029291811591840414171561132f57565b8115613496570490565b634e487b7160e01b5f52601260045260245ffd5b90816020910312610203575180151581036102035790565b156134c957565b60405162461bcd60e51b815260206004820152602260248201527f4f72646572426f6f6b3a204e6174697665206173736574206e6f7420656e6f756044820152610ced60f31b6064820152608490fd5b3d15613543573d9061352a826132b2565b916135386040519384613290565b82523d5f602084013e565b606090565b1561354f57565b60405162461bcd60e51b815260206004820152602f60248201527f4f72646572426f6f6b3a204d617267696e4163636f756e74206e61746976652060448201526e1d1c985b9cd9995c8819985a5b1959608a1b6064820152608490fd5b156135b357565b60405162461bcd60e51b815260206004820152602660248201527f4f72646572426f6f6b3a20696e73756666696369656e7420766f6c756d65206f6044820152656e20626f6f6b60d01b6064820152608490fd5b600192949360609260808301966001600160a01b03809216845216602083015260408201520152565b1561363757565b60405162461bcd60e51b815260206004820152602c60248201527f46756e6374696f6e206d7573742062652063616c6c6564207468726f7567682060448201526b19195b1959d85d1958d85b1b60a21b6064820152608490fd5b1561369857565b60405162461bcd60e51b815260206004820152602c60248201527f46756e6374696f6e206d7573742062652063616c6c6564207468726f7567682060448201526b6163746976652070726f787960a01b6064820152608490fd5b9190916001600160601b038080941691160191821161132f57565b602061374e91939293604051948161372e87935180928680870191016131f6565b8201613742825180938680850191016131f6565b01038085520183613290565b565b1561375757565b60405162461bcd60e51b815260206004820152601760248201527f4f72646572426f6f6b3a2053697a6520746f6f206c6f770000000000000000006044820152606490fd5b156137a357565b60405162461bcd60e51b815260206004820152601960248201527f4f72646572426f6f6b3a2053697a6520746f6f206c61726765000000000000006044820152606490fd5b9062ffffff80911691821561349657160690565b1561380357565b60405162461bcd60e51b81526020600482015260146024820152734f72646572426f6f6b3a205469636b2053697a6560601b6044820152606490fd5b1561384657565b60405162461bcd60e51b815260206004820152601860248201527f4f72646572426f6f6b3a20507269636520746f6f206c6f7700000000000000006044820152606490fd5b1561389257565b60405162461bcd60e51b815260206004820152602560248201527f4f72646572426f6f6b3a20506f7374206f6e6c792063726f737365642074686560448201526420626f6f6b60d81b6064820152608490fd5b90600164ffffffffff8093160191821161132f57565b90949362ffffff906001600160601b036001956001600160a01b0360809664ffffffffff60a088019b1687521660208601521660408401521660608201520152565b9260df54916001600160601b039081811661395b8386168211613750565b61396c83606096871c16821061379c565b62ffffff92613986846104508160de5460a01c168b6137e8565b8388169461399586151561383f565b6001600160a01b03956139b28760dd54169461065260db54613454565b946139cd60d8956105938754988760309a60301c169061348c565b955f915f996139da614d41565b9590955f9c839b5b8981169081151580613fdd575b80613fd1575b15613c2157908a8f928d81938d80613c12575b15613bed5760ca8c8b82549660cd938454928284821c1660cb94855497613a31868a16846144a7565b99868b1611988915613be6578c995b15613b2357505050505050928092670de0b6b3a7640000610d1b613a84845f80516020615d9a8339815191529b87613aa19a610d23995490610cc9848284166136f2565b9a83613a908287615b17565b9e60c954169a5460901c1690613479565b0390a191935b829a5f14613aec575091610dad8d8d8d80613ac96104de97613ad99a996144a7565b9360ca549354901c169216615a03565b9d613ae2614d41565b919f9b90976139e2565b610dff613ad995949f9a92918f8f908f90818e9691613b0f613b1d9a89946144a7565b9454901c1693169116615a03565b9661370d565b919396909295506001600160601b03989794981980921690558460ce918254161790556107d3916107d0947e20b80b3f43ddbf5439c4f3dbb3d385d0b5ffbe8fe981784481578c761848988111840215860215610203575f80516020615d9a8339815191529b613aa1996103eb8f610ea5613bda91610d1b98613a84988f9d98610d239f8f9a670de0b6b3a76400009e6001600160601b0360601b930204901b16906001600160601b0360601b1916179055613462565b0490558d60cc556144a7565b8a99613a40565b5050613c099193508986165f5260d060205260405f208661553d565b92169193613aa7565b508360cd548b1c161515613a08565b98505090508b98995084919e9d94889b949d969c92939c16928315801590613fc8575b613e11575b5050505050613e01575b5016928315613df85784908354938764ffffffffff808716613c74906138e5565b958187169b8c948564ffffffffff19809b16179055613c9290614ac8565b50825f5260d160205260409782888a5f2090613cad91614b44565b968a5190613cba8261323c565b33825260208083018e81529984168d84018181525f9c85018d8152608086019a8b5260a08087018f81529c8f5260cf9094529c8f902094519b516001600160a01b039c9098169b909b1692909616901b73ffffffffffffffffffffffffffffffffffffffff1916178155929792600101965116908654161785555116613d5d90849064ffffffffff60281b82549160281b169064ffffffffff60281b1916179055565b519082549060ff60681b9051151560681b169160501b62ffffff60501b169063ffffffff60501b1916171790555f52815f2060010190613db9919064ffffffffff60281b82549160281b169064ffffffffff60281b1916179055565b8051948552336020860152840152820152608081015f905260a07fde65ec26e567cef1936a693231b33b08ce40fca66ce0e78b38d938048c7a089191a1565b50505050505050565b613e0b901561388b565b5f613c53565b90929550613e2c91939750610a6a60dc549661065288613454565b93613e4d670de0b6b3a76400009586610a98613e4785613454565b86613479565b9482613f26575b505050506020613eb05f9560d95480613eea575b50613e8d858960e25416926106c38b60de54166106b5604051948592338b8501613607565b6040519788809481936337adb00f60e11b83528760048401526024830190613217565b03925af193841561073c578794613ecb575b80868180613c49565b613ee39060203d602011610735576107268183613290565b505f613ec2565b613f1581610772613f08613f01613f1d958b61585a565b809a6144c0565b9861065260da54846144c0565b60e0546144dc565b60e0555f613e68565b9183915f602094613f4c613f889760e25416946106528760c954169760de541695613454565b604051633609c92960e11b81526001600160a01b0396871660048201529390951660248401529093046044820152938492839182906064820190565b03925af1801561073c575f95602092613eb092613fab575b819750889350613e54565b613fc190843d8611610735576107268183613290565b505f613fa0565b50811515613c44565b508780851614156139f5565b508688851610156139ef565b15613ff057565b60405162461bcd60e51b815260206004820152603360248201527f4f72646572426f6f6b3a2050726963657320616e642073697a657320617272616044820152720f240d8cadccee8d040daeae6e840dac2e8c6d606b1b6064820152608490fd5b91909162ffffff8080941691160191821161132f57565b9190916001600160601b038080941691160291821691820361132f57565b906001600160601b0380911691821561349657160490565b9060ff64ffffffffff80931692835f5260209060cf82526040805f2081516140c58161323c565b815460016001600160a01b039384831684528784019260a01c8352015490858216918584019683885260608501818360281c16815262ffffff92838160501c1690608088019682885260a089019d8e9260681c16151580925215155f14614471575050818951165f5260cf8a526141488d8360018b5f20015460281c1614614f68565b8a511561445157828551165f5260d08a5261416a8d838a5f2054161115614fbf565b8686511633036143f857899a9b9c828a9b999a5116806143bb575b508282511680614396575b508c51156142b4579183916141d86142459c5f9795848e60d08f6142289b8e51168d52528a20541614614298575b848951168852838d89209151169384935116938491615041565b14614286575b6128778161421c61420d8a8060e254169a51169a60de541698836001600160601b038098511691511690614068565b60d854958660301c1690614086565b1661065260dc54613454565b8651633af55cc760e11b8152978895869485939160048501613607565b03925af190811561427d575061425f575b50505b51151590565b8161427592903d10610735576107268183613290565b505f80614256565b513d5f823e3d90fd5b61429281865116615115565b506141de565b8489511688526142ae8d8920858551169061500b565b506141be565b6143319a6142ee918588979851165f5260d18b52848c5f2054161461437a575b848651165f52838b5f209151169384935116938491615041565b14614367575b50505f614228848060e254169451169460dd5416926143236001600160601b038092511661065260db54613454565b9060d85460301c169061348c565b03925af190811561427d5750614349575b5050614259565b8161435f92903d10610735576107268183613290565b505f80614342565b614372915116615095565b505f806142f4565b848651165f526143908b5f20858551169061500b565b506142d4565b838c5116905f5260cf8a5260018b5f20019064ffffffffff198254161790555f614190565b6143f29084845116905f5260cf8b5260018c5f20019064ffffffffff60281b82549160281b169064ffffffffff60281b1916179055565b5f614185565b875162461bcd60e51b8152600481018b9052602c60248201527f4f72646572426f6f6b3a204f6e6c79206f72646572206f776e65722063616e2060448201526b31b0b731b2b61037b93232b960a11b6064820152608490fd5b828551165f5260d18a5261446c8d838a5f2054161115614fbf565b61416a565b156144915750828551165f5260d08a5261446c8d838a5f20541614614f68565b5f5260d18a5261446c8d838a5f20541614614f68565b6001600160601b03918216908216039190821161132f57565b9190820391821161132f57565b906101f5820180921161132f57565b9190820180921161132f57565b5f80808093614516828080806001600160a01b0360e2541661450b87346144c0565b905af1610a46613519565b335af1614521613519565b501561452957565b60405162461bcd60e51b815260206004820152601860248201527f4f72646572426f6f6b3a20526566756e64206661696c656400000000000000006044820152606490fd5b5f805260d46020527f834b227d13c404d05a4f2bec4fa9e463622e40f7854878f14ed9365914194b0c54600190811c818161467d5750505f19905b5f199160018101614672575060d360205260405f2054811c8181614660575050815b828103614642575060d254811c908161462f575050805b81036145ed57505f90565b805f5260d360205260ff61460460405f2054615944565b169060081b17805f5260d460205262ffffff60ff61462560405f2054615944565b169160081b161790565b61463a60ff92615944565b0116906145e2565b915050805f5260d460205262ffffff60ff61462560405f2054615944565b61466b60ff92615944565b01166145cb565b62ffffff1692915050565b61468860ff92615944565b0116906145a9565b8060081c60ff8281809416828103614751575b5060101c1690828116838103614710575b50508181036146c4575b50505f90565b6146d09060d25461591c565b60018101156146be578062ffffff915f5260d3602052826146f460405f2054615944565b169060081b1791825f5260d460205261462560405f2054615944565b61472690835f5260d360205260405f205461591c565b9060018201156146b45762ffffff925061ff00161791825f5260d460205261462560405f2054615944565b61476d91925061ffff84165f5260d460205260405f205461591c565b6001810161477d579083916146a3565b62ffffff91935062ffff0092501691161790565b5f805260d76020527f8c93e91f2d3cdfe48d7e628f6e539bf3196799b8a9f7303c20a1106ca52f335a54600190811c818161488b5750505f19905b5f199160018101614672575060d660205260405f2054811c8181614879575050815b82810361485b575060d554811c9081614848575050805b810361481057505f90565b805f5260d660205260ff61482760405f2054615944565b169060081b17805f5260d760205262ffffff60ff61462560405f2054615944565b61485360ff92615944565b011690614805565b915050805f5260d760205262ffffff60ff61462560405f2054615944565b61488460ff92615944565b01166147ee565b61489660ff92615944565b0116906147cc565b8060081c60ff828180941682810361495e575b5060101c169082811683810361491d575b50508181036148d15750505f90565b6148dd9060d55461591c565b60018101156146be578062ffffff915f5260d66020528261490160405f2054615944565b169060081b1791825f5260d760205261462560405f2054615944565b61493390835f5260d660205260405f205461591c565b9060018201156148c25762ffffff925061ff00161791825f5260d760205261462560405f2054615944565b61497a91925061ffff84165f5260d760205260405f205461591c565b6001810161477d579083916148b1565b6001600160a01b0360335416330361499e57565b606460405162461bcd60e51b815260206004820152602060248201527f4f776e61626c653a2063616c6c6572206973206e6f7420746865206f776e65726044820152fd5b60e254604051633609c92960e11b81526001600160a01b0394851660048201529184166024830152604482019290925291602091839160649183915f91165af1801561073c57614a2f5750565b614a479060203d602011610735576107268183613290565b50565b8060081c9061ffff82165f5260d460205260405f20805490600160ff84161b821790818303614a7c5750505050505f90565b5515614a8a575b5050600190565b60ff9060101c1690815f5260d360205260405f20600160ff825493161b8217905515614ab7575b80614a83565b6001901b60d2541760d2555f614ab1565b8060081c9061ffff82165f5260d760205260405f20805490600160ff84161b821790818303614afa5750505050505f90565b5515614b07575050600190565b60ff9060101c1690815f5260d660205260405f20600160ff825493161b8217905515614b335780614a83565b6001901b60d5541760d5555f614ab1565b9064ffffffffff9081835460281c169283155f14614b9457614b9192821664ffffffffff198254161781559064ffffffffff60281b82549160281b169064ffffffffff60281b1916179055565b90565b614b9192509064ffffffffff60281b82549160281b169064ffffffffff60281b1916179055565b928261374e94614ca0614c6a60405194614bd48661323c565b33865260208601906001600160601b0380981682526001604088019764ffffffffff94858094169a8b8b5260608301955f875262ffffff608085019a168a528560a085019b868d52165f5260cf6020526001600160a01b0360405f209451166001600160601b0360a01b855416178455511682906001600160a01b038254916001600160601b0360a01b9060a01b169116179055565b0196511664ffffffffff198754161786555116849064ffffffffff60281b82549160281b169064ffffffffff60281b1916179055565b519062ffffff60501b83549160ff60681b9051151560681b169260501b169063ffffffff60501b1916171790555f52600160405f20019064ffffffffff60281b82549160281b169064ffffffffff60281b1916179055565b603354906001600160a01b0380911691826001600160601b0360a01b821617603355167f8be0079c531659141344cd1fd0a4f28419497f9722a3daafe3b4186f6b6457e05f80a3565b614d49615a18565b60ca549091908015614dd357670de0b6b3a7640000614d7462ffffff928360d85460901c1690613479565b0416915b62ffffff90818116828103614d9e57505082811615614d98575060019190565b5f925090565b9093918083169182614db357505050505f9190565b92949282811115614dcc575b1603614d98575060019190565b5081614dbf565b505f91614d78565b614de3614791565b9060cc545f1981145f14614e4b575062ffffff915b62ffffff9081811680614e1c57505082811614614e155760019190565b5f91508190565b90939180831691818303614e3357505050505f9190565b92949282811015614dcc571603614d98575060019190565b670de0b6b3a7640000614e6a62ffffff928360d85460901c1690613479565b041691614df8565b15614e7957565b60405162461bcd60e51b815260206004820152602b60248201527f496e697469616c697a61626c653a20636f6e7472616374206973206e6f74206960448201526a6e697469616c697a696e6760a81b6064820152608490fd5b906001600160601b03908160d85460301c169162ffffff809416911690815f19048111820215830215610203570290808204910615150181811015614f15571690565b60405162461bcd60e51b815260206004820152602560248201527f4f72646572426f6f6b3a20546f6f206d7563682073697a65206265696e6720666044820152641a5b1b195960da1b6064820152608490fd5b15614f6f57565b60405162461bcd60e51b815260206004820152602260248201527f4f72646572426f6f6b3a204f7264657220616c72656164792063616e63656c6c604482015261195960f21b6064820152608490fd5b15614fc657565b60405162461bcd60e51b815260206004820152601f60248201527f4f72646572426f6f6b3a204f7264657220616c72656164792066696c6c6564006044820152606490fd5b9064ffffffffff16801561502a57815464ffffffffff19161790555f90565b50805469ffffffffffffffffffff19169055600190565b9164ffffffffff9081831615615080575b161561505c575050565b815469ffffffffff0000000000191660289190911b64ffffffffff60281b16179055565b835464ffffffffff1916818316178455615052565b8060081c9061ffff82165f5260d760205260405f20805490600160ff84161b1982168092036150c657505050505f90565b819055156150d5575050600190565b60ff9060101c1690815f5260d660205260405f2090600160ff835492161b1916809155156151035780614a83565b6001901b1960d5541660d5555f614ab1565b8060081c9061ffff82165f5260d460205260405f20805490600160ff84161b19821680920361514657505050505f90565b81905515615155575050600190565b60ff9060101c1690815f5260d360205260405f2090600160ff835492161b1916809155156151835780614a83565b6001901b1960d2541660d2555f614ab1565b91926060939264ffffffffff835416935b6001600160601b03811615158061552d575b15615506576153b19064ffffffffff86165f5260cf60205260405f2064ffffffffff600182015460281c169054968760a01c6001600160601b038416115f146154fe576152088860a01c846144a7565b80985b845f916001600160601b038416156154ea575b505064ffffffffff83165f5260cf6020526153076001600160a01b0360405f2060018101549054906001600160601b038616155f146154e05788915b62ffffff8260501c1660ff8360681c16155f146154d5578460de5416935b60ff8460681c16155f146154af576152908282615cc9565b915b60609460681c60ff1661549357506127106152e36152da6152c58960dd5416946001600160601b0361057e60db54613454565b6001600160601b0360d85460301c169061348c565b60da5490613479565b04905b81615467575b50506106b5906106c393946040519687941660208501613607565b946001600160601b038316801590615439575b6153b7575b60e0926001600160601b03859362ffffff829464ffffffffff5f80516020615d9a83398151915299165f5260cf60205261536d60405f209560016001600160a01b03885416970154926144a7565b9464ffffffffff60405198168852602088015260ff8160681c161515604088015260501c1660608601521660808401523360a08401521660c0820152a1959661370d565b946151a6565b6001600160601b03821661542f575b60e0926001600160601b03859362ffffff829464ffffffffff5f80516020615d9a83398151915299165f5260cf6020526154218360405f20906001600160a01b038254916001600160601b0360a01b9060a01b169116179055565b94505093955050925061531f565b92935083926153c6565b508415801561531a575064ffffffffff84165f5260cf60205264ffffffffff600160405f200154161561531a565b6106c394509061548a6106b59392612ea86040519384928b891660208501613607565b938192506152ec565b6154a86152da612710928960de541694615cc9565b04906152e6565b6154cf6152c56154c060db54613454565b6001600160601b038416613479565b91615292565b8460dd541693615278565b8160a01c9161525a565b6154f7925060a01c6144a7565b845f61521e565b5f809861520b565b949361551a8164ffffffffff93949561500b565b5016156155245750565b614a4790615095565b5064ffffffffff851615156151b8565b91926060939264ffffffffff835416935b6001600160601b0381161515806155dd575b156155b6576155b09064ffffffffff86165f5260cf60205260405f2064ffffffffff600182015460281c169054968760a01c6001600160601b038416115f146154fe576152088860a01c846144a7565b9461554e565b94936155ca8164ffffffffff93949561500b565b5016156155d45750565b614a4790615115565b5064ffffffffff85161515615560565b9060cc549060ce54926001600160601b03938481169160cd5492615613878516826144a7565b928784168884161094855f146158535783955b15615747575050509061571a83610d23816156725f80516020615d9a833981519152976106b59760cd548d61565d838284166136f2565b16906001600160601b0319161760cd556144a7565b996156c3610d1b6157098c6001600160a01b038060de5416916156988789168092613479565b906156ac60d854988960301c16809361348c565b670de0b6b3a764000097889161065260dc54613454565b04906127106156e56152da6060956107728860dd54169561065260db54613454565b048061571f575b50506106c3919260c954169d8e9160405195869360208501613607565b9b62ffffff809460901c1690613479565b0390a1565b6106c3935061574090612ea88660c954169160405194859360208501613607565b915f6156ec565b6001600160c01b031916606082901b6bffffffffffffffffffffffff60601b161760cd559192916107d3916107d0907e20c49ba5e353f7ced916872b020c49ba5e353f7ced916872b020c49ba5e3538111820215840215610203570291886001600160601b031993828593820491061515011691161760ce556103eb938487029187830486148815171561132f576101f4830180931161132f576103e880930460cc5560cb5492898416967e4189374bc6a7ef9db22d0e5604189374bc6a7ef9db22d0e5604189374bc6a7881182021581021561020357836106b59761571a96610d23958e6156729585975f80516020615d9a8339815191529e02041691161760cb558b60ca556144a7565b8495615626565b9061271091815f19048111820215830215610203570290808204910615150190565b803b156158c1576001600160a01b037f360894a13ba1a3210667c828492db98dca3e2076cc3735a920a3ca505d382bbc91166001600160601b0360a01b825416179055565b60405162461bcd60e51b815260206004820152602d60248201527f455243313936373a206e657720696d706c656d656e746174696f6e206973206e60448201526c1bdd08184818dbdb9d1c9858dd609a1b6064820152608490fd5b600190910160ff1690811c90816159345750505f1990565b61593f60ff92615944565b011690565b5f908060801b806159f7575b508060401b806159ea575b508060201b806159dd575b508060101b806159d0575b508060081b806159c3575b508060041b806159b6575b508060021b806159a9575b5060011b6159a1575b60ff0390565b60010161599b565b600291509101905f615992565b600491509101905f615987565b600891509101905f61597c565b601091509101905f615971565b602091509101905f615966565b604091509101905f61595b565b9150506080905f615950565b815f1904811182021583021561020357020490565b61ffff5f5260d46020527f3898221d4575bd05b1eecbb996e52b4681da0f72d846794ad3346b5162baf38b54615a4d90615be9565b5f199060018101615b08575060ff5f5260d36020527f61028f21a146a54a68f4a6fa96493e3431ee41b4b7ec3e7e5d42a13c4e7b58e954615a8d90615be9565b818103615ae75750615aa060d254615be9565b908103615aaf575062ffffff90565b805f5260d360205260ff615ac660405f2054615c09565b169060081b17805f5260d460205262ffffff60ff61462560405f2054615c09565b905061ff0017805f5260d460205262ffffff60ff61462560405f2054615c09565b62ffffff915062ffff00171690565b614b91916001600160a01b03908160dd541692615b3560db54613454565b91612710615b99670de0b6b3a7640000615b8f615b84615b72615b636001600160601b03809916998a613479565b9760d85460301c16809861348c565b966107726060998b60de541698613479565b61065260dc54613454565b0460da5490613479565b0480615bbe575b50506106b56106c3929360c954169160405195869360208501613607565b6106c3935090615be36106b592612ea88760c954169160405194859360208501613607565b92615ba0565b60011b80615bf757505f1990565b60ff615c045f1992615c09565b160190565b905f916fffffffffffffffffffffffffffffffff8111615cbe575b8067ffffffffffffffff60019211615cb2575b63ffffffff8111615ca6575b61ffff8111615c9a575b60ff8111615c8e575b600f8111615c82575b60038111615c76575b11615c6f57565b9060010190565b6002938401931c615c68565b6004938401931c615c5f565b6008938401931c615c56565b6010938401931c615c4d565b6020938401931c615c43565b6040938401931c615c37565b60809250821c615c24565b90615cdd614b919262ffffff809316614068565b906128778161421c60d854946001600160601b038660301c1690614086565b91929015615d5e5750815115615d10575090565b3b15615d195790565b60405162461bcd60e51b815260206004820152601d60248201527f416464726573733a2063616c6c20746f206e6f6e2d636f6e74726163740000006044820152606490fd5b825190915015615d715750805190602001fd5b60405162461bcd60e51b815260206004820152908190615d95906024830190613217565b0390fdfec3e5ebc67b1c43b899775c1f57978f06dcefb5d482e0484e5d30c1703b01f32ca2646970667358221220f5658d99b9d055e2e5a8e63b669bf3723c707b1c1cb6900429fad859a166e6b364736f6c63430008180033",
  "linkReferences": {},
  "deployedLinkReferences": {}
}