{
  "abi": [
    {
      "type": "constructor",
      "inputs": [],
      "stateMutability": "nonpayable"
    },
    {
      "type": "function",
      "name": "addBuyOrder",
      "inputs": [
        {
          "name": "_price",
          "type": "uint24",
          "internalType": "uint24"
        },
        {
          "name": "size",
          "type": "uint96",
          "internalType": "uint96"
        },
        {
          "name": "_postOnly",
          "type": "bool",
          "internalType": "bool"
        }
      ],
      "outputs": [],
      "stateMutability": "nonpayable"
    },
    {
      "type": "function",
      "name": "addSellOrder",
      "inputs": [
        {
          "name": "_price",
          "type": "uint24",
          "internalType": "uint24"
        },
        {
          "name": "size",
          "type": "uint96",
          "internalType": "uint96"
        },
        {
          "name": "_postOnly",
          "type": "bool",
          "internalType": "bool"
        }
      ],
      "outputs": [],
      "stateMutability": "nonpayable"
    },
    {
      "type": "function",
      "name": "batchCancelOrders",
      "inputs": [
        {
          "name": "_orderIds",
          "type": "uint40[]",
          "internalType": "uint40[]"
        }
      ],
      "outputs": [],
      "stateMutability": "nonpayable"
    },
    {
      "type": "function",
      "name": "batchUpdate",
      "inputs": [
        {
          "name": "buyPrices",
          "type": "uint24[]",
          "internalType": "uint24[]"
        },
        {
          "name": "buySizes",
          "type": "uint96[]",
          "internalType": "uint96[]"
        },
        {
          "name": "sellPrices",
          "type": "uint24[]",
          "internalType": "uint24[]"
        },
        {
          "name": "sellSizes",
          "type": "uint96[]",
          "internalType": "uint96[]"
        },
        {
          "name": "orderIdsToCancel",
          "type": "uint40[]",
          "internalType": "uint40[]"
        },
        {
          "name": "postOnly",
          "type": "bool",
          "internalType": "bool"
        }
      ],
      "outputs": [],
      "stateMutability": "nonpayable"
    },
    {
      "type": "function",
      "name": "bestBidAsk",
      "inputs": [],
      "outputs": [
        {
          "name": "",
          "type": "uint256",
          "internalType": "uint256"
        },
        {
          "name": "",
          "type": "uint256",
          "internalType": "uint256"
        }
      ],
      "stateMutability": "view"
    },
    {
      "type": "function",
      "name": "cancelOwnershipHandover",
      "inputs": [],
      "outputs": [],
      "stateMutability": "payable"
    },
    {
      "type": "function",
      "name": "collectFees",
      "inputs": [],
      "outputs": [],
      "stateMutability": "nonpayable"
    },
    {
      "type": "function",
      "name": "completeOwnershipHandover",
      "inputs": [
        {
          "name": "pendingOwner",
          "type": "address",
          "internalType": "address"
        }
      ],
      "outputs": [],
      "stateMutability": "payable"
    },
    {
      "type": "function",
      "name": "getL2Book",
      "inputs": [],
      "outputs": [
        {
          "name": "",
          "type": "bytes",
          "internalType": "bytes"
        }
      ],
      "stateMutability": "view"
    },
    {
      "type": "function",
      "name": "getMarketParams",
      "inputs": [],
      "outputs": [
        {
          "name": "",
          "type": "uint24",
          "internalType": "uint24"
        },
        {
          "name": "",
          "type": "uint96",
          "internalType": "uint96"
        },
        {
          "name": "",
          "type": "address",
          "internalType": "address"
        },
        {
          "name": "",
          "type": "uint256",
          "internalType": "uint256"
        },
        {
          "name": "",
          "type": "address",
          "internalType": "address"
        },
        {
          "name": "",
          "type": "uint256",
          "internalType": "uint256"
        },
        {
          "name": "",
          "type": "uint24",
          "internalType": "uint24"
        },
        {
          "name": "",
          "type": "uint96",
          "internalType": "uint96"
        },
        {
          "name": "",
          "type": "uint96",
          "internalType": "uint96"
        },
        {
          "name": "",
          "type": "uint256",
          "internalType": "uint256"
        },
        {
          "name": "",
          "type": "uint256",
          "internalType": "uint256"
        }
      ],
      "stateMutability": "view"
    },
    {
      "type": "function",
      "name": "getVaultParams",
      "inputs": [],
      "outputs": [
        {
          "name": "",
          "type": "address",
          "internalType": "address"
        },
        {
          "name": "",
          "type": "uint256",
          "internalType": "uint256"
        },
        {
          "name": "",
          "type": "uint96",
          "internalType": "uint96"
        },
        {
          "name": "",
          "type": "uint256",
          "internalType": "uint256"
        },
        {
          "name": "",
          "type": "uint96",
          "internalType": "uint96"
        },
        {
          "name": "",
          "type": "uint96",
          "internalType": "uint96"
        },
        {
          "name": "",
          "type": "uint96",
          "internalType": "uint96"
        }
      ],
      "stateMutability": "view"
    },
    {
      "type": "function",
      "name": "initialize",
      "inputs": [
        {
          "name": "_owner",
          "type": "address",
          "internalType": "address"
        },
        {
          "name": "_type",
          "type": "uint8",
          "internalType": "enum IOrderBook.OrderBookType"
        },
        {
          "name": "_baseAssetAddress",
          "type": "address",
          "internalType": "address"
        },
        {
          "name": "_baseAssetDecimals",
          "type": "uint256",
          "internalType": "uint256"
        },
        {
          "name": "_quoteAssetAddress",
          "type": "address",
          "internalType": "address"
        },
        {
          "name": "_quoteAssetDecimals",
          "type": "uint256",
          "internalType": "uint256"
        },
        {
          "name": "_marginAccountAddress",
          "type": "address",
          "internalType": "address"
        },
        {
          "name": "_sizePrecision",
          "type": "uint96",
          "internalType": "uint96"
        },
        {
          "name": "_pricePrecision",
          "type": "uint24",
          "internalType": "uint24"
        },
        {
          "name": "_tickSize",
          "type": "uint24",
          "internalType": "uint24"
        },
        {
          "name": "_minSize",
          "type": "uint96",
          "internalType": "uint96"
        },
        {
          "name": "_maxSize",
          "type": "uint96",
          "internalType": "uint96"
        },
        {
          "name": "_takerFeeBps",
          "type": "uint256",
          "internalType": "uint256"
        },
        {
          "name": "_makerFeeBps",
          "type": "uint256",
          "internalType": "uint256"
        },
        {
          "name": "_kuruAmmVault",
          "type": "address",
          "internalType": "address"
        },
        {
          "name": "_kuruAmmSpread",
          "type": "uint96",
          "internalType": "uint96"
        }
      ],
      "outputs": [],
      "stateMutability": "nonpayable"
    },
    {
      "type": "function",
      "name": "owner",
      "inputs": [],
      "outputs": [
        {
          "name": "result",
          "type": "address",
          "internalType": "address"
        }
      ],
      "stateMutability": "view"
    },
    {
      "type": "function",
      "name": "ownershipHandoverExpiresAt",
      "inputs": [
        {
          "name": "pendingOwner",
          "type": "address",
          "internalType": "address"
        }
      ],
      "outputs": [
        {
          "name": "result",
          "type": "uint256",
          "internalType": "uint256"
        }
      ],
      "stateMutability": "view"
    },
    {
      "type": "function",
      "name": "placeAndExecuteMarketBuy",
      "inputs": [
        {
          "name": "_quoteSize",
          "type": "uint24",
          "internalType": "uint24"
        },
        {
          "name": "_minAmountOut",
          "type": "uint256",
          "internalType": "uint256"
        },
        {
          "name": "_isMargin",
          "type": "bool",
          "internalType": "bool"
        },
        {
          "name": "_isFillOrKill",
          "type": "bool",
          "internalType": "bool"
        }
      ],
      "outputs": [
        {
          "name": "",
          "type": "uint256",
          "internalType": "uint256"
        }
      ],
      "stateMutability": "payable"
    },
    {
      "type": "function",
      "name": "placeAndExecuteMarketSell",
      "inputs": [
        {
          "name": "_size",
          "type": "uint96",
          "internalType": "uint96"
        },
        {
          "name": "_minAmountOut",
          "type": "uint256",
          "internalType": "uint256"
        },
        {
          "name": "_isMargin",
          "type": "bool",
          "internalType": "bool"
        },
        {
          "name": "_isFillOrKill",
          "type": "bool",
          "internalType": "bool"
        }
      ],
      "outputs": [
        {
          "name": "",
          "type": "uint256",
          "internalType": "uint256"
        }
      ],
      "stateMutability": "payable"
    },
    {
      "type": "function",
      "name": "placeMultipleBuyOrders",
      "inputs": [
        {
          "name": "_prices",
          "type": "uint24[]",
          "internalType": "uint24[]"
        },
        {
          "name": "_sizes",
          "type": "uint96[]",
          "internalType": "uint96[]"
        },
        {
          "name": "_postOnly",
          "type": "bool",
          "internalType": "bool"
        }
      ],
      "outputs": [],
      "stateMutability": "nonpayable"
    },
    {
      "type": "function",
      "name": "placeMultipleSellOrders",
      "inputs": [
        {
          "name": "_prices",
          "type": "uint24[]",
          "internalType": "uint24[]"
        },
        {
          "name": "_sizes",
          "type": "uint96[]",
          "internalType": "uint96[]"
        },
        {
          "name": "_postOnly",
          "type": "bool",
          "internalType": "bool"
        }
      ],
      "outputs": [],
      "stateMutability": "nonpayable"
    },
    {
      "type": "function",
      "name": "proxiableUUID",
      "inputs": [],
      "outputs": [
        {
          "name": "",
          "type": "bytes32",
          "internalType": "bytes32"
        }
      ],
      "stateMutability": "view"
    },
    {
      "type": "function",
      "name": "renounceOwnership",
      "inputs": [],
      "outputs": [],
      "stateMutability": "payable"
    },
    {
      "type": "function",
      "name": "requestOwnershipHandover",
      "inputs": [],
      "outputs": [],
      "stateMutability": "payable"
    },
    {
      "type": "function",
      "name": "s_buyPricePoints",
      "inputs": [
        {
          "name": "",
          "type": "uint256",
          "internalType": "uint256"
        }
      ],
      "outputs": [
        {
          "name": "head",
          "type": "uint40",
          "internalType": "uint40"
        },
        {
          "name": "tail",
          "type": "uint40",
          "internalType": "uint40"
        }
      ],
      "stateMutability": "view"
    },
    {
      "type": "function",
      "name": "s_buyTree",
      "inputs": [],
      "outputs": [
        {
          "name": "level0",
          "type": "bytes32",
          "internalType": "bytes32"
        }
      ],
      "stateMutability": "view"
    },
    {
      "type": "function",
      "name": "s_orderIdCounter",
      "inputs": [],
      "outputs": [
        {
          "name": "",
          "type": "uint40",
          "internalType": "uint40"
        }
      ],
      "stateMutability": "view"
    },
    {
      "type": "function",
      "name": "s_orders",
      "inputs": [
        {
          "name": "",
          "type": "uint40",
          "internalType": "uint40"
        }
      ],
      "outputs": [
        {
          "name": "ownerAddress",
          "type": "address",
          "internalType": "address"
        },
        {
          "name": "size",
          "type": "uint96",
          "internalType": "uint96"
        },
        {
          "name": "prev",
          "type": "uint40",
          "internalType": "uint40"
        },
        {
          "name": "next",
          "type": "uint40",
          "internalType": "uint40"
        },
        {
          "name": "price",
          "type": "uint24",
          "internalType": "uint24"
        },
        {
          "name": "isBuy",
          "type": "bool",
          "internalType": "bool"
        }
      ],
      "stateMutability": "view"
    },
    {
      "type": "function",
      "name": "s_sellPricePoints",
      "inputs": [
        {
          "name": "",
          "type": "uint256",
          "internalType": "uint256"
        }
      ],
      "outputs": [
        {
          "name": "head",
          "type": "uint40",
          "internalType": "uint40"
        },
        {
          "name": "tail",
          "type": "uint40",
          "internalType": "uint40"
        }
      ],
      "stateMutability": "view"
    },
    {
      "type": "function",
      "name": "s_sellTree",
      "inputs": [],
      "outputs": [
        {
          "name": "level0",
          "type": "bytes32",
          "internalType": "bytes32"
        }
      ],
      "stateMutability": "view"
    },
    {
      "type": "function",
      "name": "toggleMarkets",
      "inputs": [
        {
          "name": "_state",
          "type": "bool",
          "internalType": "bool"
        }
      ],
      "outputs": [],
      "stateMutability": "nonpayable"
    },
    {
      "type": "function",
      "name": "transferOwnership",
      "inputs": [
        {
          "name": "newOwner",
          "type": "address",
          "internalType": "address"
        }
      ],
      "outputs": [],
      "stateMutability": "payable"
    },
    {
      "type": "function",
      "name": "updateVaultOrdSz",
      "inputs": [
        {
          "name": "_vaultAskOrderSize",
          "type": "uint96",
          "internalType": "uint96"
        },
        {
          "name": "_vaultBidOrderSize",
          "type": "uint96",
          "internalType": "uint96"
        },
        {
          "name": "_askPrice",
          "type": "uint256",
          "internalType": "uint256"
        },
        {
          "name": "_bidPrice",
          "type": "uint256",
          "internalType": "uint256"
        }
      ],
      "outputs": [],
      "stateMutability": "nonpayable"
    },
    {
      "type": "function",
      "name": "upgradeToAndCall",
      "inputs": [
        {
          "name": "newImplementation",
          "type": "address",
          "internalType": "address"
        },
        {
          "name": "data",
          "type": "bytes",
          "internalType": "bytes"
        }
      ],
      "outputs": [],
      "stateMutability": "payable"
    },
    {
      "type": "function",
      "name": "vaultAskOrderSize",
      "inputs": [],
      "outputs": [
        {
          "name": "",
          "type": "uint96",
          "internalType": "uint96"
        }
      ],
      "stateMutability": "view"
    },
    {
      "type": "function",
      "name": "vaultBestAsk",
      "inputs": [],
      "outputs": [
        {
          "name": "",
          "type": "uint256",
          "internalType": "uint256"
        }
      ],
      "stateMutability": "view"
    },
    {
      "type": "event",
      "name": "Initialized",
      "inputs": [
        {
          "name": "version",
          "type": "uint64",
          "indexed": false,
          "internalType": "uint64"
        }
      ],
      "anonymous": false
    },
    {
      "type": "event",
      "name": "OrderCreated",
      "inputs": [
        {
          "name": "orderId",
          "type": "uint40",
          "indexed": false,
          "internalType": "uint40"
        },
        {
          "name": "owner",
          "type": "address",
          "indexed": false,
          "internalType": "address"
        },
        {
          "name": "size",
          "type": "uint96",
          "indexed": false,
          "internalType": "uint96"
        },
        {
          "name": "price",
          "type": "uint24",
          "indexed": false,
          "internalType": "uint24"
        },
        {
          "name": "isBuy",
          "type": "bool",
          "indexed": false,
          "internalType": "bool"
        }
      ],
      "anonymous": false
    },
    {
      "type": "event",
      "name": "OrdersCanceled",
      "inputs": [
        {
          "name": "orderId",
          "type": "uint40[]",
          "indexed": false,
          "internalType": "uint40[]"
        },
        {
          "name": "owner",
          "type": "address",
          "indexed": false,
          "internalType": "address"
        }
      ],
      "anonymous": false
    },
    {
      "type": "event",
      "name": "OwnershipHandoverCanceled",
      "inputs": [
        {
          "name": "pendingOwner",
          "type": "address",
          "indexed": true,
          "internalType": "address"
        }
      ],
      "anonymous": false
    },
    {
      "type": "event",
      "name": "OwnershipHandoverRequested",
      "inputs": [
        {
          "name": "pendingOwner",
          "type": "address",
          "indexed": true,
          "internalType": "address"
        }
      ],
      "anonymous": false
    },
    {
      "type": "event",
      "name": "OwnershipTransferred",
      "inputs": [
        {
          "name": "oldOwner",
          "type": "address",
          "indexed": true,
          "internalType": "address"
        },
        {
          "name": "newOwner",
          "type": "address",
          "indexed": true,
          "internalType": "address"
        }
      ],
      "anonymous": false
    },
    {
      "type": "event",
      "name": "Trade",
      "inputs": [
        {
          "name": "orderId",
          "type": "uint40",
          "indexed": false,
          "internalType": "uint40"
        },
        {
          "name": "makerAddress",
          "type": "address",
          "indexed": false,
          "internalType": "address"
        },
        {
          "name": "isBuy",
          "type": "bool",
          "indexed": false,
          "internalType": "bool"
        },
        {
          "name": "price",
          "type": "uint256",
          "indexed": false,
          "internalType": "uint256"
        },
        {
          "name": "updatedSize",
          "type": "uint96",
          "indexed": false,
          "internalType": "uint96"
        },
        {
          "name": "takerAddress",
          "type": "address",
          "indexed": false,
          "internalType": "address"
        },
        {
          "name": "filledSize",
          "type": "uint96",
          "indexed": false,
          "internalType": "uint96"
        }
      ],
      "anonymous": false
    },
    {
      "type": "event",
      "name": "Upgraded",
      "inputs": [
        {
          "name": "implementation",
          "type": "address",
          "indexed": true,
          "internalType": "address"
        }
      ],
      "anonymous": false
    },
    {
      "type": "error",
      "name": "AlreadyInitialized",
      "inputs": []
    },
    {
      "type": "error",
      "name": "InsufficientLiquidity",
      "inputs": []
    },
    {
      "type": "error",
      "name": "InvalidInitialization",
      "inputs": []
    },
    {
      "type": "error",
      "name": "InvalidSpread",
      "inputs": []
    },
    {
      "type": "error",
      "name": "LengthMismatch",
      "inputs": []
    },
    {
      "type": "error",
      "name": "MarketFeeError",
      "inputs": []
    },
    {
      "type": "error",
      "name": "MarketStateError",
      "inputs": []
    },
    {
      "type": "error",
      "name": "NativeAssetInsufficient",
      "inputs": []
    },
    {
      "type": "error",
      "name": "NativeAssetNotRequired",
      "inputs": []
    },
    {
      "type": "error",
      "name": "NativeAssetTransferFail",
      "inputs": []
    },
    {
      "type": "error",
      "name": "NewOwnerIsZeroAddress",
      "inputs": []
    },
    {
      "type": "error",
      "name": "NoHandoverRequest",
      "inputs": []
    },
    {
      "type": "error",
      "name": "NotInitializing",
      "inputs": []
    },
    {
      "type": "error",
      "name": "OnlyOwnerAllowedError",
      "inputs": []
    },
    {
      "type": "error",
      "name": "OrderAlreadyFilledOrCancelled",
      "inputs": []
    },
    {
      "type": "error",
      "name": "PostOnlyError",
      "inputs": []
    },
    {
      "type": "error",
      "name": "PriceError",
      "inputs": []
    },
    {
      "type": "error",
      "name": "SizeError",
      "inputs": []
    },
    {
      "type": "error",
      "name": "SlippageExceeded",
      "inputs": []
    },
    {
      "type": "error",
      "name": "TickSizeError",
      "inputs": []
    },
    {
      "type": "error",
      "name": "TooMuchSizeFilled",
      "inputs": []
    },
    {
      "type": "error",
      "name": "Unauthorized",
      "inputs": []
    },
    {
      "type": "error",
      "name": "UnauthorizedCallContext",
      "inputs": []
    },
    {
      "type": "error",
      "name": "UpgradeFailed",
      "inputs": []
    }
  ],
  "bytecode": {
    "object": "0x60a08060405234609a573060805263409feecd195460018116608c5760011c6002600160401b0319016048575b61586890816100a0823960805181818161137901526114500152f35b6002600160411b0363409feecd19556001600160401b0360209081527fc7f505b2f371ae2175ee4913f4499e1f2633a7b5936321eed1cdaeb6115181d29080a1602c565b63f92ee8a96000526004601cfd5b600080fdfe61026080604052600436101561001457600080fd5b60003560e01c90816302b90c651461292a575080630e2e2ffe146128d5578063137fc7bb146125685780631c0d9c22146124de57806320b3fa5c14611dc257806323afbff314611d2e5780632569296214611ce25780632bf1360e14611cbd5780633c133765146117ab57806346fdfbb1146115b4578063474b848c146115965780634d7811031461153e5780634f1ef286146113fc57806351130ac6146113d557806352d1902d14611365578063532c46db146110cf57806354d1f13d146110875780635b16c9b614611047578063715018a614610ff857806388bb4f6014610f905780638da5cb5b14610f6357806390c9427c14610ec3578063b4de8b7014610e91578063badc92d114610e73578063bb62b3c5146109fe578063c879657214610967578063cc57aec614610410578063d2cd7d7f14610379578063e55bb4e3146102aa578063e6d29b5114610251578063f04e283e14610201578063f2fde38b146101c35763fee81cf41461018b57600080fd5b346101be5760203660031901126101be576101a4612945565b63389a75e1600c52600052602080600c2054604051908152f35b600080fd5b60203660031901126101be576101d7612945565b6101df6139c9565b8060601b156101f3576101f19061467f565b005b637448fbae6000526004601cfd5b60203660031901126101be57610215612945565b61021d6139c9565b63389a75e1600c52806000526020600c2090815442116102435760006101f1925561467f565b636f5e88186000526004601cfd5b346101be5760203660031901126101be5760043560005260076020526102a6604060002054604051918164ffffffffff80859460281c1691168390929164ffffffffff60209181604085019616845216910152565b0390f35b346101be5760803660031901126101be576102c361295b565b6102cb612971565b6000549091906001600160a01b0316330361033c576001600160601b0391600454908360601b9060601b16908360601b191617600455166001600160601b0319600554161760055560001960035414610331575b6001541561032957005b606435600155005b60443560035561031f565b60405162461bcd60e51b815260206004820152601560248201527413dc99195c909bdbdace8813db9b1e4815985d5b1d605a1b6044820152606490fd5b346101be5761038736612a36565b9360ff600f5460281c166103ef578184036103ff5760005b8481106103a857005b6103bb6103b6828785612afc565b612b22565b906103cf6103ca828688612afc565b612b32565b60ff600f5460281c166103ef57876103e991600194612df6565b0161039f565b6225b2dd60e11b60005260046000fd5b631fec674760e31b60005260046000fd5b346101be5760603660031901126101be57610429612987565b610431612971565b9061043a6129c9565b60ff600f5460281c166103ef5762ffffff8216801561095657601654936001600160601b038116946001600160601b0381168611156109455760601c6001600160601b03168510156109455762ffffff61049b8160155460a01c1686612d73565b16610934579284929392600080956104b1614799565b949094926000906060995b6001600160601b038a161515806108e4575b806108db575b156105da57898660008a156105815750506104ee9061512a565b9390988994935b8c869b610501916135ef565b61050a91612d0c565b9b6000916000146105689662ffffff61054f6105406105629861055c976105569661053a575061053a85886135ef565b90612d0c565b9c82600f5460901c1690615415565b16926135ef565b9061485b565b90613072565b99612d2c565b95610571614799565b95909698909594999197996104bc565b916105cf9160406001600160601b039794670de0b6b3a76400006105c062ffffff600f5460901c1662ffffff836105b88389612aab565b041695612aab565b04815260086020522090614b1d565b9416988994936104f5565b848b8b9489936001600160601b038d9616806106fd575b505061064691506106069061055c878961485b565b61063f61062e60018060a01b03601554169262ffffff610627601354612d89565b9116612aab565b62ffffff600f5460901c1690612abe565b33916143cb565b6106d7575b506001600160601b03821661065c57005b6106d260008051602061581383398151915293600f549261068364ffffffffff8516612d97565b64ffffffffff1990941664ffffffffff851617600f556106a282614439565b5060005260076020526106c46106bc846040600020614565565b8486846145ca565b604051938493339085612db1565b0390a1005b6001600160601b038316036106ec578361064b565b6306e6da4d60e01b60005260046000fd5b6107136012549161070d83612d89565b90612aab565b6001600160601b0361072d81600f5460301c168093612abe565b93169081610846575b5050506107aa60009361078e60209360105480610805575b5060018060a01b03601954169261078960018060a01b036014541661077b604051948592338b8501612c7d565b03601f198101845283612be3565b612d2c565b6040519586809481936337adb00f60e11b835260048301612a0a565b03925af19081156107f95761064692610606926107ca575b8192506105f1565b6107eb9060203d6020116107f2575b6107e38183612be3565b810190612c65565b50886107c2565b503d6107d9565b6040513d6000823e3d90fd5b6108358161083061082361081c61083d9587615443565b809661360f565b9461070d6011548461360f565b612abe565b60185461361c565b6018558c61074e565b6019546000546014546001600160a01b039081169591811694921692610876929091610830919061070d90612d89565b90803b156101be576108a3936000809460405196879586948593633609c92960e11b855260048501612c04565b03925af19384156107f95761078e6020936107aa936000976108cb575b509350819550610736565b876108d591612be3565b8c6108c0565b508515156104d4565b50670de0b6b3a76400008902898104670de0b6b3a76400000361091e576109169062ffffff600f5460901c1690612abe565b8611156104ce565b634e487b7160e01b600052601160045260246000fd5b63272d3bf760e01b60005260046000fd5b630a5c4f1f60e01b60005260046000fd5b6348fa9b2b60e11b60005260046000fd5b346101be5760003660031901126101be576019546014546018546015546017546040516324facdb160e11b81526001600160a01b0394851660048201526024810193909352908316604483015260648201529160209183916084918391600091165af180156107f9576109e1575b60006018819055601755005b6109f99060203d6020116107f2576107e38183612be3565b6109d5565b346101be57610a0c36612a36565b919360ff600f5460281c166103ef578184036103ff5760009493945b858110610a3157005b610a3f6103b6828885612afc565b93610a4e6103ca838689612afc565b9160ff600f5460281c166103ef5762ffffff861690811561095657601654936001600160601b038116946001600160601b0381168611156109455760601c6001600160601b03168510156109455762ffffff610ab18160155460a01c168a612d73565b1661093457989597949895600080610ac7614799565b9890989960006060915b6001600160601b038116151580610e39575b80610e30575b15610bca57808d60008e15610b88575050610b06610b2e9261512a565b929092975b610b1a849861053a86866135ef565b9e6000901561053a575061053a84846135ef565b9d600f5460901c62ffffff16610b4391615415565b62ffffff1691610b52916135ef565b610b5b9161485b565b610b6491613072565b93610b6e91612d2c565b93610b77614799565b9d909d9b94909d9a93959195610ad1565b6001600160601b0393610b2e926040610bc193670de0b6b3a76400006105c062ffffff600f5460901c1662ffffff836105b88389612aab565b93169297610b0b565b96989c9799959d9b50928c9491929e9a506001600160601b031680610ca4575b505050610bfe610c399161055c868861485b565b610c1c60018060a01b03601554169162ffffff610627601354612d89565b90610c33339262ffffff600f5460901c1690612abe565b906143cb565b610c8f575b506001936001600160601b038216610c5d575b50505001949394610a28565b610c8460008051602061581383398151915293600f549261068364ffffffffff8516612d97565b0390a1878080610c51565b6001600160601b038216036106ec5789610c3e565b9091929350610cb96012549161070d83612d89565b6001600160601b03610cd381600f5460301c168093612abe565b93169081610d9b575b505050610d3c600092610d2060209360105480610d7b575060018060a01b03601954169261078960018060a01b036014541661077b604051948592338b8501612c7d565b6040519485809481936337adb00f60e11b835260048301612a0a565b03925af180156107f9578a92610c3992610bfe92610d5d575b819350610bea565b610d749060203d81116107f2576107e38183612be3565b508e610d55565b6108358161083061082361081c610d929587615443565b6018553861074e565b6019546000546014546001600160a01b039081169591811694921692610dcb929091610830919061070d90612d89565b90803b156101be57610df8936000809460405196879586948593633609c92960e11b855260048501612c04565b03925af19283156107f957610d20602093610d3c93600096610e20575b509350819450610cdc565b86610e2a91612be3565b38610e15565b508c1515610ae9565b50670de0b6b3a76400008902898104670de0b6b3a76400000361091e57610e6b9062ffffff600f5460901c1690612abe565b8d1115610ae3565b346101be5760003660031901126101be576020600954604051908152f35b346101be5760003660031901126101be576040610eac6146c3565b9050610eb6614799565b8351928352602083015250f35b346101be5760003660031901126101be57610160600f5460018060a01b03601454166012546001600160601b0360155462ffffff60135491601654926010549560115497866040519a868160901c168c5260301c1660208b015260408a0152606089015260018060a01b038216608089015260a088015260a01c1660c086015281811660e086015260601c16610100840152610120830152610140820152f35b346101be5760003660031901126101be57638b78c6d819546040516001600160a01b039091168152602090f35b346101be5760003660031901126101be5760e060018060a01b03600054166001546001600160601b03806002541660035460045491836005541694604051968752602087015260408601526060850152818116608085015260601c1660a083015260c0820152f35b60003660031901126101be5761100c6139c9565b6000638b78c6d819547f8be0079c531659141344cd1fd0a4f28419497f9722a3daafe3b4186f6b6457e08280a3600160ff1b638b78c6d81955005b346101be5760603660031901126101be57611060612987565b611068612971565b6110706129c9565b9060ff600f5460281c166103ef576101f192612df6565b60003660031901126101be5763389a75e1600c523360005260006020600c2055337ffa7b8eab7da67f412cc9575ed43464468f9bfbae89d1675917346ca6d8fe3c92600080a2005b60803660031901126101be576110e361295b565b6110eb6129c9565b6110f36129d8565b9060ff600f5460281c166103ef5760ff60055460c01c16926003841015938461121e5760011490818061135d575b156112975761112f816139e6565b3403611286578261113f91613a00565b9490936001600160601b03851615611245576112345761121e5780611216575b1561119b5750611171611176916139e6565b613629565b602435811061118a57602090604051908152f35b638199f5f360e01b60005260046000fd5b6019546014546111e293602093926001600160a01b039081169216906000906111c3906139e6565b604051633af55cc760e11b815296879586948593903360048601612ca6565b03925af180156107f9576111f7575b50611176565b61120f9060203d6020116107f2576107e38183612be3565b50816111f1565b50801561115f565b634e487b7160e01b600052602160045260246000fd5b63bb55fd2760e01b60005260046000fd5b50509150506000906112575750611176565b8080808060018060a01b036019541634905af1611272612c26565b506111f15763386bf62b60e11b8152600490fd5b63fd99316160e01b60005260046000fd5b3461134c5782801561131a57506019546014546001600160a01b039182169291166112c1826139e6565b833b156101be576112ed9360009283604051809781958294633609c92960e11b84523360048501612c04565b03925af19081156107f95761113f928592611309575b50613a00565b600061131491612be3565b87611303565b60145460195461113f9391611347916001600160a01b03918216911661133f846139e6565b91339061359f565b613a00565b63756ac9bb60e11b60005260046000fd5b508215611121565b346101be5760003660031901126101be57307f0000000000000000000000000000000000000000000000000000000000000000036113c75760206040517f360894a13ba1a3210667c828492db98dca3e2076cc3735a920a3ca505d382bbc8152f35b639f03a0266000526004601cfd5b346101be5760003660031901126101be5760206001600160601b0360055416604051908152f35b60403660031901126101be57611410612945565b602435906001600160401b0382116101be57366023830112156101be578160040135906001600160401b0382116101be5736602483850101116101be57307f0000000000000000000000000000000000000000000000000000000000000000146113c75761147c6139c9565b60018060a01b03166352d1902d6001527f360894a13ba1a3210667c828492db98dca3e2076cc3735a920a3ca505d382bbc602060016004601d855afa510361153057807fbc7cd75a20ee27fd9adebab32041f755214dbc6bffa90cc0225b39da2e5c2d3b600080a281817f360894a13ba1a3210667c828492db98dca3e2076cc3735a920a3ca505d382bbc5561150e57005b816000926024604051950185378338925af41561152757005b3d6000823e3d90fd5b6355299b496001526004601dfd5b346101be5760203660031901126101be576004358015158091036101be576115646139c9565b600f549060ff8260281c16151581146103ef5765ff00000000009060281b169065ff0000000000191617600f55600080f35b346101be5760003660031901126101be576020600354604051908152f35b346101be5760003660031901126101be57604051436020820152602081526115dd604082612be3565b6115e561367e565b62ffffff811662ffffff811415806117a2575b156116a557600052600760205264ffffffffff604060002054169064ffffffffff6000925b16918215611663576116419083600052600660205260406000205460a01c90612d0c565b91600052600660205264ffffffffff8060016040600020015460281c1661161d565b6040805162ffffff841660208201526001600160601b039092169082015290926116a0925061169a9190610789826060810161077b565b91613746565b6115e5565b6116c383604051906000602083015260208252610789604083612be3565b6116cb61382d565b62ffffff811662ffffff81141580611799575b1561178b57600052600860205264ffffffffff604060002054169064ffffffffff6000925b16918215611749576117279083600052600660205260406000205460a01c90612d0c565b91600052600660205264ffffffffff8060016040600020015460281c16611703565b6040805162ffffff841660208201526001600160601b0390921690820152909261178692506117809190610789826060810161077b565b916138e3565b6116cb565b604051806102a68582612a0a565b508015156116de565b508015156115f8565b60803660031901126101be576117bf612987565b6117c76129c9565b906117d06129d8565b60ff600f5460281c166103ef5760ff60055460c01c166003811015908161121e57600214928380611cb5575b15611c125761180a81613586565b340361128657939192935b91600093600093611824614799565b939093966000926060975b62ffffff82169182151580611bd5575b80611bcc575b156119d057506001600160601b03611866600f5493828560301c169061308a565b16670de0b6b3a7640000810290808204670de0b6b3a7640000149015171561091e578a9361053a89936118f8936001600160601b036118bb62ffffff6118fe9960901c16926118b5848c612aab565b90612abe565b169e8f9687926000911561197b575050506118d86118f29161512a565b92909c8d8094985b600092156119735761053a92506135ef565b9d6135ef565b98612d2c565b946001600160601b0361191d600f549362ffffff8560901c1690612aab565b9260301c16670de0b6b3a7640000810290808204670de0b6b3a7640000149015171561091e5762ffffff926001600160601b0361195b9316906153ff565b1690611965614799565b99909597919290999861182f565b505090612d0c565b928260406119c49362ffffff670de0b6b3a76400006119b48983836119ac6118f29d6001600160601b039f9d612aab565b041696612aab565b0416815260086020522090614b1d565b93169c8d8094986118e0565b848c8a898d8a966001600160601b038a169182611a46575b50505062ffffff851615611245576112345761121e5780611a3e575b15611a16575061117161117691613586565b6019546015546111e293602093926001600160a01b039081169216906000906111c390613586565b508015611a04565b90919750611a5a6012549861070d8a612d89565b611a736001600160601b03600f5460301c168092612abe565b986001600160601b0360018060a01b036014541694169182611b51575b50505060105480611b01575b50611acc600092610d208a60209461078960018060a01b03601954169461077b8d604051958693338c8601612ca6565b03925af180156107f957611ae2575b80806119e8565b611afa9060203d6020116107f2576107e38183612be3565b5086611adb565b9790611b0d8983615443565b9182611b189161360f565b988992601154611b28908361360f565b611b3191612aab565b90611b3b91612abe565b60185490611b489161361c565b60185590611a9c565b6019546000546001600160a01b0391821694911692611b7892916108309161070d90612d89565b823b156101be57611ba592856000809460405196879586948593633609c92960e11b855260048501612c04565b03925af180156107f957611bbb575b8080611a90565b6000611bc691612be3565b88611bb4565b508a1515611845565b5062ffffff600f5460901c1660008115611bfe57506a0de0b6a5c6ad4c589c0000048b1061183f565b634e487b7160e01b81526012600452602490fd5b3461134c578415611c90576019546015546001600160a01b039182169116611c3983613586565b823b156101be57611c659260009283604051809681958294633609c92960e11b84523360048501612c04565b03925af180156107f957611c7f575b505b93919293611815565b6000611c8a91612be3565b85611c74565b601554601954611cb0916001600160a01b03908116911661133f84613586565b611c76565b5084156117fc565b346101be5760003660031901126101be57602064ffffffffff600f5416604051908152f35b60003660031901126101be5763389a75e1600c52336000526202a30042016020600c2055337fdbf36a107da19e49527a7176a1babf963b4b0ff8cde35ee35d6cd8f1f9ac7e1d600080a2005b346101be5760203660031901126101be576004356001600160401b0381116101be57611d5e903690600401612999565b9060005b828110611d9d57507f386974f41b61738b510019ccd5a3524a43eccf0d136929e09d524e87aeeca2c4916106d2604051928392339184612b58565b80611dbb611db6611db16001948787612afc565b612b46565b6130ad565b5001611d62565b346101be5760c03660031901126101be576004356001600160401b0381116101be57611df2903690600401612999565b610160526024356001600160401b0381116101be57611e15903690600401612999565b91906044356001600160401b0381116101be57611e36903690600401612999565b90610180526064356001600160401b0381116101be57611e5a903690600401612999565b90926084356001600160401b0381116101be57611e7b903690600401612999565b60a4356101c0819052909791969080151590036101be5760ff600f5460281c166103ef578161016051036103ff578385036103ff579594939291906000610140525b610160516101405110611f9e575b5050909192935060005b828110611f3a575b5050505060005b828110611f1f57507f386974f41b61738b510019ccd5a3524a43eccf0d136929e09d524e87aeeca2c4916106d2604051928392339184612b58565b80611f33611db6611db16001948787612afc565b5001611ee4565b62ffffff611f4f6103b6838661018051612afc565b1615611f9957611f666103b6828561018051612afc565b90611f756103ca828588612afc565b60ff600f5460281c166103ef57600192611f93916101c05191612df6565b01611ed5565b611edd565b62ffffff611fb66103b661014051610160518b612afc565b16156124d957611fd06103b661014051610160518a612afc565b61024052611fe56103ca610140518385612afc565b6101e05260ff600f5460281c166103ef5762ffffff610240511615610956576016546001600160601b0381166001600160601b036101e051161115610945576001600160601b039060601c166001600160601b036101e0511610156109455762ffffff61205c8160155460a01c1661024051612d73565b16610934576101e05161010052600061022081905260e05261207c614799565b610200526101a0526102005160a05260008060805260606080525b6001600160601b03610100511615158061249b575b80612490575b156121dd576121459061055c61010051600080610120526101a05160001461217b57506105566120e46101005161512a565b610120525b80610100526121046120fb82856135ef565b61022051612d0c565b6102205260006101a051600014612172575061212b61212382856135ef565b60e051612d0c565b60e05262ffffff61054f81600f5460901c1660a051615415565b9661215561012051608051612d2c565b608052612160614799565b60c082905260a0526101a05296612097565b61212b90612123565b6001600160601b036121d36105569262ffffff600f5460901c16670de0b6b3a76400006121bd62ffffff826121b28560a051612aab565b04169260a051612aab565b0482526008602052604061010051922090614b1d565b61012052166120e9565b96909192939495966001600160601b0361022051168061230a575b50610bfe6122109161055c610100516102405161485b565b6101c0516122d9575b6001600160601b036101005116612241575b6001610140510161014052959493929190611ebd565b6000805160206158138339815191526122d1600f5461226664ffffffffff8216612d97565b9064ffffffffff82169064ffffffffff191617600f5561228861024051614439565b5062ffffff610240511660005260076020526122b96122ab826040600020614565565b8261010051610240516145ca565b60405191829161024051906101005190339085612db1565b0390a161222b565b6001600160601b0361010051166001600160601b036101e051160315612219576306e6da4d60e01b60005260046000fd5b9061231b6012549261070d84612d89565b916123356001600160601b03600f5460301c168094612abe565b926001600160601b0360e051169081612403575b50505060206123a5600093601054806123e3575b506019546014546040516001600160a01b039283169361078e93919261239d92849261238f92909116338a8501612c7d565b03601f198101835282612be3565b608051612d2c565b03925af19081156107f95761221092610bfe926123c5575b5091506121f8565b6123dc9060203d81116107f2576107e38183612be3565b508b6123bd565b6108358161083061082361081c6123fa9587615443565b6018558d61235d565b6019546000546014546001600160a01b039081169591811694921692612433929091610830919061070d90612d89565b90803b156101be57612460936000809460405196879586948593633609c92960e11b855260048501612c04565b03925af180156107f9576000936020926123a592612480575b5093612349565b8561248a91612be3565b8d612479565b5060a05115156120b2565b506102405162ffffff16670de0b6b3a7640000818102918204900361091e576124cf9062ffffff600f5460901c1690612abe565b60a05111156120ac565b611ecb565b346101be5760203660031901126101be5760043564ffffffffff81168091036101be57600052600660205260c0604060002060ff600182549201546040519260018060a01b038116845260a01c602084015264ffffffffff8116604084015264ffffffffff8160281c16606084015262ffffff8160501c16608084015260681c16151560a0820152f35b346101be576102003660031901126101be57612582612945565b6024359060038210156101be576044356001600160a01b03811692908390036101be576084356001600160a01b03811693908490036101be5760c4356001600160a01b038116908190036101be5760e435906001600160601b03821682036101be57610104359562ffffff871687036101be57610124359162ffffff831683036101be57610144356001600160601b0381168091036101be57610164356001600160601b03811681036101be5761018435916101a435936101c4359560018060a01b0387168097036101be576101e435976001600160601b0389168099036101be5763409feecd19805460038255909d90806128ab575b50638b78c6d8195461289d576001600160a01b0316801560ff1b8117638b78c6d8195560007f8be0079c531659141344cd1fd0a4f28419497f9722a3daafe3b4186f6b6457e08180a385611f4002611f408104870361091e57612710900487111580612892575b15612881576001600160601b03600a8a06161580612878575b8061286d575b1561285c57600a9960009e6005549c6001600160601b0360a01b60145416176014556015549460643560125560a4356013556001600160601b0360a01b601954161760195571ffffffffffffffffffffffff000000000000600f549162ffffff60901b9060901b169260301b169074ffffffffffffffffffffffffffffff00000000000019161717600f5562ffffff60a01b9060a01b169168ffffffffffffffffff60b81b161717601555601654916001600160601b0360601b9060601b16916001600160401b0360c01b1617176016556010556011556001600160601b0360a01b875416178655046001600160601b0360601b9060601b169160ff60c01b9060c01b16906cffffffffffffffffffffffffff60601b191617176005558060001960035561282b575080f35b6002905560016020527fc7f505b2f371ae2175ee4913f4499e1f2633a7b5936321eed1cdaeb6115181d2602080a180f35b633cd146b160e01b60005260046000fd5b506101f489106126ff565b508815156126f9565b63a926954560e01b60005260046000fd5b5061271086106126e0565b630dc149f06000526004601cfd5b6001919e9181811c14303b10156128c75760ff1b1b9c8f612679565b63f92ee8a96000526004601cfd5b346101be5760203660031901126101be5760043560005260086020526102a6604060002054604051918164ffffffffff80859460281c1691168390929164ffffffffff60209181604085019616845216910152565b346101be5760003660031901126101be57602090600c548152f35b600435906001600160a01b03821682036101be57565b600435906001600160601b03821682036101be57565b602435906001600160601b03821682036101be57565b6004359062ffffff821682036101be57565b9181601f840112156101be578235916001600160401b0383116101be576020808501948460051b0101116101be57565b6044359081151582036101be57565b6064359081151582036101be57565b60005b8381106129fa5750506000910152565b81810151838201526020016129ea565b60409160208252612a2a81518092816020860152602086860191016129e7565b601f01601f1916010190565b60606003198201126101be576004356001600160401b0381116101be5781612a6091600401612999565b92909291602435906001600160401b0382116101be57612a8291600401612999565b909160443580151581036101be5790565b906103e88202918083046103e8149015171561091e57565b8181029291811591840414171561091e57565b8115612ac8570490565b634e487b7160e01b600052601260045260246000fd5b906001600160601b0316908115612ac8576001600160601b03160490565b9190811015612b0c5760051b0190565b634e487b7160e01b600052603260045260246000fd5b3562ffffff811681036101be5790565b356001600160601b03811681036101be5790565b3564ffffffffff811681036101be5790565b604080825281018390529293929160608301906000905b808210612b8a575050602091509360018060a01b0316910152565b909183359064ffffffffff82168092036101be57908152602093840193019160010190612b6f565b60c081019081106001600160401b03821117612bcd57604052565b634e487b7160e01b600052604160045260246000fd5b90601f801991011681019081106001600160401b03821117612bcd57604052565b6001600160a01b03918216815291166020820152604081019190915260600190565b3d15612c60573d906001600160401b038211612bcd5760405191612c54601f8201601f191660200184612be3565b82523d6000602084013e565b606090565b908160209103126101be575180151581036101be5790565b6001600160a01b0391821681529116602082015260408101919091526001606082015260800190565b6001600160a01b039182168152911660208201526040810191909152901515606082015260800190565b6001600160601b03166107d001906001600160601b03821161091e57565b6001600160601b03166103e801906001600160601b03821161091e57565b906001600160601b03809116911601906001600160601b03821161091e57565b612d719092919260206040519482612d4d87945180928580880191016129e7565b8301612d61825180938580850191016129e7565b010103601f198101845283612be3565b565b9062ffffff16908115612ac85762ffffff160690565b604d811161091e57600a0a90565b64ffffffffff60019116019064ffffffffff821161091e57565b64ffffffffff90911681526001600160a01b0390911660208201526001600160601b0391909116604082015262ffffff90911660608201526001608082015260a00190565b90916016546001600160601b038416906001600160601b0381168211156109455760601c6001600160601b03168110156109455762ffffff612e3f8160155460a01c1685612d73565b166109345762ffffff831693841561095657612e8a612e909261063f612e7560018060a01b03601454169261070d601254612d89565b6001600160601b03600f5460301c1690612abe565b83613f38565b9091613068575b506001600160601b0316908115613063576000805160206158138339815191529260a092613043600f5493612ef1612ed564ffffffffff8716612d97565b9164ffffffffff8316809764ffffffffff191617600f556144d0565b50836000526008602052612f09816040600020614565565b60405190612f1682612bb2565b3382528686612fe164ffffffffff60208601898152818060018160408b019916998a8a52612faf6001600160601b03606083019660008852608084019a8b5260a084019b60008d52600052600660205260406000209360a08680911b039060a08780911b039051161660a083901b855416178455511682908154906001600160601b0360a01b9060a01b169060018060a01b0316179055565b019751161682198754161786555116849064ffffffffff60281b82549160281b169064ffffffffff60281b1916179055565b518254915163ffffffff60501b1990921660509190911b62ffffff60501b161790151560681b60ff60681b1617905560009081526006602052604090206001019064ffffffffff60281b82549160281b169064ffffffffff60281b1916179055565b6040519283523360208401526040830152606082015260006080820152a1565b505050565b6106ec5738612e97565b9062ffffff8091169116019062ffffff821161091e57565b906001600160601b03809116911602906001600160601b03821691820361091e57565b64ffffffffff168060005260066020526040600020906040516130cf81612bb2565b6001835493818060a01b0385168352602083019460a01c855201549264ffffffffff8416926040830190848252606084019064ffffffffff8760281c16825262ffffff8760501c16608086019681885260ff60a088019960681c16151590818a52151560001461351f57505064ffffffffff83511660005260066020528064ffffffffff60016040600020015460281c16036134bd578651156134d85762ffffff865116600052600760205264ffffffffff604060002054168181111590816134ce575b50156134bd575b84516001600160a01b031633036134ac5764ffffffffff83511680613466575b5064ffffffffff82511680613431575b5086511561333457602094928694926132279262ffffff6132be9951166000526007885264ffffffffff60406000205416146132f4575b62ffffff8651166000526007875264ffffffffff80604060002093511691511691614ace565b6019549151601554915193516001600160a01b03918216949382169392909116916000916132a0916132679162ffffff16906001600160601b031661308a565b62ffffff61329581613289600f54946001600160601b038660301c1690612ade565b1661070d601354612d89565b9160901c1690612abe565b604051633af55cc760e11b8152968795869485939160048501612c7d565b03925af180156107f9576132d5575b505b51151590565b6132ed9060203d6020116107f2576107e38183612be3565b50386132cd565b62ffffff86511660005260078752604060002061331a64ffffffffff83511680926148b4565b506132015761332e62ffffff875116614991565b50613201565b916133849162ffffff8760209795826133c39a51166000526008895264ffffffffff60406000205416146133f7575b51166000526008865264ffffffffff80604060002093511691511691614ace565b601954905160145492516012546001600160a01b039283169493831693909216916000916132a091612e75916001600160601b03169061070d90612d89565b03925af180156107f9576133d8575b506132cf565b6133f09060203d6020116107f2576107e38183612be3565b50386133d2565b8181511660005260088852604060002061341a64ffffffffff85511680926148b4565b506133635761342b828251166148f2565b50613363565b64ffffffffff84511690600052600660205264ffffffffff6001604060002001911664ffffffffff19825416179055386131ca565b6134a69064ffffffffff84511690600052600660205260016040600020019064ffffffffff60281b82549160281b169064ffffffffff60281b1916179055565b386131ba565b63a0cdd78160e01b60005260046000fd5b63020a7dc960e61b60005260046000fd5b9050151538613193565b62ffffff865116600052600860205264ffffffffff60406000205416818111159081613515575b5061319a5763020a7dc960e61b60005260046000fd5b90501515386134ff565b15613559575062ffffff86511660005260076020528064ffffffffff60406000205416031561319a5763020a7dc960e61b60005260046000fd5b60005260086020528064ffffffffff60406000205416031561319a5763020a7dc960e61b60005260046000fd5b61062e61359c9162ffffff610627601354612d89565b90565b601c600060649281946020966040519860605260405260601b602c526323b872dd60601b600c525af13d156001600051141716156135e1576000606052604052565b637939f4246000526004601cfd5b906001600160601b03809116911603906001600160601b03821161091e57565b9190820391821161091e57565b9190820180921161091e57565b600080808060018060a01b0360195416613643863461360f565b905af161364e612c26565b501561366d57600080808093335af1613665612c26565b501561366d57565b63386bf62b60e11b60005260046000fd5b60008052600b60205261369660006040812054615465565b6001810161373e575060008052600a6020526136b760006040812054615465565b6001810161372157506136cd6000600954615465565b600181016136db5750600090565b80600052600a60205260ff6136f460406000205461548e565b169060081b1780600052600b60205262ffffff60ff61371760406000205461548e565b169160081b161790565b80600052600b60205262ffffff60ff61371760406000205461548e565b62ffffff1690565b8060081c9060ff811660ff81036137f6575b5060ff9060101c1660ff821660ff81036137b0575b5060ff91501660ff8103613782575b50600090565b61378e90600954615465565b600181011561377c5780600052600a60205260ff6136f460406000205461548e565b6137c89082600052600a602052604060002054615465565b91600183011561376d5761ff009150161780600052600b60205262ffffff60ff61371760406000205461548e565b6138129061ffff8416600052600b602052604060002054615465565b60018101156137585762ffffff1662ffff0090911617919050565b60008052600e60205261384560006040812054615465565b6001810161373e575060008052600d60205261386660006040812054615465565b600181016138c6575061387c6000600c54615465565b6001810161388a5750600090565b80600052600d60205260ff6138a360406000205461548e565b169060081b1780600052600e60205262ffffff60ff61371760406000205461548e565b80600052600e60205262ffffff60ff61371760406000205461548e565b8060081c9060ff811660ff8103613992575b5060ff9060101c1660ff821660ff810361394c575b5060ff91501660ff810361391e5750600090565b61392a90600c54615465565b600181011561377c5780600052600d60205260ff6138a360406000205461548e565b6139649082600052600d602052604060002054615465565b91600183011561390a5761ff009150161780600052600e60205262ffffff60ff61371760406000205461548e565b6139ae9061ffff8416600052600e602052604060002054615465565b60018101156138f55762ffffff1662ffff0090911617919050565b638b78c6d8195433036139d857565b6382b429006000526004601cfd5b612e7561359c916001600160601b03610627601254612d89565b600092918391613a0e6146c3565b90956060925b6001600160601b03811680151580613f1c575b80613f0f575b15613d59578190848a80613d42575b60009015613cec57505060015490600454906001600160601b038260601c1660025495613a726001600160601b038816836135ef565b926001600160601b03841611918215613ce357819788935b15613c045750506000805160206157f3833981519152935090613ad3916002546001600160601b03613abe83828416612d0c565b16906001600160601b031916176002556135ef565b92613b46613ae1828861561c565b96613af78160018060a01b0360005416956135ef565b6040805160008082526001600160a01b0390971660208201529081019590955260608501939093526001600160601b0392831660808501523360a085015290911660c0830152819060e0820190565b0390a191935b8299600014613ba6575091613b85613b6b613b8b93613b9196956135ef565b6001546001600160601b0380600f5460301c1692166153ff565b9061361c565b92612d2c565b92613b9a6146c3565b91909694929094613a14565b613bf762ffffff91613bc2613bfe95613b919897999b956135ef565b906001600160601b038085670de0b6b3a7640000613be9600f5495838760901c1690612aab565b04169260301c1692166153ff565b1690613072565b94612d2c565b9092506001600160601b0319166002556001600160601b0382811960055416178060055560601c16906107d06001600160601b03613c4184612cd0565b169384810294818604149015170215613cd557613cc9613c9b89936000805160206157f383398151915297613ad3966107d06001600160601b0360601b910460601b16906001600160601b0360601b191617600455612cee565b610830613ca789612a93565b6b7fffffffffffffffffffffff6001600160601b0384169360011c169061361c565b600155856003556135ef565b63ad251c276000526004601cfd5b83978893613a8a565b613d3992509060406001600160601b039592670de0b6b3a7640000613d2a62ffffff82613d2182600f5460901c168098612aab565b0416948b612aab565b04815260076020522090614ebd565b92169193613b4c565b506001600160601b0360045460601c161515613a3c565b509490965062ffffff9150168015801590613f06575b613d7f5750505090915090600090565b613db7613d9561062e6013549361070d85612d89565b670de0b6b3a7640000613db0613daa85612d89565b8a612aab565b049061361c565b9580613e7e575b505060105480613e35575b50601954601554604051600094602094613e05946001600160a01b0390811694610d20949361078992859261077b92918f911633858d01612ca6565b03925af180156107f957613e1857509190565b613e309060203d6020116107f2576107e38183612be3565b509190565b600092610d2087602094613e70613e6886613e5961081c613e05996108309f615443565b9c8d9561070d6011548461360f565b60175461361c565b601755945050509250613dc9565b6019546000546015546001600160a01b039081169491811693921691670de0b6b3a764000091613eb2919061070d90612d89565b0490803b156101be57613ee0936000809460405196879586948593633609c92960e11b855260048501612c04565b03925af180156107f957613ef5575b80613dbe565b6000613f0091612be3565b38613eef565b50851515613d6f565b5062ffffff841415613a2d565b5062ffffff600f5460901c1660009015611bfe57506001613a27565b9190600080918194613f486146c3565b90966060935b6001600160601b0381169081151580614372575b80614365575b156141bc57869181908b806141a5575b1561414c57600154600454926001600160601b038460601c1660025494613fa86001600160601b038716836135ef565b946001600160601b0386161195866000146141455783965b1561407a5750505090614018613ff8856000805160206157f383398151915295946002546001600160601b03613abe83828416612d0c565b94613af781614007858261561c565b99546001600160a01b0316956135ef565b0390a191935b829a600014614058575091613b85613b6b61403d9361404396956135ef565b93612d2c565b9361404c6146c3565b90979593909195613f4e565b613bf762ffffff91613bc26140749561404398979a9c956135ef565b95612d2c565b9091929394959697506001600160601b0319166002556001600160601b0382811960055416178060055560601c16916107d06001600160601b036140bd85612cd0565b16918281029281840414901517021561413857868d9897969461412c6141206000805160206157f3833981519152989661401896613ff8966107d06001600160601b0360601b910460601b16906001600160601b0360601b191617600455612cee565b610830613ca788612a93565b600155846003556135ef565b63ad251c278d526004601cfd5b8596613fc0565b506001600160601b03925061419c9062ffffff600f5460901c16670de0b6b3a764000061418a62ffffff82614181858c612aab565b04169289612aab565b048a52600760205260408a2090614ebd565b9216919361401e565b506001600160601b0360045460601c161515613f78565b9692505093965062ffffff91501691821580159061435c575b6141e0575050509190565b90859295916142166141fb61062e6013549961070d8b612d89565b670de0b6b3a7640000613db06142108b612d89565b85612aab565b96816142ba575b50506142646020916010548881614285575b6019546015546040516001600160a01b039283169561078e95509093909261078992859261077b9260019216338c8601612ca6565b03925af19081156142795750613e1857509190565b604051903d90823e3d90fd5b816108306142a361429c6142b095613e6895615443565b809d61360f565b9b61070d6011548461360f565b601755388861422f565b60195485546015549495506001600160a01b039081169491811693911691670de0b6b3a7640000916142ef9161070d90612d89565b0492823b15614358579161431e939186809460405196879586948593633609c92960e11b855260048501612c04565b03925af1801561434d57614336575b9081839261421d565b8261434661426494602093612be3565b925061432d565b6040513d85823e3d90fd5b8580fd5b508015156141d5565b5062ffffff841415613f68565b5062ffffff8516670de0b6b3a7640000810290808204670de0b6b3a764000014901517156143b7576143af9062ffffff600f5460901c1690612abe565b841015613f62565b634e487b7160e01b88526011600452602488fd5b6019546000936001600160a01b039091169190823b15614435579161440b939185809460405196879586948593633609c92960e11b855260048501612c04565b03925af1801561442a5761441d575050565b8161442791612be3565b50565b6040513d84823e3d90fd5b8480fd5b8060081c9061ffff821680600052600b60205260406000205490600160ff84161b82179081830361446e575050505050600090565b600052600b60205260406000205515614489575b5050600190565b60101c60ff9081166000818152600a6020526040902080546001949093169390931b8217909255156144bc575b80614482565b60ff600191161b60095417600955386144b6565b8060081c9061ffff821680600052600e60205260406000205490600160ff84161b821790818303614505575050505050600090565b600052600e6020526040600020551561451f575050600190565b60101c60ff9081166000818152600d6020526040902080546001949093169390931b8217909255156145515780614482565b60ff600191161b600c5417600c55386144b6565b805460281c64ffffffffff1691826145a557815469ffffffffffffffffffff191664ffffffffff82161760289190911b64ffffffffff60281b1617905590565b815469ffffffffff0000000000191660289190911b64ffffffffff60281b1617905590565b926001612d7194612fe164ffffffffff868180866040516145ea81612bb2565b3381526001600160601b03602082019b168b52612faf6001600160601b0384604084019c169c8d8d5285606085019860008a5262ffffff608087019d168d5260a086019d8e52166000526006602052604060002093858060a01b0390868060a01b03905116168260a01b855416178455511682908154906001600160601b0360a01b9060a01b169060018060a01b0316179055565b60018060a01b031680638b78c6d819547f8be0079c531659141344cd1fd0a4f28419497f9722a3daafe3b4186f6b6457e0600080a3801560ff1b17638b78c6d81955565b62ffffff6146cf61554e565b1662ffffff81036146f657506001549081156146eb5760019190565b6000915062ffffff90565b6001548061473a5750670de0b6b3a7640000810290808204670de0b6b3a7640000149015171561091e576147359062ffffff600f5460901c1690612abe565b600091565b9190670de0b6b3a7640000810290808204670de0b6b3a7640000149015171561091e5762ffffff600f5460901c166147728183612abe565b600092908581188187110218850361478d5750505060019190565b91935061359c91612abe565b62ffffff6147a561382d565b16801580156147cb5750506003549060001982146147c35760019190565b600091508190565b6003546001810161480a5750670de0b6b3a76400008202918204670de0b6b3a764000014171561091e576147359062ffffff600f5460901c1690612abe565b929190670de0b6b3a76400008202918204670de0b6b3a764000014171561091e5762ffffff600f5460901c166148408183612abe565b600092908581188187100218850361478d5750505060019190565b62ffffff906001600160601b0380600f5460301c169283921693169283810293818504149015170215613cd557808204910615150162ffffff8110156148a35762ffffff1690565b630b25243160e01b60005260046000fd5b9064ffffffffff8116156148db5764ffffffffff1664ffffffffff19825416179055600090565b50805469ffffffffffffffffffff19169055600190565b8060081c9061ffff821680600052600e60205260406000205490600160ff84161b1982168092036149265750505050600090565b600052600e6020528060406000205515614941575050600190565b60ff9060101c169081600052600d602052600160ff60406000205492161b191681600052600d602052806040600020551561497c5780614482565b60ff600191161b19600c5416600c55386144b6565b8060081c9061ffff821680600052600b60205260406000205490600160ff84161b1982168092036149c55750505050600090565b600052600b60205280604060002055156149e0575050600190565b60ff9060101c169081600052600a602052600160ff60406000205492161b191681600052600a6020528060406000205515614a1b5780614482565b60ff600191161b1960095416600955386144b6565b908060081c9061ffff821660028401816000528060205260406000205491600160ff85161b198316809303614a6a57505050505050600090565b6000526020528060406000205515614a85575b505050600190565b60101c60ff9081166000818152600185810160205260409091208054949093161b199092169081905515614aba575b80614a7d565b60ff600191161b1981541690553880614ab4565b9164ffffffffff9081831615614b0d575b1615614ae9575050565b815469ffffffffff0000000000191660289190911b64ffffffffff60281b16179055565b8181168219855416178455614adf565b90919260609064ffffffffff8454165b6001600160601b03861680151580614ead575b15614e805760009164ffffffffff6001604082841695868152600660205220015460281c169083600052600660205260406000205460a01c928360009111600014614e7a5750614b90838a6135ef565b985b6000916001600160601b038b16159485614e66575b50600086815260066020526040812060018101549054614c859260689290921c60ff1615916001600160a01b0391909116908815614e50575084915b89600052600660205262ffffff60016040600020015460501c169181600014614e3e576015546001600160a01b0316935b8215614e1857614c2484826157e0565b935b60609315614df25750612710614c63614c5a612e7560018060a01b0360145416946001600160601b03610627601254612d89565b60115490612aab565b04905b81614dcc575b505061077b610789929360405195869360208501612c7d565b948015614da3575b614d5a575b506000858152600660205260409020805460019190910154670de0b6b3a7640000605082901c62ffffff16818102989360689390931c60ff1615926001600160a01b0316918115918a0414171561091e576001600160601b036000805160206157f38339815191529560e0958f94614d238496614d1d614d539e62ffffff600f5460901c1690612abe565b936135ef565b946040519788526020880152604087015260608601521660808401523360a08401521660c0820152a19693612d2c565b9194614b2d565b6001600160601b038316614d9b575b50600085815260066020526040902080546001600160a01b031660a084901b6001600160a01b03191617905538614c92565b925038614d69565b5083158015614c8d575085600052600660205264ffffffffff6001604060002001541615614c8d565b610789935090614dec61077b9261238f6040519384928760208501612c7d565b92614c6c565b6015546001600160a01b03169161271091614e1191614c5a91906157e0565b0490614c66565b614e38612e75614e29601254612d89565b6001600160601b038416612aab565b93614c26565b6014546001600160a01b031693614c14565b808a604092526006602052205460a01c91614be3565b614e7391935082906135ef565b9138614ba7565b98614b92565b50614e968164ffffffffff9396979594976148b4565b501615614ea257509190565b613e3090600c614a30565b5064ffffffffff82161515614b40565b90919260609064ffffffffff8454165b6001600160601b0386168015158061511a575b156150ed5760009164ffffffffff6001604082841695868152600660205220015460281c169083600052600660205260406000205460a01c9283600091116000146150e75750614f30838a6135ef565b985b6000916001600160601b038b161594856150d3575b50600086815260066020526040812060018101549054614fc29260689290921c60ff1615916001600160a01b0391909116908815614e505750849189600052600660205262ffffff60016040600020015460501c169181600014614e3e576015546001600160a01b0316938215614e1857614c2484826157e0565b9480156150aa575b615061575b506000858152600660205260409020805460019190910154670de0b6b3a7640000605082901c62ffffff16818102989360689390931c60ff1615926001600160a01b0316918115918a0414171561091e576001600160601b036000805160206157f38339815191529560e0958f94614d238496614d1d61505a9e62ffffff600f5460901c1690612abe565b9194614ecd565b6001600160601b0383166150a2575b50600085815260066020526040902080546001600160a01b031660a084901b6001600160a01b03191617905538614fcf565b925038615070565b5083158015614fca575085600052600660205264ffffffffff6001604060002001541615614fca565b6150e091935082906135ef565b9138614f47565b98614f32565b506151038164ffffffffff9396979594976148b4565b50161561510f57509190565b613e30906009614a30565b5064ffffffffff82161515614ee0565b90600354906005546001600160601b03811690600454946151546001600160601b038716846135ef565b926001600160601b0384166001600160601b0383161092836000146153f657829788945b156152eb57505050916001600160601b036151bd60e0936000805160206157f383398151915295600454846151af83828416612d0c565b1690851916176004556135ef565b6015549097908290615273906001600160a01b03166000670de0b6b3a76400006152086151fd6151ef8789168f612aab565b87600f5460301c1690612abe565b61070d601354612d89565b0460609060018060a01b0360145416612710615244614c5a61523661522e601254612d89565b8b8d16612aab565b8a600f5460301c1690612abe565b04806152b8575b5050915460405193919261078992859261077b9291906001600160a01b031660208501612c7d565b976152898360018060a01b0360005416966135ef565b90604051956000875260208701526001604087015260608601521660808401523360a08401521660c0820152a1565b8454604051610789955061077b9390926152e592849261238f92916001600160a01b031660208501612c7d565b9261524b565b90919293506001600160601b0360601b8260601b16906001600160401b0360c01b16176004556001600160601b03615327818360601c16612cd0565b16806107d08402936107d0818604149015170215613cd55782816001600160601b03949285930491061515011690821916178060055560601c169161537d6001600160601b0361537685612cee565b1686612aab565b6101f4810180911161091e576103e890046003556002546001600160601b036153a881831695612cee565b1693846103e88202916103e8818404149015170215613cd5578760e0946001600160601b0393846000805160206157f3833981519152986151bd9504169085191617600255886001556135ef565b84978894615178565b8181029181159183041417820215613cd5570490565b8181029181159183041417670de0b6b3a76400000215613cd557670de0b6b3a7640000808204910615150190565b81810291811591830414176127100215613cd557612710808204910615150190565b600190910160ff1690811c908161547e57505060001990565b61548960ff9261548e565b011690565b6000908060801b80615542575b508060401b80615535575b508060201b80615528575b508060101b8061551b575b508060081b8061550e575b508060041b80615501575b508060021b806154f4575b5060011b6154ec575b60ff0390565b6001016154e6565b60029150910190386154dd565b60049150910190386154d2565b60089150910190386154c7565b60109150910190386154bc565b60209150910190386154b1565b60409150910190386154a6565b9150506080903861549b565b61ffff600052600b60205261556960ff6040600020546156f2565b6001810161560f575060ff600052600a60205261558c60ff6040600020546156f2565b600181016155ee57506155a260ff6009546156f2565b600181016155b2575062ffffff90565b80600052600a60205260ff6155cb604060002054615720565b169060081b1780600052600b60205262ffffff60ff613717604060002054615720565b61ff001780600052600b60205262ffffff60ff613717604060002054615720565b62ffff001762ffffff1690565b9061359c9160018060a01b036014541691600091612710615692670de0b6b3a76400006156886151fd612e75615668612e75615659601254612d89565b6001600160601b038a16612aab565b97606099506001600160601b0360018060a01b0360155416981690612aab565b0460115490612aab565b04806156bf575b50506000546040519361078992859261077b92906001600160a01b031660208501612c7d565b60005460405193945061078993926156ea92849261238f92906001600160a01b031660208501612c7d565b919038615699565b60001990910160ff90811681031690811b8061571057505060001990565b61571b60ff91615720565b160390565b906000916fffffffffffffffffffffffffffffffff81116157d5575b806001600160401b03600192116157c9575b63ffffffff81116157bd575b61ffff81116157b1575b60ff81116157a5575b600f8111615799575b6003811161578d575b1161578657565b9060010190565b6002938401931c61577f565b6004938401931c615776565b6008938401931c61576d565b6010938401931c615764565b6020938401931c61575a565b6040938401931c61574e565b60809250821c61573c565b6132679062ffffff61359c931661308a56fe06029dfae141718336c21b1bb8cd746dc87a38baa63c413c40fa24b807b7cc05de65ec26e567cef1936a693231b33b08ce40fca66ce0e78b38d938048c7a0891a26469706673582212201bb9eecbe24753b63adea0871516bfe50c3b043ad21b199efc424cc0eef6526464736f6c634300081b0033",
    "linkReferences": {}
  },
  "methodIdentifiers": {
    "addBuyOrder(uint24,uint96,bool)": "cc57aec6",
    "addSellOrder(uint24,uint96,bool)": "5b16c9b6",
    "batchCancelOrders(uint40[])": "23afbff3",
    "batchUpdate(uint24[],uint96[],uint24[],uint96[],uint40[],bool)": "20b3fa5c",
    "bestBidAsk()": "b4de8b70",
    "cancelOwnershipHandover()": "54d1f13d",
    "collectFees()": "c8796572",
    "completeOwnershipHandover(address)": "f04e283e",
    "getL2Book()": "46fdfbb1",
    "getMarketParams()": "90c9427c",
    "getVaultParams()": "88bb4f60",
    "initialize(address,uint8,address,uint256,address,uint256,address,uint96,uint24,uint24,uint96,uint96,uint256,uint256,address,uint96)": "137fc7bb",
    "owner()": "8da5cb5b",
    "ownershipHandoverExpiresAt(address)": "fee81cf4",
    "placeAndExecuteMarketBuy(uint24,uint256,bool,bool)": "3c133765",
    "placeAndExecuteMarketSell(uint96,uint256,bool,bool)": "532c46db",
    "placeMultipleBuyOrders(uint24[],uint96[],bool)": "bb62b3c5",
    "placeMultipleSellOrders(uint24[],uint96[],bool)": "d2cd7d7f",
    "proxiableUUID()": "52d1902d",
    "renounceOwnership()": "715018a6",
    "requestOwnershipHandover()": "25692962",
    "s_buyPricePoints(uint256)": "e6d29b51",
    "s_buyTree()": "badc92d1",
    "s_orderIdCounter()": "2bf1360e",
    "s_orders(uint40)": "1c0d9c22",
    "s_sellPricePoints(uint256)": "0e2e2ffe",
    "s_sellTree()": "02b90c65",
    "toggleMarkets(bool)": "4d781103",
    "transferOwnership(address)": "f2fde38b",
    "updateVaultOrdSz(uint96,uint96,uint256,uint256)": "e55bb4e3",
    "upgradeToAndCall(address,bytes)": "4f1ef286",
    "vaultAskOrderSize()": "51130ac6",
    "vaultBestAsk()": "474b848c"
  },
  "id": 5
}