{
  "_format": "hh-sol-artifact-1",
  "contractName": "OrderBook",
  "sourceName": "contracts/OrderBook.sol",
  "abi": [
    {
      "inputs": [],
      "stateMutability": "nonpayable",
      "type": "constructor"
    },
    {
      "anonymous": false,
      "inputs": [
        {
          "indexed": false,
          "internalType": "address",
          "name": "previousAdmin",
          "type": "address"
        },
        {
          "indexed": false,
          "internalType": "address",
          "name": "newAdmin",
          "type": "address"
        }
      ],
      "name": "AdminChanged",
      "type": "event"
    },
    {
      "anonymous": false,
      "inputs": [
        {
          "indexed": true,
          "internalType": "address",
          "name": "beacon",
          "type": "address"
        }
      ],
      "name": "BeaconUpgraded",
      "type": "event"
    },
    {
      "anonymous": false,
      "inputs": [
        {
          "indexed": false,
          "internalType": "uint8",
          "name": "version",
          "type": "uint8"
        }
      ],
      "name": "Initialized",
      "type": "event"
    },
    {
      "anonymous": false,
      "inputs": [
        {
          "indexed": false,
          "internalType": "uint40",
          "name": "orderId",
          "type": "uint40"
        },
        {
          "indexed": false,
          "internalType": "address",
          "name": "owner",
          "type": "address"
        },
        {
          "indexed": false,
          "internalType": "uint96",
          "name": "size",
          "type": "uint96"
        },
        {
          "indexed": false,
          "internalType": "uint24",
          "name": "price",
          "type": "uint24"
        },
        {
          "indexed": false,
          "internalType": "bool",
          "name": "isBuy",
          "type": "bool"
        }
      ],
      "name": "OrderCreated",
      "type": "event"
    },
    {
      "anonymous": false,
      "inputs": [
        {
          "indexed": false,
          "internalType": "uint40[]",
          "name": "orderId",
          "type": "uint40[]"
        }
      ],
      "name": "OrdersCanceled",
      "type": "event"
    },
    {
      "anonymous": false,
      "inputs": [
        {
          "indexed": false,
          "internalType": "uint40[]",
          "name": "orderIds",
          "type": "uint40[]"
        },
        {
          "indexed": false,
          "internalType": "uint96[]",
          "name": "updatedSizes",
          "type": "uint96[]"
        }
      ],
      "name": "OrdersUpdated",
      "type": "event"
    },
    {
      "anonymous": false,
      "inputs": [
        {
          "indexed": true,
          "internalType": "address",
          "name": "previousOwner",
          "type": "address"
        },
        {
          "indexed": true,
          "internalType": "address",
          "name": "newOwner",
          "type": "address"
        }
      ],
      "name": "OwnershipTransferred",
      "type": "event"
    },
    {
      "anonymous": false,
      "inputs": [
        {
          "indexed": false,
          "internalType": "uint40",
          "name": "orderId",
          "type": "uint40"
        },
        {
          "indexed": false,
          "internalType": "uint96",
          "name": "updatedSize",
          "type": "uint96"
        },
        {
          "indexed": false,
          "internalType": "address",
          "name": "takerAddress",
          "type": "address"
        },
        {
          "indexed": false,
          "internalType": "uint96",
          "name": "filledSize",
          "type": "uint96"
        }
      ],
      "name": "Trade",
      "type": "event"
    },
    {
      "anonymous": false,
      "inputs": [
        {
          "indexed": true,
          "internalType": "address",
          "name": "implementation",
          "type": "address"
        }
      ],
      "name": "Upgraded",
      "type": "event"
    },
    {
      "inputs": [
        {
          "internalType": "uint24",
          "name": "_price",
          "type": "uint24"
        },
        {
          "internalType": "uint96",
          "name": "size",
          "type": "uint96"
        }
      ],
      "name": "addBuyOrder",
      "outputs": [],
      "stateMutability": "nonpayable",
      "type": "function"
    },
    {
      "inputs": [
        {
          "internalType": "uint24",
          "name": "_price",
          "type": "uint24"
        },
        {
          "internalType": "uint96",
          "name": "size",
          "type": "uint96"
        }
      ],
      "name": "addSellOrder",
      "outputs": [],
      "stateMutability": "nonpayable",
      "type": "function"
    },
    {
      "inputs": [
        {
          "internalType": "uint40[]",
          "name": "_orderIds",
          "type": "uint40[]"
        }
      ],
      "name": "batchCancelOrders",
      "outputs": [],
      "stateMutability": "nonpayable",
      "type": "function"
    },
    {
      "inputs": [
        {
          "internalType": "uint40[]",
          "name": "_orderIds",
          "type": "uint40[]"
        },
        {
          "internalType": "uint96[]",
          "name": "_updatedSizes",
          "type": "uint96[]"
        },
        {
          "internalType": "bool",
          "name": "_useMargin",
          "type": "bool"
        }
      ],
      "name": "decreaseOrders",
      "outputs": [],
      "stateMutability": "nonpayable",
      "type": "function"
    },
    {
      "inputs": [
        {
          "internalType": "address",
          "name": "_maker",
          "type": "address"
        }
      ],
      "name": "getActiveOrdersForAddress",
      "outputs": [
        {
          "internalType": "bytes",
          "name": "",
          "type": "bytes"
        }
      ],
      "stateMutability": "view",
      "type": "function"
    },
    {
      "inputs": [],
      "name": "getBaseAssetDecimals",
      "outputs": [
        {
          "internalType": "uint256",
          "name": "",
          "type": "uint256"
        }
      ],
      "stateMutability": "view",
      "type": "function"
    },
    {
      "inputs": [],
      "name": "getL2Book",
      "outputs": [
        {
          "internalType": "bytes",
          "name": "",
          "type": "bytes"
        }
      ],
      "stateMutability": "view",
      "type": "function"
    },
    {
      "inputs": [],
      "name": "getMarketParams",
      "outputs": [
        {
          "internalType": "uint24",
          "name": "",
          "type": "uint24"
        },
        {
          "internalType": "uint96",
          "name": "",
          "type": "uint96"
        },
        {
          "internalType": "address",
          "name": "",
          "type": "address"
        },
        {
          "internalType": "uint256",
          "name": "",
          "type": "uint256"
        },
        {
          "internalType": "address",
          "name": "",
          "type": "address"
        },
        {
          "internalType": "uint256",
          "name": "",
          "type": "uint256"
        }
      ],
      "stateMutability": "view",
      "type": "function"
    },
    {
      "inputs": [],
      "name": "getPricePrecision",
      "outputs": [
        {
          "internalType": "uint24",
          "name": "",
          "type": "uint24"
        }
      ],
      "stateMutability": "view",
      "type": "function"
    },
    {
      "inputs": [],
      "name": "getQuoteAssetDecimals",
      "outputs": [
        {
          "internalType": "uint256",
          "name": "",
          "type": "uint256"
        }
      ],
      "stateMutability": "view",
      "type": "function"
    },
    {
      "inputs": [],
      "name": "getSizePrecision",
      "outputs": [
        {
          "internalType": "uint96",
          "name": "",
          "type": "uint96"
        }
      ],
      "stateMutability": "view",
      "type": "function"
    },
    {
      "inputs": [
        {
          "internalType": "address",
          "name": "_owner",
          "type": "address"
        },
        {
          "internalType": "address",
          "name": "_baseAssetAddress",
          "type": "address"
        },
        {
          "internalType": "uint256",
          "name": "_baseAssetDecimals",
          "type": "uint256"
        },
        {
          "internalType": "address",
          "name": "_quoteAssetAddress",
          "type": "address"
        },
        {
          "internalType": "uint256",
          "name": "_quoteAssetDecimals",
          "type": "uint256"
        },
        {
          "internalType": "address",
          "name": "_marginAccountAddress",
          "type": "address"
        },
        {
          "internalType": "uint96",
          "name": "_sizePrecision",
          "type": "uint96"
        },
        {
          "internalType": "uint24",
          "name": "_pricePrecision",
          "type": "uint24"
        },
        {
          "internalType": "uint96",
          "name": "_tickSize",
          "type": "uint96"
        },
        {
          "internalType": "uint96",
          "name": "_minSize",
          "type": "uint96"
        },
        {
          "internalType": "uint96",
          "name": "_maxSize",
          "type": "uint96"
        },
        {
          "internalType": "uint256",
          "name": "_takerFeeBps",
          "type": "uint256"
        }
      ],
      "name": "initialize",
      "outputs": [],
      "stateMutability": "nonpayable",
      "type": "function"
    },
    {
      "inputs": [],
      "name": "owner",
      "outputs": [
        {
          "internalType": "address",
          "name": "",
          "type": "address"
        }
      ],
      "stateMutability": "view",
      "type": "function"
    },
    {
      "inputs": [],
      "name": "pauseMarkets",
      "outputs": [],
      "stateMutability": "nonpayable",
      "type": "function"
    },
    {
      "inputs": [
        {
          "internalType": "uint24",
          "name": "_quoteSize",
          "type": "uint24"
        },
        {
          "internalType": "bool",
          "name": "_isFillOrKill",
          "type": "bool"
        }
      ],
      "name": "placeAndExecuteMarketBuy",
      "outputs": [
        {
          "internalType": "uint256",
          "name": "",
          "type": "uint256"
        }
      ],
      "stateMutability": "nonpayable",
      "type": "function"
    },
    {
      "inputs": [
        {
          "internalType": "uint96",
          "name": "_size",
          "type": "uint96"
        },
        {
          "internalType": "bool",
          "name": "_isFillOrKill",
          "type": "bool"
        }
      ],
      "name": "placeAndExecuteMarketSell",
      "outputs": [
        {
          "internalType": "uint256",
          "name": "",
          "type": "uint256"
        }
      ],
      "stateMutability": "nonpayable",
      "type": "function"
    },
    {
      "inputs": [
        {
          "internalType": "uint24[]",
          "name": "_prices",
          "type": "uint24[]"
        },
        {
          "internalType": "uint96[]",
          "name": "_sizes",
          "type": "uint96[]"
        }
      ],
      "name": "placeMultipleBuyOrders",
      "outputs": [],
      "stateMutability": "nonpayable",
      "type": "function"
    },
    {
      "inputs": [
        {
          "internalType": "uint24[]",
          "name": "_prices",
          "type": "uint24[]"
        },
        {
          "internalType": "uint96[]",
          "name": "_sizes",
          "type": "uint96[]"
        }
      ],
      "name": "placeMultipleSellOrders",
      "outputs": [],
      "stateMutability": "nonpayable",
      "type": "function"
    },
    {
      "inputs": [],
      "name": "proxiableUUID",
      "outputs": [
        {
          "internalType": "bytes32",
          "name": "",
          "type": "bytes32"
        }
      ],
      "stateMutability": "view",
      "type": "function"
    },
    {
      "inputs": [],
      "name": "renounceOwnership",
      "outputs": [],
      "stateMutability": "nonpayable",
      "type": "function"
    },
    {
      "inputs": [
        {
          "internalType": "uint256",
          "name": "",
          "type": "uint256"
        }
      ],
      "name": "s_buyPricePoints",
      "outputs": [
        {
          "internalType": "uint40",
          "name": "head",
          "type": "uint40"
        },
        {
          "internalType": "uint40",
          "name": "tail",
          "type": "uint40"
        }
      ],
      "stateMutability": "view",
      "type": "function"
    },
    {
      "inputs": [],
      "name": "s_buyTree",
      "outputs": [
        {
          "internalType": "bytes32",
          "name": "level0",
          "type": "bytes32"
        }
      ],
      "stateMutability": "view",
      "type": "function"
    },
    {
      "inputs": [],
      "name": "s_orderIdCounter",
      "outputs": [
        {
          "internalType": "uint40",
          "name": "",
          "type": "uint40"
        }
      ],
      "stateMutability": "view",
      "type": "function"
    },
    {
      "inputs": [
        {
          "internalType": "uint40",
          "name": "",
          "type": "uint40"
        }
      ],
      "name": "s_orders",
      "outputs": [
        {
          "internalType": "address",
          "name": "ownerAddress",
          "type": "address"
        },
        {
          "internalType": "uint96",
          "name": "size",
          "type": "uint96"
        },
        {
          "internalType": "uint40",
          "name": "prev",
          "type": "uint40"
        },
        {
          "internalType": "uint40",
          "name": "next",
          "type": "uint40"
        },
        {
          "internalType": "uint24",
          "name": "price",
          "type": "uint24"
        },
        {
          "internalType": "bool",
          "name": "isBuy",
          "type": "bool"
        }
      ],
      "stateMutability": "view",
      "type": "function"
    },
    {
      "inputs": [
        {
          "internalType": "uint256",
          "name": "",
          "type": "uint256"
        }
      ],
      "name": "s_sellPricePoints",
      "outputs": [
        {
          "internalType": "uint40",
          "name": "head",
          "type": "uint40"
        },
        {
          "internalType": "uint40",
          "name": "tail",
          "type": "uint40"
        }
      ],
      "stateMutability": "view",
      "type": "function"
    },
    {
      "inputs": [],
      "name": "s_sellTree",
      "outputs": [
        {
          "internalType": "bytes32",
          "name": "level0",
          "type": "bytes32"
        }
      ],
      "stateMutability": "view",
      "type": "function"
    },
    {
      "inputs": [
        {
          "internalType": "address",
          "name": "newOwner",
          "type": "address"
        }
      ],
      "name": "transferOwnership",
      "outputs": [],
      "stateMutability": "nonpayable",
      "type": "function"
    },
    {
      "inputs": [
        {
          "internalType": "address",
          "name": "newImplementation",
          "type": "address"
        }
      ],
      "name": "upgradeTo",
      "outputs": [],
      "stateMutability": "nonpayable",
      "type": "function"
    },
    {
      "inputs": [
        {
          "internalType": "address",
          "name": "newImplementation",
          "type": "address"
        },
        {
          "internalType": "bytes",
          "name": "data",
          "type": "bytes"
        }
      ],
      "name": "upgradeToAndCall",
      "outputs": [],
      "stateMutability": "payable",
      "type": "function"
    }
  ],
  "bytecode": "0x60a0604052306080523480156200001557600080fd5b506200002062000026565b620000e7565b600054610100900460ff1615620000935760405162461bcd60e51b815260206004820152602760248201527f496e697469616c697a61626c653a20636f6e747261637420697320696e697469604482015266616c697a696e6760c81b606482015260840160405180910390fd5b60005460ff90811614620000e5576000805460ff191660ff9081179091556040519081527f7f26b83ff96e1f2b6a682f133852f6798a09c465da95921460cefb38474024989060200160405180910390a15b565b6080516150106200011f60003960008181610a0a01528181610a8f01528181610e5301528181610ed80152610fc201526150106000f3fe6080604052600436106101c25760003560e01c8063715018a6116100f7578063962f7f9111610095578063d94d043211610064578063d94d043214610627578063e6d29b5114610647578063f2fde38b14610686578063f7fe884f146106a657600080fd5b8063962f7f91146105bb5780639cb1e4ab146105d0578063badc92d1146105f0578063cae22ee61461060757600080fd5b80637ef5e944116100d15780637ef5e944146104e25780638bc75f84146105025780638da5cb5b1461052257806390c9427c1461054a57600080fd5b8063715018a6146104985780637a919ec7146104ad5780637b6966cb146104cd57600080fd5b80632aa9fbdc1161016457806346fdfbb11161013e57806346fdfbb11461042e5780634f1ef2861461045057806352d1902d1461046357806364e5220a1461047857600080fd5b80632aa9fbdc146103ba5780632bf1360e146103da5780633659cfe61461040e57600080fd5b80630e2e2ffe116101a05780630e2e2ffe146102595780631c0d9c22146102b65780631c4f3f311461038357806323afbff31461039a57600080fd5b806302b90c65146101c757806308c8120e146101f157806308ea5bee14610229575b600080fd5b3480156101d357600080fd5b5060cf546101de9081565b6040519081526020015b60405180910390f35b3480156101fd57600080fd5b5060d254600160301b90046001600160601b03166040516001600160601b0390911681526020016101e8565b34801561023557600080fd5b5060d254600160901b900462ffffff1660405162ffffff90911681526020016101e8565b34801561026557600080fd5b506102986102743660046146f2565b60cb6020526000908152604090205464ffffffffff80821691600160281b90041682565b6040805164ffffffffff9384168152929091166020830152016101e8565b3480156102c257600080fd5b506103326102d1366004614720565b60c960205260009081526040902080546001909101546001600160a01b03821691600160a01b90046001600160601b03169064ffffffffff80821691600160281b810490911690600160501b810462ffffff1690600160681b900460ff1686565b604080516001600160a01b0390971687526001600160601b03909516602087015264ffffffffff938416948601949094529116606084015262ffffff166080830152151560a082015260c0016101e8565b34801561038f57600080fd5b506103986106c6565b005b3480156103a657600080fd5b506103986103b5366004614780565b6106e5565b3480156103c657600080fd5b506101de6103d53660046147e3565b610770565b3480156103e657600080fd5b5060d2546103f89064ffffffffff1681565b60405164ffffffffff90911681526020016101e8565b34801561041a57600080fd5b50610398610429366004614831565b610a00565b34801561043a57600080fd5b50610443610b7b565b6040516101e8919061489c565b61039861045e3660046148c5565b610e49565b34801561046f57600080fd5b506101de610fb5565b34801561048457600080fd5b50610398610493366004614987565b61107a565b3480156104a457600080fd5b506103986111be565b3480156104b957600080fd5b506103986104c8366004614a0a565b6111d2565b3480156104d957600080fd5b5060da546101de565b3480156104ee57600080fd5b506104436104fd366004614831565b6114c5565b34801561050e57600080fd5b5061039861051d366004614a3d565b611720565b34801561052e57600080fd5b506033546040516001600160a01b0390911681526020016101e8565b34801561055657600080fd5b5060d25460d65460d95460d75460da5460408051600160901b870462ffffff168152600160301b9096046001600160601b031660208701526001600160a01b0394851690860152606085019290925291909116608083015260a082015260c0016101e8565b3480156105c757600080fd5b5060d9546101de565b3480156105dc57600080fd5b506103986105eb366004614b04565b611973565b3480156105fc57600080fd5b5060cc546101de9081565b34801561061357600080fd5b506101de610622366004614b88565b611a86565b34801561063357600080fd5b50610398610642366004614a0a565b611c8c565b34801561065357600080fd5b506102986106623660046146f2565b60ca6020526000908152604090205464ffffffffff80821691600160281b90041682565b34801561069257600080fd5b506103986106a1366004614831565b611fa4565b3480156106b257600080fd5b506103986106c1366004614987565b612031565b6106ce61216e565b60d2805465ff00000000001916600160281b179055565b60005b818110156107325761071f83838381811061070557610705614ba4565b905060200201602081019061071a9190614720565b6121c8565b508061072a81614bd0565b9150506106e8565b507fff827a141969be714c9574985077e0a90f4a3b4cc9bd4219c7beedbc1fdfc41b8282604051610764929190614c2e565b60405180910390a15050565b60d254600090600160281b900460ff16156107d25760405162461bcd60e51b815260206004820152601b60248201527f4f72646572426f6f6b3a206d61726b657420697320706175736564000000000060448201526064015b60405180910390fd5b60d75460d85460d25460da546000936001600160a01b03908116936323b872dd933393919092169162ffffff600160901b909104169061081390600a614d26565b6108229062ffffff8b16614d32565b61082c9190614d5f565b6040516001600160e01b031960e086901b1681526001600160a01b03938416600482015292909116602483015260448201526064016020604051808303816000875af1158015610880573d6000803e3d6000fd5b505050506040513d601f19601f820116820180604052508101906108a49190614d73565b506108b462ffffff8560006126df565b909450905062ffffff8416156109f75782156109215760405162461bcd60e51b815260206004820152602660248201527f4f72646572426f6f6b3a20696e73756666696369656e7420766f6c756d65206f6044820152656e20626f6f6b60d01b60648201526084016107c9565b60d85460d75460d25460da546001600160a01b03938416936375eab98e933393911691600160901b90910462ffffff169061095d90600a614d26565b61096c9062ffffff8b16614d32565b6109769190614d5f565b6040516001600160e01b031960e086901b1681526001600160a01b0393841660048201529290911660248301526044820152600060648201526084016020604051808303816000875af11580156109d1573d6000803e3d6000fd5b505050506040513d601f19601f820116820180604052508101906109f59190614d73565b505b90505b92915050565b6001600160a01b037f0000000000000000000000000000000000000000000000000000000000000000163003610a8d5760405162461bcd60e51b815260206004820152602c60248201527f46756e6374696f6e206d7573742062652063616c6c6564207468726f7567682060448201526b19195b1959d85d1958d85b1b60a21b60648201526084016107c9565b7f00000000000000000000000000000000000000000000000000000000000000006001600160a01b0316610ae87f360894a13ba1a3210667c828492db98dca3e2076cc3735a920a3ca505d382bbc546001600160a01b031690565b6001600160a01b031614610b535760405162461bcd60e51b815260206004820152602c60248201527f46756e6374696f6e206d7573742062652063616c6c6564207468726f7567682060448201526b6163746976652070726f787960a01b60648201526084016107c9565b610b5c816129e2565b60408051600080825260208201909252610b78918391906129ea565b50565b6060600043604051602001610b9291815260200190565b60405160208183030381529060405290506000610bb160cc6000612b8f565b90505b62ffffff818116141580610bcb575062ffffff8116155b15610cd85762ffffff8116600090815260ca602052604081205464ffffffffff16905b64ffffffffff821615610c595764ffffffffff8216600090815260c96020526040902054610c2c90600160a01b90046001600160601b031682614d90565b64ffffffffff928316600090815260c96020526040902060010154600160281b9004909216919050610bee565b6040805162ffffff851660208201526001600160601b0383168183015281518082038301815260608201909252610c94918691608001614db0565b60408051601f198184030181529190529350610cbb60cc610cb6856001614ddf565b612b8f565b92508262ffffff16600003610cd1575050610cd8565b5050610bb4565b604080516000602082015283910160408051601f1981840301815290829052610d049291602001614db0565b6040516020818303038152906040529150610d2160cf6000612b8f565b90505b62ffffff818116141580610d3b575062ffffff8116155b15610e435762ffffff8116600090815260cb602052604081205464ffffffffff16905b64ffffffffff821615610dc95764ffffffffff8216600090815260c96020526040902054610d9c90600160a01b90046001600160601b031682614d90565b64ffffffffff928316600090815260c96020526040902060010154600160281b9004909216919050610d5e565b6040805162ffffff851660208201526001600160601b0383168183015281518082038301815260608201909252610e04918691608001614db0565b60408051601f198184030181529190529350610e2660cf610cb6856001614ddf565b92508262ffffff16600003610e3c575050610e43565b5050610d24565b50919050565b6001600160a01b037f0000000000000000000000000000000000000000000000000000000000000000163003610ed65760405162461bcd60e51b815260206004820152602c60248201527f46756e6374696f6e206d7573742062652063616c6c6564207468726f7567682060448201526b19195b1959d85d1958d85b1b60a21b60648201526084016107c9565b7f00000000000000000000000000000000000000000000000000000000000000006001600160a01b0316610f317f360894a13ba1a3210667c828492db98dca3e2076cc3735a920a3ca505d382bbc546001600160a01b031690565b6001600160a01b031614610f9c5760405162461bcd60e51b815260206004820152602c60248201527f46756e6374696f6e206d7573742062652063616c6c6564207468726f7567682060448201526b6163746976652070726f787960a01b60648201526084016107c9565b610fa5826129e2565b610fb1828260016129ea565b5050565b6000306001600160a01b037f000000000000000000000000000000000000000000000000000000000000000016146110555760405162461bcd60e51b815260206004820152603860248201527f555550535570677261646561626c653a206d757374206e6f742062652063616c60448201527f6c6564207468726f7567682064656c656761746563616c6c000000000000000060648201526084016107c9565b507f360894a13ba1a3210667c828492db98dca3e2076cc3735a920a3ca505d382bbc90565b60d254600160281b900460ff16156110d45760405162461bcd60e51b815260206004820152601b60248201527f4f72646572426f6f6b3a206d61726b657420697320706175736564000000000060448201526064016107c9565b8281146111495760405162461bcd60e51b815260206004820152603360248201527f4f72646572426f6f6b3a2050726963657320616e642073697a6573206172726160448201527f79206c656e677468206d757374206d617463680000000000000000000000000060648201526084016107c9565b60005b838110156111b7576111a585858381811061116957611169614ba4565b905060200201602081019061117e9190614dfb565b84848481811061119057611190614ba4565b90506020020160208101906106429190614e16565b806111af81614bd0565b91505061114c565b5050505050565b6111c661216e565b6111d06000612cdb565b565b60d254600160281b900460ff161561122c5760405162461bcd60e51b815260206004820152601b60248201527f4f72646572426f6f6b3a206d61726b657420697320706175736564000000000060448201526064016107c9565b60d3546001600160601b03600160601b9091048116908216116112915760405162461bcd60e51b815260206004820152601760248201527f4f72646572426f6f6b3a2053697a6520746f6f206c6f7700000000000000000060448201526064016107c9565b60d4546001600160601b03908116908216106112ef5760405162461bcd60e51b815260206004820152601960248201527f4f72646572426f6f6b3a2053697a6520746f6f206c617267650000000000000060448201526064016107c9565b60d35461130a906001600160601b031662ffffff8416614e31565b6001600160601b0316156113605760405162461bcd60e51b815260206004820152601460248201527f4f72646572426f6f6b3a205469636b2053697a6500000000000000000000000060448201526064016107c9565b60d65460d25460d9546113b6926001600160a01b031691600160301b90046001600160601b03169061139390600a614d26565b6113a6906001600160601b038616614d32565b6113b09190614d5f565b33612d3a565b6113c282826001612dd2565b5090506001600160601b03811615610fb15760d25464ffffffffff166113e9816001614e57565b60d2805464ffffffffff191664ffffffffff9290921691909117905561141060cf84612f8d565b5062ffffff8316600090815260cb6020526040812061143990611434846001614e57565b613028565b9050611453848461144b856001614e57565b600085613094565b7fde65ec26e567cef1936a693231b33b08ce40fca66ce0e78b38d938048c7a089161147f836001614e57565b6040805164ffffffffff90921682523360208301526001600160601b0386169082015262ffffff861660608201526000608082015260a00160405180910390a150505050565b60606000436040516020016114dc91815260200190565b604051602081830303815290604052905060006114fb60cc6000612b8f565b90505b62ffffff818116141580611515575062ffffff8116155b156116045762ffffff8116600090815260ca602052604090205464ffffffffff165b64ffffffffff8116156115d95764ffffffffff8116600090815260c960205260409020546001600160a01b038087169116036115b1576040805164ffffffffff8316602082015284910160408051601f198184030181529082905261159f9291602001614db0565b60405160208183030381529060405292505b64ffffffffff908116600090815260c96020526040902060010154600160281b900416611537565b6115e960cc610cb6846001614ddf565b91508162ffffff166000036115fe5750611604565b506114fe565b61161060cf6000612b8f565b90505b62ffffff81811614158061162a575062ffffff8116155b156117195762ffffff8116600090815260cb602052604090205464ffffffffff165b64ffffffffff8116156116ee5764ffffffffff8116600090815260c960205260409020546001600160a01b038087169116036116c6576040805164ffffffffff8316602082015284910160408051601f19818403018152908290526116b49291602001614db0565b60405160208183030381529060405292505b64ffffffffff908116600090815260c96020526040902060010154600160281b90041661164c565b6116fe60cf610cb6846001614ddf565b91508162ffffff166000036117135750611719565b50611613565b5092915050565b600054610100900460ff16158080156117405750600054600160ff909116105b8061175a5750303b15801561175a575060005460ff166001145b6117cc5760405162461bcd60e51b815260206004820152602e60248201527f496e697469616c697a61626c653a20636f6e747261637420697320616c72656160448201527f647920696e697469616c697a656400000000000000000000000000000000000060648201526084016107c9565b6000805460ff1916600117905580156117ef576000805461ff0019166101001790555b6117f76131ac565b6118008d612cdb565b60d6805473ffffffffffffffffffffffffffffffffffffffff199081166001600160a01b038f81169190911790925560d7805482168d841617905560d98d905560da8b905560d88054909116918a1691909117905560d280547fffffffffffffffffffffff000000000000000000000000000000ffffffffffff16600160301b6001600160601b038a8116919091027fffffffffffffffffffffff000000ffffffffffffffffffffffffffffffffffff1691909117600160901b62ffffff8a16021790915560d380548783167fffffffffffffffff00000000000000000000000000000000000000000000000090911617600160601b8784160217905560d480546bffffffffffffffffffffffff191691851691909117905560d58290558015611964576000805461ff0019169055604051600181527f7f26b83ff96e1f2b6a682f133852f6798a09c465da95921460cefb38474024989060200160405180910390a15b50505050505050505050505050565b60d254600160281b900460ff16156119cd5760405162461bcd60e51b815260206004820152601b60248201527f4f72646572426f6f6b3a206d61726b657420697320706175736564000000000060448201526064016107c9565b60005b84811015611a4157611a2f8686838181106119ed576119ed614ba4565b9050602002016020810190611a029190614720565b858584818110611a1457611a14614ba4565b9050602002016020810190611a299190614e16565b8461321f565b80611a3981614bd0565b9150506119d0565b507f54fa92f8d95172a75a6a6a4c181ac0e1ecfa38b90bb7761b761cbafde7056b5a85858585604051611a779493929190614e75565b60405180910390a15050505050565b60d254600090600160281b900460ff1615611ae35760405162461bcd60e51b815260206004820152601b60248201527f4f72646572426f6f6b3a206d61726b657420697320706175736564000000000060448201526064016107c9565b60d65460d85460d25460d9546001600160a01b03938416936323b872dd933393911691600160301b9091046001600160601b031690611b2390600a614d26565b611b36906001600160601b038a16614d32565b611b409190614d5f565b6040516001600160e01b031960e086901b1681526001600160a01b03938416600482015292909116602483015260448201526064016020604051808303816000875af1158015611b94573d6000803e3d6000fd5b505050506040513d601f19601f82011682018060405250810190611bb89190614d73565b506000611bc86000856000612dd2565b90945090506001600160601b038416156109f7578215611c395760405162461bcd60e51b815260206004820152602660248201527f4f72646572426f6f6b3a20696e73756666696369656e7420766f6c756d65206f6044820152656e20626f6f6b60d01b60648201526084016107c9565b60d85460d65460d25460d9546001600160a01b03938416936375eab98e933393911691600160301b9091046001600160601b031690611c7990600a614d26565b61096c906001600160601b038b16614d32565b60d254600160281b900460ff1615611ce65760405162461bcd60e51b815260206004820152601b60248201527f4f72646572426f6f6b3a206d61726b657420697320706175736564000000000060448201526064016107c9565b60d3546001600160601b03600160601b909104811690821611611d4b5760405162461bcd60e51b815260206004820152601760248201527f4f72646572426f6f6b3a2053697a6520746f6f206c6f7700000000000000000060448201526064016107c9565b60d4546001600160601b0390811690821610611da95760405162461bcd60e51b815260206004820152601960248201527f4f72646572426f6f6b3a2053697a6520746f6f206c617267650000000000000060448201526064016107c9565b60d354611dc4906001600160601b031662ffffff8416614e31565b6001600160601b031615611e1a5760405162461bcd60e51b815260206004820152601460248201527f4f72646572426f6f6b3a205469636b2053697a6500000000000000000000000060448201526064016107c9565b600080611e27848461368e565b60d2549193509150600160301b90046001600160601b0316611e4e62ffffff861684614ed8565b611e589190614f03565b611e629082614ddf565b60d75460d25460da54929350611ea6926001600160a01b0390921691600160901b90910462ffffff1690611e9790600a614d26565b6113a69062ffffff8616614d32565b6001600160601b03821615611f9e5760d25464ffffffffff16611eca816001614e57565b60d2805464ffffffffff191664ffffffffff92909216919091179055611ef160cc86612f8d565b5062ffffff8516600090815260ca60205260408120611f1590611434846001614e57565b9050611f2f8685611f27856001614e57565b600185613094565b7fde65ec26e567cef1936a693231b33b08ce40fca66ce0e78b38d938048c7a0891611f5b836001614e57565b6040805164ffffffffff90921682523360208301526001600160601b0387169082015262ffffff881660608201526001608082015260a00160405180910390a150505b50505050565b611fac61216e565b6001600160a01b0381166120285760405162461bcd60e51b815260206004820152602660248201527f4f776e61626c653a206e6577206f776e657220697320746865207a65726f206160448201527f646472657373000000000000000000000000000000000000000000000000000060648201526084016107c9565b610b7881612cdb565b60d254600160281b900460ff161561208b5760405162461bcd60e51b815260206004820152601b60248201527f4f72646572426f6f6b3a206d61726b657420697320706175736564000000000060448201526064016107c9565b8281146121005760405162461bcd60e51b815260206004820152603360248201527f4f72646572426f6f6b3a2050726963657320616e642073697a6573206172726160448201527f79206c656e677468206d757374206d617463680000000000000000000000000060648201526084016107c9565b60005b838110156111b75761215c85858381811061212057612120614ba4565b90506020020160208101906121359190614dfb565b84848481811061214757612147614ba4565b90506020020160208101906104c89190614e16565b8061216681614bd0565b915050612103565b6033546001600160a01b031633146111d05760405162461bcd60e51b815260206004820181905260248201527f4f776e61626c653a2063616c6c6572206973206e6f7420746865206f776e657260448201526064016107c9565b64ffffffffff818116600090815260c960209081526040808320815160c08101835281546001600160a01b0381168252600160a01b90046001600160601b0316938101939093526001015480851691830191909152600160281b81049093166060820152600160501b830462ffffff166080820152600160681b90920460ff16151560a08301529061225a8382613983565b80516001600160a01b031633146122d95760405162461bcd60e51b815260206004820152602c60248201527f4f72646572426f6f6b3a204f6e6c79206f72646572206f776e65722063616e2060448201527f63616e63656c206f72646572000000000000000000000000000000000000000060648201526084016107c9565b604081015164ffffffffff161561232e57606081015160408083015164ffffffffff908116600090815260c960205291909120600101805491909216600160281b0269ffffffffff0000000000199091161790555b606081015164ffffffffff161561237957604081810151606083015164ffffffffff908116600090815260c960205292909220600101805464ffffffffff1916929091169190911790555b8060a001511561254457608081015162ffffff16600090815260ca602052604090205464ffffffffff908116908416036123d657608081015162ffffff16600090815260ca6020526040902060608201516123d49190613c09565b505b61240460ca6000836080015162ffffff16815260200190815260200160002082604001518360600151613c4d565b806060015164ffffffffff16816040015164ffffffffff16036124325761243060cc8260800151613ca2565b505b60d854815160d75460d25460da546001600160a01b03948516946375eab98e94931691600160301b81046001600160601b031691600160901b90910462ffffff169061247f90600a614d26565b876080015162ffffff1688602001516124989190614ed8565b6001600160601b03166124ab9190614d32565b6124b59190614d5f565b6124bf9190614d5f565b6040516001600160e01b031960e086901b1681526001600160a01b0393841660048201529290911660248301526044820152600160648201526084016020604051808303816000875af115801561251a573d6000803e3d6000fd5b505050506040513d601f19601f8201168201806040525081019061253e9190614d73565b506126d5565b608081015162ffffff16600090815260cb602052604090205464ffffffffff9081169084160361259757608081015162ffffff16600090815260cb6020526040902060608201516125959190613c09565b505b6125c560cb6000836080015162ffffff16815260200190815260200160002082604001518360600151613c4d565b806060015164ffffffffff16816040015164ffffffffff16036125f3576125f160cf8260800151613ca2565b505b60d854815160d65460d25460d9546001600160a01b03948516946375eab98e94931691600160301b90046001600160601b03169061263290600a614d26565b86602001516001600160601b031661264a9190614d32565b6126549190614d5f565b6040516001600160e01b031960e086901b1681526001600160a01b0393841660048201529290911660248301526044820152600160648201526084016020604051808303816000875af11580156126af573d6000803e3d6000fd5b505050506040513d601f19601f820116820180604052508101906126d39190614d73565b505b60a0015192915050565b6000806000806126f160cf6000612b8f565b9050600060605b60008862ffffff1611801561271757508862ffffff168362ffffff1611155b8015612727575062ffffff831615155b156128125760008362ffffff1660d260069054906101000a90046001600160601b03168a62ffffff1661275a9190614ed8565b6127649190614f03565b905060606127728287614d90565b955061279860cf8660cb60008962ffffff16815260200190815260200160002085613d36565b90925090506127a78287614f29565b955082816040516020016127bc929190614db0565b60408051808303601f1901815291905260d254909350600160301b90046001600160601b03166127f162ffffff871684614ed8565b6127fb9190614f03565b995061280960cf6000612b8f565b945050506126f8565b6001600160601b038416156129595760d2546128419061271090600160301b90046001600160601b0316614d32565b60d55461285090612710614f49565b60da5461285e90600a614d26565b612871906001600160601b038816614d32565b61287b9190614d32565b6128859190614d5f565b60d85460d654604080513360208201526001600160a01b0392831691810191909152606081018490528a151560808201529294501690636f5b601e90839060a0015b60408051601f19818403018152908290526128e59291602001614db0565b6040516020818303038152906040526040518263ffffffff1660e01b8152600401612910919061489c565b6020604051808303816000875af115801561292f573d6000803e3d6000fd5b505050506040513d601f19601f820116820180604052508101906129539190614d73565b506129d5565b8051156129d55760d8546040516337adb00f60e11b81526001600160a01b0390911690636f5b601e9061299090849060040161489c565b6020604051808303816000875af11580156129af573d6000803e3d6000fd5b505050506040513d601f19601f820116820180604052508101906129d39190614d73565b505b5095979596505050505050565b610b7861216e565b7f4910fdfa16fed3260ed0e7147f7cc6da11a60208b5b9406d12a635614ffd91435460ff1615612a2257612a1d83613dd4565b505050565b826001600160a01b03166352d1902d6040518163ffffffff1660e01b8152600401602060405180830381865afa925050508015612a7c575060408051601f3d908101601f19168201909252612a7991810190614f5c565b60015b612aee5760405162461bcd60e51b815260206004820152602e60248201527f45524331393637557067726164653a206e657720696d706c656d656e7461746960448201527f6f6e206973206e6f74205555505300000000000000000000000000000000000060648201526084016107c9565b7f360894a13ba1a3210667c828492db98dca3e2076cc3735a920a3ca505d382bbc8114612b835760405162461bcd60e51b815260206004820152602960248201527f45524331393637557067726164653a20756e737570706f727465642070726f7860448201527f6961626c6555554944000000000000000000000000000000000000000000000060648201526084016107c9565b50612a1d838383613e9f565b60008061ffff600884901c1660ff808516908114612be45760008281526002870160205260408120549350612bc48483613ec4565b90506000198114612be25760089290921b90911792506109fa915050565b505b5060ff80821690600883901c908214612c5e5760008181526001880160205260408120549450612c148584613ec4565b90506000198114612c5c57600882901b8117600081815260028a01602052604090205495509350612c4485613ed3565b60ff1660088560001c901b17955050505050506109fa565b505b60ff81811692508214612cce57865493506000612c7b8584613ec4565b90506000198114612ccc5760008181526001890160205260409020549450905080612ca585613ed3565b60ff16600883901b17600081815260028a01602052604090205495509350612c4485613ed3565b505b5060009695505050505050565b603380546001600160a01b0383811673ffffffffffffffffffffffffffffffffffffffff19831681179093556040519116919082907f8be0079c531659141344cd1fd0a4f28419497f9722a3daafe3b4186f6b6457e090600090a35050565b60d8546040517f6c1392520000000000000000000000000000000000000000000000000000000081526001600160a01b03838116600483015285811660248301526044820185905290911690636c139252906064016020604051808303816000875af1158015612dae573d6000803e3d6000fd5b505050506040513d601f19601f82011682018060405250810190611f9e9190614d73565b600080600080612de660cc62ffffff613f6f565b9050600060605b6000886001600160601b0316118015612e1057508862ffffff168362ffffff1610155b8015612e21575062ffffff83811614155b15612eb45762ffffff8316600090815260ca602052604090208890606090612e4e9060cc90879085613d36565b909a50905062ffffff8516612e638b84614f29565b612e6d9190614ed8565b612e779087614d90565b95508281604051602001612e8c929190614db0565b6040516020818303038152906040529250612eab60cc62ffffff613f6f565b94505050612ded565b6001600160601b038416156129595760d25461271090612ef090600160901b810462ffffff1690600160301b90046001600160601b0316614ed8565b6001600160601b0316612f039190614d32565b60d554612f1290612710614f49565b60da54612f2090600a614d26565b612f33906001600160601b038816614d32565b612f3d9190614d32565b612f479190614d5f565b60d85460d754604080513360208201526001600160a01b0392831691810191909152606081018490528a151560808201529294501690636f5b601e90839060a0016128c7565b61ffff600882901c166000818152600284016020526040812054909190600160ff85161b811780821461301c576000838152600287016020526040812082905582900361301057600883901c6000818152600180890160205260408220805460ff88169290921b82179055935083900361300e578654600160ff83161b1787555b505b600193505050506109fa565b50600095945050505050565b8154600090600160281b900464ffffffffff168061306a578354600160281b64ffffffffff851690810269ffffffffffffffffffff19909216171784556109f7565b835464ffffffffff8416600160281b0269ffffffffff000000000019909116178455905092915050565b6040805160c0810182523381526001600160601b03958616602080830191825264ffffffffff94851683850181815260006060860181815262ffffff9c8d166080880190815299151560a088019081529a891680835260c990955287822096519551909b16600160a01b026001600160a01b0390951694909417855551600194850180549a51985199511515600160681b026dff00000000000000000000000000199a909c16600160501b02999099166dffffffff0000000000000000000019988816600160281b90810269ffffffffffffffffffff19909c1692909816919091179990991796909616979097179790971790945591855293200180549290910269ffffffffff000000000019909216919091179055565b600054610100900460ff166132175760405162461bcd60e51b815260206004820152602b60248201527f496e697469616c697a61626c653a20636f6e7472616374206973206e6f74206960448201526a6e697469616c697a696e6760a81b60648201526084016107c9565b6111d061409f565b64ffffffffff838116600090815260c96020908152604091829020825160c08101845281546001600160a01b0381168252600160a01b90046001600160601b0316928101929092526001015480841692820192909252600160281b82049092166060830152600160501b810462ffffff166080830152600160681b900460ff16151560a08201526132b08482613983565b80516001600160a01b0316331461332f5760405162461bcd60e51b815260206004820152602c60248201527f4f72646572426f6f6b3a204f6e6c79206f72646572206f776e65722063616e2060448201527f757064617465206f72646572000000000000000000000000000000000000000060648201526084016107c9565b826001600160601b031681602001516001600160601b0316116133b95760405162461bcd60e51b8152602060048201526024808201527f4f72646572426f6f6b3a2063616e277420696e637265617365206f726465722060448201527f73697a650000000000000000000000000000000000000000000000000000000060648201526084016107c9565b60d3546001600160601b03600160601b9091048116908416116134445760405162461bcd60e51b815260206004820152602e60248201527f4f72646572626f6f6b3a2073697a652068617320746f2062652067726561746560448201527f72207468616e206d696e696d756d00000000000000000000000000000000000060648201526084016107c9565b60008382602001516134569190614f29565b90508160a00151156135705760d854825160d75460d25460da546001600160a01b03948516946375eab98e94931691600160301b81046001600160601b031691600160901b90910462ffffff16906134af90600a614d26565b60808901516134c39062ffffff1689614ed8565b6001600160601b03166134d69190614d32565b6134e09190614d5f565b6134ea9190614d5f565b6040516001600160e01b031960e086901b1681526001600160a01b039384166004820152929091166024830152604482015285151560648201526084016020604051808303816000875af1158015613546573d6000803e3d6000fd5b505050506040513d601f19601f8201168201806040525081019061356a9190614d73565b5061364e565b60d854825160d65460d25460d9546001600160a01b03948516946375eab98e94931691600160301b90046001600160601b0316906135af90600a614d26565b6135c2906001600160601b038816614d32565b6135cc9190614d5f565b6040516001600160e01b031960e086901b1681526001600160a01b039384166004820152929091166024830152604482015285151560648201526084016020604051808303816000875af1158015613628573d6000803e3d6000fd5b505050506040513d601f19601f8201168201806040525081019061364c9190614d73565b505b50505064ffffffffff909116600090815260c96020526040902080546001600160601b03909216600160a01b026001600160a01b03909216919091179055565b6000806000806136a060cf6000612b8f565b9050600060605b6000876001600160601b03161180156136ca57508762ffffff168362ffffff1611155b80156136da575062ffffff831615155b156137a45762ffffff8316600090815260cb6020526040902060609088906137079060cf90879084613d36565b909950915060006137188a83614f29565b90506137248188614d90565b60d254909750600160301b90046001600160601b031661374962ffffff881683614ed8565b6137539190614f03565b61375d9086614ddf565b945061376885614f75565b9450838360405160200161377d929190614db0565b604051602081830303815290604052935061379a60cf6000612b8f565b95505050506136a7565b6001600160601b038416156138f75760d85460d65460d2546001600160a01b0392831692636f5b601e9285923392909116906137f39061271090600160301b90046001600160601b0316614d32565b60d55461380290612710614f49565b60da5461381090600a614d26565b613823906001600160601b038d16614d32565b61382d9190614d32565b6138379190614d5f565b604080516001600160a01b039485166020820152939092169183019190915260608201526001608082015260a00160408051601f19818403018152908290526138839291602001614db0565b6040516020818303038152906040526040518263ffffffff1660e01b81526004016138ae919061489c565b6020604051808303816000875af11580156138cd573d6000803e3d6000fd5b505050506040513d601f19601f820116820180604052508101906138f19190614d73565b50613973565b8051156139735760d8546040516337adb00f60e11b81526001600160a01b0390911690636f5b601e9061392e90849060040161489c565b6020604051808303816000875af115801561394d573d6000803e3d6000fd5b505050506040513d601f19601f820116820180604052508101906139719190614d73565b505b50859450925050505b9250929050565b604081015164ffffffffff1615613b075760408082015164ffffffffff908116600090815260c96020529190912060010154600160281b9004811690831614613a195760405162461bcd60e51b815260206004820152602260248201527f4f72646572426f6f6b3a204f7264657220616c72656164792063616e63656c6c604482015261195960f21b60648201526084016107c9565b8060a0015115613a9557608081015162ffffff16600090815260ca602052604090205464ffffffffff80841691161115610fb15760405162461bcd60e51b815260206004820152600f60248201527f416c72656164792066696c6c656421000000000000000000000000000000000060448201526064016107c9565b608081015162ffffff16600090815260cb602052604090205464ffffffffff80841691161115610fb15760405162461bcd60e51b815260206004820152600f60248201527f416c72656164792066696c6c656421000000000000000000000000000000000060448201526064016107c9565b8060a0015115613b8d57608081015162ffffff16600090815260ca602052604090205464ffffffffff838116911614610fb15760405162461bcd60e51b815260206004820152602260248201527f4f72646572426f6f6b3a204f7264657220616c72656164792063616e63656c6c604482015261195960f21b60648201526084016107c9565b608081015162ffffff16600090815260cb602052604090205464ffffffffff838116911614610fb15760405162461bcd60e51b815260206004820152602260248201527f4f72646572426f6f6b3a204f7264657220616c72656164792063616e63656c6c604482015261195960f21b60648201526084016107c9565b600064ffffffffff8216613c305750815469ffffffffffffffffffff1916825560016109fa565b50815464ffffffffff191664ffffffffff91909116179055600090565b64ffffffffff8216613c6f57825464ffffffffff191664ffffffffff82161783555b64ffffffffff8116612a1d57825464ffffffffff8316600160281b0269ffffffffff000000000019909116178355505050565b61ffff600882901c166000818152600284016020526040812054909190600160ff85161b19811680821461301c57600083815260028701602052604081208290558190036130105750600882901c6000818152600187810160205260408220805460ff87169290921b1990911690819055919082900361300e578654600160ff83161b1916875550600193505050506109fa565b8154819060609064ffffffffff165b6000836001600160601b0316118015613d64575064ffffffffff811615155b15613da7576060613d758285614113565b6040519296509093509150613d909084908390602001614db0565b604051602081830303815290604052925050613d45565b613db18582613c09565b5064ffffffffff8116613dca57613dc88787613ca2565b505b5094509492505050565b6001600160a01b0381163b613e515760405162461bcd60e51b815260206004820152602d60248201527f455243313936373a206e657720696d706c656d656e746174696f6e206973206e60448201527f6f74206120636f6e74726163740000000000000000000000000000000000000060648201526084016107c9565b7f360894a13ba1a3210667c828492db98dca3e2076cc3735a920a3ca505d382bbc805473ffffffffffffffffffffffffffffffffffffffff19166001600160a01b0392909216919091179055565b613ea883614327565b600082511180613eb55750805b15612a1d57611f9e8383614367565b60006109f7836001840161438c565b60008160801b8015613ee757608091508092505b8260401b90508015613efa579150604001815b8260201b90508015613f0d579150602001815b8260101b90508015613f20579150601001815b8260081b90508015613f33579150600801815b8260041b90508015613f46579150600401815b8260021b90508015613f59579150600201815b508160011b15613f67576001015b60ff03919050565b60008061ffff600884901c1660ff84168015613fc25760008281526002870160205260408120549350613fa284836143ba565b90506000198114613fc05760089290921b90911792506109fa915050565b505b5060ff8116600882901c81156140215760008181526001880160205260408120549450613fef85846143ba565b9050600019811461401f57600882901b8117600081815260028a01602052604090205495509350612c44856143ca565b505b60ff8116915081156140905786549350600061403d85846143ba565b9050600019811461408e5760008181526001890160205260409020549450905080614067856143ca565b60ff16600883901b17600081815260028a01602052604090205495509350612c44856143ca565b505b5062ffffff9695505050505050565b600054610100900460ff1661410a5760405162461bcd60e51b815260206004820152602b60248201527f496e697469616c697a61626c653a20636f6e7472616374206973206e6f74206960448201526a6e697469616c697a696e6760a81b60648201526084016107c9565b6111d033612cdb565b64ffffffffff808316600090815260c960205260408120600181015490549192600160281b90910416906060906001600160601b03600160a01b9091048116908516811061416257600061416c565b61416c8186614f29565b93506000846001600160601b031660000361418e5761418b8683614f29565b90505b64ffffffffff8716600090815260c9602052604090206001810154905461422c91600160681b900460ff1615906001600160a01b03166001600160601b038816156141ff5764ffffffffff8a16600090815260c96020526040902054600160a01b90046001600160601b0316614201565b885b64ffffffffff8b16600090815260c96020526040902060010154600160501b900462ffffff1661446f565b9250846001600160601b03166000036142b0576001600160601b03811615614252578693505b64ffffffffff8716600090815260c960205260409020805487919060149061428b908490600160a01b90046001600160601b0316614f29565b92506101000a8154816001600160601b0302191690836001600160601b031602179055505b7d01ebd527f6e342f5ba8b96af28895de0623f5cb5ccca5738a126634cb47a8782336142dc898b614f29565b6040805164ffffffffff90951685526001600160601b0393841660208601526001600160a01b039092169184019190915216606082015260800160405180910390a150509250925092565b61433081613dd4565b6040516001600160a01b038216907fbc7cd75a20ee27fd9adebab32041f755214dbc6bffa90cc0225b39da2e5c2d3b90600090a250565b60606109f78383604051806060016040528060278152602001614fb460279139614540565b60ff81169190911c90600082156143b057816143a784613ed3565b0160ff166109f7565b5060001992915050565b60006109f78360001984016145b8565b60006fffffffffffffffffffffffffffffffff8211156143ec5750608090811c905b67ffffffffffffffff82111561440457604091821c91015b63ffffffff82111561441857602091821c91015b61ffff82111561442a57601091821c91015b60ff82111561443b57600891821c91015b600f82111561444c57600491821c91015b600382111561445d57600291821c91015b600182111561446a576001015b919050565b60606000856144895760d6546001600160a01b0316614496565b60d7546001600160a01b03165b90506000866144e45760d25460d954600160301b9091046001600160601b0316906144c290600a614d26565b6144d5906001600160601b038816614d32565b6144df9190614d5f565b6144f3565b6144f3858562ffffff166145e9565b604080516001600160a01b03808a166020830152851691810191909152606081018290526001608082015290915060a001604051602081830303815290604052925050505b949350505050565b6060600080856001600160a01b03168560405161455d9190614f97565b600060405180830381855af49150503d8060008114614598576040519150601f19603f3d011682016040523d82523d6000602084013e61459d565b606091505b50915091506145ae86838387614654565b9695505050505050565b60ff8181031691821b9160009083156145de57806145d5856143ca565b60ff1603614538565b600019949350505050565b60d25460009061461590600160301b81046001600160601b031690600160901b900462ffffff16614ed8565b6001600160601b031660da54600a61462d9190614d26565b6146378486614ed8565b6001600160601b031661464a9190614d32565b6109f79190614d5f565b606083156146c35782516000036146bc576001600160a01b0385163b6146bc5760405162461bcd60e51b815260206004820152601d60248201527f416464726573733a2063616c6c20746f206e6f6e2d636f6e747261637400000060448201526064016107c9565b5081614538565b61453883838151156146d85781518083602001fd5b8060405162461bcd60e51b81526004016107c9919061489c565b60006020828403121561470457600080fd5b5035919050565b803564ffffffffff8116811461446a57600080fd5b60006020828403121561473257600080fd5b6109f78261470b565b60008083601f84011261474d57600080fd5b50813567ffffffffffffffff81111561476557600080fd5b6020830191508360208260051b850101111561397c57600080fd5b6000806020838503121561479357600080fd5b823567ffffffffffffffff8111156147aa57600080fd5b6147b68582860161473b565b90969095509350505050565b803562ffffff8116811461446a57600080fd5b8015158114610b7857600080fd5b600080604083850312156147f657600080fd5b6147ff836147c2565b9150602083013561480f816147d5565b809150509250929050565b80356001600160a01b038116811461446a57600080fd5b60006020828403121561484357600080fd5b6109f78261481a565b60005b8381101561486757818101518382015260200161484f565b50506000910152565b6000815180845261488881602086016020860161484c565b601f01601f19169290920160200192915050565b6020815260006109f76020830184614870565b634e487b7160e01b600052604160045260246000fd5b600080604083850312156148d857600080fd5b6148e18361481a565b9150602083013567ffffffffffffffff808211156148fe57600080fd5b818501915085601f83011261491257600080fd5b813581811115614924576149246148af565b604051601f8201601f19908116603f0116810190838211818310171561494c5761494c6148af565b8160405282815288602084870101111561496557600080fd5b8260208601602083013760006020848301015280955050505050509250929050565b6000806000806040858703121561499d57600080fd5b843567ffffffffffffffff808211156149b557600080fd5b6149c18883890161473b565b909650945060208701359150808211156149da57600080fd5b506149e78782880161473b565b95989497509550505050565b80356001600160601b038116811461446a57600080fd5b60008060408385031215614a1d57600080fd5b614a26836147c2565b9150614a34602084016149f3565b90509250929050565b6000806000806000806000806000806000806101808d8f031215614a6057600080fd5b614a698d61481a565b9b50614a7760208e0161481a565b9a5060408d01359950614a8c60608e0161481a565b985060808d01359750614aa160a08e0161481a565b9650614aaf60c08e016149f3565b9550614abd60e08e016147c2565b9450614acc6101008e016149f3565b9350614adb6101208e016149f3565b9250614aea6101408e016149f3565b91506101608d013590509295989b509295989b509295989b565b600080600080600060608688031215614b1c57600080fd5b853567ffffffffffffffff80821115614b3457600080fd5b614b4089838a0161473b565b90975095506020880135915080821115614b5957600080fd5b50614b668882890161473b565b9094509250506040860135614b7a816147d5565b809150509295509295909350565b60008060408385031215614b9b57600080fd5b6147ff836149f3565b634e487b7160e01b600052603260045260246000fd5b634e487b7160e01b600052601160045260246000fd5b600060018201614be257614be2614bba565b5060010190565b8183526000602080850194508260005b85811015614c235764ffffffffff614c108361470b565b1687529582019590820190600101614bf9565b509495945050505050565b602081526000614538602083018486614be9565b600181815b80851115614c7d578160001904821115614c6357614c63614bba565b80851615614c7057918102915b93841c9390800290614c47565b509250929050565b600082614c94575060016109fa565b81614ca1575060006109fa565b8160018114614cb75760028114614cc157614cdd565b60019150506109fa565b60ff841115614cd257614cd2614bba565b50506001821b6109fa565b5060208310610133831016604e8410600b8410161715614d00575081810a6109fa565b614d0a8383614c42565b8060001904821115614d1e57614d1e614bba565b029392505050565b60006109f78383614c85565b80820281158282048414176109fa576109fa614bba565b634e487b7160e01b600052601260045260246000fd5b600082614d6e57614d6e614d49565b500490565b600060208284031215614d8557600080fd5b81516109f7816147d5565b6001600160601b0381811683821601908082111561171957611719614bba565b60008351614dc281846020880161484c565b835190830190614dd681836020880161484c565b01949350505050565b62ffffff81811683821601908082111561171957611719614bba565b600060208284031215614e0d57600080fd5b6109f7826147c2565b600060208284031215614e2857600080fd5b6109f7826149f3565b60006001600160601b0380841680614e4b57614e4b614d49565b92169190910692915050565b64ffffffffff81811683821601908082111561171957611719614bba565b604081526000614e89604083018688614be9565b8281036020848101919091528482528591810160005b86811015614ecb576001600160601b03614eb8856149f3565b1682529282019290820190600101614e9f565b5098975050505050505050565b6001600160601b03818116838216028082169190828114614efb57614efb614bba565b505092915050565b60006001600160601b0380841680614f1d57614f1d614d49565b92169190910492915050565b6001600160601b0382811682821603908082111561171957611719614bba565b818103818111156109fa576109fa614bba565b600060208284031215614f6e57600080fd5b5051919050565b600062ffffff808316818103614f8d57614f8d614bba565b6001019392505050565b60008251614fa981846020870161484c565b919091019291505056fe416464726573733a206c6f772d6c6576656c2064656c65676174652063616c6c206661696c6564a2646970667358221220677768491abfc15880e5b3b125a65a14432d7c05fc0d8561f51d601392b0260864736f6c63430008110033",
  "linkReferences": {},
  "deployedLinkReferences": {}
}