{"abi":[{"type":"constructor","inputs":[],"stateMutability":"nonpayable"},{"type":"function","name":"addBuyOrder","inputs":[{"name":"_price","type":"uint24","internalType":"uint24"},{"name":"size","type":"uint96","internalType":"uint96"},{"name":"_postOnly","type":"bool","internalType":"bool"}],"outputs":[],"stateMutability":"nonpayable"},{"type":"function","name":"addSellOrder","inputs":[{"name":"_price","type":"uint24","internalType":"uint24"},{"name":"size","type":"uint96","internalType":"uint96"},{"name":"_postOnly","type":"bool","internalType":"bool"}],"outputs":[],"stateMutability":"nonpayable"},{"type":"function","name":"batchCancelOrders","inputs":[{"name":"_orderIds","type":"uint40[]","internalType":"uint40[]"}],"outputs":[],"stateMutability":"nonpayable"},{"type":"function","name":"batchUpdate","inputs":[{"name":"buyPrices","type":"uint24[]","internalType":"uint24[]"},{"name":"buySizes","type":"uint96[]","internalType":"uint96[]"},{"name":"sellPrices","type":"uint24[]","internalType":"uint24[]"},{"name":"sellSizes","type":"uint96[]","internalType":"uint96[]"},{"name":"orderIdsToCancel","type":"uint40[]","internalType":"uint40[]"},{"name":"postOnly","type":"bool","internalType":"bool"}],"outputs":[],"stateMutability":"nonpayable"},{"type":"function","name":"bestBidAsk","inputs":[],"outputs":[{"name":"","type":"uint256","internalType":"uint256"},{"name":"","type":"uint256","internalType":"uint256"}],"stateMutability":"view"},{"type":"function","name":"cancelOwnershipHandover","inputs":[],"outputs":[],"stateMutability":"payable"},{"type":"function","name":"collectFees","inputs":[],"outputs":[],"stateMutability":"nonpayable"},{"type":"function","name":"completeOwnershipHandover","inputs":[{"name":"pendingOwner","type":"address","internalType":"address"}],"outputs":[],"stateMutability":"payable"},{"type":"function","name":"getL2Book","inputs":[],"outputs":[{"name":"","type":"bytes","internalType":"bytes"}],"stateMutability":"view"},{"type":"function","name":"getMarketParams","inputs":[],"outputs":[{"name":"","type":"uint24","internalType":"uint24"},{"name":"","type":"uint96","internalType":"uint96"},{"name":"","type":"address","internalType":"address"},{"name":"","type":"uint256","internalType":"uint256"},{"name":"","type":"address","internalType":"address"},{"name":"","type":"uint256","internalType":"uint256"},{"name":"","type":"uint24","internalType":"uint24"},{"name":"","type":"uint96","internalType":"uint96"},{"name":"","type":"uint96","internalType":"uint96"},{"name":"","type":"uint256","internalType":"uint256"},{"name":"","type":"uint256","internalType":"uint256"}],"stateMutability":"view"},{"type":"function","name":"getVaultParams","inputs":[],"outputs":[{"name":"","type":"address","internalType":"address"},{"name":"","type":"uint256","internalType":"uint256"},{"name":"","type":"uint96","internalType":"uint96"},{"name":"","type":"uint256","internalType":"uint256"},{"name":"","type":"uint96","internalType":"uint96"},{"name":"","type":"uint96","internalType":"uint96"},{"name":"","type":"uint96","internalType":"uint96"}],"stateMutability":"view"},{"type":"function","name":"initialize","inputs":[{"name":"_owner","type":"address","internalType":"address"},{"name":"_type","type":"uint8","internalType":"enum IOrderBook.OrderBookType"},{"name":"_baseAssetAddress","type":"address","internalType":"address"},{"name":"_baseAssetDecimals","type":"uint256","internalType":"uint256"},{"name":"_quoteAssetAddress","type":"address","internalType":"address"},{"name":"_quoteAssetDecimals","type":"uint256","internalType":"uint256"},{"name":"_marginAccountAddress","type":"address","internalType":"address"},{"name":"_sizePrecision","type":"uint96","internalType":"uint96"},{"name":"_pricePrecision","type":"uint24","internalType":"uint24"},{"name":"_tickSize","type":"uint24","internalType":"uint24"},{"name":"_minSize","type":"uint96","internalType":"uint96"},{"name":"_maxSize","type":"uint96","internalType":"uint96"},{"name":"_takerFeeBps","type":"uint256","internalType":"uint256"},{"name":"_makerFeeBps","type":"uint256","internalType":"uint256"},{"name":"_kuruAmmVault","type":"address","internalType":"address"},{"name":"_kuruAmmSpread","type":"uint96","internalType":"uint96"}],"outputs":[],"stateMutability":"nonpayable"},{"type":"function","name":"owner","inputs":[],"outputs":[{"name":"result","type":"address","internalType":"address"}],"stateMutability":"view"},{"type":"function","name":"ownershipHandoverExpiresAt","inputs":[{"name":"pendingOwner","type":"address","internalType":"address"}],"outputs":[{"name":"result","type":"uint256","internalType":"uint256"}],"stateMutability":"view"},{"type":"function","name":"placeAndExecuteMarketBuy","inputs":[{"name":"_quoteSize","type":"uint24","internalType":"uint24"},{"name":"_isMargin","type":"bool","internalType":"bool"},{"name":"_isFillOrKill","type":"bool","internalType":"bool"}],"outputs":[{"name":"","type":"uint256","internalType":"uint256"}],"stateMutability":"payable"},{"type":"function","name":"placeAndExecuteMarketSell","inputs":[{"name":"_size","type":"uint96","internalType":"uint96"},{"name":"_isMargin","type":"bool","internalType":"bool"},{"name":"_isFillOrKill","type":"bool","internalType":"bool"}],"outputs":[{"name":"","type":"uint256","internalType":"uint256"}],"stateMutability":"payable"},{"type":"function","name":"placeMultipleBuyOrders","inputs":[{"name":"_prices","type":"uint24[]","internalType":"uint24[]"},{"name":"_sizes","type":"uint96[]","internalType":"uint96[]"},{"name":"_postOnly","type":"bool","internalType":"bool"}],"outputs":[],"stateMutability":"nonpayable"},{"type":"function","name":"placeMultipleSellOrders","inputs":[{"name":"_prices","type":"uint24[]","internalType":"uint24[]"},{"name":"_sizes","type":"uint96[]","internalType":"uint96[]"},{"name":"_postOnly","type":"bool","internalType":"bool"}],"outputs":[],"stateMutability":"nonpayable"},{"type":"function","name":"proxiableUUID","inputs":[],"outputs":[{"name":"","type":"bytes32","internalType":"bytes32"}],"stateMutability":"view"},{"type":"function","name":"renounceOwnership","inputs":[],"outputs":[],"stateMutability":"payable"},{"type":"function","name":"requestOwnershipHandover","inputs":[],"outputs":[],"stateMutability":"payable"},{"type":"function","name":"s_buyPricePoints","inputs":[{"name":"","type":"uint256","internalType":"uint256"}],"outputs":[{"name":"head","type":"uint40","internalType":"uint40"},{"name":"tail","type":"uint40","internalType":"uint40"}],"stateMutability":"view"},{"type":"function","name":"s_buyTree","inputs":[],"outputs":[{"name":"level0","type":"bytes32","internalType":"bytes32"}],"stateMutability":"view"},{"type":"function","name":"s_orderIdCounter","inputs":[],"outputs":[{"name":"","type":"uint40","internalType":"uint40"}],"stateMutability":"view"},{"type":"function","name":"s_orders","inputs":[{"name":"","type":"uint40","internalType":"uint40"}],"outputs":[{"name":"ownerAddress","type":"address","internalType":"address"},{"name":"size","type":"uint96","internalType":"uint96"},{"name":"prev","type":"uint40","internalType":"uint40"},{"name":"next","type":"uint40","internalType":"uint40"},{"name":"price","type":"uint24","internalType":"uint24"},{"name":"isBuy","type":"bool","internalType":"bool"}],"stateMutability":"view"},{"type":"function","name":"s_sellPricePoints","inputs":[{"name":"","type":"uint256","internalType":"uint256"}],"outputs":[{"name":"head","type":"uint40","internalType":"uint40"},{"name":"tail","type":"uint40","internalType":"uint40"}],"stateMutability":"view"},{"type":"function","name":"s_sellTree","inputs":[],"outputs":[{"name":"level0","type":"bytes32","internalType":"bytes32"}],"stateMutability":"view"},{"type":"function","name":"toggleMarkets","inputs":[{"name":"_state","type":"bool","internalType":"bool"}],"outputs":[],"stateMutability":"nonpayable"},{"type":"function","name":"transferOwnership","inputs":[{"name":"newOwner","type":"address","internalType":"address"}],"outputs":[],"stateMutability":"payable"},{"type":"function","name":"updateVaultOrdSz","inputs":[{"name":"_vaultAskOrderSize","type":"uint96","internalType":"uint96"},{"name":"_vaultBidOrderSize","type":"uint96","internalType":"uint96"},{"name":"_askPrice","type":"uint256","internalType":"uint256"},{"name":"_bidPrice","type":"uint256","internalType":"uint256"}],"outputs":[],"stateMutability":"nonpayable"},{"type":"function","name":"upgradeToAndCall","inputs":[{"name":"newImplementation","type":"address","internalType":"address"},{"name":"data","type":"bytes","internalType":"bytes"}],"outputs":[],"stateMutability":"payable"},{"type":"function","name":"vaultAskOrderSize","inputs":[],"outputs":[{"name":"","type":"uint96","internalType":"uint96"}],"stateMutability":"view"},{"type":"function","name":"vaultBestAsk","inputs":[],"outputs":[{"name":"","type":"uint256","internalType":"uint256"}],"stateMutability":"view"},{"type":"event","name":"Initialized","inputs":[{"name":"version","type":"uint64","indexed":false,"internalType":"uint64"}],"anonymous":false},{"type":"event","name":"OrderCreated","inputs":[{"name":"orderId","type":"uint40","indexed":false,"internalType":"uint40"},{"name":"owner","type":"address","indexed":false,"internalType":"address"},{"name":"size","type":"uint96","indexed":false,"internalType":"uint96"},{"name":"price","type":"uint24","indexed":false,"internalType":"uint24"},{"name":"isBuy","type":"bool","indexed":false,"internalType":"bool"}],"anonymous":false},{"type":"event","name":"OrdersCanceled","inputs":[{"name":"orderId","type":"uint40[]","indexed":false,"internalType":"uint40[]"},{"name":"owner","type":"address","indexed":false,"internalType":"address"}],"anonymous":false},{"type":"event","name":"OwnershipHandoverCanceled","inputs":[{"name":"pendingOwner","type":"address","indexed":true,"internalType":"address"}],"anonymous":false},{"type":"event","name":"OwnershipHandoverRequested","inputs":[{"name":"pendingOwner","type":"address","indexed":true,"internalType":"address"}],"anonymous":false},{"type":"event","name":"OwnershipTransferred","inputs":[{"name":"oldOwner","type":"address","indexed":true,"internalType":"address"},{"name":"newOwner","type":"address","indexed":true,"internalType":"address"}],"anonymous":false},{"type":"event","name":"Trade","inputs":[{"name":"orderId","type":"uint40","indexed":false,"internalType":"uint40"},{"name":"makerAddress","type":"address","indexed":false,"internalType":"address"},{"name":"isBuy","type":"bool","indexed":false,"internalType":"bool"},{"name":"price","type":"uint256","indexed":false,"internalType":"uint256"},{"name":"updatedSize","type":"uint96","indexed":false,"internalType":"uint96"},{"name":"takerAddress","type":"address","indexed":false,"internalType":"address"},{"name":"filledSize","type":"uint96","indexed":false,"internalType":"uint96"}],"anonymous":false},{"type":"event","name":"Upgraded","inputs":[{"name":"implementation","type":"address","indexed":true,"internalType":"address"}],"anonymous":false},{"type":"error","name":"AlreadyInitialized","inputs":[]},{"type":"error","name":"InsufficientLiquidity","inputs":[]},{"type":"error","name":"InvalidInitialization","inputs":[]},{"type":"error","name":"InvalidSpread","inputs":[]},{"type":"error","name":"LengthMismatch","inputs":[]},{"type":"error","name":"MarketFeeError","inputs":[]},{"type":"error","name":"MarketStateError","inputs":[]},{"type":"error","name":"NativeAssetInsufficient","inputs":[]},{"type":"error","name":"NativeAssetNotRequired","inputs":[]},{"type":"error","name":"NativeAssetTransferFail","inputs":[]},{"type":"error","name":"NewOwnerIsZeroAddress","inputs":[]},{"type":"error","name":"NoHandoverRequest","inputs":[]},{"type":"error","name":"NotInitializing","inputs":[]},{"type":"error","name":"OnlyOwnerAllowedError","inputs":[]},{"type":"error","name":"OrderAlreadyFilledOrCancelled","inputs":[]},{"type":"error","name":"PostOnlyError","inputs":[]},{"type":"error","name":"PriceError","inputs":[]},{"type":"error","name":"SizeError","inputs":[]},{"type":"error","name":"TickSizeError","inputs":[]},{"type":"error","name":"TooMuchSizeFilled","inputs":[]},{"type":"error","name":"Unauthorized","inputs":[]},{"type":"error","name":"UnauthorizedCallContext","inputs":[]},{"type":"error","name":"UpgradeFailed","inputs":[]}],"bytecode":{"object":"0x60a08060405234609a573060805263409feecd195460018116608c5760011c6002600160401b0319016048575b61585690816100a082396080518181816110e3015261143a0152f35b6002600160411b0363409feecd19556001600160401b0360209081527fc7f505b2f371ae2175ee4913f4499e1f2633a7b5936321eed1cdaeb6115181d29080a1602c565b63f92ee8a96000526004601cfd5b600080fdfe61026080604052600436101561001457600080fd5b60003560e01c90816302b90c6514612924575080630e2e2ffe146128cf578063137fc7bb146125625780631c0d9c22146124d857806320b3fa5c14611dbc57806323afbff314611d285780632569296214611cdc5780632bf1360e14611cb75780632e8a0fc31461179557806346fdfbb11461159e578063474b848c146115805780634d781103146115285780634f1ef286146113e657806350a9340a1461116657806351130ac61461113f57806352d1902d146110cf57806354d1f13d146110875780635b16c9b614611047578063715018a614610ff857806388bb4f6014610f905780638da5cb5b14610f6357806390c9427c14610ec3578063b4de8b7014610e91578063badc92d114610e73578063bb62b3c5146109fe578063c879657214610967578063cc57aec614610410578063d2cd7d7f14610379578063e55bb4e3146102aa578063e6d29b5114610251578063f04e283e14610201578063f2fde38b146101c35763fee81cf41461018b57600080fd5b346101be5760203660031901126101be576101a461293f565b63389a75e1600c52600052602080600c2054604051908152f35b600080fd5b60203660031901126101be576101d761293f565b6101df6139c3565b8060601b156101f3576101f19061466d565b005b637448fbae6000526004601cfd5b60203660031901126101be5761021561293f565b61021d6139c3565b63389a75e1600c52806000526020600c2090815442116102435760006101f1925561466d565b636f5e88186000526004601cfd5b346101be5760203660031901126101be5760043560005260076020526102a6604060002054604051918164ffffffffff80859460281c1691168390929164ffffffffff60209181604085019616845216910152565b0390f35b346101be5760803660031901126101be576102c3612955565b6102cb61296b565b6000549091906001600160a01b0316330361033c576001600160601b0391600454908360601b9060601b16908360601b191617600455166001600160601b0319600554161760055560001960035414610331575b6001541561032957005b606435600155005b60443560035561031f565b60405162461bcd60e51b815260206004820152601560248201527413dc99195c909bdbdace8813db9b1e4815985d5b1d605a1b6044820152606490fd5b346101be5761038736612a30565b9360ff600f5460281c166103ef578184036103ff5760005b8481106103a857005b6103bb6103b6828785612af6565b612b1c565b906103cf6103ca828688612af6565b612b2c565b60ff600f5460281c166103ef57876103e991600194612df0565b0161039f565b6225b2dd60e11b60005260046000fd5b631fec674760e31b60005260046000fd5b346101be5760603660031901126101be57610429612981565b61043161296b565b9061043a6129d2565b60ff600f5460281c166103ef5762ffffff8216801561095657601654936001600160601b038116946001600160601b0381168611156109455760601c6001600160601b03168510156109455762ffffff61049b8160155460a01c1686612d6d565b16610934579284929392600080956104b1614787565b949094926000906060995b6001600160601b038a161515806108e4575b806108db575b156105da57898660008a156105815750506104ee90615118565b9390988994935b8c869b610501916135e9565b61050a91612d06565b9b6000916000146105689662ffffff61054f6105406105629861055c976105569661053a575061053a85886135e9565b90612d06565b9c82600f5460901c1690615403565b16926135e9565b90614849565b9061306c565b99612d26565b95610571614787565b95909698909594999197996104bc565b916105cf9160406001600160601b039794670de0b6b3a76400006105c062ffffff600f5460901c1662ffffff836105b88389612aa5565b041695612aa5565b04815260086020522090614b0b565b9416988994936104f5565b848b8b9489936001600160601b038d9616806106fd575b505061064691506106069061055c8789614849565b61063f61062e60018060a01b03601554169262ffffff610627601354612d83565b9116612aa5565b62ffffff600f5460901c1690612ab8565b33916143b9565b6106d7575b506001600160601b03821661065c57005b6106d260008051602061580183398151915293600f549261068364ffffffffff8516612d91565b64ffffffffff1990941664ffffffffff851617600f556106a282614427565b5060005260076020526106c46106bc846040600020614553565b8486846145b8565b604051938493339085612dab565b0390a1005b6001600160601b038316036106ec578361064b565b6306e6da4d60e01b60005260046000fd5b6107136012549161070d83612d83565b90612aa5565b6001600160601b0361072d81600f5460301c168093612ab8565b93169081610846575b5050506107aa60009361078e60209360105480610805575b5060018060a01b03601954169261078960018060a01b036014541661077b604051948592338b8501612c77565b03601f198101845283612bdd565b612d26565b6040519586809481936337adb00f60e11b835260048301612a04565b03925af19081156107f95761064692610606926107ca575b8192506105f1565b6107eb9060203d6020116107f2575b6107e38183612bdd565b810190612c5f565b50886107c2565b503d6107d9565b6040513d6000823e3d90fd5b6108358161083061082361081c61083d9587615431565b8096613609565b9461070d60115484613609565b612ab8565b601854613616565b6018558c61074e565b6019546000546014546001600160a01b039081169591811694921692610876929091610830919061070d90612d83565b90803b156101be576108a3936000809460405196879586948593633609c92960e11b855260048501612bfe565b03925af19384156107f95761078e6020936107aa936000976108cb575b509350819550610736565b876108d591612bdd565b8c6108c0565b508515156104d4565b50670de0b6b3a76400008902898104670de0b6b3a76400000361091e576109169062ffffff600f5460901c1690612ab8565b8611156104ce565b634e487b7160e01b600052601160045260246000fd5b63272d3bf760e01b60005260046000fd5b630a5c4f1f60e01b60005260046000fd5b6348fa9b2b60e11b60005260046000fd5b346101be5760003660031901126101be576019546014546018546015546017546040516324facdb160e11b81526001600160a01b0394851660048201526024810193909352908316604483015260648201529160209183916084918391600091165af180156107f9576109e1575b60006018819055601755005b6109f99060203d6020116107f2576107e38183612bdd565b6109d5565b346101be57610a0c36612a30565b919360ff600f5460281c166103ef578184036103ff5760009493945b858110610a3157005b610a3f6103b6828885612af6565b93610a4e6103ca838689612af6565b9160ff600f5460281c166103ef5762ffffff861690811561095657601654936001600160601b038116946001600160601b0381168611156109455760601c6001600160601b03168510156109455762ffffff610ab18160155460a01c168a612d6d565b1661093457989597949895600080610ac7614787565b9890989960006060915b6001600160601b038116151580610e39575b80610e30575b15610bca57808d60008e15610b88575050610b06610b2e92615118565b929092975b610b1a849861053a86866135e9565b9e6000901561053a575061053a84846135e9565b9d600f5460901c62ffffff16610b4391615403565b62ffffff1691610b52916135e9565b610b5b91614849565b610b649161306c565b93610b6e91612d26565b93610b77614787565b9d909d9b94909d9a93959195610ad1565b6001600160601b0393610b2e926040610bc193670de0b6b3a76400006105c062ffffff600f5460901c1662ffffff836105b88389612aa5565b93169297610b0b565b96989c9799959d9b50928c9491929e9a506001600160601b031680610ca4575b505050610bfe610c399161055c8688614849565b610c1c60018060a01b03601554169162ffffff610627601354612d83565b90610c33339262ffffff600f5460901c1690612ab8565b906143b9565b610c8f575b506001936001600160601b038216610c5d575b50505001949394610a28565b610c8460008051602061580183398151915293600f549261068364ffffffffff8516612d91565b0390a1878080610c51565b6001600160601b038216036106ec5789610c3e565b9091929350610cb96012549161070d83612d83565b6001600160601b03610cd381600f5460301c168093612ab8565b93169081610d9b575b505050610d3c600092610d2060209360105480610d7b575060018060a01b03601954169261078960018060a01b036014541661077b604051948592338b8501612c77565b6040519485809481936337adb00f60e11b835260048301612a04565b03925af180156107f9578a92610c3992610bfe92610d5d575b819350610bea565b610d749060203d81116107f2576107e38183612bdd565b508e610d55565b6108358161083061082361081c610d929587615431565b6018553861074e565b6019546000546014546001600160a01b039081169591811694921692610dcb929091610830919061070d90612d83565b90803b156101be57610df8936000809460405196879586948593633609c92960e11b855260048501612bfe565b03925af19283156107f957610d20602093610d3c93600096610e20575b509350819450610cdc565b86610e2a91612bdd565b38610e15565b508c1515610ae9565b50670de0b6b3a76400008902898104670de0b6b3a76400000361091e57610e6b9062ffffff600f5460901c1690612ab8565b8d1115610ae3565b346101be5760003660031901126101be576020600954604051908152f35b346101be5760003660031901126101be576040610eac6146b1565b9050610eb6614787565b8351928352602083015250f35b346101be5760003660031901126101be57610160600f5460018060a01b03601454166012546001600160601b0360155462ffffff60135491601654926010549560115497866040519a868160901c168c5260301c1660208b015260408a0152606089015260018060a01b038216608089015260a088015260a01c1660c086015281811660e086015260601c16610100840152610120830152610140820152f35b346101be5760003660031901126101be57638b78c6d819546040516001600160a01b039091168152602090f35b346101be5760003660031901126101be5760e060018060a01b03600054166001546001600160601b03806002541660035460045491836005541694604051968752602087015260408601526060850152818116608085015260601c1660a083015260c0820152f35b60003660031901126101be5761100c6139c3565b6000638b78c6d819547f8be0079c531659141344cd1fd0a4f28419497f9722a3daafe3b4186f6b6457e08280a3600160ff1b638b78c6d81955005b346101be5760603660031901126101be57611060612981565b61106861296b565b6110706129d2565b9060ff600f5460281c166103ef576101f192612df0565b60003660031901126101be5763389a75e1600c523360005260006020600c2055337ffa7b8eab7da67f412cc9575ed43464468f9bfbae89d1675917346ca6d8fe3c92600080a2005b346101be5760003660031901126101be57307f0000000000000000000000000000000000000000000000000000000000000000036111315760206040517f360894a13ba1a3210667c828492db98dca3e2076cc3735a920a3ca505d382bbc8152f35b639f03a0266000526004601cfd5b346101be5760003660031901126101be5760206001600160601b0360055416604051908152f35b60603660031901126101be5761117a612955565b6111826129c3565b9061118b6129d2565b9160ff600f5460281c166103ef5760ff60055460c01c16916003831015928361129e576001149081806113de575b1561131c576111c7816139e0565b340361130b576111d6906139fa565b90949093906001600160601b038616156112c5576112b45761129e5780611296575b15611219575061121161120c6020936139e0565b613623565b604051908152f35b60195460145461126094602093926001600160a01b03908116921690600090611241906139e0565b604051633af55cc760e11b815297889586948593903360048601612ca0565b03925af19182156107f957602092611279575b50611211565b61128f90833d85116107f2576107e38183612bdd565b5082611273565b5080156111f8565b634e487b7160e01b600052602160045260246000fd5b63bb55fd2760e01b60005260046000fd5b5050919250506000906112dc575b50602090611211565b8080808060018060a01b036019541634905af16112f7612c20565b506112d35763386bf62b60e11b8152600490fd5b63fd99316160e01b60005260046000fd5b346113cd57821561139b576019546014546001600160a01b03918216929116611344826139e0565b833b156101be576113709360009283604051809781958294633609c92960e11b84523360048501612bfe565b03925af19182156107f9576111d69261138a575b506139fa565b600061139591612bdd565b86611384565b6014546019546111d692916113c8916001600160a01b0391821691166113c0846139e0565b913390613599565b6139fa565b63756ac9bb60e11b60005260046000fd5b5082156111b9565b60403660031901126101be576113fa61293f565b602435906001600160401b0382116101be57366023830112156101be578160040135906001600160401b0382116101be5736602483850101116101be57307f000000000000000000000000000000000000000000000000000000000000000014611131576114666139c3565b60018060a01b03166352d1902d6001527f360894a13ba1a3210667c828492db98dca3e2076cc3735a920a3ca505d382bbc602060016004601d855afa510361151a57807fbc7cd75a20ee27fd9adebab32041f755214dbc6bffa90cc0225b39da2e5c2d3b600080a281817f360894a13ba1a3210667c828492db98dca3e2076cc3735a920a3ca505d382bbc556114f857005b816000926024604051950185378338925af41561151157005b3d6000823e3d90fd5b6355299b496001526004601dfd5b346101be5760203660031901126101be576004358015158091036101be5761154e6139c3565b600f549060ff8260281c16151581146103ef5765ff00000000009060281b169065ff0000000000191617600f55600080f35b346101be5760003660031901126101be576020600354604051908152f35b346101be5760003660031901126101be57604051436020820152602081526115c7604082612bdd565b6115cf613678565b62ffffff811662ffffff8114158061178c575b1561168f57600052600760205264ffffffffff604060002054169064ffffffffff6000925b1691821561164d5761162b9083600052600660205260406000205460a01c90612d06565b91600052600660205264ffffffffff8060016040600020015460281c16611607565b6040805162ffffff841660208201526001600160601b0390921690820152909261168a92506116849190610789826060810161077b565b91613740565b6115cf565b6116ad83604051906000602083015260208252610789604083612bdd565b6116b5613827565b62ffffff811662ffffff81141580611783575b1561177557600052600860205264ffffffffff604060002054169064ffffffffff6000925b16918215611733576117119083600052600660205260406000205460a01c90612d06565b91600052600660205264ffffffffff8060016040600020015460281c166116ed565b6040805162ffffff841660208201526001600160601b03909216908201529092611770925061176a9190610789826060810161077b565b916138dd565b6116b5565b604051806102a68582612a04565b508015156116c8565b508015156115e2565b60603660031901126101be576117a9612981565b6117b16129c3565b906117ba6129d2565b60ff600f5460281c166103ef5760ff60055460c01c16916003831015928361129e57600214908180611caf575b15611c0b576117f581613580565b340361130b5793919290935b60009360009361180f614787565b9660609691946000925b62ffffff82169182151580611bce575b80611bc5575b156119ba57506001600160601b03611850600f5493828560301c1690613084565b16670de0b6b3a7640000810290808204670de0b6b3a7640000149015171561091e578a9361053a89936118e2936001600160601b036118a562ffffff6118e89960901c169261189f848c612aa5565b90612ab8565b169e8f96879260009115611965575050506118c26118dc91615118565b92909c8d8094985b6000921561195d5761053a92506135e9565b9d6135e9565b98612d26565b946001600160601b03611907600f549362ffffff8560901c1690612aa5565b9260301c16670de0b6b3a7640000810290808204670de0b6b3a7640000149015171561091e5762ffffff926001600160601b036119459316906153ed565b169161194f614787565b999095979193909998611819565b505090612d06565b928260406119ae9362ffffff670de0b6b3a764000061199e8983836119966118dc9d6001600160601b039f9d612aa5565b041696612aa5565b0416815260086020522090614b0b565b93169c8d8094986118ca565b84868d8b8a6001600160601b0389168f8882611a31575b50505062ffffff8616156112c5576112b45761129e5780611a29575b15611a01575061121161120c602093613580565b60195460155461126094602093926001600160a01b0390811692169060009061124190613580565b5080156119ed565b90919650611a456012549761070d89612d83565b611a5e6001600160601b03600f5460301c168092612ab8565b976001600160601b0360018060a01b036014541693169182611b4a575b50505060105480611afe575b50611ac9600092610d2060209360018060a01b03601954169260405191338784015260408301528b60608301528660808301526080825261078960a083612bdd565b03925af180156107f957611adf575b80806119d1565b611af79060203d6020116107f2576107e38183612bdd565b5086611ad8565b611b088189615431565b9788611b1391613609565b97601154611b219083613609565b611b2a91612aa5565b90611b3491612ab8565b60185490611b4191613616565b60185588611a87565b6019546000546001600160a01b0391821694911692611b7192916108309161070d90612d83565b823b156101be57611b9e92846000809460405196879586948593633609c92960e11b855260048501612bfe565b03925af180156107f957611bb4575b8080611a7b565b6000611bbf91612bdd565b88611bad565b508a151561182f565b5062ffffff600f5460901c1660008115611bf757506a0de0b6a5c6ad4c589c0000048b10611829565b634e487b7160e01b81526012600452602490fd5b346113cd578415611c8a576019546015546001600160a01b039182169116611c3283613580565b823b156101be57611c5e9260009283604051809681958294633609c92960e11b84523360048501612bfe565b03925af180156107f957611c79575b505b9391929093611801565b6000611c8491612bdd565b85611c6d565b601554601954611caa916001600160a01b0390811691166113c084613580565b611c6f565b5084156117e7565b346101be5760003660031901126101be57602064ffffffffff600f5416604051908152f35b60003660031901126101be5763389a75e1600c52336000526202a30042016020600c2055337fdbf36a107da19e49527a7176a1babf963b4b0ff8cde35ee35d6cd8f1f9ac7e1d600080a2005b346101be5760203660031901126101be576004356001600160401b0381116101be57611d58903690600401612993565b9060005b828110611d9757507f386974f41b61738b510019ccd5a3524a43eccf0d136929e09d524e87aeeca2c4916106d2604051928392339184612b52565b80611db5611db0611dab6001948787612af6565b612b40565b6130a7565b5001611d5c565b346101be5760c03660031901126101be576004356001600160401b0381116101be57611dec903690600401612993565b610160526024356001600160401b0381116101be57611e0f903690600401612993565b91906044356001600160401b0381116101be57611e30903690600401612993565b90610180526064356001600160401b0381116101be57611e54903690600401612993565b90926084356001600160401b0381116101be57611e75903690600401612993565b60a4356101c0819052909791969080151590036101be5760ff600f5460281c166103ef578161016051036103ff578385036103ff579594939291906000610140525b610160516101405110611f98575b5050909192935060005b828110611f34575b5050505060005b828110611f1957507f386974f41b61738b510019ccd5a3524a43eccf0d136929e09d524e87aeeca2c4916106d2604051928392339184612b52565b80611f2d611db0611dab6001948787612af6565b5001611ede565b62ffffff611f496103b6838661018051612af6565b1615611f9357611f606103b6828561018051612af6565b90611f6f6103ca828588612af6565b60ff600f5460281c166103ef57600192611f8d916101c05191612df0565b01611ecf565b611ed7565b62ffffff611fb06103b661014051610160518b612af6565b16156124d357611fca6103b661014051610160518a612af6565b61024052611fdf6103ca610140518385612af6565b6101e05260ff600f5460281c166103ef5762ffffff610240511615610956576016546001600160601b0381166001600160601b036101e051161115610945576001600160601b039060601c166001600160601b036101e0511610156109455762ffffff6120568160155460a01c1661024051612d6d565b16610934576101e05161010052600061022081905260e052612076614787565b610200526101a0526102005160a05260008060805260606080525b6001600160601b036101005116151580612495575b8061248a575b156121d75761213f9061055c61010051600080610120526101a05160001461217557506105566120de61010051615118565b610120525b80610100526120fe6120f582856135e9565b61022051612d06565b6102205260006101a05160001461216c575061212561211d82856135e9565b60e051612d06565b60e05262ffffff61054f81600f5460901c1660a051615403565b9661214f61012051608051612d26565b60805261215a614787565b60c082905260a0526101a05296612091565b6121259061211d565b6001600160601b036121cd6105569262ffffff600f5460901c16670de0b6b3a76400006121b762ffffff826121ac8560a051612aa5565b04169260a051612aa5565b0482526008602052604061010051922090614b0b565b61012052166120e3565b96909192939495966001600160601b03610220511680612304575b50610bfe61220a9161055c6101005161024051614849565b6101c0516122d3575b6001600160601b03610100511661223b575b6001610140510161014052959493929190611eb7565b6000805160206158018339815191526122cb600f5461226064ffffffffff8216612d91565b9064ffffffffff82169064ffffffffff191617600f5561228261024051614427565b5062ffffff610240511660005260076020526122b36122a5826040600020614553565b8261010051610240516145b8565b60405191829161024051906101005190339085612dab565b0390a1612225565b6001600160601b0361010051166001600160601b036101e051160315612213576306e6da4d60e01b60005260046000fd5b906123156012549261070d84612d83565b9161232f6001600160601b03600f5460301c168094612ab8565b926001600160601b0360e0511690816123fd575b505050602061239f600093601054806123dd575b506019546014546040516001600160a01b039283169361078e93919261239792849261238992909116338a8501612c77565b03601f198101835282612bdd565b608051612d26565b03925af19081156107f95761220a92610bfe926123bf575b5091506121f2565b6123d69060203d81116107f2576107e38183612bdd565b508b6123b7565b6108358161083061082361081c6123f49587615431565b6018558d612357565b6019546000546014546001600160a01b03908116959181169492169261242d929091610830919061070d90612d83565b90803b156101be5761245a936000809460405196879586948593633609c92960e11b855260048501612bfe565b03925af180156107f95760009360209261239f9261247a575b5093612343565b8561248491612bdd565b8d612473565b5060a05115156120ac565b506102405162ffffff16670de0b6b3a7640000818102918204900361091e576124c99062ffffff600f5460901c1690612ab8565b60a05111156120a6565b611ec5565b346101be5760203660031901126101be5760043564ffffffffff81168091036101be57600052600660205260c0604060002060ff600182549201546040519260018060a01b038116845260a01c602084015264ffffffffff8116604084015264ffffffffff8160281c16606084015262ffffff8160501c16608084015260681c16151560a0820152f35b346101be576102003660031901126101be5761257c61293f565b6024359060038210156101be576044356001600160a01b03811692908390036101be576084356001600160a01b03811693908490036101be5760c4356001600160a01b038116908190036101be5760e435906001600160601b03821682036101be57610104359562ffffff871687036101be57610124359162ffffff831683036101be57610144356001600160601b0381168091036101be57610164356001600160601b03811681036101be5761018435916101a435936101c4359560018060a01b0387168097036101be576101e435976001600160601b0389168099036101be5763409feecd19805460038255909d90806128a5575b50638b78c6d81954612897576001600160a01b0316801560ff1b8117638b78c6d8195560007f8be0079c531659141344cd1fd0a4f28419497f9722a3daafe3b4186f6b6457e08180a385611f4002611f408104870361091e5761271090048711158061288c575b1561287b576001600160601b03600a8a06161580612872575b80612867575b1561285657600a9960009e6005549c6001600160601b0360a01b60145416176014556015549460643560125560a4356013556001600160601b0360a01b601954161760195571ffffffffffffffffffffffff000000000000600f549162ffffff60901b9060901b169260301b169074ffffffffffffffffffffffffffffff00000000000019161717600f5562ffffff60a01b9060a01b169168ffffffffffffffffff60b81b161717601555601654916001600160601b0360601b9060601b16916001600160401b0360c01b1617176016556010556011556001600160601b0360a01b875416178655046001600160601b0360601b9060601b169160ff60c01b9060c01b16906cffffffffffffffffffffffffff60601b1916171760055580600019600355612825575080f35b6002905560016020527fc7f505b2f371ae2175ee4913f4499e1f2633a7b5936321eed1cdaeb6115181d2602080a180f35b633cd146b160e01b60005260046000fd5b506101f489106126f9565b508815156126f3565b63a926954560e01b60005260046000fd5b5061271086106126da565b630dc149f06000526004601cfd5b6001919e9181811c14303b10156128c15760ff1b1b9c8f612673565b63f92ee8a96000526004601cfd5b346101be5760203660031901126101be5760043560005260086020526102a6604060002054604051918164ffffffffff80859460281c1691168390929164ffffffffff60209181604085019616845216910152565b346101be5760003660031901126101be57602090600c548152f35b600435906001600160a01b03821682036101be57565b600435906001600160601b03821682036101be57565b602435906001600160601b03821682036101be57565b6004359062ffffff821682036101be57565b9181601f840112156101be578235916001600160401b0383116101be576020808501948460051b0101116101be57565b6024359081151582036101be57565b6044359081151582036101be57565b60005b8381106129f45750506000910152565b81810151838201526020016129e4565b60409160208252612a2481518092816020860152602086860191016129e1565b601f01601f1916010190565b60606003198201126101be576004356001600160401b0381116101be5781612a5a91600401612993565b92909291602435906001600160401b0382116101be57612a7c91600401612993565b909160443580151581036101be5790565b906103e88202918083046103e8149015171561091e57565b8181029291811591840414171561091e57565b8115612ac2570490565b634e487b7160e01b600052601260045260246000fd5b906001600160601b0316908115612ac2576001600160601b03160490565b9190811015612b065760051b0190565b634e487b7160e01b600052603260045260246000fd5b3562ffffff811681036101be5790565b356001600160601b03811681036101be5790565b3564ffffffffff811681036101be5790565b604080825281018390529293929160608301906000905b808210612b84575050602091509360018060a01b0316910152565b909183359064ffffffffff82168092036101be57908152602093840193019160010190612b69565b60c081019081106001600160401b03821117612bc757604052565b634e487b7160e01b600052604160045260246000fd5b90601f801991011681019081106001600160401b03821117612bc757604052565b6001600160a01b03918216815291166020820152604081019190915260600190565b3d15612c5a573d906001600160401b038211612bc75760405191612c4e601f8201601f191660200184612bdd565b82523d6000602084013e565b606090565b908160209103126101be575180151581036101be5790565b6001600160a01b0391821681529116602082015260408101919091526001606082015260800190565b6001600160a01b039182168152911660208201526040810191909152901515606082015260800190565b6001600160601b03166107d001906001600160601b03821161091e57565b6001600160601b03166103e801906001600160601b03821161091e57565b906001600160601b03809116911601906001600160601b03821161091e57565b612d6b9092919260206040519482612d4787945180928580880191016129e1565b8301612d5b825180938580850191016129e1565b010103601f198101845283612bdd565b565b9062ffffff16908115612ac25762ffffff160690565b604d811161091e57600a0a90565b64ffffffffff60019116019064ffffffffff821161091e57565b64ffffffffff90911681526001600160a01b0390911660208201526001600160601b0391909116604082015262ffffff90911660608201526001608082015260a00190565b90916016546001600160601b038416906001600160601b0381168211156109455760601c6001600160601b03168110156109455762ffffff612e398160155460a01c1685612d6d565b166109345762ffffff831693841561095657612e84612e8a9261063f612e6f60018060a01b03601454169261070d601254612d83565b6001600160601b03600f5460301c1690612ab8565b83613f2c565b9091613062575b506001600160601b031690811561305d576000805160206158018339815191529260a09261303d600f5493612eeb612ecf64ffffffffff8716612d91565b9164ffffffffff8316809764ffffffffff191617600f556144be565b50836000526008602052612f03816040600020614553565b60405190612f1082612bac565b3382528686612fdb64ffffffffff60208601898152818060018160408b019916998a8a52612fa96001600160601b03606083019660008852608084019a8b5260a084019b60008d52600052600660205260406000209360a08680911b039060a08780911b039051161660a083901b855416178455511682908154906001600160601b0360a01b9060a01b169060018060a01b0316179055565b019751161682198754161786555116849064ffffffffff60281b82549160281b169064ffffffffff60281b1916179055565b518254915163ffffffff60501b1990921660509190911b62ffffff60501b161790151560681b60ff60681b1617905560009081526006602052604090206001019064ffffffffff60281b82549160281b169064ffffffffff60281b1916179055565b6040519283523360208401526040830152606082015260006080820152a1565b505050565b6106ec5738612e91565b9062ffffff8091169116019062ffffff821161091e57565b906001600160601b03809116911602906001600160601b03821691820361091e57565b64ffffffffff168060005260066020526040600020906040516130c981612bac565b6001835493818060a01b0385168352602083019460a01c855201549264ffffffffff8416926040830190848252606084019064ffffffffff8760281c16825262ffffff8760501c16608086019681885260ff60a088019960681c16151590818a52151560001461351957505064ffffffffff83511660005260066020528064ffffffffff60016040600020015460281c16036134b7578651156134d25762ffffff865116600052600760205264ffffffffff604060002054168181111590816134c8575b50156134b7575b84516001600160a01b031633036134a65764ffffffffff83511680613460575b5064ffffffffff8251168061342b575b5086511561332e57602094928694926132219262ffffff6132b89951166000526007885264ffffffffff60406000205416146132ee575b62ffffff8651166000526007875264ffffffffff80604060002093511691511691614abc565b6019549151601554915193516001600160a01b039182169493821693929091169160009161329a916132619162ffffff16906001600160601b0316613084565b62ffffff61328f81613283600f54946001600160601b038660301c1690612ad8565b1661070d601354612d83565b9160901c1690612ab8565b604051633af55cc760e11b8152968795869485939160048501612c77565b03925af180156107f9576132cf575b505b51151590565b6132e79060203d6020116107f2576107e38183612bdd565b50386132c7565b62ffffff86511660005260078752604060002061331464ffffffffff83511680926148a2565b506131fb5761332862ffffff87511661497f565b506131fb565b9161337e9162ffffff8760209795826133bd9a51166000526008895264ffffffffff60406000205416146133f1575b51166000526008865264ffffffffff80604060002093511691511691614abc565b601954905160145492516012546001600160a01b0392831694938316939092169160009161329a91612e6f916001600160601b03169061070d90612d83565b03925af180156107f9576133d2575b506132c9565b6133ea9060203d6020116107f2576107e38183612bdd565b50386133cc565b8181511660005260088852604060002061341464ffffffffff85511680926148a2565b5061335d57613425828251166148e0565b5061335d565b64ffffffffff84511690600052600660205264ffffffffff6001604060002001911664ffffffffff19825416179055386131c4565b6134a09064ffffffffff84511690600052600660205260016040600020019064ffffffffff60281b82549160281b169064ffffffffff60281b1916179055565b386131b4565b63a0cdd78160e01b60005260046000fd5b63020a7dc960e61b60005260046000fd5b905015153861318d565b62ffffff865116600052600860205264ffffffffff6040600020541681811115908161350f575b506131945763020a7dc960e61b60005260046000fd5b90501515386134f9565b15613553575062ffffff86511660005260076020528064ffffffffff6040600020541603156131945763020a7dc960e61b60005260046000fd5b60005260086020528064ffffffffff6040600020541603156131945763020a7dc960e61b60005260046000fd5b61062e6135969162ffffff610627601354612d83565b90565b601c600060649281946020966040519860605260405260601b602c526323b872dd60601b600c525af13d156001600051141716156135db576000606052604052565b637939f4246000526004601cfd5b906001600160601b03809116911603906001600160601b03821161091e57565b9190820391821161091e57565b9190820180921161091e57565b600080808060018060a01b036019541661363d8634613609565b905af1613648612c20565b501561366757600080808093335af161365f612c20565b501561366757565b63386bf62b60e11b60005260046000fd5b60008052600b60205261369060006040812054615453565b60018101613738575060008052600a6020526136b160006040812054615453565b6001810161371b57506136c76000600954615453565b600181016136d55750600090565b80600052600a60205260ff6136ee60406000205461547c565b169060081b1780600052600b60205262ffffff60ff61371160406000205461547c565b169160081b161790565b80600052600b60205262ffffff60ff61371160406000205461547c565b62ffffff1690565b8060081c9060ff811660ff81036137f0575b5060ff9060101c1660ff821660ff81036137aa575b5060ff91501660ff810361377c575b50600090565b61378890600954615453565b60018101156137765780600052600a60205260ff6136ee60406000205461547c565b6137c29082600052600a602052604060002054615453565b9160018301156137675761ff009150161780600052600b60205262ffffff60ff61371160406000205461547c565b61380c9061ffff8416600052600b602052604060002054615453565b60018101156137525762ffffff1662ffff0090911617919050565b60008052600e60205261383f60006040812054615453565b60018101613738575060008052600d60205261386060006040812054615453565b600181016138c057506138766000600c54615453565b600181016138845750600090565b80600052600d60205260ff61389d60406000205461547c565b169060081b1780600052600e60205262ffffff60ff61371160406000205461547c565b80600052600e60205262ffffff60ff61371160406000205461547c565b8060081c9060ff811660ff810361398c575b5060ff9060101c1660ff821660ff8103613946575b5060ff91501660ff81036139185750600090565b61392490600c54615453565b60018101156137765780600052600d60205260ff61389d60406000205461547c565b61395e9082600052600d602052604060002054615453565b9160018301156139045761ff009150161780600052600e60205262ffffff60ff61371160406000205461547c565b6139a89061ffff8416600052600e602052604060002054615453565b60018101156138ef5762ffffff1662ffff0090911617919050565b638b78c6d8195433036139d257565b6382b429006000526004601cfd5b612e6f613596916001600160601b03610627601254612d83565b6000908192613a076146b1565b90946060935b6001600160601b03811680151580613f10575b80613f03575b15613d50578190848980613d39575b60009015613ce357505060015490600454906001600160601b038260601c1660025495613a6b6001600160601b038816836135e9565b926001600160601b03841611918215613cda57819788935b15613bfb5750506000805160206157e1833981519152935090613acc916002546001600160601b03613ab783828416612d06565b16906001600160601b031916176002556135e9565b92613b3f613ada828861560a565b96613af08160018060a01b0360005416956135e9565b6040805160008082526001600160a01b0390971660208201529081019590955260608501939093526001600160601b0392831660808501523260a085015290911660c0830152819060e0820190565b0390a191935b8298600014613b9d575091613b7e613b64613b8493613b8a96956135e9565b6001546001600160601b0380600f5460301c1692166153ed565b90613616565b93612d26565b91613b936146b1565b9095919091613a0d565b613bee62ffffff91613bb9613bf595613b8a98979a9b956135e9565b906001600160601b038085670de0b6b3a7640000613be0600f5495838760901c1690612aa5565b04169260301c1692166153ed565b169061306c565b94612d26565b9092506001600160601b0319166002556001600160601b0382811960055416178060055560601c16906107d06001600160601b03613c3884612cca565b169384810294818604149015170215613ccc57613cc0613c9289936000805160206157e183398151915297613acc966107d06001600160601b0360601b910460601b16906001600160601b0360601b191617600455612ce8565b610830613c9e89612a8d565b6b7fffffffffffffffffffffff6001600160601b0384169360011c1690613616565b600155856003556135e9565b63ad251c276000526004601cfd5b83978893613a83565b613d3092509060406001600160601b039592670de0b6b3a7640000613d2162ffffff82613d1882600f5460901c168098612aa5565b0416948b612aa5565b04815260076020522090614eab565b92169193613b45565b506001600160601b0360045460601c161515613a35565b5093929490955062ffffff9150168015801590613efa575b613d7757505090915090600090565b613daf613d8d61062e6013549361070d85612d83565b670de0b6b3a7640000613da8613da285612d83565b89612aa5565b0490613616565b9480613e67575b50506020613dfb60009260105480613e2b575b50610d208760018060a01b03601954169261078960018060a01b036015541661077b89604051958693338c8601612ca0565b03925af180156107f957613e0e57509190565b613e269060203d6020116107f2576107e38183612bdd565b509190565b613e5681610830613e49613e42613e5e958d615431565b809c613609565b9a61070d60115484613609565b601754613616565b60175538613dc9565b6019546000546015546001600160a01b039081169491811693921691670de0b6b3a764000091613e9b919061070d90612d83565b0490803b156101be57613ec9936000809460405196879586948593633609c92960e11b855260048501612bfe565b03925af180156107f957600092602092613dfb92613eea575b509250613db6565b84613ef491612bdd565b38613ee2565b50841515613d68565b5062ffffff841415613a26565b5062ffffff600f5460901c1660009015611bf757506001613a20565b9190600080918194613f3c6146b1565b90966060935b6001600160601b0381169081151580614360575b80614353575b156141aa57869181908b80614193575b1561413a57600154600454926001600160601b038460601c1660025494613f9c6001600160601b038716836135e9565b946001600160601b0386161195866000146141335783965b15614068575050509061400c613fec856000805160206157e183398151915295946002546001600160601b03613ab783828416612d06565b94613af081613ffb858261560a565b99546001600160a01b0316956135e9565b0390a191935b829a600014614046575091613b7e613b64613b849361403196956135e9565b9361403a6146b1565b90979593909195613f42565b613bee62ffffff91613bb96140629561403198979a9c956135e9565b95612d26565b9091929394959697506001600160601b0319166002556001600160601b0382811960055416178060055560601c16916107d06001600160601b036140ab85612cca565b16918281029281840414901517021561412657868d9897969461411a61410e6000805160206157e1833981519152989661400c96613fec966107d06001600160601b0360601b910460601b16906001600160601b0360601b191617600455612ce8565b610830613c9e88612a8d565b600155846003556135e9565b63ad251c278d526004601cfd5b8596613fb4565b506001600160601b03925061418a9062ffffff600f5460901c16670de0b6b3a764000061417862ffffff8261416f858c612aa5565b04169289612aa5565b048a52600760205260408a2090614eab565b92169193614012565b506001600160601b0360045460601c161515613f6c565b9692505093965062ffffff91501691821580159061434a575b6141ce575050509190565b90859295916142046141e961062e6013549961070d8b612d83565b670de0b6b3a7640000613da86141fe8b612d83565b85612aa5565b96816142a8575b50506142526020916010548881614273575b6019546015546040516001600160a01b039283169561078e95509093909261078992859261077b9260019216338c8601612ca0565b03925af19081156142675750613e0e57509190565b604051903d90823e3d90fd5b8161083061429161428a61429e95613e5695615431565b809d613609565b9b61070d60115484613609565b601755388861421d565b60195485546015549495506001600160a01b039081169491811693911691670de0b6b3a7640000916142dd9161070d90612d83565b0492823b15614346579161430c939186809460405196879586948593633609c92960e11b855260048501612bfe565b03925af1801561433b57614324575b9081839261420b565b8261433461425294602093612bdd565b925061431b565b6040513d85823e3d90fd5b8580fd5b508015156141c3565b5062ffffff841415613f5c565b5062ffffff8516670de0b6b3a7640000810290808204670de0b6b3a764000014901517156143a55761439d9062ffffff600f5460901c1690612ab8565b841015613f56565b634e487b7160e01b88526011600452602488fd5b6019546000936001600160a01b039091169190823b1561442357916143f9939185809460405196879586948593633609c92960e11b855260048501612bfe565b03925af180156144185761440b575050565b8161441591612bdd565b50565b6040513d84823e3d90fd5b8480fd5b8060081c9061ffff821680600052600b60205260406000205490600160ff84161b82179081830361445c575050505050600090565b600052600b60205260406000205515614477575b5050600190565b60101c60ff9081166000818152600a6020526040902080546001949093169390931b8217909255156144aa575b80614470565b60ff600191161b60095417600955386144a4565b8060081c9061ffff821680600052600e60205260406000205490600160ff84161b8217908183036144f3575050505050600090565b600052600e6020526040600020551561450d575050600190565b60101c60ff9081166000818152600d6020526040902080546001949093169390931b82179092551561453f5780614470565b60ff600191161b600c5417600c55386144a4565b805460281c64ffffffffff16918261459357815469ffffffffffffffffffff191664ffffffffff82161760289190911b64ffffffffff60281b1617905590565b815469ffffffffff0000000000191660289190911b64ffffffffff60281b1617905590565b926001612d6b94612fdb64ffffffffff868180866040516145d881612bac565b3381526001600160601b03602082019b168b52612fa96001600160601b0384604084019c169c8d8d5285606085019860008a5262ffffff608087019d168d5260a086019d8e52166000526006602052604060002093858060a01b0390868060a01b03905116168260a01b855416178455511682908154906001600160601b0360a01b9060a01b169060018060a01b0316179055565b60018060a01b031680638b78c6d819547f8be0079c531659141344cd1fd0a4f28419497f9722a3daafe3b4186f6b6457e0600080a3801560ff1b17638b78c6d81955565b62ffffff6146bd61553c565b1662ffffff81036146e457506001549081156146d95760019190565b6000915062ffffff90565b600154806147285750670de0b6b3a7640000810290808204670de0b6b3a7640000149015171561091e576147239062ffffff600f5460901c1690612ab8565b600091565b9190670de0b6b3a7640000810290808204670de0b6b3a7640000149015171561091e5762ffffff600f5460901c166147608183612ab8565b600092908581188187110218850361477b5750505060019190565b91935061359691612ab8565b62ffffff614793613827565b16801580156147b95750506003549060001982146147b15760019190565b600091508190565b600354600181016147f85750670de0b6b3a76400008202918204670de0b6b3a764000014171561091e576147239062ffffff600f5460901c1690612ab8565b929190670de0b6b3a76400008202918204670de0b6b3a764000014171561091e5762ffffff600f5460901c1661482e8183612ab8565b600092908581188187100218850361477b5750505060019190565b62ffffff906001600160601b0380600f5460301c169283921693169283810293818504149015170215613ccc57808204910615150162ffffff8110156148915762ffffff1690565b630b25243160e01b60005260046000fd5b9064ffffffffff8116156148c95764ffffffffff1664ffffffffff19825416179055600090565b50805469ffffffffffffffffffff19169055600190565b8060081c9061ffff821680600052600e60205260406000205490600160ff84161b1982168092036149145750505050600090565b600052600e602052806040600020551561492f575050600190565b60ff9060101c169081600052600d602052600160ff60406000205492161b191681600052600d602052806040600020551561496a5780614470565b60ff600191161b19600c5416600c55386144a4565b8060081c9061ffff821680600052600b60205260406000205490600160ff84161b1982168092036149b35750505050600090565b600052600b60205280604060002055156149ce575050600190565b60ff9060101c169081600052600a602052600160ff60406000205492161b191681600052600a6020528060406000205515614a095780614470565b60ff600191161b1960095416600955386144a4565b908060081c9061ffff821660028401816000528060205260406000205491600160ff85161b198316809303614a5857505050505050600090565b6000526020528060406000205515614a73575b505050600190565b60101c60ff9081166000818152600185810160205260409091208054949093161b199092169081905515614aa8575b80614a6b565b60ff600191161b1981541690553880614aa2565b9164ffffffffff9081831615614afb575b1615614ad7575050565b815469ffffffffff0000000000191660289190911b64ffffffffff60281b16179055565b8181168219855416178455614acd565b90919260609064ffffffffff8454165b6001600160601b03861680151580614e9b575b15614e6e5760009164ffffffffff6001604082841695868152600660205220015460281c169083600052600660205260406000205460a01c928360009111600014614e685750614b7e838a6135e9565b985b6000916001600160601b038b16159485614e54575b50600086815260066020526040812060018101549054614c739260689290921c60ff1615916001600160a01b0391909116908815614e3e575084915b89600052600660205262ffffff60016040600020015460501c169181600014614e2c576015546001600160a01b0316935b8215614e0657614c1284826157ce565b935b60609315614de05750612710614c51614c48612e6f60018060a01b0360145416946001600160601b03610627601254612d83565b60115490612aa5565b04905b81614dba575b505061077b610789929360405195869360208501612c77565b948015614d91575b614d48575b506000858152600660205260409020805460019190910154670de0b6b3a7640000605082901c62ffffff16818102989360689390931c60ff1615926001600160a01b0316918115918a0414171561091e576001600160601b036000805160206157e18339815191529560e0958f94614d118496614d0b614d419e62ffffff600f5460901c1690612ab8565b936135e9565b946040519788526020880152604087015260608601521660808401523260a08401521660c0820152a19693612d26565b9194614b1b565b6001600160601b038316614d89575b50600085815260066020526040902080546001600160a01b031660a084901b6001600160a01b03191617905538614c80565b925038614d57565b5083158015614c7b575085600052600660205264ffffffffff6001604060002001541615614c7b565b610789935090614dda61077b926123896040519384928760208501612c77565b92614c5a565b6015546001600160a01b03169161271091614dff91614c4891906157ce565b0490614c54565b614e26612e6f614e17601254612d83565b6001600160601b038416612aa5565b93614c14565b6014546001600160a01b031693614c02565b808a604092526006602052205460a01c91614bd1565b614e6191935082906135e9565b9138614b95565b98614b80565b50614e848164ffffffffff9396979594976148a2565b501615614e9057509190565b613e2690600c614a1e565b5064ffffffffff82161515614b2e565b90919260609064ffffffffff8454165b6001600160601b03861680151580615108575b156150db5760009164ffffffffff6001604082841695868152600660205220015460281c169083600052600660205260406000205460a01c9283600091116000146150d55750614f1e838a6135e9565b985b6000916001600160601b038b161594856150c1575b50600086815260066020526040812060018101549054614fb09260689290921c60ff1615916001600160a01b0391909116908815614e3e5750849189600052600660205262ffffff60016040600020015460501c169181600014614e2c576015546001600160a01b0316938215614e0657614c1284826157ce565b948015615098575b61504f575b506000858152600660205260409020805460019190910154670de0b6b3a7640000605082901c62ffffff16818102989360689390931c60ff1615926001600160a01b0316918115918a0414171561091e576001600160601b036000805160206157e18339815191529560e0958f94614d118496614d0b6150489e62ffffff600f5460901c1690612ab8565b9194614ebb565b6001600160601b038316615090575b50600085815260066020526040902080546001600160a01b031660a084901b6001600160a01b03191617905538614fbd565b92503861505e565b5083158015614fb8575085600052600660205264ffffffffff6001604060002001541615614fb8565b6150ce91935082906135e9565b9138614f35565b98614f20565b506150f18164ffffffffff9396979594976148a2565b5016156150fd57509190565b613e26906009614a1e565b5064ffffffffff82161515614ece565b90600354906005546001600160601b03811690600454946151426001600160601b038716846135e9565b926001600160601b0384166001600160601b0383161092836000146153e457829788945b156152d957505050916001600160601b036151ab60e0936000805160206157e1833981519152956004548461519d83828416612d06565b1690851916176004556135e9565b6015549097908290615261906001600160a01b03166000670de0b6b3a76400006151f66151eb6151dd8789168f612aa5565b87600f5460301c1690612ab8565b61070d601354612d83565b0460609060018060a01b0360145416612710615232614c4861522461521c601254612d83565b8b8d16612aa5565b8a600f5460301c1690612ab8565b04806152a6575b5050915460405193919261078992859261077b9291906001600160a01b031660208501612c77565b976152778360018060a01b0360005416966135e9565b90604051956000875260208701526001604087015260608601521660808401523260a08401521660c0820152a1565b8454604051610789955061077b9390926152d392849261238992916001600160a01b031660208501612c77565b92615239565b90919293506001600160601b0360601b8260601b16906001600160401b0360c01b16176004556001600160601b03615315818360601c16612cca565b16806107d08402936107d0818604149015170215613ccc5782816001600160601b03949285930491061515011690821916178060055560601c169161536b6001600160601b0361536485612ce8565b1686612aa5565b6101f4810180911161091e576103e890046003556002546001600160601b0361539681831695612ce8565b1693846103e88202916103e8818404149015170215613ccc578760e0946001600160601b0393846000805160206157e1833981519152986151ab9504169085191617600255886001556135e9565b84978894615166565b8181029181159183041417820215613ccc570490565b8181029181159183041417670de0b6b3a76400000215613ccc57670de0b6b3a7640000808204910615150190565b81810291811591830414176127100215613ccc57612710808204910615150190565b600190910160ff1690811c908161546c57505060001990565b61547760ff9261547c565b011690565b6000908060801b80615530575b508060401b80615523575b508060201b80615516575b508060101b80615509575b508060081b806154fc575b508060041b806154ef575b508060021b806154e2575b5060011b6154da575b60ff0390565b6001016154d4565b60029150910190386154cb565b60049150910190386154c0565b60089150910190386154b5565b60109150910190386154aa565b602091509101903861549f565b6040915091019038615494565b91505060809038615489565b61ffff600052600b60205261555760ff6040600020546156e0565b600181016155fd575060ff600052600a60205261557a60ff6040600020546156e0565b600181016155dc575061559060ff6009546156e0565b600181016155a0575062ffffff90565b80600052600a60205260ff6155b960406000205461570e565b169060081b1780600052600b60205262ffffff60ff61371160406000205461570e565b61ff001780600052600b60205262ffffff60ff61371160406000205461570e565b62ffff001762ffffff1690565b906135969160018060a01b036014541691600091612710615680670de0b6b3a76400006156766151eb612e6f615656612e6f615647601254612d83565b6001600160601b038a16612aa5565b97606099506001600160601b0360018060a01b0360155416981690612aa5565b0460115490612aa5565b04806156ad575b50506000546040519361078992859261077b92906001600160a01b031660208501612c77565b60005460405193945061078993926156d892849261238992906001600160a01b031660208501612c77565b919038615687565b60001990910160ff90811681031690811b806156fe57505060001990565b61570960ff9161570e565b160390565b906000916fffffffffffffffffffffffffffffffff81116157c3575b806001600160401b03600192116157b7575b63ffffffff81116157ab575b61ffff811161579f575b60ff8111615793575b600f8111615787575b6003811161577b575b1161577457565b9060010190565b6002938401931c61576d565b6004938401931c615764565b6008938401931c61575b565b6010938401931c615752565b6020938401931c615748565b6040938401931c61573c565b60809250821c61572a565b6132619062ffffff613596931661308456fe06029dfae141718336c21b1bb8cd746dc87a38baa63c413c40fa24b807b7cc05de65ec26e567cef1936a693231b33b08ce40fca66ce0e78b38d938048c7a0891a26469706673582212206a1fb0a2650d643dad993773f63162ecf649c361d54a8a805ff8659c9e32ede764736f6c634300081b0033","linkReferences":{}},"methodIdentifiers":{"addBuyOrder(uint24,uint96,bool)":"cc57aec6","addSellOrder(uint24,uint96,bool)":"5b16c9b6","batchCancelOrders(uint40[])":"23afbff3","batchUpdate(uint24[],uint96[],uint24[],uint96[],uint40[],bool)":"20b3fa5c","bestBidAsk()":"b4de8b70","cancelOwnershipHandover()":"54d1f13d","collectFees()":"c8796572","completeOwnershipHandover(address)":"f04e283e","getL2Book()":"46fdfbb1","getMarketParams()":"90c9427c","getVaultParams()":"88bb4f60","initialize(address,uint8,address,uint256,address,uint256,address,uint96,uint24,uint24,uint96,uint96,uint256,uint256,address,uint96)":"137fc7bb","owner()":"8da5cb5b","ownershipHandoverExpiresAt(address)":"fee81cf4","placeAndExecuteMarketBuy(uint24,bool,bool)":"2e8a0fc3","placeAndExecuteMarketSell(uint96,bool,bool)":"50a9340a","placeMultipleBuyOrders(uint24[],uint96[],bool)":"bb62b3c5","placeMultipleSellOrders(uint24[],uint96[],bool)":"d2cd7d7f","proxiableUUID()":"52d1902d","renounceOwnership()":"715018a6","requestOwnershipHandover()":"25692962","s_buyPricePoints(uint256)":"e6d29b51","s_buyTree()":"badc92d1","s_orderIdCounter()":"2bf1360e","s_orders(uint40)":"1c0d9c22","s_sellPricePoints(uint256)":"0e2e2ffe","s_sellTree()":"02b90c65","toggleMarkets(bool)":"4d781103","transferOwnership(address)":"f2fde38b","updateVaultOrdSz(uint96,uint96,uint256,uint256)":"e55bb4e3","upgradeToAndCall(address,bytes)":"4f1ef286","vaultAskOrderSize()":"51130ac6","vaultBestAsk()":"474b848c"},"id":4}