{
  "_format": "hh-sol-artifact-1",
  "contractName": "Router",
  "sourceName": "contracts/Router.sol",
  "abi": [
    {
      "anonymous": false,
      "inputs": [
        {
          "indexed": false,
          "internalType": "uint8",
          "name": "version",
          "type": "uint8"
        }
      ],
      "name": "Initialized",
      "type": "event"
    },
    {
      "anonymous": false,
      "inputs": [
        {
          "indexed": false,
          "internalType": "address",
          "name": "baseAsset",
          "type": "address"
        },
        {
          "indexed": false,
          "internalType": "address",
          "name": "quoteAsset",
          "type": "address"
        },
        {
          "indexed": false,
          "internalType": "address",
          "name": "market",
          "type": "address"
        }
      ],
      "name": "MarketRegistered",
      "type": "event"
    },
    {
      "anonymous": false,
      "inputs": [
        {
          "indexed": false,
          "internalType": "address",
          "name": "baseAsset",
          "type": "address"
        },
        {
          "indexed": false,
          "internalType": "address",
          "name": "quoteAsset",
          "type": "address"
        },
        {
          "indexed": false,
          "internalType": "address",
          "name": "market",
          "type": "address"
        }
      ],
      "name": "MarketUpdated",
      "type": "event"
    },
    {
      "anonymous": false,
      "inputs": [
        {
          "indexed": true,
          "internalType": "address",
          "name": "previousOwner",
          "type": "address"
        },
        {
          "indexed": true,
          "internalType": "address",
          "name": "newOwner",
          "type": "address"
        }
      ],
      "name": "OwnershipTransferred",
      "type": "event"
    },
    {
      "inputs": [
        {
          "internalType": "address[]",
          "name": "_marketAddresses",
          "type": "address[]"
        },
        {
          "internalType": "bool[]",
          "name": "_isBuy",
          "type": "bool[]"
        },
        {
          "internalType": "address",
          "name": "_debitToken",
          "type": "address"
        },
        {
          "internalType": "address",
          "name": "_creditToken",
          "type": "address"
        },
        {
          "internalType": "uint256",
          "name": "_amount",
          "type": "uint256"
        },
        {
          "internalType": "uint256",
          "name": "_minAmountOut",
          "type": "uint256"
        }
      ],
      "name": "anyToAnySwap",
      "outputs": [
        {
          "internalType": "uint256",
          "name": "_amountOut",
          "type": "uint256"
        }
      ],
      "stateMutability": "nonpayable",
      "type": "function"
    },
    {
      "inputs": [
        {
          "internalType": "address",
          "name": "_baseAssetAddress",
          "type": "address"
        },
        {
          "internalType": "address",
          "name": "_quoteAssetAddress",
          "type": "address"
        },
        {
          "internalType": "uint96",
          "name": "_sizePrecision",
          "type": "uint96"
        },
        {
          "internalType": "uint24",
          "name": "_pricePrecision",
          "type": "uint24"
        },
        {
          "internalType": "uint96",
          "name": "_tickSize",
          "type": "uint96"
        },
        {
          "internalType": "uint96",
          "name": "_minSize",
          "type": "uint96"
        },
        {
          "internalType": "uint96",
          "name": "_maxSize",
          "type": "uint96"
        },
        {
          "internalType": "uint256",
          "name": "_takerFeeBps",
          "type": "uint256"
        },
        {
          "internalType": "uint256",
          "name": "_makerFeeBps",
          "type": "uint256"
        },
        {
          "internalType": "address",
          "name": "oldImplementation",
          "type": "address"
        },
        {
          "internalType": "bool",
          "name": "old",
          "type": "bool"
        }
      ],
      "name": "computeAddress",
      "outputs": [
        {
          "internalType": "address",
          "name": "proxy",
          "type": "address"
        }
      ],
      "stateMutability": "view",
      "type": "function"
    },
    {
      "inputs": [
        {
          "internalType": "enum IOrderBook.OrderBookType",
          "name": "_type",
          "type": "uint8"
        },
        {
          "internalType": "address",
          "name": "_baseAssetAddress",
          "type": "address"
        },
        {
          "internalType": "address",
          "name": "_quoteAssetAddress",
          "type": "address"
        },
        {
          "internalType": "uint96",
          "name": "_sizePrecision",
          "type": "uint96"
        },
        {
          "internalType": "uint24",
          "name": "_pricePrecision",
          "type": "uint24"
        },
        {
          "internalType": "uint96",
          "name": "_tickSize",
          "type": "uint96"
        },
        {
          "internalType": "uint96",
          "name": "_minSize",
          "type": "uint96"
        },
        {
          "internalType": "uint96",
          "name": "_maxSize",
          "type": "uint96"
        },
        {
          "internalType": "uint256",
          "name": "_takerFeeBps",
          "type": "uint256"
        },
        {
          "internalType": "uint256",
          "name": "_makerFeeBps",
          "type": "uint256"
        }
      ],
      "name": "deployProxy",
      "outputs": [
        {
          "internalType": "address",
          "name": "proxy",
          "type": "address"
        }
      ],
      "stateMutability": "nonpayable",
      "type": "function"
    },
    {
      "inputs": [
        {
          "internalType": "address",
          "name": "_owner",
          "type": "address"
        },
        {
          "internalType": "address",
          "name": "_marginAccount",
          "type": "address"
        },
        {
          "internalType": "address",
          "name": "_implementation",
          "type": "address"
        }
      ],
      "name": "initialize",
      "outputs": [],
      "stateMutability": "nonpayable",
      "type": "function"
    },
    {
      "inputs": [],
      "name": "owner",
      "outputs": [
        {
          "internalType": "address",
          "name": "",
          "type": "address"
        }
      ],
      "stateMutability": "view",
      "type": "function"
    },
    {
      "inputs": [],
      "name": "renounceOwnership",
      "outputs": [],
      "stateMutability": "nonpayable",
      "type": "function"
    },
    {
      "inputs": [
        {
          "internalType": "address",
          "name": "newOwner",
          "type": "address"
        }
      ],
      "name": "transferOwnership",
      "outputs": [],
      "stateMutability": "nonpayable",
      "type": "function"
    },
    {
      "inputs": [
        {
          "internalType": "address",
          "name": "newImplementation",
          "type": "address"
        }
      ],
      "name": "upgradeImplementation",
      "outputs": [],
      "stateMutability": "nonpayable",
      "type": "function"
    },
    {
      "inputs": [
        {
          "internalType": "address[]",
          "name": "proxies",
          "type": "address[]"
        }
      ],
      "name": "upgradeMultipleProxies",
      "outputs": [],
      "stateMutability": "nonpayable",
      "type": "function"
    },
    {
      "inputs": [
        {
          "internalType": "address",
          "name": "",
          "type": "address"
        }
      ],
      "name": "verifiedMarket",
      "outputs": [
        {
          "internalType": "bool",
          "name": "",
          "type": "bool"
        }
      ],
      "stateMutability": "view",
      "type": "function"
    }
  ],
  "bytecode": "0x6080806040523461001657612253908161001c8239f35b600080fdfe608060405260043610156200001357600080fd5b6000803560e01c806320ebd3ed1462001401578063564833041462000d73578063593299bc14620005fd5780635f71a07c14620005bc578063715018a6146200055c57806383f94db714620005075780638da5cb5b14620004de578063c0c53b8b146200033b578063dd44783e14620001485763f2fde38b146200009657600080fd5b34620001455760203660031901126200014557620000b362001583565b620000bd6200169f565b6001600160a01b03811615620000db57620000d890620016f8565b80f35b608460405162461bcd60e51b815260206004820152602660248201527f4f776e61626c653a206e6577206f776e657220697320746865207a65726f206160448201527f64647265737300000000000000000000000000000000000000000000000000006064820152fd5b80fd5b50346200014557602080600319360112620003375760043567ffffffffffffffff9283821162000145573660238301121562000145578160040135938085116200032357600585811b9360405196620001a4878701896200167c565b875285870160248096830101913683116200031f578601905b828210620002f957505050825b8651811015620002f5576001600160a01b03808783851b8a010151169060665416604051888101917f3659cfe6000000000000000000000000000000000000000000000000000000008352888201528781526060810181811087821117620002e05760405251869283929083905af13d15620002da573d848111620002c5576040519062000262601f8201601f19168a01836200167c565b815285883d92013e5b1562000282576200027c9062001815565b620001ca565b6064866016876040519262461bcd60e51b845260048401528201527f526f757465723a2055706772616465204661696c6564000000000000000000006044820152fd5b86634e487b7160e01b60005260416004526000fd5b6200026b565b88634e487b7160e01b60005260416004526000fd5b8380f35b81356001600160a01b03811681036200031a578152908701908701620001bd565b600080fd5b8580fd5b602482634e487b7160e01b81526041600452fd5b5080fd5b50346200014557606036600319011262000145576200035962001583565b620003636200159a565b6200036d620015b1565b835460ff8160081c161593848095620004d0575b8015620004b7575b156200044d5760ff1982166001178655620003d491856200043b575b50620003c360ff875460081c16620003bd8162001740565b62001740565b620003ce33620016f8565b620016f8565b6001600160a01b0390816001600160a01b0319931683606754161760675516906066541617606655620004045780f35b61ff001981541681557f7f26b83ff96e1f2b6a682f133852f6798a09c465da95921460cefb3847402498602060405160018152a180f35b61ffff191661010117865538620003a5565b608460405162461bcd60e51b815260206004820152602e60248201527f496e697469616c697a61626c653a20636f6e747261637420697320616c72656160448201527f647920696e697469616c697a65640000000000000000000000000000000000006064820152fd5b50303b158015620003895750600160ff83161462000389565b50600160ff83161062000381565b5034620001455780600319360112620001455760206001600160a01b0360335416604051908152f35b50346200014557602036600319011262000145576200052562001583565b6200052f6200169f565b6066546001600160a01b03809216918116821462000558576001600160a01b0319161760665580f35b8280fd5b50346200014557806003193601126200014557620005796200169f565b60006001600160a01b036033546001600160a01b03198116603355167f8be0079c531659141344cd1fd0a4f28419497f9722a3daafe3b4186f6b6457e08280a380f35b503462000145576020366003190112620001455760ff60406020926001600160a01b03620005e962001583565b168152606584522054166040519015158152f35b5034620001455760c0366003190112620001455767ffffffffffffffff60043581811162000558576200063590369060040162001600565b9160243590811162000d6f576200065190369060040162001600565b916200065c620015b1565b93606435936001600160a01b03851685036200031a576084359187966001821062000d2b5781830362000ce75760206001600160a01b0360648b9360405194859384927f23b872dd0000000000000000000000000000000000000000000000000000000084523360048501523060248501528a6044850152165af1801562000cdc5762000cb8575b509392919087915b8583106200080c5788888860a4358210620007a25760206001600160a01b036044859360405194859384927fa9059cbb000000000000000000000000000000000000000000000000000000008452336004850152886024850152165af1801562000797576020935062000763575b50604051908152f35b6200078790833d85116200078f575b6200077e81836200167c565b8101906200183b565b50826200075a565b503d62000772565b6040513d85823e3d90fd5b608460405162461bcd60e51b815260206004820152602860248201527f526f757465723a20536c6970706167652065786365656473206578706563746560448201527f642076616c7565210000000000000000000000000000000000000000000000006064820152fd5b909192939496506200082083888662001855565b35906001600160a01b038216820362000cb4576001600160a01b0382168952606560205260ff60408a2054161562000c70576200085f84848862001855565b35801515810362000c6c571562000a74576040517f08ea5bee0000000000000000000000000000000000000000000000000000000081526020816004816001600160a01b0387165afa90811562000a205760009162000a2c575b509062ffffff620008cc9216906200187c565b6040517f7b6966cb0000000000000000000000000000000000000000000000000000000081526020816004816001600160a01b0387165afa90811562000a2057600091620009e7575b5091604462ffffff6200093e602094620009376001600160a01b039762001890565b906200189f565b168b60405195869485937f2aa9fbdc000000000000000000000000000000000000000000000000000000008552600485015260016024850152165af1908115620009dc578891620009a4575b50955b62000999879362001815565b9190949392620006ec565b90506020813d602011620009d3575b81620009c2602093836200167c565b810103126200031a5751386200098a565b3d9150620009b3565b6040513d8a823e3d90fd5b906020823d60201162000a17575b8162000a04602093836200167c565b8101031262000145575051604462000915565b3d9150620009f5565b6040513d6000823e3d90fd5b6020813d60201162000a6b575b8162000a48602093836200167c565b810103126200033757519062ffffff8216820362000145575062ffffff620008b9565b3d915062000a39565b6040517f08c8120e0000000000000000000000000000000000000000000000000000000081526020816004816001600160a01b0387165afa90811562000a205760009162000c12575b50906bffffffffffffffffffffffff62000ad99216906200187c565b6040517f962f7f910000000000000000000000000000000000000000000000000000000081526020816004816001600160a01b0387165afa90811562000a205760009162000bd9575b509160446bffffffffffffffffffffffff62000b4d602094620009376001600160a01b039762001890565b168b60405195869485937fcae22ee6000000000000000000000000000000000000000000000000000000008552600485015260016024850152165af1908115620009dc57889162000ba1575b50956200098d565b90506020813d60201162000bd0575b8162000bbf602093836200167c565b810103126200031a57513862000b99565b3d915062000bb0565b906020823d60201162000c09575b8162000bf6602093836200167c565b8101031262000145575051604462000b22565b3d915062000be7565b6020813d60201162000c63575b8162000c2e602093836200167c565b81010312620003375751906bffffffffffffffffffffffff821682036200014557506bffffffffffffffffffffffff62000abd565b3d915062000c1f565b8980fd5b606460405162461bcd60e51b815260206004820152601760248201527f526f757465723a20496e76616c6964206d61726b6574210000000000000000006044820152fd5b8880fd5b62000cd49060203d6020116200078f576200077e81836200167c565b5038620006e4565b6040513d8b823e3d90fd5b606460405162461bcd60e51b815260206004820152601d60248201527f526f757465723a2053697a6573206c656e677468206d69736d617463680000006044820152fd5b606460405162461bcd60e51b815260206004820152601b60248201527f526f757465723a204e6f206d61726b65747320696e20696e70757400000000006044820152fd5b8380fd5b50346200014557610140366003190112620001455760036004351015620001455762000d9e6200159a565b9062000da9620015b1565b6bffffffffffffffffffffffff6064351660643503620003375762ffffff6084351660843503620003375762000dde620015c8565b9162000de9620015e4565b926bffffffffffffffffffffffff60e4351660e435036200033757600435600103620013f25762000f0462000e6c73eeeeeeeeeeeeeeeeeeeeeeeeeeeeeeeeeeeeeeee5b600435600203620013eb5773eeeeeeeeeeeeeeeeeeeeeeeeeeeeeeeeeeeeeeee5b61012435918886610104359360e435936084359160643591620018c0565b62000f11602060405162000e858261042c01826200167c565b61042c815261042c620019c6838301396001600160a01b036066541662000ecb62000eda60405162000eb7816200165f565b8a81526040519283918783019586620017d7565b03601f1981018352826200167c565b604051968362000ef48995518092888089019101620017b2565b84019151809386840190620017b2565b010380855201836200167c565b815115620013a75781516001600160a01b039260200185f51693841562001363576004356001036200135b5773eeeeeeeeeeeeeeeeeeeeeeeeeeeeeeeeeeeeeeee915b600435600103620012dd5760125b600435600203620012d65773eeeeeeeeeeeeeeeeeeeeeeeeeeeeeeeeeeeeeeee5b60043560020362001257576012905b6001600160a01b036067541692893b156200125357916001600160a01b036bffffffffffffffffffffffff96959392879593826040519a7f067285ea000000000000000000000000000000000000000000000000000000008c523060048d015260043560248d01521660448b015260648a015216608488015260a487015260c4860152816064351660e486015262ffffff6084351661010486015216610124840152166101448201526bffffffffffffffffffffffff60e4351661016482015261010435610184820152610124356101a482015281816101c48183885af180156200116a5762001241575b50828152606560205260408120805460ff1916600117905560001960043501620011db575b60026004350362001175575b6001600160a01b0360675416803b1562000337578180916024604051809481937f01aef3490000000000000000000000000000000000000000000000000000000083528960048401525af180156200116a5762001152575b6020847fb313430391c48e1ec63b9cf14dcd61b818b9ae83982f1d4e0e0ad01147af5cd06060886001600160a01b038881604051931683521685820152836040820152a1604051908152f35b6200115e829162001634565b62000145578062001106565b6040513d84823e3d90fd5b60405163095ea7b360e01b81528360048201526000196024820152602081604481856001600160a01b0388165af180156200116a57620011b7575b50620010ae565b620011d39060203d6020116200078f576200077e81836200167c565b5038620011b0565b60405163095ea7b360e01b81528360048201526000196024820152602081604481856001600160a01b038a165af180156200116a576200121d575b50620010a2565b620012399060203d6020116200078f576200077e81836200167c565b503862001216565b6200124c9062001634565b386200107d565b8780fd5b60405163313ce56760e01b81526020816004818a6001600160a01b038d165af1908115620012cb5787916200128f575b509062000f92565b90506020813d602011620012c2575b81620012ad602093836200167c565b81010312620012be57513862001287565b8680fd5b3d91506200129e565b6040513d89823e3d90fd5b8562000f83565b60405163313ce56760e01b8152602081600481886001600160a01b038d165af19081156200135057859162001314575b5062000f62565b90506020813d60201162001347575b8162001332602093836200167c565b81010312620013435751386200130d565b8480fd5b3d915062001323565b6040513d87823e3d90fd5b859162000f54565b606460405162461bcd60e51b815260206004820152601960248201527f437265617465323a204661696c6564206f6e206465706c6f79000000000000006044820152fd5b606460405162461bcd60e51b815260206004820152602060248201527f437265617465323a2062797465636f6465206c656e677468206973207a65726f6044820152fd5b8562000e4e565b62000f0462000e6c8662000e2d565b5034620001455761016036600319011262000145576200142062001583565b6200142a6200159a565b6bffffffffffffffffffffffff9260443591848316830362000337576064359362ffffff851685036200055857608435958616860362000558576200146e620015c8565b62001478620015e4565b9061012435976001600160a01b0397888a168a03620012be57610144359788151589036200125357946200153e946200154b94620014c89460559b9994600b9b99610104359660e43596620018c0565b9361042c936040519060209a8b93620014e4858901856200167c565b8784528484019762001df28939156200156e576200152462000ecb91925b6040519062001511826200165f565b81526040519283918783019586620017d7565b60405195869362000ef4868601998a9251928391620017b2565b010380845201826200167c565b51902090604051916040830152858201523081520160ff81532060405191168152f35b5062000ecb620015248b606654169262001502565b600435906001600160a01b03821682036200031a57565b602435906001600160a01b03821682036200031a57565b604435906001600160a01b03821682036200031a57565b60a435906bffffffffffffffffffffffff821682036200031a57565b60c435906bffffffffffffffffffffffff821682036200031a57565b9181601f840112156200031a5782359167ffffffffffffffff83116200031a576020808501948460051b0101116200031a57565b67ffffffffffffffff81116200164957604052565b634e487b7160e01b600052604160045260246000fd5b6020810190811067ffffffffffffffff8211176200164957604052565b90601f8019910116810190811067ffffffffffffffff8211176200164957604052565b6001600160a01b03603354163303620016b457565b606460405162461bcd60e51b815260206004820152602060248201527f4f776e61626c653a2063616c6c6572206973206e6f7420746865206f776e65726044820152fd5b603354906001600160a01b0380911691826001600160a01b0319821617603355167f8be0079c531659141344cd1fd0a4f28419497f9722a3daafe3b4186f6b6457e0600080a3565b156200174857565b608460405162461bcd60e51b815260206004820152602b60248201527f496e697469616c697a61626c653a20636f6e7472616374206973206e6f74206960448201527f6e697469616c697a696e670000000000000000000000000000000000000000006064820152fd5b60005b838110620017c65750506000910152565b8181015183820152602001620017b5565b90916001600160a01b0360609316825260406020830152620018098151809281604086015260208686019101620017b2565b601f01601f1916010190565b6000198114620018255760010190565b634e487b7160e01b600052601160045260246000fd5b908160209103126200031a575180151581036200031a5790565b9190811015620018665760051b0190565b634e487b7160e01b600052603260045260246000fd5b818102929181159184041417156200182557565b604d81116200182557600a0a90565b8115620018aa570490565b634e487b7160e01b600052601260045260246000fd5b9592919794909693976001600160a01b038089169088161160001462001999577fffffff0000000000000000000000000000000000000000000000000000000000949596985b6040519860208a019a6bffffffffffffffffffffffff19809260601b168c5260601b1660348a01526001600160a01b031995869485809460a01b1660488c015260e81b1660548a015260a01b16605788015260a01b16606386015260a01b16606f840152607b830152609b820152609b815260c0810181811067ffffffffffffffff821117620016495760405251902090565b7fffffff000000000000000000000000000000000000000000000000000000000094959697986200190656fe60406080815261042c908138038061001681610218565b93843982019181818403126102135780516001600160a01b038116808203610213576020838101516001600160401b0394919391858211610213570186601f820112156102135780519061007161006c83610253565b610218565b918083528583019886828401011161021357888661008f930161026e565b813b156101b9577f360894a13ba1a3210667c828492db98dca3e2076cc3735a920a3ca505d382bbc80546001600160a01b031916841790556000927fbc7cd75a20ee27fd9adebab32041f755214dbc6bffa90cc0225b39da2e5c2d3b8480a28051158015906101b2575b61010b575b855160e790816103458239f35b855194606086019081118682101761019e578697849283926101889952602788527f416464726573733a206c6f772d6c6576656c2064656c65676174652063616c6c87890152660819985a5b195960ca1b8a8901525190845af4913d15610194573d9061017a61006c83610253565b91825281943d92013e610291565b508038808080806100fe565b5060609250610291565b634e487b7160e01b84526041600452602484fd5b50826100f9565b855162461bcd60e51b815260048101859052602d60248201527f455243313936373a206e657720696d706c656d656e746174696f6e206973206e60448201526c1bdd08184818dbdb9d1c9858dd609a1b6064820152608490fd5b600080fd5b6040519190601f01601f191682016001600160401b0381118382101761023d57604052565b634e487b7160e01b600052604160045260246000fd5b6001600160401b03811161023d57601f01601f191660200190565b60005b8381106102815750506000910152565b8181015183820152602001610271565b919290156102f357508151156102a5575090565b3b156102ae5790565b60405162461bcd60e51b815260206004820152601d60248201527f416464726573733a2063616c6c20746f206e6f6e2d636f6e74726163740000006044820152606490fd5b8251909150156103065750805190602001fd5b6044604051809262461bcd60e51b825260206004830152610336815180928160248601526020868601910161026e565b601f01601f19168101030190fdfe60806040523615605f5773ffffffffffffffffffffffffffffffffffffffff7f360894a13ba1a3210667c828492db98dca3e2076cc3735a920a3ca505d382bbc54166000808092368280378136915af43d82803e15605b573d90f35b3d90fd5b73ffffffffffffffffffffffffffffffffffffffff7f360894a13ba1a3210667c828492db98dca3e2076cc3735a920a3ca505d382bbc54166000808092368280378136915af43d82803e15605b573d90f3fea26469706673582212204ae9c41ce66c9c8a1cf836f6987acb21356be12a351c7544403ef482c4392fb364736f6c6343000811003360406080815261042c908138038061001681610218565b93843982019181818403126102135780516001600160a01b038116808203610213576020838101516001600160401b0394919391858211610213570186601f820112156102135780519061007161006c83610253565b610218565b918083528583019886828401011161021357888661008f930161026e565b813b156101b9577f360894a13ba1a3210667c828492db98dca3e2076cc3735a920a3ca505d382bbc80546001600160a01b031916841790556000927fbc7cd75a20ee27fd9adebab32041f755214dbc6bffa90cc0225b39da2e5c2d3b8480a28051158015906101b2575b61010b575b855160e790816103458239f35b855194606086019081118682101761019e578697849283926101889952602788527f416464726573733a206c6f772d6c6576656c2064656c65676174652063616c6c87890152660819985a5b195960ca1b8a8901525190845af4913d15610194573d9061017a61006c83610253565b91825281943d92013e610291565b508038808080806100fe565b5060609250610291565b634e487b7160e01b84526041600452602484fd5b50826100f9565b855162461bcd60e51b815260048101859052602d60248201527f455243313936373a206e657720696d706c656d656e746174696f6e206973206e60448201526c1bdd08184818dbdb9d1c9858dd609a1b6064820152608490fd5b600080fd5b6040519190601f01601f191682016001600160401b0381118382101761023d57604052565b634e487b7160e01b600052604160045260246000fd5b6001600160401b03811161023d57601f01601f191660200190565b60005b8381106102815750506000910152565b8181015183820152602001610271565b919290156102f357508151156102a5575090565b3b156102ae5790565b60405162461bcd60e51b815260206004820152601d60248201527f416464726573733a2063616c6c20746f206e6f6e2d636f6e74726163740000006044820152606490fd5b8251909150156103065750805190602001fd5b6044604051809262461bcd60e51b825260206004830152610336815180928160248601526020868601910161026e565b601f01601f19168101030190fdfe60806040523615605f5773ffffffffffffffffffffffffffffffffffffffff7f360894a13ba1a3210667c828492db98dca3e2076cc3735a920a3ca505d382bbc54166000808092368280378136915af43d82803e15605b573d90f35b3d90fd5b73ffffffffffffffffffffffffffffffffffffffff7f360894a13ba1a3210667c828492db98dca3e2076cc3735a920a3ca505d382bbc54166000808092368280378136915af43d82803e15605b573d90f3fea26469706673582212204ae9c41ce66c9c8a1cf836f6987acb21356be12a351c7544403ef482c4392fb364736f6c63430008110033a2646970667358221220278e3e318a28996f2a033ab9e3e8e1ab1430fb8882ea926d8404bbfea0401e2964736f6c63430008110033",
  "linkReferences": {},
  "deployedLinkReferences": {}
}