{
  "_format": "hh-sol-artifact-1",
  "contractName": "Router",
  "sourceName": "contracts/Router.sol",
  "abi": [
    {
      "anonymous": false,
      "inputs": [
        {
          "indexed": false,
          "internalType": "uint8",
          "name": "version",
          "type": "uint8"
        }
      ],
      "name": "Initialized",
      "type": "event"
    },
    {
      "anonymous": false,
      "inputs": [
        {
          "indexed": false,
          "internalType": "address",
          "name": "baseAsset",
          "type": "address"
        },
        {
          "indexed": false,
          "internalType": "address",
          "name": "quoteAsset",
          "type": "address"
        },
        {
          "indexed": false,
          "internalType": "address",
          "name": "market",
          "type": "address"
        }
      ],
      "name": "MarketRegistered",
      "type": "event"
    },
    {
      "anonymous": false,
      "inputs": [
        {
          "indexed": false,
          "internalType": "address",
          "name": "baseAsset",
          "type": "address"
        },
        {
          "indexed": false,
          "internalType": "address",
          "name": "quoteAsset",
          "type": "address"
        },
        {
          "indexed": false,
          "internalType": "address",
          "name": "market",
          "type": "address"
        }
      ],
      "name": "MarketUpdated",
      "type": "event"
    },
    {
      "anonymous": false,
      "inputs": [
        {
          "indexed": true,
          "internalType": "address",
          "name": "previousOwner",
          "type": "address"
        },
        {
          "indexed": true,
          "internalType": "address",
          "name": "newOwner",
          "type": "address"
        }
      ],
      "name": "OwnershipTransferred",
      "type": "event"
    },
    {
      "inputs": [
        {
          "internalType": "address[]",
          "name": "_route",
          "type": "address[]"
        },
        {
          "internalType": "bool[]",
          "name": "_isBuy",
          "type": "bool[]"
        },
        {
          "internalType": "uint256",
          "name": "_amount",
          "type": "uint256"
        }
      ],
      "name": "anyToAnySwap",
      "outputs": [],
      "stateMutability": "nonpayable",
      "type": "function"
    },
    {
      "inputs": [
        {
          "internalType": "address",
          "name": "_owner",
          "type": "address"
        }
      ],
      "name": "initialize",
      "outputs": [],
      "stateMutability": "nonpayable",
      "type": "function"
    },
    {
      "inputs": [
        {
          "internalType": "address",
          "name": "_baseAsset",
          "type": "address"
        },
        {
          "internalType": "address",
          "name": "_qutoeAsset",
          "type": "address"
        }
      ],
      "name": "marketAddress",
      "outputs": [
        {
          "internalType": "address",
          "name": "",
          "type": "address"
        }
      ],
      "stateMutability": "view",
      "type": "function"
    },
    {
      "inputs": [
        {
          "internalType": "bytes32",
          "name": "",
          "type": "bytes32"
        }
      ],
      "name": "markets",
      "outputs": [
        {
          "internalType": "address",
          "name": "",
          "type": "address"
        }
      ],
      "stateMutability": "view",
      "type": "function"
    },
    {
      "inputs": [],
      "name": "owner",
      "outputs": [
        {
          "internalType": "address",
          "name": "",
          "type": "address"
        }
      ],
      "stateMutability": "view",
      "type": "function"
    },
    {
      "inputs": [
        {
          "internalType": "address",
          "name": "_baseAsset",
          "type": "address"
        },
        {
          "internalType": "address",
          "name": "_quoteAsset",
          "type": "address"
        },
        {
          "internalType": "address",
          "name": "_marketAddress",
          "type": "address"
        }
      ],
      "name": "registerMarket",
      "outputs": [],
      "stateMutability": "nonpayable",
      "type": "function"
    },
    {
      "inputs": [],
      "name": "renounceOwnership",
      "outputs": [],
      "stateMutability": "nonpayable",
      "type": "function"
    },
    {
      "inputs": [
        {
          "internalType": "address",
          "name": "_marginAccount",
          "type": "address"
        }
      ],
      "name": "setMarginAccount",
      "outputs": [],
      "stateMutability": "nonpayable",
      "type": "function"
    },
    {
      "inputs": [
        {
          "internalType": "address",
          "name": "newOwner",
          "type": "address"
        }
      ],
      "name": "transferOwnership",
      "outputs": [],
      "stateMutability": "nonpayable",
      "type": "function"
    },
    {
      "inputs": [
        {
          "internalType": "address",
          "name": "_baseAsset",
          "type": "address"
        },
        {
          "internalType": "address",
          "name": "quoteAsset",
          "type": "address"
        },
        {
          "internalType": "address",
          "name": "_marketAddress",
          "type": "address"
        }
      ],
      "name": "updateMarket",
      "outputs": [],
      "stateMutability": "nonpayable",
      "type": "function"
    }
  ],
  "bytecode": "0x608060405234801561001057600080fd5b50611573806100206000396000f3fe608060405234801561001057600080fd5b50600436106100be5760003560e01c8063c202250b11610076578063d2a422681161005b578063d2a422681461016f578063d7ccb93614610182578063f2fde38b1461019557600080fd5b8063c202250b14610149578063c4d66de81461015c57600080fd5b80637e24fdb5116100a75780637e24fdb5146101125780638da5cb5b14610125578063933e70c01461013657600080fd5b8063715018a6146100c35780637564912b146100cd575b600080fd5b6100cb6101a8565b005b6100f66100db366004611168565b6065602052600090815260409020546001600160a01b031681565b6040516001600160a01b03909116815260200160405180910390f35b6100f661012036600461119d565b6101bc565b6033546001600160a01b03166100f6565b6100cb6101443660046111d0565b610234565b6100cb610157366004611213565b610374565b6100cb61016a366004611213565b6103ab565b6100cb61017d3660046111d0565b6104d5565b6100cb610190366004611281565b61076c565b6100cb6101a3366004611213565b610c91565b6101b0610d21565b6101ba6000610d7b565b565b60006065600061021185856040516bffffffffffffffffffffffff19606084811b8216602084015283901b16603482015260009060480160405160208183030381529060405280519060200120905092915050565b81526020810191909152604001600020546001600160a01b031690505b92915050565b61023c610d21565b60408051606085811b6bffffffffffffffffffffffff199081166020808501919091529186901b16603483015282516028818403018152604890920190925280519101206000906000818152606560205260409020549091506001600160a01b03166102ef5760405162461bcd60e51b815260206004820152601d60248201527f526f757465723a204d61726b657420646f6573206e6f7420657869737400000060448201526064015b60405180910390fd5b600081815260656020908152604091829020805473ffffffffffffffffffffffffffffffffffffffff19166001600160a01b038681169182179092558351888316815291871692820192909252918201527fcbd3d63d2cc6a645ae89d15d53450ad3e875a7090c20a3b4d71c89b8e8963394906060015b60405180910390a150505050565b61037c610d21565b6066805473ffffffffffffffffffffffffffffffffffffffff19166001600160a01b0392909216919091179055565b600054610100900460ff16158080156103cb5750600054600160ff909116105b806103e55750303b1580156103e5575060005460ff166001145b6104575760405162461bcd60e51b815260206004820152602e60248201527f496e697469616c697a61626c653a20636f6e747261637420697320616c72656160448201527f647920696e697469616c697a656400000000000000000000000000000000000060648201526084016102e6565b6000805460ff19166001179055801561047a576000805461ff0019166101001790555b610482610dda565b61048b82610d7b565b80156104d1576000805461ff0019169055604051600181527f7f26b83ff96e1f2b6a682f133852f6798a09c465da95921460cefb38474024989060200160405180910390a15b5050565b6104dd610d21565b60408051606085811b6bffffffffffffffffffffffff199081166020808501919091529186901b16603483015282516028818403018152604890920190925280519101206000906000818152606560205260409020549091506001600160a01b03161561058c5760405162461bcd60e51b815260206004820152601d60248201527f526f757465723a204d61726b657420616c72656164792065786973747300000060448201526064016102e6565b60008181526065602052604090819020805473ffffffffffffffffffffffffffffffffffffffff19166001600160a01b03858116918217909255915163095ea7b360e01b81526004810192909252600019602483015285169063095ea7b3906044016020604051808303816000875af115801561060d573d6000803e3d6000fd5b505050506040513d601f19601f820116820180604052508101906106319190611303565b5060405163095ea7b360e01b81526001600160a01b038381166004830152600019602483015284169063095ea7b3906044016020604051808303816000875af1158015610682573d6000803e3d6000fd5b505050506040513d601f19601f820116820180604052508101906106a69190611303565b506066546040517f01aef3490000000000000000000000000000000000000000000000000000000081526001600160a01b038481166004830152909116906301aef34990602401600060405180830381600087803b15801561070757600080fd5b505af115801561071b573d6000803e3d6000fd5b5050604080516001600160a01b03808916825280881660208301528616918101919091527fb313430391c48e1ec63b9cf14dcd61b818b9ae83982f1d4e0e0ad01147af5cd092506060019050610366565b60028410156107bd5760405162461bcd60e51b815260206004820152601d60248201527f526f757465723a20496e76616c6964205f726f757465206c656e67746800000060448201526064016102e6565b6107c8600185611336565b82146108165760405162461bcd60e51b815260206004820152601d60248201527f526f757465723a2053697a6573206c656e677468206d69736d6174636800000060448201526064016102e6565b8484600081811061082957610829611349565b905060200201602081019061083e9190611213565b6040517f23b872dd000000000000000000000000000000000000000000000000000000008152336004820152306024820152604481018390526001600160a01b0391909116906323b872dd906064016020604051808303816000875af11580156108ac573d6000803e3d6000fd5b505050506040513d601f19601f820116820180604052508101906108d09190611303565b506000805b6108e0600187611336565b811015610bfd5786866108f483600161135f565b81811061090357610903611349565b90506020020160208101906109189190611213565b9150600061092583610e4d565b9050600086868481811061093b5761093b611349565b90506020020160208101906109509190611372565b6109b4576109af89898581811061096957610969611349565b905060200201602081019061097e9190611213565b8a8a61098b87600161135f565b81811061099a5761099a611349565b90506020020160208101906101209190611213565b6109fa565b6109fa89896109c486600161135f565b8181106109d3576109d3611349565b90506020020160208101906109e89190611213565b8a8a8681811061099a5761099a611349565b90506001600160a01b038116610a525760405162461bcd60e51b815260206004820152601d60248201527f526f757465723a204d61726b657420646f6573206e6f7420657869737400000060448201526064016102e6565b80878785818110610a6557610a65611349565b9050602002016020810190610a7a9190611372565b610b3757806001600160a01b031663cae22ee6610abe888b8b89818110610aa357610aa3611349565b9050602002016020810190610ab89190611372565b85610f07565b6040517fffffffff0000000000000000000000000000000000000000000000000000000060e084901b16815262ffffff909116600482015260016024820152604401600060405180830381600087803b158015610b1a57600080fd5b505af1158015610b2e573d6000803e3d6000fd5b50505050610bd1565b806001600160a01b0316632aa9fbdc610b5c888b8b89818110610aa357610aa3611349565b6040517fffffffff0000000000000000000000000000000000000000000000000000000060e084901b16815262ffffff909116600482015260016024820152604401600060405180830381600087803b158015610bb857600080fd5b505af1158015610bcc573d6000803e3d6000fd5b505050505b82610bdb86610e4d565b610be59190611336565b95505050508080610bf59061138f565b9150506108d5565b506040517fa9059cbb000000000000000000000000000000000000000000000000000000008152336004820152602481018390526001600160a01b0382169063a9059cbb906044016020604051808303816000875af1158015610c64573d6000803e3d6000fd5b505050506040513d601f19601f82011682018060405250810190610c889190611303565b50505050505050565b610c99610d21565b6001600160a01b038116610d155760405162461bcd60e51b815260206004820152602660248201527f4f776e61626c653a206e6577206f776e657220697320746865207a65726f206160448201527f646472657373000000000000000000000000000000000000000000000000000060648201526084016102e6565b610d1e81610d7b565b50565b6033546001600160a01b031633146101ba5760405162461bcd60e51b815260206004820181905260248201527f4f776e61626c653a2063616c6c6572206973206e6f7420746865206f776e657260448201526064016102e6565b603380546001600160a01b0383811673ffffffffffffffffffffffffffffffffffffffff19831681179093556040519116919082907f8be0079c531659141344cd1fd0a4f28419497f9722a3daafe3b4186f6b6457e090600090a35050565b600054610100900460ff16610e455760405162461bcd60e51b815260206004820152602b60248201527f496e697469616c697a61626c653a20636f6e7472616374206973206e6f74206960448201526a6e697469616c697a696e6760a81b60648201526084016102e6565b6101ba6110f4565b60007fffffffffffffffffffffffff11111111111111111111111111111111111111126001600160a01b03831601610e86575047919050565b6040517f70a082310000000000000000000000000000000000000000000000000000000081523060048201526001600160a01b038316906370a0823190602401602060405180830381865afa158015610ee3573d6000803e3d6000fd5b505050506040513d601f19601f8201168201806040525081019061022e91906113a8565b60008261100457816001600160a01b031663962f7f916040518163ffffffff1660e01b8152600401602060405180830381865afa158015610f4c573d6000803e3d6000fd5b505050506040513d601f19601f82011682018060405250810190610f7091906113a8565b610f7b90600a6114a5565b826001600160a01b03166308c8120e6040518163ffffffff1660e01b8152600401602060405180830381865afa158015610fb9573d6000803e3d6000fd5b505050506040513d601f19601f82011682018060405250810190610fdd91906114b1565b610ff5906bffffffffffffffffffffffff16866114df565b610fff91906114f6565b6110ec565b816001600160a01b0316637b6966cb6040518163ffffffff1660e01b8152600401602060405180830381865afa158015611042573d6000803e3d6000fd5b505050506040513d601f19601f8201168201806040525081019061106691906113a8565b61107190600a6114a5565b826001600160a01b03166308ea5bee6040518163ffffffff1660e01b8152600401602060405180830381865afa1580156110af573d6000803e3d6000fd5b505050506040513d601f19601f820116820180604052508101906110d39190611518565b6110e29062ffffff16866114df565b6110ec91906114f6565b949350505050565b600054610100900460ff1661115f5760405162461bcd60e51b815260206004820152602b60248201527f496e697469616c697a61626c653a20636f6e7472616374206973206e6f74206960448201526a6e697469616c697a696e6760a81b60648201526084016102e6565b6101ba33610d7b565b60006020828403121561117a57600080fd5b5035919050565b80356001600160a01b038116811461119857600080fd5b919050565b600080604083850312156111b057600080fd5b6111b983611181565b91506111c760208401611181565b90509250929050565b6000806000606084860312156111e557600080fd5b6111ee84611181565b92506111fc60208501611181565b915061120a60408501611181565b90509250925092565b60006020828403121561122557600080fd5b61122e82611181565b9392505050565b60008083601f84011261124757600080fd5b50813567ffffffffffffffff81111561125f57600080fd5b6020830191508360208260051b850101111561127a57600080fd5b9250929050565b60008060008060006060868803121561129957600080fd5b853567ffffffffffffffff808211156112b157600080fd5b6112bd89838a01611235565b909750955060208801359150808211156112d657600080fd5b506112e388828901611235565b96999598509660400135949350505050565b8015158114610d1e57600080fd5b60006020828403121561131557600080fd5b815161122e816112f5565b634e487b7160e01b600052601160045260246000fd5b8181038181111561022e5761022e611320565b634e487b7160e01b600052603260045260246000fd5b8082018082111561022e5761022e611320565b60006020828403121561138457600080fd5b813561122e816112f5565b6000600182016113a1576113a1611320565b5060010190565b6000602082840312156113ba57600080fd5b5051919050565b600181815b808511156113fc5781600019048211156113e2576113e2611320565b808516156113ef57918102915b93841c93908002906113c6565b509250929050565b6000826114135750600161022e565b816114205750600061022e565b816001811461143657600281146114405761145c565b600191505061022e565b60ff84111561145157611451611320565b50506001821b61022e565b5060208310610133831016604e8410600b841016171561147f575081810a61022e565b61148983836113c1565b806000190482111561149d5761149d611320565b029392505050565b600061122e8383611404565b6000602082840312156114c357600080fd5b81516bffffffffffffffffffffffff8116811461122e57600080fd5b808202811582820484141761022e5761022e611320565b60008261151357634e487b7160e01b600052601260045260246000fd5b500490565b60006020828403121561152a57600080fd5b815162ffffff8116811461122e57600080fdfea264697066735822122022f3de54b027f4bdb779f3415bcc975dca67eeb92850abf871c5b6023396a51564736f6c63430008110033",
  "linkReferences": {},
  "deployedLinkReferences": {}
}