{
  "_format": "hh-sol-artifact-1",
  "contractName": "Router",
  "sourceName": "contracts/Router.sol",
  "abi": [
    {
      "anonymous": false,
      "inputs": [
        {
          "indexed": false,
          "internalType": "uint8",
          "name": "version",
          "type": "uint8"
        }
      ],
      "name": "Initialized",
      "type": "event"
    },
    {
      "anonymous": false,
      "inputs": [
        {
          "indexed": false,
          "internalType": "address",
          "name": "baseAsset",
          "type": "address"
        },
        {
          "indexed": false,
          "internalType": "address",
          "name": "quoteAsset",
          "type": "address"
        },
        {
          "indexed": false,
          "internalType": "address",
          "name": "market",
          "type": "address"
        }
      ],
      "name": "MarketRegistered",
      "type": "event"
    },
    {
      "anonymous": false,
      "inputs": [
        {
          "indexed": false,
          "internalType": "address",
          "name": "baseAsset",
          "type": "address"
        },
        {
          "indexed": false,
          "internalType": "address",
          "name": "quoteAsset",
          "type": "address"
        },
        {
          "indexed": false,
          "internalType": "address",
          "name": "market",
          "type": "address"
        }
      ],
      "name": "MarketUpdated",
      "type": "event"
    },
    {
      "anonymous": false,
      "inputs": [
        {
          "indexed": true,
          "internalType": "address",
          "name": "previousOwner",
          "type": "address"
        },
        {
          "indexed": true,
          "internalType": "address",
          "name": "newOwner",
          "type": "address"
        }
      ],
      "name": "OwnershipTransferred",
      "type": "event"
    },
    {
      "inputs": [
        {
          "internalType": "address[]",
          "name": "_marketAddresses",
          "type": "address[]"
        },
        {
          "internalType": "bool[]",
          "name": "_isBuy",
          "type": "bool[]"
        },
        {
          "internalType": "address",
          "name": "_debitToken",
          "type": "address"
        },
        {
          "internalType": "address",
          "name": "_creditToken",
          "type": "address"
        },
        {
          "internalType": "uint256",
          "name": "_amount",
          "type": "uint256"
        },
        {
          "internalType": "uint256",
          "name": "_minAmountOut",
          "type": "uint256"
        }
      ],
      "name": "anyToAnySwap",
      "outputs": [
        {
          "internalType": "uint256",
          "name": "_amountOut",
          "type": "uint256"
        }
      ],
      "stateMutability": "nonpayable",
      "type": "function"
    },
    {
      "inputs": [
        {
          "internalType": "address",
          "name": "_baseAssetAddress",
          "type": "address"
        },
        {
          "internalType": "address",
          "name": "_quoteAssetAddress",
          "type": "address"
        },
        {
          "internalType": "uint96",
          "name": "_sizePrecision",
          "type": "uint96"
        },
        {
          "internalType": "uint24",
          "name": "_pricePrecision",
          "type": "uint24"
        },
        {
          "internalType": "uint96",
          "name": "_tickSize",
          "type": "uint96"
        },
        {
          "internalType": "uint96",
          "name": "_minSize",
          "type": "uint96"
        },
        {
          "internalType": "uint96",
          "name": "_maxSize",
          "type": "uint96"
        },
        {
          "internalType": "uint256",
          "name": "_takerFeeBps",
          "type": "uint256"
        },
        {
          "internalType": "address",
          "name": "oldImplementation",
          "type": "address"
        },
        {
          "internalType": "bool",
          "name": "old",
          "type": "bool"
        }
      ],
      "name": "computeAddress",
      "outputs": [
        {
          "internalType": "address",
          "name": "proxy",
          "type": "address"
        }
      ],
      "stateMutability": "view",
      "type": "function"
    },
    {
      "inputs": [
        {
          "internalType": "address",
          "name": "_baseAssetAddress",
          "type": "address"
        },
        {
          "internalType": "address",
          "name": "_quoteAssetAddress",
          "type": "address"
        },
        {
          "internalType": "uint96",
          "name": "_sizePrecision",
          "type": "uint96"
        },
        {
          "internalType": "uint24",
          "name": "_pricePrecision",
          "type": "uint24"
        },
        {
          "internalType": "uint96",
          "name": "_tickSize",
          "type": "uint96"
        },
        {
          "internalType": "uint96",
          "name": "_minSize",
          "type": "uint96"
        },
        {
          "internalType": "uint96",
          "name": "_maxSize",
          "type": "uint96"
        },
        {
          "internalType": "uint256",
          "name": "_takerFeeBps",
          "type": "uint256"
        }
      ],
      "name": "deployProxy",
      "outputs": [
        {
          "internalType": "address",
          "name": "proxy",
          "type": "address"
        }
      ],
      "stateMutability": "nonpayable",
      "type": "function"
    },
    {
      "inputs": [
        {
          "internalType": "address",
          "name": "_owner",
          "type": "address"
        },
        {
          "internalType": "address",
          "name": "_marginAccount",
          "type": "address"
        },
        {
          "internalType": "address",
          "name": "_implementation",
          "type": "address"
        }
      ],
      "name": "initialize",
      "outputs": [],
      "stateMutability": "nonpayable",
      "type": "function"
    },
    {
      "inputs": [],
      "name": "owner",
      "outputs": [
        {
          "internalType": "address",
          "name": "",
          "type": "address"
        }
      ],
      "stateMutability": "view",
      "type": "function"
    },
    {
      "inputs": [],
      "name": "renounceOwnership",
      "outputs": [],
      "stateMutability": "nonpayable",
      "type": "function"
    },
    {
      "inputs": [
        {
          "internalType": "address",
          "name": "newOwner",
          "type": "address"
        }
      ],
      "name": "transferOwnership",
      "outputs": [],
      "stateMutability": "nonpayable",
      "type": "function"
    },
    {
      "inputs": [
        {
          "internalType": "address",
          "name": "newImplementation",
          "type": "address"
        }
      ],
      "name": "upgradeImplementation",
      "outputs": [],
      "stateMutability": "nonpayable",
      "type": "function"
    },
    {
      "inputs": [
        {
          "internalType": "address[]",
          "name": "proxies",
          "type": "address[]"
        }
      ],
      "name": "upgradeMultipleProxies",
      "outputs": [],
      "stateMutability": "nonpayable",
      "type": "function"
    },
    {
      "inputs": [
        {
          "internalType": "address",
          "name": "",
          "type": "address"
        }
      ],
      "name": "verifiedMarket",
      "outputs": [
        {
          "internalType": "bool",
          "name": "",
          "type": "bool"
        }
      ],
      "stateMutability": "view",
      "type": "function"
    }
  ],
  "bytecode": "0x608060405234801561001057600080fd5b50612433806100206000396000f3fe60806040523480156200001157600080fd5b5060043610620000cd5760003560e01c80638da5cb5b116200007f578063dd44783e1162000062578063dd44783e14620001af578063f2fde38b14620001c6578063f45e07c314620001dd57600080fd5b80638da5cb5b1462000186578063c0c53b8b146200019857600080fd5b80635f71a07c11620000b45780635f71a07c146200012c578063715018a6146200016357806383f94db7146200016f57600080fd5b80630e7abda214620000d2578063593299bc1462000106575b600080fd5b620000e9620000e3366004620015eb565b620001f4565b6040516001600160a01b0390911681526020015b60405180910390f35b6200011d62000117366004620016e5565b6200046d565b604051908152602001620000fd565b620001526200013d36600462001794565b60656020526000908152604090205460ff1681565b6040519015158152602001620000fd565b6200016d6200090d565b005b6200016d6200018036600462001794565b62000925565b6033546001600160a01b0316620000e9565b6200016d620001a9366004620017b2565b6200097a565b6200016d620001c036600462001812565b62000aee565b6200016d620001d736600462001794565b62000c51565b620000e9620001ee366004620018e8565b62000ce7565b600080620002098a8a8a8a8a8a8a8a62000dac565b90506200029260008260405180602001620002249062001593565b601f1982820381018352606654601f909201166020818101604090815260008352516200025d936001600160a01b0316929101620019e2565b60408051601f19818403018152908290526200027d929160200162001a27565b60405160208183030381529060405262000e7e565b915050806001600160a01b0316638bc75f84308b8c6001600160a01b031663313ce5676040518163ffffffff1660e01b81526004016020604051808303816000875af1158015620002e7573d6000803e3d6000fd5b505050506040513d601f19601f820116820180604052508101906200030d919062001a5a565b8c8d6001600160a01b031663313ce5676040518163ffffffff1660e01b81526004016020604051808303816000875af11580156200034f573d6000803e3d6000fd5b505050506040513d601f19601f8201168201806040525081019062000375919062001a5a565b6067546040517fffffffff0000000000000000000000000000000000000000000000000000000060e089901b1681526001600160a01b03968716600482015294861660248601526044850193909352908416606484015260848301529190911660a48201526bffffffffffffffffffffffff808b1660c483015262ffffff8a1660e48301528089166101048301528088166101248301528616610144820152610164810185905261018401600060405180830381600087803b1580156200043b57600080fd5b505af115801562000450573d6000803e3d6000fd5b505050506200046189898362000f8f565b98975050505050505050565b60006001881015620004c65760405162461bcd60e51b815260206004820152601b60248201527f526f757465723a204e6f206d61726b65747320696e20696e707574000000000060448201526064015b60405180910390fd5b858814620005175760405162461bcd60e51b815260206004820152601d60248201527f526f757465723a2053697a6573206c656e677468206d69736d617463680000006044820152606401620004bd565b6040517f23b872dd000000000000000000000000000000000000000000000000000000008152336004820152306024820152604481018490526001600160a01b038616906323b872dd906064016020604051808303816000875af115801562000584573d6000803e3d6000fd5b505050506040513d601f19601f82011682018060405250810190620005aa919062001a74565b5060005b88811015620007fa5760008a8a83818110620005ce57620005ce62001a94565b9050602002016020810190620005e5919062001794565b6001600160a01b03811660009081526065602052604090205490915060ff16620006525760405162461bcd60e51b815260206004820152601760248201527f526f757465723a20496e76616c6964206d61726b6574210000000000000000006044820152606401620004bd565b8089898481811062000668576200066862001a94565b90506020020160208101906200067f919062001aaa565b6200073857806001600160a01b031663cae22ee6620006a18860008562001167565b6040517fffffffff0000000000000000000000000000000000000000000000000000000060e084901b1681526bffffffffffffffffffffffff9091166004820152600160248201526044016020604051808303816000875af11580156200070c573d6000803e3d6000fd5b505050506040513d601f19601f8201168201806040525081019062000732919062001a5a565b620007dd565b806001600160a01b0316632aa9fbdc620007558860018562001167565b6040517fffffffff0000000000000000000000000000000000000000000000000000000060e084901b16815262ffffff9091166004820152600160248201526044016020604051808303816000875af1158015620007b7573d6000803e3d6000fd5b505050506040513d601f19601f82011682018060405250810190620007dd919062001a5a565b935083955050508080620007f19062001ae0565b915050620005ae565b5081811015620008735760405162461bcd60e51b815260206004820152602860248201527f526f757465723a20536c6970706167652065786365656473206578706563746560448201527f642076616c7565210000000000000000000000000000000000000000000000006064820152608401620004bd565b6040517fa9059cbb000000000000000000000000000000000000000000000000000000008152336004820152602481018290526001600160a01b0385169063a9059cbb906044016020604051808303816000875af1158015620008da573d6000803e3d6000fd5b505050506040513d601f19601f8201168201806040525081019062000900919062001a74565b5098975050505050505050565b6200091762001374565b620009236000620013d0565b565b6200092f62001374565b6066546001600160a01b03908116908216036200094b57600080fd5b6066805473ffffffffffffffffffffffffffffffffffffffff19166001600160a01b0392909216919091179055565b600054610100900460ff16158080156200099b5750600054600160ff909116105b80620009b75750303b158015620009b7575060005460ff166001145b62000a2b5760405162461bcd60e51b815260206004820152602e60248201527f496e697469616c697a61626c653a20636f6e747261637420697320616c72656160448201527f647920696e697469616c697a65640000000000000000000000000000000000006064820152608401620004bd565b6000805460ff19166001179055801562000a4f576000805461ff0019166101001790555b62000a596200142f565b62000a6484620013d0565b606780546001600160a01b0380861673ffffffffffffffffffffffffffffffffffffffff19928316179092556066805492851692909116919091179055801562000ae8576000805461ff0019169055604051600181527f7f26b83ff96e1f2b6a682f133852f6798a09c465da95921460cefb38474024989060200160405180910390a15b50505050565b60005b815181101562000c4d57600082828151811062000b125762000b1262001a94565b602090810291909101810151606654604080516001600160a01b03928316602480830191909152825180830390910181526044909101825293840180517bffffffffffffffffffffffffffffffffffffffffffffffffffffffff167f3659cfe6000000000000000000000000000000000000000000000000000000001790525191169162000ba09162001afc565b6000604051808303816000865af19150503d806000811462000bdf576040519150601f19603f3d011682016040523d82523d6000602084013e62000be4565b606091505b505090508062000c375760405162461bcd60e51b815260206004820152601660248201527f526f757465723a2055706772616465204661696c6564000000000000000000006044820152606401620004bd565b508062000c448162001ae0565b91505062000af1565b5050565b62000c5b62001374565b6001600160a01b03811662000cd95760405162461bcd60e51b815260206004820152602660248201527f4f776e61626c653a206e6577206f776e657220697320746865207a65726f206160448201527f64647265737300000000000000000000000000000000000000000000000000006064820152608401620004bd565b62000ce481620013d0565b50565b60008062000cfc8c8c8c8c8c8c8c8c62000dac565b905062000d9c816040518060200162000d159062001593565b601f1982820381018352601f909101166040528562000d40576066546001600160a01b031662000d42565b865b604080516020808201835260008252915162000d60939201620019e2565b60408051601f198184030181529082905262000d80929160200162001a27565b60405160208183030381529060405280519060200120620014a6565b9c9b505050505050505050505050565b600062000dba8989620014be565b6040516bffffffffffffffffffffffff19606084811b8216602084015283901b16603482015273ffffffffffffffffffffffffffffffffffffffff1960a08b811b821660488401527fffffff000000000000000000000000000000000000000000000000000000000060e88c901b16605484015289811b8216605784015288811b8216606384015287901b16606f820152607b8101859052919a509850609b0160405160208183030381529060405280519060200120905098975050505050505050565b60008347101562000ed25760405162461bcd60e51b815260206004820152601d60248201527f437265617465323a20696e73756666696369656e742062616c616e63650000006044820152606401620004bd565b815160000362000f255760405162461bcd60e51b815260206004820181905260248201527f437265617465323a2062797465636f6465206c656e677468206973207a65726f6044820152606401620004bd565b8282516020840186f590506001600160a01b03811662000f885760405162461bcd60e51b815260206004820152601960248201527f437265617465323a204661696c6564206f6e206465706c6f79000000000000006044820152606401620004bd565b9392505050565b6001600160a01b0381811660008181526065602052604090819020805460ff191660011790555163095ea7b360e01b8152600481019190915260001960248201529084169063095ea7b3906044016020604051808303816000875af115801562000ffd573d6000803e3d6000fd5b505050506040513d601f19601f8201168201806040525081019062001023919062001a74565b5060405163095ea7b360e01b81526001600160a01b038281166004830152600019602483015283169063095ea7b3906044016020604051808303816000875af115801562001075573d6000803e3d6000fd5b505050506040513d601f19601f820116820180604052508101906200109b919062001a74565b506067546040517f01aef3490000000000000000000000000000000000000000000000000000000081526001600160a01b038381166004830152909116906301aef34990602401600060405180830381600087803b158015620010fd57600080fd5b505af115801562001112573d6000803e3d6000fd5b5050604080516001600160a01b038781168252868116602083015285168183015290517fb313430391c48e1ec63b9cf14dcd61b818b9ae83982f1d4e0e0ad01147af5cd09350908190036060019150a1505050565b6000826200127257816001600160a01b031663962f7f916040518163ffffffff1660e01b8152600401602060405180830381865afa158015620011ae573d6000803e3d6000fd5b505050506040513d601f19601f82011682018060405250810190620011d4919062001a5a565b620011e190600a62001c17565b826001600160a01b03166308c8120e6040518163ffffffff1660e01b8152600401602060405180830381865afa15801562001220573d6000803e3d6000fd5b505050506040513d601f19601f8201168201806040525081019062001246919062001c25565b62001260906bffffffffffffffffffffffff168662001c45565b6200126c919062001c5f565b6200136c565b816001600160a01b0316637b6966cb6040518163ffffffff1660e01b8152600401602060405180830381865afa158015620012b1573d6000803e3d6000fd5b505050506040513d601f19601f82011682018060405250810190620012d7919062001a5a565b620012e490600a62001c17565b826001600160a01b03166308ea5bee6040518163ffffffff1660e01b8152600401602060405180830381865afa15801562001323573d6000803e3d6000fd5b505050506040513d601f19601f8201168201806040525081019062001349919062001c82565b6200135a9062ffffff168662001c45565b62001366919062001c5f565b62ffffff165b949350505050565b6033546001600160a01b03163314620009235760405162461bcd60e51b815260206004820181905260248201527f4f776e61626c653a2063616c6c6572206973206e6f7420746865206f776e65726044820152606401620004bd565b603380546001600160a01b0383811673ffffffffffffffffffffffffffffffffffffffff19831681179093556040519116919082907f8be0079c531659141344cd1fd0a4f28419497f9722a3daafe3b4186f6b6457e090600090a35050565b600054610100900460ff166200149c5760405162461bcd60e51b815260206004820152602b60248201527f496e697469616c697a61626c653a20636f6e7472616374206973206e6f74206960448201526a6e697469616c697a696e6760a81b6064820152608401620004bd565b62000923620014f1565b6000620014b583833062001569565b90505b92915050565b600080826001600160a01b0316846001600160a01b031611620014e3578383620014e6565b82845b909590945092505050565b600054610100900460ff166200155e5760405162461bcd60e51b815260206004820152602b60248201527f496e697469616c697a61626c653a20636f6e7472616374206973206e6f74206960448201526a6e697469616c697a696e6760a81b6064820152608401620004bd565b6200092333620013d0565b6000604051836040820152846020820152828152600b8101905060ff815360559020949350505050565b61075b8062001ca383390190565b80356001600160a01b0381168114620015b957600080fd5b919050565b6bffffffffffffffffffffffff8116811462000ce457600080fd5b62ffffff8116811462000ce457600080fd5b600080600080600080600080610100898b0312156200160957600080fd5b6200161489620015a1565b97506200162460208a01620015a1565b965060408901356200163681620015be565b955060608901356200164881620015d9565b945060808901356200165a81620015be565b935060a08901356200166c81620015be565b925060c08901356200167e81620015be565b8092505060e089013590509295985092959890939650565b60008083601f840112620016a957600080fd5b50813567ffffffffffffffff811115620016c257600080fd5b6020830191508360208260051b8501011115620016de57600080fd5b9250929050565b60008060008060008060008060c0898b0312156200170257600080fd5b883567ffffffffffffffff808211156200171b57600080fd5b620017298c838d0162001696565b909a50985060208b01359150808211156200174357600080fd5b50620017528b828c0162001696565b909750955062001767905060408a01620015a1565b93506200177760608a01620015a1565b92506080890135915060a089013590509295985092959890939650565b600060208284031215620017a757600080fd5b620014b582620015a1565b600080600060608486031215620017c857600080fd5b620017d384620015a1565b9250620017e360208501620015a1565b9150620017f360408501620015a1565b90509250925092565b634e487b7160e01b600052604160045260246000fd5b600060208083850312156200182657600080fd5b823567ffffffffffffffff808211156200183f57600080fd5b818501915085601f8301126200185457600080fd5b813581811115620018695762001869620017fc565b8060051b604051601f19603f83011681018181108582111715620018915762001891620017fc565b604052918252848201925083810185019188831115620018b057600080fd5b938501935b828510156200046157620018c985620015a1565b84529385019392850192620018b5565b801515811462000ce457600080fd5b6000806000806000806000806000806101408b8d0312156200190957600080fd5b620019148b620015a1565b99506200192460208c01620015a1565b985060408b01356200193681620015be565b975060608b01356200194881620015d9565b965060808b01356200195a81620015be565b955060a08b01356200196c81620015be565b945060c08b01356200197e81620015be565b935060e08b01359250620019966101008c01620015a1565b91506101208b0135620019a981620018d9565b809150509295989b9194979a5092959850565b60005b83811015620019d9578181015183820152602001620019bf565b50506000910152565b6001600160a01b0383168152604060208201526000825180604084015262001a12816060850160208701620019bc565b601f01601f1916919091016060019392505050565b6000835162001a3b818460208801620019bc565b83519083019062001a51818360208801620019bc565b01949350505050565b60006020828403121562001a6d57600080fd5b5051919050565b60006020828403121562001a8757600080fd5b815162000f8881620018d9565b634e487b7160e01b600052603260045260246000fd5b60006020828403121562001abd57600080fd5b813562000f8881620018d9565b634e487b7160e01b600052601160045260246000fd5b60006001820162001af55762001af562001aca565b5060010190565b6000825162001b10818460208701620019bc565b9190910192915050565b600181815b8085111562001b5b57816000190482111562001b3f5762001b3f62001aca565b8085161562001b4d57918102915b93841c939080029062001b1f565b509250929050565b60008262001b7457506001620014b8565b8162001b8357506000620014b8565b816001811462001b9c576002811462001ba75762001bc7565b6001915050620014b8565b60ff84111562001bbb5762001bbb62001aca565b50506001821b620014b8565b5060208310610133831016604e8410600b841016171562001bec575081810a620014b8565b62001bf8838362001b1a565b806000190482111562001c0f5762001c0f62001aca565b029392505050565b6000620014b5838362001b63565b60006020828403121562001c3857600080fd5b815162000f8881620015be565b8082028115828204841417620014b857620014b862001aca565b60008262001c7d57634e487b7160e01b600052601260045260246000fd5b500490565b60006020828403121562001c9557600080fd5b815162000f8881620015d956fe608060405260405161075b38038061075b83398101604081905261002291610319565b61002e82826000610035565b5050610436565b61003e8361006b565b60008251118061004b5750805b156100665761006483836100ab60201b6100291760201c565b505b505050565b610074816100d7565b6040516001600160a01b038216907fbc7cd75a20ee27fd9adebab32041f755214dbc6bffa90cc0225b39da2e5c2d3b90600090a250565b60606100d08383604051806060016040528060278152602001610734602791396101a9565b9392505050565b6100ea8161022260201b6100551760201c565b6101515760405162461bcd60e51b815260206004820152602d60248201527f455243313936373a206e657720696d706c656d656e746174696f6e206973206e60448201526c1bdd08184818dbdb9d1c9858dd609a1b60648201526084015b60405180910390fd5b806101887f360894a13ba1a3210667c828492db98dca3e2076cc3735a920a3ca505d382bbc60001b61023160201b6100711760201c565b80546001600160a01b0319166001600160a01b039290921691909117905550565b6060600080856001600160a01b0316856040516101c691906103e7565b600060405180830381855af49150503d8060008114610201576040519150601f19603f3d011682016040523d82523d6000602084013e610206565b606091505b50909250905061021886838387610234565b9695505050505050565b6001600160a01b03163b151590565b90565b606083156102a357825160000361029c576001600160a01b0385163b61029c5760405162461bcd60e51b815260206004820152601d60248201527f416464726573733a2063616c6c20746f206e6f6e2d636f6e74726163740000006044820152606401610148565b50816102ad565b6102ad83836102b5565b949350505050565b8151156102c55781518083602001fd5b8060405162461bcd60e51b81526004016101489190610403565b634e487b7160e01b600052604160045260246000fd5b60005b838110156103105781810151838201526020016102f8565b50506000910152565b6000806040838503121561032c57600080fd5b82516001600160a01b038116811461034357600080fd5b60208401519092506001600160401b038082111561036057600080fd5b818501915085601f83011261037457600080fd5b815181811115610386576103866102df565b604051601f8201601f19908116603f011681019083821181831017156103ae576103ae6102df565b816040528281528860208487010111156103c757600080fd5b6103d88360208301602088016102f5565b80955050505050509250929050565b600082516103f98184602087016102f5565b9190910192915050565b60208152600082518060208401526104228160408501602087016102f5565b601f01601f19169190910160400192915050565b6102ef806104456000396000f3fe60806040523661001357610011610017565b005b6100115b610027610022610074565b6100b9565b565b606061004e8383604051806060016040528060278152602001610293602791396100dd565b9392505050565b73ffffffffffffffffffffffffffffffffffffffff163b151590565b90565b60006100b47f360894a13ba1a3210667c828492db98dca3e2076cc3735a920a3ca505d382bbc5473ffffffffffffffffffffffffffffffffffffffff1690565b905090565b3660008037600080366000845af43d6000803e8080156100d8573d6000f35b3d6000fd5b60606000808573ffffffffffffffffffffffffffffffffffffffff16856040516101079190610243565b600060405180830381855af49150503d8060008114610142576040519150601f19603f3d011682016040523d82523d6000602084013e610147565b606091505b509150915061015886838387610162565b9695505050505050565b606083156101e35782516000036101dc5773ffffffffffffffffffffffffffffffffffffffff85163b6101dc5760405162461bcd60e51b815260206004820152601d60248201527f416464726573733a2063616c6c20746f206e6f6e2d636f6e747261637400000060448201526064015b60405180910390fd5b50816101ed565b6101ed83836101f5565b949350505050565b8151156102055781518083602001fd5b8060405162461bcd60e51b81526004016101d3919061025f565b60005b8381101561023a578181015183820152602001610222565b50506000910152565b6000825161025581846020870161021f565b9190910192915050565b602081526000825180602084015261027e81604085016020870161021f565b601f01601f1916919091016040019291505056fe416464726573733a206c6f772d6c6576656c2064656c65676174652063616c6c206661696c6564a26469706673582212204d4151f1c7a852f8cd2cbafd708466c393ebb778872d08070ce5b5cebb87c0a464736f6c63430008110033416464726573733a206c6f772d6c6576656c2064656c65676174652063616c6c206661696c6564a26469706673582212201ab586ca9b3b0f161189cf00e3dd58d8ac332c4dbd1a9b374de3a0b9b61bb00164736f6c63430008110033",
  "linkReferences": {},
  "deployedLinkReferences": {}
}