{
  "_format": "hh-sol-artifact-1",
  "contractName": "Router",
  "sourceName": "contracts/Router.sol",
  "abi": [
    {
      "anonymous": false,
      "inputs": [
        {
          "indexed": false,
          "internalType": "uint8",
          "name": "version",
          "type": "uint8"
        }
      ],
      "name": "Initialized",
      "type": "event"
    },
    {
      "anonymous": false,
      "inputs": [
        {
          "indexed": false,
          "internalType": "address",
          "name": "baseAsset",
          "type": "address"
        },
        {
          "indexed": false,
          "internalType": "address",
          "name": "quoteAsset",
          "type": "address"
        },
        {
          "indexed": false,
          "internalType": "address",
          "name": "market",
          "type": "address"
        }
      ],
      "name": "MarketRegistered",
      "type": "event"
    },
    {
      "anonymous": false,
      "inputs": [
        {
          "indexed": false,
          "internalType": "address",
          "name": "baseAsset",
          "type": "address"
        },
        {
          "indexed": false,
          "internalType": "address",
          "name": "quoteAsset",
          "type": "address"
        },
        {
          "indexed": false,
          "internalType": "address",
          "name": "market",
          "type": "address"
        }
      ],
      "name": "MarketUpdated",
      "type": "event"
    },
    {
      "anonymous": false,
      "inputs": [
        {
          "indexed": true,
          "internalType": "address",
          "name": "previousOwner",
          "type": "address"
        },
        {
          "indexed": true,
          "internalType": "address",
          "name": "newOwner",
          "type": "address"
        }
      ],
      "name": "OwnershipTransferred",
      "type": "event"
    },
    {
      "inputs": [
        {
          "internalType": "address[]",
          "name": "_marketAddresses",
          "type": "address[]"
        },
        {
          "internalType": "bool[]",
          "name": "_isBuy",
          "type": "bool[]"
        },
        {
          "internalType": "bool[]",
          "name": "_nativeSend",
          "type": "bool[]"
        },
        {
          "internalType": "address",
          "name": "_debitToken",
          "type": "address"
        },
        {
          "internalType": "address",
          "name": "_creditToken",
          "type": "address"
        },
        {
          "internalType": "uint256",
          "name": "_amount",
          "type": "uint256"
        },
        {
          "internalType": "uint256",
          "name": "_minAmountOut",
          "type": "uint256"
        }
      ],
      "name": "anyToAnySwap",
      "outputs": [
        {
          "internalType": "uint256",
          "name": "_amountOut",
          "type": "uint256"
        }
      ],
      "stateMutability": "nonpayable",
      "type": "function"
    },
    {
      "inputs": [
        {
          "internalType": "address",
          "name": "_baseAssetAddress",
          "type": "address"
        },
        {
          "internalType": "address",
          "name": "_quoteAssetAddress",
          "type": "address"
        },
        {
          "internalType": "uint96",
          "name": "_sizePrecision",
          "type": "uint96"
        },
        {
          "internalType": "uint24",
          "name": "_pricePrecision",
          "type": "uint24"
        },
        {
          "internalType": "uint96",
          "name": "_tickSize",
          "type": "uint96"
        },
        {
          "internalType": "uint96",
          "name": "_minSize",
          "type": "uint96"
        },
        {
          "internalType": "uint96",
          "name": "_maxSize",
          "type": "uint96"
        },
        {
          "internalType": "uint256",
          "name": "_takerFeeBps",
          "type": "uint256"
        },
        {
          "internalType": "uint256",
          "name": "_makerFeeBps",
          "type": "uint256"
        },
        {
          "internalType": "address",
          "name": "oldImplementation",
          "type": "address"
        },
        {
          "internalType": "bool",
          "name": "old",
          "type": "bool"
        }
      ],
      "name": "computeAddress",
      "outputs": [
        {
          "internalType": "address",
          "name": "proxy",
          "type": "address"
        }
      ],
      "stateMutability": "view",
      "type": "function"
    },
    {
      "inputs": [
        {
          "internalType": "enum IOrderBook.OrderBookType",
          "name": "_type",
          "type": "uint8"
        },
        {
          "internalType": "address",
          "name": "_baseAssetAddress",
          "type": "address"
        },
        {
          "internalType": "address",
          "name": "_quoteAssetAddress",
          "type": "address"
        },
        {
          "internalType": "uint96",
          "name": "_sizePrecision",
          "type": "uint96"
        },
        {
          "internalType": "uint24",
          "name": "_pricePrecision",
          "type": "uint24"
        },
        {
          "internalType": "uint96",
          "name": "_tickSize",
          "type": "uint96"
        },
        {
          "internalType": "uint96",
          "name": "_minSize",
          "type": "uint96"
        },
        {
          "internalType": "uint96",
          "name": "_maxSize",
          "type": "uint96"
        },
        {
          "internalType": "uint256",
          "name": "_takerFeeBps",
          "type": "uint256"
        },
        {
          "internalType": "uint256",
          "name": "_makerFeeBps",
          "type": "uint256"
        }
      ],
      "name": "deployProxy",
      "outputs": [
        {
          "internalType": "address",
          "name": "proxy",
          "type": "address"
        }
      ],
      "stateMutability": "nonpayable",
      "type": "function"
    },
    {
      "inputs": [
        {
          "internalType": "address",
          "name": "_owner",
          "type": "address"
        },
        {
          "internalType": "address",
          "name": "_marginAccount",
          "type": "address"
        },
        {
          "internalType": "address",
          "name": "_implementation",
          "type": "address"
        }
      ],
      "name": "initialize",
      "outputs": [],
      "stateMutability": "nonpayable",
      "type": "function"
    },
    {
      "inputs": [],
      "name": "owner",
      "outputs": [
        {
          "internalType": "address",
          "name": "",
          "type": "address"
        }
      ],
      "stateMutability": "view",
      "type": "function"
    },
    {
      "inputs": [],
      "name": "renounceOwnership",
      "outputs": [],
      "stateMutability": "nonpayable",
      "type": "function"
    },
    {
      "inputs": [
        {
          "internalType": "address",
          "name": "newOwner",
          "type": "address"
        }
      ],
      "name": "transferOwnership",
      "outputs": [],
      "stateMutability": "nonpayable",
      "type": "function"
    },
    {
      "inputs": [
        {
          "internalType": "address",
          "name": "newImplementation",
          "type": "address"
        }
      ],
      "name": "upgradeImplementation",
      "outputs": [],
      "stateMutability": "nonpayable",
      "type": "function"
    },
    {
      "inputs": [
        {
          "internalType": "address[]",
          "name": "proxies",
          "type": "address[]"
        }
      ],
      "name": "upgradeMultipleProxies",
      "outputs": [],
      "stateMutability": "nonpayable",
      "type": "function"
    },
    {
      "inputs": [
        {
          "internalType": "address",
          "name": "",
          "type": "address"
        }
      ],
      "name": "verifiedMarket",
      "outputs": [
        {
          "internalType": "bool",
          "name": "",
          "type": "bool"
        }
      ],
      "stateMutability": "view",
      "type": "function"
    }
  ],
  "bytecode": "0x608080604052346100165761225c908161001c8239f35b600080fdfe608060405260043610156200001357600080fd5b6000803560e01c806320ebd3ed14620013fc578063564833041462000dc25780635f71a07c1462000d81578063715018a61462000d2157806383f94db71462000cd05780638da5cb5b1462000ca7578063c0c53b8b1462000b04578063dd44783e146200091e578063f2fde38b146200086e5763ffa5210a146200009657600080fd5b34620004fe5760e0366003190112620004fe5767ffffffffffffffff6004358181116200086a57620000cd90369060040162001666565b90916024358181116200086657620000ea90369060040162001666565b93909160443590811162000862576200010890369060040162001666565b929093606435956001600160a01b0387168703620004b557608435956001600160a01b0387168703620004b55760a435928998600182106200081e57818403620007da5760206001600160a01b0360648d9360405194859384927f23b872dd0000000000000000000000000000000000000000000000000000000084523360048501523060248501528b6044850152165af18015620007cf57620007ab575b5095949392919089925b878410620002d1578a8a8a60c4358210620002675760206001600160a01b036044859360405194859384927fa9059cbb000000000000000000000000000000000000000000000000000000008452336004850152886024850152165af180156200025c576020935062000228575b50604051908152f35b6200024c90833d851162000254575b62000243818362001643565b81019062001836565b50826200021f565b503d62000237565b6040513d85823e3d90fd5b608460405162461bcd60e51b815260206004820152602860248201527f526f757465723a20536c6970706167652065786365656473206578706563746560448201527f642076616c7565210000000000000000000000000000000000000000000000006064820152fd5b909192939495969850620002e7848a8862001850565b35906001600160a01b0382168203620007a7576001600160a01b0382168b52606560205260ff60408c205416156200076357620003306200032a868a8662001850565b62001877565b156200075b57805b620003496200032a87878a62001850565b1562000562576040517f08ea5bee0000000000000000000000000000000000000000000000000000000081526020816004816001600160a01b0388165afa9081156200050a5760009162000516575b509062ffffff620003ab92169062001885565b6040517f7b6966cb0000000000000000000000000000000000000000000000000000000081526020816004816001600160a01b0388165afa9081156200050a57600091620004ce575b5060209262ffffff6200041e6001600160a01b0396946200041760449562001899565b90620018a8565b169060405195869485937f2aa9fbdc000000000000000000000000000000000000000000000000000000008552600485015260016024850152165af1908115620004c3578a9162000486575b50975b62000479899462001810565b92919096959493620001b1565b90506020813d602011620004ba575b81620004a46020938362001643565b81010312620004b55751386200046a565b600080fd5b3d915062000495565b6040513d8c823e3d90fd5b906020823d60201162000501575b81620004eb6020938362001643565b81010312620004fe5750516020620003f4565b80fd5b3d9150620004dc565b6040513d6000823e3d90fd5b6020813d60201162000559575b81620005326020938362001643565b810103126200055557519062ffffff82168203620004fe575062ffffff62000398565b5080fd5b3d915062000523565b6040517f08c8120e0000000000000000000000000000000000000000000000000000000081526020816004816001600160a01b0388165afa9081156200050a5760009162000701575b50906bffffffffffffffffffffffff620005c792169062001885565b6040517f962f7f910000000000000000000000000000000000000000000000000000000081526020816004816001600160a01b0388165afa9081156200050a57600091620006c8575b506020926bffffffffffffffffffffffff6200063c6001600160a01b0396946200041760449562001899565b169060405195869485937fcae22ee6000000000000000000000000000000000000000000000000000000008552600485015260016024850152165af1908115620004c3578a9162000690575b50976200046d565b90506020813d602011620006bf575b81620006ae6020938362001643565b81010312620004b557513862000688565b3d91506200069f565b906020823d602011620006f8575b81620006e56020938362001643565b81010312620004fe575051602062000610565b3d9150620006d6565b6020813d60201162000752575b816200071d6020938362001643565b81010312620005555751906bffffffffffffffffffffffff82168203620004fe57506bffffffffffffffffffffffff620005ab565b3d91506200070e565b8a9062000338565b606460405162461bcd60e51b815260206004820152601760248201527f526f757465723a20496e76616c6964206d61726b6574210000000000000000006044820152fd5b8a80fd5b620007c79060203d602011620002545762000243818362001643565b5038620001a7565b6040513d8d823e3d90fd5b606460405162461bcd60e51b815260206004820152601d60248201527f526f757465723a2053697a6573206c656e677468206d69736d617463680000006044820152fd5b606460405162461bcd60e51b815260206004820152601b60248201527f526f757465723a204e6f206d61726b65747320696e20696e70757400000000006044820152fd5b8580fd5b8480fd5b8280fd5b5034620004fe576020366003190112620004fe576200088c6200157e565b620008966200169a565b6001600160a01b03811615620008b457620008b190620016f3565b80f35b608460405162461bcd60e51b815260206004820152602660248201527f4f776e61626c653a206e6577206f776e657220697320746865207a65726f206160448201527f64647265737300000000000000000000000000000000000000000000000000006064820152fd5b5034620004fe57602080600319360112620005555760043567ffffffffffffffff92838211620004fe5736602383011215620004fe5781600401359380851162000af057600585811b93604051966200097a8787018962001643565b8752858701602480968301019136831162000862578601905b82821062000acf57505050825b865181101562000acb576001600160a01b03808783851b8a010151169060665416604051888101917f3659cfe600000000000000000000000000000000000000000000000000000000835288820152878152606081018181108782111762000ab65760405251869283929083905af13d1562000ab0573d84811162000a9b576040519062000a38601f8201601f19168a018362001643565b815285883d92013e5b1562000a585762000a529062001810565b620009a0565b6064866016876040519262461bcd60e51b845260048401528201527f526f757465723a2055706772616465204661696c6564000000000000000000006044820152fd5b86634e487b7160e01b60005260416004526000fd5b62000a41565b88634e487b7160e01b60005260416004526000fd5b8380f35b81356001600160a01b0381168103620004b557815290870190870162000993565b602482634e487b7160e01b81526041600452fd5b5034620004fe576060366003190112620004fe5762000b226200157e565b62000b2c62001595565b62000b36620015ac565b835460ff8160081c16159384809562000c99575b801562000c80575b1562000c165760ff198216600117865562000b9d918562000c04575b5062000b8c60ff875460081c1662000b86816200173b565b6200173b565b62000b9733620016f3565b620016f3565b6001600160a01b0390816001600160a01b031993168360675416176067551690606654161760665562000bcd5780f35b61ff001981541681557f7f26b83ff96e1f2b6a682f133852f6798a09c465da95921460cefb3847402498602060405160018152a180f35b61ffff19166101011786553862000b6e565b608460405162461bcd60e51b815260206004820152602e60248201527f496e697469616c697a61626c653a20636f6e747261637420697320616c72656160448201527f647920696e697469616c697a65640000000000000000000000000000000000006064820152fd5b50303b15801562000b525750600160ff83161462000b52565b50600160ff83161062000b4a565b5034620004fe5780600319360112620004fe5760206001600160a01b0360335416604051908152f35b5034620004fe576020366003190112620004fe5762000cee6200157e565b62000cf86200169a565b6066546001600160a01b0380921691811682146200086a576001600160a01b0319161760665580f35b5034620004fe5780600319360112620004fe5762000d3e6200169a565b60006001600160a01b036033546001600160a01b03198116603355167f8be0079c531659141344cd1fd0a4f28419497f9722a3daafe3b4186f6b6457e08280a380f35b5034620004fe576020366003190112620004fe5760ff60406020926001600160a01b0362000dae6200157e565b168152606584522054166040519015158152f35b5034620004fe57610140366003190112620004fe5760036004351015620004fe5762000ded62001595565b9062000df8620015ac565b6bffffffffffffffffffffffff6064351660643503620005555762ffffff6084351660843503620005555762000e2d620015c3565b9162000e38620015df565b926bffffffffffffffffffffffff60e4351660e435036200055557600435600103620013ed5762000f2b62000e93835b600435600203620013e657845b61012435918886610104359360e435936084359160643591620018c9565b62000f38602060405162000eac8261042c018262001643565b61042c815261042c620019cf838301396001600160a01b036066541662000ef262000f0160405162000ede8162001626565b8a81526040519283918783019586620017d2565b03601f19810183528262001643565b604051968362000f1b8995518092888089019101620017ad565b84019151809386840190620017ad565b0103808552018362001643565b815115620013a25781516001600160a01b039260200185f5169384156200135e57600435600103620013565782915b600435600103620012dc5760125b600435600203620012d557845b60043560020362001256576012905b6001600160a01b036067541692893b156200125257916001600160a01b036bffffffffffffffffffffffff96959392879593826040519a7f067285ea000000000000000000000000000000000000000000000000000000008c523060048d015260043560248d01521660448b015260648a015216608488015260a487015260c4860152816064351660e486015262ffffff6084351661010486015216610124840152166101448201526bffffffffffffffffffffffff60e4351661016482015261010435610184820152610124356101a482015281816101c48183885af18015620011695762001240575b50828152606560205260408120805460ff1916600117905560001960043501620011da575b60026004350362001174575b6001600160a01b0360675416803b1562000555578180916024604051809481937f01aef3490000000000000000000000000000000000000000000000000000000083528960048401525af18015620011695762001151575b6020847fb313430391c48e1ec63b9cf14dcd61b818b9ae83982f1d4e0e0ad01147af5cd06060886001600160a01b038881604051931683521685820152836040820152a1604051908152f35b6200115d8291620015fb565b620004fe578062001105565b6040513d84823e3d90fd5b60405163095ea7b360e01b81528360048201526000196024820152602081604481856001600160a01b0388165af180156200116957620011b6575b50620010ad565b620011d29060203d602011620002545762000243818362001643565b5038620011af565b60405163095ea7b360e01b81528360048201526000196024820152602081604481856001600160a01b038a165af1801562001169576200121c575b50620010a1565b620012389060203d602011620002545762000243818362001643565b503862001215565b6200124b90620015fb565b386200107c565b8780fd5b60405163313ce56760e01b81526020816004818a6001600160a01b038d165af1908115620012ca5787916200128e575b509062000f91565b90506020813d602011620012c1575b81620012ac6020938362001643565b81010312620012bd57513862001286565b8680fd5b3d91506200129d565b6040513d89823e3d90fd5b8562000f82565b60405163313ce56760e01b8152602081600481886001600160a01b038d165af19081156200134b57859162001313575b5062000f75565b90506020813d60201162001342575b81620013316020938362001643565b81010312620008665751386200130c565b3d915062001322565b6040513d87823e3d90fd5b859162000f67565b606460405162461bcd60e51b815260206004820152601960248201527f437265617465323a204661696c6564206f6e206465706c6f79000000000000006044820152fd5b606460405162461bcd60e51b815260206004820152602060248201527f437265617465323a2062797465636f6465206c656e677468206973207a65726f6044820152fd5b8562000e75565b62000f2b62000e938662000e68565b5034620004fe57610160366003190112620004fe576200141b6200157e565b6200142562001595565b6bffffffffffffffffffffffff9260443591848316830362000555576064359362ffffff851685036200086a5760843595861686036200086a5762001469620015c3565b62001473620015df565b9061012435976001600160a01b0397888a168a03620012bd576101443597881515890362001252579462001539946200154694620014c39460559b9994600b9b99610104359660e43596620018c9565b9361042c936040519060209a8b93620014df8589018562001643565b8784528484019762001dfb89391562001569576200151f62000ef291925b604051906200150c8262001626565b81526040519283918783019586620017d2565b60405195869362000f1b868601998a9251928391620017ad565b0103808452018262001643565b51902090604051916040830152858201523081520160ff81532060405191168152f35b5062000ef26200151f8b6066541692620014fd565b600435906001600160a01b0382168203620004b557565b602435906001600160a01b0382168203620004b557565b604435906001600160a01b0382168203620004b557565b60a435906bffffffffffffffffffffffff82168203620004b557565b60c435906bffffffffffffffffffffffff82168203620004b557565b67ffffffffffffffff81116200161057604052565b634e487b7160e01b600052604160045260246000fd5b6020810190811067ffffffffffffffff8211176200161057604052565b90601f8019910116810190811067ffffffffffffffff8211176200161057604052565b9181601f84011215620004b55782359167ffffffffffffffff8311620004b5576020808501948460051b010111620004b557565b6001600160a01b03603354163303620016af57565b606460405162461bcd60e51b815260206004820152602060248201527f4f776e61626c653a2063616c6c6572206973206e6f7420746865206f776e65726044820152fd5b603354906001600160a01b0380911691826001600160a01b0319821617603355167f8be0079c531659141344cd1fd0a4f28419497f9722a3daafe3b4186f6b6457e0600080a3565b156200174357565b608460405162461bcd60e51b815260206004820152602b60248201527f496e697469616c697a61626c653a20636f6e7472616374206973206e6f74206960448201527f6e697469616c697a696e670000000000000000000000000000000000000000006064820152fd5b60005b838110620017c15750506000910152565b8181015183820152602001620017b0565b90916001600160a01b0360609316825260406020830152620018048151809281604086015260208686019101620017ad565b601f01601f1916010190565b6000198114620018205760010190565b634e487b7160e01b600052601160045260246000fd5b90816020910312620004b557518015158103620004b55790565b9190811015620018615760051b0190565b634e487b7160e01b600052603260045260246000fd5b358015158103620004b55790565b818102929181159184041417156200182057565b604d81116200182057600a0a90565b8115620018b3570490565b634e487b7160e01b600052601260045260246000fd5b9592919794909693976001600160a01b0380891690881611600014620019a2577fffffff0000000000000000000000000000000000000000000000000000000000949596985b6040519860208a019a6bffffffffffffffffffffffff19809260601b168c5260601b1660348a01526001600160a01b031995869485809460a01b1660488c015260e81b1660548a015260a01b16605788015260a01b16606386015260a01b16606f840152607b830152609b820152609b815260c0810181811067ffffffffffffffff821117620016105760405251902090565b7fffffff000000000000000000000000000000000000000000000000000000000094959697986200190f56fe60406080815261042c908138038061001681610218565b93843982019181818403126102135780516001600160a01b038116808203610213576020838101516001600160401b0394919391858211610213570186601f820112156102135780519061007161006c83610253565b610218565b918083528583019886828401011161021357888661008f930161026e565b813b156101b9577f360894a13ba1a3210667c828492db98dca3e2076cc3735a920a3ca505d382bbc80546001600160a01b031916841790556000927fbc7cd75a20ee27fd9adebab32041f755214dbc6bffa90cc0225b39da2e5c2d3b8480a28051158015906101b2575b61010b575b855160e790816103458239f35b855194606086019081118682101761019e578697849283926101889952602788527f416464726573733a206c6f772d6c6576656c2064656c65676174652063616c6c87890152660819985a5b195960ca1b8a8901525190845af4913d15610194573d9061017a61006c83610253565b91825281943d92013e610291565b508038808080806100fe565b5060609250610291565b634e487b7160e01b84526041600452602484fd5b50826100f9565b855162461bcd60e51b815260048101859052602d60248201527f455243313936373a206e657720696d706c656d656e746174696f6e206973206e60448201526c1bdd08184818dbdb9d1c9858dd609a1b6064820152608490fd5b600080fd5b6040519190601f01601f191682016001600160401b0381118382101761023d57604052565b634e487b7160e01b600052604160045260246000fd5b6001600160401b03811161023d57601f01601f191660200190565b60005b8381106102815750506000910152565b8181015183820152602001610271565b919290156102f357508151156102a5575090565b3b156102ae5790565b60405162461bcd60e51b815260206004820152601d60248201527f416464726573733a2063616c6c20746f206e6f6e2d636f6e74726163740000006044820152606490fd5b8251909150156103065750805190602001fd5b6044604051809262461bcd60e51b825260206004830152610336815180928160248601526020868601910161026e565b601f01601f19168101030190fdfe60806040523615605f5773ffffffffffffffffffffffffffffffffffffffff7f360894a13ba1a3210667c828492db98dca3e2076cc3735a920a3ca505d382bbc54166000808092368280378136915af43d82803e15605b573d90f35b3d90fd5b73ffffffffffffffffffffffffffffffffffffffff7f360894a13ba1a3210667c828492db98dca3e2076cc3735a920a3ca505d382bbc54166000808092368280378136915af43d82803e15605b573d90f3fea26469706673582212204ae9c41ce66c9c8a1cf836f6987acb21356be12a351c7544403ef482c4392fb364736f6c6343000811003360406080815261042c908138038061001681610218565b93843982019181818403126102135780516001600160a01b038116808203610213576020838101516001600160401b0394919391858211610213570186601f820112156102135780519061007161006c83610253565b610218565b918083528583019886828401011161021357888661008f930161026e565b813b156101b9577f360894a13ba1a3210667c828492db98dca3e2076cc3735a920a3ca505d382bbc80546001600160a01b031916841790556000927fbc7cd75a20ee27fd9adebab32041f755214dbc6bffa90cc0225b39da2e5c2d3b8480a28051158015906101b2575b61010b575b855160e790816103458239f35b855194606086019081118682101761019e578697849283926101889952602788527f416464726573733a206c6f772d6c6576656c2064656c65676174652063616c6c87890152660819985a5b195960ca1b8a8901525190845af4913d15610194573d9061017a61006c83610253565b91825281943d92013e610291565b508038808080806100fe565b5060609250610291565b634e487b7160e01b84526041600452602484fd5b50826100f9565b855162461bcd60e51b815260048101859052602d60248201527f455243313936373a206e657720696d706c656d656e746174696f6e206973206e60448201526c1bdd08184818dbdb9d1c9858dd609a1b6064820152608490fd5b600080fd5b6040519190601f01601f191682016001600160401b0381118382101761023d57604052565b634e487b7160e01b600052604160045260246000fd5b6001600160401b03811161023d57601f01601f191660200190565b60005b8381106102815750506000910152565b8181015183820152602001610271565b919290156102f357508151156102a5575090565b3b156102ae5790565b60405162461bcd60e51b815260206004820152601d60248201527f416464726573733a2063616c6c20746f206e6f6e2d636f6e74726163740000006044820152606490fd5b8251909150156103065750805190602001fd5b6044604051809262461bcd60e51b825260206004830152610336815180928160248601526020868601910161026e565b601f01601f19168101030190fdfe60806040523615605f5773ffffffffffffffffffffffffffffffffffffffff7f360894a13ba1a3210667c828492db98dca3e2076cc3735a920a3ca505d382bbc54166000808092368280378136915af43d82803e15605b573d90f35b3d90fd5b73ffffffffffffffffffffffffffffffffffffffff7f360894a13ba1a3210667c828492db98dca3e2076cc3735a920a3ca505d382bbc54166000808092368280378136915af43d82803e15605b573d90f3fea26469706673582212204ae9c41ce66c9c8a1cf836f6987acb21356be12a351c7544403ef482c4392fb364736f6c63430008110033a2646970667358221220a422b216db289610732e32909ebf68c0f913ebec642ac3467d0f99226c7baad964736f6c63430008110033",
  "linkReferences": {},
  "deployedLinkReferences": {}
}