{
  "_format": "hh-sol-artifact-1",
  "contractName": "Router",
  "sourceName": "contracts/Router.sol",
  "abi": [
    {
      "anonymous": false,
      "inputs": [
        {
          "indexed": false,
          "internalType": "uint8",
          "name": "version",
          "type": "uint8"
        }
      ],
      "name": "Initialized",
      "type": "event"
    },
    {
      "anonymous": false,
      "inputs": [
        {
          "indexed": false,
          "internalType": "address",
          "name": "baseAsset",
          "type": "address"
        },
        {
          "indexed": false,
          "internalType": "address",
          "name": "quoteAsset",
          "type": "address"
        },
        {
          "indexed": false,
          "internalType": "address",
          "name": "market",
          "type": "address"
        }
      ],
      "name": "MarketRegistered",
      "type": "event"
    },
    {
      "anonymous": false,
      "inputs": [
        {
          "indexed": false,
          "internalType": "address",
          "name": "baseAsset",
          "type": "address"
        },
        {
          "indexed": false,
          "internalType": "address",
          "name": "quoteAsset",
          "type": "address"
        },
        {
          "indexed": false,
          "internalType": "address",
          "name": "market",
          "type": "address"
        }
      ],
      "name": "MarketUpdated",
      "type": "event"
    },
    {
      "anonymous": false,
      "inputs": [
        {
          "indexed": true,
          "internalType": "address",
          "name": "previousOwner",
          "type": "address"
        },
        {
          "indexed": true,
          "internalType": "address",
          "name": "newOwner",
          "type": "address"
        }
      ],
      "name": "OwnershipTransferred",
      "type": "event"
    },
    {
      "inputs": [
        {
          "internalType": "address[]",
          "name": "_marketAddresses",
          "type": "address[]"
        },
        {
          "internalType": "bool[]",
          "name": "_isBuy",
          "type": "bool[]"
        },
        {
          "internalType": "address",
          "name": "_debitToken",
          "type": "address"
        },
        {
          "internalType": "address",
          "name": "_creditToken",
          "type": "address"
        },
        {
          "internalType": "uint256",
          "name": "_amount",
          "type": "uint256"
        },
        {
          "internalType": "uint256",
          "name": "_minAmountOut",
          "type": "uint256"
        }
      ],
      "name": "anyToAnySwap",
      "outputs": [
        {
          "internalType": "uint256",
          "name": "_amountOut",
          "type": "uint256"
        }
      ],
      "stateMutability": "nonpayable",
      "type": "function"
    },
    {
      "inputs": [
        {
          "internalType": "address",
          "name": "_baseAssetAddress",
          "type": "address"
        },
        {
          "internalType": "address",
          "name": "_quoteAssetAddress",
          "type": "address"
        },
        {
          "internalType": "uint96",
          "name": "_sizePrecision",
          "type": "uint96"
        },
        {
          "internalType": "uint24",
          "name": "_pricePrecision",
          "type": "uint24"
        },
        {
          "internalType": "uint96",
          "name": "_tickSize",
          "type": "uint96"
        },
        {
          "internalType": "uint96",
          "name": "_minSize",
          "type": "uint96"
        },
        {
          "internalType": "uint96",
          "name": "_maxSize",
          "type": "uint96"
        },
        {
          "internalType": "uint256",
          "name": "_takerFeeBps",
          "type": "uint256"
        },
        {
          "internalType": "address",
          "name": "oldImplementation",
          "type": "address"
        },
        {
          "internalType": "bool",
          "name": "old",
          "type": "bool"
        }
      ],
      "name": "computeAddress",
      "outputs": [
        {
          "internalType": "address",
          "name": "proxy",
          "type": "address"
        }
      ],
      "stateMutability": "view",
      "type": "function"
    },
    {
      "inputs": [
        {
          "internalType": "address",
          "name": "_baseAssetAddress",
          "type": "address"
        },
        {
          "internalType": "address",
          "name": "_quoteAssetAddress",
          "type": "address"
        },
        {
          "internalType": "uint96",
          "name": "_sizePrecision",
          "type": "uint96"
        },
        {
          "internalType": "uint24",
          "name": "_pricePrecision",
          "type": "uint24"
        },
        {
          "internalType": "uint96",
          "name": "_tickSize",
          "type": "uint96"
        },
        {
          "internalType": "uint96",
          "name": "_minSize",
          "type": "uint96"
        },
        {
          "internalType": "uint96",
          "name": "_maxSize",
          "type": "uint96"
        },
        {
          "internalType": "uint256",
          "name": "_takerFeeBps",
          "type": "uint256"
        }
      ],
      "name": "deployProxy",
      "outputs": [
        {
          "internalType": "address",
          "name": "proxy",
          "type": "address"
        }
      ],
      "stateMutability": "nonpayable",
      "type": "function"
    },
    {
      "inputs": [
        {
          "internalType": "address",
          "name": "_owner",
          "type": "address"
        },
        {
          "internalType": "address",
          "name": "_marginAccount",
          "type": "address"
        },
        {
          "internalType": "address",
          "name": "_implementation",
          "type": "address"
        }
      ],
      "name": "initialize",
      "outputs": [],
      "stateMutability": "nonpayable",
      "type": "function"
    },
    {
      "inputs": [],
      "name": "owner",
      "outputs": [
        {
          "internalType": "address",
          "name": "",
          "type": "address"
        }
      ],
      "stateMutability": "view",
      "type": "function"
    },
    {
      "inputs": [],
      "name": "renounceOwnership",
      "outputs": [],
      "stateMutability": "nonpayable",
      "type": "function"
    },
    {
      "inputs": [
        {
          "internalType": "address",
          "name": "newOwner",
          "type": "address"
        }
      ],
      "name": "transferOwnership",
      "outputs": [],
      "stateMutability": "nonpayable",
      "type": "function"
    },
    {
      "inputs": [
        {
          "internalType": "address",
          "name": "newImplementation",
          "type": "address"
        }
      ],
      "name": "upgradeImplementation",
      "outputs": [],
      "stateMutability": "nonpayable",
      "type": "function"
    },
    {
      "inputs": [
        {
          "internalType": "address[]",
          "name": "proxies",
          "type": "address[]"
        }
      ],
      "name": "upgradeMultipleProxies",
      "outputs": [],
      "stateMutability": "nonpayable",
      "type": "function"
    },
    {
      "inputs": [
        {
          "internalType": "address",
          "name": "",
          "type": "address"
        }
      ],
      "name": "verifiedMarket",
      "outputs": [
        {
          "internalType": "bool",
          "name": "",
          "type": "bool"
        }
      ],
      "stateMutability": "view",
      "type": "function"
    }
  ],
  "bytecode": "0x608060405234801561001057600080fd5b50612469806100206000396000f3fe60806040523480156200001157600080fd5b5060043610620000cd5760003560e01c80638da5cb5b116200007f578063dd44783e1162000062578063dd44783e14620001af578063f2fde38b14620001c6578063f45e07c314620001dd57600080fd5b80638da5cb5b1462000186578063c0c53b8b146200019857600080fd5b80635f71a07c11620000b45780635f71a07c146200012c578063715018a6146200016357806383f94db7146200016f57600080fd5b80630e7abda214620000d2578063593299bc1462000106575b600080fd5b620000e9620000e336600462001621565b620001f4565b6040516001600160a01b0390911681526020015b60405180910390f35b6200011d620001173660046200171b565b62000514565b604051908152602001620000fd565b620001526200013d366004620017ca565b60656020526000908152604090205460ff1681565b6040519015158152602001620000fd565b6200016d620009ab565b005b6200016d62000180366004620017ca565b620009c3565b6033546001600160a01b0316620000e9565b6200016d620001a9366004620017e8565b62000a0b565b6200016d620001c036600462001848565b62000b72565b6200016d620001d7366004620017ca565b62000cd5565b620000e9620001ee3660046200191e565b62000d6b565b600062000202898962000ec7565b604080516bffffffffffffffffffffffff19606085811b82166020808501919091529085901b90911660348301526001600160a01b031960a08d811b821660488501527fffffff000000000000000000000000000000000000000000000000000000000060e88e901b1660548501528b811b821660578501528a811b8216606385015289901b16606f830152607b80830188905283518084039091018152609b9092019092528051910120919a5098506200033960008260405180602001620002cb90620015c9565b601f1982820381018352606654601f9092011660208181016040908152600083525162000304936001600160a01b031692910162001a18565b60408051601f198184030181529082905262000324929160200162001a5d565b60405160208183030381529060405262000efa565b915050806001600160a01b0316638bc75f84308b8c6001600160a01b031663313ce5676040518163ffffffff1660e01b81526004016020604051808303816000875af11580156200038e573d6000803e3d6000fd5b505050506040513d601f19601f82011682018060405250810190620003b4919062001a90565b8c8d6001600160a01b031663313ce5676040518163ffffffff1660e01b81526004016020604051808303816000875af1158015620003f6573d6000803e3d6000fd5b505050506040513d601f19601f820116820180604052508101906200041c919062001a90565b6067546040517fffffffff0000000000000000000000000000000000000000000000000000000060e089901b1681526001600160a01b03968716600482015294861660248601526044850193909352908416606484015260848301529190911660a48201526bffffffffffffffffffffffff808b1660c483015262ffffff8a1660e48301528089166101048301528088166101248301528616610144820152610164810185905261018401600060405180830381600087803b158015620004e257600080fd5b505af1158015620004f7573d6000803e3d6000fd5b50505050620005088989836200100b565b98975050505050505050565b600060018810156200056d5760405162461bcd60e51b815260206004820152601b60248201527f526f757465723a204e6f206d61726b65747320696e20696e707574000000000060448201526064015b60405180910390fd5b858814620005be5760405162461bcd60e51b815260206004820152601d60248201527f526f757465723a2053697a6573206c656e677468206d69736d61746368000000604482015260640162000564565b6040517f23b872dd000000000000000000000000000000000000000000000000000000008152336004820152306024820152604481018490526001600160a01b038616906323b872dd906064016020604051808303816000875af11580156200062b573d6000803e3d6000fd5b505050506040513d601f19601f8201168201806040525081019062000651919062001aaa565b5060005b88811015620008985760008a8a8381811062000675576200067562001aca565b90506020020160208101906200068c9190620017ca565b6001600160a01b03811660009081526065602052604090205490915060ff16620006f95760405162461bcd60e51b815260206004820152601760248201527f526f757465723a20496e76616c6964206d61726b657421000000000000000000604482015260640162000564565b808989848181106200070f576200070f62001aca565b905060200201602081019062000726919062001ae0565b620007d657806001600160a01b031663cae22ee66200074888600085620011e3565b6040517fffffffff0000000000000000000000000000000000000000000000000000000060e084901b16815262ffffff9091166004820152600160248201526044016020604051808303816000875af1158015620007aa573d6000803e3d6000fd5b505050506040513d601f19601f82011682018060405250810190620007d0919062001a90565b6200087b565b806001600160a01b0316632aa9fbdc620007f388600185620011e3565b6040517fffffffff0000000000000000000000000000000000000000000000000000000060e084901b16815262ffffff9091166004820152600160248201526044016020604051808303816000875af115801562000855573d6000803e3d6000fd5b505050506040513d601f19601f820116820180604052508101906200087b919062001a90565b9350839550505080806200088f9062001b16565b91505062000655565b5081811015620009115760405162461bcd60e51b815260206004820152602860248201527f526f757465723a20536c6970706167652065786365656473206578706563746560448201527f642076616c756521000000000000000000000000000000000000000000000000606482015260840162000564565b6040517fa9059cbb000000000000000000000000000000000000000000000000000000008152336004820152602481018290526001600160a01b0385169063a9059cbb906044016020604051808303816000875af115801562000978573d6000803e3d6000fd5b505050506040513d601f19601f820116820180604052508101906200099e919062001aaa565b5098975050505050505050565b620009b5620013ea565b620009c1600062001446565b565b620009cd620013ea565b6066546001600160a01b0390811690821603620009e957600080fd5b606680546001600160a01b0319166001600160a01b0392909216919091179055565b600054610100900460ff161580801562000a2c5750600054600160ff909116105b8062000a485750303b15801562000a48575060005460ff166001145b62000abc5760405162461bcd60e51b815260206004820152602e60248201527f496e697469616c697a61626c653a20636f6e747261637420697320616c72656160448201527f647920696e697469616c697a6564000000000000000000000000000000000000606482015260840162000564565b6000805460ff19166001179055801562000ae0576000805461ff0019166101001790555b62000aea62001498565b62000af58462001446565b606780546001600160a01b038086166001600160a01b0319928316179092556066805492851692909116919091179055801562000b6c576000805461ff0019169055604051600181527f7f26b83ff96e1f2b6a682f133852f6798a09c465da95921460cefb38474024989060200160405180910390a15b50505050565b60005b815181101562000cd157600082828151811062000b965762000b9662001aca565b602090810291909101810151606654604080516001600160a01b03928316602480830191909152825180830390910181526044909101825293840180517bffffffffffffffffffffffffffffffffffffffffffffffffffffffff167f3659cfe6000000000000000000000000000000000000000000000000000000001790525191169162000c249162001b32565b6000604051808303816000865af19150503d806000811462000c63576040519150601f19603f3d011682016040523d82523d6000602084013e62000c68565b606091505b505090508062000cbb5760405162461bcd60e51b815260206004820152601660248201527f526f757465723a2055706772616465204661696c656400000000000000000000604482015260640162000564565b508062000cc88162001b16565b91505062000b75565b5050565b62000cdf620013ea565b6001600160a01b03811662000d5d5760405162461bcd60e51b815260206004820152602660248201527f4f776e61626c653a206e6577206f776e657220697320746865207a65726f206160448201527f6464726573730000000000000000000000000000000000000000000000000000606482015260840162000564565b62000d688162001446565b50565b604080516bffffffffffffffffffffffff1960608d811b8216602080850191909152908d901b90911660348301526001600160a01b031960a08c811b821660488501527fffffff000000000000000000000000000000000000000000000000000000000060e88d901b1660548501528a811b8216605785015289811b8216606385015288901b16606f830152607b80830187905283518084039091018152609b909201909252805191012060009062000eb7816040518060200162000e3090620015c9565b601f1982820381018352601f909101166040528562000e5b576066546001600160a01b031662000e5d565b865b604080516020808201835260008252915162000e7b93920162001a18565b60408051601f198184030181529082905262000e9b929160200162001a5d565b604051602081830303815290604052805190602001206200150f565b9c9b505050505050505050505050565b600080826001600160a01b0316846001600160a01b03161162000eec57838362000eef565b82845b909590945092505050565b60008347101562000f4e5760405162461bcd60e51b815260206004820152601d60248201527f437265617465323a20696e73756666696369656e742062616c616e6365000000604482015260640162000564565b815160000362000fa15760405162461bcd60e51b815260206004820181905260248201527f437265617465323a2062797465636f6465206c656e677468206973207a65726f604482015260640162000564565b8282516020840186f590506001600160a01b038116620010045760405162461bcd60e51b815260206004820152601960248201527f437265617465323a204661696c6564206f6e206465706c6f7900000000000000604482015260640162000564565b9392505050565b6001600160a01b0381811660008181526065602052604090819020805460ff191660011790555163095ea7b360e01b8152600481019190915260001960248201529084169063095ea7b3906044016020604051808303816000875af115801562001079573d6000803e3d6000fd5b505050506040513d601f19601f820116820180604052508101906200109f919062001aaa565b5060405163095ea7b360e01b81526001600160a01b038281166004830152600019602483015283169063095ea7b3906044016020604051808303816000875af1158015620010f1573d6000803e3d6000fd5b505050506040513d601f19601f8201168201806040525081019062001117919062001aaa565b506067546040517f01aef3490000000000000000000000000000000000000000000000000000000081526001600160a01b038381166004830152909116906301aef34990602401600060405180830381600087803b1580156200117957600080fd5b505af11580156200118e573d6000803e3d6000fd5b5050604080516001600160a01b038781168252868116602083015285168183015290517fb313430391c48e1ec63b9cf14dcd61b818b9ae83982f1d4e0e0ad01147af5cd09350908190036060019150a1505050565b600082620012ee57816001600160a01b031663962f7f916040518163ffffffff1660e01b8152600401602060405180830381865afa1580156200122a573d6000803e3d6000fd5b505050506040513d601f19601f8201168201806040525081019062001250919062001a90565b6200125d90600a62001c4d565b826001600160a01b03166308c8120e6040518163ffffffff1660e01b8152600401602060405180830381865afa1580156200129c573d6000803e3d6000fd5b505050506040513d601f19601f82011682018060405250810190620012c2919062001c5b565b620012dc906bffffffffffffffffffffffff168662001c7b565b620012e8919062001c95565b620013e2565b816001600160a01b0316637b6966cb6040518163ffffffff1660e01b8152600401602060405180830381865afa1580156200132d573d6000803e3d6000fd5b505050506040513d601f19601f8201168201806040525081019062001353919062001a90565b6200136090600a62001c4d565b826001600160a01b03166308ea5bee6040518163ffffffff1660e01b8152600401602060405180830381865afa1580156200139f573d6000803e3d6000fd5b505050506040513d601f19601f82011682018060405250810190620013c5919062001cb8565b620013d69062ffffff168662001c7b565b620013e2919062001c95565b949350505050565b6033546001600160a01b03163314620009c15760405162461bcd60e51b815260206004820181905260248201527f4f776e61626c653a2063616c6c6572206973206e6f7420746865206f776e6572604482015260640162000564565b603380546001600160a01b038381166001600160a01b0319831681179093556040519116919082907f8be0079c531659141344cd1fd0a4f28419497f9722a3daafe3b4186f6b6457e090600090a35050565b600054610100900460ff16620015055760405162461bcd60e51b815260206004820152602b60248201527f496e697469616c697a61626c653a20636f6e7472616374206973206e6f74206960448201526a6e697469616c697a696e6760a81b606482015260840162000564565b620009c162001527565b60006200151e8383306200159f565b90505b92915050565b600054610100900460ff16620015945760405162461bcd60e51b815260206004820152602b60248201527f496e697469616c697a61626c653a20636f6e7472616374206973206e6f74206960448201526a6e697469616c697a696e6760a81b606482015260840162000564565b620009c13362001446565b6000604051836040820152846020820152828152600b8101905060ff815360559020949350505050565b61075b8062001cd983390190565b80356001600160a01b0381168114620015ef57600080fd5b919050565b6bffffffffffffffffffffffff8116811462000d6857600080fd5b62ffffff8116811462000d6857600080fd5b600080600080600080600080610100898b0312156200163f57600080fd5b6200164a89620015d7565b97506200165a60208a01620015d7565b965060408901356200166c81620015f4565b955060608901356200167e816200160f565b945060808901356200169081620015f4565b935060a0890135620016a281620015f4565b925060c0890135620016b481620015f4565b8092505060e089013590509295985092959890939650565b60008083601f840112620016df57600080fd5b50813567ffffffffffffffff811115620016f857600080fd5b6020830191508360208260051b85010111156200171457600080fd5b9250929050565b60008060008060008060008060c0898b0312156200173857600080fd5b883567ffffffffffffffff808211156200175157600080fd5b6200175f8c838d01620016cc565b909a50985060208b01359150808211156200177957600080fd5b50620017888b828c01620016cc565b90975095506200179d905060408a01620015d7565b9350620017ad60608a01620015d7565b92506080890135915060a089013590509295985092959890939650565b600060208284031215620017dd57600080fd5b6200151e82620015d7565b600080600060608486031215620017fe57600080fd5b6200180984620015d7565b92506200181960208501620015d7565b91506200182960408501620015d7565b90509250925092565b634e487b7160e01b600052604160045260246000fd5b600060208083850312156200185c57600080fd5b823567ffffffffffffffff808211156200187557600080fd5b818501915085601f8301126200188a57600080fd5b8135818111156200189f576200189f62001832565b8060051b604051601f19603f83011681018181108582111715620018c757620018c762001832565b604052918252848201925083810185019188831115620018e657600080fd5b938501935b828510156200050857620018ff85620015d7565b84529385019392850192620018eb565b801515811462000d6857600080fd5b6000806000806000806000806000806101408b8d0312156200193f57600080fd5b6200194a8b620015d7565b99506200195a60208c01620015d7565b985060408b01356200196c81620015f4565b975060608b01356200197e816200160f565b965060808b01356200199081620015f4565b955060a08b0135620019a281620015f4565b945060c08b0135620019b481620015f4565b935060e08b01359250620019cc6101008c01620015d7565b91506101208b0135620019df816200190f565b809150509295989b9194979a5092959850565b60005b8381101562001a0f578181015183820152602001620019f5565b50506000910152565b6001600160a01b0383168152604060208201526000825180604084015262001a48816060850160208701620019f2565b601f01601f1916919091016060019392505050565b6000835162001a71818460208801620019f2565b83519083019062001a87818360208801620019f2565b01949350505050565b60006020828403121562001aa357600080fd5b5051919050565b60006020828403121562001abd57600080fd5b815162001004816200190f565b634e487b7160e01b600052603260045260246000fd5b60006020828403121562001af357600080fd5b813562001004816200190f565b634e487b7160e01b600052601160045260246000fd5b60006001820162001b2b5762001b2b62001b00565b5060010190565b6000825162001b46818460208701620019f2565b9190910192915050565b600181815b8085111562001b9157816000190482111562001b755762001b7562001b00565b8085161562001b8357918102915b93841c939080029062001b55565b509250929050565b60008262001baa5750600162001521565b8162001bb95750600062001521565b816001811462001bd2576002811462001bdd5762001bfd565b600191505062001521565b60ff84111562001bf15762001bf162001b00565b50506001821b62001521565b5060208310610133831016604e8410600b841016171562001c22575081810a62001521565b62001c2e838362001b50565b806000190482111562001c455762001c4562001b00565b029392505050565b60006200151e838362001b99565b60006020828403121562001c6e57600080fd5b81516200100481620015f4565b808202811582820484141762001521576200152162001b00565b60008262001cb357634e487b7160e01b600052601260045260246000fd5b500490565b60006020828403121562001ccb57600080fd5b815162001004816200160f56fe608060405260405161075b38038061075b83398101604081905261002291610319565b61002e82826000610035565b5050610436565b61003e8361006b565b60008251118061004b5750805b156100665761006483836100ab60201b6100291760201c565b505b505050565b610074816100d7565b6040516001600160a01b038216907fbc7cd75a20ee27fd9adebab32041f755214dbc6bffa90cc0225b39da2e5c2d3b90600090a250565b60606100d08383604051806060016040528060278152602001610734602791396101a9565b9392505050565b6100ea8161022260201b6100551760201c565b6101515760405162461bcd60e51b815260206004820152602d60248201527f455243313936373a206e657720696d706c656d656e746174696f6e206973206e60448201526c1bdd08184818dbdb9d1c9858dd609a1b60648201526084015b60405180910390fd5b806101887f360894a13ba1a3210667c828492db98dca3e2076cc3735a920a3ca505d382bbc60001b61023160201b6100711760201c565b80546001600160a01b0319166001600160a01b039290921691909117905550565b6060600080856001600160a01b0316856040516101c691906103e7565b600060405180830381855af49150503d8060008114610201576040519150601f19603f3d011682016040523d82523d6000602084013e610206565b606091505b50909250905061021886838387610234565b9695505050505050565b6001600160a01b03163b151590565b90565b606083156102a357825160000361029c576001600160a01b0385163b61029c5760405162461bcd60e51b815260206004820152601d60248201527f416464726573733a2063616c6c20746f206e6f6e2d636f6e74726163740000006044820152606401610148565b50816102ad565b6102ad83836102b5565b949350505050565b8151156102c55781518083602001fd5b8060405162461bcd60e51b81526004016101489190610403565b634e487b7160e01b600052604160045260246000fd5b60005b838110156103105781810151838201526020016102f8565b50506000910152565b6000806040838503121561032c57600080fd5b82516001600160a01b038116811461034357600080fd5b60208401519092506001600160401b038082111561036057600080fd5b818501915085601f83011261037457600080fd5b815181811115610386576103866102df565b604051601f8201601f19908116603f011681019083821181831017156103ae576103ae6102df565b816040528281528860208487010111156103c757600080fd5b6103d88360208301602088016102f5565b80955050505050509250929050565b600082516103f98184602087016102f5565b9190910192915050565b60208152600082518060208401526104228160408501602087016102f5565b601f01601f19169190910160400192915050565b6102ef806104456000396000f3fe60806040523661001357610011610017565b005b6100115b610027610022610074565b6100b9565b565b606061004e8383604051806060016040528060278152602001610293602791396100dd565b9392505050565b73ffffffffffffffffffffffffffffffffffffffff163b151590565b90565b60006100b47f360894a13ba1a3210667c828492db98dca3e2076cc3735a920a3ca505d382bbc5473ffffffffffffffffffffffffffffffffffffffff1690565b905090565b3660008037600080366000845af43d6000803e8080156100d8573d6000f35b3d6000fd5b60606000808573ffffffffffffffffffffffffffffffffffffffff16856040516101079190610243565b600060405180830381855af49150503d8060008114610142576040519150601f19603f3d011682016040523d82523d6000602084013e610147565b606091505b509150915061015886838387610162565b9695505050505050565b606083156101e35782516000036101dc5773ffffffffffffffffffffffffffffffffffffffff85163b6101dc5760405162461bcd60e51b815260206004820152601d60248201527f416464726573733a2063616c6c20746f206e6f6e2d636f6e747261637400000060448201526064015b60405180910390fd5b50816101ed565b6101ed83836101f5565b949350505050565b8151156102055781518083602001fd5b8060405162461bcd60e51b81526004016101d3919061025f565b60005b8381101561023a578181015183820152602001610222565b50506000910152565b6000825161025581846020870161021f565b9190910192915050565b602081526000825180602084015261027e81604085016020870161021f565b601f01601f1916919091016040019291505056fe416464726573733a206c6f772d6c6576656c2064656c65676174652063616c6c206661696c6564a26469706673582212204d4151f1c7a852f8cd2cbafd708466c393ebb778872d08070ce5b5cebb87c0a464736f6c63430008110033416464726573733a206c6f772d6c6576656c2064656c65676174652063616c6c206661696c6564a2646970667358221220c9073fc25aa5e0e5e2a85bddb340ea054f3411863a795304014b1845e7e0de1c64736f6c63430008110033",
  "linkReferences": {},
  "deployedLinkReferences": {}
}