{
  "_format": "hh-sol-artifact-1",
  "contractName": "Router",
  "sourceName": "contracts/Router.sol",
  "abi": [
    {
      "inputs": [],
      "stateMutability": "nonpayable",
      "type": "constructor"
    },
    {
      "inputs": [],
      "name": "AlreadyInitialized",
      "type": "error"
    },
    {
      "inputs": [],
      "name": "InvalidInitialization",
      "type": "error"
    },
    {
      "inputs": [],
      "name": "NewOwnerIsZeroAddress",
      "type": "error"
    },
    {
      "inputs": [],
      "name": "NoHandoverRequest",
      "type": "error"
    },
    {
      "inputs": [],
      "name": "NotInitializing",
      "type": "error"
    },
    {
      "inputs": [],
      "name": "Unauthorized",
      "type": "error"
    },
    {
      "inputs": [],
      "name": "UnauthorizedCallContext",
      "type": "error"
    },
    {
      "inputs": [],
      "name": "UpgradeFailed",
      "type": "error"
    },
    {
      "anonymous": false,
      "inputs": [
        {
          "indexed": false,
          "internalType": "uint64",
          "name": "version",
          "type": "uint64"
        }
      ],
      "name": "Initialized",
      "type": "event"
    },
    {
      "anonymous": false,
      "inputs": [
        {
          "indexed": false,
          "internalType": "address",
          "name": "baseAsset",
          "type": "address"
        },
        {
          "indexed": false,
          "internalType": "address",
          "name": "quoteAsset",
          "type": "address"
        },
        {
          "indexed": false,
          "internalType": "address",
          "name": "market",
          "type": "address"
        },
        {
          "indexed": false,
          "internalType": "address",
          "name": "vaultAddress",
          "type": "address"
        },
        {
          "indexed": false,
          "internalType": "uint24",
          "name": "pricePrecision",
          "type": "uint24"
        },
        {
          "indexed": false,
          "internalType": "uint96",
          "name": "sizePrecision",
          "type": "uint96"
        },
        {
          "indexed": false,
          "internalType": "uint24",
          "name": "tickSize",
          "type": "uint24"
        },
        {
          "indexed": false,
          "internalType": "uint96",
          "name": "minSize",
          "type": "uint96"
        },
        {
          "indexed": false,
          "internalType": "uint96",
          "name": "maxSize",
          "type": "uint96"
        },
        {
          "indexed": false,
          "internalType": "uint256",
          "name": "takerFeeBps",
          "type": "uint256"
        },
        {
          "indexed": false,
          "internalType": "uint256",
          "name": "makerFeeBps",
          "type": "uint256"
        }
      ],
      "name": "MarketRegistered",
      "type": "event"
    },
    {
      "anonymous": false,
      "inputs": [
        {
          "indexed": true,
          "internalType": "address",
          "name": "pendingOwner",
          "type": "address"
        }
      ],
      "name": "OwnershipHandoverCanceled",
      "type": "event"
    },
    {
      "anonymous": false,
      "inputs": [
        {
          "indexed": true,
          "internalType": "address",
          "name": "pendingOwner",
          "type": "address"
        }
      ],
      "name": "OwnershipHandoverRequested",
      "type": "event"
    },
    {
      "anonymous": false,
      "inputs": [
        {
          "indexed": true,
          "internalType": "address",
          "name": "oldOwner",
          "type": "address"
        },
        {
          "indexed": true,
          "internalType": "address",
          "name": "newOwner",
          "type": "address"
        }
      ],
      "name": "OwnershipTransferred",
      "type": "event"
    },
    {
      "anonymous": false,
      "inputs": [
        {
          "indexed": true,
          "internalType": "address",
          "name": "implementation",
          "type": "address"
        }
      ],
      "name": "Upgraded",
      "type": "event"
    },
    {
      "inputs": [
        {
          "internalType": "address[]",
          "name": "_marketAddresses",
          "type": "address[]"
        },
        {
          "internalType": "bool[]",
          "name": "_isBuy",
          "type": "bool[]"
        },
        {
          "internalType": "bool[]",
          "name": "_nativeSend",
          "type": "bool[]"
        },
        {
          "internalType": "address",
          "name": "_debitToken",
          "type": "address"
        },
        {
          "internalType": "address",
          "name": "_creditToken",
          "type": "address"
        },
        {
          "internalType": "uint256",
          "name": "_amount",
          "type": "uint256"
        },
        {
          "internalType": "uint256",
          "name": "_minAmountOut",
          "type": "uint256"
        }
      ],
      "name": "anyToAnySwap",
      "outputs": [
        {
          "internalType": "uint256",
          "name": "_amountOut",
          "type": "uint256"
        }
      ],
      "stateMutability": "payable",
      "type": "function"
    },
    {
      "inputs": [],
      "name": "cancelOwnershipHandover",
      "outputs": [],
      "stateMutability": "payable",
      "type": "function"
    },
    {
      "inputs": [
        {
          "internalType": "address",
          "name": "pendingOwner",
          "type": "address"
        }
      ],
      "name": "completeOwnershipHandover",
      "outputs": [],
      "stateMutability": "payable",
      "type": "function"
    },
    {
      "inputs": [
        {
          "internalType": "address",
          "name": "_baseAssetAddress",
          "type": "address"
        },
        {
          "internalType": "address",
          "name": "_quoteAssetAddress",
          "type": "address"
        },
        {
          "internalType": "uint96",
          "name": "_sizePrecision",
          "type": "uint96"
        },
        {
          "internalType": "uint24",
          "name": "_pricePrecision",
          "type": "uint24"
        },
        {
          "internalType": "uint24",
          "name": "_tickSize",
          "type": "uint24"
        },
        {
          "internalType": "uint96",
          "name": "_minSize",
          "type": "uint96"
        },
        {
          "internalType": "uint96",
          "name": "_maxSize",
          "type": "uint96"
        },
        {
          "internalType": "uint256",
          "name": "_takerFeeBps",
          "type": "uint256"
        },
        {
          "internalType": "uint256",
          "name": "_makerFeeBps",
          "type": "uint256"
        },
        {
          "internalType": "address",
          "name": "oldImplementation",
          "type": "address"
        },
        {
          "internalType": "bool",
          "name": "old",
          "type": "bool"
        }
      ],
      "name": "computeAddress",
      "outputs": [
        {
          "internalType": "address",
          "name": "proxy",
          "type": "address"
        }
      ],
      "stateMutability": "view",
      "type": "function"
    },
    {
      "inputs": [
        {
          "internalType": "enum IOrderBook.OrderBookType",
          "name": "_type",
          "type": "uint8"
        },
        {
          "internalType": "address",
          "name": "_baseAssetAddress",
          "type": "address"
        },
        {
          "internalType": "address",
          "name": "_quoteAssetAddress",
          "type": "address"
        },
        {
          "internalType": "uint96",
          "name": "_sizePrecision",
          "type": "uint96"
        },
        {
          "internalType": "uint24",
          "name": "_pricePrecision",
          "type": "uint24"
        },
        {
          "internalType": "uint24",
          "name": "_tickSize",
          "type": "uint24"
        },
        {
          "internalType": "uint96",
          "name": "_minSize",
          "type": "uint96"
        },
        {
          "internalType": "uint96",
          "name": "_maxSize",
          "type": "uint96"
        },
        {
          "internalType": "uint256",
          "name": "_takerFeeBps",
          "type": "uint256"
        },
        {
          "internalType": "uint256",
          "name": "_makerFeeBps",
          "type": "uint256"
        },
        {
          "internalType": "uint96",
          "name": "_kuruAmmSpread",
          "type": "uint96"
        }
      ],
      "name": "deployProxy",
      "outputs": [
        {
          "internalType": "address",
          "name": "proxy",
          "type": "address"
        }
      ],
      "stateMutability": "nonpayable",
      "type": "function"
    },
    {
      "inputs": [
        {
          "internalType": "address",
          "name": "_owner",
          "type": "address"
        },
        {
          "internalType": "address",
          "name": "_marginAccount",
          "type": "address"
        },
        {
          "internalType": "address",
          "name": "_implementation",
          "type": "address"
        }
      ],
      "name": "initialize",
      "outputs": [],
      "stateMutability": "nonpayable",
      "type": "function"
    },
    {
      "inputs": [],
      "name": "owner",
      "outputs": [
        {
          "internalType": "address",
          "name": "result",
          "type": "address"
        }
      ],
      "stateMutability": "view",
      "type": "function"
    },
    {
      "inputs": [
        {
          "internalType": "address",
          "name": "pendingOwner",
          "type": "address"
        }
      ],
      "name": "ownershipHandoverExpiresAt",
      "outputs": [
        {
          "internalType": "uint256",
          "name": "result",
          "type": "uint256"
        }
      ],
      "stateMutability": "view",
      "type": "function"
    },
    {
      "inputs": [],
      "name": "proxiableUUID",
      "outputs": [
        {
          "internalType": "bytes32",
          "name": "",
          "type": "bytes32"
        }
      ],
      "stateMutability": "view",
      "type": "function"
    },
    {
      "inputs": [],
      "name": "renounceOwnership",
      "outputs": [],
      "stateMutability": "payable",
      "type": "function"
    },
    {
      "inputs": [],
      "name": "requestOwnershipHandover",
      "outputs": [],
      "stateMutability": "payable",
      "type": "function"
    },
    {
      "inputs": [
        {
          "internalType": "address",
          "name": "newOwner",
          "type": "address"
        }
      ],
      "name": "transferOwnership",
      "outputs": [],
      "stateMutability": "payable",
      "type": "function"
    },
    {
      "inputs": [
        {
          "internalType": "address",
          "name": "newImplementation",
          "type": "address"
        }
      ],
      "name": "upgradeImplementation",
      "outputs": [],
      "stateMutability": "nonpayable",
      "type": "function"
    },
    {
      "inputs": [
        {
          "internalType": "address[]",
          "name": "proxies",
          "type": "address[]"
        }
      ],
      "name": "upgradeMultipleProxies",
      "outputs": [],
      "stateMutability": "nonpayable",
      "type": "function"
    },
    {
      "inputs": [
        {
          "internalType": "address",
          "name": "newImplementation",
          "type": "address"
        },
        {
          "internalType": "bytes",
          "name": "data",
          "type": "bytes"
        }
      ],
      "name": "upgradeToAndCall",
      "outputs": [],
      "stateMutability": "payable",
      "type": "function"
    },
    {
      "inputs": [
        {
          "internalType": "address",
          "name": "",
          "type": "address"
        }
      ],
      "name": "verifiedMarket",
      "outputs": [
        {
          "internalType": "uint24",
          "name": "pricePrecision",
          "type": "uint24"
        },
        {
          "internalType": "uint96",
          "name": "sizePrecision",
          "type": "uint96"
        },
        {
          "internalType": "address",
          "name": "baseAssetAddress",
          "type": "address"
        },
        {
          "internalType": "uint256",
          "name": "baseAssetDecimals",
          "type": "uint256"
        },
        {
          "internalType": "address",
          "name": "quoteAssetAddress",
          "type": "address"
        },
        {
          "internalType": "uint256",
          "name": "quoteAssetDecimals",
          "type": "uint256"
        },
        {
          "internalType": "uint24",
          "name": "tickSize",
          "type": "uint24"
        },
        {
          "internalType": "uint96",
          "name": "minSize",
          "type": "uint96"
        },
        {
          "internalType": "uint96",
          "name": "maxSize",
          "type": "uint96"
        },
        {
          "internalType": "uint256",
          "name": "takerFeeBps",
          "type": "uint256"
        },
        {
          "internalType": "uint256",
          "name": "makerFeeBps",
          "type": "uint256"
        }
      ],
      "stateMutability": "view",
      "type": "function"
    },
    {
      "stateMutability": "payable",
      "type": "receive"
    }
  ],
  "bytecode": "0x60a08060405234609a573060805263409feecd195460018116608c5760011c6002600160401b0319016048575b6149a390816100a082396080518181816114a901526115470152f35b6002600160411b0363409feecd19556001600160401b0360209081527fc7f505b2f371ae2175ee4913f4499e1f2633a7b5936321eed1cdaeb6115181d29080a1602c565b63f92ee8a96000526004601cfd5b600080fdfe60c0604052600436101561001b575b361561001957600080fd5b005b6000803560e01c80631b1b9e711461166e57806325692962146116235780634f1ef286146114f257806352d1902d1461149557806354d1f13d1461144f5780635f71a07c14611384578063715018a61461134757806383f94db7146112fd5780638da5cb5b146112d0578063c0c53b8b146111bc578063dd44783e1461105b578063f04e283e1461100d578063f2fde38b14610fce578063f5d80e571461066c578063fee81cf4146106395763ffa5210a146100d7575061000e565b60e0366003190112610490576004356001600160401b038111610635576101029036906004016118c4565b906024356001600160401b038111610631576101229036906004016118c4565b92906044356001600160401b03811161062d576101439036906004016118c4565b60643595909491906001600160a01b038716870361062957608435956001600160a01b038716958688036106255760a435908a99600182106105e05761018a8286146119b7565b6101958285146119b7565b83156105cc576101a486611a29565b1561057c575b509594939291908a905b8782106102da578b8b8b8b60c4358310610284571561021457826044601082602094336014528660345263a9059cbb60601b82525af13d156001845114171615610207576020916034525b604051908152f35b6390b8ec1882526004601cfd5b509080808084335af1610225611952565b5015610233576020906101ff565b60405162461bcd60e51b815260206004820152602360248201527f526f757465723a204e61746976652066756e64207472616e73666572206661696044820152621b195960ea1b6064820152608490fd5b60405162461bcd60e51b815260206004820152602860248201527f526f757465723a20536c69707061676520657863656564732065787065637465604482015267642076616c75652160c01b6064820152608490fd5b9091929394959699506102ee828b88611a03565b356001600160a01b0381169081900361057857808c528b60205260408c209060405161031981611871565b82549062ffffff8216938482526001600160601b03602083019360181c16835260018060a01b0360018201541660408301526002810154946060830195865260018060a01b036003830154166080840152600760048301549260a085019384526001600160601b03600582015462ffffff811660c0880152818160181c1660e088015260781c166101008601526006810154610120860152015461014084015215610539578f91958c966020966044956103f36103e28f8f8f8f92836103e7926103e292611a03565b611a29565b1561053257879d611a03565b156104a55750506104176104239362ffffff95938661041d94511691519450611b5d565b91611b86565b90611b94565b166040519485938492630aaa7ef760e21b84526004840152600160248401525af190811561049a578b91610464575b50985b959493929190600101896101b4565b905060203d8111610493575b61047a81836118a3565b6020826000928101031261049057505138610452565b80fd5b503d610470565b6040513d8d823e3d90fd5b5190516001600160601b0395506104c994509261041d925061041791861690611b5d565b166040519485938492636571177360e11b84526004840152600160248401525af190811561049a578b916104ff575b5098610455565b905060203d811161052b575b61051581836118a3565b60208260009281010312610490575051386104f8565b503d61050b565b899d611a03565b60405162461bcd60e51b8152602060048201526017602482015276526f757465723a20496e76616c6964206d61726b65742160481b6044820152606490fd5b8b80fd5b60208c6064601c826040519588606052306040523360601b602c526323b872dd60601b600c525af18c516001143d151716156105bf578b606052604052386101aa565b637939f4248c526004601cfd5b634e487b7160e01b8c52603260045260248cfd5b60405162461bcd60e51b815260206004820152601b60248201527f526f757465723a204e6f206d61726b65747320696e20696e70757400000000006044820152606490fd5b8980fd5b8780fd5b8580fd5b8380fd5b5080fd5b503461049057602036600319011261049057610653611802565b9063389a75e1600c5252602080600c2054604051908152f35b50346104905761016036600319011261049057600360043510156104905761069261181d565b9061069b611833565b906064356001600160601b0381168103610635576106b761185f565b9060a4359162ffffff83168303610631576106d0611849565b9360e435956001600160601b03871687036106355761014435916001600160601b0383168303610490576001600160a01b0389811690831614610f7557600435600103610f69576107a1610740825b600435600203610f625783905b8b8b8b8a8c61012435966101043596611a36565b60405161075260206103f601826118a3565b6103f681526103f6611bb56020830139600154602060a08190526040516107f4926001600160a01b0316916107af919061078c90826118a3565b87815260405196879160a05183019485611917565b03601f1981018752866118a3565b6040519485916107e060206107cf60a051860197888151938492016118f4565b84019251809260a0518501906118f4565b60a05191010103601f1981018552846118a3565b825115610f1c5791516001600160a01b039284f51660805260805115610eda57600254604051906001600160a01b03166001600160401b03612983830190811190831117610ec657612983611fab83396001600160a01b038b8116612983840190815260a08051928716928201929092526040810192909252608080516060840152600a6001600160601b0388811691909104169083015260e0908201819052810183905261010060c082018190528101839052819003610120019082f0928315610eb957600435600103610e415760125b600435600203610dd7576012915b638b78c6d8195490600435600103610dd157845b600435600203610dcb57855b60018060a01b0360025416916080513b1561062957906001600160601b039392916040519563137fc7bb60e01b875260018060a01b03166004870152600435602487015260018060a01b0316604486015285606486015260018060a01b031660848501528560a485015260c4840152818a1660e484015262ffffff891661010484015262ffffff8b16610124840152818c16610144840152818d1661016484015261010435610184840152610124356101a484015260018060a01b0388166101c4840152166101e4820152838161020481836080515af18015610dc057610dac575b508a888b8b604051956109e887611871565b62ffffff8b16875260a0518701956001600160601b038d1687526040880195600160a01b60019003168652606088019081526080880190600160a01b600190038b16825260a0890192835260c089019562ffffff16865260e08901936001600160601b031684526101008901946001600160601b031685526101208901966101043588526101408a0198610124358a526080518c528b60a0515260408c209a5162ffffff1662ffffff1662ffffff198c5416178b55516001600160601b0316610ab1908b611991565b5160018a0180546001600160a01b03199081166001600160a01b0393841617909155915160028b0155915160038a0180549092169216919091179055516004870155915160058601805462ffffff191662ffffff9092169190911781559151610b23906001600160601b031683611991565b5181546bffffffffffffffffffffffff60781b191660789190911b6bffffffffffffffffffffffff60781b16179055516006830155516007909101556001600160a01b0383163b1561049057604051637660b15360e01b81528181600481836001600160a01b0389165af18015610cb657908291610d97575b5050600160043503610d34575b600260043503610cc1575b6002546001600160a01b0316803b15610635578180916024604051809481936301aef34960e01b835260805160048401525af18015610cb657610ca1575b507f92ee278e6bf2d58d3b79e210ec88c3ff0e34675019dc45311f30d16259e327a06101608a6001600160601b038b818c62ffffff8d838e838f8f8f6040519c60018060a01b03168d5260018060a01b031660a0518d015260805160408d015260018060a01b031660608c01521660808a01521660a08801521660c08601521660e0840152166101008201526101043561012082015261012435610140820152a1604051608051815260a05190f35b610cac8280926118a3565b6104905780610bf2565b6040513d84823e3d90fd5b60405163095ea7b360e01b81526080516004820152600019602482015260a05181604481856001600160a01b0388165af18015610cb657610d03575b50610bb4565b610d269060a0513d60a05111610d2d575b610d1e81836118a3565b810190611b45565b5038610cfd565b503d610d14565b60405163095ea7b360e01b81526080516004820152600019602482015260a05181604481856001600160a01b038f165af18015610cb657610d76575b50610ba9565b610d909060a0513d60a05111610d2d57610d1e81836118a3565b5038610d70565b81610da1916118a3565b610490578038610b9c565b83610db9919492946118a3565b91386109d6565b6040513d86823e3d90fd5b866108f4565b8c6108e8565b60405163313ce56760e01b815260a05181600481876001600160a01b038a165af1908115610dc0578491610e0d575b50916108d4565b905060a0513d60a05111610e3a575b610e2681836118a3565b8160a0519181010312610631575138610e06565b503d610e1c565b60405163313ce56760e01b81528a816004818660a0519460018060a01b03165af1908115610eae578391610e76575b506108c6565b905060a0513d60a05111610ea7575b610e8f81836118a3565b8160a0519181010312610ea3575138610e70565b8280fd5b503d610e85565b6040513d85823e3d90fd5b50604051903d90823e3d90fd5b634e487b7160e01b83526041600452602483fd5b60405162461bcd60e51b815260a05160048201526019602482015278437265617465323a204661696c6564206f6e206465706c6f7960381b6044820152606490fd5b60405162461bcd60e51b815260a0805160048301525160248201527f437265617465323a2062797465636f6465206c656e677468206973207a65726f6044820152606490fd5b849061072c565b6107a16107408a61071f565b60405162461bcd60e51b815260206004820152602b60248201527f526f757465723a204261736520616e642071756f74652061737365747320617260448201526a65207468652073616d652160a81b6064820152608490fd5b50602036600319011261049057610fe3611802565b610feb611af6565b8060601b1561100057610ffd90611b13565b80f35b637448fbae82526004601cfd5b50602036600319011261049057611022611802565b61102a611af6565b63389a75e1600c528082526020600c208054421161104e579082610ffd9255611b13565b636f5e881883526004601cfd5b503461049057602036600319011261049057600435906001600160401b0382116104905736602383011215610490578160040135916001600160401b0383116111a8578260051b90604051936110b460208401866118a3565b8452602460208501928201019036821161063157602401915b81831061118457505050805b825181101561118057818060018060a01b0360208460051b870101511660018060a01b0360015416826040516020810192631b2ce7f360e11b84526024820152602481526111286044826118a3565b51925af1611134611952565b5015611142576001016110d9565b60405162461bcd60e51b8152602060048201526016602482015275149bdd5d195c8e88155c19dc9859194811985a5b195960521b6044820152606490fd5b5080f35b82356001600160a01b03811681036111a4578152602092830192016110cd565b8480fd5b634e487b7160e01b82526041600452602482fd5b5034610490576060366003190112610490576111d6611802565b906111df61181d565b6111e7611833565b63409feecd1991825480600385556112a7575b50638b78c6d8195461129a5782939460018060a01b0316801560ff1b8117638b78c6d819558560008051602061494e8339815191528180a3600280546001600160a01b039283166001600160a01b03199182161790915560018054939092169216919091179055611269575080f35b6002905560016020527fc7f505b2f371ae2175ee4913f4499e1f2633a7b5936321eed1cdaeb6115181d2602080a180f35b630dc149f084526004601cfd5b600181819593951c14303b10156112c35760ff1b1b91386111fa565b63f92ee8a985526004601cfd5b5034610490578060031936011261049057638b78c6d819546040516001600160a01b039091168152602090f35b503461049057602036600319011261049057611317611802565b61131f611af6565b6001546001600160a01b039182169181168214610ea3576001600160a01b0319161760015580f35b50806003193601126104905761135b611af6565b80638b78c6d8195460008051602061494e8339815191528280a3600160ff1b638b78c6d8195580f35b503461049057602036600319011261049057610160906040906001600160a01b036113ad611802565b168152806020522080549060018060a01b03600182015416906001600160601b03600282015460018060a01b036003840154166004840154906005850154926007600687015496015496856040519962ffffff81168b5260181c1660208a015260408901526060880152608087015260a086015262ffffff811660c0860152818160181c1660e086015260781c16610100840152610120830152610140820152f35b50806003193601126104905763389a75e1600c52338152806020600c2055337ffa7b8eab7da67f412cc9575ed43464468f9bfbae89d1675917346ca6d8fe3c928280a280f35b5034610490578060031936011261049057307f0000000000000000000000000000000000000000000000000000000000000000036114e557602060405160008051602061492e8339815191528152f35b639f03a02690526004601cfd5b50604036600319011261049057611507611802565b602435906001600160401b038211610ea35736602383011215610ea3578160040135906001600160401b03821161063157366024838501011161063157307f00000000000000000000000000000000000000000000000000000000000000001461161657611573611af6565b60018060a01b03166352d1902d60015260008051602061492e833981519152602060016004601d855afa5103611608578391817fbc7cd75a20ee27fd9adebab32041f755214dbc6bffa90cc0225b39da2e5c2d3b8480a2808260008051602061492e833981519152556115e4578280f35b806024604051950185378338925af4156115ff578181808280f35b903d90823e3d90fd5b6355299b496001526004601dfd5b639f03a02684526004601cfd5b50806003193601126104905763389a75e1600c523381526202a30042016020600c2055337fdbf36a107da19e49527a7176a1babf963b4b0ff8cde35ee35d6cd8f1f9ac7e1d8280a280f35b50346104905761016036600319011261049057611689611802565b61169161181d565b604435906001600160601b0382168203610631576064359262ffffff841684036111a4576116bd61185f565b60a4356001600160601b03811681036117fe576116d8611849565b61012435969092906001600160a01b03881688036117fa57610144359687151588036106255795605598956117ac956117bc95600b9a95611726956117859e9b610104359660e43596611a36565b946103f6946040519261173c60208801856118a3565b8684526020840196611bb58839156117e8575b61177760209a8b936040519061176586836118a3565b81526040519283918683019586611917565b03601f1981018352826118a3565b60405195869461179d858701998a92519283916118f4565b850191518093858401906118f4565b010103601f1981018352826118a3565b51902090604051916040830152848201523081520160ff8153206040516001600160a01b039091168152f35b506001546001600160a01b031661174f565b8880fd5b8680fd5b600435906001600160a01b038216820361181857565b600080fd5b602435906001600160a01b038216820361181857565b604435906001600160a01b038216820361181857565b60c435906001600160601b038216820361181857565b6084359062ffffff8216820361181857565b61016081019081106001600160401b0382111761188d57604052565b634e487b7160e01b600052604160045260246000fd5b90601f801991011681019081106001600160401b0382111761188d57604052565b9181601f84011215611818578235916001600160401b038311611818576020808501948460051b01011161181857565b60005b8381106119075750506000910152565b81810151838201526020016118f7565b909160609260018060a01b031682526040602083015261194681518092816040860152602086860191016118f4565b601f01601f1916010190565b3d1561198c573d906001600160401b03821161188d5760405191611980601f8201601f1916602001846118a3565b82523d6000602084013e565b606090565b906301000000600160781b0382549160181b16906301000000600160781b031916179055565b156119be57565b60405162461bcd60e51b815260206004820152601d60248201527f526f757465723a2053697a6573206c656e677468206d69736d617463680000006044820152606490fd5b9190811015611a135760051b0190565b634e487b7160e01b600052603260045260246000fd5b3580151581036118185790565b9791969195919491939192906001600160a01b03808216908a161115611af05797965b6040516bffffffffffffffffffffffff1960609a8b1b81166020830190815299909a1b90991660348a01526001600160a01b031960a091821b811660488b01526001600160e81b031960e893841b811660548c01529390921b909216605789015291811b8216605a8801529190911b1660668501526072840152609280840191909152825290611aea60b2826118a3565b51902090565b96611a59565b638b78c6d819543303611b0557565b6382b429006000526004601cfd5b60018060a01b031680638b78c6d8195460008051602061494e833981519152600080a3801560ff1b17638b78c6d81955565b90816020910312611818575180151581036118185790565b81810292918115918404141715611b7057565b634e487b7160e01b600052601160045260246000fd5b604d8111611b7057600a0a90565b8115611b9e570490565b634e487b7160e01b600052601260045260246000fdfe60806040526103f680380380610014816101f7565b9283398101906040818303126101f25780516001600160a01b038116918282036101f2576020810151906001600160401b0382116101f257019183601f840112156101f25782519261006d61006885610232565b6101f7565b938085526020850195602082840101116101f25785602061008e930161024d565b813b15610197577f360894a13ba1a3210667c828492db98dca3e2076cc3735a920a3ca505d382bbc80546001600160a01b031916821790557fbc7cd75a20ee27fd9adebab32041f755214dbc6bffa90cc0225b39da2e5c2d3b600080a281511580159061018f575b610109575b60405160d290816103248239f35b60008061017e9461011a60606101f7565b94602786527f416464726573733a206c6f772d6c6576656c2064656c65676174652063616c6c6020870152660819985a5b195960ca1b60408701525190845af43d15610187573d9161016e61006884610232565b9283523d6000602085013e610270565b503880806100fb565b606091610270565b5060006100f6565b60405162461bcd60e51b815260206004820152602d60248201527f455243313936373a206e657720696d706c656d656e746174696f6e206973206e60448201526c1bdd08184818dbdb9d1c9858dd609a1b6064820152608490fd5b600080fd5b6040519190601f01601f191682016001600160401b0381118382101761021c57604052565b634e487b7160e01b600052604160045260246000fd5b6001600160401b03811161021c57601f01601f191660200190565b60005b8381106102605750506000910152565b8181015183820152602001610250565b919290156102d25750815115610284575090565b3b1561028d5790565b60405162461bcd60e51b815260206004820152601d60248201527f416464726573733a2063616c6c20746f206e6f6e2d636f6e74726163740000006044820152606490fd5b8251909150156102e55750805190602001fd5b6044604051809262461bcd60e51b825260206004830152610315815180928160248601526020868601910161024d565b601f01601f19168101030190fdfe608060405236156055577f360894a13ba1a3210667c828492db98dca3e2076cc3735a920a3ca505d382bbc5460009081906001600160a01b0316368280378136915af43d6000803e156050573d6000f35b3d6000fd5b7f360894a13ba1a3210667c828492db98dca3e2076cc3735a920a3ca505d382bbc5460009081906001600160a01b0316368280378136915af43d6000803e156050573d6000f3fea26469706673582212201a66cf6b11e4b1a3244b82279d4f684794b45c8b8471e509d303cac801f36f2364736f6c634300081a0033610160806040523461061e57612983803803809161001d8285610623565b8339810160e08282031261061e5761003482610646565b61004060208401610646565b61004c60408501610646565b9161005960608601610646565b6080860151959094906001600160601b038716870361061e5760a08101516001600160401b03811161061e578261009191830161065a565b60c08201519092906001600160401b03811161061e576100b1920161065a565b815190916001600160401b03821161051b5760035490600182811c92168015610614575b60208310146104fb5781601f8493116105a4575b50602090601f831160011461053c57600092610531575b50508160011b916000199060031b1c1916176003555b8051906001600160401b03821161051b5760045490600182811c92168015610511575b60208310146104fb5781601f84931161048b575b50602090601f831160011461042357600092610418575b50508160011b916000199060031b1c1916176004555b670de0b6b3a764000060055560808190526001600160a01b03169081158015919061040f5760405163313ce56760e01b8152602081600481875afa801561035b5760ff916000916103f0575b505b1660a05260c08190526001600160a01b0316948515801594906103e75760405163313ce56760e01b81526020816004818b5afa801561035b5760ff916000916103b8575b505b1660e0526001600160a01b0390811661010081905295166101205261014052610367575b506102f3575b60405161228890816106fb8239608051818181610ae301528181610c6a0152611b6e015260a05181505060c051818181610b5b01528181610ed7015281816112fd0152611bd2015260e05181505061010051818181610b0b015281816111b701528181611b4301528181611f70015261203901526101205181818161059101528181610d4f0152818161179601526119ca015261014051818181610d9501528181611021015281816117db01528181611a100152611d2c0152f35b6000916044602092604051948593849263095ea7b360e01b84526004840152811960248401525af1801561035b5761032c575b80610238565b61034d9060203d602011610354575b6103458183610623565b8101906106e2565b5038610326565b503d61033b565b6040513d6000823e3d90fd5b602060009160446040518094819363095ea7b360e01b8352886004840152811960248401525af1801561035b5715610232576103b19060203d602011610354576103458183610623565b5038610232565b6103da915060203d6020116103e0575b6103d28183610623565b8101906106c9565b3861020c565b503d6103c8565b60ff601261020e565b610409915060203d6020116103e0576103d28183610623565b386101c6565b60ff60126101c8565b015190503880610164565b600460009081528281209350601f198516905b818110610473575090846001959493921061045a575b505050811b0160045561017a565b015160001960f88460031b161c1916905538808061044c565b92936020600181928786015181550195019301610436565b60046000529091507f8a35acfbc15ff81a39ae7d344fd709f28e8600b4aa8c65c6b64bfe7fe36bd19b601f840160051c810191602085106104f1575b90601f859493920160051c01905b8181106104e2575061014d565b600081558493506001016104d5565b90915081906104c7565b634e487b7160e01b600052602260045260246000fd5b91607f1691610139565b634e487b7160e01b600052604160045260246000fd5b015190503880610100565b600360009081528281209350601f198516905b81811061058c5750908460019594939210610573575b505050811b01600355610116565b015160001960f88460031b161c19169055388080610565565b9293602060018192878601518155019501930161054f565b60036000529091507fc2575a0e9e593c00f959f8c92f12db2869c3395a3b0502d05e2516446f71f85b601f840160051c8101916020851061060a575b90601f859493920160051c01905b8181106105fb57506100e9565b600081558493506001016105ee565b90915081906105e0565b91607f16916100d5565b600080fd5b601f909101601f19168101906001600160401b0382119082101761051b57604052565b51906001600160a01b038216820361061e57565b81601f8201121561061e578051906001600160401b03821161051b576040519261068e601f8401601f191660200185610623565b8284526020838301011161061e5760005b8281106106b457505060206000918301015290565b8060208092840101518282870101520161069f565b9081602091031261061e575160ff8116810361061e5790565b9081602091031261061e5751801515810361061e579056fe6080604052600436101561001b575b361561001957600080fd5b005b60003560e01c806301e1d114146109ae57806306fdde03146108f0578063095ea7b3146108ca57806318160ddd146108ac57806323b872dd14610874578063313ce567146108585780633950935114610806578063488bd7b0146107cc5780634cdad5061461078f57806370a08231146107555780637660b1531461056a5780637a7af70d146105475780638dbdbe6d1461050f57806394bf804d146104ba57806395d89b41146103b3578063a457c2d71461030c578063a9059cbb146102db578063b3d7f6b9146102a1578063b460af941461020c578063ba0876521461015d5763dd62ed3e0361000e573461015857604036600319011261015857610120610a12565b610128610a28565b6001600160a01b039182166000908152600160209081526040808320949093168252928352819020549051908152f35b600080fd5b346101585761016b36610a54565b60018060a01b0381169182600052600060205260406000205484116101b85760409361019c9333036101a857611906565b82519182526020820152f35b6101b3813385611433565b611906565b60405162461bcd60e51b815260206004820152602660248201527f4b757275414d4d5661756c743a2072656465656d206d6f7265207468616e2062604482015265616c616e636560d01b6064820152608490fd5b346101585761021a36610a54565b60018060a01b03811691826000526000602052604060002054841161024b5760409361019c9333036101a857611906565b60405162461bcd60e51b815260206004820152602860248201527f4b757275414d4d5661756c743a207769746864726177206d6f7265207468616e6044820152672062616c616e636560c01b6064820152608490fd5b346101585760203660031901126101585760406102d161019c6004356102c5610ac6565b93906002549083611eef565b9260025491611eef565b34610158576040366003190112610158576103016102f7610a12565b60243590336114d0565b602060405160018152f35b3461015857604036600319011261015857610325610a12565b60243590336000526001602052604060002060018060a01b03821660005260205260406000205491808310610360576103019203903361132b565b60405162461bcd60e51b815260206004820152602560248201527f45524332303a2064656372656173656420616c6c6f77616e63652062656c6f77604482015264207a65726f60d81b6064820152608490fd5b346101585760003660031901126101585760405160006004548060011c906001811680156104b0575b60208310811461049c578285529081156104785750600114610419575b6104158361040981850382610a8e565b604051918291826109c9565b0390f35b600460009081527f8a35acfbc15ff81a39ae7d344fd709f28e8600b4aa8c65c6b64bfe7fe36bd19b939250905b80821061045e575090915081016020016104096103f9565b919260018160209254838588010152019101909291610446565b60ff191660208086019190915291151560051b8401909101915061040990506103f9565b634e487b7160e01b84526022600452602484fd5b91607f16916103dc565b60403660031901126101585760406104f06104d3610a28565b6105026104fa6004356104e4610ac6565b95906002549083611eef565b9460025491611eef565b918284610c65565b5082519182526020820152f35b6060366003190112610158576044356001600160a01b03811681036101585761053f602091602435600435610c65565b604051908152f35b3461015857602061053f61055a36610a3e565b610562611787565b92905061163d565b3461015857600036600319011261015857604051632432509f60e21b8152610160816004817f00000000000000000000000000000000000000000000000000000000000000006001600160a01b03165afa80156107495760009081928291839184918591868791889389918a91610684575b50906301000000600160781b039291600d55600c5562ffffff600b549116936001600160601b0360781b9060781b169064ffffffffff60d81b16179160181b161717600b55600a5560018060a01b031660018060a01b0319600954161760095560085560018060a01b031660018060a01b031960075416176007556301000000600160781b0362ffffff60065492169260181b169060018060781b0319161717600655600080f35b9a50505050505050505050610160823d8211610741575b816106a96101609383610a8e565b8101031261073e57506106bb81610c2d565b906106c860208201610c3d565b906106d560408201610c51565b926060820151916106e860808201610c51565b9160a0820151916106fb60c08201610c2d565b916301000000600160781b0361071360e08401610c3d565b6107206101008501610c3d565b9261014061012086015195015190999a9897969591939491926105dc565b80fd5b3d915061069b565b6040513d6000823e3d90fd5b34610158576020366003190112610158576001600160a01b03610776610a12565b1660005260006020526020604060002054604051908152f35b34610158576020366003190112610158576040600061019c6004356107c16107b5610ac6565b91906002549084611ecb565b935060025491611ecb565b346101585760206107f66107df36610a3e565b91906107ec6107ec610ac6565b9260025490611eef565b8181109082180218604051908152f35b3461015857604036600319011261015857610301610822610a12565b336000526001602052604060002060018060a01b03821660005260205261085160406000206024359054610c0a565b903361132b565b3461015857600036600319011261015857602060405160128152f35b3461015857606036600319011261015857610301610890610a12565b610898610a28565b604435916108a7833383611433565b6114d0565b34610158576000366003190112610158576020600254604051908152f35b34610158576040366003190112610158576103016108e6610a12565b602435903361132b565b346101585760003660031901126101585760405160006003548060011c906001811680156109a4575b60208310811461049c578285529081156104785750600114610945576104158361040981850382610a8e565b600360009081527fc2575a0e9e593c00f959f8c92f12db2869c3395a3b0502d05e2516446f71f85b939250905b80821061098a575090915081016020016104096103f9565b919260018160209254838588010152019101909291610972565b91607f1691610919565b3461015857600036600319011261015857604061019c610ac6565b91909160208152825180602083015260005b8181106109fc575060409293506000838284010152601f8019910116010190565b80602080928701015160408286010152016109db565b600435906001600160a01b038216820361015857565b602435906001600160a01b038216820361015857565b6040906003190112610158576004359060243590565b606090600319011261015857600435906024356001600160a01b038116810361015857906044356001600160a01b03811681036101585790565b90601f8019910116810190811067ffffffffffffffff821117610ab057604052565b634e487b7160e01b600052604160045260246000fd5b60405163d4fac45d60e01b81523060048201526001600160a01b037f0000000000000000000000000000000000000000000000000000000000000000811660248301527f0000000000000000000000000000000000000000000000000000000000000000169190602081604481865afa90811561074957600091610bd8575b5060405163d4fac45d60e01b81523060048201527f00000000000000000000000000000000000000000000000000000000000000006001600160a01b0316602482015292602090849060449082905afa92831561074957600093610ba857509190565b9092506020813d602011610bd0575b81610bc460209383610a8e565b81010312610158575190565b3d9150610bb7565b90506020813d602011610c02575b81610bf360209383610a8e565b81010312610158575138610b45565b3d9150610be6565b91908201809211610c1757565b634e487b7160e01b600052601160045260246000fd5b519062ffffff8216820361015857565b51906001600160601b038216820361015857565b51906001600160a01b038216820361015857565b9091907f00000000000000000000000000000000000000000000000000000000000000009060006001600160a01b038316158080156112fa575b156112f257156112ec57815b3410155b156112a75784610cbd611787565b6002549092901561111f5750610cfe610ced610cdc6005548588611eef565b610ce7600a54611746565b90611754565b610cf8600854611746565b90611767565b9687116110c857610d1b610d1383898761163d565b809897611f0d565b861561106f57610d3384610d2d611e20565b92610c0a565b8392839060001914610fd5575b604051630445da7b60e51b81527f00000000000000000000000000000000000000000000000000000000000000006001600160a01b0316919060e081600481865afa948515610fca5787918896610f55575b507f00000000000000000000000000000000000000000000000000000000000000006001600160601b038116610dc88782611754565b91602084019283516001600160601b0316610de291611754565b90610dec9061170a565b93606001938451610dfc90611746565b610e0e916001600160601b0316611754565b610e1791611767565b6001600160601b031696610e2a91611754565b90516001600160601b0316610e3e91611754565b9051610e4990611746565b90816107d002916107d0830403610f4157610e6d6001600160601b03928392611767565b169516841190811591610f2d575b50610f1e57813b15610f1a579185608492819594604051978896879563e55bb4e360e01b875260048701526024860152604485015260648401525af18015610f0f5791610ed59391610efc969593610eff575b5050611f59565b7f000000000000000000000000000000000000000000000000000000000000000090611f59565b90565b81610f0991610a8e565b38610ece565b6040513d84823e3d90fd5b8580fd5b636a2628d960e01b8652600486fd5b6001600160601b0391501684111538610e7b565b634e487b7160e01b89526011600452602489fd5b9150945060e0813d60e011610fc2575b81610f7260e09383610a8e565b81010312610fbe57610f8381610c51565b50610f9060408201610c3d565b610fb560c0610fa160808501610c3d565b93610fae60a08201610c3d565b5001610c3d565b50909438610d92565b8680fd5b3d9150610f65565b6040513d89823e3d90fd5b5091506110138261100e611005610ff8610ff26060870151611746565b8b611754565b610cf860a0870151611746565b60055490611754565b611767565b916001600160601b036110457f0000000000000000000000000000000000000000000000000000000000000000611728565b166103e88402816103e88683041486151702156110625704610d40565b63ad251c2786526004601cfd5b60405162461bcd60e51b815260206004820152602b60248201527f4b757275414d4d5661756c743a20494e53554646494349454e545f4c4951554960448201526a1112551657d3525395115160aa1b6064820152608490fd5b60405162461bcd60e51b815260206004820152602960248201527f4b757275414d4d5661756c743a20494e53554646494349454e5420544f4b454e6044820152680814d554141312515160ba1b6064820152608490fd5b959661112b9085611754565b8060018060881b031060071b81811c68ffffffffffffffffff1060061b1781811c64ffffffffff1060051b1781811c62ffffff1060041b1760b56201000083831c019160011c1b0260121c8082040160011c8082040160011c8082040160011c8082040160011c8082040160011c8082040160011c8082040160011c8080920410900360018060a01b037f0000000000000000000000000000000000000000000000000000000000000000168015611262576002546103e8810180911161124e5760025580855284602052604085206103e881540190558460008051602061223383398151915260206040516103e88152a36103e719810190811161123a57806112359198611f0d565b610d1b565b634e487b7160e01b84526011600452602484fd5b634e487b7160e01b86526011600452602486fd5b60405162461bcd60e51b815260206004820152601f60248201527f45524332303a206d696e7420746f20746865207a65726f2061646472657373006044820152606490fd5b60405162461bcd60e51b815260206004820152601e60248201527f4b757275414d4d5661756c743a20696e636f727265637420616d6f756e7400006044820152606490fd5b84610cab565b503415610caf565b507f00000000000000000000000000000000000000000000000000000000000000006001600160a01b031615610c9f565b6001600160a01b03169081156113e2576001600160a01b03169182156113925760207f8c5be1e5ebec7d5bd14f71427d1e84f3dd0314c0f7b2291e5b200ac8c7c3b925918360005260018252604060002085600052825280604060002055604051908152a3565b60405162461bcd60e51b815260206004820152602260248201527f45524332303a20617070726f766520746f20746865207a65726f206164647265604482015261737360f01b6064820152608490fd5b60405162461bcd60e51b8152602060048201526024808201527f45524332303a20617070726f76652066726f6d20746865207a65726f206164646044820152637265737360e01b6064820152608490fd5b9060018060a01b0382166000526001602052604060002060018060a01b038216600052602052604060002054926000198403611470575b50505050565b80841061148b5761148293039161132b565b3880808061146a565b60405162461bcd60e51b815260206004820152601d60248201527f45524332303a20696e73756666696369656e7420616c6c6f77616e63650000006044820152606490fd5b6001600160a01b03169081156115ea576001600160a01b03169182156115995781600052600060205260406000205481811061154557816000805160206122338339815191529260209285600052600084520360406000205584600052600082526040600020818154019055604051908152a3565b60405162461bcd60e51b815260206004820152602660248201527f45524332303a207472616e7366657220616d6f756e7420657863656564732062604482015265616c616e636560d01b6064820152608490fd5b60405162461bcd60e51b815260206004820152602360248201527f45524332303a207472616e7366657220746f20746865207a65726f206164647260448201526265737360e81b6064820152608490fd5b60405162461bcd60e51b815260206004820152602560248201527f45524332303a207472616e736665722066726f6d20746865207a65726f206164604482015264647265737360d81b6064820152608490fd5b82611646610ac6565b9190611650611e20565b9561165a91611754565b9160a0860192835161166b90611746565b61167491611754565b9560600190815161168490611746565b96600554978861169391611754565b61169c91611767565b906116a691610c0a565b60011c956116b49087611754565b90516116bf90611746565b6116c891611754565b91516116d390611746565b906116dd91611754565b6116e691611767565b6002546116f292611ecb565b916002546116ff92611ecb565b818110908218021890565b6001600160601b03166107d001906001600160601b038211610c1757565b6001600160601b03166103e801906001600160601b038211610c1757565b604d8111610c1757600a0a90565b81810292918115918404141715610c1757565b8115611771570490565b634e487b7160e01b600052601260045260246000fd5b604051632889856360e11b81527f00000000000000000000000000000000000000000000000000000000000000006001600160a01b03169190602081600481865afa908115610749576000916118cc575b507f0000000000000000000000000000000000000000000000000000000000000000906001600160601b038061180d8461170a565b16911602906001600160601b038216918203610c17576001600160601b03168015611771576020600494604051958680926311d2e12360e21b82525afa93841561074957600094611896575b50611892916001600160601b0361187d92611875600854611746565b920416611754565b6001600160601b0360065460181c1690611767565b9190565b9093506020813d6020116118c4575b816118b260209383610a8e565b81010312610158575192611892611859565b3d91506118a5565b90506020813d6020116118fe575b816118e760209383610a8e565b81010312610158576118f890610c3d565b386117d8565b3d91506118da565b906119289193929360009061193361191c610ac6565b95906002549084611ecb565b946002549083611ecb565b9561193c611787565b92869260025480611e0c575b506001600160a01b03168015611dbd5780865285602052604086205491808310611d6d576020816000805160206122338339815191529289958587528684520360408620558060025403600255604051908152a36119a4611e20565b91810390811161123a578392839060001914611cfb575b604051630445da7b60e51b81527f00000000000000000000000000000000000000000000000000000000000000006001600160a01b0316919060e081600481865afa948515610fca5787918896611c9e575b507f00000000000000000000000000000000000000000000000000000000000000006001600160601b038116611a438782611754565b91602084019283516001600160601b0316611a5d91611754565b90611a679061170a565b93606001938451611a7790611746565b611a89916001600160601b0316611754565b611a9291611767565b6001600160601b031696611aa591611754565b90516001600160601b0316611ab991611754565b9051611ac490611746565b90816107d002916107d0830403610f4157611ae86001600160601b03928392611767565b169516841190811591611c8a575b50610f1e57813b15610f1a579185608492819594604051978896879563e55bb4e360e01b875260048701526024860152604485015260648401525af18015610f0f578290611c7a575b50507f00000000000000000000000000000000000000000000000000000000000000006001600160a01b0316907f000000000000000000000000000000000000000000000000000000000000000090823b1561073e57604051627b8a6760e11b8152600481018690526001600160a01b0383166024820152818160448183885af18015610f0f57908291611c65575b50507f000000000000000000000000000000000000000000000000000000000000000092803b15611c6157604051627b8a6760e11b8152600481018990526001600160a01b03851660248201529082908290604490829084905af18015610f0f57611c4c575b505090611c46836118929493866120f9565b856120f9565b611c57828092610a8e565b61073e5780611c34565b5080fd5b81611c6f91610a8e565b61073e578038611bce565b611c8391610a8e565b3881611b3f565b6001600160601b0391501684111538611af6565b9150945060e0813d60e011611cf3575b81611cbb60e09383610a8e565b81010312610fbe57611ccc81610c51565b50611cd960408201610c3d565b611cea60c0610fa160808501610c3d565b50909438611a0d565b3d9150611cae565b509150611d1e8261100e611005610ff8611d186060870151611746565b8c611754565b916001600160601b03611d507f0000000000000000000000000000000000000000000000000000000000000000611728565b166103e88402816103e886830414861517021561106257046119bb565b60405162461bcd60e51b815260206004820152602260248201527f45524332303a206275726e20616d6f756e7420657863656564732062616c616e604482015261636560f01b6064820152608490fd5b60405162461bcd60e51b815260206004820152602160248201527f45524332303a206275726e2066726f6d20746865207a65726f206164647265736044820152607360f81b6064820152608490fd5b611e199194508383611ecb565b9238611948565b60405190610160820182811067ffffffffffffffff821117610ab057604052816001600160601b0360065462ffffff8116835260181c16602082015260018060a01b03600754166040820152600854606082015260018060a01b03600954166080820152600a5460a08201526001600160601b03600b5462ffffff811660c0840152818160181c1660e084015260781c16610100820152600c54610120820152610140600d54910152565b8181029181159183041417820215611ee1570490565b63ad251c276000526004601cfd5b818102929181159184041417810215611ee157808204910615150190565b6001600160a01b031690811561126257600080516020612233833981519152602082611f3d600094600254610c0a565b60025584845283825260408420818154019055604051908152a3565b6000916001600160a01b0381168381611ffc5750507f00000000000000000000000000000000000000000000000000000000000000006001600160a01b031690813b15611ff857604051638340f54960e01b81523060048201526001600160a01b039190911660248201526044810183905291839183916064918391905af18015610f0f57611fe6575050565b611ff1828092610a8e565b61073e5750565b8380fd5b606460209282604051916323b872dd60e01b83523360048401523060248401528760448401525af13d15601f3d116001865114161716156120bd577f00000000000000000000000000000000000000000000000000000000000000006001600160a01b031690813b15611ff857604051638340f54960e01b81523060048201526001600160a01b03919091166024820152604481019290925282908290606490829084905af18015610f0f576120b0575050565b816120ba91610a8e565b50565b60405162461bcd60e51b81526020600482015260146024820152731514905394d1915497d19493d357d1905253115160621b6044820152606490fd5b91906001600160a01b0316806121b35750600080809381935af13d156121ae573d67ffffffffffffffff8111610ab05760405190612141601f8201601f191660200183610a8e565b8152600060203d92013e5b1561215357565b60405162461bcd60e51b815260206004820152602d60248201527f4b757275414d4d5661756c743a206661696c656420746f207472616e7366657260448201526c103730ba34bb32903a37b5b2b760991b6064820152608490fd5b61214c565b60405163a9059cbb60e01b81526001600160a01b039092166004830152602482019290925260209160009160449183905af13d15601f3d11600160005114161716156121fb57565b60405162461bcd60e51b815260206004820152600f60248201526e1514905394d1915497d19052531151608a1b6044820152606490fdfeddf252ad1be2c89b69c2b068fc378daa952ba7f163c4a11628f55a4df523b3efa2646970667358221220d43136f9edbca3c83161588c9fecd99a92198489e478334ede8372e50063876164736f6c634300081a0033360894a13ba1a3210667c828492db98dca3e2076cc3735a920a3ca505d382bbc8be0079c531659141344cd1fd0a4f28419497f9722a3daafe3b4186f6b6457e0a26469706673582212208ff3d54c20cb6a813240099e2c70ec993e345ddcda1743031319522e9501c35d64736f6c634300081a0033",
  "linkReferences": {},
  "deployedLinkReferences": {}
}