{
  "_format": "hh-sol-artifact-1",
  "contractName": "Router",
  "sourceName": "contracts/Router.sol",
  "abi": [
    {
      "anonymous": false,
      "inputs": [
        {
          "indexed": false,
          "internalType": "uint8",
          "name": "version",
          "type": "uint8"
        }
      ],
      "name": "Initialized",
      "type": "event"
    },
    {
      "anonymous": false,
      "inputs": [
        {
          "indexed": false,
          "internalType": "address",
          "name": "baseAsset",
          "type": "address"
        },
        {
          "indexed": false,
          "internalType": "address",
          "name": "quoteAsset",
          "type": "address"
        },
        {
          "indexed": false,
          "internalType": "address",
          "name": "market",
          "type": "address"
        }
      ],
      "name": "MarketRegistered",
      "type": "event"
    },
    {
      "anonymous": false,
      "inputs": [
        {
          "indexed": false,
          "internalType": "address",
          "name": "baseAsset",
          "type": "address"
        },
        {
          "indexed": false,
          "internalType": "address",
          "name": "quoteAsset",
          "type": "address"
        },
        {
          "indexed": false,
          "internalType": "address",
          "name": "market",
          "type": "address"
        }
      ],
      "name": "MarketUpdated",
      "type": "event"
    },
    {
      "anonymous": false,
      "inputs": [
        {
          "indexed": true,
          "internalType": "address",
          "name": "previousOwner",
          "type": "address"
        },
        {
          "indexed": true,
          "internalType": "address",
          "name": "newOwner",
          "type": "address"
        }
      ],
      "name": "OwnershipTransferred",
      "type": "event"
    },
    {
      "inputs": [
        {
          "internalType": "address[]",
          "name": "_marketAddresses",
          "type": "address[]"
        },
        {
          "internalType": "bool[]",
          "name": "_isBuy",
          "type": "bool[]"
        },
        {
          "internalType": "bool[]",
          "name": "_nativeSend",
          "type": "bool[]"
        },
        {
          "internalType": "address",
          "name": "_debitToken",
          "type": "address"
        },
        {
          "internalType": "address",
          "name": "_creditToken",
          "type": "address"
        },
        {
          "internalType": "uint256",
          "name": "_amount",
          "type": "uint256"
        },
        {
          "internalType": "uint256",
          "name": "_minAmountOut",
          "type": "uint256"
        }
      ],
      "name": "anyToAnySwap",
      "outputs": [
        {
          "internalType": "uint256",
          "name": "_amountOut",
          "type": "uint256"
        }
      ],
      "stateMutability": "nonpayable",
      "type": "function"
    },
    {
      "inputs": [
        {
          "internalType": "address",
          "name": "_baseAssetAddress",
          "type": "address"
        },
        {
          "internalType": "address",
          "name": "_quoteAssetAddress",
          "type": "address"
        },
        {
          "internalType": "uint96",
          "name": "_sizePrecision",
          "type": "uint96"
        },
        {
          "internalType": "uint24",
          "name": "_pricePrecision",
          "type": "uint24"
        },
        {
          "internalType": "uint24",
          "name": "_tickSize",
          "type": "uint24"
        },
        {
          "internalType": "uint96",
          "name": "_minSize",
          "type": "uint96"
        },
        {
          "internalType": "uint96",
          "name": "_maxSize",
          "type": "uint96"
        },
        {
          "internalType": "uint256",
          "name": "_takerFeeBps",
          "type": "uint256"
        },
        {
          "internalType": "uint256",
          "name": "_makerFeeBps",
          "type": "uint256"
        },
        {
          "internalType": "address",
          "name": "oldImplementation",
          "type": "address"
        },
        {
          "internalType": "bool",
          "name": "old",
          "type": "bool"
        }
      ],
      "name": "computeAddress",
      "outputs": [
        {
          "internalType": "address",
          "name": "proxy",
          "type": "address"
        }
      ],
      "stateMutability": "view",
      "type": "function"
    },
    {
      "inputs": [
        {
          "internalType": "enum IOrderBook.OrderBookType",
          "name": "_type",
          "type": "uint8"
        },
        {
          "internalType": "address",
          "name": "_baseAssetAddress",
          "type": "address"
        },
        {
          "internalType": "address",
          "name": "_quoteAssetAddress",
          "type": "address"
        },
        {
          "internalType": "uint96",
          "name": "_sizePrecision",
          "type": "uint96"
        },
        {
          "internalType": "uint24",
          "name": "_pricePrecision",
          "type": "uint24"
        },
        {
          "internalType": "uint24",
          "name": "_tickSize",
          "type": "uint24"
        },
        {
          "internalType": "uint96",
          "name": "_minSize",
          "type": "uint96"
        },
        {
          "internalType": "uint96",
          "name": "_maxSize",
          "type": "uint96"
        },
        {
          "internalType": "uint256",
          "name": "_takerFeeBps",
          "type": "uint256"
        },
        {
          "internalType": "uint256",
          "name": "_makerFeeBps",
          "type": "uint256"
        }
      ],
      "name": "deployProxy",
      "outputs": [
        {
          "internalType": "address",
          "name": "proxy",
          "type": "address"
        }
      ],
      "stateMutability": "nonpayable",
      "type": "function"
    },
    {
      "inputs": [
        {
          "internalType": "address",
          "name": "_owner",
          "type": "address"
        },
        {
          "internalType": "address",
          "name": "_marginAccount",
          "type": "address"
        },
        {
          "internalType": "address",
          "name": "_implementation",
          "type": "address"
        }
      ],
      "name": "initialize",
      "outputs": [],
      "stateMutability": "nonpayable",
      "type": "function"
    },
    {
      "inputs": [],
      "name": "owner",
      "outputs": [
        {
          "internalType": "address",
          "name": "",
          "type": "address"
        }
      ],
      "stateMutability": "view",
      "type": "function"
    },
    {
      "inputs": [],
      "name": "renounceOwnership",
      "outputs": [],
      "stateMutability": "nonpayable",
      "type": "function"
    },
    {
      "inputs": [
        {
          "internalType": "address",
          "name": "newOwner",
          "type": "address"
        }
      ],
      "name": "transferOwnership",
      "outputs": [],
      "stateMutability": "nonpayable",
      "type": "function"
    },
    {
      "inputs": [
        {
          "internalType": "address",
          "name": "newImplementation",
          "type": "address"
        }
      ],
      "name": "upgradeImplementation",
      "outputs": [],
      "stateMutability": "nonpayable",
      "type": "function"
    },
    {
      "inputs": [
        {
          "internalType": "address[]",
          "name": "proxies",
          "type": "address[]"
        }
      ],
      "name": "upgradeMultipleProxies",
      "outputs": [],
      "stateMutability": "nonpayable",
      "type": "function"
    },
    {
      "inputs": [
        {
          "internalType": "address",
          "name": "",
          "type": "address"
        }
      ],
      "name": "verifiedMarket",
      "outputs": [
        {
          "internalType": "uint24",
          "name": "pricePrecision",
          "type": "uint24"
        },
        {
          "internalType": "uint96",
          "name": "sizePrecision",
          "type": "uint96"
        },
        {
          "internalType": "address",
          "name": "baseAssetAddress",
          "type": "address"
        },
        {
          "internalType": "uint256",
          "name": "baseAssetDecimals",
          "type": "uint256"
        },
        {
          "internalType": "address",
          "name": "quoteAssetAddress",
          "type": "address"
        },
        {
          "internalType": "uint256",
          "name": "quoteAssetDecimals",
          "type": "uint256"
        },
        {
          "internalType": "uint24",
          "name": "tickSize",
          "type": "uint24"
        },
        {
          "internalType": "uint96",
          "name": "minSize",
          "type": "uint96"
        },
        {
          "internalType": "uint96",
          "name": "maxSize",
          "type": "uint96"
        },
        {
          "internalType": "uint256",
          "name": "takerFeeBps",
          "type": "uint256"
        },
        {
          "internalType": "uint256",
          "name": "makerFeeBps",
          "type": "uint256"
        }
      ],
      "stateMutability": "view",
      "type": "function"
    }
  ],
  "bytecode": "0x6080806040523461001657614012908161001b8239f35b5f80fdfe6080604052600436101562000012575f80fd5b5f803560e01c80631b1b9e7114620014925780633801b7381462000bcf5780635f71a07c1462000b09578063715018a61462000aa857806383f94db71462000a575780638da5cb5b1462000a2c578063c0c53b8b1462000896578063dd44783e14620006d2578063f2fde38b14620006385763ffa5210a1462000093575f80fd5b34620006355760e0366003190112620006355767ffffffffffffffff6004358181116200063157620000ca903690600401620016cc565b90916024358181116200062d57620000e7903690600401620016cc565b939091604435908111620006295762000105903690600401620016cc565b60643595906001600160a01b03871687036200045f57608435956001600160a01b03871687036200045f5760a43590899860018210620005e4578185036200059f576040516323b872dd60e01b81523360048201523060248201526044810184905290602090829060649082908f906001600160a01b03165af18015620005945762000570575b5095949392919089905b8782106200028c578a8a8a60c4358210620002365760405163a9059cbb60e01b815233600482015260248101839052906020908290604490829087906001600160a01b03165af180156200022b5760209350620001f7575b50604051908152f35b6200021b90833d851162000223575b620002128183620016a9565b81019062001760565b5082620001ee565b503d62000206565b6040513d85823e3d90fd5b60405162461bcd60e51b815260206004820152602860248201527f526f757465723a20536c69707061676520657863656564732065787065637465604482015267642076616c75652160c01b6064820152608490fd5b909192939495969850620002a2828a886200177a565b35906001600160a01b03821682036200056c576001600160a01b0382168b5260656020526040808c2090519290620002da846200166e565b60078154916001600160601b0362ffffff84169384885281601891821c16602089015260018060a01b0360018401541660408901526002830154606089015260018060a01b036003840154166080890152600483015460a0890152816005840154809262ffffff821660c08c01521c1660e089015260781c1661010087015260068101546101208701520154610140850152156200052d5760446020928a948e620003916200038b898b8e6200177a565b6200179f565b156200051b57620003a96200038b898c869a6200177a565b159050620004775762ffffff91620003da620003d383606086620003e1965116910151936200196e565b9162001996565b90620019a5565b604051630aaa7ef760e21b815291166004820152600160248201529384928391906001600160a01b03165af19081156200046c578a9162000430575b50975b9594939291906001018862000196565b90506020813d60201162000463575b816200044e60209383620016a9565b810103126200045f57515f6200041d565b5f80fd5b3d91506200043f565b6040513d8c823e3d90fd5b6001600160601b0391620003da620003d38360a0868a6200049f97015116910151936200196e565b604051636571177360e11b815291166004820152600160248201529384928391906001600160a01b03165af19081156200046c578a91620004e3575b509762000420565b90506020813d60201162000512575b816200050160209383620016a9565b810103126200045f57515f620004db565b3d9150620004f2565b620003a96200038b898c849a6200177a565b60405162461bcd60e51b8152602060048201526017602482015276526f757465723a20496e76616c6964206d61726b65742160481b6044820152606490fd5b8a80fd5b6200058c9060203d6020116200022357620002128183620016a9565b505f6200018c565b6040513d8d823e3d90fd5b60405162461bcd60e51b815260206004820152601d60248201527f526f757465723a2053697a6573206c656e677468206d69736d617463680000006044820152606490fd5b60405162461bcd60e51b815260206004820152601b60248201527f526f757465723a204e6f206d61726b65747320696e20696e70757400000000006044820152606490fd5b8580fd5b8480fd5b8280fd5b80fd5b503462000635576020366003190112620006355762000656620015ea565b620006606200186c565b6001600160a01b038116156200067e576200067b90620018c5565b80f35b60405162461bcd60e51b815260206004820152602660248201527f4f776e61626c653a206e6577206f776e657220697320746865207a65726f206160448201526564647265737360d01b6064820152608490fd5b50346200063557602080600319360112620008925760043567ffffffffffffffff9283821162000635573660238301121562000635578160040135936024928186116200087f576005908660051b60405197620007328883018a620016a9565b885285878901918301019136831162000629578601905b8282106200085e57505050825b86518110156200085a5780821b8701860151606654604051631b2ce7f360e11b818a019081526001600160a01b039283168983015288825291909216916060810181811087821117620008475760405251869283929083905af13d1562000841573d8481116200082e5760405190620007d9601f8201601f19168a0183620016a9565b815285883d92013e5b15620007f15760010162000756565b60405162461bcd60e51b81526004810187905260168187015275149bdd5d195c8e88155c19dc9859194811985a5b195960521b6044820152606490fd5b86634e487b7160e01b5f5260416004525ffd5b620007e2565b88634e487b7160e01b5f5260416004525ffd5b8380f35b81356001600160a01b03811681036200045f57815290870190870162000749565b5050634e487b7160e01b81526041600452fd5b5080fd5b5034620006355760603660031901126200063557620008b4620015ea565b620008be62001601565b620008c862001618565b835460ff8160081c16159384809562000a1e575b801562000a05575b15620009a95760ff19821660011786556200092f918562000997575b506200091e60ff875460081c1662000918816200190d565b6200190d565b6200092933620018c5565b620018c5565b60018060a01b0390816001600160601b0360a01b931683606754161760675516906066541617606655620009605780f35b61ff001981541681557f7f26b83ff96e1f2b6a682f133852f6798a09c465da95921460cefb3847402498602060405160018152a180f35b61ffff19166101011786555f62000900565b60405162461bcd60e51b815260206004820152602e60248201527f496e697469616c697a61626c653a20636f6e747261637420697320616c72656160448201526d191e481a5b9a5d1a585b1a5e995960921b6064820152608490fd5b50303b158015620008e45750600160ff831614620008e4565b50600160ff831610620008dc565b503462000635578060031936011262000635576033546040516001600160a01b039091168152602090f35b503462000635576020366003190112620006355762000a75620015ea565b62000a7f6200186c565b6066546001600160a01b03918216918116821462000631576001600160a01b0319161760665580f35b5034620006355780600319360112620006355762000ac56200186c565b603380546001600160a01b031981169091555f906001600160a01b03167f8be0079c531659141344cd1fd0a4f28419497f9722a3daafe3b4186f6b6457e08280a380f35b5034620006355760203660031901126200063557610160906001600160a01b03906040908262000b38620015ea565b1681526065602052209081549162ffffff916001600160601b039080600184015416936002840154916003850154166004850154906005860154936007600688015497015497866040519a8681168c5260181c1660208b015260408a01526060890152608088015260a0870152811660c0860152818160181c1660e086015260781c16610100840152610120830152610140820152f35b50346200045f576101403660031901126200045f57600360043510156200045f5762000bfa62001601565b9062000c0562001618565b6001600160601b0360643516606435036200045f5762000c2462001646565b9162ffffff60a4351660a435036200045f5762000c406200162f565b6001600160601b0360e4351660e435036200045f57600435600103620014835762000d2c62000c955f5b6004356002036200147c575f5b61012435918561010435928a60e4359360a4359260643591620017ad565b62000d39602060405162000cae826103f10182620016a9565b6103f181526103f1620019c58383013960018060a01b036066541662000cf362000d0260405162000cdf816200168c565b5f8152604051928391878301958662001723565b03601f198101835282620016a9565b604051968362000d1c899551809288808901910162001700565b8401915180938684019062001700565b01038085520183620016a9565b815115620014385781516001600160a01b03926020015ff516938415620013f357606754604051906001600160a01b031667ffffffffffffffff612227830190811190831117620013df5761222762001db683396001600160a01b038881166122278401908152908716602082015260408101919091526060810187905260c0608082018190525f90820181905260e060a08301819052820181905290829003610100019190f0918215620012e757600435600103620013705760125b60043560020362001300576012905b6033546001600160a01b0316600435600103620012f9575f5b600435600203620012f2575f5b6067546001600160a01b0316918b3b156200045f576040519363c384871760e01b85526004850152600435602485015260018060a01b0316604484015283606484015260018060a01b031660848301528360a483015260c48201526001600160601b036064351660e482015262ffffff851661010482015262ffffff60a435166101248201526001600160601b0384166101448201526001600160601b0360e4351661016482015261010435610184820152610124356101a482015260018060a01b0386166101c48201525f816101e481838d5af18015620012e757620012c4575b50906001600160601b03929162ffffff6040519562000f2c876200166e565b1685528360643516602086015260018060a01b038a166040860152606085015260018060a01b038716608085015260a084015262ffffff60a4351660c08401521660e08201526001600160601b0360e43516610100820152610104356101208201526101243561014082015284835260656020526007610140604085209262ffffff81511662ffffff19908186541617855562000ff76001600160601b0360208401511686906301000000600160781b0382549160181b16906301000000600160781b031916179055565b60408201516001860180546001600160a01b039283166001600160a01b03199182161790915560608401516002880155608084015160038801805491909316911617905560a0820151600486015560c082015160058601805460e08501516301000000600160781b0360189190911b1662ffffff90931693166effffffffffffffffffffffff00000019169290921717815561010082015181546bffffffffffffffffffffffff60781b191660789190911b6bffffffffffffffffffffffff60781b16179055610120810151600685015501519101556001600160a01b0381163b156200089257604051637660b15360e01b81529082908290600490829084906001600160a01b03165af18015620011d557908291620012ac575b505060016004350362001246575b600260043503620011e0575b6067546001600160a01b0316803b1562000892578180916024604051809481936301aef34960e01b83528960048401525af18015620011d557620011bd575b604080516001600160a01b038088168252851660208281019190915291810186905285907fb313430391c48e1ec63b9cf14dcd61b818b9ae83982f1d4e0e0ad01147af5cd090606090a1604051908152f35b620011c9829162001659565b6200063557806200116b565b6040513d84823e3d90fd5b60405163095ea7b360e01b8152600481018490525f196024820152602081604481856001600160a01b0388165af18015620011d55762001222575b506200112c565b6200123e9060203d6020116200022357620002128183620016a9565b505f6200121b565b60405163095ea7b360e01b8152600481018490525f196024820152602081604481856001600160a01b038a165af18015620011d55762001288575b5062001120565b620012a49060203d6020116200022357620002128183620016a9565b505f62001281565b620012b79062001659565b6200063557805f62001112565b6001600160601b039392919650620012dc9062001659565b5f9590919262000f0d565b6040513d5f823e3d90fd5b8862000e2b565b8962000e1e565b60405163313ce56760e01b81526020816004815f6001600160a01b038c165af1908115620012e7575f9162001338575b509062000e05565b90506020813d60201162001367575b816200135660209383620016a9565b810103126200045f57515f62001330565b3d915062001347565b60405163313ce56760e01b81526020816004815f6001600160a01b038d165af1908115620012e7575f91620013a7575b5062000df6565b90506020813d602011620013d6575b81620013c560209383620016a9565b810103126200045f57515f620013a0565b3d9150620013b6565b634e487b7160e01b5f52604160045260245ffd5b60405162461bcd60e51b815260206004820152601960248201527f437265617465323a204661696c6564206f6e206465706c6f79000000000000006044820152606490fd5b606460405162461bcd60e51b815260206004820152602060248201527f437265617465323a2062797465636f6465206c656e677468206973207a65726f6044820152fd5b8562000c77565b62000d2c62000c958662000c6a565b346200045f576101603660031901126200045f57620014b0620015ea565b620014ba62001601565b6044356001600160601b039283821682036200045f576064359062ffffff821682036200045f57620014eb62001646565b9260a43595861686036200045f57620015036200162f565b6001600160a01b03956101243593909187851685036200045f5761014435988915158a036200045f57605597600b976200154696610104359660e43596620017ad565b90620015ae620015bb6103f1926020988991604051916200156a84880184620016a9565b86835283830196620019c5883915620015de575b62000cf36200159460405162000cdf816200168c565b60405195869362000d1c868601998a925192839162001700565b01038084520182620016a9565b51902090604051916040830152858201523081520160ff81532060405191168152f35b5088606654166200157e565b600435906001600160a01b03821682036200045f57565b602435906001600160a01b03821682036200045f57565b604435906001600160a01b03821682036200045f57565b60c435906001600160601b03821682036200045f57565b6084359062ffffff821682036200045f57565b67ffffffffffffffff8111620013df57604052565b610160810190811067ffffffffffffffff821117620013df57604052565b6020810190811067ffffffffffffffff821117620013df57604052565b90601f8019910116810190811067ffffffffffffffff821117620013df57604052565b9181601f840112156200045f5782359167ffffffffffffffff83116200045f576020808501948460051b0101116200045f57565b5f5b838110620017125750505f910152565b818101518382015260200162001702565b909160609260018060a01b031682526040602083015262001754815180928160408601526020868601910162001700565b601f01601f1916010190565b908160209103126200045f575180151581036200045f5790565b91908110156200178b5760051b0190565b634e487b7160e01b5f52603260045260245ffd5b3580151581036200045f5790565b9297929692959294906001600160a01b038082169089161115620018655796975b6040519760208901996001600160601b0319809260601b168b5260601b1660348901526001600160601b0360a01b9485809460a01b1660488a015262ffffff60e81b809260e81b1660548a015260e81b16605788015260a01b16605a86015260a01b166066840152607283015260928201526092815260c0810181811067ffffffffffffffff821117620013df5760405251902090565b97620017ce565b6033546001600160a01b031633036200188157565b606460405162461bcd60e51b815260206004820152602060248201527f4f776e61626c653a2063616c6c6572206973206e6f7420746865206f776e65726044820152fd5b603380546001600160a01b039283166001600160a01b0319821681179092559091167f8be0079c531659141344cd1fd0a4f28419497f9722a3daafe3b4186f6b6457e05f80a3565b156200191557565b60405162461bcd60e51b815260206004820152602b60248201527f496e697469616c697a61626c653a20636f6e7472616374206973206e6f74206960448201526a6e697469616c697a696e6760a81b6064820152608490fd5b818102929181159184041417156200198257565b634e487b7160e01b5f52601160045260245ffd5b604d81116200198257600a0a90565b8115620019b0570490565b634e487b7160e01b5f52601260045260245ffdfe6040608081526103f18038038061001581610211565b928339810190828183031261020d5780516001600160a01b0381169081810361020d576020838101516001600160401b039491939185821161020d57019085601f8301121561020d5781519161007261006d84610236565b610211565b928084528584019786828401011161020d5787866100909301610251565b823b156101b3577f360894a13ba1a3210667c828492db98dca3e2076cc3735a920a3ca505d382bbc80546001600160a01b031916821790557fbc7cd75a20ee27fd9adebab32041f755214dbc6bffa90cc0225b39da2e5c2d3b5f80a28051158015906101ac575b610109575b855160cb90816103268239f35b8551936060850190811185821017610198578652602784527f416464726573733a206c6f772d6c6576656c2064656c65676174652063616c6c83850152660819985a5b195960ca1b8487015251610184945f918291845af4903d1561018f573d61017561006d82610236565b9081525f81943d92013e610272565b505f808080806100fc565b60609250610272565b634e487b7160e01b5f52604160045260245ffd5b505f6100f7565b865162461bcd60e51b815260048101859052602d60248201527f455243313936373a206e657720696d706c656d656e746174696f6e206973206e60448201526c1bdd08184818dbdb9d1c9858dd609a1b6064820152608490fd5b5f80fd5b6040519190601f01601f191682016001600160401b0381118382101761019857604052565b6001600160401b03811161019857601f01601f191660200190565b5f5b8381106102625750505f910152565b8181015183820152602001610253565b919290156102d45750815115610286575090565b3b1561028f5790565b60405162461bcd60e51b815260206004820152601d60248201527f416464726573733a2063616c6c20746f206e6f6e2d636f6e74726163740000006044820152606490fd5b8251909150156102e75750805190602001fd5b6044604051809262461bcd60e51b8252602060048301526103178151809281602486015260208686019101610251565b601f01601f19168101030190fdfe608060405236156051577f360894a13ba1a3210667c828492db98dca3e2076cc3735a920a3ca505d382bbc545f9081906001600160a01b0316368280378136915af43d5f803e15604d573d5ff35b3d5ffd5b7f360894a13ba1a3210667c828492db98dca3e2076cc3735a920a3ca505d382bbc545f9081906001600160a01b0316368280378136915af43d5f803e15604d573d5ff3fea2646970667358221220005f6243048805e5d1b58154768e386251ed0f6960d1aae752d85146fb204a7764736f6c63430008180033610140604081815234620005d457620022278038038091620000228286620005d8565b843982019060c083830312620005d4576200003d83620005fc565b926020906200004e828201620005fc565b906200005c848201620005fc565b916200006b60608301620005fc565b608083015190966001600160401b03939091848111620005d457826200009391830162000611565b9160a0820151858111620005d457620000ad920162000611565b928151818111620004dd576003908154906001948583811c93168015620005c9575b8a841014620005b5578190601f9384811162000562575b508a90848311600114620004fd575f92620004f1575b50505f1982851b1c191690851b1782555b8551928311620004dd5760049586548581811c91168015620004d2575b8a821014620004bf5782811162000477575b508891841160011462000410579383949184925f9562000404575b50501b925f19911b1c19161782555b60808790526001600160a01b03968716928315801592908990620003f95750865163313ce56760e01b815286818681895afa908115620003ef578a929160ff915f91620003cd575b505b1660a0528060c052169384151591868a845f14620003c1575050875163313ce56760e01b8152878187818a5afa908115620003b7579160ff8c928a945f9162000383575b505b1660e05216936101009a858c526101209a168a5262000321575b5050620002ab575b505050505190611b6c9283620006bb8439608051838181610aef01528181610c810152818161124f015261151d015260a05183505060c051838181610b6501528181610cbe01528181610e7801528181611276015261159d015260e05183505051828181610b1b01528181611398015281816114530152818161154b01526118c60152518181816105a5015261160b0152f35b604484925f8751958694859363095ea7b360e01b8552840152811960248401525af180156200031757620002e2575b808062000218565b816200030692903d106200030f575b620002fd8183620005d8565b810190620006a0565b505f80620002da565b503d620002f1565b83513d5f823e3d90fd5b5f91604489518094819363095ea7b360e01b8352888a840152811960248401525af18015620003795762000357575b8562000210565b6200037190863d88116200030f57620002fd8183620005d8565b505f62000350565b87513d5f823e3d90fd5b620003a89150853d8711620003af575b6200039f8183620005d8565b81019062000685565b5f620001f4565b503d62000393565b89513d5f823e3d90fd5b909160ff6012620001f6565b620003e89150893d8b11620003af576200039f8183620005d8565b5f620001ae565b88513d5f823e3d90fd5b9060ff6012620001b0565b015193505f8062000157565b9190601f19841692875f52848a5f20945f5b8c898383106200045f575050501062000445575b50505050811b01825562000166565b01519060f8845f19921b161c191690555f80808062000436565b86860151895590970196948501948893500162000422565b875f52895f208380870160051c8201928c8810620004b5575b0160051c019086905b828110620004a95750506200013c565b5f815501869062000499565b9250819262000490565b602288634e487b7160e01b5f525260245ffd5b90607f16906200012a565b634e487b7160e01b5f52604160045260245ffd5b015190505f80620000fc565b5f8681528c8120899550929190601f198516908e5b8282106200054a575050841162000532575b505050811b0182556200010d565b01515f1983871b60f8161c191690555f808062000524565b8385015186558b979095019493840193018e62000512565b909150845f528a5f208480850160051c8201928d8610620005ab575b918991869594930160051c01915b8281106200059c575050620000e6565b5f81558594508991016200058c565b925081926200057e565b634e487b7160e01b5f52602260045260245ffd5b92607f1692620000cf565b5f80fd5b601f909101601f19168101906001600160401b03821190821017620004dd57604052565b51906001600160a01b0382168203620005d457565b919080601f84011215620005d45782516001600160401b038111620004dd57602090604051926200064c83601f19601f8501160185620005d8565b818452828287010111620005d4575f5b818110620006715750825f9394955001015290565b85810183015184820184015282016200065c565b90816020910312620005d4575160ff81168103620005d45790565b90816020910312620005d457518015158103620005d4579056fe60406080815260048036101561001e575b5050361561001c575f80fd5b005b5f3560e01c90816301e1d114146109b057816306fdde03146108bc578163095ea7b31461089357816318160ddd1461087557816323b872dd14610839578163313ce5671461081e57816339509351146107d2578163488bd7b0146107a45781634cdad5061461077757816370a08231146107415781637660b153146105725781637a7af70d146105255781638dbdbe6d146104ec57816394bf804d1461049f57816395d89b411461039d578163a457c2d7146102f8578163a9059cbb146102c8578163b3d7f6b914610295578163b460af9414610206578163ba0876521461015d575063dd62ed3e146101115780610010565b3461015957806003193601126101595760209061012c610a10565b610134610a26565b9060018060a01b038091165f5260018452825f2091165f528252805f20549051908152f35b5f80fd5b82346101595761016c36610a52565b9160018060a01b038316805f525f602052845f205482116101b45761019894955033036101a4576111ba565b82519182526020820152f35b6101af813385610fa7565b6111ba565b845162461bcd60e51b8152602081880152602660248201527f4b757275414d4d5661756c743a2072656465656d206d6f7265207468616e2062604482015265616c616e636560d01b6064820152608490fd5b82346101595761021536610a52565b9160018060a01b038316805f525f602052845f205482116102415761019894955033036101a4576111ba565b845162461bcd60e51b8152602081880152602860248201527f4b757275414d4d5661756c743a207769746864726177206d6f7265207468616e6044820152672062616c616e636560c01b6064820152608490fd5b90503461015957602036600319011261015957356101986102b4610ad1565b6102c2600254809386611346565b93611346565b82346101595780600319360112610159576020906102f16102e7610a10565b602435903361103a565b5160018152f35b905034610159578160031936011261015957610312610a10565b9060243590335f526001602052835f2060018060a01b0384165f52602052835f20549082821061034c576020856102f18585038733610ea9565b608490602086519162461bcd60e51b8352820152602560248201527f45524332303a2064656372656173656420616c6c6f77616e63652062656c6f77604482015264207a65726f60d81b6064820152fd5b8234610159575f366003190112610159578051905f9280549060018260011c9160018416938415610495575b6020948585108114610482578488529081156104605750600114610407575b61040386866103f9828b0383610aaf565b51918291826109c9565b0390f35b5f9081529295507f8a35acfbc15ff81a39ae7d344fd709f28e8600b4aa8c65c6b64bfe7fe36bd19b5b82841061044d5750505082610403946103f99282010194866103e8565b8054868501880152928601928101610430565b60ff191687860152505050151560051b83010192506103f982610403866103e8565b602283634e487b7160e01b5f525260245ffd5b92607f16926103c9565b90508160031936011261015957356104b5610a26565b6104df6104d76104c3610ad1565b6104d1600254809388611346565b95611346565b918284610c75565b5082519182526020820152f35b82606036600319011261015957604435916001600160a01b03831683036101595760209261051e916024359035610c75565b9051908152f35b82346101595760209061055361055961053d36610a3c565b9290610547610ad1565b92906002548093611a75565b93611a75565b8082101561056a5750905b51908152f35b905090610564565b8234610159575f366003190112610159578051632432509f60e21b8152610160926001600160a01b0392919084908290817f000000000000000000000000000000000000000000000000000000000000000087165afa908115610737575f935f955f905f905f945f915f975f995f935f935f93610684575b505050600c55600b55600a54976effffffffffffffffffffffff000000809962ffffff809a16936001600160601b0360781b9060781b169064ffffffffff60d81b16179160181b161717600a55600955826001600160601b0360a01b94168460085416176008556007551690600654161760065560055492169260181b16906effffffffffffffffffffffffffffff191617176005555f80f35b9a509a509a5050505050505094505081813d8311610730575b6106a78183610aaf565b81010312610159576106b881610c3d565b906106d06106c860208301610c4d565b938201610c61565b936060820151906106e360808401610c61565b9160a0840151926106f660c08601610c3d565b61070260e08701610c4d565b956107106101008201610c4d565b9761014061012083015192015190999a94939692979891908c80806105ea565b503d61069d565b82513d5f823e3d90fd5b8234610159576020366003190112610159576020906001600160a01b03610766610a10565b165f525f8252805f20549051908152f35b9050346101595760203660031901126101595735610198610796610ad1565b610553600254809386611a75565b8234610159576020906102c26105596107bc36610a3c565b92906107c6610ad1565b92906002548093611346565b82346101595780600319360112610159576020906102f16107f1610a10565b335f5260018452825f2060018060a01b0382165f528452610817602435845f2054610c1c565b9033610ea9565b8234610159575f366003190112610159576020905160128152f35b8234610159576060366003190112610159576020906102f1610859610a10565b610861610a26565b60443591610870833383610fa7565b61103a565b8234610159575f366003190112610159576020906002549051908152f35b82346101595780600319360112610159576020906102f16108b2610a10565b6024359033610ea9565b8234610159575f366003190112610159578051905f9260035460018160011c916001811680156109a6575b602094858510821461099357508387529081156109735750600114610919575b5050506103f982610403940383610aaf565b60035f9081529295507fc2575a0e9e593c00f959f8c92f12db2869c3395a3b0502d05e2516446f71f85b5b8284106109605750505082610403946103f99282010194610907565b8054868501880152928601928101610944565b60ff1916868501525050151560051b83010192506103f982610403610907565b602290634e487b7160e01b5f525260245ffd5b92607f16926108e7565b8234610159575f36600319011261015957610198610ad1565b602080825282518183018190529093925f5b8281106109fc57505060409293505f838284010152601f8019910116010190565b8181018601518482016040015285016109db565b600435906001600160a01b038216820361015957565b602435906001600160a01b038216820361015957565b6040906003190112610159576004359060243590565b606090600319011261015957600435906001600160a01b03906024358281168103610159579160443590811681036101595790565b67ffffffffffffffff8111610a9b57604052565b634e487b7160e01b5f52604160045260245ffd5b90601f8019910116810190811067ffffffffffffffff821117610a9b57604052565b60405163d4fac45d60e01b8082523060048301526001600160a01b037f000000000000000000000000000000000000000000000000000000000000000081166024840152602093927f0000000000000000000000000000000000000000000000000000000000000000909116908481604481855afa928315610be05785915f94610beb575b506040519081523060048201527f00000000000000000000000000000000000000000000000000000000000000006001600160a01b0316602482015291829060449082905afa938415610be0575f94610bb0575b50509190565b9080929450813d8311610bd9575b610bc88183610aaf565b810103126101595751915f80610baa565b503d610bbe565b6040513d5f823e3d90fd5b8281939295503d8311610c15575b610c038183610aaf565b8101031261015957849051925f610b56565b503d610bf9565b91908201809211610c2957565b634e487b7160e01b5f52601160045260245ffd5b519062ffffff8216820361015957565b51906001600160601b038216820361015957565b51906001600160a01b038216820361015957565b906001600160a01b03907f0000000000000000000000000000000000000000000000000000000000000000828116610e7657835b3403610e3157610cb99084611384565b610ce37f000000000000000000000000000000000000000000000000000000000000000082611384565b610ceb6114fa565b600254928380610e025750610d0891610d03916111a7565b61177a565b925b8315610da95716908115610d645782610d2291610c1c565b600255805f525f60205260405f208281540190555f7fddf252ad1be2c89b69c2b068fc378daa952ba7f163c4a11628f55a4df523b3ef6020604051858152a390565b60405162461bcd60e51b815260206004820152601f60248201527f45524332303a206d696e7420746f20746865207a65726f2061646472657373006044820152606490fd5b60405162461bcd60e51b815260206004820152602b60248201527f4b757275414d4d5661756c743a20494e53554646494349454e545f4c4951554960448201526a1112551657d3525395115160aa1b6064820152608490fd5b80610553610e1a93610e12610ad1565b949091611a75565b80821015610e2a57505b92610d0a565b9050610e24565b60405162461bcd60e51b815260206004820152601e60248201527f4b757275414d4d5661756c743a20696e636f727265637420616d6f756e7400006044820152606490fd5b7f00000000000000000000000000000000000000000000000000000000000000008316610ea35781610ca9565b5f610ca9565b6001600160a01b03908116918215610f565716918215610f065760207f8c5be1e5ebec7d5bd14f71427d1e84f3dd0314c0f7b2291e5b200ac8c7c3b92591835f526001825260405f20855f5282528060405f2055604051908152a3565b60405162461bcd60e51b815260206004820152602260248201527f45524332303a20617070726f766520746f20746865207a65726f206164647265604482015261737360f01b6064820152608490fd5b60405162461bcd60e51b8152602060048201526024808201527f45524332303a20617070726f76652066726f6d20746865207a65726f206164646044820152637265737360e01b6064820152608490fd5b9060018060a01b038083165f52600160205260405f209082165f5260205260405f2054925f198403610fda575b50505050565b808410610ff557610fec930391610ea9565b5f808080610fd4565b60405162461bcd60e51b815260206004820152601d60248201527f45524332303a20696e73756666696369656e7420616c6c6f77616e63650000006044820152606490fd5b6001600160a01b03908116918215611154571691821561110357815f525f60205260405f20548181106110af57817fddf252ad1be2c89b69c2b068fc378daa952ba7f163c4a11628f55a4df523b3ef92602092855f525f84520360405f2055845f5260405f20818154019055604051908152a3565b60405162461bcd60e51b815260206004820152602660248201527f45524332303a207472616e7366657220616d6f756e7420657863656564732062604482015265616c616e636560d01b6064820152608490fd5b60405162461bcd60e51b815260206004820152602360248201527f45524332303a207472616e7366657220746f20746865207a65726f206164647260448201526265737360e81b6064820152608490fd5b60405162461bcd60e51b815260206004820152602560248201527f45524332303a207472616e736665722066726f6d20746865207a65726f206164604482015264647265737360d81b6064820152608490fd5b81810292918115918404141715610c2957565b6111e0919392936111c9610ad1565b93906111d9600254809286611a75565b9484611a75565b946001600160a01b031680156112f757805f525f60205260405f2054908382106112a7577fddf252ad1be2c89b69c2b068fc378daa952ba7f163c4a11628f55a4df523b3ef60208561129b965f958587528684520360408620558060025403600255604051908152a3611274817f0000000000000000000000000000000000000000000000000000000000000000856118bb565b7f0000000000000000000000000000000000000000000000000000000000000000856118bb565b6112a36114fa565b9190565b60405162461bcd60e51b815260206004820152602260248201527f45524332303a206275726e20616d6f756e7420657863656564732062616c616e604482015261636560f01b6064820152608490fd5b60405162461bcd60e51b815260206004820152602160248201527f45524332303a206275726e2066726f6d20746865207a65726f206164647265736044820152607360f81b6064820152608490fd5b9190611353828285611a75565b92821561137057096113625790565b60018101809111610c295790565b634e487b7160e01b5f52601260045260245ffd5b906001600160a01b038082168061141557507f00000000000000000000000000000000000000000000000000000000000000001691823b1561015957604051638340f54960e01b81523060048201526001600160a01b0390921660248301526044820181905290915f91839190829081606481015b03925af18015610be05761140a5750565b61141390610a87565b565b5f606460209282604051916323b872dd60e01b83523360048401523060248401528860448401525af13d15601f3d1160015f5114161716156114b4577f00000000000000000000000000000000000000000000000000000000000000001691823b1561015957604051638340f54960e01b81523060048201526001600160a01b0390921660248301526044820152905f908290818381606481016113f9565b60405162461bcd60e51b81526020600482015260146024820152731514905394d1915497d19493d357d1905253115160621b6044820152606490fd5b8115611370570490565b6040805163d4fac45d60e01b808252306004808401919091526001600160a01b037f0000000000000000000000000000000000000000000000000000000000000000811660248501529360209390927f00000000000000000000000000000000000000000000000000000000000000008616908583604481855afa928315611770579086915f9461173f575b508551908152308582019081526001600160a01b037f0000000000000000000000000000000000000000000000000000000000000000166020820152909283918290819060400103915afa948515611735575f95611701575b5050611602929394611640600554966116078462ffffff978893848c16906111a7565b6114f0565b16917f000000000000000000000000000000000000000000000000000000000000000016926001600160601b03809860181c16906111a7565b600754604d81116116db5761165c6003928992600a0a906114f0565b1602908682169182036116ee576103e8928382029382850414821517156116db576101f584018094116116db57803b15610159575f956103eb60649588946107d3988b519c8d9a8b996318d38f4160e11b8b520416908801526024870152041660448401525af19081156116d2575061140a5750565b513d5f823e3d90fd5b601185634e487b7160e01b5f525260245ffd5b601184634e487b7160e01b5f525260245ffd5b9080949550813d831161172e575b6117198183610aaf565b8101031261015957611602925193925f6115df565b503d61170f565b84513d5f823e3d90fd5b8281939295503d8311611769575b6117578183610aaf565b8101031261015957859051925f611586565b503d61174d565b85513d5f823e3d90fd5b80156118b657611844815f908360801c806118aa575b508060401c8061189d575b508060201c80611890575b508060101c80611883575b508060081c80611876575b508060041c80611869575b508060021c8061185c575b50600191828092811c611855575b1c1b6117ec81856114f0565b01811c6117f981856114f0565b01811c61180681856114f0565b01811c61181381856114f0565b01811c61182081856114f0565b01811c61182d81856114f0565b01811c61183a81856114f0565b01901c80926114f0565b80821015611850575090565b905090565b01816117e0565b600291509101905f6117d2565b600491509101905f6117c7565b600891509101905f6117bc565b601091509101905f6117b1565b602091509101905f6117a6565b604091509101905f61179b565b9150506080905f611790565b505f90565b6001600160a01b03927f00000000000000000000000000000000000000000000000000000000000000008416803b15610159576040948551627b8a6760e11b81525f816044818386819b8b600485015216978860248401525af18015611a6b57611a54575b5084929190816119e657505081809381925af1903d156119e0573d9067ffffffffffffffff82116119cc57835191611962601f8201601f191660200184610aaf565b825260203d92013e5b156119735750565b5162461bcd60e51b815260206004820152602d60248201527f4b757275414d4d5661756c743a206661696c656420746f207472616e7366657260448201526c103730ba34bb32903a37b5b2b760991b6064820152608490fd5b634e487b7160e01b81526041600452602490fd5b5061196b565b60449291602095859289519463a9059cbb60e01b865216600485015260248401525af19051600114601f3d11163d15171615611a1f5750565b5162461bcd60e51b815260206004820152600f60248201526e1514905394d1915497d19052531151608a1b6044820152606490fd5b611a619193929550610a87565b5f9390915f611920565b87513d5f823e3d90fd5b915f198284099282810292838086109503948086039514611b265784831115611ae95782910960018219018216809204600280826003021880830282030280830282030280830282030280830282030280830282030280920290030293600183805f03040190848311900302920304170290565b60405162461bcd60e51b81526020600482015260156024820152744d6174683a206d756c446976206f766572666c6f7760581b6044820152606490fd5b505090611b3392506114f0565b9056fea2646970667358221220b0e23a2eb3c05374e2975bb4cb9f262e7ed63ddaaaa4e956e244b864cc18eb1064736f6c63430008180033a2646970667358221220d672b33f04e2b785f4694673661b177e0c7df733f0fe6daf7f8f9e89ab3b8a5564736f6c63430008180033",
  "linkReferences": {},
  "deployedLinkReferences": {}
}