{
    "_format": "hh-sol-artifact-1",
    "contractName": "KuruAMMVault",
    "sourceName": "contracts/KuruAMMVault.sol",
    "abi": [
        {
            "inputs": [
                {
                    "internalType": "address",
                    "name": "token1_",
                    "type": "address"
                },
                {
                    "internalType": "address",
                    "name": "token2_",
                    "type": "address"
                },
                {
                    "internalType": "address",
                    "name": "_marginAccount",
                    "type": "address"
                },
                {
                    "internalType": "address",
                    "name": "_market",
                    "type": "address"
                },
                {
                    "internalType": "uint96",
                    "name": "_spreadConstant",
                    "type": "uint96"
                },
                {
                    "internalType": "string",
                    "name": "_name",
                    "type": "string"
                },
                {
                    "internalType": "string",
                    "name": "_symbol",
                    "type": "string"
                }
            ],
            "stateMutability": "nonpayable",
            "type": "constructor"
        },
        {
            "inputs": [],
            "name": "NewSizeExceedsPartiallyFilledSize",
            "type": "error"
        },
        {
            "anonymous": false,
            "inputs": [
                {
                    "indexed": true,
                    "internalType": "address",
                    "name": "owner",
                    "type": "address"
                },
                {
                    "indexed": true,
                    "internalType": "address",
                    "name": "spender",
                    "type": "address"
                },
                {
                    "indexed": false,
                    "internalType": "uint256",
                    "name": "value",
                    "type": "uint256"
                }
            ],
            "name": "Approval",
            "type": "event"
        },
        {
            "anonymous": false,
            "inputs": [
                {
                    "indexed": true,
                    "internalType": "address",
                    "name": "from",
                    "type": "address"
                },
                {
                    "indexed": true,
                    "internalType": "address",
                    "name": "to",
                    "type": "address"
                },
                {
                    "indexed": false,
                    "internalType": "uint256",
                    "name": "value",
                    "type": "uint256"
                }
            ],
            "name": "Transfer",
            "type": "event"
        },
        {
            "inputs": [
                {
                    "internalType": "address",
                    "name": "owner",
                    "type": "address"
                },
                {
                    "internalType": "address",
                    "name": "spender",
                    "type": "address"
                }
            ],
            "name": "allowance",
            "outputs": [
                {
                    "internalType": "uint256",
                    "name": "",
                    "type": "uint256"
                }
            ],
            "stateMutability": "view",
            "type": "function"
        },
        {
            "inputs": [
                {
                    "internalType": "address",
                    "name": "spender",
                    "type": "address"
                },
                {
                    "internalType": "uint256",
                    "name": "amount",
                    "type": "uint256"
                }
            ],
            "name": "approve",
            "outputs": [
                {
                    "internalType": "bool",
                    "name": "",
                    "type": "bool"
                }
            ],
            "stateMutability": "nonpayable",
            "type": "function"
        },
        {
            "inputs": [
                {
                    "internalType": "address",
                    "name": "account",
                    "type": "address"
                }
            ],
            "name": "balanceOf",
            "outputs": [
                {
                    "internalType": "uint256",
                    "name": "",
                    "type": "uint256"
                }
            ],
            "stateMutability": "view",
            "type": "function"
        },
        {
            "inputs": [],
            "name": "decimals",
            "outputs": [
                {
                    "internalType": "uint8",
                    "name": "",
                    "type": "uint8"
                }
            ],
            "stateMutability": "view",
            "type": "function"
        },
        {
            "inputs": [
                {
                    "internalType": "address",
                    "name": "spender",
                    "type": "address"
                },
                {
                    "internalType": "uint256",
                    "name": "subtractedValue",
                    "type": "uint256"
                }
            ],
            "name": "decreaseAllowance",
            "outputs": [
                {
                    "internalType": "bool",
                    "name": "",
                    "type": "bool"
                }
            ],
            "stateMutability": "nonpayable",
            "type": "function"
        },
        {
            "inputs": [
                {
                    "internalType": "uint256",
                    "name": "amount1",
                    "type": "uint256"
                },
                {
                    "internalType": "uint256",
                    "name": "amount2",
                    "type": "uint256"
                },
                {
                    "internalType": "address",
                    "name": "receiver",
                    "type": "address"
                }
            ],
            "name": "deposit",
            "outputs": [
                {
                    "internalType": "uint256",
                    "name": "",
                    "type": "uint256"
                }
            ],
            "stateMutability": "payable",
            "type": "function"
        },
        {
            "inputs": [
                {
                    "internalType": "address",
                    "name": "spender",
                    "type": "address"
                },
                {
                    "internalType": "uint256",
                    "name": "addedValue",
                    "type": "uint256"
                }
            ],
            "name": "increaseAllowance",
            "outputs": [
                {
                    "internalType": "bool",
                    "name": "",
                    "type": "bool"
                }
            ],
            "stateMutability": "nonpayable",
            "type": "function"
        },
        {
            "inputs": [
                {
                    "internalType": "uint256",
                    "name": "shares",
                    "type": "uint256"
                },
                {
                    "internalType": "address",
                    "name": "receiver",
                    "type": "address"
                }
            ],
            "name": "mint",
            "outputs": [
                {
                    "internalType": "uint256",
                    "name": "",
                    "type": "uint256"
                },
                {
                    "internalType": "uint256",
                    "name": "",
                    "type": "uint256"
                }
            ],
            "stateMutability": "payable",
            "type": "function"
        },
        {
            "inputs": [],
            "name": "name",
            "outputs": [
                {
                    "internalType": "string",
                    "name": "",
                    "type": "string"
                }
            ],
            "stateMutability": "view",
            "type": "function"
        },
        {
            "inputs": [
                {
                    "internalType": "uint256",
                    "name": "asset1",
                    "type": "uint256"
                },
                {
                    "internalType": "uint256",
                    "name": "asset2",
                    "type": "uint256"
                }
            ],
            "name": "previewDeposit",
            "outputs": [
                {
                    "internalType": "uint256",
                    "name": "",
                    "type": "uint256"
                }
            ],
            "stateMutability": "view",
            "type": "function"
        },
        {
            "inputs": [
                {
                    "internalType": "uint256",
                    "name": "shares",
                    "type": "uint256"
                }
            ],
            "name": "previewMint",
            "outputs": [
                {
                    "internalType": "uint256",
                    "name": "",
                    "type": "uint256"
                },
                {
                    "internalType": "uint256",
                    "name": "",
                    "type": "uint256"
                }
            ],
            "stateMutability": "view",
            "type": "function"
        },
        {
            "inputs": [
                {
                    "internalType": "uint256",
                    "name": "shares",
                    "type": "uint256"
                }
            ],
            "name": "previewRedeem",
            "outputs": [
                {
                    "internalType": "uint256",
                    "name": "",
                    "type": "uint256"
                },
                {
                    "internalType": "uint256",
                    "name": "",
                    "type": "uint256"
                }
            ],
            "stateMutability": "view",
            "type": "function"
        },
        {
            "inputs": [
                {
                    "internalType": "uint256",
                    "name": "asset1",
                    "type": "uint256"
                },
                {
                    "internalType": "uint256",
                    "name": "asset2",
                    "type": "uint256"
                }
            ],
            "name": "previewWithdraw",
            "outputs": [
                {
                    "internalType": "uint256",
                    "name": "",
                    "type": "uint256"
                }
            ],
            "stateMutability": "view",
            "type": "function"
        },
        {
            "inputs": [
                {
                    "internalType": "uint256",
                    "name": "shares",
                    "type": "uint256"
                },
                {
                    "internalType": "address",
                    "name": "receiver",
                    "type": "address"
                },
                {
                    "internalType": "address",
                    "name": "owner",
                    "type": "address"
                }
            ],
            "name": "redeem",
            "outputs": [
                {
                    "internalType": "uint256",
                    "name": "",
                    "type": "uint256"
                },
                {
                    "internalType": "uint256",
                    "name": "",
                    "type": "uint256"
                }
            ],
            "stateMutability": "nonpayable",
            "type": "function"
        },
        {
            "inputs": [],
            "name": "setMarketParams",
            "outputs": [],
            "stateMutability": "nonpayable",
            "type": "function"
        },
        {
            "inputs": [],
            "name": "symbol",
            "outputs": [
                {
                    "internalType": "string",
                    "name": "",
                    "type": "string"
                }
            ],
            "stateMutability": "view",
            "type": "function"
        },
        {
            "inputs": [],
            "name": "totalAssets",
            "outputs": [
                {
                    "internalType": "uint256",
                    "name": "",
                    "type": "uint256"
                },
                {
                    "internalType": "uint256",
                    "name": "",
                    "type": "uint256"
                }
            ],
            "stateMutability": "view",
            "type": "function"
        },
        {
            "inputs": [],
            "name": "totalSupply",
            "outputs": [
                {
                    "internalType": "uint256",
                    "name": "",
                    "type": "uint256"
                }
            ],
            "stateMutability": "view",
            "type": "function"
        },
        {
            "inputs": [
                {
                    "internalType": "address",
                    "name": "to",
                    "type": "address"
                },
                {
                    "internalType": "uint256",
                    "name": "amount",
                    "type": "uint256"
                }
            ],
            "name": "transfer",
            "outputs": [
                {
                    "internalType": "bool",
                    "name": "",
                    "type": "bool"
                }
            ],
            "stateMutability": "nonpayable",
            "type": "function"
        },
        {
            "inputs": [
                {
                    "internalType": "address",
                    "name": "from",
                    "type": "address"
                },
                {
                    "internalType": "address",
                    "name": "to",
                    "type": "address"
                },
                {
                    "internalType": "uint256",
                    "name": "amount",
                    "type": "uint256"
                }
            ],
            "name": "transferFrom",
            "outputs": [
                {
                    "internalType": "bool",
                    "name": "",
                    "type": "bool"
                }
            ],
            "stateMutability": "nonpayable",
            "type": "function"
        },
        {
            "inputs": [
                {
                    "internalType": "uint256",
                    "name": "shares",
                    "type": "uint256"
                },
                {
                    "internalType": "address",
                    "name": "receiver",
                    "type": "address"
                },
                {
                    "internalType": "address",
                    "name": "owner",
                    "type": "address"
                }
            ],
            "name": "withdraw",
            "outputs": [
                {
                    "internalType": "uint256",
                    "name": "",
                    "type": "uint256"
                },
                {
                    "internalType": "uint256",
                    "name": "",
                    "type": "uint256"
                }
            ],
            "stateMutability": "nonpayable",
            "type": "function"
        },
        {
            "stateMutability": "payable",
            "type": "receive"
        }
    ],
    "bytecode": "0x610160806040523461061e57612983803803809161001d8285610623565b8339810160e08282031261061e5761003482610646565b61004060208401610646565b61004c60408501610646565b9161005960608601610646565b6080860151959094906001600160601b038716870361061e5760a08101516001600160401b03811161061e578261009191830161065a565b60c08201519092906001600160401b03811161061e576100b1920161065a565b815190916001600160401b03821161051b5760035490600182811c92168015610614575b60208310146104fb5781601f8493116105a4575b50602090601f831160011461053c57600092610531575b50508160011b916000199060031b1c1916176003555b8051906001600160401b03821161051b5760045490600182811c92168015610511575b60208310146104fb5781601f84931161048b575b50602090601f831160011461042357600092610418575b50508160011b916000199060031b1c1916176004555b670de0b6b3a764000060055560808190526001600160a01b03169081158015919061040f5760405163313ce56760e01b8152602081600481875afa801561035b5760ff916000916103f0575b505b1660a05260c08190526001600160a01b0316948515801594906103e75760405163313ce56760e01b81526020816004818b5afa801561035b5760ff916000916103b8575b505b1660e0526001600160a01b0390811661010081905295166101205261014052610367575b506102f3575b60405161228890816106fb8239608051818181610ae301528181610c6a0152611b6e015260a05181505060c051818181610b5b01528181610ed7015281816112fd0152611bd2015260e05181505061010051818181610b0b015281816111b701528181611b4301528181611f70015261203901526101205181818161059101528181610d4f0152818161179601526119ca015261014051818181610d9501528181611021015281816117db01528181611a100152611d2c0152f35b6000916044602092604051948593849263095ea7b360e01b84526004840152811960248401525af1801561035b5761032c575b80610238565b61034d9060203d602011610354575b6103458183610623565b8101906106e2565b5038610326565b503d61033b565b6040513d6000823e3d90fd5b602060009160446040518094819363095ea7b360e01b8352886004840152811960248401525af1801561035b5715610232576103b19060203d602011610354576103458183610623565b5038610232565b6103da915060203d6020116103e0575b6103d28183610623565b8101906106c9565b3861020c565b503d6103c8565b60ff601261020e565b610409915060203d6020116103e0576103d28183610623565b386101c6565b60ff60126101c8565b015190503880610164565b600460009081528281209350601f198516905b818110610473575090846001959493921061045a575b505050811b0160045561017a565b015160001960f88460031b161c1916905538808061044c565b92936020600181928786015181550195019301610436565b60046000529091507f8a35acfbc15ff81a39ae7d344fd709f28e8600b4aa8c65c6b64bfe7fe36bd19b601f840160051c810191602085106104f1575b90601f859493920160051c01905b8181106104e2575061014d565b600081558493506001016104d5565b90915081906104c7565b634e487b7160e01b600052602260045260246000fd5b91607f1691610139565b634e487b7160e01b600052604160045260246000fd5b015190503880610100565b600360009081528281209350601f198516905b81811061058c5750908460019594939210610573575b505050811b01600355610116565b015160001960f88460031b161c19169055388080610565565b9293602060018192878601518155019501930161054f565b60036000529091507fc2575a0e9e593c00f959f8c92f12db2869c3395a3b0502d05e2516446f71f85b601f840160051c8101916020851061060a575b90601f859493920160051c01905b8181106105fb57506100e9565b600081558493506001016105ee565b90915081906105e0565b91607f16916100d5565b600080fd5b601f909101601f19168101906001600160401b0382119082101761051b57604052565b51906001600160a01b038216820361061e57565b81601f8201121561061e578051906001600160401b03821161051b576040519261068e601f8401601f191660200185610623565b8284526020838301011161061e5760005b8281106106b457505060206000918301015290565b8060208092840101518282870101520161069f565b9081602091031261061e575160ff8116810361061e5790565b9081602091031261061e5751801515810361061e579056fe6080604052600436101561001b575b361561001957600080fd5b005b60003560e01c806301e1d114146109ae57806306fdde03146108f0578063095ea7b3146108ca57806318160ddd146108ac57806323b872dd14610874578063313ce567146108585780633950935114610806578063488bd7b0146107cc5780634cdad5061461078f57806370a08231146107555780637660b1531461056a5780637a7af70d146105475780638dbdbe6d1461050f57806394bf804d146104ba57806395d89b41146103b3578063a457c2d71461030c578063a9059cbb146102db578063b3d7f6b9146102a1578063b460af941461020c578063ba0876521461015d5763dd62ed3e0361000e573461015857604036600319011261015857610120610a12565b610128610a28565b6001600160a01b039182166000908152600160209081526040808320949093168252928352819020549051908152f35b600080fd5b346101585761016b36610a54565b60018060a01b0381169182600052600060205260406000205484116101b85760409361019c9333036101a857611906565b82519182526020820152f35b6101b3813385611433565b611906565b60405162461bcd60e51b815260206004820152602660248201527f4b757275414d4d5661756c743a2072656465656d206d6f7265207468616e2062604482015265616c616e636560d01b6064820152608490fd5b346101585761021a36610a54565b60018060a01b03811691826000526000602052604060002054841161024b5760409361019c9333036101a857611906565b60405162461bcd60e51b815260206004820152602860248201527f4b757275414d4d5661756c743a207769746864726177206d6f7265207468616e6044820152672062616c616e636560c01b6064820152608490fd5b346101585760203660031901126101585760406102d161019c6004356102c5610ac6565b93906002549083611eef565b9260025491611eef565b34610158576040366003190112610158576103016102f7610a12565b60243590336114d0565b602060405160018152f35b3461015857604036600319011261015857610325610a12565b60243590336000526001602052604060002060018060a01b03821660005260205260406000205491808310610360576103019203903361132b565b60405162461bcd60e51b815260206004820152602560248201527f45524332303a2064656372656173656420616c6c6f77616e63652062656c6f77604482015264207a65726f60d81b6064820152608490fd5b346101585760003660031901126101585760405160006004548060011c906001811680156104b0575b60208310811461049c578285529081156104785750600114610419575b6104158361040981850382610a8e565b604051918291826109c9565b0390f35b600460009081527f8a35acfbc15ff81a39ae7d344fd709f28e8600b4aa8c65c6b64bfe7fe36bd19b939250905b80821061045e575090915081016020016104096103f9565b919260018160209254838588010152019101909291610446565b60ff191660208086019190915291151560051b8401909101915061040990506103f9565b634e487b7160e01b84526022600452602484fd5b91607f16916103dc565b60403660031901126101585760406104f06104d3610a28565b6105026104fa6004356104e4610ac6565b95906002549083611eef565b9460025491611eef565b918284610c65565b5082519182526020820152f35b6060366003190112610158576044356001600160a01b03811681036101585761053f602091602435600435610c65565b604051908152f35b3461015857602061053f61055a36610a3e565b610562611787565b92905061163d565b3461015857600036600319011261015857604051632432509f60e21b8152610160816004817f00000000000000000000000000000000000000000000000000000000000000006001600160a01b03165afa80156107495760009081928291839184918591868791889389918a91610684575b50906301000000600160781b039291600d55600c5562ffffff600b549116936001600160601b0360781b9060781b169064ffffffffff60d81b16179160181b161717600b55600a5560018060a01b031660018060a01b0319600954161760095560085560018060a01b031660018060a01b031960075416176007556301000000600160781b0362ffffff60065492169260181b169060018060781b0319161717600655600080f35b9a50505050505050505050610160823d8211610741575b816106a96101609383610a8e565b8101031261073e57506106bb81610c2d565b906106c860208201610c3d565b906106d560408201610c51565b926060820151916106e860808201610c51565b9160a0820151916106fb60c08201610c2d565b916301000000600160781b0361071360e08401610c3d565b6107206101008501610c3d565b9261014061012086015195015190999a9897969591939491926105dc565b80fd5b3d915061069b565b6040513d6000823e3d90fd5b34610158576020366003190112610158576001600160a01b03610776610a12565b1660005260006020526020604060002054604051908152f35b34610158576020366003190112610158576040600061019c6004356107c16107b5610ac6565b91906002549084611ecb565b935060025491611ecb565b346101585760206107f66107df36610a3e565b91906107ec6107ec610ac6565b9260025490611eef565b8181109082180218604051908152f35b3461015857604036600319011261015857610301610822610a12565b336000526001602052604060002060018060a01b03821660005260205261085160406000206024359054610c0a565b903361132b565b3461015857600036600319011261015857602060405160128152f35b3461015857606036600319011261015857610301610890610a12565b610898610a28565b604435916108a7833383611433565b6114d0565b34610158576000366003190112610158576020600254604051908152f35b34610158576040366003190112610158576103016108e6610a12565b602435903361132b565b346101585760003660031901126101585760405160006003548060011c906001811680156109a4575b60208310811461049c578285529081156104785750600114610945576104158361040981850382610a8e565b600360009081527fc2575a0e9e593c00f959f8c92f12db2869c3395a3b0502d05e2516446f71f85b939250905b80821061098a575090915081016020016104096103f9565b919260018160209254838588010152019101909291610972565b91607f1691610919565b3461015857600036600319011261015857604061019c610ac6565b91909160208152825180602083015260005b8181106109fc575060409293506000838284010152601f8019910116010190565b80602080928701015160408286010152016109db565b600435906001600160a01b038216820361015857565b602435906001600160a01b038216820361015857565b6040906003190112610158576004359060243590565b606090600319011261015857600435906024356001600160a01b038116810361015857906044356001600160a01b03811681036101585790565b90601f8019910116810190811067ffffffffffffffff821117610ab057604052565b634e487b7160e01b600052604160045260246000fd5b60405163d4fac45d60e01b81523060048201526001600160a01b037f0000000000000000000000000000000000000000000000000000000000000000811660248301527f0000000000000000000000000000000000000000000000000000000000000000169190602081604481865afa90811561074957600091610bd8575b5060405163d4fac45d60e01b81523060048201527f00000000000000000000000000000000000000000000000000000000000000006001600160a01b0316602482015292602090849060449082905afa92831561074957600093610ba857509190565b9092506020813d602011610bd0575b81610bc460209383610a8e565b81010312610158575190565b3d9150610bb7565b90506020813d602011610c02575b81610bf360209383610a8e565b81010312610158575138610b45565b3d9150610be6565b91908201809211610c1757565b634e487b7160e01b600052601160045260246000fd5b519062ffffff8216820361015857565b51906001600160601b038216820361015857565b51906001600160a01b038216820361015857565b9091907f00000000000000000000000000000000000000000000000000000000000000009060006001600160a01b038316158080156112fa575b156112f257156112ec57815b3410155b156112a75784610cbd611787565b6002549092901561111f5750610cfe610ced610cdc6005548588611eef565b610ce7600a54611746565b90611754565b610cf8600854611746565b90611767565b9687116110c857610d1b610d1383898761163d565b809897611f0d565b861561106f57610d3384610d2d611e20565b92610c0a565b8392839060001914610fd5575b604051630445da7b60e51b81527f00000000000000000000000000000000000000000000000000000000000000006001600160a01b0316919060e081600481865afa948515610fca5787918896610f55575b507f00000000000000000000000000000000000000000000000000000000000000006001600160601b038116610dc88782611754565b91602084019283516001600160601b0316610de291611754565b90610dec9061170a565b93606001938451610dfc90611746565b610e0e916001600160601b0316611754565b610e1791611767565b6001600160601b031696610e2a91611754565b90516001600160601b0316610e3e91611754565b9051610e4990611746565b90816107d002916107d0830403610f4157610e6d6001600160601b03928392611767565b169516841190811591610f2d575b50610f1e57813b15610f1a579185608492819594604051978896879563e55bb4e360e01b875260048701526024860152604485015260648401525af18015610f0f5791610ed59391610efc969593610eff575b5050611f59565b7f000000000000000000000000000000000000000000000000000000000000000090611f59565b90565b81610f0991610a8e565b38610ece565b6040513d84823e3d90fd5b8580fd5b636a2628d960e01b8652600486fd5b6001600160601b0391501684111538610e7b565b634e487b7160e01b89526011600452602489fd5b9150945060e0813d60e011610fc2575b81610f7260e09383610a8e565b81010312610fbe57610f8381610c51565b50610f9060408201610c3d565b610fb560c0610fa160808501610c3d565b93610fae60a08201610c3d565b5001610c3d565b50909438610d92565b8680fd5b3d9150610f65565b6040513d89823e3d90fd5b5091506110138261100e611005610ff8610ff26060870151611746565b8b611754565b610cf860a0870151611746565b60055490611754565b611767565b916001600160601b036110457f0000000000000000000000000000000000000000000000000000000000000000611728565b166103e88402816103e88683041486151702156110625704610d40565b63ad251c2786526004601cfd5b60405162461bcd60e51b815260206004820152602b60248201527f4b757275414d4d5661756c743a20494e53554646494349454e545f4c4951554960448201526a1112551657d3525395115160aa1b6064820152608490fd5b60405162461bcd60e51b815260206004820152602960248201527f4b757275414d4d5661756c743a20494e53554646494349454e5420544f4b454e6044820152680814d554141312515160ba1b6064820152608490fd5b959661112b9085611754565b8060018060881b031060071b81811c68ffffffffffffffffff1060061b1781811c64ffffffffff1060051b1781811c62ffffff1060041b1760b56201000083831c019160011c1b0260121c8082040160011c8082040160011c8082040160011c8082040160011c8082040160011c8082040160011c8082040160011c8080920410900360018060a01b037f0000000000000000000000000000000000000000000000000000000000000000168015611262576002546103e8810180911161124e5760025580855284602052604085206103e881540190558460008051602061223383398151915260206040516103e88152a36103e719810190811161123a57806112359198611f0d565b610d1b565b634e487b7160e01b84526011600452602484fd5b634e487b7160e01b86526011600452602486fd5b60405162461bcd60e51b815260206004820152601f60248201527f45524332303a206d696e7420746f20746865207a65726f2061646472657373006044820152606490fd5b60405162461bcd60e51b815260206004820152601e60248201527f4b757275414d4d5661756c743a20696e636f727265637420616d6f756e7400006044820152606490fd5b84610cab565b503415610caf565b507f00000000000000000000000000000000000000000000000000000000000000006001600160a01b031615610c9f565b6001600160a01b03169081156113e2576001600160a01b03169182156113925760207f8c5be1e5ebec7d5bd14f71427d1e84f3dd0314c0f7b2291e5b200ac8c7c3b925918360005260018252604060002085600052825280604060002055604051908152a3565b60405162461bcd60e51b815260206004820152602260248201527f45524332303a20617070726f766520746f20746865207a65726f206164647265604482015261737360f01b6064820152608490fd5b60405162461bcd60e51b8152602060048201526024808201527f45524332303a20617070726f76652066726f6d20746865207a65726f206164646044820152637265737360e01b6064820152608490fd5b9060018060a01b0382166000526001602052604060002060018060a01b038216600052602052604060002054926000198403611470575b50505050565b80841061148b5761148293039161132b565b3880808061146a565b60405162461bcd60e51b815260206004820152601d60248201527f45524332303a20696e73756666696369656e7420616c6c6f77616e63650000006044820152606490fd5b6001600160a01b03169081156115ea576001600160a01b03169182156115995781600052600060205260406000205481811061154557816000805160206122338339815191529260209285600052600084520360406000205584600052600082526040600020818154019055604051908152a3565b60405162461bcd60e51b815260206004820152602660248201527f45524332303a207472616e7366657220616d6f756e7420657863656564732062604482015265616c616e636560d01b6064820152608490fd5b60405162461bcd60e51b815260206004820152602360248201527f45524332303a207472616e7366657220746f20746865207a65726f206164647260448201526265737360e81b6064820152608490fd5b60405162461bcd60e51b815260206004820152602560248201527f45524332303a207472616e736665722066726f6d20746865207a65726f206164604482015264647265737360d81b6064820152608490fd5b82611646610ac6565b9190611650611e20565b9561165a91611754565b9160a0860192835161166b90611746565b61167491611754565b9560600190815161168490611746565b96600554978861169391611754565b61169c91611767565b906116a691610c0a565b60011c956116b49087611754565b90516116bf90611746565b6116c891611754565b91516116d390611746565b906116dd91611754565b6116e691611767565b6002546116f292611ecb565b916002546116ff92611ecb565b818110908218021890565b6001600160601b03166107d001906001600160601b038211610c1757565b6001600160601b03166103e801906001600160601b038211610c1757565b604d8111610c1757600a0a90565b81810292918115918404141715610c1757565b8115611771570490565b634e487b7160e01b600052601260045260246000fd5b604051632889856360e11b81527f00000000000000000000000000000000000000000000000000000000000000006001600160a01b03169190602081600481865afa908115610749576000916118cc575b507f0000000000000000000000000000000000000000000000000000000000000000906001600160601b038061180d8461170a565b16911602906001600160601b038216918203610c17576001600160601b03168015611771576020600494604051958680926311d2e12360e21b82525afa93841561074957600094611896575b50611892916001600160601b0361187d92611875600854611746565b920416611754565b6001600160601b0360065460181c1690611767565b9190565b9093506020813d6020116118c4575b816118b260209383610a8e565b81010312610158575192611892611859565b3d91506118a5565b90506020813d6020116118fe575b816118e760209383610a8e565b81010312610158576118f890610c3d565b386117d8565b3d91506118da565b906119289193929360009061193361191c610ac6565b95906002549084611ecb565b946002549083611ecb565b9561193c611787565b92869260025480611e0c575b506001600160a01b03168015611dbd5780865285602052604086205491808310611d6d576020816000805160206122338339815191529289958587528684520360408620558060025403600255604051908152a36119a4611e20565b91810390811161123a578392839060001914611cfb575b604051630445da7b60e51b81527f00000000000000000000000000000000000000000000000000000000000000006001600160a01b0316919060e081600481865afa948515610fca5787918896611c9e575b507f00000000000000000000000000000000000000000000000000000000000000006001600160601b038116611a438782611754565b91602084019283516001600160601b0316611a5d91611754565b90611a679061170a565b93606001938451611a7790611746565b611a89916001600160601b0316611754565b611a9291611767565b6001600160601b031696611aa591611754565b90516001600160601b0316611ab991611754565b9051611ac490611746565b90816107d002916107d0830403610f4157611ae86001600160601b03928392611767565b169516841190811591611c8a575b50610f1e57813b15610f1a579185608492819594604051978896879563e55bb4e360e01b875260048701526024860152604485015260648401525af18015610f0f578290611c7a575b50507f00000000000000000000000000000000000000000000000000000000000000006001600160a01b0316907f000000000000000000000000000000000000000000000000000000000000000090823b1561073e57604051627b8a6760e11b8152600481018690526001600160a01b0383166024820152818160448183885af18015610f0f57908291611c65575b50507f000000000000000000000000000000000000000000000000000000000000000092803b15611c6157604051627b8a6760e11b8152600481018990526001600160a01b03851660248201529082908290604490829084905af18015610f0f57611c4c575b505090611c46836118929493866120f9565b856120f9565b611c57828092610a8e565b61073e5780611c34565b5080fd5b81611c6f91610a8e565b61073e578038611bce565b611c8391610a8e565b3881611b3f565b6001600160601b0391501684111538611af6565b9150945060e0813d60e011611cf3575b81611cbb60e09383610a8e565b81010312610fbe57611ccc81610c51565b50611cd960408201610c3d565b611cea60c0610fa160808501610c3d565b50909438611a0d565b3d9150611cae565b509150611d1e8261100e611005610ff8611d186060870151611746565b8c611754565b916001600160601b03611d507f0000000000000000000000000000000000000000000000000000000000000000611728565b166103e88402816103e886830414861517021561106257046119bb565b60405162461bcd60e51b815260206004820152602260248201527f45524332303a206275726e20616d6f756e7420657863656564732062616c616e604482015261636560f01b6064820152608490fd5b60405162461bcd60e51b815260206004820152602160248201527f45524332303a206275726e2066726f6d20746865207a65726f206164647265736044820152607360f81b6064820152608490fd5b611e199194508383611ecb565b9238611948565b60405190610160820182811067ffffffffffffffff821117610ab057604052816001600160601b0360065462ffffff8116835260181c16602082015260018060a01b03600754166040820152600854606082015260018060a01b03600954166080820152600a5460a08201526001600160601b03600b5462ffffff811660c0840152818160181c1660e084015260781c16610100820152600c54610120820152610140600d54910152565b8181029181159183041417820215611ee1570490565b63ad251c276000526004601cfd5b818102929181159184041417810215611ee157808204910615150190565b6001600160a01b031690811561126257600080516020612233833981519152602082611f3d600094600254610c0a565b60025584845283825260408420818154019055604051908152a3565b6000916001600160a01b0381168381611ffc5750507f00000000000000000000000000000000000000000000000000000000000000006001600160a01b031690813b15611ff857604051638340f54960e01b81523060048201526001600160a01b039190911660248201526044810183905291839183916064918391905af18015610f0f57611fe6575050565b611ff1828092610a8e565b61073e5750565b8380fd5b606460209282604051916323b872dd60e01b83523360048401523060248401528760448401525af13d15601f3d116001865114161716156120bd577f00000000000000000000000000000000000000000000000000000000000000006001600160a01b031690813b15611ff857604051638340f54960e01b81523060048201526001600160a01b03919091166024820152604481019290925282908290606490829084905af18015610f0f576120b0575050565b816120ba91610a8e565b50565b60405162461bcd60e51b81526020600482015260146024820152731514905394d1915497d19493d357d1905253115160621b6044820152606490fd5b91906001600160a01b0316806121b35750600080809381935af13d156121ae573d67ffffffffffffffff8111610ab05760405190612141601f8201601f191660200183610a8e565b8152600060203d92013e5b1561215357565b60405162461bcd60e51b815260206004820152602d60248201527f4b757275414d4d5661756c743a206661696c656420746f207472616e7366657260448201526c103730ba34bb32903a37b5b2b760991b6064820152608490fd5b61214c565b60405163a9059cbb60e01b81526001600160a01b039092166004830152602482019290925260209160009160449183905af13d15601f3d11600160005114161716156121fb57565b60405162461bcd60e51b815260206004820152600f60248201526e1514905394d1915497d19052531151608a1b6044820152606490fdfeddf252ad1be2c89b69c2b068fc378daa952ba7f163c4a11628f55a4df523b3efa2646970667358221220d43136f9edbca3c83161588c9fecd99a92198489e478334ede8372e50063876164736f6c634300081a0033",
    "linkReferences": {},
    "deployedLinkReferences": {}
}